{
  "address": "0x96D50f546665E7956985E900c2320477C604055d",
  "abi": [
    {
      "inputs": [
        {
          "internalType": "string",
          "name": "name",
          "type": "string"
        },
        {
          "internalType": "string",
          "name": "symbol",
          "type": "string"
        },
        {
          "internalType": "address",
          "name": "recipient",
          "type": "address"
        }
      ],
      "stateMutability": "nonpayable",
      "type": "constructor"
    },
    {
      "anonymous": false,
      "inputs": [
        {
          "indexed": true,
          "internalType": "address",
          "name": "owner",
          "type": "address"
        },
        {
          "indexed": true,
          "internalType": "address",
          "name": "spender",
          "type": "address"
        },
        {
          "indexed": false,
          "internalType": "uint256",
          "name": "value",
          "type": "uint256"
        }
      ],
      "name": "Approval",
      "type": "event"
    },
    {
      "anonymous": false,
      "inputs": [
        {
          "indexed": true,
          "internalType": "address",
          "name": "from",
          "type": "address"
        },
        {
          "indexed": true,
          "internalType": "address",
          "name": "to",
          "type": "address"
        },
        {
          "indexed": false,
          "internalType": "uint256",
          "name": "value",
          "type": "uint256"
        }
      ],
      "name": "Transfer",
      "type": "event"
    },
    {
      "inputs": [
        {
          "internalType": "address",
          "name": "owner",
          "type": "address"
        },
        {
          "internalType": "address",
          "name": "spender",
          "type": "address"
        }
      ],
      "name": "allowance",
      "outputs": [
        {
          "internalType": "uint256",
          "name": "",
          "type": "uint256"
        }
      ],
      "stateMutability": "view",
      "type": "function"
    },
    {
      "inputs": [
        {
          "internalType": "address",
          "name": "spender",
          "type": "address"
        },
        {
          "internalType": "uint256",
          "name": "amount",
          "type": "uint256"
        }
      ],
      "name": "approve",
      "outputs": [
        {
          "internalType": "bool",
          "name": "",
          "type": "bool"
        }
      ],
      "stateMutability": "nonpayable",
      "type": "function"
    },
    {
      "inputs": [
        {
          "internalType": "address",
          "name": "account",
          "type": "address"
        }
      ],
      "name": "balanceOf",
      "outputs": [
        {
          "internalType": "uint256",
          "name": "",
          "type": "uint256"
        }
      ],
      "stateMutability": "view",
      "type": "function"
    },
    {
      "inputs": [
        {
          "internalType": "uint256",
          "name": "balance",
          "type": "uint256"
        }
      ],
      "name": "balanceToShare",
      "outputs": [
        {
          "internalType": "uint256",
          "name": "",
          "type": "uint256"
        }
      ],
      "stateMutability": "view",
      "type": "function"
    },
    {
      "inputs": [],
      "name": "decimals",
      "outputs": [
        {
          "internalType": "uint8",
          "name": "",
          "type": "uint8"
        }
      ],
      "stateMutability": "view",
      "type": "function"
    },
    {
      "inputs": [
        {
          "internalType": "address",
          "name": "spender",
          "type": "address"
        },
        {
          "internalType": "uint256",
          "name": "subtractedValue",
          "type": "uint256"
        }
      ],
      "name": "decreaseAllowance",
      "outputs": [
        {
          "internalType": "bool",
          "name": "",
          "type": "bool"
        }
      ],
      "stateMutability": "nonpayable",
      "type": "function"
    },
    {
      "inputs": [
        {
          "internalType": "address",
          "name": "spender",
          "type": "address"
        },
        {
          "internalType": "uint256",
          "name": "addedValue",
          "type": "uint256"
        }
      ],
      "name": "increaseAllowance",
      "outputs": [
        {
          "internalType": "bool",
          "name": "",
          "type": "bool"
        }
      ],
      "stateMutability": "nonpayable",
      "type": "function"
    },
    {
      "inputs": [],
      "name": "name",
      "outputs": [
        {
          "internalType": "string",
          "name": "",
          "type": "string"
        }
      ],
      "stateMutability": "view",
      "type": "function"
    },
    {
      "inputs": [
        {
          "internalType": "uint256",
          "name": "share",
          "type": "uint256"
        }
      ],
      "name": "shareToBalance",
      "outputs": [
        {
          "internalType": "uint256",
          "name": "",
          "type": "uint256"
        }
      ],
      "stateMutability": "view",
      "type": "function"
    },
    {
      "inputs": [],
      "name": "symbol",
      "outputs": [
        {
          "internalType": "string",
          "name": "",
          "type": "string"
        }
      ],
      "stateMutability": "view",
      "type": "function"
    },
    {
      "inputs": [],
      "name": "totalSupply",
      "outputs": [
        {
          "internalType": "uint256",
          "name": "",
          "type": "uint256"
        }
      ],
      "stateMutability": "view",
      "type": "function"
    },
    {
      "inputs": [
        {
          "internalType": "address",
          "name": "recipient",
          "type": "address"
        },
        {
          "internalType": "uint256",
          "name": "amount",
          "type": "uint256"
        }
      ],
      "name": "transfer",
      "outputs": [
        {
          "internalType": "bool",
          "name": "",
          "type": "bool"
        }
      ],
      "stateMutability": "nonpayable",
      "type": "function"
    },
    {
      "inputs": [
        {
          "internalType": "address",
          "name": "sender",
          "type": "address"
        },
        {
          "internalType": "address",
          "name": "recipient",
          "type": "address"
        },
        {
          "internalType": "uint256",
          "name": "amount",
          "type": "uint256"
        }
      ],
      "name": "transferFrom",
      "outputs": [
        {
          "internalType": "bool",
          "name": "",
          "type": "bool"
        }
      ],
      "stateMutability": "nonpayable",
      "type": "function"
    }
  ],
  "transactionHash": "0x85077f01e46b6b90e81af15917f2cb25f68263de72bc2f6521731b10be7f5cdb",
  "args": [
    "BaseTokenUsd",
    "BASEUSD",
    "0xaA23CeE0EC656FcC2378eb2D2ad1198503CDd2a0"
  ],
  "numDeployments": 2,
  "solcInputHash": "86870341a53fcf505fcd804ec5591bf9",
  "bytecode": "0x60806040523480156200001157600080fd5b5060405162000e5e38038062000e5e833981810160405260608110156200003757600080fd5b81019080805160405193929190846401000000008211156200005857600080fd5b9083019060208201858111156200006e57600080fd5b82516401000000008111828201881017156200008957600080fd5b82525081516020918201929091019080838360005b83811015620000b85781810151838201526020016200009e565b50505050905090810190601f168015620000e65780820380516001836020036101000a031916815260200191505b50604052602001805160405193929190846401000000008211156200010a57600080fd5b9083019060208201858111156200012057600080fd5b82516401000000008111828201881017156200013b57600080fd5b82525081516020918201929091019080838360005b838110156200016a57818101518382015260200162000150565b50505050905090810190601f168015620001985780820380516001836020036101000a031916815260200191505b5060405260209081015185519093508592508491849184918491620001c491600391908501906200037a565b508051620001da9060049060208401906200037a565b50506005805460ff1916601217905550620001f88160001962000204565b50505050505062000426565b6001600160a01b03821662000260576040805162461bcd60e51b815260206004820152601f60248201527f45524332303a206d696e7420746f20746865207a65726f206164647265737300604482015290519081900360640190fd5b6200026e6000838362000313565b6200028a816002546200031860201b620005a91790919060201c565b6002556001600160a01b03821660009081526020818152604090912054620002bd918390620005a962000318821b17901c565b6001600160a01b0383166000818152602081815260408083209490945583518581529351929391927fddf252ad1be2c89b69c2b068fc378daa952ba7f163c4a11628f55a4df523b3ef9281900390910190a35050565b505050565b60008282018381101562000373576040805162461bcd60e51b815260206004820152601b60248201527f536166654d6174683a206164646974696f6e206f766572666c6f770000000000604482015290519081900360640190fd5b9392505050565b828054600181600116156101000203166002900490600052602060002090601f016020900481019282620003b25760008555620003fd565b82601f10620003cd57805160ff1916838001178555620003fd565b82800160010185558215620003fd579182015b82811115620003fd578251825591602001919060010190620003e0565b506200040b9291506200040f565b5090565b5b808211156200040b576000815560010162000410565b610a2880620004366000396000f3fe608060405234801561001057600080fd5b50600436106100bf5760003560e01c8063395093511161007c578063395093511461020c57806370a0823114610238578063819551051461018157806395d89b411461025e578063a457c2d714610266578063a9059cbb14610292578063dd62ed3e146102be576100bf565b806306fdde03146100c4578063095ea7b3146101415780631363bdd31461018157806318160ddd146101b057806323b872dd146101b8578063313ce567146101ee575b600080fd5b6100cc6102ec565b6040805160208082528351818301528351919283929083019185019080838360005b838110156101065781810151838201526020016100ee565b50505050905090810190601f1680156101335780820380516001836020036101000a031916815260200191505b509250505060405180910390f35b61016d6004803603604081101561015757600080fd5b506001600160a01b038135169060200135610382565b604080519115158252519081900360200190f35b61019e6004803603602081101561019757600080fd5b503561039f565b60408051918252519081900360200190f35b61019e6103a2565b61016d600480360360608110156101ce57600080fd5b506001600160a01b038135811691602081013590911690604001356103a8565b6101f661042f565b6040805160ff9092168252519081900360200190f35b61016d6004803603604081101561022257600080fd5b506001600160a01b038135169060200135610438565b61019e6004803603602081101561024e57600080fd5b50356001600160a01b0316610486565b6100cc6104a1565b61016d6004803603604081101561027c57600080fd5b506001600160a01b038135169060200135610502565b61016d600480360360408110156102a857600080fd5b506001600160a01b03813516906020013561056a565b61019e600480360360408110156102d457600080fd5b506001600160a01b038135811691602001351661057e565b60038054604080516020601f60026000196101006001881615020190951694909404938401819004810282018101909252828152606093909290918301828280156103785780601f1061034d57610100808354040283529160200191610378565b820191906000526020600020905b81548152906001019060200180831161035b57829003601f168201915b5050505050905090565b600061039661038f61060a565b848461060e565b50600192915050565b90565b60025490565b60006103b58484846106fa565b610425846103c161060a565b6104208560405180606001604052806028815260200161095d602891396001600160a01b038a166000908152600160205260408120906103ff61060a565b6001600160a01b031681526020810191909152604001600020549190610855565b61060e565b5060019392505050565b60055460ff1690565b600061039661044561060a565b84610420856001600061045661060a565b6001600160a01b03908116825260208083019390935260409182016000908120918c1681529252902054906105a9565b6001600160a01b031660009081526020819052604090205490565b60048054604080516020601f60026000196101006001881615020190951694909404938401819004810282018101909252828152606093909290918301828280156103785780601f1061034d57610100808354040283529160200191610378565b600061039661050f61060a565b84610420856040518060600160405280602581526020016109ce602591396001600061053961060a565b6001600160a01b03908116825260208083019390935260409182016000908120918d16815292529020549190610855565b600061039661057761060a565b84846106fa565b6001600160a01b03918216600090815260016020908152604080832093909416825291909152205490565b600082820183811015610603576040805162461bcd60e51b815260206004820152601b60248201527f536166654d6174683a206164646974696f6e206f766572666c6f770000000000604482015290519081900360640190fd5b9392505050565b3390565b6001600160a01b0383166106535760405162461bcd60e51b81526004018080602001828103825260248152602001806109aa6024913960400191505060405180910390fd5b6001600160a01b0382166106985760405162461bcd60e51b81526004018080602001828103825260228152602001806109156022913960400191505060405180910390fd5b6001600160a01b03808416600081815260016020908152604080832094871680845294825291829020859055815185815291517f8c5be1e5ebec7d5bd14f71427d1e84f3dd0314c0f7b2291e5b200ac8c7c3b9259281900390910190a3505050565b6001600160a01b03831661073f5760405162461bcd60e51b81526004018080602001828103825260258152602001806109856025913960400191505060405180910390fd5b6001600160a01b0382166107845760405162461bcd60e51b81526004018080602001828103825260238152602001806108f26023913960400191505060405180910390fd5b61078f8383836108ec565b6107cc81604051806060016040528060268152602001610937602691396001600160a01b0386166000908152602081905260409020549190610855565b6001600160a01b0380851660009081526020819052604080822093909355908416815220546107fb90826105a9565b6001600160a01b038084166000818152602081815260409182902094909455805185815290519193928716927fddf252ad1be2c89b69c2b068fc378daa952ba7f163c4a11628f55a4df523b3ef92918290030190a3505050565b600081848411156108e45760405162461bcd60e51b81526004018080602001828103825283818151815260200191508051906020019080838360005b838110156108a9578181015183820152602001610891565b50505050905090810190601f1680156108d65780820380516001836020036101000a031916815260200191505b509250505060405180910390fd5b505050900390565b50505056fe45524332303a207472616e7366657220746f20746865207a65726f206164647265737345524332303a20617070726f766520746f20746865207a65726f206164647265737345524332303a207472616e7366657220616d6f756e7420657863656564732062616c616e636545524332303a207472616e7366657220616d6f756e74206578636565647320616c6c6f77616e636545524332303a207472616e736665722066726f6d20746865207a65726f206164647265737345524332303a20617070726f76652066726f6d20746865207a65726f206164647265737345524332303a2064656372656173656420616c6c6f77616e63652062656c6f77207a65726fa26469706673582212202953d5515592278c820bc93c181952fbb88a68f3c44268ab33275c6328251ebc64736f6c63430007060033",
  "devdoc": {
    "kind": "dev",
    "methods": {
      "allowance(address,address)": {
        "details": "See {IERC20-allowance}."
      },
      "approve(address,uint256)": {
        "details": "See {IERC20-approve}. Requirements: - `spender` cannot be the zero address."
      },
      "balanceOf(address)": {
        "details": "See {IERC20-balanceOf}."
      },
      "decimals()": {
        "details": "Returns the number of decimals used to get its user representation. For example, if `decimals` equals `2`, a balance of `505` tokens should be displayed to a user as `5,05` (`505 / 10 ** 2`). Tokens usually opt for a value of 18, imitating the relationship between Ether and Wei. This is the value {ERC20} uses, unless {_setupDecimals} is called. NOTE: This information is only used for _display_ purposes: it in no way affects any of the arithmetic of the contract, including {IERC20-balanceOf} and {IERC20-transfer}."
      },
      "decreaseAllowance(address,uint256)": {
        "details": "Atomically decreases the allowance granted to `spender` by the caller. This is an alternative to {approve} that can be used as a mitigation for problems described in {IERC20-approve}. Emits an {Approval} event indicating the updated allowance. Requirements: - `spender` cannot be the zero address. - `spender` must have allowance for the caller of at least `subtractedValue`."
      },
      "increaseAllowance(address,uint256)": {
        "details": "Atomically increases the allowance granted to `spender` by the caller. This is an alternative to {approve} that can be used as a mitigation for problems described in {IERC20-approve}. Emits an {Approval} event indicating the updated allowance. Requirements: - `spender` cannot be the zero address."
      },
      "name()": {
        "details": "Returns the name of the token."
      },
      "symbol()": {
        "details": "Returns the symbol of the token, usually a shorter version of the name."
      },
      "totalSupply()": {
        "details": "See {IERC20-totalSupply}."
      },
      "transfer(address,uint256)": {
        "details": "See {IERC20-transfer}. Requirements: - `recipient` cannot be the zero address. - the caller must have a balance of at least `amount`."
      },
      "transferFrom(address,address,uint256)": {
        "details": "See {IERC20-transferFrom}. Emits an {Approval} event indicating the updated allowance. This is not required by the EIP. See the note at the beginning of {ERC20}. Requirements: - `sender` and `recipient` cannot be the zero address. - `sender` must have a balance of at least `amount`. - the caller must have allowance for ``sender``'s tokens of at least `amount`."
      }
    },
    "version": 1
  },
  "userdoc": {
    "kind": "user",
    "methods": {},
    "version": 1
  },
  "storageLayout": {
    "storage": [
      {
        "astId": 3800,
        "contract": "contracts/BaseTokenPerpdex.sol:BaseTokenPerpdex",
        "label": "_balances",
        "offset": 0,
        "slot": "0",
        "type": "t_mapping(t_address,t_uint256)"
      },
      {
        "astId": 3806,
        "contract": "contracts/BaseTokenPerpdex.sol:BaseTokenPerpdex",
        "label": "_allowances",
        "offset": 0,
        "slot": "1",
        "type": "t_mapping(t_address,t_mapping(t_address,t_uint256))"
      },
      {
        "astId": 3808,
        "contract": "contracts/BaseTokenPerpdex.sol:BaseTokenPerpdex",
        "label": "_totalSupply",
        "offset": 0,
        "slot": "2",
        "type": "t_uint256"
      },
      {
        "astId": 3810,
        "contract": "contracts/BaseTokenPerpdex.sol:BaseTokenPerpdex",
        "label": "_name",
        "offset": 0,
        "slot": "3",
        "type": "t_string_storage"
      },
      {
        "astId": 3812,
        "contract": "contracts/BaseTokenPerpdex.sol:BaseTokenPerpdex",
        "label": "_symbol",
        "offset": 0,
        "slot": "4",
        "type": "t_string_storage"
      },
      {
        "astId": 3814,
        "contract": "contracts/BaseTokenPerpdex.sol:BaseTokenPerpdex",
        "label": "_decimals",
        "offset": 0,
        "slot": "5",
        "type": "t_uint8"
      }
    ],
    "types": {
      "t_address": {
        "encoding": "inplace",
        "label": "address",
        "numberOfBytes": "20"
      },
      "t_mapping(t_address,t_mapping(t_address,t_uint256))": {
        "encoding": "mapping",
        "key": "t_address",
        "label": "mapping(address => mapping(address => uint256))",
        "numberOfBytes": "32",
        "value": "t_mapping(t_address,t_uint256)"
      },
      "t_mapping(t_address,t_uint256)": {
        "encoding": "mapping",
        "key": "t_address",
        "label": "mapping(address => uint256)",
        "numberOfBytes": "32",
        "value": "t_uint256"
      },
      "t_string_storage": {
        "encoding": "bytes",
        "label": "string",
        "numberOfBytes": "32"
      },
      "t_uint256": {
        "encoding": "inplace",
        "label": "uint256",
        "numberOfBytes": "32"
      },
      "t_uint8": {
        "encoding": "inplace",
        "label": "uint8",
        "numberOfBytes": "1"
      }
    }
  }
}