{
  "address": "0x2AEfeE66480E23b2777AE2A3B24b78322B286259",
  "abi": [
    {
      "inputs": [
        {
          "internalType": "address",
          "name": "settlementTokenArg",
          "type": "address"
        }
      ],
      "stateMutability": "nonpayable",
      "type": "constructor"
    },
    {
      "anonymous": false,
      "inputs": [
        {
          "indexed": true,
          "internalType": "address",
          "name": "trader",
          "type": "address"
        },
        {
          "indexed": false,
          "internalType": "uint256",
          "name": "amount",
          "type": "uint256"
        }
      ],
      "name": "Deposited",
      "type": "event"
    },
    {
      "anonymous": false,
      "inputs": [
        {
          "indexed": false,
          "internalType": "uint24",
          "name": "value",
          "type": "uint24"
        }
      ],
      "name": "ImRatioChanged",
      "type": "event"
    },
    {
      "anonymous": false,
      "inputs": [
        {
          "indexed": true,
          "internalType": "address",
          "name": "trader",
          "type": "address"
        },
        {
          "indexed": false,
          "internalType": "uint256",
          "name": "amount",
          "type": "uint256"
        }
      ],
      "name": "InsuranceFundTransferred",
      "type": "event"
    },
    {
      "anonymous": false,
      "inputs": [
        {
          "indexed": true,
          "internalType": "address",
          "name": "market",
          "type": "address"
        },
        {
          "indexed": false,
          "internalType": "bool",
          "name": "isMarketAllowed",
          "type": "bool"
        }
      ],
      "name": "IsMarketAllowedChanged",
      "type": "event"
    },
    {
      "anonymous": false,
      "inputs": [
        {
          "indexed": false,
          "internalType": "uint24",
          "name": "rewardRatio",
          "type": "uint24"
        },
        {
          "indexed": false,
          "internalType": "uint16",
          "name": "smoothEmaTime",
          "type": "uint16"
        }
      ],
      "name": "LiquidationRewardConfigChanged",
      "type": "event"
    },
    {
      "anonymous": false,
      "inputs": [
        {
          "indexed": true,
          "internalType": "address",
          "name": "trader",
          "type": "address"
        },
        {
          "indexed": true,
          "internalType": "address",
          "name": "market",
          "type": "address"
        },
        {
          "indexed": false,
          "internalType": "uint256",
          "name": "base",
          "type": "uint256"
        },
        {
          "indexed": false,
          "internalType": "uint256",
          "name": "quote",
          "type": "uint256"
        },
        {
          "indexed": false,
          "internalType": "uint256",
          "name": "liquidity",
          "type": "uint256"
        },
        {
          "indexed": false,
          "internalType": "uint256",
          "name": "cumBasePerLiquidityX96",
          "type": "uint256"
        },
        {
          "indexed": false,
          "internalType": "uint256",
          "name": "cumQuotePerLiquidityX96",
          "type": "uint256"
        },
        {
          "indexed": false,
          "internalType": "uint256",
          "name": "baseBalancePerShareX96",
          "type": "uint256"
        },
        {
          "indexed": false,
          "internalType": "uint256",
          "name": "sharePriceAfterX96",
          "type": "uint256"
        }
      ],
      "name": "LiquidityAdded",
      "type": "event"
    },
    {
      "anonymous": false,
      "inputs": [
        {
          "indexed": true,
          "internalType": "address",
          "name": "trader",
          "type": "address"
        },
        {
          "indexed": true,
          "internalType": "address",
          "name": "market",
          "type": "address"
        },
        {
          "indexed": false,
          "internalType": "address",
          "name": "liquidator",
          "type": "address"
        },
        {
          "indexed": false,
          "internalType": "uint256",
          "name": "base",
          "type": "uint256"
        },
        {
          "indexed": false,
          "internalType": "uint256",
          "name": "quote",
          "type": "uint256"
        },
        {
          "indexed": false,
          "internalType": "uint256",
          "name": "liquidity",
          "type": "uint256"
        },
        {
          "indexed": false,
          "internalType": "int256",
          "name": "takerBase",
          "type": "int256"
        },
        {
          "indexed": false,
          "internalType": "int256",
          "name": "takerQuote",
          "type": "int256"
        },
        {
          "indexed": false,
          "internalType": "int256",
          "name": "realizedPnl",
          "type": "int256"
        },
        {
          "indexed": false,
          "internalType": "uint256",
          "name": "baseBalancePerShareX96",
          "type": "uint256"
        },
        {
          "indexed": false,
          "internalType": "uint256",
          "name": "sharePriceAfterX96",
          "type": "uint256"
        }
      ],
      "name": "LiquidityRemoved",
      "type": "event"
    },
    {
      "anonymous": false,
      "inputs": [
        {
          "indexed": false,
          "internalType": "uint8",
          "name": "value",
          "type": "uint8"
        }
      ],
      "name": "MaxMarketsPerAccountChanged",
      "type": "event"
    },
    {
      "anonymous": false,
      "inputs": [
        {
          "indexed": false,
          "internalType": "uint24",
          "name": "value",
          "type": "uint24"
        }
      ],
      "name": "MmRatioChanged",
      "type": "event"
    },
    {
      "anonymous": false,
      "inputs": [
        {
          "indexed": true,
          "internalType": "address",
          "name": "previousOwner",
          "type": "address"
        },
        {
          "indexed": true,
          "internalType": "address",
          "name": "newOwner",
          "type": "address"
        }
      ],
      "name": "OwnershipTransferred",
      "type": "event"
    },
    {
      "anonymous": false,
      "inputs": [
        {
          "indexed": true,
          "internalType": "address",
          "name": "trader",
          "type": "address"
        },
        {
          "indexed": true,
          "internalType": "address",
          "name": "market",
          "type": "address"
        },
        {
          "indexed": false,
          "internalType": "int256",
          "name": "base",
          "type": "int256"
        },
        {
          "indexed": false,
          "internalType": "int256",
          "name": "quote",
          "type": "int256"
        },
        {
          "indexed": false,
          "internalType": "int256",
          "name": "realizedPnl",
          "type": "int256"
        },
        {
          "indexed": false,
          "internalType": "uint256",
          "name": "protocolFee",
          "type": "uint256"
        },
        {
          "indexed": false,
          "internalType": "uint256",
          "name": "baseBalancePerShareX96",
          "type": "uint256"
        },
        {
          "indexed": false,
          "internalType": "uint256",
          "name": "sharePriceAfterX96",
          "type": "uint256"
        }
      ],
      "name": "PositionChanged",
      "type": "event"
    },
    {
      "anonymous": false,
      "inputs": [
        {
          "indexed": true,
          "internalType": "address",
          "name": "trader",
          "type": "address"
        },
        {
          "indexed": true,
          "internalType": "address",
          "name": "market",
          "type": "address"
        },
        {
          "indexed": true,
          "internalType": "address",
          "name": "liquidator",
          "type": "address"
        },
        {
          "indexed": false,
          "internalType": "int256",
          "name": "base",
          "type": "int256"
        },
        {
          "indexed": false,
          "internalType": "int256",
          "name": "quote",
          "type": "int256"
        },
        {
          "indexed": false,
          "internalType": "int256",
          "name": "realizedPnl",
          "type": "int256"
        },
        {
          "indexed": false,
          "internalType": "uint256",
          "name": "protocolFee",
          "type": "uint256"
        },
        {
          "indexed": false,
          "internalType": "uint256",
          "name": "baseBalancePerShareX96",
          "type": "uint256"
        },
        {
          "indexed": false,
          "internalType": "uint256",
          "name": "sharePriceAfterX96",
          "type": "uint256"
        },
        {
          "indexed": false,
          "internalType": "uint256",
          "name": "liquidationPenalty",
          "type": "uint256"
        },
        {
          "indexed": false,
          "internalType": "uint256",
          "name": "liquidationReward",
          "type": "uint256"
        },
        {
          "indexed": false,
          "internalType": "uint256",
          "name": "insuranceFundReward",
          "type": "uint256"
        }
      ],
      "name": "PositionLiquidated",
      "type": "event"
    },
    {
      "anonymous": false,
      "inputs": [
        {
          "indexed": false,
          "internalType": "uint24",
          "name": "value",
          "type": "uint24"
        }
      ],
      "name": "ProtocolFeeRatioChanged",
      "type": "event"
    },
    {
      "anonymous": false,
      "inputs": [
        {
          "indexed": true,
          "internalType": "address",
          "name": "trader",
          "type": "address"
        },
        {
          "indexed": false,
          "internalType": "uint256",
          "name": "amount",
          "type": "uint256"
        }
      ],
      "name": "ProtocolFeeTransferred",
      "type": "event"
    },
    {
      "anonymous": false,
      "inputs": [
        {
          "indexed": true,
          "internalType": "address",
          "name": "trader",
          "type": "address"
        },
        {
          "indexed": false,
          "internalType": "uint256",
          "name": "amount",
          "type": "uint256"
        }
      ],
      "name": "Withdrawn",
      "type": "event"
    },
    {
      "inputs": [
        {
          "internalType": "address",
          "name": "",
          "type": "address"
        }
      ],
      "name": "accountInfos",
      "outputs": [
        {
          "components": [
            {
              "internalType": "int256",
              "name": "collateralBalance",
              "type": "int256"
            }
          ],
          "internalType": "struct PerpdexStructs.VaultInfo",
          "name": "vaultInfo",
          "type": "tuple"
        }
      ],
      "stateMutability": "view",
      "type": "function"
    },
    {
      "inputs": [
        {
          "components": [
            {
              "internalType": "address",
              "name": "market",
              "type": "address"
            },
            {
              "internalType": "uint256",
              "name": "base",
              "type": "uint256"
            },
            {
              "internalType": "uint256",
              "name": "quote",
              "type": "uint256"
            },
            {
              "internalType": "uint256",
              "name": "minBase",
              "type": "uint256"
            },
            {
              "internalType": "uint256",
              "name": "minQuote",
              "type": "uint256"
            },
            {
              "internalType": "uint256",
              "name": "deadline",
              "type": "uint256"
            }
          ],
          "internalType": "struct IPerpdexExchange.AddLiquidityParams",
          "name": "params",
          "type": "tuple"
        }
      ],
      "name": "addLiquidity",
      "outputs": [
        {
          "internalType": "uint256",
          "name": "base",
          "type": "uint256"
        },
        {
          "internalType": "uint256",
          "name": "quote",
          "type": "uint256"
        },
        {
          "internalType": "uint256",
          "name": "liquidity",
          "type": "uint256"
        }
      ],
      "stateMutability": "nonpayable",
      "type": "function"
    },
    {
      "inputs": [
        {
          "internalType": "uint256",
          "name": "amount",
          "type": "uint256"
        }
      ],
      "name": "deposit",
      "outputs": [],
      "stateMutability": "payable",
      "type": "function"
    },
    {
      "inputs": [
        {
          "internalType": "address",
          "name": "trader",
          "type": "address"
        }
      ],
      "name": "getAccountMarkets",
      "outputs": [
        {
          "internalType": "address[]",
          "name": "",
          "type": "address[]"
        }
      ],
      "stateMutability": "view",
      "type": "function"
    },
    {
      "inputs": [
        {
          "internalType": "address",
          "name": "trader",
          "type": "address"
        },
        {
          "internalType": "address",
          "name": "market",
          "type": "address"
        }
      ],
      "name": "getMakerInfo",
      "outputs": [
        {
          "components": [
            {
              "internalType": "uint256",
              "name": "liquidity",
              "type": "uint256"
            },
            {
              "internalType": "uint256",
              "name": "cumBaseSharePerLiquidityX96",
              "type": "uint256"
            },
            {
              "internalType": "uint256",
              "name": "cumQuotePerLiquidityX96",
              "type": "uint256"
            }
          ],
          "internalType": "struct PerpdexStructs.MakerInfo",
          "name": "",
          "type": "tuple"
        }
      ],
      "stateMutability": "view",
      "type": "function"
    },
    {
      "inputs": [
        {
          "internalType": "address",
          "name": "trader",
          "type": "address"
        },
        {
          "internalType": "address",
          "name": "market",
          "type": "address"
        }
      ],
      "name": "getOpenPositionNotional",
      "outputs": [
        {
          "internalType": "uint256",
          "name": "",
          "type": "uint256"
        }
      ],
      "stateMutability": "view",
      "type": "function"
    },
    {
      "inputs": [
        {
          "internalType": "address",
          "name": "trader",
          "type": "address"
        },
        {
          "internalType": "address",
          "name": "market",
          "type": "address"
        }
      ],
      "name": "getOpenPositionShare",
      "outputs": [
        {
          "internalType": "uint256",
          "name": "",
          "type": "uint256"
        }
      ],
      "stateMutability": "view",
      "type": "function"
    },
    {
      "inputs": [
        {
          "internalType": "address",
          "name": "trader",
          "type": "address"
        },
        {
          "internalType": "address",
          "name": "market",
          "type": "address"
        }
      ],
      "name": "getPositionNotional",
      "outputs": [
        {
          "internalType": "int256",
          "name": "",
          "type": "int256"
        }
      ],
      "stateMutability": "view",
      "type": "function"
    },
    {
      "inputs": [
        {
          "internalType": "address",
          "name": "trader",
          "type": "address"
        },
        {
          "internalType": "address",
          "name": "market",
          "type": "address"
        }
      ],
      "name": "getPositionShare",
      "outputs": [
        {
          "internalType": "int256",
          "name": "",
          "type": "int256"
        }
      ],
      "stateMutability": "view",
      "type": "function"
    },
    {
      "inputs": [
        {
          "internalType": "address",
          "name": "trader",
          "type": "address"
        },
        {
          "internalType": "address",
          "name": "market",
          "type": "address"
        }
      ],
      "name": "getTakerInfo",
      "outputs": [
        {
          "components": [
            {
              "internalType": "int256",
              "name": "baseBalanceShare",
              "type": "int256"
            },
            {
              "internalType": "int256",
              "name": "quoteBalance",
              "type": "int256"
            }
          ],
          "internalType": "struct PerpdexStructs.TakerInfo",
          "name": "",
          "type": "tuple"
        }
      ],
      "stateMutability": "view",
      "type": "function"
    },
    {
      "inputs": [
        {
          "internalType": "address",
          "name": "trader",
          "type": "address"
        }
      ],
      "name": "getTotalAccountValue",
      "outputs": [
        {
          "internalType": "int256",
          "name": "",
          "type": "int256"
        }
      ],
      "stateMutability": "view",
      "type": "function"
    },
    {
      "inputs": [
        {
          "internalType": "address",
          "name": "trader",
          "type": "address"
        }
      ],
      "name": "getTotalOpenPositionNotional",
      "outputs": [
        {
          "internalType": "uint256",
          "name": "",
          "type": "uint256"
        }
      ],
      "stateMutability": "view",
      "type": "function"
    },
    {
      "inputs": [
        {
          "internalType": "address",
          "name": "trader",
          "type": "address"
        }
      ],
      "name": "getTotalPositionNotional",
      "outputs": [
        {
          "internalType": "uint256",
          "name": "",
          "type": "uint256"
        }
      ],
      "stateMutability": "view",
      "type": "function"
    },
    {
      "inputs": [
        {
          "internalType": "address",
          "name": "trader",
          "type": "address"
        }
      ],
      "name": "hasEnoughInitialMargin",
      "outputs": [
        {
          "internalType": "bool",
          "name": "",
          "type": "bool"
        }
      ],
      "stateMutability": "view",
      "type": "function"
    },
    {
      "inputs": [
        {
          "internalType": "address",
          "name": "trader",
          "type": "address"
        }
      ],
      "name": "hasEnoughMaintenanceMargin",
      "outputs": [
        {
          "internalType": "bool",
          "name": "",
          "type": "bool"
        }
      ],
      "stateMutability": "view",
      "type": "function"
    },
    {
      "inputs": [],
      "name": "imRatio",
      "outputs": [
        {
          "internalType": "uint24",
          "name": "",
          "type": "uint24"
        }
      ],
      "stateMutability": "view",
      "type": "function"
    },
    {
      "inputs": [],
      "name": "insuranceFundInfo",
      "outputs": [
        {
          "internalType": "int256",
          "name": "balance",
          "type": "int256"
        },
        {
          "internalType": "uint256",
          "name": "liquidationRewardBalance",
          "type": "uint256"
        }
      ],
      "stateMutability": "view",
      "type": "function"
    },
    {
      "inputs": [
        {
          "internalType": "address",
          "name": "",
          "type": "address"
        }
      ],
      "name": "isMarketAllowed",
      "outputs": [
        {
          "internalType": "bool",
          "name": "",
          "type": "bool"
        }
      ],
      "stateMutability": "view",
      "type": "function"
    },
    {
      "inputs": [],
      "name": "liquidationRewardConfig",
      "outputs": [
        {
          "internalType": "uint24",
          "name": "rewardRatio",
          "type": "uint24"
        },
        {
          "internalType": "uint16",
          "name": "smoothEmaTime",
          "type": "uint16"
        }
      ],
      "stateMutability": "view",
      "type": "function"
    },
    {
      "inputs": [],
      "name": "maxMarketsPerAccount",
      "outputs": [
        {
          "internalType": "uint8",
          "name": "",
          "type": "uint8"
        }
      ],
      "stateMutability": "view",
      "type": "function"
    },
    {
      "inputs": [
        {
          "components": [
            {
              "internalType": "address",
              "name": "trader",
              "type": "address"
            },
            {
              "internalType": "address",
              "name": "market",
              "type": "address"
            },
            {
              "internalType": "address",
              "name": "caller",
              "type": "address"
            },
            {
              "internalType": "bool",
              "name": "isBaseToQuote",
              "type": "bool"
            },
            {
              "internalType": "bool",
              "name": "isExactInput",
              "type": "bool"
            }
          ],
          "internalType": "struct IPerpdexExchange.MaxTradeParams",
          "name": "params",
          "type": "tuple"
        }
      ],
      "name": "maxTrade",
      "outputs": [
        {
          "internalType": "uint256",
          "name": "amount",
          "type": "uint256"
        }
      ],
      "stateMutability": "view",
      "type": "function"
    },
    {
      "inputs": [],
      "name": "mmRatio",
      "outputs": [
        {
          "internalType": "uint24",
          "name": "",
          "type": "uint24"
        }
      ],
      "stateMutability": "view",
      "type": "function"
    },
    {
      "inputs": [],
      "name": "owner",
      "outputs": [
        {
          "internalType": "address",
          "name": "",
          "type": "address"
        }
      ],
      "stateMutability": "view",
      "type": "function"
    },
    {
      "inputs": [
        {
          "components": [
            {
              "internalType": "address",
              "name": "trader",
              "type": "address"
            },
            {
              "internalType": "address",
              "name": "market",
              "type": "address"
            },
            {
              "internalType": "address",
              "name": "caller",
              "type": "address"
            },
            {
              "internalType": "bool",
              "name": "isBaseToQuote",
              "type": "bool"
            },
            {
              "internalType": "bool",
              "name": "isExactInput",
              "type": "bool"
            },
            {
              "internalType": "uint256",
              "name": "amount",
              "type": "uint256"
            },
            {
              "internalType": "uint256",
              "name": "oppositeAmountBound",
              "type": "uint256"
            }
          ],
          "internalType": "struct IPerpdexExchange.PreviewTradeParams",
          "name": "params",
          "type": "tuple"
        }
      ],
      "name": "previewTrade",
      "outputs": [
        {
          "internalType": "uint256",
          "name": "oppositeAmount",
          "type": "uint256"
        }
      ],
      "stateMutability": "view",
      "type": "function"
    },
    {
      "inputs": [],
      "name": "protocolFeeRatio",
      "outputs": [
        {
          "internalType": "uint24",
          "name": "",
          "type": "uint24"
        }
      ],
      "stateMutability": "view",
      "type": "function"
    },
    {
      "inputs": [],
      "name": "protocolInfo",
      "outputs": [
        {
          "internalType": "uint256",
          "name": "protocolFee",
          "type": "uint256"
        }
      ],
      "stateMutability": "view",
      "type": "function"
    },
    {
      "inputs": [],
      "name": "quoteDecimals",
      "outputs": [
        {
          "internalType": "uint8",
          "name": "",
          "type": "uint8"
        }
      ],
      "stateMutability": "view",
      "type": "function"
    },
    {
      "inputs": [
        {
          "components": [
            {
              "internalType": "address",
              "name": "trader",
              "type": "address"
            },
            {
              "internalType": "address",
              "name": "market",
              "type": "address"
            },
            {
              "internalType": "uint256",
              "name": "liquidity",
              "type": "uint256"
            },
            {
              "internalType": "uint256",
              "name": "minBase",
              "type": "uint256"
            },
            {
              "internalType": "uint256",
              "name": "minQuote",
              "type": "uint256"
            },
            {
              "internalType": "uint256",
              "name": "deadline",
              "type": "uint256"
            }
          ],
          "internalType": "struct IPerpdexExchange.RemoveLiquidityParams",
          "name": "params",
          "type": "tuple"
        }
      ],
      "name": "removeLiquidity",
      "outputs": [
        {
          "internalType": "uint256",
          "name": "base",
          "type": "uint256"
        },
        {
          "internalType": "uint256",
          "name": "quote",
          "type": "uint256"
        }
      ],
      "stateMutability": "nonpayable",
      "type": "function"
    },
    {
      "inputs": [],
      "name": "renounceOwnership",
      "outputs": [],
      "stateMutability": "nonpayable",
      "type": "function"
    },
    {
      "inputs": [
        {
          "internalType": "address",
          "name": "trader",
          "type": "address"
        },
        {
          "internalType": "int256",
          "name": "balance",
          "type": "int256"
        }
      ],
      "name": "setCollateralBalance",
      "outputs": [],
      "stateMutability": "nonpayable",
      "type": "function"
    },
    {
      "inputs": [
        {
          "internalType": "uint24",
          "name": "value",
          "type": "uint24"
        }
      ],
      "name": "setImRatio",
      "outputs": [],
      "stateMutability": "nonpayable",
      "type": "function"
    },
    {
      "inputs": [
        {
          "internalType": "address",
          "name": "market",
          "type": "address"
        },
        {
          "internalType": "bool",
          "name": "value",
          "type": "bool"
        }
      ],
      "name": "setIsMarketAllowed",
      "outputs": [],
      "stateMutability": "nonpayable",
      "type": "function"
    },
    {
      "inputs": [
        {
          "components": [
            {
              "internalType": "uint24",
              "name": "rewardRatio",
              "type": "uint24"
            },
            {
              "internalType": "uint16",
              "name": "smoothEmaTime",
              "type": "uint16"
            }
          ],
          "internalType": "struct PerpdexStructs.LiquidationRewardConfig",
          "name": "value",
          "type": "tuple"
        }
      ],
      "name": "setLiquidationRewardConfig",
      "outputs": [],
      "stateMutability": "nonpayable",
      "type": "function"
    },
    {
      "inputs": [
        {
          "internalType": "uint8",
          "name": "value",
          "type": "uint8"
        }
      ],
      "name": "setMaxMarketsPerAccount",
      "outputs": [],
      "stateMutability": "nonpayable",
      "type": "function"
    },
    {
      "inputs": [
        {
          "internalType": "uint24",
          "name": "value",
          "type": "uint24"
        }
      ],
      "name": "setMmRatio",
      "outputs": [],
      "stateMutability": "nonpayable",
      "type": "function"
    },
    {
      "inputs": [
        {
          "internalType": "uint24",
          "name": "value",
          "type": "uint24"
        }
      ],
      "name": "setProtocolFeeRatio",
      "outputs": [],
      "stateMutability": "nonpayable",
      "type": "function"
    },
    {
      "inputs": [],
      "name": "settlementToken",
      "outputs": [
        {
          "internalType": "address",
          "name": "",
          "type": "address"
        }
      ],
      "stateMutability": "view",
      "type": "function"
    },
    {
      "inputs": [
        {
          "components": [
            {
              "internalType": "address",
              "name": "trader",
              "type": "address"
            },
            {
              "internalType": "address",
              "name": "market",
              "type": "address"
            },
            {
              "internalType": "bool",
              "name": "isBaseToQuote",
              "type": "bool"
            },
            {
              "internalType": "bool",
              "name": "isExactInput",
              "type": "bool"
            },
            {
              "internalType": "uint256",
              "name": "amount",
              "type": "uint256"
            },
            {
              "internalType": "uint256",
              "name": "oppositeAmountBound",
              "type": "uint256"
            },
            {
              "internalType": "uint256",
              "name": "deadline",
              "type": "uint256"
            }
          ],
          "internalType": "struct IPerpdexExchange.TradeParams",
          "name": "params",
          "type": "tuple"
        }
      ],
      "name": "trade",
      "outputs": [
        {
          "internalType": "uint256",
          "name": "oppositeAmount",
          "type": "uint256"
        }
      ],
      "stateMutability": "nonpayable",
      "type": "function"
    },
    {
      "inputs": [
        {
          "internalType": "uint256",
          "name": "amount",
          "type": "uint256"
        }
      ],
      "name": "transferInsuranceFund",
      "outputs": [],
      "stateMutability": "nonpayable",
      "type": "function"
    },
    {
      "inputs": [
        {
          "internalType": "address",
          "name": "newOwner",
          "type": "address"
        }
      ],
      "name": "transferOwnership",
      "outputs": [],
      "stateMutability": "nonpayable",
      "type": "function"
    },
    {
      "inputs": [
        {
          "internalType": "uint256",
          "name": "amount",
          "type": "uint256"
        }
      ],
      "name": "transferProtocolFee",
      "outputs": [],
      "stateMutability": "nonpayable",
      "type": "function"
    },
    {
      "inputs": [
        {
          "internalType": "uint256",
          "name": "amount",
          "type": "uint256"
        }
      ],
      "name": "withdraw",
      "outputs": [],
      "stateMutability": "nonpayable",
      "type": "function"
    }
  ],
  "transactionHash": "0xb6ca90c739b9191fe823b9d7017c0e8cb8df8bb917c20739577f0ea335d24dac",
  "args": [
    "0x0000000000000000000000000000000000000000"
  ],
  "numDeployments": 3,
  "solcInputHash": "caffe8cf814569bd4925ee9046339aa6",
  "bytecode": "0x60068054601060ff199091161763ffffff001916630186a0001762ffffff60201b191665c350000000001762ffffff60381b1916905560e060405262030d4060a0819052606460c0526007805462ffffff191690911764ffff000000191663640000001790553480156200007257600080fd5b50604051620060d2380380620060d28339810160408190526200009591620001a1565b600160009081558190620000a862000197565b600180546001600160a01b0319166001600160a01b038316908117909155604051919250906000907f8be0079c531659141344cd1fd0a4f28419497f9722a3daafe3b4186f6b6457e0908290a3506001600160a01b038116158062000127575062000127816001600160a01b03166200019b60201b620025921760201c565b6200014f5760405162461bcd60e51b8152600401620001469062000208565b60405180910390fd5b60601b6001600160601b031916608052466004811480620001705750605181145b6200018f5760405162461bcd60e51b81526004016200014690620001d1565b50506200023f565b3390565b3b151590565b600060208284031215620001b3578081fd5b81516001600160a01b0381168114620001ca578182fd5b9392505050565b60208082526013908201527f4450455f433a20746573746e6574206f6e6c7900000000000000000000000000604082015260600190565b6020808252601b908201527f50455f433a20746f6b656e206164647265737320696e76616c69640000000000604082015260600190565b60805160601c615e666200026c600039806109535280610ffa5280611799528061189e5250615e666000f3fe6080604052600436106102515760003560e01c806394887af711610139578063ca5b721e116100b6578063dfe1cb921161007a578063dfe1cb92146106f7578063e671be1714610726578063e72e436314610746578063ec6cca8414610766578063f2fde38b14610786578063f652b527146107a657610251565b8063ca5b721e1461064a578063cffe85561461066a578063d11102c51461068a578063d1ce35e3146106b7578063ddad7e97146106d757610251565b8063ac3732b4116100fd578063ac3732b4146105b5578063b53c5125146105d5578063b6b55f2514610602578063c66fa8e614610615578063c9ca7b181461062a57610251565b806394887af714610502578063996fbf94146105255780639dce9e19146105455780639f044f3114610572578063a616c66c1461058757610251565b80634ef9951a116101d25780637b9e618d116101965780637b9e618d146104495780637c88490a1461046b57806387cad0bf1461048b5780638da5cb5b146104b85780639317b193146104cd57806393420cf4146104ed57610251565b80634ef9951a146103bf5780636e838bad146103df578063715018a6146103ff57806373f62501146104145780637a27d9f61461043457610251565b806333ff15771161021957806333ff15771461031d5780633a9210511461033d5780633d46396a1461035d5780633fd1e2bd1461037d5780634b4aa7351461039f57610251565b80630674fa41146102565780632d67669c1461028c5780632e1a7d4d146102ac5780632e784343146102ce5780632f60a151146102fb575b600080fd5b34801561026257600080fd5b506102766102713660046151b0565b6107bb565b604051610283919061549f565b60405180910390f35b34801561029857600080fd5b506102766102a73660046152b7565b6107e4565b3480156102b857600080fd5b506102cc6102c736600461531b565b6108d7565b005b3480156102da57600080fd5b506102ee6102e93660046151ca565b6109ed565b6040516102839190615bd1565b34801561030757600080fd5b50610310610a39565b6040516102839190615bf2565b34801561032957600080fd5b506102766103383660046151ca565b610a49565b34801561034957600080fd5b506102766103583660046151b0565b610a72565b34801561036957600080fd5b506102cc61037836600461531b565b610a93565b34801561038957600080fd5b50610392610baa565b6040516102839190615c61565b3480156103ab57600080fd5b506102766103ba3660046151b0565b610baf565b3480156103cb57600080fd5b506102cc6103da36600461531b565b610bd0565b3480156103eb57600080fd5b506102cc6103fa3660046152ff565b610ce7565b34801561040b57600080fd5b506102cc610e4e565b34801561042057600080fd5b506102cc61042f366004615378565b610efa565b34801561044057600080fd5b50610310610fe6565b34801561045557600080fd5b5061045e610ff8565b60405161028391906153b0565b34801561047757600080fd5b506102766104863660046151ca565b61101c565b34801561049757600080fd5b506104ab6104a63660046151b0565b61103e565b6040516102839190615be8565b3480156104c457600080fd5b5061045e611060565b3480156104d957600080fd5b506102cc6104e83660046151fc565b61106f565b3480156104f957600080fd5b5061027661119e565b34801561050e57600080fd5b506105176111a4565b604051610283929190615c02565b34801561053157600080fd5b506102766105403660046151ca565b6111bc565b34801561055157600080fd5b506105656105603660046151b0565b6111de565b604051610283919061545b565b34801561057e57600080fd5b5061031061120f565b34801561059357600080fd5b506105a76105a236600461528b565b611221565b60405161028392919061550f565b3480156105c157600080fd5b506102cc6105d03660046152a6565b611579565b3480156105e157600080fd5b506105f56105f03660046151ca565b6116e8565b6040516102839190615bb0565b6102cc61061036600461531b565b611740565b34801561062157600080fd5b506105a7611925565b34801561063657600080fd5b506102cc6106453660046152ff565b61192e565b34801561065657600080fd5b506102766106653660046151ca565b611a7d565b34801561067657600080fd5b506102766106853660046152c8565b611a9f565b34801561069657600080fd5b506106aa6106a53660046151b0565b611be6565b604051610283919061540e565b3480156106c357600080fd5b506102cc6106d23660046152ff565b611c5f565b3480156106e357600080fd5b506102cc6106f2366004615225565b611d7f565b34801561070357600080fd5b5061071761071236600461528b565b611d9f565b60405161028393929190615c1b565b34801561073257600080fd5b506102766107413660046152c8565b6120ea565b34801561075257600080fd5b506105656107613660046151b0565b612442565b34801561077257600080fd5b506105656107813660046151b0565b612457565b34801561079257600080fd5b506102cc6107a13660046151b0565b612486565b3480156107b257600080fd5b50610392612589565b6001600160a01b03811660009081526002602052604081206107dc90612598565b90505b919050565b60006008816107f960408501602086016151b0565b6001600160a01b0316815260208101919091526040016000205460ff16610822575060006107df565b600061083160208401846151b0565b9050600061084560608501604086016151b0565b90506108cf60026000846001600160a01b03166001600160a01b0316815260200190815260200160002085602001602081019061088291906151b0565b610892608088016060890161524e565b6108a260a0890160808a0161524e565b60065462ffffff600160201b8204811691600160381b9004166001600160a01b038981169089161461280c565b949350505050565b6002600054141561091d576040805162461bcd60e51b815260206004820152601f6024820152600080516020615ced833981519152604482015290519081900360640190fd5b6002600090815561092c6128e5565b6001600160a01b0381811660008181526002602090815260409182902082516080810184527f0000000000000000000000000000000000000000000000000000000000000000909516855290840187905290830191909152600654610100900462ffffff1660608301529192506109a391906128e9565b806001600160a01b03167f7084f5476618d8e60b11ef0d7d3f06914655adb8793e28ff7f018d4c76d505d5836040516109dc919061549f565b60405180910390a250506001600055565b6109f56150a7565b506001600160a01b03808316600090815260026020908152604080832093851683529281529082902082518084019093528054835260010154908201525b92915050565b600654610100900462ffffff1681565b6001600160a01b0382166000908152600260205260408120610a6b9083612a69565b9392505050565b6001600160a01b03811660009081526002602052604081206107dc90612bc1565b610a9b6128e5565b6001600160a01b0316610aac611060565b6001600160a01b031614610af5576040805162461bcd60e51b81526020600482018190526024820152600080516020615d9b833981519152604482015290519081900360640190fd5b60026000541415610b3b576040805162461bcd60e51b815260206004820152601f6024820152600080516020615ced833981519152604482015290519081900360640190fd5b60026000908155610b4a6128e5565b6001600160a01b0381166000908152600260205260409020909150610b7190600584612c22565b806001600160a01b03167f0880b0e717a57f3b5cbd3fc19396ae3c8cdee5c624c9289477869c38014c8495836040516109dc919061549f565b601281565b6001600160a01b03811660009081526002602052604081206107dc90612c51565b610bd86128e5565b6001600160a01b0316610be9611060565b6001600160a01b031614610c32576040805162461bcd60e51b81526020600482018190526024820152600080516020615d9b833981519152604482015290519081900360640190fd5b60026000541415610c78576040805162461bcd60e51b815260206004820152601f6024820152600080516020615ced833981519152604482015290519081900360640190fd5b60026000908155610c876128e5565b6001600160a01b0381166000908152600260205260409020909150610cae90600384612caa565b806001600160a01b03167fc5f8d0712530f513c8ff696f9d12d32b95faeef78155912e567eca0284adf94f836040516109dc919061549f565b610cef6128e5565b6001600160a01b0316610d00611060565b6001600160a01b031614610d49576040805162461bcd60e51b81526020600482018190526024820152600080516020615d9b833981519152604482015290519081900360640190fd5b60026000541415610d8f576040805162461bcd60e51b815260206004820152601f6024820152600080516020615ced833981519152604482015290519081900360640190fd5b6002600055620f424062ffffff821610610dc45760405162461bcd60e51b8152600401610dbb90615b27565b60405180910390fd5b60065462ffffff600160201b90910481169082161015610df65760405162461bcd60e51b8152600401610dbb90615a8e565b6006805463ffffff00191661010062ffffff8416021790556040517f04f9c1a24c6543f4b91577d82af28fb7ef6d7b9fe46acd0e5c36ef17073b94e690610e3e908390615bf2565b60405180910390a1506001600055565b610e566128e5565b6001600160a01b0316610e67611060565b6001600160a01b031614610eb0576040805162461bcd60e51b81526020600482018190526024820152600080516020615d9b833981519152604482015290519081900360640190fd5b6001546040516000916001600160a01b0316907f8be0079c531659141344cd1fd0a4f28419497f9722a3daafe3b4186f6b6457e0908390a3600180546001600160a01b0319169055565b610f026128e5565b6001600160a01b0316610f13611060565b6001600160a01b031614610f5c576040805162461bcd60e51b81526020600482018190526024820152600080516020615d9b833981519152604482015290519081900360640190fd5b60026000541415610fa2576040805162461bcd60e51b815260206004820152601f6024820152600080516020615ced833981519152604482015290519081900360640190fd5b60026000556006805460ff191660ff83161790556040517fa7b4760b38e2a630f3073fcd5119972cbf81bd50e3761f86534a69661caf811090610e3e908390615c61565b600654600160381b900462ffffff1681565b7f000000000000000000000000000000000000000000000000000000000000000081565b6001600160a01b0382166000908152600260205260408120610a6b9083612cf2565b6002602081815260009283526040928390208351918201909352910154815281565b6001546001600160a01b031690565b6110776128e5565b6001600160a01b0316611088611060565b6001600160a01b0316146110d1576040805162461bcd60e51b81526020600482018190526024820152600080516020615d9b833981519152604482015290519081900360640190fd5b60026000541415611117576040805162461bcd60e51b815260206004820152601f6024820152600080516020615ced833981519152604482015290519081900360640190fd5b600260005561112e6001600160a01b038316612592565b61114a5760405162461bcd60e51b8152600401610dbb90615847565b6001600160a01b03821660008181526008602052604090819020805460ff1916841515179055517fd5d4c2e150c76234e0f5d390162d34c5c1e1405df2194cfbd63b12d9521b1027906109dc90849061545b565b60055481565b60075462ffffff8116906301000000900461ffff1682565b6001600160a01b0382166000908152600260205260408120610a6b9083612d91565b6001600160a01b03811660009081526002602052604081206006546107dc9190600160201b900462ffffff16612e27565b600654600160201b900462ffffff1681565b6000806002600054141561126a576040805162461bcd60e51b815260206004820152601f6024820152600080516020615ced833981519152604482015290519081900360640190fd5b600260005560a0830135428110156112945760405162461bcd60e51b8152600401610dbb9061593b565b6112a460408501602086016151b0565b6001600160a01b03811660009081526008602052604090205460ff166112dc5760405162461bcd60e51b8152600401610dbb90615777565b60006113af6002826112f160208a018a6151b0565b6001600160a01b03166001600160a01b031681526020019081526020016000206040518060e0016040528089602001602081019061132f91906151b0565b6001600160a01b031681526040808b013560208301526060808c0135918301919091526080808c01359183019190915260065462ffffff600160201b8204169183019190915260ff1660a082015260c0016113886128e5565b6001600160a01b031661139e60208c018c6151b0565b6001600160a01b0316149052612e60565b905060006113c360408801602089016151b0565b6001600160a01b0316639482de1a6040518163ffffffff1660e01b815260040160206040518083038186803b1580156113fb57600080fd5b505afa15801561140f573d6000803e3d6000fd5b505050506040513d601f19601f820116820180604052508101906114339190615333565b905060006114476040890160208a016151b0565b6001600160a01b0316638ee8fe5d6040518163ffffffff1660e01b815260040160206040518083038186803b15801561147f57600080fd5b505afa158015611493573d6000803e3d6000fd5b505050506040513d601f19601f820116820180604052508101906114b79190615333565b90506114c96040890160208a016151b0565b6001600160a01b03166114df60208a018a6151b0565b6001600160a01b03167f2935383596639a6916071dea84c6ed5d6c6315fa9628268974458798fea93ebc8560a00151611519576000611521565b6115216128e5565b866000015187602001518d6040013589604001518a606001518b608001518b8b604051611556999897969594939291906153c4565b60405180910390a350508051602090910151600160005590969095509350505050565b6115816128e5565b6001600160a01b0316611592611060565b6001600160a01b0316146115db576040805162461bcd60e51b81526020600482018190526024820152600080516020615d9b833981519152604482015290519081900360640190fd5b60026000541415611621576040805162461bcd60e51b815260206004820152601f6024820152600080516020615ced833981519152604482015290519081900360640190fd5b6002600055620f424061163760208301836152ff565b62ffffff16106116595760405162461bcd60e51b8152600401610dbb90615810565b600061166b60408301602084016152e3565b61ffff161161168c5760405162461bcd60e51b8152600401610dbb906159f8565b8060076116998282615c6f565b507f1185c4964ca5cd3d88d5dfbc1fb65b84d5533e3354f3b2163e8e1c0f35bca0e190506116ca60208301836152ff565b6116da60408401602085016152e3565b604051610e3e929190615c02565b6116f06150c1565b506001600160a01b03808316600090815260026020818152604080842094861684526001948501825292839020835160608101855281548152948101549185019190915201549082015292915050565b60026000541415611786576040805162461bcd60e51b815260206004820152601f6024820152600080516020615ced833981519152604482015290519081900360640190fd5b600260009081556117956128e5565b90507f00000000000000000000000000000000000000000000000000000000000000006001600160a01b031661184b5781156117e35760405162461bcd60e51b8152600401610dbb9061557e565b6001600160a01b03811660009081526002602052604090206118059034613184565b806001600160a01b03167f2da466a7b24304f47e87fa2e1e5a81b9831ce54fec19055ce277ca2f39ba42c43460405161183e919061549f565b60405180910390a261191c565b34156118695760405162461bcd60e51b8152600401610dbb9061587e565b6118e360026000836001600160a01b03166001600160a01b0316815260200190815260200160002060405180606001604052807f00000000000000000000000000000000000000000000000000000000000000006001600160a01b03168152602001858152602001846001600160a01b03168152506131c7565b806001600160a01b03167f2da466a7b24304f47e87fa2e1e5a81b9831ce54fec19055ce277ca2f39ba42c4836040516109dc919061549f565b50506001600055565b60035460045482565b6119366128e5565b6001600160a01b0316611947611060565b6001600160a01b031614611990576040805162461bcd60e51b81526020600482018190526024820152600080516020615d9b833981519152604482015290519081900360640190fd5b600260005414156119d6576040805162461bcd60e51b815260206004820152601f6024820152600080516020615ced833981519152604482015290519081900360640190fd5b600260005560065462ffffff61010090910481169082161115611a0b5760405162461bcd60e51b8152600401610dbb906156d2565b60008162ffffff1611611a305760405162461bcd60e51b8152600401610dbb906159d2565b6006805466ffffff000000001916600160201b62ffffff8416021790556040517ffbd0bf17b9833a130f5baeccbfc586acefc75be8ad5bb114f448e412adc4c05b90610e3e908390615bf2565b6001600160a01b0382166000908152600260205260408120610a6b9083613264565b6000611ab160408301602084016151b0565b6001600160a01b03811660009081526008602052604090205460ff16611ae95760405162461bcd60e51b8152600401610dbb90615777565b6000611af860208501856151b0565b90506000611b0c60608601604087016151b0565b9050611bdd60026000846001600160a01b03166001600160a01b03168152602001908152602001600020604051806101000160405280886020016020810190611b5591906151b0565b6001600160a01b03168152602001611b7360808a0160608b0161524e565b15158152602001611b8a60a08a0160808b0161524e565b1515815260a0808a0135602083015260c08a0135604083015260065462ffffff600160201b820481166060850152600160381b9091041660808301526001600160a01b0387811690871614910152613315565b95945050505050565b6001600160a01b038116600090815260026020908152604091829020600301805483518184028101840190945280845260609392830182828015611c5357602002820191906000526020600020905b81546001600160a01b03168152600190910190602001808311611c35575b50505050509050919050565b611c676128e5565b6001600160a01b0316611c78611060565b6001600160a01b031614611cc1576040805162461bcd60e51b81526020600482018190526024820152600080516020615d9b833981519152604482015290519081900360640190fd5b60026000541415611d07576040805162461bcd60e51b815260206004820152601f6024820152600080516020615ced833981519152604482015290519081900360640190fd5b600260005561271062ffffff82161115611d335760405162461bcd60e51b8152600401610dbb906156a6565b6006805462ffffff60381b1916600160381b62ffffff8416021790556040517f68c41b7a5c12c4d9cbb99ec284bf647922a75f379a90694e3ad65574f4ff944d90610e3e908390615bf2565b6001600160a01b0390911660009081526002602081905260409091200155565b600080600060026000541415611dea576040805162461bcd60e51b815260206004820152601f6024820152600080516020615ced833981519152604482015290519081900360640190fd5b600260005560a084013542811015611e145760405162461bcd60e51b8152600401610dbb9061593b565b611e2160208601866151b0565b6001600160a01b03811660009081526008602052604090205460ff16611e595760405162461bcd60e51b8152600401610dbb90615777565b6000611e636128e5565b90506000611f0060026000846001600160a01b03166001600160a01b031681526020019081526020016000206040518060e001604052808b6000016020810190611ead91906151b0565b6001600160a01b0316815260208c810135908201526040808d0135908201526060808d0135908201526080808d01359082015260065462ffffff61010082041660a083015260ff1660c09091015261342d565b90506000611f1160208a018a6151b0565b6001600160a01b0316639482de1a6040518163ffffffff1660e01b815260040160206040518083038186803b158015611f4957600080fd5b505afa158015611f5d573d6000803e3d6000fd5b505050506040513d601f19601f82011682018060405250810190611f819190615333565b90506000611f9260208b018b6151b0565b6001600160a01b0316638ee8fe5d6040518163ffffffff1660e01b815260040160206040518083038186803b158015611fca57600080fd5b505afa158015611fde573d6000803e3d6000fd5b505050506040513d601f19601f820116820180604052508101906120029190615333565b6001600160a01b038516600090815260026020908152604082209293509091600101908290612033908e018e6151b0565b6001600160a01b03168152602080820192909252604001600020915061205b908c018c6151b0565b6001600160a01b0316856001600160a01b03167f228674ca516ab8f32325e25d1e16656e747d977df7f664467fd5f7b4e64ba00f866000015187602001518860400151866001015487600201548a8a6040516120bd9796959493929190615c31565b60405180910390a35050815160208301516040909301516001600055909a92995097509095505050505050565b600060026000541415612132576040805162461bcd60e51b815260206004820152601f6024820152600080516020615ced833981519152604482015290519081900360640190fd5b600260005560c08201354281101561215c5760405162461bcd60e51b8152600401610dbb9061593b565b61216c60408401602085016151b0565b6001600160a01b03811660009081526008602052604090205460ff166121a45760405162461bcd60e51b8152600401610dbb90615777565b60006121af85613647565b905060006121c360408701602088016151b0565b6001600160a01b0316639482de1a6040518163ffffffff1660e01b815260040160206040518083038186803b1580156121fb57600080fd5b505afa15801561220f573d6000803e3d6000fd5b505050506040513d601f19601f820116820180604052508101906122339190615333565b9050600061224760408801602089016151b0565b6001600160a01b0316638ee8fe5d6040518163ffffffff1660e01b815260040160206040518083038186803b15801561227f57600080fd5b505afa158015612293573d6000803e3d6000fd5b505050506040513d601f19601f820116820180604052508101906122b79190615333565b90508260e001511561236b576122cb6128e5565b6001600160a01b03166122e46040890160208a016151b0565b6001600160a01b03166122fa60208a018a6151b0565b6001600160a01b03167f7c3978559b662b8adf839d43cce2ec6ab7db3fdc995575e4576acc9e0628985d866000015187602001518860400151896060015189898c608001518d60a001518e60c0015160405161235e999897969594939291906154d0565b60405180910390a46123ec565b61237b60408801602089016151b0565b6001600160a01b031661239160208901896151b0565b6001600160a01b03167fe386a40c070a1424ae709b98c27e64993228f777c6294ef7149cf0ee42ef46e8856000015186602001518760400151886060015188886040516123e3969594939291906154a8565b60405180910390a35b6123fc606088016040890161524e565b151561240e6080890160608a0161524e565b151514612425578251612420906137be565b612432565b61243283602001516137be565b6001600055979650505050505050565b60086020526000908152604090205460ff1681565b6001600160a01b03811660009081526002602052604081206006546107dc9190610100900462ffffff166137e7565b61248e6128e5565b6001600160a01b031661249f611060565b6001600160a01b0316146124e8576040805162461bcd60e51b81526020600482018190526024820152600080516020615d9b833981519152604482015290519081900360640190fd5b6001600160a01b03811661252d5760405162461bcd60e51b8152600401808060200182810382526026815260200180615d0d6026913960400191505060405180910390fd5b6001546040516001600160a01b038084169216907f8be0079c531659141344cd1fd0a4f28419497f9722a3daafe3b4186f6b6457e090600090a3600180546001600160a01b0319166001600160a01b0392909216919091179055565b60065460ff1681565b3b151590565b600281015460038201805460009290835b818110156128025760008482815481106125bf57fe5b60009182526020808320909101546001600160a01b031680835260018a810183526040808520938c905290932080549301548254919450919291901561275957600080856001600160a01b0316637640482f86600001546040518263ffffffff1660e01b815260040180828152602001915050604080518083038186803b15801561264957600080fd5b505afa15801561265d573d6000803e3d6000fd5b505050506040513d604081101561267357600080fd5b5080516020909101518654600188015460028901546040805163933c797960e01b8152600481019490945260248401929092526044830152805193955091935060009283926001600160a01b038b169263933c79799260648083019392829003018186803b1580156126e457600080fd5b505afa1580156126f8573d6000803e3d6000fd5b505050506040513d604081101561270e57600080fd5b50805160209091015190925090506127398261273361272c87613830565b8990613878565b90613878565b95506127528161273361274b86613830565b8890613878565b9450505050505b81156127e7576000846001600160a01b0316638ee8fe5d6040518163ffffffff1660e01b815260040160206040518083038186803b15801561279a57600080fd5b505afa1580156127ae573d6000803e3d6000fd5b505050506040513d60208110156127c457600080fd5b505190506127e361272c6127d783613830565b8590600160601b6138dd565b9750505b6127f18782613878565b9650505050508060010190506125a9565b5090949350505050565b6000806128198986612e27565b15905082158015612828575080155b156128375760009150506128da565b62ffffff84166128c85760405163e8fa204f60e01b81526001600160a01b0389169063e8fa204f90612871908a908a908690600401615466565b60206040518083038186803b15801561288957600080fd5b505afa15801561289d573d6000803e3d6000fd5b505050506040513d601f19601f820116820180604052508101906128c19190615333565b91506128d8565b6128d58888888785613981565b91505b505b979650505050505050565b3390565b600081602001511161290d5760405162461bcd60e51b8152600401610dbb906157e5565b80516000906001600160a01b0316156129a7576129a2826020015183600001516001600160a01b031663313ce5676040518163ffffffff1660e01b815260040160206040518083038186803b15801561296557600080fd5b505afa158015612979573d6000803e3d6000fd5b505050506040513d601f19601f8201168201806040525081019061299d9190615394565b613a53565b6129ad565b81602001515b90506129c66129bb82613830565b600285015490613aaf565b600284015560608201516129db9084906137e7565b6129f75760405162461bcd60e51b8152600401610dbb90615709565b81516001600160a01b0316612a4d5781604001516001600160a01b03166108fc83602001519081150290604051600060405180830381858888f19350505050158015612a47573d6000803e3d6000fd5b50612a64565b612a64826000015183604001518460200151613b14565b505050565b6001600160a01b038116600090815260018301602090815260408083209185905290912054815490919015612bba57805460408051637640482f60e01b8152600481019290925280516000926001600160a01b03871692637640482f92602480840193829003018186803b158015612ae057600080fd5b505afa158015612af4573d6000803e3d6000fd5b505050506040513d6040811015612b0a57600080fd5b50518254600184015460028501546040805163933c797960e01b815260048101949094526024840192909252604483015280519293506000926001600160a01b0388169263933c7979926064808301939192829003018186803b158015612b7057600080fd5b505afa158015612b84573d6000803e3d6000fd5b505050506040513d6040811015612b9a57600080fd5b50519050612bb581612733612bae85613830565b8790613878565b935050505b5092915050565b600381018054600091908290815b81811015612802576000612c0b612c0688878581548110612bec57fe5b6000918252602090912001546001600160a01b0316612cf2565b6137be565b9050612c178482613b66565b935050600101612bcf565b612c39612c2e82613830565b600285015490613878565b60028401558154612c4a9082613bc0565b9091555050565b600381018054600091908290815b81811015612802576000612c9387868481548110612c7957fe5b6000918252602090912001546001600160a01b0316612d91565b9050612c9f8482613b66565b935050600101612c5f565b612cb6612c2e82613830565b6002840155612ccf612cc782613830565b835490613aaf565b80835560001315612a645760405162461bcd60e51b8152600401610dbb90615606565b600080612cff8484612a69565b905080612d10576000915050610a33565b6000836001600160a01b0316638ee8fe5d6040518163ffffffff1660e01b815260040160206040518083038186803b158015612d4b57600080fd5b505afa158015612d5f573d6000803e3d6000fd5b505050506040513d6020811015612d7557600080fd5b50519050611bdd612d8582613830565b8390600160601b6138dd565b600080612d9e8484613264565b905080612daf576000915050610a33565b6000836001600160a01b0316638ee8fe5d6040518163ffffffff1660e01b815260040160206040518083038186803b158015612dea57600080fd5b505afa158015612dfe573d6000803e3d6000fd5b505050506040513d6020811015612e1457600080fd5b50519050611bdd8282600160601b613c1d565b600080612e3384612598565b90506000612e4085612bc1565b9050612e54612e4f8286613ccc565b613830565b90911215949350505050565b612e686150e2565b612e76838360800151612e27565b1560a082015260c0820151612ea6578060a00151612ea65760405162461bcd60e51b8152600401610dbb9061551d565b81516001600160a01b039081166000908152600180860160209081526040808420875192880151938101546002820154925163933c797960e01b815295969195939091169363933c797993612f019391929190600401615c1b565b604080518083038186803b158015612f1857600080fd5b505afa158015612f2c573d6000803e3d6000fd5b505050506040513d601f19601f82011682018060405250810190612f509190615268565b84604001856060018281525082815250505083600001516001600160a01b0316638ee8fe5d6040518163ffffffff1660e01b815260040160206040518083038186803b158015612f9f57600080fd5b505afa158015612fb3573d6000803e3d6000fd5b505050506040513d601f19601f82011682018060405250810190612fd79190615333565b84516020860151604051639c8f9f2360e01b81529294506001600160a01b039091169250639c8f9f239161300e919060040161549f565b6040805180830381600087803b15801561302757600080fd5b505af115801561303b573d6000803e3d6000fd5b505050506040513d601f19601f8201168201806040525081019061305f9190615268565b60208401528083526040840151111561308a5760405162461bcd60e51b8152600401610dbb90615af0565b8260600151826020015110156130b25760405162461bcd60e51b8152600401610dbb90615af0565b6130cd6130c28360000151613830565b604084015190613878565b604083015260208201516130ef906130e490613830565b606084015190613878565b606083015282516001600160a01b03166000908152600185016020908152604090912090840151815461312191613bc0565b9055600061314161313183613830565b604085015190600160601b6138dd565b600003905061317685856000015185604001518461316c868960600151613aaf90919063ffffffff16565b8960a00151613ce1565b608084015250909392505050565b600081116131a45760405162461bcd60e51b8152600401610dbb9061590f565b6131bb6131b082613830565b600284015490613878565b60029092019190915550565b60008160200151116131eb5760405162461bcd60e51b8152600401610dbb906155ad565b613202816000015182604001518360200151613ea1565b6000613249826020015183600001516001600160a01b031663313ce5676040518163ffffffff1660e01b815260040160206040518083038186803b15801561296557600080fd5b9050613257612c2e82613830565b6002909301929092555050565b6001600160a01b0381166000908152600183016020526040812061328b612c068585612a69565b815490925015612bba57805460408051637640482f60e01b8152600481019290925280516000926001600160a01b03871692637640482f92602480840193829003018186803b1580156132dd57600080fd5b505afa1580156132f1573d6000803e3d6000fd5b505050506040513d604081101561330757600080fd5b50519050611bdd8382613b66565b600080613326848460a00151612e27565b1590508260e0015161334f578061334f5760405162461bcd60e51b8152600401610dbb90615ac5565b60c083015162ffffff166133f457825160208401516040808601516060870151915162de853760e31b81526001600160a01b03909416936306f429b89361339d939092918790600401615480565b60206040518083038186803b1580156133b557600080fd5b505afa1580156133c9573d6000803e3d6000fd5b505050506040513d601f19601f820116820180604052508101906133ed9190615333565b915061341a565b61341683600001518460200151856040015186606001518760c0015186613fd8565b5091505b612bba8360400151838560800151614215565b6134356150c1565b81516001600160a01b039081166000908152600185016020526040808220855182516379144ba960e11b815283519295859492169263f228975292600480840193919291829003018186803b15801561348d57600080fd5b505afa1580156134a1573d6000803e3d6000fd5b505050506040513d601f19601f820116820180604052508101906134c59190615268565b9150915084600001516001600160a01b0316639cd441da866020015187604001516040518363ffffffff1660e01b815260040161350392919061550f565b606060405180830381600087803b15801561351d57600080fd5b505af1158015613531573d6000803e3d6000fd5b505050506040513d601f19601f82011682018060405250810190613555919061534b565b60408701526020860152808552606086015111156135855760405162461bcd60e51b8152600401610dbb906157ae565b8460800151846020015110156135ad5760405162461bcd60e51b8152600401610dbb90615964565b825460408501516135bf908290613b66565b84556040850151855160018601546135db928492909187614260565b84600101819055506135fc8186604001518760200151876002015486614260565b6002850155855160c08701516136139189916142a9565b613621878760a001516137e7565b61363d5760405162461bcd60e51b8152600401610dbb90615b82565b5050505092915050565b61364f61511a565b6107dc6002600061366360208601866151b0565b6001600160a01b03166001600160a01b031681526020019081526020016000206002600061368f6128e5565b6001600160a01b03166001600160a01b03168152602001908152602001600020600201600360056040518061016001604052808860200160208101906136d591906151b0565b6001600160a01b031681526020016136f360608a0160408b0161524e565b1515815260200161370a60808a0160608b0161524e565b151581526080808a0135602083015260a0808b0135604084015260065462ffffff600160201b820481166060860152610100820481169385019390935260ff811691840191909152600160381b90041660c082015260e00161376a6128e5565b6001600160a01b031661378060208b018b6151b0565b6001600160a01b03161481526040805180820190915260075462ffffff811682526301000000900461ffff1660208083019190915290910152614470565b6000808212156137de576137d96137d4836145f0565b61461c565b6107dc565b6107dc8261461c565b6000806137f384612598565b9050600061380085612c51565b905061380f612e4f8286613ccc565b600286015461381f908490614673565b121580611bdd5750611bdd85614689565b6000600160ff1b82106138745760405162461bcd60e51b8152600401808060200182810382526028815260200180615dbb6028913960400191505060405180910390fd5b5090565b600082820181831280159061388d5750838112155b806138a257506000831280156138a257508381125b610a6b5760405162461bcd60e51b8152600401808060200182810382526021815260200180615d336021913960400191505060405180910390fd5b600080600085126138ee57846138f7565b6138f7856145f0565b905060008085126139085784613911565b613911856145f0565b9050600080871280156139245750600086135b8061393a575060008713801561393a5750600086125b613945576000613948565b60015b90506000613957848488613c1d565b90508161396c5761396781613830565b613975565b613975816147e6565b98975050505050505050565b60405163e8fa204f60e01b81526000906001600160a01b0387169063e8fa204f906139b490889088908790600401615466565b60206040518083038186803b1580156139cc57600080fd5b505afa1580156139e0573d6000803e3d6000fd5b505050506040513d601f19601f82011682018060405250810190613a049190615333565b90508315613a36578415613a1757613a31565b613a2e613a27620f4240856147fa565b8290614826565b90505b611bdd565b8415611bdd57613a2e613a4c620f4240856147fa565b8290613ccc565b600060ff60128390031681613a67826137be565b9050604d811115613a8a5760405162461bcd60e51b8152600401610dbb90615638565b6000821215613aa157613a3185600a83900a61483b565b611bdd85600a83900a6148a2565b6000818303818312801590613ac45750838113155b80613ad95750600083128015613ad957508381135b610a6b5760405162461bcd60e51b8152600401808060200182810382526024815260200180615de36024913960400191505060405180910390fd5b604080516001600160a01b038416602482015260448082018490528251808303909101815260649091019091526020810180516001600160e01b031663a9059cbb60e01b179052612a649084906148fb565b600082820183811015610a6b576040805162461bcd60e51b815260206004820152601b60248201527f536166654d6174683a206164646974696f6e206f766572666c6f770000000000604482015290519081900360640190fd5b600082821115613c17576040805162461bcd60e51b815260206004820152601e60248201527f536166654d6174683a207375627472616374696f6e206f766572666c6f770000604482015290519081900360640190fd5b50900390565b6000808060001985870986860292508281109083900303905080613c535760008411613c4857600080fd5b508290049050610a6b565b808411613c5f57600080fd5b6000848688096000868103871696879004966002600389028118808a02820302808a02820302808a02820302808a02820302808a02820302808a02909103029181900381900460010186841190950394909402919094039290920491909117919091029150509392505050565b6000610a6b838362ffffff16620f4240613c1d565b6001600160a01b038516600090815260208790526040812085151580613d0657508415155b15613dde57613d14856149ac565b613d1d876149ac565b0260001914613d3e5760405162461bcd60e51b8152600401610dbb90615b52565b613d47866149ac565b8154613d52906149ac565b026000191415613dde576000613d67876137be565b90506000613d7883600001546137be565b9050808211613daf576000613d9b613d8f84613830565b600186015490846138dd565b9050613da78882613878565b945050613ddb565b6000613dc5613dbd83613830565b8990856138dd565b6001850154909150613dd79082613878565b9450505b50505b613de88285613878565b8154909250600090613dfa9088613878565b90506000613e2384613e1d886127338b886001015461387890919063ffffffff16565b90613aaf565b905081158015613e31575080155b80613e4f5750613e40816149ac565b613e49836149ac565b02600019145b613e6b5760405162461bcd60e51b8152600401610dbb906155d8565b8183556001830181905560028a0154613e849085613878565b60028b0155613e948a8a876142a9565b5050509695505050505050565b6040516370a0823160e01b81526000906001600160a01b038516906370a0823190613ed09030906004016153b0565b60206040518083038186803b158015613ee857600080fd5b505afa158015613efc573d6000803e3d6000fd5b505050506040513d601f19601f82011682018060405250810190613f209190615333565b9050613f2e848430856149d4565b81613fb582866001600160a01b03166370a08231306040518263ffffffff1660e01b8152600401613f5f91906153b0565b60206040518083038186803b158015613f7757600080fd5b505afa158015613f8b573d6000803e3d6000fd5b505050506040513d601f19601f82011682018060405250810190613faf9190615333565b90613bc0565b14613fd25760405162461bcd60e51b8152600401610dbb90615740565b50505050565b60008085156141265786156140875760405162de853760e31b81526001600160a01b038916906306f429b890614018908a908a908a908990600401615480565b60206040518083038186803b15801561403057600080fd5b505afa158015614044573d6000803e3d6000fd5b505050506040513d601f19601f820116820180604052508101906140689190615333565b91506140748285613ccc565b90506140808282613bc0565b9150614121565b6140918585613ccc565b90506001600160a01b0388166306f429b888886140ae8986613bc0565b876040518563ffffffff1660e01b81526004016140ce9493929190615480565b60206040518083038186803b1580156140e657600080fd5b505afa1580156140fa573d6000803e3d6000fd5b505050506040513d601f19601f8201168201806040525081019061411e9190615333565b91505b61420a565b86156141645761414785613faf614140620f4240886147fa565b8890614826565b90506001600160a01b0388166306f429b888886140ae8986613b66565b60405162de853760e31b81526000906001600160a01b038a16906306f429b890614198908b908b908b908a90600401615480565b60206040518083038186803b1580156141b057600080fd5b505afa1580156141c4573d6000803e3d6000fd5b505050506040513d601f19601f820116820180604052508101906141e89190615333565b90506141fa613a27620f4240876147fa565b92506142068382613bc0565b9150505b965096945050505050565b8215614240578082101561423b5760405162461bcd60e51b8152600401610dbb906158b0565b612a64565b80821115612a645760405162461bcd60e51b8152600401610dbb90615a2b565b60008061426d8787613b66565b905061428861428186600160601b89613c1d565b8490613b66565b92506128da614298848884613c1d565b6142a3868a85613c1d565b90613b66565b6001600160a01b0382166000908152602084905260408120541515806142e857506001600160a01b038316600090815260018501602052604090205415155b6003850180549192509060005b818110156143d857856001600160a01b031683828154811061431357fe5b6000918252602090912001546001600160a01b031614156143d057836143c75782600183038154811061434257fe5b9060005260206000200160009054906101000a90046001600160a01b031683828154811061436c57fe5b9060005260206000200160006101000a8154816001600160a01b0302191690836001600160a01b03160217905550828054806143a457fe5b600082815260209020810160001990810180546001600160a01b03191690550190555b50505050612a64565b6001016142f5565b50826143e657505050612a64565b8360ff1681600101111561443b576040805162461bcd60e51b8152602060048201526017602482015276414c5f55503a20746f6f206d616e79206d61726b65747360481b604482015290519081900360640190fd5b508054600181018255600091825260209091200180546001600160a01b0385166001600160a01b031990911617905550505050565b61447861511a565b614486868360a00151612e27565b1560e08201526101208201516144b7578060e001516144b75760405162461bcd60e51b8152600401610dbb906158e5565b600086600001600084600001516001600160a01b03166001600160a01b0316815260200190815260200160002060000154905061451d8785856000015186602001518760400151886060015189608001518a60e001518b61010001518b60e00151614a2e565b606086015260408501526020840152808352600090819061453d906149ac565b84516145539061454e908690613878565b6149ac565b021390508260e00151156145b557801561457f5760405162461bcd60e51b8152600401610dbb90615547565b6145a58860020188888760a001518861014001516145a089602001516137be565b614b1d565b60c086015260a085015260808401525b80156145e5576145c9888560c001516137e7565b6145e55760405162461bcd60e51b8152600401610dbb90615a60565b505095945050505050565b6000600160ff1b82136146155760405162461bcd60e51b8152600401610dbb9061599b565b5060000390565b600080821215613874576040805162461bcd60e51b815260206004820181905260248201527f53616665436173743a2076616c7565206d75737420626520706f736974697665604482015290519081900360640190fd5b60008183126146825781610a6b565b5090919050565b600281015460038201805460009290835b818110156147d95760008482815481106146b057fe5b60009182526020808320909101546001600160a01b031680835260018a810183526040808520938c905290932080549301549093509091906146f3908790613878565b8254909650156147b257600080846001600160a01b031663933c79798560000154866001015487600201546040518463ffffffff1660e01b8152600401808481526020018381526020018281526020019350505050604080518083038186803b15801561475f57600080fd5b505afa158015614773573d6000803e3d6000fd5b505050506040513d604081101561478957600080fd5b50805160209091015190925090506147a18383613878565b92506147ad8882613878565b975050505b60008112156147cb5760009750505050505050506107df565b50505080600101905061469a565b5050600013159392505050565b60006147f182613830565b60000392915050565b60008262ffffff168262ffffff161115613c175760405162461bcd60e51b8152600401610dbb9061566f565b6000610a6b83620f42408462ffffff16613c1d565b6000808211614891576040805162461bcd60e51b815260206004820152601a60248201527f536166654d6174683a206469766973696f6e206279207a65726f000000000000604482015290519081900360640190fd5b81838161489a57fe5b049392505050565b6000826148b157506000610a33565b828202828482816148be57fe5b0414610a6b5760405162461bcd60e51b8152600401808060200182810382526021815260200180615d7a6021913960400191505060405180910390fd5b6000614950826040518060400160405280602081526020017f5361666545524332303a206c6f772d6c6576656c2063616c6c206661696c6564815250856001600160a01b0316614bba9092919063ffffffff16565b805190915015612a645780806020019051602081101561496f57600080fd5b5051612a645760405162461bcd60e51b815260040180806020018281038252602a815260200180615e07602a913960400191505060405180910390fd5b60008082136149cc57600082126149c45760006137d9565b6000196107dc565b506001919050565b604080516001600160a01b0380861660248301528416604482015260648082018490528251808303909101815260849091019091526020810180516001600160e01b03166323b872dd60e01b179052613fd29085906148fb565b60008080808062ffffff871615614a5757614a4e8e8e8e8e8e8c8c614bc9565b92509050614ade565b6040516380796d5560e01b81526001600160a01b038e16906380796d5590614a89908f908f908f908c90600401615480565b602060405180830381600087803b158015614aa357600080fd5b505af1158015614ab7573d6000803e3d6000fd5b505050506040513d601f19601f82011682018060405250810190614adb9190615333565b90505b614ae98b828b614215565b614af58c8c8c84614e15565b9095509350614b098f8e878760008d613ce1565b9250509a509a509a509a9650505050505050565b60008080614b2b8487613ccc565b8551909350614b3b908490613ccc565b9150614b478383613bc0565b9050614b60876001015483876020015161ffff16614e84565b60018901919091559150614b7e614b7684613830565b8a5490613aaf565b8955614b94614b8c83613830565b895490613878565b8855614baa614ba282613830565b885490613878565b9096559097909650939450505050565b60606108cf8484600085614eb8565b6000808515614d1c578615614c7b576040516380796d5560e01b81526001600160a01b038916906380796d5590614c0a908a908a908a908990600401615480565b602060405180830381600087803b158015614c2457600080fd5b505af1158015614c38573d6000803e3d6000fd5b505050506040513d601f19601f82011682018060405250810190614c5c9190615333565b9150614c688285613ccc565b9050614c748282613bc0565b9150614d17565b614c858585613ccc565b90506001600160a01b0388166380796d558888614ca28986613bc0565b876040518563ffffffff1660e01b8152600401614cc29493929190615480565b602060405180830381600087803b158015614cdc57600080fd5b505af1158015614cf0573d6000803e3d6000fd5b505050506040513d601f19601f82011682018060405250810190614d149190615333565b91505b614dfc565b8615614d5357614d3685613faf614140620f4240886147fa565b90506001600160a01b0388166380796d558888614ca28986613b66565b6040516380796d5560e01b81526000906001600160a01b038a16906380796d5590614d88908b908b908b908a90600401615480565b602060405180830381600087803b158015614da257600080fd5b505af1158015614db6573d6000803e3d6000fd5b505050506040513d601f19601f82011682018060405250810190614dda9190615333565b9050614dec613a27620f4240876147fa565b9250614df88382613bc0565b9150505b8854614e089082613b66565b9098559795505050505050565b6000808415614e51578515614e3f57614e2d846147e6565b614e3684613830565b91509150614e7b565b614e4883613830565b614e36856147e6565b8515614e6957614e60836147e6565b614e3685613830565b614e7284613830565b614e36846147e6565b94509492505050565b600080614e918585613b66565b9450614ea28562ffffff851661483b565b9050614eae8582613bc0565b9150935093915050565b606082471015614ef95760405162461bcd60e51b8152600401808060200182810382526026815260200180615d546026913960400191505060405180910390fd5b614f0285612592565b614f53576040805162461bcd60e51b815260206004820152601d60248201527f416464726573733a2063616c6c20746f206e6f6e2d636f6e7472616374000000604482015290519081900360640190fd5b600080866001600160a01b031685876040518082805190602001908083835b60208310614f915780518252601f199092019160209182019101614f72565b6001836020036101000a03801982511681845116808217855250505050505090500191505060006040518083038185875af1925050503d8060008114614ff3576040519150601f19603f3d011682016040523d82523d6000602084013e614ff8565b606091505b50915091506128da82828660608315615012575081610a6b565b8251156150225782518084602001fd5b8160405162461bcd60e51b81526004018080602001828103825283818151815260200191508051906020019080838360005b8381101561506c578181015183820152602001615054565b50505050905090810190601f1680156150995780820380516001836020036101000a031916815260200191505b509250505060405180910390fd5b604051806040016040528060008152602001600081525090565b60405180606001604052806000815260200160008152602001600081525090565b6040518060c0016040528060008152602001600081526020016000815260200160008152602001600081526020016000151581525090565b604051806101000160405280600081526020016000815260200160008152602001600081526020016000815260200160008152602001600081526020016000151581525090565b80356001600160a01b03811681146107df57600080fd5b803580151581146107df57600080fd5b600060c08284031215615199578081fd5b50919050565b600060e08284031215615199578081fd5b6000602082840312156151c1578081fd5b610a6b82615161565b600080604083850312156151dc578081fd5b6151e583615161565b91506151f360208401615161565b90509250929050565b6000806040838503121561520e578182fd5b61521783615161565b91506151f360208401615178565b60008060408385031215615237578182fd5b61524083615161565b946020939093013593505050565b60006020828403121561525f578081fd5b610a6b82615178565b6000806040838503121561527a578182fd5b505080516020909101519092909150565b600060c0828403121561529c578081fd5b610a6b8383615188565b600060408284031215615199578081fd5b600060a08284031215615199578081fd5b600060e082840312156152d9578081fd5b610a6b838361519f565b6000602082840312156152f4578081fd5b8135610a6b81615cb9565b600060208284031215615310578081fd5b8135610a6b81615ccc565b60006020828403121561532c578081fd5b5035919050565b600060208284031215615344578081fd5b5051919050565b60008060006060848603121561535f578081fd5b8351925060208401519150604084015190509250925092565b600060208284031215615389578081fd5b8135610a6b81615cdd565b6000602082840312156153a5578081fd5b8151610a6b81615cdd565b6001600160a01b0391909116815260200190565b6001600160a01b03999099168952602089019790975260408801959095526060870193909352608086019190915260a085015260c084015260e08301526101008201526101200190565b6020808252825182820181905260009190848201906040850190845b8181101561544f5783516001600160a01b03168352928401929184019160010161542a565b50909695505050505050565b901515815260200190565b921515835290151560208301521515604082015260600190565b9315158452911515602084015260408301521515606082015260800190565b90815260200190565b958652602086019490945260408501929092526060840152608083015260a082015260c00190565b988952602089019790975260408801959095526060870193909352608086019190915260a085015260c084015260e08301526101008201526101200190565b918252602082015260400190565b60208082526010908201526f4d4c5f524c3a20656e6f756768206d6d60801b604082015260600190565b6020808252601f908201527f544c5f4f503a206e6f206f70656e207768656e206c69717569646174696f6e00604082015260600190565b60208082526015908201527450455f443a20616d6f756e74206e6f74207a65726f60581b604082015260600190565b602080825260119082015270159317d10e881e995c9bc8185b5bdd5b9d607a1b604082015260600190565b6020808252601490820152732a262fa0aa2a211d103732bb32b91037b1b1bab960611b604082015260600190565b602080825260189082015277564c5f5449463a206e656761746976652062616c616e636560401b604082015260600190565b6020808252601f908201527f564c5f5443413a20746f6f206c6172676520646563696d616c73206469666600604082015260600190565b6020808252601e908201527f506572704d6174683a207375627472616374696f6e206f766572666c6f770000604082015260600190565b60208082526012908201527150455f535046523a20746f6f206c6172676560701b604082015260600190565b6020808252601b908201527f50455f534d523a20626967676572207468616e20696d526174696f0000000000604082015260600190565b6020808252601f908201527f564c5f573a206e6f7420656e6f75676820696e697469616c206d617267696e00604082015260600190565b6020808252601c908201527f564c5f5454493a20696e636f6e73697374656e742062616c616e636500000000604082015260600190565b6020808252601a908201527f50455f434d413a206d61726b6574206e6f7420616c6c6f776564000000000000604082015260600190565b6020808252601c908201527f4d4c5f414c3a20746f6f20736d616c6c206f7574707574206261736500000000604082015260600190565b602080825260119082015270159317d5ce881e995c9bc8185b5bdd5b9d607a1b604082015260600190565b6020808252601f908201527f50455f534c52433a20746f6f206c617267652072657761726420726174696f00604082015260600190565b6020808252601f908201527f50455f53494d413a206d61726b6574206164647265737320696e76616c696400604082015260600190565b60208082526018908201527750455f443a206d73672e76616c7565206e6f74207a65726f60401b604082015260600190565b6020808252818101527f544c5f56533a20746f6f20736d616c6c206f70706f7369746520616d6f756e74604082015260600190565b60208082526010908201526f544c5f4f503a20656e6f756768206d6d60801b604082015260600190565b602080825260129082015271159317d1114e881e995c9bc8185b5bdd5b9d60721b604082015260600190565b6020808252600f908201526e50455f43443a20746f6f206c61746560881b604082015260600190565b6020808252601d908201527f4d4c5f414c3a20746f6f20736d616c6c206f75747075742071756f7465000000604082015260600190565b6020808252601c908201527f506572704d6174683a20696e76657273696f6e206f766572666c6f7700000000604082015260600190565b6020808252600c908201526b50455f534d523a207a65726f60a01b604082015260600190565b60208082526019908201527850455f534c52433a20656d612074696d65206973207a65726f60381b604082015260600190565b6020808252818101527f544c5f56533a20746f6f206c61726765206f70706f7369746520616d6f756e74604082015260600190565b602080825260149082015273544c5f4f503a206e6f7420656e6f75676820696d60601b604082015260600190565b6020808252601c908201527f50455f5349523a20736d616c6c6572207468616e206d6d526174696f00000000604082015260600190565b602080825260119082015270544c5f4f50443a20656e6f756768206d6d60781b604082015260600190565b6020808252601c908201527f4d4c5f524c3a20746f6f20736d616c6c206f7574707574206261736500000000604082015260600190565b60208082526011908201527050455f5349523a20746f6f206c6172676560781b604082015260600190565b602080825260169082015275151317d05515108e881a5b9d985b1a59081a5b9c1d5d60521b604082015260600190565b6020808252601490820152734d4c5f414c3a206e6f7420656e6f75676820696d60601b604082015260600190565b81518152602080830151908201526040918201519181019190915260600190565b815181526020918201519181019190915260400190565b9051815260200190565b62ffffff91909116815260200190565b62ffffff92909216825261ffff16602082015260400190565b9283526020830191909152604082015260600190565b968752602087019590955260408601939093526060850191909152608084015260a083015260c082015260e00190565b60ff91909116815260200190565b8135615c7a81615ccc565b815462ffffff191662ffffff91909116178082556020830135615c9c81615cb9565b64ffff0000008160181b1664ffff00000019831617835550505050565b61ffff81168114615cc957600080fd5b50565b62ffffff81168114615cc957600080fd5b60ff81168114615cc957600080fdfe5265656e7472616e637947756172643a207265656e7472616e742063616c6c004f776e61626c653a206e6577206f776e657220697320746865207a65726f20616464726573735369676e6564536166654d6174683a206164646974696f6e206f766572666c6f77416464726573733a20696e73756666696369656e742062616c616e636520666f722063616c6c536166654d6174683a206d756c7469706c69636174696f6e206f766572666c6f774f776e61626c653a2063616c6c6572206973206e6f7420746865206f776e657253616665436173743a2076616c756520646f65736e27742066697420696e20616e20696e743235365369676e6564536166654d6174683a207375627472616374696f6e206f766572666c6f775361666545524332303a204552433230206f7065726174696f6e20646964206e6f742073756363656564a26469706673582212200684d625b85562b2792dc4d61c0417fdfd3a082b1a30ba26173d1e3e664e6a0864736f6c63430007060033",
  "devdoc": {
    "kind": "dev",
    "methods": {
      "owner()": {
        "details": "Returns the address of the current owner."
      },
      "renounceOwnership()": {
        "details": "Leaves the contract without owner. It will not be possible to call `onlyOwner` functions anymore. Can only be called by the current owner. NOTE: Renouncing ownership will leave the contract without an owner, thereby removing any functionality that is only available to the owner."
      },
      "transferOwnership(address)": {
        "details": "Transfers ownership of the contract to a new account (`newOwner`). Can only be called by the current owner."
      }
    },
    "version": 1
  },
  "userdoc": {
    "kind": "user",
    "methods": {},
    "version": 1
  },
  "storageLayout": {
    "storage": [
      {
        "astId": 3005,
        "contract": "contracts/test/DebugPerpdexExchange.sol:DebugPerpdexExchange",
        "label": "_status",
        "offset": 0,
        "slot": "0",
        "type": "t_uint256"
      },
      {
        "astId": 290,
        "contract": "contracts/test/DebugPerpdexExchange.sol:DebugPerpdexExchange",
        "label": "_owner",
        "offset": 0,
        "slot": "1",
        "type": "t_address"
      },
      {
        "astId": 3580,
        "contract": "contracts/test/DebugPerpdexExchange.sol:DebugPerpdexExchange",
        "label": "accountInfos",
        "offset": 0,
        "slot": "2",
        "type": "t_mapping(t_address,t_struct(AccountInfo)8478_storage)"
      },
      {
        "astId": 3583,
        "contract": "contracts/test/DebugPerpdexExchange.sol:DebugPerpdexExchange",
        "label": "insuranceFundInfo",
        "offset": 0,
        "slot": "3",
        "type": "t_struct(InsuranceFundInfo)8483_storage"
      },
      {
        "astId": 3586,
        "contract": "contracts/test/DebugPerpdexExchange.sol:DebugPerpdexExchange",
        "label": "protocolInfo",
        "offset": 0,
        "slot": "5",
        "type": "t_struct(ProtocolInfo)8486_storage"
      },
      {
        "astId": 3597,
        "contract": "contracts/test/DebugPerpdexExchange.sol:DebugPerpdexExchange",
        "label": "maxMarketsPerAccount",
        "offset": 0,
        "slot": "6",
        "type": "t_uint8"
      },
      {
        "astId": 3601,
        "contract": "contracts/test/DebugPerpdexExchange.sol:DebugPerpdexExchange",
        "label": "imRatio",
        "offset": 1,
        "slot": "6",
        "type": "t_uint24"
      },
      {
        "astId": 3605,
        "contract": "contracts/test/DebugPerpdexExchange.sol:DebugPerpdexExchange",
        "label": "mmRatio",
        "offset": 4,
        "slot": "6",
        "type": "t_uint24"
      },
      {
        "astId": 3609,
        "contract": "contracts/test/DebugPerpdexExchange.sol:DebugPerpdexExchange",
        "label": "protocolFeeRatio",
        "offset": 7,
        "slot": "6",
        "type": "t_uint24"
      },
      {
        "astId": 3617,
        "contract": "contracts/test/DebugPerpdexExchange.sol:DebugPerpdexExchange",
        "label": "liquidationRewardConfig",
        "offset": 0,
        "slot": "7",
        "type": "t_struct(LiquidationRewardConfig)8491_storage"
      },
      {
        "astId": 3622,
        "contract": "contracts/test/DebugPerpdexExchange.sol:DebugPerpdexExchange",
        "label": "isMarketAllowed",
        "offset": 0,
        "slot": "8",
        "type": "t_mapping(t_address,t_bool)"
      }
    ],
    "types": {
      "t_address": {
        "encoding": "inplace",
        "label": "address",
        "numberOfBytes": "20"
      },
      "t_array(t_address)dyn_storage": {
        "base": "t_address",
        "encoding": "dynamic_array",
        "label": "address[]",
        "numberOfBytes": "32"
      },
      "t_bool": {
        "encoding": "inplace",
        "label": "bool",
        "numberOfBytes": "1"
      },
      "t_int256": {
        "encoding": "inplace",
        "label": "int256",
        "numberOfBytes": "32"
      },
      "t_mapping(t_address,t_bool)": {
        "encoding": "mapping",
        "key": "t_address",
        "label": "mapping(address => bool)",
        "numberOfBytes": "32",
        "value": "t_bool"
      },
      "t_mapping(t_address,t_struct(AccountInfo)8478_storage)": {
        "encoding": "mapping",
        "key": "t_address",
        "label": "mapping(address => struct PerpdexStructs.AccountInfo)",
        "numberOfBytes": "32",
        "value": "t_struct(AccountInfo)8478_storage"
      },
      "t_mapping(t_address,t_struct(MakerInfo)8461_storage)": {
        "encoding": "mapping",
        "key": "t_address",
        "label": "mapping(address => struct PerpdexStructs.MakerInfo)",
        "numberOfBytes": "32",
        "value": "t_struct(MakerInfo)8461_storage"
      },
      "t_mapping(t_address,t_struct(TakerInfo)8454_storage)": {
        "encoding": "mapping",
        "key": "t_address",
        "label": "mapping(address => struct PerpdexStructs.TakerInfo)",
        "numberOfBytes": "32",
        "value": "t_struct(TakerInfo)8454_storage"
      },
      "t_struct(AccountInfo)8478_storage": {
        "encoding": "inplace",
        "label": "struct PerpdexStructs.AccountInfo",
        "members": [
          {
            "astId": 8468,
            "contract": "contracts/test/DebugPerpdexExchange.sol:DebugPerpdexExchange",
            "label": "takerInfos",
            "offset": 0,
            "slot": "0",
            "type": "t_mapping(t_address,t_struct(TakerInfo)8454_storage)"
          },
          {
            "astId": 8472,
            "contract": "contracts/test/DebugPerpdexExchange.sol:DebugPerpdexExchange",
            "label": "makerInfos",
            "offset": 0,
            "slot": "1",
            "type": "t_mapping(t_address,t_struct(MakerInfo)8461_storage)"
          },
          {
            "astId": 8474,
            "contract": "contracts/test/DebugPerpdexExchange.sol:DebugPerpdexExchange",
            "label": "vaultInfo",
            "offset": 0,
            "slot": "2",
            "type": "t_struct(VaultInfo)8464_storage"
          },
          {
            "astId": 8477,
            "contract": "contracts/test/DebugPerpdexExchange.sol:DebugPerpdexExchange",
            "label": "markets",
            "offset": 0,
            "slot": "3",
            "type": "t_array(t_address)dyn_storage"
          }
        ],
        "numberOfBytes": "128"
      },
      "t_struct(InsuranceFundInfo)8483_storage": {
        "encoding": "inplace",
        "label": "struct PerpdexStructs.InsuranceFundInfo",
        "members": [
          {
            "astId": 8480,
            "contract": "contracts/test/DebugPerpdexExchange.sol:DebugPerpdexExchange",
            "label": "balance",
            "offset": 0,
            "slot": "0",
            "type": "t_int256"
          },
          {
            "astId": 8482,
            "contract": "contracts/test/DebugPerpdexExchange.sol:DebugPerpdexExchange",
            "label": "liquidationRewardBalance",
            "offset": 0,
            "slot": "1",
            "type": "t_uint256"
          }
        ],
        "numberOfBytes": "64"
      },
      "t_struct(LiquidationRewardConfig)8491_storage": {
        "encoding": "inplace",
        "label": "struct PerpdexStructs.LiquidationRewardConfig",
        "members": [
          {
            "astId": 8488,
            "contract": "contracts/test/DebugPerpdexExchange.sol:DebugPerpdexExchange",
            "label": "rewardRatio",
            "offset": 0,
            "slot": "0",
            "type": "t_uint24"
          },
          {
            "astId": 8490,
            "contract": "contracts/test/DebugPerpdexExchange.sol:DebugPerpdexExchange",
            "label": "smoothEmaTime",
            "offset": 3,
            "slot": "0",
            "type": "t_uint16"
          }
        ],
        "numberOfBytes": "32"
      },
      "t_struct(MakerInfo)8461_storage": {
        "encoding": "inplace",
        "label": "struct PerpdexStructs.MakerInfo",
        "members": [
          {
            "astId": 8456,
            "contract": "contracts/test/DebugPerpdexExchange.sol:DebugPerpdexExchange",
            "label": "liquidity",
            "offset": 0,
            "slot": "0",
            "type": "t_uint256"
          },
          {
            "astId": 8458,
            "contract": "contracts/test/DebugPerpdexExchange.sol:DebugPerpdexExchange",
            "label": "cumBaseSharePerLiquidityX96",
            "offset": 0,
            "slot": "1",
            "type": "t_uint256"
          },
          {
            "astId": 8460,
            "contract": "contracts/test/DebugPerpdexExchange.sol:DebugPerpdexExchange",
            "label": "cumQuotePerLiquidityX96",
            "offset": 0,
            "slot": "2",
            "type": "t_uint256"
          }
        ],
        "numberOfBytes": "96"
      },
      "t_struct(ProtocolInfo)8486_storage": {
        "encoding": "inplace",
        "label": "struct PerpdexStructs.ProtocolInfo",
        "members": [
          {
            "astId": 8485,
            "contract": "contracts/test/DebugPerpdexExchange.sol:DebugPerpdexExchange",
            "label": "protocolFee",
            "offset": 0,
            "slot": "0",
            "type": "t_uint256"
          }
        ],
        "numberOfBytes": "32"
      },
      "t_struct(TakerInfo)8454_storage": {
        "encoding": "inplace",
        "label": "struct PerpdexStructs.TakerInfo",
        "members": [
          {
            "astId": 8451,
            "contract": "contracts/test/DebugPerpdexExchange.sol:DebugPerpdexExchange",
            "label": "baseBalanceShare",
            "offset": 0,
            "slot": "0",
            "type": "t_int256"
          },
          {
            "astId": 8453,
            "contract": "contracts/test/DebugPerpdexExchange.sol:DebugPerpdexExchange",
            "label": "quoteBalance",
            "offset": 0,
            "slot": "1",
            "type": "t_int256"
          }
        ],
        "numberOfBytes": "64"
      },
      "t_struct(VaultInfo)8464_storage": {
        "encoding": "inplace",
        "label": "struct PerpdexStructs.VaultInfo",
        "members": [
          {
            "astId": 8463,
            "contract": "contracts/test/DebugPerpdexExchange.sol:DebugPerpdexExchange",
            "label": "collateralBalance",
            "offset": 0,
            "slot": "0",
            "type": "t_int256"
          }
        ],
        "numberOfBytes": "32"
      },
      "t_uint16": {
        "encoding": "inplace",
        "label": "uint16",
        "numberOfBytes": "2"
      },
      "t_uint24": {
        "encoding": "inplace",
        "label": "uint24",
        "numberOfBytes": "3"
      },
      "t_uint256": {
        "encoding": "inplace",
        "label": "uint256",
        "numberOfBytes": "32"
      },
      "t_uint8": {
        "encoding": "inplace",
        "label": "uint8",
        "numberOfBytes": "1"
      }
    }
  }
}