{
  "address": "0xe3bEEF33389c74567983659e6C40dfbf39998Fde",
  "abi": [
    {
      "inputs": [
        {
          "internalType": "string",
          "name": "symbolArg",
          "type": "string"
        },
        {
          "internalType": "address",
          "name": "exchangeArg",
          "type": "address"
        },
        {
          "internalType": "address",
          "name": "priceFeedBaseArg",
          "type": "address"
        },
        {
          "internalType": "address",
          "name": "priceFeedQuoteArg",
          "type": "address"
        }
      ],
      "stateMutability": "nonpayable",
      "type": "constructor"
    },
    {
      "anonymous": false,
      "inputs": [
        {
          "indexed": false,
          "internalType": "uint32",
          "name": "value",
          "type": "uint32"
        }
      ],
      "name": "FundingMaxElapsedSecChanged",
      "type": "event"
    },
    {
      "anonymous": false,
      "inputs": [
        {
          "indexed": false,
          "internalType": "uint24",
          "name": "value",
          "type": "uint24"
        }
      ],
      "name": "FundingMaxPremiumRatioChanged",
      "type": "event"
    },
    {
      "anonymous": false,
      "inputs": [
        {
          "indexed": false,
          "internalType": "int256",
          "name": "fundingRateX96",
          "type": "int256"
        }
      ],
      "name": "FundingPaid",
      "type": "event"
    },
    {
      "anonymous": false,
      "inputs": [
        {
          "indexed": false,
          "internalType": "uint32",
          "name": "value",
          "type": "uint32"
        }
      ],
      "name": "FundingRolloverSecChanged",
      "type": "event"
    },
    {
      "anonymous": false,
      "inputs": [
        {
          "indexed": false,
          "internalType": "uint256",
          "name": "base",
          "type": "uint256"
        },
        {
          "indexed": false,
          "internalType": "uint256",
          "name": "quote",
          "type": "uint256"
        },
        {
          "indexed": false,
          "internalType": "uint256",
          "name": "liquidity",
          "type": "uint256"
        }
      ],
      "name": "LiquidityAdded",
      "type": "event"
    },
    {
      "anonymous": false,
      "inputs": [
        {
          "indexed": false,
          "internalType": "uint256",
          "name": "base",
          "type": "uint256"
        },
        {
          "indexed": false,
          "internalType": "uint256",
          "name": "quote",
          "type": "uint256"
        },
        {
          "indexed": false,
          "internalType": "uint256",
          "name": "liquidity",
          "type": "uint256"
        }
      ],
      "name": "LiquidityRemoved",
      "type": "event"
    },
    {
      "anonymous": false,
      "inputs": [
        {
          "indexed": true,
          "internalType": "address",
          "name": "previousOwner",
          "type": "address"
        },
        {
          "indexed": true,
          "internalType": "address",
          "name": "newOwner",
          "type": "address"
        }
      ],
      "name": "OwnershipTransferred",
      "type": "event"
    },
    {
      "anonymous": false,
      "inputs": [
        {
          "indexed": false,
          "internalType": "uint24",
          "name": "value",
          "type": "uint24"
        }
      ],
      "name": "PoolFeeRatioChanged",
      "type": "event"
    },
    {
      "anonymous": false,
      "inputs": [
        {
          "indexed": false,
          "internalType": "bool",
          "name": "isBaseToQuote",
          "type": "bool"
        },
        {
          "indexed": false,
          "internalType": "bool",
          "name": "isExactInput",
          "type": "bool"
        },
        {
          "indexed": false,
          "internalType": "uint256",
          "name": "amount",
          "type": "uint256"
        },
        {
          "indexed": false,
          "internalType": "uint256",
          "name": "oppositeAmount",
          "type": "uint256"
        }
      ],
      "name": "Swapped",
      "type": "event"
    },
    {
      "inputs": [
        {
          "internalType": "uint256",
          "name": "baseShare",
          "type": "uint256"
        },
        {
          "internalType": "uint256",
          "name": "quoteBalance",
          "type": "uint256"
        }
      ],
      "name": "addLiquidity",
      "outputs": [
        {
          "internalType": "uint256",
          "name": "base",
          "type": "uint256"
        },
        {
          "internalType": "uint256",
          "name": "quote",
          "type": "uint256"
        },
        {
          "internalType": "uint256",
          "name": "liquidity",
          "type": "uint256"
        }
      ],
      "stateMutability": "nonpayable",
      "type": "function"
    },
    {
      "inputs": [],
      "name": "baseBalancePerShareX96",
      "outputs": [
        {
          "internalType": "uint256",
          "name": "",
          "type": "uint256"
        }
      ],
      "stateMutability": "view",
      "type": "function"
    },
    {
      "inputs": [],
      "name": "exchange",
      "outputs": [
        {
          "internalType": "address",
          "name": "",
          "type": "address"
        }
      ],
      "stateMutability": "view",
      "type": "function"
    },
    {
      "inputs": [],
      "name": "fundingInfo",
      "outputs": [
        {
          "internalType": "uint256",
          "name": "prevIndexPriceBase",
          "type": "uint256"
        },
        {
          "internalType": "uint256",
          "name": "prevIndexPriceQuote",
          "type": "uint256"
        },
        {
          "internalType": "uint256",
          "name": "prevIndexPriceTimestamp",
          "type": "uint256"
        }
      ],
      "stateMutability": "view",
      "type": "function"
    },
    {
      "inputs": [],
      "name": "fundingMaxElapsedSec",
      "outputs": [
        {
          "internalType": "uint32",
          "name": "",
          "type": "uint32"
        }
      ],
      "stateMutability": "view",
      "type": "function"
    },
    {
      "inputs": [],
      "name": "fundingMaxPremiumRatio",
      "outputs": [
        {
          "internalType": "uint24",
          "name": "",
          "type": "uint24"
        }
      ],
      "stateMutability": "view",
      "type": "function"
    },
    {
      "inputs": [],
      "name": "fundingRolloverSec",
      "outputs": [
        {
          "internalType": "uint32",
          "name": "",
          "type": "uint32"
        }
      ],
      "stateMutability": "view",
      "type": "function"
    },
    {
      "inputs": [],
      "name": "getCumDeleveragedPerLiquidityX96",
      "outputs": [
        {
          "internalType": "uint256",
          "name": "",
          "type": "uint256"
        },
        {
          "internalType": "uint256",
          "name": "",
          "type": "uint256"
        }
      ],
      "stateMutability": "view",
      "type": "function"
    },
    {
      "inputs": [
        {
          "internalType": "uint256",
          "name": "liquidity",
          "type": "uint256"
        },
        {
          "internalType": "uint256",
          "name": "cumDeleveragedBasePerLiquidityX96",
          "type": "uint256"
        },
        {
          "internalType": "uint256",
          "name": "cumDeleveragedQuotePerLiquidityX96",
          "type": "uint256"
        }
      ],
      "name": "getLiquidityDeleveraged",
      "outputs": [
        {
          "internalType": "uint256",
          "name": "",
          "type": "uint256"
        },
        {
          "internalType": "uint256",
          "name": "",
          "type": "uint256"
        }
      ],
      "stateMutability": "view",
      "type": "function"
    },
    {
      "inputs": [
        {
          "internalType": "uint256",
          "name": "liquidity",
          "type": "uint256"
        }
      ],
      "name": "getLiquidityValue",
      "outputs": [
        {
          "internalType": "uint256",
          "name": "",
          "type": "uint256"
        },
        {
          "internalType": "uint256",
          "name": "",
          "type": "uint256"
        }
      ],
      "stateMutability": "view",
      "type": "function"
    },
    {
      "inputs": [],
      "name": "getMarkPriceX96",
      "outputs": [
        {
          "internalType": "uint256",
          "name": "",
          "type": "uint256"
        }
      ],
      "stateMutability": "view",
      "type": "function"
    },
    {
      "inputs": [],
      "name": "getShareMarkPriceX96",
      "outputs": [
        {
          "internalType": "uint256",
          "name": "",
          "type": "uint256"
        }
      ],
      "stateMutability": "view",
      "type": "function"
    },
    {
      "inputs": [],
      "name": "owner",
      "outputs": [
        {
          "internalType": "address",
          "name": "",
          "type": "address"
        }
      ],
      "stateMutability": "view",
      "type": "function"
    },
    {
      "inputs": [],
      "name": "poolFeeRatio",
      "outputs": [
        {
          "internalType": "uint24",
          "name": "",
          "type": "uint24"
        }
      ],
      "stateMutability": "view",
      "type": "function"
    },
    {
      "inputs": [],
      "name": "poolInfo",
      "outputs": [
        {
          "internalType": "uint256",
          "name": "base",
          "type": "uint256"
        },
        {
          "internalType": "uint256",
          "name": "quote",
          "type": "uint256"
        },
        {
          "internalType": "uint256",
          "name": "totalLiquidity",
          "type": "uint256"
        },
        {
          "internalType": "uint256",
          "name": "cumDeleveragedBasePerLiquidityX96",
          "type": "uint256"
        },
        {
          "internalType": "uint256",
          "name": "cumDeleveragedQuotePerLiquidityX96",
          "type": "uint256"
        },
        {
          "internalType": "uint256",
          "name": "baseBalancePerShareX96",
          "type": "uint256"
        }
      ],
      "stateMutability": "view",
      "type": "function"
    },
    {
      "inputs": [],
      "name": "priceFeedBase",
      "outputs": [
        {
          "internalType": "address",
          "name": "",
          "type": "address"
        }
      ],
      "stateMutability": "view",
      "type": "function"
    },
    {
      "inputs": [],
      "name": "priceFeedQuote",
      "outputs": [
        {
          "internalType": "address",
          "name": "",
          "type": "address"
        }
      ],
      "stateMutability": "view",
      "type": "function"
    },
    {
      "inputs": [
        {
          "internalType": "uint256",
          "name": "liquidity",
          "type": "uint256"
        }
      ],
      "name": "removeLiquidity",
      "outputs": [
        {
          "internalType": "uint256",
          "name": "base",
          "type": "uint256"
        },
        {
          "internalType": "uint256",
          "name": "quote",
          "type": "uint256"
        }
      ],
      "stateMutability": "nonpayable",
      "type": "function"
    },
    {
      "inputs": [],
      "name": "renounceOwnership",
      "outputs": [],
      "stateMutability": "nonpayable",
      "type": "function"
    },
    {
      "inputs": [
        {
          "internalType": "uint32",
          "name": "value",
          "type": "uint32"
        }
      ],
      "name": "setFundingMaxElapsedSec",
      "outputs": [],
      "stateMutability": "nonpayable",
      "type": "function"
    },
    {
      "inputs": [
        {
          "internalType": "uint24",
          "name": "value",
          "type": "uint24"
        }
      ],
      "name": "setFundingMaxPremiumRatio",
      "outputs": [],
      "stateMutability": "nonpayable",
      "type": "function"
    },
    {
      "inputs": [
        {
          "internalType": "uint32",
          "name": "value",
          "type": "uint32"
        }
      ],
      "name": "setFundingRolloverSec",
      "outputs": [],
      "stateMutability": "nonpayable",
      "type": "function"
    },
    {
      "inputs": [
        {
          "internalType": "uint24",
          "name": "value",
          "type": "uint24"
        }
      ],
      "name": "setPoolFeeRatio",
      "outputs": [],
      "stateMutability": "nonpayable",
      "type": "function"
    },
    {
      "inputs": [
        {
          "internalType": "bool",
          "name": "isBaseToQuote",
          "type": "bool"
        },
        {
          "internalType": "bool",
          "name": "isExactInput",
          "type": "bool"
        },
        {
          "internalType": "uint256",
          "name": "amount",
          "type": "uint256"
        }
      ],
      "name": "swap",
      "outputs": [
        {
          "internalType": "uint256",
          "name": "oppositeAmount",
          "type": "uint256"
        }
      ],
      "stateMutability": "nonpayable",
      "type": "function"
    },
    {
      "inputs": [
        {
          "internalType": "bool",
          "name": "isBaseToQuote",
          "type": "bool"
        },
        {
          "internalType": "bool",
          "name": "isExactInput",
          "type": "bool"
        },
        {
          "internalType": "uint256",
          "name": "amount",
          "type": "uint256"
        }
      ],
      "name": "swapDry",
      "outputs": [
        {
          "internalType": "uint256",
          "name": "oppositeAmount",
          "type": "uint256"
        }
      ],
      "stateMutability": "view",
      "type": "function"
    },
    {
      "inputs": [],
      "name": "symbol",
      "outputs": [
        {
          "internalType": "string",
          "name": "",
          "type": "string"
        }
      ],
      "stateMutability": "view",
      "type": "function"
    },
    {
      "inputs": [
        {
          "internalType": "address",
          "name": "newOwner",
          "type": "address"
        }
      ],
      "name": "transferOwnership",
      "outputs": [],
      "stateMutability": "nonpayable",
      "type": "function"
    }
  ],
  "transactionHash": "0x1bcf744658a04a1ee886dee2316638e48d6b226f69317c13754b4992101fa910",
  "args": [
    "BTC",
    "0xb7b1cbBf913D60C6BB9E5839C68B2ff632CD9FC9",
    "0x3864c8A38ad0BD644DBF7b71Ba2443Ab07Eb534F",
    "0x486422E06cae127ED59998C52e7188dBED73d362"
  ],
  "numDeployments": 1,
  "solcInputHash": "31cf698bcbb2ad8bf502dd052515d9ed",
  "bytecode": "0x60e0604052600c8054610bb862ffffff199091161765ffffff00000019166427100000001763ffffffff60301b1916680151800000000000001763ffffffff60501b19166102a360571b1790553480156200005957600080fd5b5060405162002b0638038062002b06833981810160405260808110156200007f57600080fd5b8101908080516040519392919084640100000000821115620000a057600080fd5b908301906020820185811115620000b657600080fd5b8251640100000000811182820188101715620000d157600080fd5b82525081516020918201929091019080838360005b8381101562000100578181015183820152602001620000e6565b50505050905090810190601f1680156200012e5780820380516001836020036101000a031916815260200191505b506040908152602082015190820151606090920151600160009081559194509192506200015a62000321565b600180546001600160a01b0319166001600160a01b038316908117909155604051919250906000907f8be0079c531659141344cd1fd0a4f28419497f9722a3daafe3b4186f6b6457e0908290a3506001600160a01b0382161580620001d95750620001d9826001600160a01b03166200032560201b620012711760201c565b6200022b576040805162461bcd60e51b815260206004820152601d60248201527f504d5f433a2062617365207072696365206665656420696e76616c6964000000604482015290519081900360640190fd5b6001600160a01b03811615806200025c57506200025c816001600160a01b03166200032560201b620012711760201c565b620002ae576040805162461bcd60e51b815260206004820152601e60248201527f504d5f433a2071756f7465207072696365206665656420696e76616c69640000604482015290519081900360640190fd5b8351620002c39060029060208701906200034a565b50606083811b6001600160601b031990811660805283821b811660a0529082901b1660c0526200030060096200032b602090811b6200127b17901c565b6200031760036200033460201b620012841760201c565b50505050620003f6565b3390565b3b151590565b42600290910155565b6c01000000000000000000000000600590910155565b828054600181600116156101000203166002900490600052602060002090601f016020900481019282620003825760008555620003cd565b82601f106200039d57805160ff1916838001178555620003cd565b82800160010185558215620003cd579182015b82811115620003cd578251825591602001919060010190620003b0565b50620003db929150620003df565b5090565b5b80821115620003db5760008155600101620003e0565b60805160601c60a05160601c60c05160601c6126b76200044f600039806106655280610f2c52806114c0525080610c135280610f0b52806114915250806106c55280610d1c5280610e4b528061113652506126b76000f3fe608060405234801561001057600080fd5b50600436106101795760003560e01c8063823f2b04116100d95780639c8f9f23116100875780639c8f9f231461040f5780639cd441da1461042c5780639d67bf031461046d578063d2f7265a14610490578063dba4915314610498578063f2289752146104a0578063f2fde38b146104a857610179565b8063823f2b041461034157806388e27dfb146103495780638da5cb5b146103515780638ee8fe5d14610359578063933c7979146103615780639482de1a1461038a57806395d89b411461039257610179565b8063630e375f11610136578063630e375f14610281578063715018a6146102ae5780637452fadd146102b657806374f25689146102be5780637640482f146102e05780637661ce1314610316578063796c20b71461031e57610179565b8063017dab941461017e57806301e0df12146101bd5780630e06e4d0146101e1578063186f181e146102055780633aa3e650146102265780635a2f3d0914610246575b600080fd5b6101ab6004803603606081101561019457600080fd5b5080351515906020810135151590604001356104ce565b60408051918252519081900360200190f35b6101df600480360360208110156101d357600080fd5b503562ffffff16610514565b005b6101e9610663565b604080516001600160a01b039092168252519081900360200190f35b61020d610687565b6040805163ffffffff9092168252519081900360200190f35b61022e61069a565b6040805162ffffff9092168252519081900360200190f35b61024e6106ac565b604080519687526020870195909552858501939093526060850191909152608084015260a0830152519081900360c00190f35b6101ab6004803603606081101561029757600080fd5b5080351515906020810135151590604001356106c1565b6101df610811565b6101ab6108bd565b6101df600480360360208110156102d457600080fd5b503562ffffff166108d9565b6102fd600480360360208110156102f657600080fd5b5035610a36565b6040805192835260208301919091528051918290030190f35b61020d610a4d565b6101df6004803603602081101561033457600080fd5b503563ffffffff16610a60565b6101e9610c11565b61022e610c35565b6101e9610c40565b6101ab610c4f565b6102fd6004803603606081101561037757600080fd5b5080359060208101359060400135610c61565b6101ab610c86565b61039a610c8c565b6040805160208082528351818301528351919283929083019185019080838360005b838110156103d45781810151838201526020016103bc565b50505050905090810190601f1680156104015780820380516001836020036101000a031916815260200191505b509250505060405180910390f35b6102fd6004803603602081101561042557600080fd5b5035610d17565b61044f6004803603604081101561044257600080fd5b5080359060200135610e45565b60408051938452602084019290925282820152519081900360600190f35b6101df6004803603602081101561048357600080fd5b503563ffffffff16610fd1565b6101e9611134565b61044f611158565b6102fd611164565b6101df600480360360208110156104be57600080fd5b50356001600160a01b031661116e565b6003546004546040805160808101825286151581528515156020820152908101849052600c5462ffffff16606082015260009261050c929091611291565b949350505050565b61051c6113a1565b6001600160a01b031661052d610c40565b6001600160a01b031614610576576040805162461bcd60e51b81526020600482018190526024820152600080516020612616833981519152604482015290519081900360640190fd5b600260005414156105bc576040805162461bcd60e51b815260206004820152601f602482015260008051602061258f833981519152604482015290519081900360640190fd5b600260005561c35062ffffff82161115610612576040805162461bcd60e51b8152602060048201526012602482015271504d5f535046523a20746f6f206c6172676560701b604482015290519081900360640190fd5b600c805462ffffff831662ffffff19909116811790915560408051918252517ff02c81debd01d238f7814ac27bec8a7970b5271dc47842a419737b1ae313ca0f9181900360200190a1506001600055565b7f000000000000000000000000000000000000000000000000000000000000000081565b600c54600160501b900463ffffffff1681565b600c546301000000900462ffffff1681565b60035460045460055460065460075460085486565b60007f00000000000000000000000000000000000000000000000000000000000000006001600160a01b0316331461072e576040805162461bcd60e51b815260206004820152601d60248201526000805160206125d5833981519152604482015290519081900360640190fd5b60026000541415610774576040805162461bcd60e51b815260206004820152601f602482015260008051602061258f833981519152604482015290519081900360640190fd5b60026000556040805160808101825285151581528415156020820152908101839052600c5462ffffff1660608201526107af906003906113a5565b60408051861515815285151560208201528082018590526060810183905290519192507fdedf81f778c63a97f5a04bfeae9e0e04f18d283b04d930ea7b6af78b6eb50b76919081900360800190a161080561147d565b60016000559392505050565b6108196113a1565b6001600160a01b031661082a610c40565b6001600160a01b031614610873576040805162461bcd60e51b81526020600482018190526024820152600080516020612616833981519152604482015290519081900360640190fd5b6001546040516000916001600160a01b0316907f8be0079c531659141344cd1fd0a4f28419497f9722a3daafe3b4186f6b6457e0908390a3600180546001600160a01b0319169055565b6003546004546008546000926108d4929091611581565b905090565b6108e16113a1565b6001600160a01b03166108f2610c40565b6001600160a01b03161461093b576040805162461bcd60e51b81526020600482018190526024820152600080516020612616833981519152604482015290519081900360640190fd5b60026000541415610981576040805162461bcd60e51b815260206004820152601f602482015260008051602061258f833981519152604482015290519081900360640190fd5b6002600055620186a062ffffff821611156109d9576040805162461bcd60e51b8152602060048201526013602482015272504d5f53464d50523a20746f6f206c6172676560681b604482015290519081900360640190fd5b600c805462ffffff83166301000000810265ffffff000000199092169190911790915560408051918252517f55647f4dd43ac173f04e53a506df46454012316d82fb04a9c1dbd8e0f21f8f769181900360200190a1506001600055565b600080610a446003846115a2565b91509150915091565b600c54600160301b900463ffffffff1681565b610a686113a1565b6001600160a01b0316610a79610c40565b6001600160a01b031614610ac2576040805162461bcd60e51b81526020600482018190526024820152600080516020612616833981519152604482015290519081900360640190fd5b60026000541415610b08576040805162461bcd60e51b815260206004820152601f602482015260008051602061258f833981519152604482015290519081900360640190fd5b600260005562093a8063ffffffff82161115610b60576040805162461bcd60e51b8152602060048201526012602482015271504d5f534652533a20746f6f206c6172676560701b604482015290519081900360640190fd5b610e108163ffffffff161015610bb2576040805162461bcd60e51b8152602060048201526012602482015271141357d4d19494ce881d1bdbc81cdb585b1b60721b604482015290519081900360640190fd5b600c805463ffffffff8316600160501b810263ffffffff60501b199092169190911790915560408051918252517fa703b265f29064a106acd6473c258e009bff9ac0bfd63b6f5ca4b712a25c85169181900360200190a1506001600055565b7f000000000000000000000000000000000000000000000000000000000000000081565b600c5462ffffff1681565b6001546001600160a01b031690565b6003546004546000916108d4916115d6565b600080610c7a60038001546003600401548787876115e7565b91509150935093915050565b60085490565b6002805460408051602060018416156101000260001901909316849004601f81018490048402820184019092528181529291830182828015610d0f5780601f10610ce457610100808354040283529160200191610d0f565b820191906000526020600020905b815481529060010190602001808311610cf257829003601f168201915b505050505081565b6000807f00000000000000000000000000000000000000000000000000000000000000006001600160a01b03163314610d85576040805162461bcd60e51b815260206004820152601d60248201526000805160206125d5833981519152604482015290519081900360640190fd5b60026000541415610dcb576040805162461bcd60e51b815260206004820152601f602482015260008051602061258f833981519152604482015290519081900360640190fd5b60026000556040805160208101909152838152610dea90600390611633565b604080518381526020810183905280820187905290519294509092507f0bb89aa54ed6940a7e7167bd262b2400d63945045ceff1a52a05f2601ed215f1919081900360600190a1610e3961147d565b60016000559092909150565b600080807f00000000000000000000000000000000000000000000000000000000000000006001600160a01b03163314610eb4576040805162461bcd60e51b815260206004820152601d60248201526000805160206125d5833981519152604482015290519081900360640190fd5b60026000541415610efa576040805162461bcd60e51b815260206004820152601f602482015260008051602061258f833981519152604482015290519081900360640190fd5b6002600055600554610f5257610f527f00000000000000000000000000000000000000000000000000000000000000007f000000000000000000000000000000000000000000000000000000000000000087876116fb565b610f71600360405180604001604052808881526020018781525061181f565b6040805184815260208101849052808201839052905193965091945092507fd7f28048575eead8851d024ead087913957dfb4fd1a02b4d1573f5352a5a2be3919081900360600190a1610fc261147d565b60016000819055509250925092565b610fd96113a1565b6001600160a01b0316610fea610c40565b6001600160a01b031614611033576040805162461bcd60e51b81526020600482018190526024820152600080516020612616833981519152604482015290519081900360640190fd5b60026000541415611079576040805162461bcd60e51b815260206004820152601f602482015260008051602061258f833981519152604482015290519081900360640190fd5b600260005562093a8063ffffffff821611156110d2576040805162461bcd60e51b8152602060048201526013602482015272504d5f53464d45533a20746f6f206c6172676560681b604482015290519081900360640190fd5b600c805463ffffffff8316600160301b810269ffffffff000000000000199092169190911790915560408051918252517f5b18da8898c1e492e6bc631eec59d143ebba7f31ca794b668f0bfa9b0d9892939181900360200190a1506001600055565b7f000000000000000000000000000000000000000000000000000000000000000081565b600954600a54600b5483565b6006546007549091565b6111766113a1565b6001600160a01b0316611187610c40565b6001600160a01b0316146111d0576040805162461bcd60e51b81526020600482018190526024820152600080516020612616833981519152604482015290519081900360640190fd5b6001600160a01b0381166112155760405162461bcd60e51b81526004018080602001828103825260268152602001806125af6026913960400191505060405180910390fd5b6001546040516001600160a01b038084169216907f8be0079c531659141344cd1fd0a4f28419497f9722a3daafe3b4186f6b6457e090600090a3600180546001600160a01b0319166001600160a01b0392909216919091179055565b803b15155b919050565b42600290910155565b600160601b600590910155565b60608101516020820151600091620f424001901561130c5760408301516000906112bb9083611992565b8451909150156112ea576112e36112dc87876112d782866119a7565b611a01565b8690611a3b565b9250611306565b6113036112fc87876112d781866119a7565b8790611a3b565b92505b50611370565b825115611340576113398561133387876112d788604001518a611a3b90919063ffffffff16565b90611a3b565b9150611363565b6113608461133387876112d788604001518b611a3b90919063ffffffff16565b91505b61136d8282611a98565b91505b600082116113995760405162461bcd60e51b815260040161139090612465565b60405180910390fd5b509392505050565b3390565b6000806113bb8460000154856001015485611291565b9050826020015115611425578251156113f957604083015184546113de916119a7565b845560018401546113ef9082611a3b565b6001850155611420565b83546114059082611a3b565b84556040830151600185015461141a916119a7565b60018501555b611474565b82511561144d57835461143890826119a7565b84556040830151600185015461141a91611a3b565b6040830151845461145d91611a3b565b8455600184015461146e90826119a7565b60018501555b90505b92915050565b600061153260096040518060c001604052807f00000000000000000000000000000000000000000000000000000000000000006001600160a01b031681526020017f00000000000000000000000000000000000000000000000000000000000000006001600160a01b031681526020016114f56108bd565b8152600c5462ffffff6301000000820416602083015263ffffffff600160301b820481166040840152600160501b90910416606090910152611aad565b90508061153f575061157f565b61154a600382611c20565b6040805182815290517f17fe63f809d31aafb4dd2ddd369caefb907bcce929adc2847faa6e06f729ac519181900360200190a1505b565b600061050c61159085856115d6565b600160601b84611d32565b9392505050565b6000806115b88385600001548660020154611d32565b6115cb8486600101548760020154611d32565b915091509250929050565b600061147482600160601b85611d32565b600080806115f58886611a3b565b905060006116038886611a3b565b90506116148783600160601b611d32565b6116238883600160601b611d32565b9350935050509550959350505050565b81546001830154600284015483516000938493909290918490611657908584611d32565b9050600061166a88600001518585611d32565b905060008211801561167c5750600081115b6116985760405162461bcd60e51b8152600401611390906124f9565b6116a28583611a3b565b89556116ae8482611a3b565b60018a015587516000906116c3908590611a3b565b90506103e88110156116e75760405162461bcd60e51b815260040161139090612494565b60028a015590955093505050509250929050565b600061170685611de1565b9050600061171385611de1565b9050600082116117355760405162461bcd60e51b815260040161139090612557565b600081116117555760405162461bcd60e51b8152600401611390906123c0565b600061176087611eb1565b9050600061176d87611eb1565b9050604d60ff831611156117935760405162461bcd60e51b815260040161139090612389565b604d60ff821611156117b75760405162461bcd60e51b81526004016113909061242e565b60006117c886600160601b89611d32565b905060006117d98484888886611f78565b90506117ec600160601b620186a0611a98565b6117f582611ff5565b11156118135760405162461bcd60e51b8152600401611390906123f7565b50505050505050505050565b60028201546000908190819081816118c0576020860151865160009161184d9161184891612019565b612072565b905061185b816103e8611a3b565b875190925015801590611872575060008760200151115b801561187e5750600082115b61189a5760405162461bcd60e51b815260040161139090612352565b8651808955602088015160018a0181905560028a019290925595509350915061198b9050565b86546001880154875160208901516000916118e5916118e0908686611d32565b6120c3565b905060006119008a602001516118e08c600001518688611d32565b905061191b611910838887611d32565b6118e0838987611d32565b945060008211801561192d5750600081115b80156119395750600085115b6119555760405162461bcd60e51b815260040161139090612528565b61195f84836119a7565b8b5561196b83826119a7565b60018c015561197a86866119a7565b60028c015590975095509193505050505b9250925092565b600061147483620f42408462ffffff16611d32565b600082820183811015611474576040805162461bcd60e51b815260206004820152601b60248201527f536166654d6174683a206164646974696f6e206f766572666c6f770000000000604482015290519081900360640190fd5b6000611a0e848484611d32565b905060008280611a1a57fe5b848609111561159b576000198110611a3157600080fd5b6001019392505050565b600082821115611a92576040805162461bcd60e51b815260206004820152601e60248201527f536166654d6174683a207375627472616374696f6e206f766572666c6f770000604482015290519081900360640190fd5b50900390565b6000611474838362ffffff16620f4240611d32565b600282015460009042908290611ac4908390611a3b565b905080611ad657600092505050611477565b6000611ae58560000151611de1565b90506000611af68660200151611de1565b90506000611b078760000151611eb1565b90506000611b188860200151611eb1565b895490915084148015611b2e5750828960010154145b80611b37575083155b80611b40575082155b80611b4e5750604d60ff8316115b80611b5c5750604d60ff8216115b15611b705760009650505050505050611477565b611b8485896080015163ffffffff166120c3565b94506000611b99838387878d60400151611f78565b90506000611bc0611bbb8b60600151600160601b611a9890919063ffffffff16565b6120d9565b9050611bda611bcf8284612121565b600083900390612130565b9150611c03611be8886120d9565b8b60a0015163ffffffff16846121409092919063ffffffff16565b958b55505050506001870155600286019290925550905092915050565b80611c2a57611d2e565b6000811315611c935760018201546000611c5182611c4785611ff5565b600160601b611d32565b9050611c5d8282611a3b565b8460010181905550611c86611c7b82600160601b8760020154611d32565b6004860154906119a7565b600485015550611d019050565b81546000611cc6611cbf83600160601b611cba611caf88611ff5565b600160601b906119a7565b611d32565b8390611a3b565b9050611cd28282611a3b565b84556002840154611cf990611cee908390600160601b90611d32565b6003860154906119a7565b600385015550505b611d288260050154611c47611d2384611d1d600160601b6120d9565b906121e4565b612249565b60058301555b5050565b6000808060001985870986860292508281109083900303905080611d685760008411611d5d57600080fd5b50829004905061159b565b808411611d7457600080fd5b6000848688096000868103871696879004966002600389028118808a02820302808a02820302808a02820302808a02820302808a02820302808a02909103029181900381900460010186841190950394909402919094039290920491909117919091029150509392505050565b60006001600160a01b038216611df957506001611276565b60408051600481526024810182526020810180516001600160e01b0316634c6afee560e11b179052905160009081906001600160a01b03861690611e3e908590612319565b600060405180830381855afa9150503d8060008114611e79576040519150601f19603f3d011682016040523d82523d6000602084013e611e7e565b606091505b509150915081611e945760009350505050611276565b80806020019051810190611ea891906122e0565b95945050505050565b60006001600160a01b038216611ec957506000611276565b60408051600481526024810182526020810180516001600160e01b031663313ce56760e01b179052905160009081906001600160a01b03861690611f0e908590612319565b600060405180830381855afa9150503d8060008114611f49576040519150601f19603f3d011682016040523d82523d6000602084013e611f4e565b606091505b509150915081611f645760ff9350505050611276565b80806020019051810190611ea891906122f8565b60008160ff8716151580611f8d575084600114155b15611fa657611fa3818860ff16600a0a87611d32565b90505b60ff8616151580611fb8575083600114155b15611fd157611fce81858860ff16600a0a611d32565b90505b611fea611fe1600160601b6120d9565b611d1d836120d9565b979650505050505050565b6000808212156120105761200b611d23836122a0565b611477565b61147782612249565b60008261202857506000611477565b8282028284828161203557fe5b04146114745760405162461bcd60e51b81526004018080602001828103825260218152602001806125f56021913960400191505060405180910390fd5b600060038211156120b5575080600160028204015b818110156120af5780915060028182858161209e57fe5b0401816120a757fe5b049050612087565b50611276565b811561127657506001919050565b60008183106120d25781611474565b5090919050565b6000600160ff1b821061211d5760405162461bcd60e51b81526004018080602001828103825260288152602001806126366028913960400191505060405180910390fd5b5090565b60008183126120d25781611474565b6000818312156120d25781611474565b60008060008512612151578461215a565b61215a856122a0565b9050600080851261216b5784612174565b612174856122a0565b9050600080871280156121875750600086135b8061219d575060008713801561219d5750600086125b6121a85760006121ab565b60015b905060006121ba848488611d32565b9050816121cf576121ca816120d9565b6121d8565b6121d8816122cc565b98975050505050505050565b60008183038183128015906121f95750838113155b8061220e575060008312801561220e57508381135b6114745760405162461bcd60e51b815260040180806020018281038252602481526020018061265e6024913960400191505060405180910390fd5b60008082121561211d576040805162461bcd60e51b815260206004820181905260248201527f53616665436173743a2076616c7565206d75737420626520706f736974697665604482015290519081900360640190fd5b6000600160ff1b82136122c55760405162461bcd60e51b8152600401611390906124c2565b5060000390565b60006122d7826120d9565b60000392915050565b6000602082840312156122f1578081fd5b5051919050565b600060208284031215612309578081fd5b815160ff81168114611474578182fd5b60008251815b81811015612339576020818601810151858301520161231f565b818111156123475782828501525b509190910192915050565b6020808252601d908201527f504c5f414c3a20696e697469616c206c6971756964697479207a65726f000000604082015260600190565b6020808252601e908201527f464c5f56494c503a20696e76616c6964206261736520646563696d616c730000604082015260600190565b6020808252601c908201527f464c5f56494c503a20696e76616c69642071756f746520707269636500000000604082015260600190565b6020808252601b908201527f464c5f56494c503a20746f6f206661722066726f6d20696e6465780000000000604082015260600190565b6020808252601f908201527f464c5f56494c503a20696e76616c69642071756f746520646563696d616c7300604082015260600190565b602080825260159082015274504c5f53443a206f7574707574206973207a65726f60581b604082015260600190565b602080825260149082015273504c5f524c3a206d696e206c697175696469747960601b604082015260600190565b6020808252601c908201527f506572704d6174683a20696e76657273696f6e206f766572666c6f7700000000604082015260600190565b602080825260159082015274504c5f524c3a206f7574707574206973207a65726f60581b604082015260600190565b602080825260159082015274504c5f414c3a206c6971756964697479207a65726f60581b604082015260600190565b6020808252601b908201527f464c5f56494c503a20696e76616c69642062617365207072696365000000000060408201526060019056fe5265656e7472616e637947756172643a207265656e7472616e742063616c6c004f776e61626c653a206e6577206f776e657220697320746865207a65726f2061646472657373504d5f4f453a2063616c6c6572206973206e6f742065786368616e6765000000536166654d6174683a206d756c7469706c69636174696f6e206f766572666c6f774f776e61626c653a2063616c6c6572206973206e6f7420746865206f776e657253616665436173743a2076616c756520646f65736e27742066697420696e20616e20696e743235365369676e6564536166654d6174683a207375627472616374696f6e206f766572666c6f77a26469706673582212207cff940d4f79a44541194df9bc7743f8d5b14cc40dbfb906660a39c5dc2db85264736f6c63430007060033",
  "devdoc": {
    "kind": "dev",
    "methods": {
      "owner()": {
        "details": "Returns the address of the current owner."
      },
      "renounceOwnership()": {
        "details": "Leaves the contract without owner. It will not be possible to call `onlyOwner` functions anymore. Can only be called by the current owner. NOTE: Renouncing ownership will leave the contract without an owner, thereby removing any functionality that is only available to the owner."
      },
      "transferOwnership(address)": {
        "details": "Transfers ownership of the contract to a new account (`newOwner`). Can only be called by the current owner."
      }
    },
    "version": 1
  },
  "userdoc": {
    "kind": "user",
    "methods": {},
    "version": 1
  },
  "storageLayout": {
    "storage": [
      {
        "astId": 2932,
        "contract": "contracts/PerpdexMarket.sol:PerpdexMarket",
        "label": "_status",
        "offset": 0,
        "slot": "0",
        "type": "t_uint256"
      },
      {
        "astId": 290,
        "contract": "contracts/PerpdexMarket.sol:PerpdexMarket",
        "label": "_owner",
        "offset": 0,
        "slot": "1",
        "type": "t_address"
      },
      {
        "astId": 4631,
        "contract": "contracts/PerpdexMarket.sol:PerpdexMarket",
        "label": "symbol",
        "offset": 0,
        "slot": "2",
        "type": "t_string_storage"
      },
      {
        "astId": 4640,
        "contract": "contracts/PerpdexMarket.sol:PerpdexMarket",
        "label": "poolInfo",
        "offset": 0,
        "slot": "3",
        "type": "t_struct(PoolInfo)7631_storage"
      },
      {
        "astId": 4642,
        "contract": "contracts/PerpdexMarket.sol:PerpdexMarket",
        "label": "fundingInfo",
        "offset": 0,
        "slot": "9",
        "type": "t_struct(FundingInfo)7618_storage"
      },
      {
        "astId": 4645,
        "contract": "contracts/PerpdexMarket.sol:PerpdexMarket",
        "label": "poolFeeRatio",
        "offset": 0,
        "slot": "12",
        "type": "t_uint24"
      },
      {
        "astId": 4648,
        "contract": "contracts/PerpdexMarket.sol:PerpdexMarket",
        "label": "fundingMaxPremiumRatio",
        "offset": 3,
        "slot": "12",
        "type": "t_uint24"
      },
      {
        "astId": 4651,
        "contract": "contracts/PerpdexMarket.sol:PerpdexMarket",
        "label": "fundingMaxElapsedSec",
        "offset": 6,
        "slot": "12",
        "type": "t_uint32"
      },
      {
        "astId": 4654,
        "contract": "contracts/PerpdexMarket.sol:PerpdexMarket",
        "label": "fundingRolloverSec",
        "offset": 10,
        "slot": "12",
        "type": "t_uint32"
      }
    ],
    "types": {
      "t_address": {
        "encoding": "inplace",
        "label": "address",
        "numberOfBytes": "20"
      },
      "t_string_storage": {
        "encoding": "bytes",
        "label": "string",
        "numberOfBytes": "32"
      },
      "t_struct(FundingInfo)7618_storage": {
        "encoding": "inplace",
        "label": "struct MarketStructs.FundingInfo",
        "members": [
          {
            "astId": 7613,
            "contract": "contracts/PerpdexMarket.sol:PerpdexMarket",
            "label": "prevIndexPriceBase",
            "offset": 0,
            "slot": "0",
            "type": "t_uint256"
          },
          {
            "astId": 7615,
            "contract": "contracts/PerpdexMarket.sol:PerpdexMarket",
            "label": "prevIndexPriceQuote",
            "offset": 0,
            "slot": "1",
            "type": "t_uint256"
          },
          {
            "astId": 7617,
            "contract": "contracts/PerpdexMarket.sol:PerpdexMarket",
            "label": "prevIndexPriceTimestamp",
            "offset": 0,
            "slot": "2",
            "type": "t_uint256"
          }
        ],
        "numberOfBytes": "96"
      },
      "t_struct(PoolInfo)7631_storage": {
        "encoding": "inplace",
        "label": "struct MarketStructs.PoolInfo",
        "members": [
          {
            "astId": 7620,
            "contract": "contracts/PerpdexMarket.sol:PerpdexMarket",
            "label": "base",
            "offset": 0,
            "slot": "0",
            "type": "t_uint256"
          },
          {
            "astId": 7622,
            "contract": "contracts/PerpdexMarket.sol:PerpdexMarket",
            "label": "quote",
            "offset": 0,
            "slot": "1",
            "type": "t_uint256"
          },
          {
            "astId": 7624,
            "contract": "contracts/PerpdexMarket.sol:PerpdexMarket",
            "label": "totalLiquidity",
            "offset": 0,
            "slot": "2",
            "type": "t_uint256"
          },
          {
            "astId": 7626,
            "contract": "contracts/PerpdexMarket.sol:PerpdexMarket",
            "label": "cumDeleveragedBasePerLiquidityX96",
            "offset": 0,
            "slot": "3",
            "type": "t_uint256"
          },
          {
            "astId": 7628,
            "contract": "contracts/PerpdexMarket.sol:PerpdexMarket",
            "label": "cumDeleveragedQuotePerLiquidityX96",
            "offset": 0,
            "slot": "4",
            "type": "t_uint256"
          },
          {
            "astId": 7630,
            "contract": "contracts/PerpdexMarket.sol:PerpdexMarket",
            "label": "baseBalancePerShareX96",
            "offset": 0,
            "slot": "5",
            "type": "t_uint256"
          }
        ],
        "numberOfBytes": "192"
      },
      "t_uint24": {
        "encoding": "inplace",
        "label": "uint24",
        "numberOfBytes": "3"
      },
      "t_uint256": {
        "encoding": "inplace",
        "label": "uint256",
        "numberOfBytes": "32"
      },
      "t_uint32": {
        "encoding": "inplace",
        "label": "uint32",
        "numberOfBytes": "4"
      }
    }
  }
}