{
  "address": "0xd2dcEC5bA4Cb81b8A04B5494E19739Dba017cAd0",
  "abi": [
    {
      "inputs": [
        {
          "internalType": "address",
          "name": "settlementTokenArg",
          "type": "address"
        }
      ],
      "stateMutability": "nonpayable",
      "type": "constructor"
    },
    {
      "anonymous": false,
      "inputs": [
        {
          "indexed": true,
          "internalType": "address",
          "name": "trader",
          "type": "address"
        },
        {
          "indexed": false,
          "internalType": "uint256",
          "name": "amount",
          "type": "uint256"
        }
      ],
      "name": "Deposited",
      "type": "event"
    },
    {
      "anonymous": false,
      "inputs": [
        {
          "indexed": false,
          "internalType": "uint24",
          "name": "value",
          "type": "uint24"
        }
      ],
      "name": "ImRatioChanged",
      "type": "event"
    },
    {
      "anonymous": false,
      "inputs": [
        {
          "indexed": true,
          "internalType": "address",
          "name": "trader",
          "type": "address"
        },
        {
          "indexed": false,
          "internalType": "uint256",
          "name": "amount",
          "type": "uint256"
        }
      ],
      "name": "InsuranceFundTransferred",
      "type": "event"
    },
    {
      "anonymous": false,
      "inputs": [
        {
          "indexed": true,
          "internalType": "address",
          "name": "market",
          "type": "address"
        },
        {
          "indexed": false,
          "internalType": "bool",
          "name": "isMarketAllowed",
          "type": "bool"
        }
      ],
      "name": "IsMarketAllowedChanged",
      "type": "event"
    },
    {
      "anonymous": false,
      "inputs": [
        {
          "indexed": false,
          "internalType": "uint24",
          "name": "rewardRatio",
          "type": "uint24"
        },
        {
          "indexed": false,
          "internalType": "uint16",
          "name": "smoothEmaTime",
          "type": "uint16"
        }
      ],
      "name": "LiquidationRewardConfigChanged",
      "type": "event"
    },
    {
      "anonymous": false,
      "inputs": [
        {
          "indexed": true,
          "internalType": "address",
          "name": "trader",
          "type": "address"
        },
        {
          "indexed": true,
          "internalType": "address",
          "name": "market",
          "type": "address"
        },
        {
          "indexed": false,
          "internalType": "uint256",
          "name": "base",
          "type": "uint256"
        },
        {
          "indexed": false,
          "internalType": "uint256",
          "name": "quote",
          "type": "uint256"
        },
        {
          "indexed": false,
          "internalType": "uint256",
          "name": "liquidity",
          "type": "uint256"
        },
        {
          "indexed": false,
          "internalType": "uint256",
          "name": "cumBasePerLiquidityX96",
          "type": "uint256"
        },
        {
          "indexed": false,
          "internalType": "uint256",
          "name": "cumQuotePerLiquidityX96",
          "type": "uint256"
        },
        {
          "indexed": false,
          "internalType": "uint256",
          "name": "baseBalancePerShareX96",
          "type": "uint256"
        },
        {
          "indexed": false,
          "internalType": "uint256",
          "name": "sharePriceAfterX96",
          "type": "uint256"
        }
      ],
      "name": "LiquidityAdded",
      "type": "event"
    },
    {
      "anonymous": false,
      "inputs": [
        {
          "indexed": true,
          "internalType": "address",
          "name": "trader",
          "type": "address"
        },
        {
          "indexed": true,
          "internalType": "address",
          "name": "market",
          "type": "address"
        },
        {
          "indexed": false,
          "internalType": "address",
          "name": "liquidator",
          "type": "address"
        },
        {
          "indexed": false,
          "internalType": "uint256",
          "name": "base",
          "type": "uint256"
        },
        {
          "indexed": false,
          "internalType": "uint256",
          "name": "quote",
          "type": "uint256"
        },
        {
          "indexed": false,
          "internalType": "uint256",
          "name": "liquidity",
          "type": "uint256"
        },
        {
          "indexed": false,
          "internalType": "int256",
          "name": "takerBase",
          "type": "int256"
        },
        {
          "indexed": false,
          "internalType": "int256",
          "name": "takerQuote",
          "type": "int256"
        },
        {
          "indexed": false,
          "internalType": "int256",
          "name": "realizedPnl",
          "type": "int256"
        },
        {
          "indexed": false,
          "internalType": "uint256",
          "name": "baseBalancePerShareX96",
          "type": "uint256"
        },
        {
          "indexed": false,
          "internalType": "uint256",
          "name": "sharePriceAfterX96",
          "type": "uint256"
        }
      ],
      "name": "LiquidityRemoved",
      "type": "event"
    },
    {
      "anonymous": false,
      "inputs": [
        {
          "indexed": false,
          "internalType": "uint8",
          "name": "value",
          "type": "uint8"
        }
      ],
      "name": "MaxMarketsPerAccountChanged",
      "type": "event"
    },
    {
      "anonymous": false,
      "inputs": [
        {
          "indexed": false,
          "internalType": "uint24",
          "name": "value",
          "type": "uint24"
        }
      ],
      "name": "MmRatioChanged",
      "type": "event"
    },
    {
      "anonymous": false,
      "inputs": [
        {
          "indexed": true,
          "internalType": "address",
          "name": "previousOwner",
          "type": "address"
        },
        {
          "indexed": true,
          "internalType": "address",
          "name": "newOwner",
          "type": "address"
        }
      ],
      "name": "OwnershipTransferred",
      "type": "event"
    },
    {
      "anonymous": false,
      "inputs": [
        {
          "indexed": true,
          "internalType": "address",
          "name": "trader",
          "type": "address"
        },
        {
          "indexed": true,
          "internalType": "address",
          "name": "market",
          "type": "address"
        },
        {
          "indexed": false,
          "internalType": "int256",
          "name": "base",
          "type": "int256"
        },
        {
          "indexed": false,
          "internalType": "int256",
          "name": "quote",
          "type": "int256"
        },
        {
          "indexed": false,
          "internalType": "int256",
          "name": "realizedPnl",
          "type": "int256"
        },
        {
          "indexed": false,
          "internalType": "uint256",
          "name": "protocolFee",
          "type": "uint256"
        },
        {
          "indexed": false,
          "internalType": "uint256",
          "name": "baseBalancePerShareX96",
          "type": "uint256"
        },
        {
          "indexed": false,
          "internalType": "uint256",
          "name": "sharePriceAfterX96",
          "type": "uint256"
        }
      ],
      "name": "PositionChanged",
      "type": "event"
    },
    {
      "anonymous": false,
      "inputs": [
        {
          "indexed": true,
          "internalType": "address",
          "name": "trader",
          "type": "address"
        },
        {
          "indexed": true,
          "internalType": "address",
          "name": "market",
          "type": "address"
        },
        {
          "indexed": true,
          "internalType": "address",
          "name": "liquidator",
          "type": "address"
        },
        {
          "indexed": false,
          "internalType": "int256",
          "name": "base",
          "type": "int256"
        },
        {
          "indexed": false,
          "internalType": "int256",
          "name": "quote",
          "type": "int256"
        },
        {
          "indexed": false,
          "internalType": "int256",
          "name": "realizedPnl",
          "type": "int256"
        },
        {
          "indexed": false,
          "internalType": "uint256",
          "name": "protocolFee",
          "type": "uint256"
        },
        {
          "indexed": false,
          "internalType": "uint256",
          "name": "baseBalancePerShareX96",
          "type": "uint256"
        },
        {
          "indexed": false,
          "internalType": "uint256",
          "name": "sharePriceAfterX96",
          "type": "uint256"
        },
        {
          "indexed": false,
          "internalType": "uint256",
          "name": "liquidationPenalty",
          "type": "uint256"
        },
        {
          "indexed": false,
          "internalType": "uint256",
          "name": "liquidationReward",
          "type": "uint256"
        },
        {
          "indexed": false,
          "internalType": "uint256",
          "name": "insuranceFundReward",
          "type": "uint256"
        }
      ],
      "name": "PositionLiquidated",
      "type": "event"
    },
    {
      "anonymous": false,
      "inputs": [
        {
          "indexed": false,
          "internalType": "uint24",
          "name": "value",
          "type": "uint24"
        }
      ],
      "name": "ProtocolFeeRatioChanged",
      "type": "event"
    },
    {
      "anonymous": false,
      "inputs": [
        {
          "indexed": true,
          "internalType": "address",
          "name": "trader",
          "type": "address"
        },
        {
          "indexed": false,
          "internalType": "uint256",
          "name": "amount",
          "type": "uint256"
        }
      ],
      "name": "ProtocolFeeTransferred",
      "type": "event"
    },
    {
      "anonymous": false,
      "inputs": [
        {
          "indexed": true,
          "internalType": "address",
          "name": "trader",
          "type": "address"
        },
        {
          "indexed": false,
          "internalType": "uint256",
          "name": "amount",
          "type": "uint256"
        }
      ],
      "name": "Withdrawn",
      "type": "event"
    },
    {
      "inputs": [
        {
          "internalType": "address",
          "name": "",
          "type": "address"
        }
      ],
      "name": "accountInfos",
      "outputs": [
        {
          "components": [
            {
              "internalType": "int256",
              "name": "collateralBalance",
              "type": "int256"
            }
          ],
          "internalType": "struct PerpdexStructs.VaultInfo",
          "name": "vaultInfo",
          "type": "tuple"
        }
      ],
      "stateMutability": "view",
      "type": "function"
    },
    {
      "inputs": [
        {
          "components": [
            {
              "internalType": "address",
              "name": "market",
              "type": "address"
            },
            {
              "internalType": "uint256",
              "name": "base",
              "type": "uint256"
            },
            {
              "internalType": "uint256",
              "name": "quote",
              "type": "uint256"
            },
            {
              "internalType": "uint256",
              "name": "minBase",
              "type": "uint256"
            },
            {
              "internalType": "uint256",
              "name": "minQuote",
              "type": "uint256"
            },
            {
              "internalType": "uint256",
              "name": "deadline",
              "type": "uint256"
            }
          ],
          "internalType": "struct IPerpdexExchange.AddLiquidityParams",
          "name": "params",
          "type": "tuple"
        }
      ],
      "name": "addLiquidity",
      "outputs": [
        {
          "internalType": "uint256",
          "name": "base",
          "type": "uint256"
        },
        {
          "internalType": "uint256",
          "name": "quote",
          "type": "uint256"
        },
        {
          "internalType": "uint256",
          "name": "liquidity",
          "type": "uint256"
        }
      ],
      "stateMutability": "nonpayable",
      "type": "function"
    },
    {
      "inputs": [
        {
          "internalType": "uint256",
          "name": "amount",
          "type": "uint256"
        }
      ],
      "name": "deposit",
      "outputs": [],
      "stateMutability": "payable",
      "type": "function"
    },
    {
      "inputs": [
        {
          "internalType": "address",
          "name": "trader",
          "type": "address"
        }
      ],
      "name": "getAccountMarkets",
      "outputs": [
        {
          "internalType": "address[]",
          "name": "",
          "type": "address[]"
        }
      ],
      "stateMutability": "view",
      "type": "function"
    },
    {
      "inputs": [
        {
          "internalType": "address",
          "name": "trader",
          "type": "address"
        },
        {
          "internalType": "address",
          "name": "market",
          "type": "address"
        }
      ],
      "name": "getMakerInfo",
      "outputs": [
        {
          "components": [
            {
              "internalType": "uint256",
              "name": "liquidity",
              "type": "uint256"
            },
            {
              "internalType": "uint256",
              "name": "cumBaseSharePerLiquidityX96",
              "type": "uint256"
            },
            {
              "internalType": "uint256",
              "name": "cumQuotePerLiquidityX96",
              "type": "uint256"
            }
          ],
          "internalType": "struct PerpdexStructs.MakerInfo",
          "name": "",
          "type": "tuple"
        }
      ],
      "stateMutability": "view",
      "type": "function"
    },
    {
      "inputs": [
        {
          "internalType": "address",
          "name": "trader",
          "type": "address"
        },
        {
          "internalType": "address",
          "name": "market",
          "type": "address"
        }
      ],
      "name": "getOpenPositionNotional",
      "outputs": [
        {
          "internalType": "uint256",
          "name": "",
          "type": "uint256"
        }
      ],
      "stateMutability": "view",
      "type": "function"
    },
    {
      "inputs": [
        {
          "internalType": "address",
          "name": "trader",
          "type": "address"
        },
        {
          "internalType": "address",
          "name": "market",
          "type": "address"
        }
      ],
      "name": "getOpenPositionShare",
      "outputs": [
        {
          "internalType": "uint256",
          "name": "",
          "type": "uint256"
        }
      ],
      "stateMutability": "view",
      "type": "function"
    },
    {
      "inputs": [
        {
          "internalType": "address",
          "name": "trader",
          "type": "address"
        },
        {
          "internalType": "address",
          "name": "market",
          "type": "address"
        }
      ],
      "name": "getPositionNotional",
      "outputs": [
        {
          "internalType": "int256",
          "name": "",
          "type": "int256"
        }
      ],
      "stateMutability": "view",
      "type": "function"
    },
    {
      "inputs": [
        {
          "internalType": "address",
          "name": "trader",
          "type": "address"
        },
        {
          "internalType": "address",
          "name": "market",
          "type": "address"
        }
      ],
      "name": "getPositionShare",
      "outputs": [
        {
          "internalType": "int256",
          "name": "",
          "type": "int256"
        }
      ],
      "stateMutability": "view",
      "type": "function"
    },
    {
      "inputs": [
        {
          "internalType": "address",
          "name": "trader",
          "type": "address"
        },
        {
          "internalType": "address",
          "name": "market",
          "type": "address"
        }
      ],
      "name": "getTakerInfo",
      "outputs": [
        {
          "components": [
            {
              "internalType": "int256",
              "name": "baseBalanceShare",
              "type": "int256"
            },
            {
              "internalType": "int256",
              "name": "quoteBalance",
              "type": "int256"
            }
          ],
          "internalType": "struct PerpdexStructs.TakerInfo",
          "name": "",
          "type": "tuple"
        }
      ],
      "stateMutability": "view",
      "type": "function"
    },
    {
      "inputs": [
        {
          "internalType": "address",
          "name": "trader",
          "type": "address"
        }
      ],
      "name": "getTotalAccountValue",
      "outputs": [
        {
          "internalType": "int256",
          "name": "",
          "type": "int256"
        }
      ],
      "stateMutability": "view",
      "type": "function"
    },
    {
      "inputs": [
        {
          "internalType": "address",
          "name": "trader",
          "type": "address"
        }
      ],
      "name": "getTotalOpenPositionNotional",
      "outputs": [
        {
          "internalType": "uint256",
          "name": "",
          "type": "uint256"
        }
      ],
      "stateMutability": "view",
      "type": "function"
    },
    {
      "inputs": [
        {
          "internalType": "address",
          "name": "trader",
          "type": "address"
        }
      ],
      "name": "getTotalPositionNotional",
      "outputs": [
        {
          "internalType": "uint256",
          "name": "",
          "type": "uint256"
        }
      ],
      "stateMutability": "view",
      "type": "function"
    },
    {
      "inputs": [
        {
          "internalType": "address",
          "name": "trader",
          "type": "address"
        }
      ],
      "name": "hasEnoughInitialMargin",
      "outputs": [
        {
          "internalType": "bool",
          "name": "",
          "type": "bool"
        }
      ],
      "stateMutability": "view",
      "type": "function"
    },
    {
      "inputs": [
        {
          "internalType": "address",
          "name": "trader",
          "type": "address"
        }
      ],
      "name": "hasEnoughMaintenanceMargin",
      "outputs": [
        {
          "internalType": "bool",
          "name": "",
          "type": "bool"
        }
      ],
      "stateMutability": "view",
      "type": "function"
    },
    {
      "inputs": [],
      "name": "imRatio",
      "outputs": [
        {
          "internalType": "uint24",
          "name": "",
          "type": "uint24"
        }
      ],
      "stateMutability": "view",
      "type": "function"
    },
    {
      "inputs": [],
      "name": "insuranceFundInfo",
      "outputs": [
        {
          "internalType": "int256",
          "name": "balance",
          "type": "int256"
        },
        {
          "internalType": "uint256",
          "name": "liquidationRewardBalance",
          "type": "uint256"
        }
      ],
      "stateMutability": "view",
      "type": "function"
    },
    {
      "inputs": [
        {
          "internalType": "address",
          "name": "",
          "type": "address"
        }
      ],
      "name": "isMarketAllowed",
      "outputs": [
        {
          "internalType": "bool",
          "name": "",
          "type": "bool"
        }
      ],
      "stateMutability": "view",
      "type": "function"
    },
    {
      "inputs": [],
      "name": "liquidationRewardConfig",
      "outputs": [
        {
          "internalType": "uint24",
          "name": "rewardRatio",
          "type": "uint24"
        },
        {
          "internalType": "uint16",
          "name": "smoothEmaTime",
          "type": "uint16"
        }
      ],
      "stateMutability": "view",
      "type": "function"
    },
    {
      "inputs": [],
      "name": "maxMarketsPerAccount",
      "outputs": [
        {
          "internalType": "uint8",
          "name": "",
          "type": "uint8"
        }
      ],
      "stateMutability": "view",
      "type": "function"
    },
    {
      "inputs": [
        {
          "components": [
            {
              "internalType": "address",
              "name": "trader",
              "type": "address"
            },
            {
              "internalType": "address",
              "name": "market",
              "type": "address"
            },
            {
              "internalType": "address",
              "name": "caller",
              "type": "address"
            },
            {
              "internalType": "bool",
              "name": "isBaseToQuote",
              "type": "bool"
            },
            {
              "internalType": "bool",
              "name": "isExactInput",
              "type": "bool"
            }
          ],
          "internalType": "struct IPerpdexExchange.MaxTradeParams",
          "name": "params",
          "type": "tuple"
        }
      ],
      "name": "maxTrade",
      "outputs": [
        {
          "internalType": "uint256",
          "name": "amount",
          "type": "uint256"
        }
      ],
      "stateMutability": "view",
      "type": "function"
    },
    {
      "inputs": [],
      "name": "mmRatio",
      "outputs": [
        {
          "internalType": "uint24",
          "name": "",
          "type": "uint24"
        }
      ],
      "stateMutability": "view",
      "type": "function"
    },
    {
      "inputs": [],
      "name": "owner",
      "outputs": [
        {
          "internalType": "address",
          "name": "",
          "type": "address"
        }
      ],
      "stateMutability": "view",
      "type": "function"
    },
    {
      "inputs": [
        {
          "components": [
            {
              "internalType": "address",
              "name": "trader",
              "type": "address"
            },
            {
              "internalType": "address",
              "name": "market",
              "type": "address"
            },
            {
              "internalType": "address",
              "name": "caller",
              "type": "address"
            },
            {
              "internalType": "bool",
              "name": "isBaseToQuote",
              "type": "bool"
            },
            {
              "internalType": "bool",
              "name": "isExactInput",
              "type": "bool"
            },
            {
              "internalType": "uint256",
              "name": "amount",
              "type": "uint256"
            },
            {
              "internalType": "uint256",
              "name": "oppositeAmountBound",
              "type": "uint256"
            }
          ],
          "internalType": "struct IPerpdexExchange.PreviewTradeParams",
          "name": "params",
          "type": "tuple"
        }
      ],
      "name": "previewTrade",
      "outputs": [
        {
          "internalType": "uint256",
          "name": "oppositeAmount",
          "type": "uint256"
        }
      ],
      "stateMutability": "view",
      "type": "function"
    },
    {
      "inputs": [],
      "name": "protocolFeeRatio",
      "outputs": [
        {
          "internalType": "uint24",
          "name": "",
          "type": "uint24"
        }
      ],
      "stateMutability": "view",
      "type": "function"
    },
    {
      "inputs": [],
      "name": "protocolInfo",
      "outputs": [
        {
          "internalType": "uint256",
          "name": "protocolFee",
          "type": "uint256"
        }
      ],
      "stateMutability": "view",
      "type": "function"
    },
    {
      "inputs": [],
      "name": "quoteDecimals",
      "outputs": [
        {
          "internalType": "uint8",
          "name": "",
          "type": "uint8"
        }
      ],
      "stateMutability": "view",
      "type": "function"
    },
    {
      "inputs": [
        {
          "components": [
            {
              "internalType": "address",
              "name": "trader",
              "type": "address"
            },
            {
              "internalType": "address",
              "name": "market",
              "type": "address"
            },
            {
              "internalType": "uint256",
              "name": "liquidity",
              "type": "uint256"
            },
            {
              "internalType": "uint256",
              "name": "minBase",
              "type": "uint256"
            },
            {
              "internalType": "uint256",
              "name": "minQuote",
              "type": "uint256"
            },
            {
              "internalType": "uint256",
              "name": "deadline",
              "type": "uint256"
            }
          ],
          "internalType": "struct IPerpdexExchange.RemoveLiquidityParams",
          "name": "params",
          "type": "tuple"
        }
      ],
      "name": "removeLiquidity",
      "outputs": [
        {
          "internalType": "uint256",
          "name": "base",
          "type": "uint256"
        },
        {
          "internalType": "uint256",
          "name": "quote",
          "type": "uint256"
        }
      ],
      "stateMutability": "nonpayable",
      "type": "function"
    },
    {
      "inputs": [],
      "name": "renounceOwnership",
      "outputs": [],
      "stateMutability": "nonpayable",
      "type": "function"
    },
    {
      "inputs": [
        {
          "internalType": "uint24",
          "name": "value",
          "type": "uint24"
        }
      ],
      "name": "setImRatio",
      "outputs": [],
      "stateMutability": "nonpayable",
      "type": "function"
    },
    {
      "inputs": [
        {
          "internalType": "address",
          "name": "market",
          "type": "address"
        },
        {
          "internalType": "bool",
          "name": "value",
          "type": "bool"
        }
      ],
      "name": "setIsMarketAllowed",
      "outputs": [],
      "stateMutability": "nonpayable",
      "type": "function"
    },
    {
      "inputs": [
        {
          "components": [
            {
              "internalType": "uint24",
              "name": "rewardRatio",
              "type": "uint24"
            },
            {
              "internalType": "uint16",
              "name": "smoothEmaTime",
              "type": "uint16"
            }
          ],
          "internalType": "struct PerpdexStructs.LiquidationRewardConfig",
          "name": "value",
          "type": "tuple"
        }
      ],
      "name": "setLiquidationRewardConfig",
      "outputs": [],
      "stateMutability": "nonpayable",
      "type": "function"
    },
    {
      "inputs": [
        {
          "internalType": "uint8",
          "name": "value",
          "type": "uint8"
        }
      ],
      "name": "setMaxMarketsPerAccount",
      "outputs": [],
      "stateMutability": "nonpayable",
      "type": "function"
    },
    {
      "inputs": [
        {
          "internalType": "uint24",
          "name": "value",
          "type": "uint24"
        }
      ],
      "name": "setMmRatio",
      "outputs": [],
      "stateMutability": "nonpayable",
      "type": "function"
    },
    {
      "inputs": [
        {
          "internalType": "uint24",
          "name": "value",
          "type": "uint24"
        }
      ],
      "name": "setProtocolFeeRatio",
      "outputs": [],
      "stateMutability": "nonpayable",
      "type": "function"
    },
    {
      "inputs": [],
      "name": "settlementToken",
      "outputs": [
        {
          "internalType": "address",
          "name": "",
          "type": "address"
        }
      ],
      "stateMutability": "view",
      "type": "function"
    },
    {
      "inputs": [
        {
          "components": [
            {
              "internalType": "address",
              "name": "trader",
              "type": "address"
            },
            {
              "internalType": "address",
              "name": "market",
              "type": "address"
            },
            {
              "internalType": "bool",
              "name": "isBaseToQuote",
              "type": "bool"
            },
            {
              "internalType": "bool",
              "name": "isExactInput",
              "type": "bool"
            },
            {
              "internalType": "uint256",
              "name": "amount",
              "type": "uint256"
            },
            {
              "internalType": "uint256",
              "name": "oppositeAmountBound",
              "type": "uint256"
            },
            {
              "internalType": "uint256",
              "name": "deadline",
              "type": "uint256"
            }
          ],
          "internalType": "struct IPerpdexExchange.TradeParams",
          "name": "params",
          "type": "tuple"
        }
      ],
      "name": "trade",
      "outputs": [
        {
          "internalType": "uint256",
          "name": "oppositeAmount",
          "type": "uint256"
        }
      ],
      "stateMutability": "nonpayable",
      "type": "function"
    },
    {
      "inputs": [
        {
          "internalType": "uint256",
          "name": "amount",
          "type": "uint256"
        }
      ],
      "name": "transferInsuranceFund",
      "outputs": [],
      "stateMutability": "nonpayable",
      "type": "function"
    },
    {
      "inputs": [
        {
          "internalType": "address",
          "name": "newOwner",
          "type": "address"
        }
      ],
      "name": "transferOwnership",
      "outputs": [],
      "stateMutability": "nonpayable",
      "type": "function"
    },
    {
      "inputs": [
        {
          "internalType": "uint256",
          "name": "amount",
          "type": "uint256"
        }
      ],
      "name": "transferProtocolFee",
      "outputs": [],
      "stateMutability": "nonpayable",
      "type": "function"
    },
    {
      "inputs": [
        {
          "internalType": "uint256",
          "name": "amount",
          "type": "uint256"
        }
      ],
      "name": "withdraw",
      "outputs": [],
      "stateMutability": "nonpayable",
      "type": "function"
    }
  ],
  "transactionHash": "0x9c9491a1aabd62a56a6e1bbcb2a04c6271b1aa6b4aef11c1ad7344e00f98ff3e",
  "args": [
    "0x0000000000000000000000000000000000000000"
  ],
  "numDeployments": 2,
  "solcInputHash": "64121bb9c4cbc9bd83e481e7869a311b",
  "bytecode": "0x60068054601060ff199091161763ffffff001916630186a0001762ffffff60201b191665c350000000001762ffffff60381b1916905560e060405262030d4060a0819052606460c0526007805462ffffff191690911764ffff000000191663640000001790553480156200007257600080fd5b5060405162005ff338038062005ff383398101604081905262000095916200016d565b60016000908155620000a662000163565b600180546001600160a01b0319166001600160a01b038316908117909155604051919250906000907f8be0079c531659141344cd1fd0a4f28419497f9722a3daafe3b4186f6b6457e0908290a3506001600160a01b038116158062000125575062000125816001600160a01b03166200016760201b620025471760201c565b6200014d5760405162461bcd60e51b815260040162000144906200019d565b60405180910390fd5b60601b6001600160601b031916608052620001d4565b3390565b3b151590565b6000602082840312156200017f578081fd5b81516001600160a01b038116811462000196578182fd5b9392505050565b6020808252601b908201527f50455f433a20746f6b656e206164647265737320696e76616c69640000000000604082015260600190565b60805160601c615df262000201600039806109285280610fcf528061176e52806118735250615df26000f3fe6080604052600436106102465760003560e01c806393420cf411610139578063c9ca7b18116100b6578063dfe1cb921161007a578063dfe1cb92146106cc578063e671be17146106fb578063e72e43631461071b578063ec6cca841461073b578063f2fde38b1461075b578063f652b5271461077b57610246565b8063c9ca7b181461061f578063ca5b721e1461063f578063cffe85561461065f578063d11102c51461067f578063d1ce35e3146106ac57610246565b8063a616c66c116100fd578063a616c66c1461057c578063ac3732b4146105aa578063b53c5125146105ca578063b6b55f25146105f7578063c66fa8e61461060a57610246565b806393420cf4146104e257806394887af7146104f7578063996fbf941461051a5780639dce9e191461053a5780639f044f311461056757610246565b80634ef9951a116101c75780637b9e618d1161018b5780637b9e618d1461043e5780637c88490a1461046057806387cad0bf146104805780638da5cb5b146104ad5780639317b193146104c257610246565b80634ef9951a146103b45780636e838bad146103d4578063715018a6146103f457806373f62501146104095780637a27d9f61461042957610246565b806333ff15771161020e57806333ff1577146103125780633a921051146103325780633d46396a146103525780633fd1e2bd146103725780634b4aa7351461039457610246565b80630674fa411461024b5780632d67669c146102815780632e1a7d4d146102a15780632e784343146102c35780632f60a151146102f0575b600080fd5b34801561025757600080fd5b5061026b610266366004615165565b610790565b604051610278919061542b565b60405180910390f35b34801561028d57600080fd5b5061026b61029c366004615243565b6107b9565b3480156102ad57600080fd5b506102c16102bc3660046152a7565b6108ac565b005b3480156102cf57600080fd5b506102e36102de36600461517f565b6109c2565b6040516102789190615b5d565b3480156102fc57600080fd5b50610305610a0e565b6040516102789190615b7e565b34801561031e57600080fd5b5061026b61032d36600461517f565b610a1e565b34801561033e57600080fd5b5061026b61034d366004615165565b610a47565b34801561035e57600080fd5b506102c161036d3660046152a7565b610a68565b34801561037e57600080fd5b50610387610b7f565b6040516102789190615bed565b3480156103a057600080fd5b5061026b6103af366004615165565b610b84565b3480156103c057600080fd5b506102c16103cf3660046152a7565b610ba5565b3480156103e057600080fd5b506102c16103ef36600461528b565b610cbc565b34801561040057600080fd5b506102c1610e23565b34801561041557600080fd5b506102c1610424366004615304565b610ecf565b34801561043557600080fd5b50610305610fbb565b34801561044a57600080fd5b50610453610fcd565b604051610278919061533c565b34801561046c57600080fd5b5061026b61047b36600461517f565b610ff1565b34801561048c57600080fd5b506104a061049b366004615165565b611013565b6040516102789190615b74565b3480156104b957600080fd5b50610453611035565b3480156104ce57600080fd5b506102c16104dd3660046151b1565b611044565b3480156104ee57600080fd5b5061026b611173565b34801561050357600080fd5b5061050c611179565b604051610278929190615b8e565b34801561052657600080fd5b5061026b61053536600461517f565b611191565b34801561054657600080fd5b5061055a610555366004615165565b6111b3565b60405161027891906153e7565b34801561057357600080fd5b506103056111e4565b34801561058857600080fd5b5061059c610597366004615217565b6111f6565b60405161027892919061549b565b3480156105b657600080fd5b506102c16105c5366004615232565b61154e565b3480156105d657600080fd5b506105ea6105e536600461517f565b6116bd565b6040516102789190615b3c565b6102c16106053660046152a7565b611715565b34801561061657600080fd5b5061059c6118fa565b34801561062b57600080fd5b506102c161063a36600461528b565b611903565b34801561064b57600080fd5b5061026b61065a36600461517f565b611a52565b34801561066b57600080fd5b5061026b61067a366004615254565b611a74565b34801561068b57600080fd5b5061069f61069a366004615165565b611bbb565b604051610278919061539a565b3480156106b857600080fd5b506102c16106c736600461528b565b611c34565b3480156106d857600080fd5b506106ec6106e7366004615217565b611d54565b60405161027893929190615ba7565b34801561070757600080fd5b5061026b610716366004615254565b61209f565b34801561072757600080fd5b5061055a610736366004615165565b6123f7565b34801561074757600080fd5b5061055a610756366004615165565b61240c565b34801561076757600080fd5b506102c1610776366004615165565b61243b565b34801561078757600080fd5b5061038761253e565b6001600160a01b03811660009081526002602052604081206107b19061254d565b90505b919050565b60006008816107ce6040850160208601615165565b6001600160a01b0316815260208101919091526040016000205460ff166107f7575060006107b4565b60006108066020840184615165565b9050600061081a6060850160408601615165565b90506108a460026000846001600160a01b03166001600160a01b031681526020019081526020016000208560200160208101906108579190615165565b61086760808801606089016151da565b61087760a0890160808a016151da565b60065462ffffff600160201b8204811691600160381b9004166001600160a01b03898116908916146127c1565b949350505050565b600260005414156108f2576040805162461bcd60e51b815260206004820152601f6024820152600080516020615c79833981519152604482015290519081900360640190fd5b6002600090815561090161289a565b6001600160a01b0381811660008181526002602090815260409182902082516080810184527f0000000000000000000000000000000000000000000000000000000000000000909516855290840187905290830191909152600654610100900462ffffff166060830152919250610978919061289e565b806001600160a01b03167f7084f5476618d8e60b11ef0d7d3f06914655adb8793e28ff7f018d4c76d505d5836040516109b1919061542b565b60405180910390a250506001600055565b6109ca61505c565b506001600160a01b03808316600090815260026020908152604080832093851683529281529082902082518084019093528054835260010154908201525b92915050565b600654610100900462ffffff1681565b6001600160a01b0382166000908152600260205260408120610a409083612a1e565b9392505050565b6001600160a01b03811660009081526002602052604081206107b190612b76565b610a7061289a565b6001600160a01b0316610a81611035565b6001600160a01b031614610aca576040805162461bcd60e51b81526020600482018190526024820152600080516020615d27833981519152604482015290519081900360640190fd5b60026000541415610b10576040805162461bcd60e51b815260206004820152601f6024820152600080516020615c79833981519152604482015290519081900360640190fd5b60026000908155610b1f61289a565b6001600160a01b0381166000908152600260205260409020909150610b4690600584612bd7565b806001600160a01b03167f0880b0e717a57f3b5cbd3fc19396ae3c8cdee5c624c9289477869c38014c8495836040516109b1919061542b565b601281565b6001600160a01b03811660009081526002602052604081206107b190612c06565b610bad61289a565b6001600160a01b0316610bbe611035565b6001600160a01b031614610c07576040805162461bcd60e51b81526020600482018190526024820152600080516020615d27833981519152604482015290519081900360640190fd5b60026000541415610c4d576040805162461bcd60e51b815260206004820152601f6024820152600080516020615c79833981519152604482015290519081900360640190fd5b60026000908155610c5c61289a565b6001600160a01b0381166000908152600260205260409020909150610c8390600384612c5f565b806001600160a01b03167fc5f8d0712530f513c8ff696f9d12d32b95faeef78155912e567eca0284adf94f836040516109b1919061542b565b610cc461289a565b6001600160a01b0316610cd5611035565b6001600160a01b031614610d1e576040805162461bcd60e51b81526020600482018190526024820152600080516020615d27833981519152604482015290519081900360640190fd5b60026000541415610d64576040805162461bcd60e51b815260206004820152601f6024820152600080516020615c79833981519152604482015290519081900360640190fd5b6002600055620f424062ffffff821610610d995760405162461bcd60e51b8152600401610d9090615ab3565b60405180910390fd5b60065462ffffff600160201b90910481169082161015610dcb5760405162461bcd60e51b8152600401610d9090615a1a565b6006805463ffffff00191661010062ffffff8416021790556040517f04f9c1a24c6543f4b91577d82af28fb7ef6d7b9fe46acd0e5c36ef17073b94e690610e13908390615b7e565b60405180910390a1506001600055565b610e2b61289a565b6001600160a01b0316610e3c611035565b6001600160a01b031614610e85576040805162461bcd60e51b81526020600482018190526024820152600080516020615d27833981519152604482015290519081900360640190fd5b6001546040516000916001600160a01b0316907f8be0079c531659141344cd1fd0a4f28419497f9722a3daafe3b4186f6b6457e0908390a3600180546001600160a01b0319169055565b610ed761289a565b6001600160a01b0316610ee8611035565b6001600160a01b031614610f31576040805162461bcd60e51b81526020600482018190526024820152600080516020615d27833981519152604482015290519081900360640190fd5b60026000541415610f77576040805162461bcd60e51b815260206004820152601f6024820152600080516020615c79833981519152604482015290519081900360640190fd5b60026000556006805460ff191660ff83161790556040517fa7b4760b38e2a630f3073fcd5119972cbf81bd50e3761f86534a69661caf811090610e13908390615bed565b600654600160381b900462ffffff1681565b7f000000000000000000000000000000000000000000000000000000000000000081565b6001600160a01b0382166000908152600260205260408120610a409083612ca7565b6002602081815260009283526040928390208351918201909352910154815281565b6001546001600160a01b031690565b61104c61289a565b6001600160a01b031661105d611035565b6001600160a01b0316146110a6576040805162461bcd60e51b81526020600482018190526024820152600080516020615d27833981519152604482015290519081900360640190fd5b600260005414156110ec576040805162461bcd60e51b815260206004820152601f6024820152600080516020615c79833981519152604482015290519081900360640190fd5b60026000556111036001600160a01b038316612547565b61111f5760405162461bcd60e51b8152600401610d90906157d3565b6001600160a01b03821660008181526008602052604090819020805460ff1916841515179055517fd5d4c2e150c76234e0f5d390162d34c5c1e1405df2194cfbd63b12d9521b1027906109b19084906153e7565b60055481565b60075462ffffff8116906301000000900461ffff1682565b6001600160a01b0382166000908152600260205260408120610a409083612d46565b6001600160a01b03811660009081526002602052604081206006546107b19190600160201b900462ffffff16612ddc565b600654600160201b900462ffffff1681565b6000806002600054141561123f576040805162461bcd60e51b815260206004820152601f6024820152600080516020615c79833981519152604482015290519081900360640190fd5b600260005560a0830135428110156112695760405162461bcd60e51b8152600401610d90906158c7565b6112796040850160208601615165565b6001600160a01b03811660009081526008602052604090205460ff166112b15760405162461bcd60e51b8152600401610d9090615703565b60006113846002826112c660208a018a615165565b6001600160a01b03166001600160a01b031681526020019081526020016000206040518060e001604052808960200160208101906113049190615165565b6001600160a01b031681526040808b013560208301526060808c0135918301919091526080808c01359183019190915260065462ffffff600160201b8204169183019190915260ff1660a082015260c00161135d61289a565b6001600160a01b031661137360208c018c615165565b6001600160a01b0316149052612e15565b905060006113986040880160208901615165565b6001600160a01b0316639482de1a6040518163ffffffff1660e01b815260040160206040518083038186803b1580156113d057600080fd5b505afa1580156113e4573d6000803e3d6000fd5b505050506040513d601f19601f8201168201806040525081019061140891906152bf565b9050600061141c6040890160208a01615165565b6001600160a01b0316638ee8fe5d6040518163ffffffff1660e01b815260040160206040518083038186803b15801561145457600080fd5b505afa158015611468573d6000803e3d6000fd5b505050506040513d601f19601f8201168201806040525081019061148c91906152bf565b905061149e6040890160208a01615165565b6001600160a01b03166114b460208a018a615165565b6001600160a01b03167f2935383596639a6916071dea84c6ed5d6c6315fa9628268974458798fea93ebc8560a001516114ee5760006114f6565b6114f661289a565b866000015187602001518d6040013589604001518a606001518b608001518b8b60405161152b99989796959493929190615350565b60405180910390a350508051602090910151600160005590969095509350505050565b61155661289a565b6001600160a01b0316611567611035565b6001600160a01b0316146115b0576040805162461bcd60e51b81526020600482018190526024820152600080516020615d27833981519152604482015290519081900360640190fd5b600260005414156115f6576040805162461bcd60e51b815260206004820152601f6024820152600080516020615c79833981519152604482015290519081900360640190fd5b6002600055620f424061160c602083018361528b565b62ffffff161061162e5760405162461bcd60e51b8152600401610d909061579c565b6000611640604083016020840161526f565b61ffff16116116615760405162461bcd60e51b8152600401610d9090615984565b80600761166e8282615bfb565b507f1185c4964ca5cd3d88d5dfbc1fb65b84d5533e3354f3b2163e8e1c0f35bca0e1905061169f602083018361528b565b6116af604084016020850161526f565b604051610e13929190615b8e565b6116c5615076565b506001600160a01b03808316600090815260026020818152604080842094861684526001948501825292839020835160608101855281548152948101549185019190915201549082015292915050565b6002600054141561175b576040805162461bcd60e51b815260206004820152601f6024820152600080516020615c79833981519152604482015290519081900360640190fd5b6002600090815561176a61289a565b90507f00000000000000000000000000000000000000000000000000000000000000006001600160a01b03166118205781156117b85760405162461bcd60e51b8152600401610d909061550a565b6001600160a01b03811660009081526002602052604090206117da9034613139565b806001600160a01b03167f2da466a7b24304f47e87fa2e1e5a81b9831ce54fec19055ce277ca2f39ba42c434604051611813919061542b565b60405180910390a26118f1565b341561183e5760405162461bcd60e51b8152600401610d909061580a565b6118b860026000836001600160a01b03166001600160a01b0316815260200190815260200160002060405180606001604052807f00000000000000000000000000000000000000000000000000000000000000006001600160a01b03168152602001858152602001846001600160a01b031681525061317c565b806001600160a01b03167f2da466a7b24304f47e87fa2e1e5a81b9831ce54fec19055ce277ca2f39ba42c4836040516109b1919061542b565b50506001600055565b60035460045482565b61190b61289a565b6001600160a01b031661191c611035565b6001600160a01b031614611965576040805162461bcd60e51b81526020600482018190526024820152600080516020615d27833981519152604482015290519081900360640190fd5b600260005414156119ab576040805162461bcd60e51b815260206004820152601f6024820152600080516020615c79833981519152604482015290519081900360640190fd5b600260005560065462ffffff610100909104811690821611156119e05760405162461bcd60e51b8152600401610d909061565e565b60008162ffffff1611611a055760405162461bcd60e51b8152600401610d909061595e565b6006805466ffffff000000001916600160201b62ffffff8416021790556040517ffbd0bf17b9833a130f5baeccbfc586acefc75be8ad5bb114f448e412adc4c05b90610e13908390615b7e565b6001600160a01b0382166000908152600260205260408120610a409083613219565b6000611a866040830160208401615165565b6001600160a01b03811660009081526008602052604090205460ff16611abe5760405162461bcd60e51b8152600401610d9090615703565b6000611acd6020850185615165565b90506000611ae16060860160408701615165565b9050611bb260026000846001600160a01b03166001600160a01b03168152602001908152602001600020604051806101000160405280886020016020810190611b2a9190615165565b6001600160a01b03168152602001611b4860808a0160608b016151da565b15158152602001611b5f60a08a0160808b016151da565b1515815260a0808a0135602083015260c08a0135604083015260065462ffffff600160201b820481166060850152600160381b9091041660808301526001600160a01b03878116908716149101526132ca565b95945050505050565b6001600160a01b038116600090815260026020908152604091829020600301805483518184028101840190945280845260609392830182828015611c2857602002820191906000526020600020905b81546001600160a01b03168152600190910190602001808311611c0a575b50505050509050919050565b611c3c61289a565b6001600160a01b0316611c4d611035565b6001600160a01b031614611c96576040805162461bcd60e51b81526020600482018190526024820152600080516020615d27833981519152604482015290519081900360640190fd5b60026000541415611cdc576040805162461bcd60e51b815260206004820152601f6024820152600080516020615c79833981519152604482015290519081900360640190fd5b600260005561271062ffffff82161115611d085760405162461bcd60e51b8152600401610d9090615632565b6006805462ffffff60381b1916600160381b62ffffff8416021790556040517f68c41b7a5c12c4d9cbb99ec284bf647922a75f379a90694e3ad65574f4ff944d90610e13908390615b7e565b600080600060026000541415611d9f576040805162461bcd60e51b815260206004820152601f6024820152600080516020615c79833981519152604482015290519081900360640190fd5b600260005560a084013542811015611dc95760405162461bcd60e51b8152600401610d90906158c7565b611dd66020860186615165565b6001600160a01b03811660009081526008602052604090205460ff16611e0e5760405162461bcd60e51b8152600401610d9090615703565b6000611e1861289a565b90506000611eb560026000846001600160a01b03166001600160a01b031681526020019081526020016000206040518060e001604052808b6000016020810190611e629190615165565b6001600160a01b0316815260208c810135908201526040808d0135908201526060808d0135908201526080808d01359082015260065462ffffff61010082041660a083015260ff1660c0909101526133e2565b90506000611ec660208a018a615165565b6001600160a01b0316639482de1a6040518163ffffffff1660e01b815260040160206040518083038186803b158015611efe57600080fd5b505afa158015611f12573d6000803e3d6000fd5b505050506040513d601f19601f82011682018060405250810190611f3691906152bf565b90506000611f4760208b018b615165565b6001600160a01b0316638ee8fe5d6040518163ffffffff1660e01b815260040160206040518083038186803b158015611f7f57600080fd5b505afa158015611f93573d6000803e3d6000fd5b505050506040513d601f19601f82011682018060405250810190611fb791906152bf565b6001600160a01b038516600090815260026020908152604082209293509091600101908290611fe8908e018e615165565b6001600160a01b031681526020808201929092526040016000209150612010908c018c615165565b6001600160a01b0316856001600160a01b03167f228674ca516ab8f32325e25d1e16656e747d977df7f664467fd5f7b4e64ba00f866000015187602001518860400151866001015487600201548a8a6040516120729796959493929190615bbd565b60405180910390a35050815160208301516040909301516001600055909a92995097509095505050505050565b6000600260005414156120e7576040805162461bcd60e51b815260206004820152601f6024820152600080516020615c79833981519152604482015290519081900360640190fd5b600260005560c0820135428110156121115760405162461bcd60e51b8152600401610d90906158c7565b6121216040840160208501615165565b6001600160a01b03811660009081526008602052604090205460ff166121595760405162461bcd60e51b8152600401610d9090615703565b6000612164856135fc565b905060006121786040870160208801615165565b6001600160a01b0316639482de1a6040518163ffffffff1660e01b815260040160206040518083038186803b1580156121b057600080fd5b505afa1580156121c4573d6000803e3d6000fd5b505050506040513d601f19601f820116820180604052508101906121e891906152bf565b905060006121fc6040880160208901615165565b6001600160a01b0316638ee8fe5d6040518163ffffffff1660e01b815260040160206040518083038186803b15801561223457600080fd5b505afa158015612248573d6000803e3d6000fd5b505050506040513d601f19601f8201168201806040525081019061226c91906152bf565b90508260e00151156123205761228061289a565b6001600160a01b03166122996040890160208a01615165565b6001600160a01b03166122af60208a018a615165565b6001600160a01b03167f7c3978559b662b8adf839d43cce2ec6ab7db3fdc995575e4576acc9e0628985d866000015187602001518860400151896060015189898c608001518d60a001518e60c001516040516123139998979695949392919061545c565b60405180910390a46123a1565b6123306040880160208901615165565b6001600160a01b03166123466020890189615165565b6001600160a01b03167fe386a40c070a1424ae709b98c27e64993228f777c6294ef7149cf0ee42ef46e88560000151866020015187604001518860600151888860405161239896959493929190615434565b60405180910390a35b6123b160608801604089016151da565b15156123c36080890160608a016151da565b1515146123da5782516123d590613773565b6123e7565b6123e78360200151613773565b6001600055979650505050505050565b60086020526000908152604090205460ff1681565b6001600160a01b03811660009081526002602052604081206006546107b19190610100900462ffffff1661379c565b61244361289a565b6001600160a01b0316612454611035565b6001600160a01b03161461249d576040805162461bcd60e51b81526020600482018190526024820152600080516020615d27833981519152604482015290519081900360640190fd5b6001600160a01b0381166124e25760405162461bcd60e51b8152600401808060200182810382526026815260200180615c996026913960400191505060405180910390fd5b6001546040516001600160a01b038084169216907f8be0079c531659141344cd1fd0a4f28419497f9722a3daafe3b4186f6b6457e090600090a3600180546001600160a01b0319166001600160a01b0392909216919091179055565b60065460ff1681565b3b151590565b600281015460038201805460009290835b818110156127b757600084828154811061257457fe5b60009182526020808320909101546001600160a01b031680835260018a810183526040808520938c905290932080549301548254919450919291901561270e57600080856001600160a01b0316637640482f86600001546040518263ffffffff1660e01b815260040180828152602001915050604080518083038186803b1580156125fe57600080fd5b505afa158015612612573d6000803e3d6000fd5b505050506040513d604081101561262857600080fd5b5080516020909101518654600188015460028901546040805163933c797960e01b8152600481019490945260248401929092526044830152805193955091935060009283926001600160a01b038b169263933c79799260648083019392829003018186803b15801561269957600080fd5b505afa1580156126ad573d6000803e3d6000fd5b505050506040513d60408110156126c357600080fd5b50805160209091015190925090506126ee826126e86126e1876137e5565b899061382d565b9061382d565b9550612707816126e8612700866137e5565b889061382d565b9450505050505b811561279c576000846001600160a01b0316638ee8fe5d6040518163ffffffff1660e01b815260040160206040518083038186803b15801561274f57600080fd5b505afa158015612763573d6000803e3d6000fd5b505050506040513d602081101561277957600080fd5b505190506127986126e161278c836137e5565b8590600160601b613892565b9750505b6127a6878261382d565b96505050505080600101905061255e565b5090949350505050565b6000806127ce8986612ddc565b159050821580156127dd575080155b156127ec57600091505061288f565b62ffffff841661287d5760405163e8fa204f60e01b81526001600160a01b0389169063e8fa204f90612826908a908a9086906004016153f2565b60206040518083038186803b15801561283e57600080fd5b505afa158015612852573d6000803e3d6000fd5b505050506040513d601f19601f8201168201806040525081019061287691906152bf565b915061288d565b61288a8888888785613936565b91505b505b979650505050505050565b3390565b60008160200151116128c25760405162461bcd60e51b8152600401610d9090615771565b80516000906001600160a01b03161561295c57612957826020015183600001516001600160a01b031663313ce5676040518163ffffffff1660e01b815260040160206040518083038186803b15801561291a57600080fd5b505afa15801561292e573d6000803e3d6000fd5b505050506040513d601f19601f820116820180604052508101906129529190615320565b613a08565b612962565b81602001515b905061297b612970826137e5565b600285015490613a64565b6002840155606082015161299090849061379c565b6129ac5760405162461bcd60e51b8152600401610d9090615695565b81516001600160a01b0316612a025781604001516001600160a01b03166108fc83602001519081150290604051600060405180830381858888f193505050501580156129fc573d6000803e3d6000fd5b50612a19565b612a19826000015183604001518460200151613ac9565b505050565b6001600160a01b038116600090815260018301602090815260408083209185905290912054815490919015612b6f57805460408051637640482f60e01b8152600481019290925280516000926001600160a01b03871692637640482f92602480840193829003018186803b158015612a9557600080fd5b505afa158015612aa9573d6000803e3d6000fd5b505050506040513d6040811015612abf57600080fd5b50518254600184015460028501546040805163933c797960e01b815260048101949094526024840192909252604483015280519293506000926001600160a01b0388169263933c7979926064808301939192829003018186803b158015612b2557600080fd5b505afa158015612b39573d6000803e3d6000fd5b505050506040513d6040811015612b4f57600080fd5b50519050612b6a816126e8612b63856137e5565b879061382d565b935050505b5092915050565b600381018054600091908290815b818110156127b7576000612bc0612bbb88878581548110612ba157fe5b6000918252602090912001546001600160a01b0316612ca7565b613773565b9050612bcc8482613b1b565b935050600101612b84565b612bee612be3826137e5565b60028501549061382d565b60028401558154612bff9082613b75565b9091555050565b600381018054600091908290815b818110156127b7576000612c4887868481548110612c2e57fe5b6000918252602090912001546001600160a01b0316612d46565b9050612c548482613b1b565b935050600101612c14565b612c6b612be3826137e5565b6002840155612c84612c7c826137e5565b835490613a64565b80835560001315612a195760405162461bcd60e51b8152600401610d9090615592565b600080612cb48484612a1e565b905080612cc5576000915050610a08565b6000836001600160a01b0316638ee8fe5d6040518163ffffffff1660e01b815260040160206040518083038186803b158015612d0057600080fd5b505afa158015612d14573d6000803e3d6000fd5b505050506040513d6020811015612d2a57600080fd5b50519050611bb2612d3a826137e5565b8390600160601b613892565b600080612d538484613219565b905080612d64576000915050610a08565b6000836001600160a01b0316638ee8fe5d6040518163ffffffff1660e01b815260040160206040518083038186803b158015612d9f57600080fd5b505afa158015612db3573d6000803e3d6000fd5b505050506040513d6020811015612dc957600080fd5b50519050611bb28282600160601b613bd2565b600080612de88461254d565b90506000612df585612b76565b9050612e09612e048286613c81565b6137e5565b90911215949350505050565b612e1d615097565b612e2b838360800151612ddc565b1560a082015260c0820151612e5b578060a00151612e5b5760405162461bcd60e51b8152600401610d90906154a9565b81516001600160a01b039081166000908152600180860160209081526040808420875192880151938101546002820154925163933c797960e01b815295969195939091169363933c797993612eb69391929190600401615ba7565b604080518083038186803b158015612ecd57600080fd5b505afa158015612ee1573d6000803e3d6000fd5b505050506040513d601f19601f82011682018060405250810190612f0591906151f4565b84604001856060018281525082815250505083600001516001600160a01b0316638ee8fe5d6040518163ffffffff1660e01b815260040160206040518083038186803b158015612f5457600080fd5b505afa158015612f68573d6000803e3d6000fd5b505050506040513d601f19601f82011682018060405250810190612f8c91906152bf565b84516020860151604051639c8f9f2360e01b81529294506001600160a01b039091169250639c8f9f2391612fc3919060040161542b565b6040805180830381600087803b158015612fdc57600080fd5b505af1158015612ff0573d6000803e3d6000fd5b505050506040513d601f19601f8201168201806040525081019061301491906151f4565b60208401528083526040840151111561303f5760405162461bcd60e51b8152600401610d9090615a7c565b8260600151826020015110156130675760405162461bcd60e51b8152600401610d9090615a7c565b61308261307783600001516137e5565b60408401519061382d565b604083015260208201516130a490613099906137e5565b60608401519061382d565b606083015282516001600160a01b0316600090815260018501602090815260409091209084015181546130d691613b75565b905560006130f66130e6836137e5565b604085015190600160601b613892565b600003905061312b858560000151856040015184613121868960600151613a6490919063ffffffff16565b8960a00151613c96565b608084015250909392505050565b600081116131595760405162461bcd60e51b8152600401610d909061589b565b613170613165826137e5565b60028401549061382d565b60029092019190915550565b60008160200151116131a05760405162461bcd60e51b8152600401610d9090615539565b6131b7816000015182604001518360200151613e56565b60006131fe826020015183600001516001600160a01b031663313ce5676040518163ffffffff1660e01b815260040160206040518083038186803b15801561291a57600080fd5b905061320c612be3826137e5565b6002909301929092555050565b6001600160a01b03811660009081526001830160205260408120613240612bbb8585612a1e565b815490925015612b6f57805460408051637640482f60e01b8152600481019290925280516000926001600160a01b03871692637640482f92602480840193829003018186803b15801561329257600080fd5b505afa1580156132a6573d6000803e3d6000fd5b505050506040513d60408110156132bc57600080fd5b50519050611bb28382613b1b565b6000806132db848460a00151612ddc565b1590508260e0015161330457806133045760405162461bcd60e51b8152600401610d9090615a51565b60c083015162ffffff166133a957825160208401516040808601516060870151915162de853760e31b81526001600160a01b03909416936306f429b89361335293909291879060040161540c565b60206040518083038186803b15801561336a57600080fd5b505afa15801561337e573d6000803e3d6000fd5b505050506040513d601f19601f820116820180604052508101906133a291906152bf565b91506133cf565b6133cb83600001518460200151856040015186606001518760c0015186613f8d565b5091505b612b6f83604001518385608001516141ca565b6133ea615076565b81516001600160a01b039081166000908152600185016020526040808220855182516379144ba960e11b815283519295859492169263f228975292600480840193919291829003018186803b15801561344257600080fd5b505afa158015613456573d6000803e3d6000fd5b505050506040513d601f19601f8201168201806040525081019061347a91906151f4565b9150915084600001516001600160a01b0316639cd441da866020015187604001516040518363ffffffff1660e01b81526004016134b892919061549b565b606060405180830381600087803b1580156134d257600080fd5b505af11580156134e6573d6000803e3d6000fd5b505050506040513d601f19601f8201168201806040525081019061350a91906152d7565b604087015260208601528085526060860151111561353a5760405162461bcd60e51b8152600401610d909061573a565b8460800151846020015110156135625760405162461bcd60e51b8152600401610d90906158f0565b82546040850151613574908290613b1b565b8455604085015185516001860154613590928492909187614215565b84600101819055506135b18186604001518760200151876002015486614215565b6002850155855160c08701516135c891899161425e565b6135d6878760a0015161379c565b6135f25760405162461bcd60e51b8152600401610d9090615b0e565b5050505092915050565b6136046150cf565b6107b1600260006136186020860186615165565b6001600160a01b03166001600160a01b031681526020019081526020016000206002600061364461289a565b6001600160a01b03166001600160a01b031681526020019081526020016000206002016003600560405180610160016040528088602001602081019061368a9190615165565b6001600160a01b031681526020016136a860608a0160408b016151da565b151581526020016136bf60808a0160608b016151da565b151581526080808a0135602083015260a0808b0135604084015260065462ffffff600160201b820481166060860152610100820481169385019390935260ff811691840191909152600160381b90041660c082015260e00161371f61289a565b6001600160a01b031661373560208b018b615165565b6001600160a01b03161481526040805180820190915260075462ffffff811682526301000000900461ffff1660208083019190915290910152614425565b6000808212156137935761378e613789836145a5565b6145d1565b6107b1565b6107b1826145d1565b6000806137a88461254d565b905060006137b585612c06565b90506137c4612e048286613c81565b60028601546137d4908490614628565b121580611bb25750611bb28561463e565b6000600160ff1b82106138295760405162461bcd60e51b8152600401808060200182810382526028815260200180615d476028913960400191505060405180910390fd5b5090565b60008282018183128015906138425750838112155b80613857575060008312801561385757508381125b610a405760405162461bcd60e51b8152600401808060200182810382526021815260200180615cbf6021913960400191505060405180910390fd5b600080600085126138a357846138ac565b6138ac856145a5565b905060008085126138bd57846138c6565b6138c6856145a5565b9050600080871280156138d95750600086135b806138ef57506000871380156138ef5750600086125b6138fa5760006138fd565b60015b9050600061390c848488613bd2565b9050816139215761391c816137e5565b61392a565b61392a8161479b565b98975050505050505050565b60405163e8fa204f60e01b81526000906001600160a01b0387169063e8fa204f90613969908890889087906004016153f2565b60206040518083038186803b15801561398157600080fd5b505afa158015613995573d6000803e3d6000fd5b505050506040513d601f19601f820116820180604052508101906139b991906152bf565b905083156139eb5784156139cc576139e6565b6139e36139dc620f4240856147af565b82906147db565b90505b611bb2565b8415611bb2576139e3613a01620f4240856147af565b8290613c81565b600060ff60128390031681613a1c82613773565b9050604d811115613a3f5760405162461bcd60e51b8152600401610d90906155c4565b6000821215613a56576139e685600a83900a6147f0565b611bb285600a83900a614857565b6000818303818312801590613a795750838113155b80613a8e5750600083128015613a8e57508381135b610a405760405162461bcd60e51b8152600401808060200182810382526024815260200180615d6f6024913960400191505060405180910390fd5b604080516001600160a01b038416602482015260448082018490528251808303909101815260649091019091526020810180516001600160e01b031663a9059cbb60e01b179052612a199084906148b0565b600082820183811015610a40576040805162461bcd60e51b815260206004820152601b60248201527f536166654d6174683a206164646974696f6e206f766572666c6f770000000000604482015290519081900360640190fd5b600082821115613bcc576040805162461bcd60e51b815260206004820152601e60248201527f536166654d6174683a207375627472616374696f6e206f766572666c6f770000604482015290519081900360640190fd5b50900390565b6000808060001985870986860292508281109083900303905080613c085760008411613bfd57600080fd5b508290049050610a40565b808411613c1457600080fd5b6000848688096000868103871696879004966002600389028118808a02820302808a02820302808a02820302808a02820302808a02820302808a02909103029181900381900460010186841190950394909402919094039290920491909117919091029150509392505050565b6000610a40838362ffffff16620f4240613bd2565b6001600160a01b038516600090815260208790526040812085151580613cbb57508415155b15613d9357613cc985614961565b613cd287614961565b0260001914613cf35760405162461bcd60e51b8152600401610d9090615ade565b613cfc86614961565b8154613d0790614961565b026000191415613d93576000613d1c87613773565b90506000613d2d8360000154613773565b9050808211613d64576000613d50613d44846137e5565b60018601549084613892565b9050613d5c888261382d565b945050613d90565b6000613d7a613d72836137e5565b899085613892565b6001850154909150613d8c908261382d565b9450505b50505b613d9d828561382d565b8154909250600090613daf908861382d565b90506000613dd884613dd2886126e88b886001015461382d90919063ffffffff16565b90613a64565b905081158015613de6575080155b80613e045750613df581614961565b613dfe83614961565b02600019145b613e205760405162461bcd60e51b8152600401610d9090615564565b8183556001830181905560028a0154613e39908561382d565b60028b0155613e498a8a8761425e565b5050509695505050505050565b6040516370a0823160e01b81526000906001600160a01b038516906370a0823190613e8590309060040161533c565b60206040518083038186803b158015613e9d57600080fd5b505afa158015613eb1573d6000803e3d6000fd5b505050506040513d601f19601f82011682018060405250810190613ed591906152bf565b9050613ee384843085614989565b81613f6a82866001600160a01b03166370a08231306040518263ffffffff1660e01b8152600401613f14919061533c565b60206040518083038186803b158015613f2c57600080fd5b505afa158015613f40573d6000803e3d6000fd5b505050506040513d601f19601f82011682018060405250810190613f6491906152bf565b90613b75565b14613f875760405162461bcd60e51b8152600401610d90906156cc565b50505050565b60008085156140db57861561403c5760405162de853760e31b81526001600160a01b038916906306f429b890613fcd908a908a908a90899060040161540c565b60206040518083038186803b158015613fe557600080fd5b505afa158015613ff9573d6000803e3d6000fd5b505050506040513d601f19601f8201168201806040525081019061401d91906152bf565b91506140298285613c81565b90506140358282613b75565b91506140d6565b6140468585613c81565b90506001600160a01b0388166306f429b888886140638986613b75565b876040518563ffffffff1660e01b8152600401614083949392919061540c565b60206040518083038186803b15801561409b57600080fd5b505afa1580156140af573d6000803e3d6000fd5b505050506040513d601f19601f820116820180604052508101906140d391906152bf565b91505b6141bf565b8615614119576140fc85613f646140f5620f4240886147af565b88906147db565b90506001600160a01b0388166306f429b888886140638986613b1b565b60405162de853760e31b81526000906001600160a01b038a16906306f429b89061414d908b908b908b908a9060040161540c565b60206040518083038186803b15801561416557600080fd5b505afa158015614179573d6000803e3d6000fd5b505050506040513d601f19601f8201168201806040525081019061419d91906152bf565b90506141af6139dc620f4240876147af565b92506141bb8382613b75565b9150505b965096945050505050565b82156141f557808210156141f05760405162461bcd60e51b8152600401610d909061583c565b612a19565b80821115612a195760405162461bcd60e51b8152600401610d90906159b7565b6000806142228787613b1b565b905061423d61423686600160601b89613bd2565b8490613b1b565b925061288f61424d848884613bd2565b614258868a85613bd2565b90613b1b565b6001600160a01b03821660009081526020849052604081205415158061429d57506001600160a01b038316600090815260018501602052604090205415155b6003850180549192509060005b8181101561438d57856001600160a01b03168382815481106142c857fe5b6000918252602090912001546001600160a01b03161415614385578361437c578260018303815481106142f757fe5b9060005260206000200160009054906101000a90046001600160a01b031683828154811061432157fe5b9060005260206000200160006101000a8154816001600160a01b0302191690836001600160a01b031602179055508280548061435957fe5b600082815260209020810160001990810180546001600160a01b03191690550190555b50505050612a19565b6001016142aa565b508261439b57505050612a19565b8360ff168160010111156143f0576040805162461bcd60e51b8152602060048201526017602482015276414c5f55503a20746f6f206d616e79206d61726b65747360481b604482015290519081900360640190fd5b508054600181018255600091825260209091200180546001600160a01b0385166001600160a01b031990911617905550505050565b61442d6150cf565b61443b868360a00151612ddc565b1560e082015261012082015161446c578060e0015161446c5760405162461bcd60e51b8152600401610d9090615871565b600086600001600084600001516001600160a01b03166001600160a01b031681526020019081526020016000206000015490506144d28785856000015186602001518760400151886060015189608001518a60e001518b61010001518b60e001516149e3565b60608601526040850152602084015280835260009081906144f290614961565b84516145089061450390869061382d565b614961565b021390508260e001511561456a5780156145345760405162461bcd60e51b8152600401610d90906154d3565b61455a8860020188888760a001518861014001516145558960200151613773565b614ad2565b60c086015260a085015260808401525b801561459a5761457e888560c0015161379c565b61459a5760405162461bcd60e51b8152600401610d90906159ec565b505095945050505050565b6000600160ff1b82136145ca5760405162461bcd60e51b8152600401610d9090615927565b5060000390565b600080821215613829576040805162461bcd60e51b815260206004820181905260248201527f53616665436173743a2076616c7565206d75737420626520706f736974697665604482015290519081900360640190fd5b60008183126146375781610a40565b5090919050565b600281015460038201805460009290835b8181101561478e57600084828154811061466557fe5b60009182526020808320909101546001600160a01b031680835260018a810183526040808520938c905290932080549301549093509091906146a890879061382d565b82549096501561476757600080846001600160a01b031663933c79798560000154866001015487600201546040518463ffffffff1660e01b8152600401808481526020018381526020018281526020019350505050604080518083038186803b15801561471457600080fd5b505afa158015614728573d6000803e3d6000fd5b505050506040513d604081101561473e57600080fd5b5080516020909101519092509050614756838361382d565b9250614762888261382d565b975050505b60008112156147805760009750505050505050506107b4565b50505080600101905061464f565b5050600013159392505050565b60006147a6826137e5565b60000392915050565b60008262ffffff168262ffffff161115613bcc5760405162461bcd60e51b8152600401610d90906155fb565b6000610a4083620f42408462ffffff16613bd2565b6000808211614846576040805162461bcd60e51b815260206004820152601a60248201527f536166654d6174683a206469766973696f6e206279207a65726f000000000000604482015290519081900360640190fd5b81838161484f57fe5b049392505050565b60008261486657506000610a08565b8282028284828161487357fe5b0414610a405760405162461bcd60e51b8152600401808060200182810382526021815260200180615d066021913960400191505060405180910390fd5b6000614905826040518060400160405280602081526020017f5361666545524332303a206c6f772d6c6576656c2063616c6c206661696c6564815250856001600160a01b0316614b6f9092919063ffffffff16565b805190915015612a195780806020019051602081101561492457600080fd5b5051612a195760405162461bcd60e51b815260040180806020018281038252602a815260200180615d93602a913960400191505060405180910390fd5b6000808213614981576000821261497957600061378e565b6000196107b1565b506001919050565b604080516001600160a01b0380861660248301528416604482015260648082018490528251808303909101815260849091019091526020810180516001600160e01b03166323b872dd60e01b179052613f879085906148b0565b60008080808062ffffff871615614a0c57614a038e8e8e8e8e8c8c614b7e565b92509050614a93565b6040516380796d5560e01b81526001600160a01b038e16906380796d5590614a3e908f908f908f908c9060040161540c565b602060405180830381600087803b158015614a5857600080fd5b505af1158015614a6c573d6000803e3d6000fd5b505050506040513d601f19601f82011682018060405250810190614a9091906152bf565b90505b614a9e8b828b6141ca565b614aaa8c8c8c84614dca565b9095509350614abe8f8e878760008d613c96565b9250509a509a509a509a9650505050505050565b60008080614ae08487613c81565b8551909350614af0908490613c81565b9150614afc8383613b75565b9050614b15876001015483876020015161ffff16614e39565b60018901919091559150614b33614b2b846137e5565b8a5490613a64565b8955614b49614b41836137e5565b89549061382d565b8855614b5f614b57826137e5565b88549061382d565b9096559097909650939450505050565b60606108a48484600085614e6d565b6000808515614cd1578615614c30576040516380796d5560e01b81526001600160a01b038916906380796d5590614bbf908a908a908a90899060040161540c565b602060405180830381600087803b158015614bd957600080fd5b505af1158015614bed573d6000803e3d6000fd5b505050506040513d601f19601f82011682018060405250810190614c1191906152bf565b9150614c1d8285613c81565b9050614c298282613b75565b9150614ccc565b614c3a8585613c81565b90506001600160a01b0388166380796d558888614c578986613b75565b876040518563ffffffff1660e01b8152600401614c77949392919061540c565b602060405180830381600087803b158015614c9157600080fd5b505af1158015614ca5573d6000803e3d6000fd5b505050506040513d601f19601f82011682018060405250810190614cc991906152bf565b91505b614db1565b8615614d0857614ceb85613f646140f5620f4240886147af565b90506001600160a01b0388166380796d558888614c578986613b1b565b6040516380796d5560e01b81526000906001600160a01b038a16906380796d5590614d3d908b908b908b908a9060040161540c565b602060405180830381600087803b158015614d5757600080fd5b505af1158015614d6b573d6000803e3d6000fd5b505050506040513d601f19601f82011682018060405250810190614d8f91906152bf565b9050614da16139dc620f4240876147af565b9250614dad8382613b75565b9150505b8854614dbd9082613b1b565b9098559795505050505050565b6000808415614e06578515614df457614de28461479b565b614deb846137e5565b91509150614e30565b614dfd836137e5565b614deb8561479b565b8515614e1e57614e158361479b565b614deb856137e5565b614e27846137e5565b614deb8461479b565b94509492505050565b600080614e468585613b1b565b9450614e578562ffffff85166147f0565b9050614e638582613b75565b9150935093915050565b606082471015614eae5760405162461bcd60e51b8152600401808060200182810382526026815260200180615ce06026913960400191505060405180910390fd5b614eb785612547565b614f08576040805162461bcd60e51b815260206004820152601d60248201527f416464726573733a2063616c6c20746f206e6f6e2d636f6e7472616374000000604482015290519081900360640190fd5b600080866001600160a01b031685876040518082805190602001908083835b60208310614f465780518252601f199092019160209182019101614f27565b6001836020036101000a03801982511681845116808217855250505050505090500191505060006040518083038185875af1925050503d8060008114614fa8576040519150601f19603f3d011682016040523d82523d6000602084013e614fad565b606091505b509150915061288f82828660608315614fc7575081610a40565b825115614fd75782518084602001fd5b8160405162461bcd60e51b81526004018080602001828103825283818151815260200191508051906020019080838360005b83811015615021578181015183820152602001615009565b50505050905090810190601f16801561504e5780820380516001836020036101000a031916815260200191505b509250505060405180910390fd5b604051806040016040528060008152602001600081525090565b60405180606001604052806000815260200160008152602001600081525090565b6040518060c0016040528060008152602001600081526020016000815260200160008152602001600081526020016000151581525090565b604051806101000160405280600081526020016000815260200160008152602001600081526020016000815260200160008152602001600081526020016000151581525090565b80356001600160a01b03811681146107b457600080fd5b803580151581146107b457600080fd5b600060c0828403121561514e578081fd5b50919050565b600060e0828403121561514e578081fd5b600060208284031215615176578081fd5b610a4082615116565b60008060408385031215615191578081fd5b61519a83615116565b91506151a860208401615116565b90509250929050565b600080604083850312156151c3578182fd5b6151cc83615116565b91506151a86020840161512d565b6000602082840312156151eb578081fd5b610a408261512d565b60008060408385031215615206578182fd5b505080516020909101519092909150565b600060c08284031215615228578081fd5b610a40838361513d565b60006040828403121561514e578081fd5b600060a0828403121561514e578081fd5b600060e08284031215615265578081fd5b610a408383615154565b600060208284031215615280578081fd5b8135610a4081615c45565b60006020828403121561529c578081fd5b8135610a4081615c58565b6000602082840312156152b8578081fd5b5035919050565b6000602082840312156152d0578081fd5b5051919050565b6000806000606084860312156152eb578081fd5b8351925060208401519150604084015190509250925092565b600060208284031215615315578081fd5b8135610a4081615c69565b600060208284031215615331578081fd5b8151610a4081615c69565b6001600160a01b0391909116815260200190565b6001600160a01b03999099168952602089019790975260408801959095526060870193909352608086019190915260a085015260c084015260e08301526101008201526101200190565b6020808252825182820181905260009190848201906040850190845b818110156153db5783516001600160a01b0316835292840192918401916001016153b6565b50909695505050505050565b901515815260200190565b921515835290151560208301521515604082015260600190565b9315158452911515602084015260408301521515606082015260800190565b90815260200190565b958652602086019490945260408501929092526060840152608083015260a082015260c00190565b988952602089019790975260408801959095526060870193909352608086019190915260a085015260c084015260e08301526101008201526101200190565b918252602082015260400190565b60208082526010908201526f4d4c5f524c3a20656e6f756768206d6d60801b604082015260600190565b6020808252601f908201527f544c5f4f503a206e6f206f70656e207768656e206c69717569646174696f6e00604082015260600190565b60208082526015908201527450455f443a20616d6f756e74206e6f74207a65726f60581b604082015260600190565b602080825260119082015270159317d10e881e995c9bc8185b5bdd5b9d607a1b604082015260600190565b6020808252601490820152732a262fa0aa2a211d103732bb32b91037b1b1bab960611b604082015260600190565b602080825260189082015277564c5f5449463a206e656761746976652062616c616e636560401b604082015260600190565b6020808252601f908201527f564c5f5443413a20746f6f206c6172676520646563696d616c73206469666600604082015260600190565b6020808252601e908201527f506572704d6174683a207375627472616374696f6e206f766572666c6f770000604082015260600190565b60208082526012908201527150455f535046523a20746f6f206c6172676560701b604082015260600190565b6020808252601b908201527f50455f534d523a20626967676572207468616e20696d526174696f0000000000604082015260600190565b6020808252601f908201527f564c5f573a206e6f7420656e6f75676820696e697469616c206d617267696e00604082015260600190565b6020808252601c908201527f564c5f5454493a20696e636f6e73697374656e742062616c616e636500000000604082015260600190565b6020808252601a908201527f50455f434d413a206d61726b6574206e6f7420616c6c6f776564000000000000604082015260600190565b6020808252601c908201527f4d4c5f414c3a20746f6f20736d616c6c206f7574707574206261736500000000604082015260600190565b602080825260119082015270159317d5ce881e995c9bc8185b5bdd5b9d607a1b604082015260600190565b6020808252601f908201527f50455f534c52433a20746f6f206c617267652072657761726420726174696f00604082015260600190565b6020808252601f908201527f50455f53494d413a206d61726b6574206164647265737320696e76616c696400604082015260600190565b60208082526018908201527750455f443a206d73672e76616c7565206e6f74207a65726f60401b604082015260600190565b6020808252818101527f544c5f56533a20746f6f20736d616c6c206f70706f7369746520616d6f756e74604082015260600190565b60208082526010908201526f544c5f4f503a20656e6f756768206d6d60801b604082015260600190565b602080825260129082015271159317d1114e881e995c9bc8185b5bdd5b9d60721b604082015260600190565b6020808252600f908201526e50455f43443a20746f6f206c61746560881b604082015260600190565b6020808252601d908201527f4d4c5f414c3a20746f6f20736d616c6c206f75747075742071756f7465000000604082015260600190565b6020808252601c908201527f506572704d6174683a20696e76657273696f6e206f766572666c6f7700000000604082015260600190565b6020808252600c908201526b50455f534d523a207a65726f60a01b604082015260600190565b60208082526019908201527850455f534c52433a20656d612074696d65206973207a65726f60381b604082015260600190565b6020808252818101527f544c5f56533a20746f6f206c61726765206f70706f7369746520616d6f756e74604082015260600190565b602080825260149082015273544c5f4f503a206e6f7420656e6f75676820696d60601b604082015260600190565b6020808252601c908201527f50455f5349523a20736d616c6c6572207468616e206d6d526174696f00000000604082015260600190565b602080825260119082015270544c5f4f50443a20656e6f756768206d6d60781b604082015260600190565b6020808252601c908201527f4d4c5f524c3a20746f6f20736d616c6c206f7574707574206261736500000000604082015260600190565b60208082526011908201527050455f5349523a20746f6f206c6172676560781b604082015260600190565b602080825260169082015275151317d05515108e881a5b9d985b1a59081a5b9c1d5d60521b604082015260600190565b6020808252601490820152734d4c5f414c3a206e6f7420656e6f75676820696d60601b604082015260600190565b81518152602080830151908201526040918201519181019190915260600190565b815181526020918201519181019190915260400190565b9051815260200190565b62ffffff91909116815260200190565b62ffffff92909216825261ffff16602082015260400190565b9283526020830191909152604082015260600190565b968752602087019590955260408601939093526060850191909152608084015260a083015260c082015260e00190565b60ff91909116815260200190565b8135615c0681615c58565b815462ffffff191662ffffff91909116178082556020830135615c2881615c45565b64ffff0000008160181b1664ffff00000019831617835550505050565b61ffff81168114615c5557600080fd5b50565b62ffffff81168114615c5557600080fd5b60ff81168114615c5557600080fdfe5265656e7472616e637947756172643a207265656e7472616e742063616c6c004f776e61626c653a206e6577206f776e657220697320746865207a65726f20616464726573735369676e6564536166654d6174683a206164646974696f6e206f766572666c6f77416464726573733a20696e73756666696369656e742062616c616e636520666f722063616c6c536166654d6174683a206d756c7469706c69636174696f6e206f766572666c6f774f776e61626c653a2063616c6c6572206973206e6f7420746865206f776e657253616665436173743a2076616c756520646f65736e27742066697420696e20616e20696e743235365369676e6564536166654d6174683a207375627472616374696f6e206f766572666c6f775361666545524332303a204552433230206f7065726174696f6e20646964206e6f742073756363656564a26469706673582212208c3b4325c2e73169243bc8d2eca7790d244956fb0c284df0e0d8fd9d22ca132d64736f6c63430007060033",
  "devdoc": {
    "kind": "dev",
    "methods": {
      "owner()": {
        "details": "Returns the address of the current owner."
      },
      "renounceOwnership()": {
        "details": "Leaves the contract without owner. It will not be possible to call `onlyOwner` functions anymore. Can only be called by the current owner. NOTE: Renouncing ownership will leave the contract without an owner, thereby removing any functionality that is only available to the owner."
      },
      "transferOwnership(address)": {
        "details": "Transfers ownership of the contract to a new account (`newOwner`). Can only be called by the current owner."
      }
    },
    "version": 1
  },
  "userdoc": {
    "kind": "user",
    "methods": {},
    "version": 1
  },
  "storageLayout": {
    "storage": [
      {
        "astId": 3005,
        "contract": "contracts/PerpdexExchange.sol:PerpdexExchange",
        "label": "_status",
        "offset": 0,
        "slot": "0",
        "type": "t_uint256"
      },
      {
        "astId": 290,
        "contract": "contracts/PerpdexExchange.sol:PerpdexExchange",
        "label": "_owner",
        "offset": 0,
        "slot": "1",
        "type": "t_address"
      },
      {
        "astId": 3580,
        "contract": "contracts/PerpdexExchange.sol:PerpdexExchange",
        "label": "accountInfos",
        "offset": 0,
        "slot": "2",
        "type": "t_mapping(t_address,t_struct(AccountInfo)8478_storage)"
      },
      {
        "astId": 3583,
        "contract": "contracts/PerpdexExchange.sol:PerpdexExchange",
        "label": "insuranceFundInfo",
        "offset": 0,
        "slot": "3",
        "type": "t_struct(InsuranceFundInfo)8483_storage"
      },
      {
        "astId": 3586,
        "contract": "contracts/PerpdexExchange.sol:PerpdexExchange",
        "label": "protocolInfo",
        "offset": 0,
        "slot": "5",
        "type": "t_struct(ProtocolInfo)8486_storage"
      },
      {
        "astId": 3597,
        "contract": "contracts/PerpdexExchange.sol:PerpdexExchange",
        "label": "maxMarketsPerAccount",
        "offset": 0,
        "slot": "6",
        "type": "t_uint8"
      },
      {
        "astId": 3601,
        "contract": "contracts/PerpdexExchange.sol:PerpdexExchange",
        "label": "imRatio",
        "offset": 1,
        "slot": "6",
        "type": "t_uint24"
      },
      {
        "astId": 3605,
        "contract": "contracts/PerpdexExchange.sol:PerpdexExchange",
        "label": "mmRatio",
        "offset": 4,
        "slot": "6",
        "type": "t_uint24"
      },
      {
        "astId": 3609,
        "contract": "contracts/PerpdexExchange.sol:PerpdexExchange",
        "label": "protocolFeeRatio",
        "offset": 7,
        "slot": "6",
        "type": "t_uint24"
      },
      {
        "astId": 3617,
        "contract": "contracts/PerpdexExchange.sol:PerpdexExchange",
        "label": "liquidationRewardConfig",
        "offset": 0,
        "slot": "7",
        "type": "t_struct(LiquidationRewardConfig)8491_storage"
      },
      {
        "astId": 3622,
        "contract": "contracts/PerpdexExchange.sol:PerpdexExchange",
        "label": "isMarketAllowed",
        "offset": 0,
        "slot": "8",
        "type": "t_mapping(t_address,t_bool)"
      }
    ],
    "types": {
      "t_address": {
        "encoding": "inplace",
        "label": "address",
        "numberOfBytes": "20"
      },
      "t_array(t_address)dyn_storage": {
        "base": "t_address",
        "encoding": "dynamic_array",
        "label": "address[]",
        "numberOfBytes": "32"
      },
      "t_bool": {
        "encoding": "inplace",
        "label": "bool",
        "numberOfBytes": "1"
      },
      "t_int256": {
        "encoding": "inplace",
        "label": "int256",
        "numberOfBytes": "32"
      },
      "t_mapping(t_address,t_bool)": {
        "encoding": "mapping",
        "key": "t_address",
        "label": "mapping(address => bool)",
        "numberOfBytes": "32",
        "value": "t_bool"
      },
      "t_mapping(t_address,t_struct(AccountInfo)8478_storage)": {
        "encoding": "mapping",
        "key": "t_address",
        "label": "mapping(address => struct PerpdexStructs.AccountInfo)",
        "numberOfBytes": "32",
        "value": "t_struct(AccountInfo)8478_storage"
      },
      "t_mapping(t_address,t_struct(MakerInfo)8461_storage)": {
        "encoding": "mapping",
        "key": "t_address",
        "label": "mapping(address => struct PerpdexStructs.MakerInfo)",
        "numberOfBytes": "32",
        "value": "t_struct(MakerInfo)8461_storage"
      },
      "t_mapping(t_address,t_struct(TakerInfo)8454_storage)": {
        "encoding": "mapping",
        "key": "t_address",
        "label": "mapping(address => struct PerpdexStructs.TakerInfo)",
        "numberOfBytes": "32",
        "value": "t_struct(TakerInfo)8454_storage"
      },
      "t_struct(AccountInfo)8478_storage": {
        "encoding": "inplace",
        "label": "struct PerpdexStructs.AccountInfo",
        "members": [
          {
            "astId": 8468,
            "contract": "contracts/PerpdexExchange.sol:PerpdexExchange",
            "label": "takerInfos",
            "offset": 0,
            "slot": "0",
            "type": "t_mapping(t_address,t_struct(TakerInfo)8454_storage)"
          },
          {
            "astId": 8472,
            "contract": "contracts/PerpdexExchange.sol:PerpdexExchange",
            "label": "makerInfos",
            "offset": 0,
            "slot": "1",
            "type": "t_mapping(t_address,t_struct(MakerInfo)8461_storage)"
          },
          {
            "astId": 8474,
            "contract": "contracts/PerpdexExchange.sol:PerpdexExchange",
            "label": "vaultInfo",
            "offset": 0,
            "slot": "2",
            "type": "t_struct(VaultInfo)8464_storage"
          },
          {
            "astId": 8477,
            "contract": "contracts/PerpdexExchange.sol:PerpdexExchange",
            "label": "markets",
            "offset": 0,
            "slot": "3",
            "type": "t_array(t_address)dyn_storage"
          }
        ],
        "numberOfBytes": "128"
      },
      "t_struct(InsuranceFundInfo)8483_storage": {
        "encoding": "inplace",
        "label": "struct PerpdexStructs.InsuranceFundInfo",
        "members": [
          {
            "astId": 8480,
            "contract": "contracts/PerpdexExchange.sol:PerpdexExchange",
            "label": "balance",
            "offset": 0,
            "slot": "0",
            "type": "t_int256"
          },
          {
            "astId": 8482,
            "contract": "contracts/PerpdexExchange.sol:PerpdexExchange",
            "label": "liquidationRewardBalance",
            "offset": 0,
            "slot": "1",
            "type": "t_uint256"
          }
        ],
        "numberOfBytes": "64"
      },
      "t_struct(LiquidationRewardConfig)8491_storage": {
        "encoding": "inplace",
        "label": "struct PerpdexStructs.LiquidationRewardConfig",
        "members": [
          {
            "astId": 8488,
            "contract": "contracts/PerpdexExchange.sol:PerpdexExchange",
            "label": "rewardRatio",
            "offset": 0,
            "slot": "0",
            "type": "t_uint24"
          },
          {
            "astId": 8490,
            "contract": "contracts/PerpdexExchange.sol:PerpdexExchange",
            "label": "smoothEmaTime",
            "offset": 3,
            "slot": "0",
            "type": "t_uint16"
          }
        ],
        "numberOfBytes": "32"
      },
      "t_struct(MakerInfo)8461_storage": {
        "encoding": "inplace",
        "label": "struct PerpdexStructs.MakerInfo",
        "members": [
          {
            "astId": 8456,
            "contract": "contracts/PerpdexExchange.sol:PerpdexExchange",
            "label": "liquidity",
            "offset": 0,
            "slot": "0",
            "type": "t_uint256"
          },
          {
            "astId": 8458,
            "contract": "contracts/PerpdexExchange.sol:PerpdexExchange",
            "label": "cumBaseSharePerLiquidityX96",
            "offset": 0,
            "slot": "1",
            "type": "t_uint256"
          },
          {
            "astId": 8460,
            "contract": "contracts/PerpdexExchange.sol:PerpdexExchange",
            "label": "cumQuotePerLiquidityX96",
            "offset": 0,
            "slot": "2",
            "type": "t_uint256"
          }
        ],
        "numberOfBytes": "96"
      },
      "t_struct(ProtocolInfo)8486_storage": {
        "encoding": "inplace",
        "label": "struct PerpdexStructs.ProtocolInfo",
        "members": [
          {
            "astId": 8485,
            "contract": "contracts/PerpdexExchange.sol:PerpdexExchange",
            "label": "protocolFee",
            "offset": 0,
            "slot": "0",
            "type": "t_uint256"
          }
        ],
        "numberOfBytes": "32"
      },
      "t_struct(TakerInfo)8454_storage": {
        "encoding": "inplace",
        "label": "struct PerpdexStructs.TakerInfo",
        "members": [
          {
            "astId": 8451,
            "contract": "contracts/PerpdexExchange.sol:PerpdexExchange",
            "label": "baseBalanceShare",
            "offset": 0,
            "slot": "0",
            "type": "t_int256"
          },
          {
            "astId": 8453,
            "contract": "contracts/PerpdexExchange.sol:PerpdexExchange",
            "label": "quoteBalance",
            "offset": 0,
            "slot": "1",
            "type": "t_int256"
          }
        ],
        "numberOfBytes": "64"
      },
      "t_struct(VaultInfo)8464_storage": {
        "encoding": "inplace",
        "label": "struct PerpdexStructs.VaultInfo",
        "members": [
          {
            "astId": 8463,
            "contract": "contracts/PerpdexExchange.sol:PerpdexExchange",
            "label": "collateralBalance",
            "offset": 0,
            "slot": "0",
            "type": "t_int256"
          }
        ],
        "numberOfBytes": "32"
      },
      "t_uint16": {
        "encoding": "inplace",
        "label": "uint16",
        "numberOfBytes": "2"
      },
      "t_uint24": {
        "encoding": "inplace",
        "label": "uint24",
        "numberOfBytes": "3"
      },
      "t_uint256": {
        "encoding": "inplace",
        "label": "uint256",
        "numberOfBytes": "32"
      },
      "t_uint8": {
        "encoding": "inplace",
        "label": "uint8",
        "numberOfBytes": "1"
      }
    }
  }
}