{
  "address": "0x10Ae92bC92383efBF9F9f1cDb3C1B41A8063E6a2",
  "abi": [
    {
      "inputs": [
        {
          "internalType": "string",
          "name": "symbolArg",
          "type": "string"
        },
        {
          "internalType": "address",
          "name": "exchangeArg",
          "type": "address"
        },
        {
          "internalType": "address",
          "name": "priceFeedBaseArg",
          "type": "address"
        },
        {
          "internalType": "address",
          "name": "priceFeedQuoteArg",
          "type": "address"
        }
      ],
      "stateMutability": "nonpayable",
      "type": "constructor"
    },
    {
      "anonymous": false,
      "inputs": [
        {
          "indexed": false,
          "internalType": "uint32",
          "name": "value",
          "type": "uint32"
        }
      ],
      "name": "FundingMaxElapsedSecChanged",
      "type": "event"
    },
    {
      "anonymous": false,
      "inputs": [
        {
          "indexed": false,
          "internalType": "uint24",
          "name": "value",
          "type": "uint24"
        }
      ],
      "name": "FundingMaxPremiumRatioChanged",
      "type": "event"
    },
    {
      "anonymous": false,
      "inputs": [
        {
          "indexed": false,
          "internalType": "int256",
          "name": "fundingRateX96",
          "type": "int256"
        },
        {
          "indexed": false,
          "internalType": "uint32",
          "name": "elapsedSec",
          "type": "uint32"
        },
        {
          "indexed": false,
          "internalType": "int256",
          "name": "premiumX96",
          "type": "int256"
        },
        {
          "indexed": false,
          "internalType": "uint256",
          "name": "markPriceX96",
          "type": "uint256"
        },
        {
          "indexed": false,
          "internalType": "uint256",
          "name": "cumBasePerLiquidityX96",
          "type": "uint256"
        },
        {
          "indexed": false,
          "internalType": "uint256",
          "name": "cumQuotePerLiquidityX96",
          "type": "uint256"
        }
      ],
      "name": "FundingPaid",
      "type": "event"
    },
    {
      "anonymous": false,
      "inputs": [
        {
          "indexed": false,
          "internalType": "uint32",
          "name": "value",
          "type": "uint32"
        }
      ],
      "name": "FundingRolloverSecChanged",
      "type": "event"
    },
    {
      "anonymous": false,
      "inputs": [
        {
          "indexed": false,
          "internalType": "uint256",
          "name": "base",
          "type": "uint256"
        },
        {
          "indexed": false,
          "internalType": "uint256",
          "name": "quote",
          "type": "uint256"
        },
        {
          "indexed": false,
          "internalType": "uint256",
          "name": "liquidity",
          "type": "uint256"
        }
      ],
      "name": "LiquidityAdded",
      "type": "event"
    },
    {
      "anonymous": false,
      "inputs": [
        {
          "indexed": false,
          "internalType": "uint256",
          "name": "base",
          "type": "uint256"
        },
        {
          "indexed": false,
          "internalType": "uint256",
          "name": "quote",
          "type": "uint256"
        },
        {
          "indexed": false,
          "internalType": "uint256",
          "name": "liquidity",
          "type": "uint256"
        }
      ],
      "name": "LiquidityRemoved",
      "type": "event"
    },
    {
      "anonymous": false,
      "inputs": [
        {
          "indexed": true,
          "internalType": "address",
          "name": "previousOwner",
          "type": "address"
        },
        {
          "indexed": true,
          "internalType": "address",
          "name": "newOwner",
          "type": "address"
        }
      ],
      "name": "OwnershipTransferred",
      "type": "event"
    },
    {
      "anonymous": false,
      "inputs": [
        {
          "indexed": false,
          "internalType": "uint24",
          "name": "value",
          "type": "uint24"
        }
      ],
      "name": "PoolFeeRatioChanged",
      "type": "event"
    },
    {
      "anonymous": false,
      "inputs": [
        {
          "indexed": false,
          "internalType": "uint24",
          "name": "normalOrderRatio",
          "type": "uint24"
        },
        {
          "indexed": false,
          "internalType": "uint24",
          "name": "liquidationRatio",
          "type": "uint24"
        },
        {
          "indexed": false,
          "internalType": "uint24",
          "name": "emaNormalOrderRatio",
          "type": "uint24"
        },
        {
          "indexed": false,
          "internalType": "uint24",
          "name": "emaLiquidationRatio",
          "type": "uint24"
        },
        {
          "indexed": false,
          "internalType": "uint32",
          "name": "emaSec",
          "type": "uint32"
        }
      ],
      "name": "PriceLimitConfigChanged",
      "type": "event"
    },
    {
      "anonymous": false,
      "inputs": [
        {
          "indexed": false,
          "internalType": "bool",
          "name": "isBaseToQuote",
          "type": "bool"
        },
        {
          "indexed": false,
          "internalType": "bool",
          "name": "isExactInput",
          "type": "bool"
        },
        {
          "indexed": false,
          "internalType": "uint256",
          "name": "amount",
          "type": "uint256"
        },
        {
          "indexed": false,
          "internalType": "uint256",
          "name": "oppositeAmount",
          "type": "uint256"
        }
      ],
      "name": "Swapped",
      "type": "event"
    },
    {
      "inputs": [
        {
          "internalType": "uint256",
          "name": "baseShare",
          "type": "uint256"
        },
        {
          "internalType": "uint256",
          "name": "quoteBalance",
          "type": "uint256"
        }
      ],
      "name": "addLiquidity",
      "outputs": [
        {
          "internalType": "uint256",
          "name": "base",
          "type": "uint256"
        },
        {
          "internalType": "uint256",
          "name": "quote",
          "type": "uint256"
        },
        {
          "internalType": "uint256",
          "name": "liquidity",
          "type": "uint256"
        }
      ],
      "stateMutability": "nonpayable",
      "type": "function"
    },
    {
      "inputs": [],
      "name": "baseBalancePerShareX96",
      "outputs": [
        {
          "internalType": "uint256",
          "name": "",
          "type": "uint256"
        }
      ],
      "stateMutability": "view",
      "type": "function"
    },
    {
      "inputs": [],
      "name": "exchange",
      "outputs": [
        {
          "internalType": "address",
          "name": "",
          "type": "address"
        }
      ],
      "stateMutability": "view",
      "type": "function"
    },
    {
      "inputs": [],
      "name": "fundingInfo",
      "outputs": [
        {
          "internalType": "uint256",
          "name": "prevIndexPriceBase",
          "type": "uint256"
        },
        {
          "internalType": "uint256",
          "name": "prevIndexPriceQuote",
          "type": "uint256"
        },
        {
          "internalType": "uint256",
          "name": "prevIndexPriceTimestamp",
          "type": "uint256"
        }
      ],
      "stateMutability": "view",
      "type": "function"
    },
    {
      "inputs": [],
      "name": "fundingMaxElapsedSec",
      "outputs": [
        {
          "internalType": "uint32",
          "name": "",
          "type": "uint32"
        }
      ],
      "stateMutability": "view",
      "type": "function"
    },
    {
      "inputs": [],
      "name": "fundingMaxPremiumRatio",
      "outputs": [
        {
          "internalType": "uint24",
          "name": "",
          "type": "uint24"
        }
      ],
      "stateMutability": "view",
      "type": "function"
    },
    {
      "inputs": [],
      "name": "fundingRolloverSec",
      "outputs": [
        {
          "internalType": "uint32",
          "name": "",
          "type": "uint32"
        }
      ],
      "stateMutability": "view",
      "type": "function"
    },
    {
      "inputs": [],
      "name": "getCumDeleveragedPerLiquidityX96",
      "outputs": [
        {
          "internalType": "uint256",
          "name": "",
          "type": "uint256"
        },
        {
          "internalType": "uint256",
          "name": "",
          "type": "uint256"
        }
      ],
      "stateMutability": "view",
      "type": "function"
    },
    {
      "inputs": [
        {
          "internalType": "uint256",
          "name": "liquidity",
          "type": "uint256"
        },
        {
          "internalType": "uint256",
          "name": "cumBasePerLiquidityX96",
          "type": "uint256"
        },
        {
          "internalType": "uint256",
          "name": "cumQuotePerLiquidityX96",
          "type": "uint256"
        }
      ],
      "name": "getLiquidityDeleveraged",
      "outputs": [
        {
          "internalType": "int256",
          "name": "",
          "type": "int256"
        },
        {
          "internalType": "int256",
          "name": "",
          "type": "int256"
        }
      ],
      "stateMutability": "view",
      "type": "function"
    },
    {
      "inputs": [
        {
          "internalType": "uint256",
          "name": "liquidity",
          "type": "uint256"
        }
      ],
      "name": "getLiquidityValue",
      "outputs": [
        {
          "internalType": "uint256",
          "name": "",
          "type": "uint256"
        },
        {
          "internalType": "uint256",
          "name": "",
          "type": "uint256"
        }
      ],
      "stateMutability": "view",
      "type": "function"
    },
    {
      "inputs": [],
      "name": "getMarkPriceX96",
      "outputs": [
        {
          "internalType": "uint256",
          "name": "",
          "type": "uint256"
        }
      ],
      "stateMutability": "view",
      "type": "function"
    },
    {
      "inputs": [],
      "name": "getShareMarkPriceX96",
      "outputs": [
        {
          "internalType": "uint256",
          "name": "",
          "type": "uint256"
        }
      ],
      "stateMutability": "view",
      "type": "function"
    },
    {
      "inputs": [
        {
          "internalType": "bool",
          "name": "isBaseToQuote",
          "type": "bool"
        },
        {
          "internalType": "bool",
          "name": "isExactInput",
          "type": "bool"
        },
        {
          "internalType": "bool",
          "name": "isLiquidation",
          "type": "bool"
        }
      ],
      "name": "maxSwap",
      "outputs": [
        {
          "internalType": "uint256",
          "name": "amount",
          "type": "uint256"
        }
      ],
      "stateMutability": "view",
      "type": "function"
    },
    {
      "inputs": [],
      "name": "owner",
      "outputs": [
        {
          "internalType": "address",
          "name": "",
          "type": "address"
        }
      ],
      "stateMutability": "view",
      "type": "function"
    },
    {
      "inputs": [],
      "name": "poolFeeRatio",
      "outputs": [
        {
          "internalType": "uint24",
          "name": "",
          "type": "uint24"
        }
      ],
      "stateMutability": "view",
      "type": "function"
    },
    {
      "inputs": [],
      "name": "poolInfo",
      "outputs": [
        {
          "internalType": "uint256",
          "name": "base",
          "type": "uint256"
        },
        {
          "internalType": "uint256",
          "name": "quote",
          "type": "uint256"
        },
        {
          "internalType": "uint256",
          "name": "totalLiquidity",
          "type": "uint256"
        },
        {
          "internalType": "uint256",
          "name": "cumBasePerLiquidityX96",
          "type": "uint256"
        },
        {
          "internalType": "uint256",
          "name": "cumQuotePerLiquidityX96",
          "type": "uint256"
        },
        {
          "internalType": "uint256",
          "name": "baseBalancePerShareX96",
          "type": "uint256"
        }
      ],
      "stateMutability": "view",
      "type": "function"
    },
    {
      "inputs": [
        {
          "internalType": "bool",
          "name": "isBaseToQuote",
          "type": "bool"
        },
        {
          "internalType": "bool",
          "name": "isExactInput",
          "type": "bool"
        },
        {
          "internalType": "uint256",
          "name": "amount",
          "type": "uint256"
        },
        {
          "internalType": "bool",
          "name": "isLiquidation",
          "type": "bool"
        }
      ],
      "name": "previewSwap",
      "outputs": [
        {
          "internalType": "uint256",
          "name": "oppositeAmount",
          "type": "uint256"
        }
      ],
      "stateMutability": "view",
      "type": "function"
    },
    {
      "inputs": [],
      "name": "priceFeedBase",
      "outputs": [
        {
          "internalType": "address",
          "name": "",
          "type": "address"
        }
      ],
      "stateMutability": "view",
      "type": "function"
    },
    {
      "inputs": [],
      "name": "priceFeedQuote",
      "outputs": [
        {
          "internalType": "address",
          "name": "",
          "type": "address"
        }
      ],
      "stateMutability": "view",
      "type": "function"
    },
    {
      "inputs": [],
      "name": "priceLimitConfig",
      "outputs": [
        {
          "internalType": "uint24",
          "name": "normalOrderRatio",
          "type": "uint24"
        },
        {
          "internalType": "uint24",
          "name": "liquidationRatio",
          "type": "uint24"
        },
        {
          "internalType": "uint24",
          "name": "emaNormalOrderRatio",
          "type": "uint24"
        },
        {
          "internalType": "uint24",
          "name": "emaLiquidationRatio",
          "type": "uint24"
        },
        {
          "internalType": "uint32",
          "name": "emaSec",
          "type": "uint32"
        }
      ],
      "stateMutability": "view",
      "type": "function"
    },
    {
      "inputs": [],
      "name": "priceLimitInfo",
      "outputs": [
        {
          "internalType": "uint256",
          "name": "referencePrice",
          "type": "uint256"
        },
        {
          "internalType": "uint256",
          "name": "referenceTimestamp",
          "type": "uint256"
        },
        {
          "internalType": "uint256",
          "name": "emaPrice",
          "type": "uint256"
        }
      ],
      "stateMutability": "view",
      "type": "function"
    },
    {
      "inputs": [
        {
          "internalType": "uint256",
          "name": "liquidity",
          "type": "uint256"
        }
      ],
      "name": "removeLiquidity",
      "outputs": [
        {
          "internalType": "uint256",
          "name": "base",
          "type": "uint256"
        },
        {
          "internalType": "uint256",
          "name": "quote",
          "type": "uint256"
        }
      ],
      "stateMutability": "nonpayable",
      "type": "function"
    },
    {
      "inputs": [],
      "name": "renounceOwnership",
      "outputs": [],
      "stateMutability": "nonpayable",
      "type": "function"
    },
    {
      "inputs": [
        {
          "internalType": "uint32",
          "name": "value",
          "type": "uint32"
        }
      ],
      "name": "setFundingMaxElapsedSec",
      "outputs": [],
      "stateMutability": "nonpayable",
      "type": "function"
    },
    {
      "inputs": [
        {
          "internalType": "uint24",
          "name": "value",
          "type": "uint24"
        }
      ],
      "name": "setFundingMaxPremiumRatio",
      "outputs": [],
      "stateMutability": "nonpayable",
      "type": "function"
    },
    {
      "inputs": [
        {
          "internalType": "uint32",
          "name": "value",
          "type": "uint32"
        }
      ],
      "name": "setFundingRolloverSec",
      "outputs": [],
      "stateMutability": "nonpayable",
      "type": "function"
    },
    {
      "inputs": [
        {
          "internalType": "uint24",
          "name": "value",
          "type": "uint24"
        }
      ],
      "name": "setPoolFeeRatio",
      "outputs": [],
      "stateMutability": "nonpayable",
      "type": "function"
    },
    {
      "inputs": [
        {
          "components": [
            {
              "internalType": "uint24",
              "name": "normalOrderRatio",
              "type": "uint24"
            },
            {
              "internalType": "uint24",
              "name": "liquidationRatio",
              "type": "uint24"
            },
            {
              "internalType": "uint24",
              "name": "emaNormalOrderRatio",
              "type": "uint24"
            },
            {
              "internalType": "uint24",
              "name": "emaLiquidationRatio",
              "type": "uint24"
            },
            {
              "internalType": "uint32",
              "name": "emaSec",
              "type": "uint32"
            }
          ],
          "internalType": "struct MarketStructs.PriceLimitConfig",
          "name": "value",
          "type": "tuple"
        }
      ],
      "name": "setPriceLimitConfig",
      "outputs": [],
      "stateMutability": "nonpayable",
      "type": "function"
    },
    {
      "inputs": [
        {
          "internalType": "bool",
          "name": "isBaseToQuote",
          "type": "bool"
        },
        {
          "internalType": "bool",
          "name": "isExactInput",
          "type": "bool"
        },
        {
          "internalType": "uint256",
          "name": "amount",
          "type": "uint256"
        },
        {
          "internalType": "bool",
          "name": "isLiquidation",
          "type": "bool"
        }
      ],
      "name": "swap",
      "outputs": [
        {
          "internalType": "uint256",
          "name": "oppositeAmount",
          "type": "uint256"
        }
      ],
      "stateMutability": "nonpayable",
      "type": "function"
    },
    {
      "inputs": [],
      "name": "symbol",
      "outputs": [
        {
          "internalType": "string",
          "name": "",
          "type": "string"
        }
      ],
      "stateMutability": "view",
      "type": "function"
    },
    {
      "inputs": [
        {
          "internalType": "address",
          "name": "newOwner",
          "type": "address"
        }
      ],
      "name": "transferOwnership",
      "outputs": [],
      "stateMutability": "nonpayable",
      "type": "function"
    }
  ],
  "transactionHash": "0xb03f03cb187983c404563ed70bec957c52b95d43d96a78118ce6148c323f2f20",
  "args": [
    "ETH",
    "0xd2dcEC5bA4Cb81b8A04B5494E19739Dba017cAd0",
    "0x17E97c09D858BE1e7C57fec1ED12447D05ec94F4",
    "0x486422E06cae127ED59998C52e7188dBED73d362"
  ],
  "numDeployments": 2,
  "solcInputHash": "64121bb9c4cbc9bd83e481e7869a311b",
  "bytecode": "0x600f8054610bb862ffffff199182161765ffffff000000199081166427100000001763ffffffff60301b1916680151800000000000001763ffffffff60501b19166102a360571b1790925561018060405261c35060e0819052620186a06101005262030d40610120526203d0906101405261012c610160526010805490921617909116650186a00000001762ffffff60301b191668030d400000000000001762ffffff60481b19166b03d0900000000000000000001763ffffffff60601b1916604b60621b179055348015620000d457600080fd5b506040516200376e3803806200376e833981016040819052620000f79162000363565b600160009081556200010862000272565b600180546001600160a01b0319166001600160a01b038316908117909155604051919250906000907f8be0079c531659141344cd1fd0a4f28419497f9722a3daafe3b4186f6b6457e0908290a3506001600160a01b038216158062000187575062000187826001600160a01b03166200027660201b620012ec1760201c565b620001af5760405162461bcd60e51b8152600401620001a69062000493565b60405180910390fd5b6001600160a01b0381161580620001e05750620001e0816001600160a01b03166200027660201b620012ec1760201c565b620001ff5760405162461bcd60e51b8152600401620001a6906200045c565b8351620002149060029060208701906200029f565b50606083811b6001600160601b031990811660805283821b811660a0529082901b1660c05262000251600962000280602090811b620012f617901c565b6200026860036200028960201b620012ff1760201c565b50505050620004ca565b3390565b803b15155b919050565b42600290910155565b6c01000000000000000000000000600590910155565b828054600181600116156101000203166002900490600052602060002090601f016020900481019282620002d7576000855562000322565b82601f10620002f257805160ff191683800117855562000322565b8280016001018555821562000322579182015b828111156200032257825182559160200191906001019062000305565b506200033092915062000334565b5090565b5b8082111562000330576000815560010162000335565b80516001600160a01b03811681146200027b57600080fd5b6000806000806080858703121562000379578384fd5b84516001600160401b038082111562000390578586fd5b818701915087601f830112620003a4578586fd5b815181811115620003b157fe5b6040516020601f8301601f1916820181018481118382101715620003d157fe5b60405282825284830181018b1015620003e8578889fd5b8893505b828410156200040b5784840181015182850182015292830192620003ec565b828411156200041c57888184840101525b8198506200042c818b016200034b565b9750505050505062000441604086016200034b565b915062000451606086016200034b565b905092959194509250565b6020808252601e908201527f504d5f433a2071756f7465207072696365206665656420696e76616c69640000604082015260600190565b6020808252601d908201527f504d5f433a2062617365207072696365206665656420696e76616c6964000000604082015260600190565b60805160601c60a05160601c60c05160601c61324b620005236000398061056a5280610d9c5280611573525080610ac25280610d7b528061154e5250806109635280610bd85280610cde5280610f65525061324b6000f3fe608060405234801561001057600080fd5b50600436106101a55760003560e01c806385aaa397116100ef5780639cd441da116100925780639cd441da146103465780639d67bf0314610359578063d2f7265a1461036c578063dba4915314610374578063e7a499311461037c578063e8fa204f1461038f578063f2289752146103a2578063f2fde38b146103aa576101a5565b806385aaa397146102d457806388e27dfb146102eb5780638da5cb5b146102f35780638ee8fe5d146102fb578063933c7979146103035780639482de1a1461031657806395d89b411461031e5780639c8f9f2314610333576101a5565b8063715018a611610157578063715018a61461025a5780637452fadd1461026257806374f256891461026a5780637640482f1461027d5780637661ce131461029e578063796c20b7146102a657806380796d55146102b9578063823f2b04146102cc576101a5565b806301e0df12146101aa57806306f429b8146101bf5780630e06e4d0146101e8578063186f181e146101fd5780633aa3e650146102125780635a2f3d09146102275780636346f32e14610241575b600080fd5b6101bd6101b836600461290a565b6103bd565b005b6101d26101cd3660046128a7565b6104ed565b6040516101df9190612f8e565b60405180910390f35b6101f0610568565b6040516101df91906129fb565b61020561058c565b6040516101df9190612fd5565b61021a61059f565b6040516101df9190612f4a565b61022f6105b1565b6040516101df96959493929190612fad565b6102496105c6565b6040516101df959493929190612f5a565b6101bd610600565b6101d26106ac565b6101bd61027836600461290a565b6106c8565b61029061028b366004612926565b6107e9565b6040516101df929190612a2c565b610205610800565b6101bd6102b43660046129a2565b610813565b6101d26102c73660046128a7565b61095f565b6101f0610ac0565b6102dc610ae4565b6040516101df93929190612f97565b61021a610af0565b6101f0610afb565b6101d2610b0a565b610290610311366004612977565b610b1c565b6101d2610b42565b610326610b48565b6040516101df9190612a68565b610290610341366004612926565b610bd3565b6102dc610354366004612956565b610cd8565b6101bd6103673660046129a2565b610e3c565b6101f0610f63565b6102dc610f87565b6101bd61038a3660046128f3565b610f93565b6101d261039d366004612865565b6111c9565b6102906111df565b6101bd6103b836600461283e565b6111e9565b6103c561130c565b6001600160a01b03166103d6610afb565b6001600160a01b03161461041f576040805162461bcd60e51b81526020600482018190526024820152600080516020613184833981519152604482015290519081900360640190fd5b60026000541415610465576040805162461bcd60e51b815260206004820152601f602482015260008051602061311d833981519152604482015290519081900360640190fd5b600260005561c35062ffffff8216111561049a5760405162461bcd60e51b815260040161049190612b09565b60405180910390fd5b600f805462ffffff191662ffffff83161790556040517ff02c81debd01d238f7814ac27bec8a7970b5271dc47842a419737b1ae313ca0f906104dd908390612f4a565b60405180910390a1506001600055565b6000806104fb868685611310565b5090508084111561051e5760405162461bcd60e51b815260040161049190612cd1565b6003546004546040805160808101825289151581528815156020820152600f5462ffffff16918101919091526060810187905261055e9291906000611389565b9695505050505050565b7f000000000000000000000000000000000000000000000000000000000000000081565b600f54600160501b900463ffffffff1681565b600f546301000000900462ffffff1681565b60035460045460055460065460075460085486565b60105462ffffff8082169163010000008104821691600160301b8204811691600160481b810490911690600160601b900463ffffffff1685565b61060861130c565b6001600160a01b0316610619610afb565b6001600160a01b031614610662576040805162461bcd60e51b81526020600482018190526024820152600080516020613184833981519152604482015290519081900360640190fd5b6001546040516000916001600160a01b0316907f8be0079c531659141344cd1fd0a4f28419497f9722a3daafe3b4186f6b6457e0908390a3600180546001600160a01b0319169055565b6003546004546008546000926106c392909161146a565b905090565b6106d061130c565b6001600160a01b03166106e1610afb565b6001600160a01b03161461072a576040805162461bcd60e51b81526020600482018190526024820152600080516020613184833981519152604482015290519081900360640190fd5b60026000541415610770576040805162461bcd60e51b815260206004820152601f602482015260008051602061311d833981519152604482015290519081900360640190fd5b6002600055620186a062ffffff8216111561079d5760405162461bcd60e51b815260040161049190612f1d565b600f805465ffffff0000001916630100000062ffffff8416021790556040517f55647f4dd43ac173f04e53a506df46454012316d82fb04a9c1dbd8e0f21f8f76906104dd908390612f4a565b6000806107f760038461148e565b91509150915091565b600f54600160301b900463ffffffff1681565b61081b61130c565b6001600160a01b031661082c610afb565b6001600160a01b031614610875576040805162461bcd60e51b81526020600482018190526024820152600080516020613184833981519152604482015290519081900360640190fd5b600260005414156108bb576040805162461bcd60e51b815260206004820152601f602482015260008051602061311d833981519152604482015290519081900360640190fd5b600260005562093a8063ffffffff821611156108e95760405162461bcd60e51b815260040161049190612e26565b610e108163ffffffff1610156109115760405162461bcd60e51b815260040161049190612dc3565b600f805463ffffffff60501b1916600160501b63ffffffff8416021790556040517fa703b265f29064a106acd6473c258e009bff9ac0bfd63b6f5ca4b712a25c8516906104dd908390612fd5565b60007f00000000000000000000000000000000000000000000000000000000000000006001600160a01b031633146109a95760405162461bcd60e51b815260040161049190612e81565b600260005414156109ef576040805162461bcd60e51b815260206004820152601f602482015260008051602061311d833981519152604482015290519081900360640190fd5b6002600090815580610a02878786611310565b9150915081851115610a265760405162461bcd60e51b815260040161049190612b35565b6040805160808101825288151581528715156020820152600f5462ffffff169181019190915260608101869052610a5f906003906114c2565b9250610a6c600c82611505565b7fdedf81f778c63a97f5a04bfeae9e0e04f18d283b04d930ea7b6af78b6eb50b7687878786604051610aa19493929190612a0f565b60405180910390a1610ab1611530565b50506001600055949350505050565b7f000000000000000000000000000000000000000000000000000000000000000081565b600c54600d54600e5483565b600f5462ffffff1681565b6001546001600160a01b031690565b6003546004546000916106c391611657565b600080610b356003800154600360040154878787611671565b915091505b935093915050565b60085490565b6002805460408051602060018416156101000260001901909316849004601f81018490048402820184019092528181529291830182828015610bcb5780601f10610ba057610100808354040283529160200191610bcb565b820191906000526020600020905b815481529060010190602001808311610bae57829003601f168201915b505050505081565b6000807f00000000000000000000000000000000000000000000000000000000000000006001600160a01b03163314610c1e5760405162461bcd60e51b815260040161049190612e81565b60026000541415610c64576040805162461bcd60e51b815260206004820152601f602482015260008051602061311d833981519152604482015290519081900360640190fd5b60026000556040805160208101909152838152610c83906003906116de565b60405191935091507f0bb89aa54ed6940a7e7167bd262b2400d63945045ceff1a52a05f2601ed215f190610cbc90849084908790612f97565b60405180910390a1610ccc611530565b60016000559092909150565b600080807f00000000000000000000000000000000000000000000000000000000000000006001600160a01b03163314610d245760405162461bcd60e51b815260040161049190612e81565b60026000541415610d6a576040805162461bcd60e51b815260206004820152601f602482015260008051602061311d833981519152604482015290519081900360640190fd5b6002600055600554610dc257610dc27f00000000000000000000000000000000000000000000000000000000000000007f000000000000000000000000000000000000000000000000000000000000000087876117a6565b610de160036040518060400160405280888152602001878152506118ca565b60405192955090935091507fd7f28048575eead8851d024ead087913957dfb4fd1a02b4d1573f5352a5a2be390610e1d90859085908590612f97565b60405180910390a1610e2d611530565b60016000819055509250925092565b610e4461130c565b6001600160a01b0316610e55610afb565b6001600160a01b031614610e9e576040805162461bcd60e51b81526020600482018190526024820152600080516020613184833981519152604482015290519081900360640190fd5b60026000541415610ee4576040805162461bcd60e51b815260206004820152601f602482015260008051602061311d833981519152604482015290519081900360640190fd5b600260005562093a8063ffffffff82161115610f125760405162461bcd60e51b815260040161049190612d02565b600f805469ffffffff0000000000001916600160301b63ffffffff8416021790556040517f5b18da8898c1e492e6bc631eec59d143ebba7f31ca794b668f0bfa9b0d989293906104dd908390612fd5565b7f000000000000000000000000000000000000000000000000000000000000000081565b600954600a54600b5483565b610f9b61130c565b6001600160a01b0316610fac610afb565b6001600160a01b031614610ff5576040805162461bcd60e51b81526020600482018190526024820152600080516020613184833981519152604482015290519081900360640190fd5b6002600054141561103b576040805162461bcd60e51b815260206004820152601f602482015260008051602061311d833981519152604482015290519081900360640190fd5b60026000556207a120611054604083016020840161290a565b62ffffff1611156110775760405162461bcd60e51b815260040161049190612def565b611087604082016020830161290a565b62ffffff16611099602083018361290a565b62ffffff1611156110bc5760405162461bcd60e51b815260040161049190612c0a565b620f42406110d0608083016060840161290a565b62ffffff16106110f25760405162461bcd60e51b815260040161049190612b65565b611102608082016060830161290a565b62ffffff16611117606083016040840161290a565b62ffffff16111561113a5760405162461bcd60e51b815260040161049190612eef565b8060106111478282613023565b507fbe7eee05a638b28e8473a6f87ae310d3123f8a2a7561ce96e140f76125f746129050611178602083018361290a565b611188604084016020850161290a565b611198606085016040860161290a565b6111a8608086016060870161290a565b6111b860a08701608088016129a2565b6040516104dd959493929190612f5a565b60006111d6848484611310565b50949350505050565b6006546007549091565b6111f161130c565b6001600160a01b0316611202610afb565b6001600160a01b03161461124b576040805162461bcd60e51b81526020600482018190526024820152600080516020613184833981519152604482015290519081900360640190fd5b6001600160a01b0381166112905760405162461bcd60e51b815260040180806020018281038252602681526020018061313d6026913960400191505060405180910390fd5b6001546040516001600160a01b038084169216907f8be0079c531659141344cd1fd0a4f28419497f9722a3daafe3b4186f6b6457e090600090a3600180546001600160a01b0319166001600160a01b0392909216919091179055565b803b15155b919050565b42600290910155565b600160601b600590910155565b3390565b600061131a61280d565b60055461132a5760009150610b3a565b6000611334610b0a565b9050611343600c601083611a3d565b9150600061135e836000015184604001516010888b15611af0565b600354600454600f5492935061137d928a908a9062ffffff1686611b9e565b93505050935093915050565b60008061139d620f42408560400151611d00565b90508360200151156113f85760608401516000906113bb9083611d32565b8551909150156113e0576113d986826113d48a82611d47565b611da1565b92506113f2565b6113ef87826113d48982611d47565b92505b50611445565b8351156114205760608401516114199087906114148882611e50565b611ea7565b9150611438565b60608401516114359086906114148982611e50565b91505b6114428282611ee1565b91505b826111d657600082116111d65760405162461bcd60e51b815260040161049190612ca2565b60006114846114798585611657565b600160601b84611da1565b90505b9392505050565b6000806114a48385600001548660020154611da1565b6114b78486600101548760020154611da1565b915091509250929050565b60006114d983600001548460010154846000611389565b825160208401518554600187015460608701519495506114f99486611ef6565b60018501559092555090565b60208101516115135761152c565b8051825560208101516001830155604081015160028301555b5050565b600061153a6106ac565b6040805160c0810182526001600160a01b037f0000000000000000000000000000000000000000000000000000000000000000811682527f0000000000000000000000000000000000000000000000000000000000000000166020820152908101829052600f5462ffffff6301000000820416606083015263ffffffff600160301b820481166080840152600160501b9091041660a0820152909150600090819081906115e990600990611f80565b92509250925082600014156116015750505050611655565b61160c600384612115565b6006546007546040517f318daee0b48d1f6a0542d8cdd35e2593d88c4fb01708f4781609494206d0705192611648928792879287928b92612a3a565b60405180910390a1505050505b565b600061166882600160601b85611da1565b90505b92915050565b600080600061169161168286612214565b61168b8a612214565b9061225c565b905060006116a161168286612214565b90506116bc82600160601b6116b58a612214565b91906122c1565b6116ce82600160601b6116b58b612214565b9350935050509550959350505050565b81546001830154600284015483516000938493909290918490611702908584611da1565b9050600061171588600001518585611da1565b90506000821180156117275750600081115b6117435760405162461bcd60e51b815260040161049190612d94565b61174d8583611e50565b89556117598482611e50565b60018a0155875160009061176e908590611e50565b90506103e88110156117925760405162461bcd60e51b815260040161049190612d2f565b60028a015590955093505050509250929050565b60006117b185612365565b905060006117be85612365565b9050600082116117e05760405162461bcd60e51b815260040161049190612eb8565b600081116118005760405162461bcd60e51b815260040161049190612bd3565b600061180b8761242c565b905060006118188761242c565b9050604d60ff8316111561183e5760405162461bcd60e51b815260040161049190612ad2565b604d60ff821611156118625760405162461bcd60e51b815260040161049190612c6b565b600061187386600160601b89611da1565b9050600061188484848888866124f3565b9050611897600160601b620186a0611d32565b6118a082612570565b11156118be5760405162461bcd60e51b815260040161049190612c34565b50505050505050505050565b600282015460009081908190818161196b57602086015186516000916118f8916118f391612594565b6125ed565b9050611906816103e8611e50565b87519092501580159061191d575060008760200151115b80156119295750600082115b6119455760405162461bcd60e51b815260040161049190612a9b565b8651808955602088015160018a0181905560028a0192909255955093509150611a369050565b86546001880154875160208901516000916119909161198b908686611da1565b61263e565b905060006119ab8a6020015161198b8c600001518688611da1565b90506119c66119bb838887611da1565b61198b838987611da1565b94506000821180156119d85750600081115b80156119e45750600085115b611a005760405162461bcd60e51b815260040161049190612e52565b611a0a8483611d47565b8b55611a168382611d47565b60018c0155611a258686611d47565b60028c015590975095509193505050505b9250925092565b611a4561280d565b60018401544290808211611a685750508354815260028401546040820152611487565b6000611a748383611e50565b8754909150611a895760408401859052611adf565b855463ffffffff600160601b909104811690600090611aac9084908490611d4716565b9050611ad7611abc888584611da1565b611ad18b600201548563ffffffff1685611da1565b90611d47565b604087015250505b505082825260208201529392505050565b600080611b1d84611b0757855462ffffff16611b16565b85546301000000900462ffffff165b8890611d32565b90506000611b5185611b3c578654600160301b900462ffffff16611b16565b86548890600160481b900462ffffff16611d32565b90508315611b7957611b70611b668984611d47565b61198b8984611d47565b92505050611b95565b611b70611b868984611e50565b611b908984611e50565b612654565b95945050505050565b600080611bae620f424085611d00565b90506000611bbc8989612594565b90508615611c46576000611bd582600160601b87611da1565b90506000611be38b80612594565b9050808211611bf957600094505050505061055e565b6000611c058383611e50565b90506000611c1d611c168e88611d32565b8e90611d47565b9050611c3b611c2c8288612664565b611c368489612664565b612679565b965050505050611cb5565b6000611c578286600160601b611da1565b90506000611c658a80612594565b9050808211611c7b57600094505050505061055e565b6000611c878383611e50565b90506000611c9f611c988d88611d32565b8d90611d47565b9050611cae611c2c8288612664565b9650505050505b85611cf457611cf1898960405180608001604052808b151581526020016001151581526020018962ffffff168152602001878152506001611389565b92505b50509695505050505050565b60008262ffffff168262ffffff161115611d2c5760405162461bcd60e51b815260040161049190612b9c565b50900390565b6000611668838362ffffff16620f4240611da1565b600082820183811015611668576040805162461bcd60e51b815260206004820152601b60248201527f536166654d6174683a206164646974696f6e206f766572666c6f770000000000604482015290519081900360640190fd5b6000808060001985870986860292508281109083900303905080611dd75760008411611dcc57600080fd5b508290049050611487565b808411611de357600080fd5b6000848688096000868103871696879004966002600389028118808a02820302808a02820302808a02820302808a02820302808a02820302808a02909103029181900381900460010186841190950394909402919094039290920491909117919091029150509392505050565b600082821115611d2c576040805162461bcd60e51b815260206004820152601e60248201527f536166654d6174683a207375627472616374696f6e206f766572666c6f770000604482015290519081900360640190fd5b6000611eb4848484611da1565b905060008280611ec057fe5b8486091115611487576000198110611ed757600080fd5b6001019392505050565b600061166883620f42408462ffffff16611ea7565b6000808615611f40578715611f2257611f0f8685611d47565b9150611f1b8584611e50565b9050611f3b565b611f2c8684611e50565b9150611f388585611d47565b90505b611f75565b8715611f5c57611f508684611d47565b9150611f388585611e50565b611f668685611e50565b9150611f728584611d47565b90505b965096945050505050565b6000806000804290506000611fa2876002015483611e5090919063ffffffff16565b905080611fbb5760008060009450945094505050611a36565b6000611fca8760000151612365565b90506000611fdb8860200151612365565b90506000611fec896000015161242c565b90506000611ffd8a6020015161242c565b8b54909150841480156120135750828b60010154145b8061201c575083155b80612025575082155b806120335750604d60ff8316115b806120415750604d60ff8216115b1561205c576000806000985098509850505050505050611a36565b612070858b6080015163ffffffff1661263e565b945061207b856126ab565b975061208e828286868e604001516124f3565b965060006120b56120b08c60600151600160601b611d3290919063ffffffff16565b612214565b90506120cf6120c4828a6126f0565b6000839003906126ff565b97506120f86120dd87612214565b8c60a0015163ffffffff168a6122c19092919063ffffffff16565b948c55505050600189015560028801929092555092509250925092565b8061211f5761152c565b600061212a82612570565b9050600082131561218d576001830154600061214b8284600160601b611da1565b90506121578282611e50565b856001018190555061218061217582600160601b8860020154611da1565b600487015490611d47565b6004860155506121df9050565b825460006121a482846113d4600160601b82611d47565b90506121b08282611e50565b855560028501546121d7906121cc908390600160601b90611da1565b600387015490611d47565b600386015550505b61220a83600501546122006121fb8561168b600160601b612214565b61270f565b600160601b611da1565b6005840155505050565b6000600160ff1b82106122585760405162461bcd60e51b81526004018080602001828103825260288152602001806131ca6028913960400191505060405180910390fd5b5090565b60008183038183128015906122715750838113155b80612286575060008312801561228657508381135b6116685760405162461bcd60e51b81526004018080602001828103825260248152602001806131f26024913960400191505060405180910390fd5b600080600085126122d257846122db565b6122db85612766565b905060008085126122ec57846122f5565b6122f585612766565b9050600080871280156123085750600086135b8061231e575060008713801561231e5750600086125b61232957600061232c565b60015b9050600061233b848488611da1565b9050816123505761234b81612214565b612359565b61235981612792565b98975050505050505050565b60006001600160a01b03821661237d575060016112f1565b60408051600481526024810182526020810180516001600160e01b0316634c6afee560e11b179052905160009081906001600160a01b038616906123c29085906129df565b600060405180830381855afa9150503d80600081146123fd576040519150601f19603f3d011682016040523d82523d6000602084013e612402565b606091505b50915091508161241857600093505050506112f1565b80806020019051810190611b95919061293e565b60006001600160a01b038216612444575060006112f1565b60408051600481526024810182526020810180516001600160e01b031663313ce56760e01b179052905160009081906001600160a01b038616906124899085906129df565b600060405180830381855afa9150503d80600081146124c4576040519150601f19603f3d011682016040523d82523d6000602084013e6124c9565b606091505b5091509150816124df5760ff93505050506112f1565b80806020019051810190611b9591906129be565b60008160ff8716151580612508575084600114155b156125215761251e818860ff16600a0a87611da1565b90505b60ff8616151580612533575083600114155b1561254c5761254981858860ff16600a0a611da1565b90505b61256561255c600160601b612214565b61168b83612214565b979650505050505050565b60008082121561258b576125866121fb83612766565b61166b565b61166b8261270f565b6000826125a35750600061166b565b828202828482816125b057fe5b04146116685760405162461bcd60e51b81526004018080602001828103825260218152602001806131636021913960400191505060405180910390fd5b60006003821115612630575080600160028204015b8181101561262a5780915060028182858161261957fe5b04018161262257fe5b049050612602565b506112f1565b81156112f157506001919050565b600081831061264d5781611668565b5090919050565b60008183101561264d5781611668565b600061166883620f42408462ffffff16611da1565b600061166860026126a58561269f6118f3612695886004612594565b611ad18a80612594565b90611e50565b906127a6565b600064010000000082106122585760405162461bcd60e51b81526004018080602001828103825260268152602001806131a46026913960400191505060405180910390fd5b600081831261264d5781611668565b60008183121561264d5781611668565b600080821215612258576040805162461bcd60e51b815260206004820181905260248201527f53616665436173743a2076616c7565206d75737420626520706f736974697665604482015290519081900360640190fd5b6000600160ff1b821361278b5760405162461bcd60e51b815260040161049190612d5d565b5060000390565b600061279d82612214565b60000392915050565b60008082116127fc576040805162461bcd60e51b815260206004820152601a60248201527f536166654d6174683a206469766973696f6e206279207a65726f000000000000604482015290519081900360640190fd5b81838161280557fe5b049392505050565b60405180606001604052806000815260200160008152602001600081525090565b803580151581146112f157600080fd5b60006020828403121561284f578081fd5b81356001600160a01b0381168114611668578182fd5b600080600060608486031215612879578182fd5b6128828461282e565b92506128906020850161282e565b915061289e6040850161282e565b90509250925092565b600080600080608085870312156128bc578081fd5b6128c58561282e565b93506128d36020860161282e565b9250604085013591506128e86060860161282e565b905092959194509250565b600060a08284031215612904578081fd5b50919050565b60006020828403121561291b578081fd5b8135611668816130f6565b600060208284031215612937578081fd5b5035919050565b60006020828403121561294f578081fd5b5051919050565b60008060408385031215612968578182fd5b50508035926020909101359150565b60008060006060848603121561298b578283fd5b505081359360208301359350604090920135919050565b6000602082840312156129b3578081fd5b81356116688161310a565b6000602082840312156129cf578081fd5b815160ff81168114611668578182fd5b600082516129f1818460208701612fe6565b9190910192915050565b6001600160a01b0391909116815260200190565b931515845291151560208401526040830152606082015260800190565b918252602082015260400190565b95865263ffffffff94909416602086015260408501929092526060840152608083015260a082015260c00190565b6000602082528251806020840152612a87816040850160208701612fe6565b601f01601f19169190910160400192915050565b6020808252601d908201527f504c5f414c3a20696e697469616c206c6971756964697479207a65726f000000604082015260600190565b6020808252601e908201527f464c5f56494c503a20696e76616c6964206261736520646563696d616c730000604082015260600190565b602080825260129082015271504d5f535046523a20746f6f206c6172676560701b604082015260600190565b602080825260169082015275141357d4ce881d1bdbc81b185c99d948185b5bdd5b9d60521b604082015260600190565b6020808252601a908201527f50455f53504c433a20656d6120746f6f206c61726765206c6971000000000000604082015260600190565b6020808252601e908201527f506572704d6174683a207375627472616374696f6e206f766572666c6f770000604082015260600190565b6020808252601c908201527f464c5f56494c503a20696e76616c69642071756f746520707269636500000000604082015260600190565b60208082526010908201526f141157d4d41310ce881a5b9d985b1a5960821b604082015260600190565b6020808252601b908201527f464c5f56494c503a20746f6f206661722066726f6d20696e6465780000000000604082015260600190565b6020808252601f908201527f464c5f56494c503a20696e76616c69642071756f746520646563696d616c7300604082015260600190565b602080825260159082015274504c5f53443a206f7574707574206973207a65726f60581b604082015260600190565b602080825260179082015276141357d414ce881d1bdbc81b185c99d948185b5bdd5b9d604a1b604082015260600190565b602080825260139082015272504d5f53464d45533a20746f6f206c6172676560681b604082015260600190565b602080825260149082015273504c5f524c3a206d696e206c697175696469747960601b604082015260600190565b6020808252601c908201527f506572704d6174683a20696e76657273696f6e206f766572666c6f7700000000604082015260600190565b602080825260159082015274504c5f524c3a206f7574707574206973207a65726f60581b604082015260600190565b602080825260129082015271141357d4d19494ce881d1bdbc81cdb585b1b60721b604082015260600190565b6020808252601e908201527f50455f53504c433a20746f6f206c61726765206c69717569646174696f6e0000604082015260600190565b602080825260129082015271504d5f534652533a20746f6f206c6172676560701b604082015260600190565b602080825260159082015274504c5f414c3a206c6971756964697479207a65726f60581b604082015260600190565b6020808252601d908201527f504d5f4f453a2063616c6c6572206973206e6f742065786368616e6765000000604082015260600190565b6020808252601b908201527f464c5f56494c503a20696e76616c696420626173652070726963650000000000604082015260600190565b602080825260149082015273141157d4d41310ce88195b58481a5b9d985b1a5960621b604082015260600190565b602080825260139082015272504d5f53464d50523a20746f6f206c6172676560681b604082015260600190565b62ffffff91909116815260200190565b62ffffff958616815293851660208501529184166040840152909216606082015263ffffffff909116608082015260a00190565b90815260200190565b9283526020830191909152604082015260600190565b958652602086019490945260408501929092526060840152608083015260a082015260c00190565b63ffffffff91909116815260200190565b60005b83811015613001578181015183820152602001612fe9565b83811115613010576000848401525b50505050565b6000813561166b8161310a565b813561302e816130f6565b815462ffffff191662ffffff91909116178082556020830135613050816130f6565b65ffffff0000008160181b1665ffffff00000019831617915050808255604083013561307b816130f6565b62ffffff60301b8160301b1662ffffff60301b1983161791505080825560608301356130a6816130f6565b62ffffff60481b199190911660489190911b62ffffff60481b1617815561152c6130d260808401613016565b82805463ffffffff60601b191660609290921b63ffffffff60601b16919091179055565b62ffffff8116811461310757600080fd5b50565b63ffffffff8116811461310757600080fdfe5265656e7472616e637947756172643a207265656e7472616e742063616c6c004f776e61626c653a206e6577206f776e657220697320746865207a65726f2061646472657373536166654d6174683a206d756c7469706c69636174696f6e206f766572666c6f774f776e61626c653a2063616c6c6572206973206e6f7420746865206f776e657253616665436173743a2076616c756520646f65736e27742066697420696e203332206269747353616665436173743a2076616c756520646f65736e27742066697420696e20616e20696e743235365369676e6564536166654d6174683a207375627472616374696f6e206f766572666c6f77a2646970667358221220cc9362542e838a7594613ec2acc7b9afb70e99fc3c9addb3641b8b8e2bed4fee64736f6c63430007060033",
  "devdoc": {
    "kind": "dev",
    "methods": {
      "owner()": {
        "details": "Returns the address of the current owner."
      },
      "renounceOwnership()": {
        "details": "Leaves the contract without owner. It will not be possible to call `onlyOwner` functions anymore. Can only be called by the current owner. NOTE: Renouncing ownership will leave the contract without an owner, thereby removing any functionality that is only available to the owner."
      },
      "transferOwnership(address)": {
        "details": "Transfers ownership of the contract to a new account (`newOwner`). Can only be called by the current owner."
      }
    },
    "version": 1
  },
  "userdoc": {
    "kind": "user",
    "methods": {},
    "version": 1
  },
  "storageLayout": {
    "storage": [
      {
        "astId": 3005,
        "contract": "contracts/PerpdexMarket.sol:PerpdexMarket",
        "label": "_status",
        "offset": 0,
        "slot": "0",
        "type": "t_uint256"
      },
      {
        "astId": 290,
        "contract": "contracts/PerpdexMarket.sol:PerpdexMarket",
        "label": "_owner",
        "offset": 0,
        "slot": "1",
        "type": "t_address"
      },
      {
        "astId": 4759,
        "contract": "contracts/PerpdexMarket.sol:PerpdexMarket",
        "label": "symbol",
        "offset": 0,
        "slot": "2",
        "type": "t_string_storage"
      },
      {
        "astId": 4768,
        "contract": "contracts/PerpdexMarket.sol:PerpdexMarket",
        "label": "poolInfo",
        "offset": 0,
        "slot": "3",
        "type": "t_struct(PoolInfo)8050_storage"
      },
      {
        "astId": 4770,
        "contract": "contracts/PerpdexMarket.sol:PerpdexMarket",
        "label": "fundingInfo",
        "offset": 0,
        "slot": "9",
        "type": "t_struct(FundingInfo)8037_storage"
      },
      {
        "astId": 4772,
        "contract": "contracts/PerpdexMarket.sol:PerpdexMarket",
        "label": "priceLimitInfo",
        "offset": 0,
        "slot": "12",
        "type": "t_struct(PriceLimitInfo)8057_storage"
      },
      {
        "astId": 4775,
        "contract": "contracts/PerpdexMarket.sol:PerpdexMarket",
        "label": "poolFeeRatio",
        "offset": 0,
        "slot": "15",
        "type": "t_uint24"
      },
      {
        "astId": 4778,
        "contract": "contracts/PerpdexMarket.sol:PerpdexMarket",
        "label": "fundingMaxPremiumRatio",
        "offset": 3,
        "slot": "15",
        "type": "t_uint24"
      },
      {
        "astId": 4781,
        "contract": "contracts/PerpdexMarket.sol:PerpdexMarket",
        "label": "fundingMaxElapsedSec",
        "offset": 6,
        "slot": "15",
        "type": "t_uint32"
      },
      {
        "astId": 4784,
        "contract": "contracts/PerpdexMarket.sol:PerpdexMarket",
        "label": "fundingRolloverSec",
        "offset": 10,
        "slot": "15",
        "type": "t_uint32"
      },
      {
        "astId": 4794,
        "contract": "contracts/PerpdexMarket.sol:PerpdexMarket",
        "label": "priceLimitConfig",
        "offset": 0,
        "slot": "16",
        "type": "t_struct(PriceLimitConfig)8068_storage"
      }
    ],
    "types": {
      "t_address": {
        "encoding": "inplace",
        "label": "address",
        "numberOfBytes": "20"
      },
      "t_string_storage": {
        "encoding": "bytes",
        "label": "string",
        "numberOfBytes": "32"
      },
      "t_struct(FundingInfo)8037_storage": {
        "encoding": "inplace",
        "label": "struct MarketStructs.FundingInfo",
        "members": [
          {
            "astId": 8032,
            "contract": "contracts/PerpdexMarket.sol:PerpdexMarket",
            "label": "prevIndexPriceBase",
            "offset": 0,
            "slot": "0",
            "type": "t_uint256"
          },
          {
            "astId": 8034,
            "contract": "contracts/PerpdexMarket.sol:PerpdexMarket",
            "label": "prevIndexPriceQuote",
            "offset": 0,
            "slot": "1",
            "type": "t_uint256"
          },
          {
            "astId": 8036,
            "contract": "contracts/PerpdexMarket.sol:PerpdexMarket",
            "label": "prevIndexPriceTimestamp",
            "offset": 0,
            "slot": "2",
            "type": "t_uint256"
          }
        ],
        "numberOfBytes": "96"
      },
      "t_struct(PoolInfo)8050_storage": {
        "encoding": "inplace",
        "label": "struct MarketStructs.PoolInfo",
        "members": [
          {
            "astId": 8039,
            "contract": "contracts/PerpdexMarket.sol:PerpdexMarket",
            "label": "base",
            "offset": 0,
            "slot": "0",
            "type": "t_uint256"
          },
          {
            "astId": 8041,
            "contract": "contracts/PerpdexMarket.sol:PerpdexMarket",
            "label": "quote",
            "offset": 0,
            "slot": "1",
            "type": "t_uint256"
          },
          {
            "astId": 8043,
            "contract": "contracts/PerpdexMarket.sol:PerpdexMarket",
            "label": "totalLiquidity",
            "offset": 0,
            "slot": "2",
            "type": "t_uint256"
          },
          {
            "astId": 8045,
            "contract": "contracts/PerpdexMarket.sol:PerpdexMarket",
            "label": "cumBasePerLiquidityX96",
            "offset": 0,
            "slot": "3",
            "type": "t_uint256"
          },
          {
            "astId": 8047,
            "contract": "contracts/PerpdexMarket.sol:PerpdexMarket",
            "label": "cumQuotePerLiquidityX96",
            "offset": 0,
            "slot": "4",
            "type": "t_uint256"
          },
          {
            "astId": 8049,
            "contract": "contracts/PerpdexMarket.sol:PerpdexMarket",
            "label": "baseBalancePerShareX96",
            "offset": 0,
            "slot": "5",
            "type": "t_uint256"
          }
        ],
        "numberOfBytes": "192"
      },
      "t_struct(PriceLimitConfig)8068_storage": {
        "encoding": "inplace",
        "label": "struct MarketStructs.PriceLimitConfig",
        "members": [
          {
            "astId": 8059,
            "contract": "contracts/PerpdexMarket.sol:PerpdexMarket",
            "label": "normalOrderRatio",
            "offset": 0,
            "slot": "0",
            "type": "t_uint24"
          },
          {
            "astId": 8061,
            "contract": "contracts/PerpdexMarket.sol:PerpdexMarket",
            "label": "liquidationRatio",
            "offset": 3,
            "slot": "0",
            "type": "t_uint24"
          },
          {
            "astId": 8063,
            "contract": "contracts/PerpdexMarket.sol:PerpdexMarket",
            "label": "emaNormalOrderRatio",
            "offset": 6,
            "slot": "0",
            "type": "t_uint24"
          },
          {
            "astId": 8065,
            "contract": "contracts/PerpdexMarket.sol:PerpdexMarket",
            "label": "emaLiquidationRatio",
            "offset": 9,
            "slot": "0",
            "type": "t_uint24"
          },
          {
            "astId": 8067,
            "contract": "contracts/PerpdexMarket.sol:PerpdexMarket",
            "label": "emaSec",
            "offset": 12,
            "slot": "0",
            "type": "t_uint32"
          }
        ],
        "numberOfBytes": "32"
      },
      "t_struct(PriceLimitInfo)8057_storage": {
        "encoding": "inplace",
        "label": "struct MarketStructs.PriceLimitInfo",
        "members": [
          {
            "astId": 8052,
            "contract": "contracts/PerpdexMarket.sol:PerpdexMarket",
            "label": "referencePrice",
            "offset": 0,
            "slot": "0",
            "type": "t_uint256"
          },
          {
            "astId": 8054,
            "contract": "contracts/PerpdexMarket.sol:PerpdexMarket",
            "label": "referenceTimestamp",
            "offset": 0,
            "slot": "1",
            "type": "t_uint256"
          },
          {
            "astId": 8056,
            "contract": "contracts/PerpdexMarket.sol:PerpdexMarket",
            "label": "emaPrice",
            "offset": 0,
            "slot": "2",
            "type": "t_uint256"
          }
        ],
        "numberOfBytes": "96"
      },
      "t_uint24": {
        "encoding": "inplace",
        "label": "uint24",
        "numberOfBytes": "3"
      },
      "t_uint256": {
        "encoding": "inplace",
        "label": "uint256",
        "numberOfBytes": "32"
      },
      "t_uint32": {
        "encoding": "inplace",
        "label": "uint32",
        "numberOfBytes": "4"
      }
    }
  }
}