{
  "address": "0xb7b1cbBf913D60C6BB9E5839C68B2ff632CD9FC9",
  "abi": [
    {
      "inputs": [
        {
          "internalType": "address",
          "name": "settlementTokenArg",
          "type": "address"
        }
      ],
      "stateMutability": "nonpayable",
      "type": "constructor"
    },
    {
      "anonymous": false,
      "inputs": [
        {
          "indexed": true,
          "internalType": "address",
          "name": "trader",
          "type": "address"
        },
        {
          "indexed": false,
          "internalType": "uint256",
          "name": "amount",
          "type": "uint256"
        }
      ],
      "name": "Deposited",
      "type": "event"
    },
    {
      "anonymous": false,
      "inputs": [
        {
          "indexed": false,
          "internalType": "uint24",
          "name": "value",
          "type": "uint24"
        }
      ],
      "name": "ImRatioChanged",
      "type": "event"
    },
    {
      "anonymous": false,
      "inputs": [
        {
          "indexed": true,
          "internalType": "address",
          "name": "trader",
          "type": "address"
        },
        {
          "indexed": false,
          "internalType": "uint256",
          "name": "amount",
          "type": "uint256"
        }
      ],
      "name": "InsuranceFundTransferred",
      "type": "event"
    },
    {
      "anonymous": false,
      "inputs": [
        {
          "indexed": true,
          "internalType": "address",
          "name": "market",
          "type": "address"
        },
        {
          "indexed": false,
          "internalType": "bool",
          "name": "isMarketAllowed",
          "type": "bool"
        }
      ],
      "name": "IsMarketAllowedChanged",
      "type": "event"
    },
    {
      "anonymous": false,
      "inputs": [
        {
          "indexed": false,
          "internalType": "uint24",
          "name": "value",
          "type": "uint24"
        }
      ],
      "name": "LiquidationRewardRatioChanged",
      "type": "event"
    },
    {
      "anonymous": false,
      "inputs": [
        {
          "indexed": true,
          "internalType": "address",
          "name": "trader",
          "type": "address"
        },
        {
          "indexed": true,
          "internalType": "address",
          "name": "market",
          "type": "address"
        },
        {
          "indexed": false,
          "internalType": "uint256",
          "name": "base",
          "type": "uint256"
        },
        {
          "indexed": false,
          "internalType": "uint256",
          "name": "quote",
          "type": "uint256"
        },
        {
          "indexed": false,
          "internalType": "uint256",
          "name": "liquidity",
          "type": "uint256"
        },
        {
          "indexed": false,
          "internalType": "uint256",
          "name": "baseBalancePerShareX96",
          "type": "uint256"
        },
        {
          "indexed": false,
          "internalType": "uint256",
          "name": "sharePriceAfterX96",
          "type": "uint256"
        }
      ],
      "name": "LiquidityAdded",
      "type": "event"
    },
    {
      "anonymous": false,
      "inputs": [
        {
          "indexed": true,
          "internalType": "address",
          "name": "trader",
          "type": "address"
        },
        {
          "indexed": true,
          "internalType": "address",
          "name": "market",
          "type": "address"
        },
        {
          "indexed": false,
          "internalType": "address",
          "name": "liquidator",
          "type": "address"
        },
        {
          "indexed": false,
          "internalType": "uint256",
          "name": "base",
          "type": "uint256"
        },
        {
          "indexed": false,
          "internalType": "uint256",
          "name": "quote",
          "type": "uint256"
        },
        {
          "indexed": false,
          "internalType": "uint256",
          "name": "liquidity",
          "type": "uint256"
        },
        {
          "indexed": false,
          "internalType": "int256",
          "name": "takerBase",
          "type": "int256"
        },
        {
          "indexed": false,
          "internalType": "int256",
          "name": "takerQuote",
          "type": "int256"
        },
        {
          "indexed": false,
          "internalType": "int256",
          "name": "realizedPnl",
          "type": "int256"
        },
        {
          "indexed": false,
          "internalType": "uint256",
          "name": "baseBalancePerShareX96",
          "type": "uint256"
        },
        {
          "indexed": false,
          "internalType": "uint256",
          "name": "sharePriceAfterX96",
          "type": "uint256"
        }
      ],
      "name": "LiquidityRemoved",
      "type": "event"
    },
    {
      "anonymous": false,
      "inputs": [
        {
          "indexed": false,
          "internalType": "uint8",
          "name": "value",
          "type": "uint8"
        }
      ],
      "name": "MaxMarketsPerAccountChanged",
      "type": "event"
    },
    {
      "anonymous": false,
      "inputs": [
        {
          "indexed": false,
          "internalType": "uint24",
          "name": "value",
          "type": "uint24"
        }
      ],
      "name": "MmRatioChanged",
      "type": "event"
    },
    {
      "anonymous": false,
      "inputs": [
        {
          "indexed": true,
          "internalType": "address",
          "name": "previousOwner",
          "type": "address"
        },
        {
          "indexed": true,
          "internalType": "address",
          "name": "newOwner",
          "type": "address"
        }
      ],
      "name": "OwnershipTransferred",
      "type": "event"
    },
    {
      "anonymous": false,
      "inputs": [
        {
          "indexed": true,
          "internalType": "address",
          "name": "trader",
          "type": "address"
        },
        {
          "indexed": true,
          "internalType": "address",
          "name": "market",
          "type": "address"
        },
        {
          "indexed": false,
          "internalType": "int256",
          "name": "base",
          "type": "int256"
        },
        {
          "indexed": false,
          "internalType": "int256",
          "name": "quote",
          "type": "int256"
        },
        {
          "indexed": false,
          "internalType": "int256",
          "name": "realizedPnl",
          "type": "int256"
        },
        {
          "indexed": false,
          "internalType": "uint256",
          "name": "protocolFee",
          "type": "uint256"
        },
        {
          "indexed": false,
          "internalType": "uint256",
          "name": "baseBalancePerShareX96",
          "type": "uint256"
        },
        {
          "indexed": false,
          "internalType": "uint256",
          "name": "sharePriceAfterX96",
          "type": "uint256"
        }
      ],
      "name": "PositionChanged",
      "type": "event"
    },
    {
      "anonymous": false,
      "inputs": [
        {
          "indexed": true,
          "internalType": "address",
          "name": "trader",
          "type": "address"
        },
        {
          "indexed": true,
          "internalType": "address",
          "name": "market",
          "type": "address"
        },
        {
          "indexed": true,
          "internalType": "address",
          "name": "liquidator",
          "type": "address"
        },
        {
          "indexed": false,
          "internalType": "int256",
          "name": "base",
          "type": "int256"
        },
        {
          "indexed": false,
          "internalType": "int256",
          "name": "quote",
          "type": "int256"
        },
        {
          "indexed": false,
          "internalType": "int256",
          "name": "realizedPnl",
          "type": "int256"
        },
        {
          "indexed": false,
          "internalType": "uint256",
          "name": "protocolFee",
          "type": "uint256"
        },
        {
          "indexed": false,
          "internalType": "uint256",
          "name": "baseBalancePerShareX96",
          "type": "uint256"
        },
        {
          "indexed": false,
          "internalType": "uint256",
          "name": "sharePriceAfterX96",
          "type": "uint256"
        },
        {
          "indexed": false,
          "internalType": "uint256",
          "name": "liquidationReward",
          "type": "uint256"
        },
        {
          "indexed": false,
          "internalType": "uint256",
          "name": "insuranceFundReward",
          "type": "uint256"
        }
      ],
      "name": "PositionLiquidated",
      "type": "event"
    },
    {
      "anonymous": false,
      "inputs": [
        {
          "indexed": false,
          "internalType": "uint24",
          "name": "normalOrderRatio",
          "type": "uint24"
        },
        {
          "indexed": false,
          "internalType": "uint24",
          "name": "liquidationRatio",
          "type": "uint24"
        }
      ],
      "name": "PriceLimitConfigChanged",
      "type": "event"
    },
    {
      "anonymous": false,
      "inputs": [
        {
          "indexed": false,
          "internalType": "uint24",
          "name": "value",
          "type": "uint24"
        }
      ],
      "name": "ProtocolFeeRatioChanged",
      "type": "event"
    },
    {
      "anonymous": false,
      "inputs": [
        {
          "indexed": true,
          "internalType": "address",
          "name": "trader",
          "type": "address"
        },
        {
          "indexed": false,
          "internalType": "uint256",
          "name": "amount",
          "type": "uint256"
        }
      ],
      "name": "ProtocolFeeTransferred",
      "type": "event"
    },
    {
      "anonymous": false,
      "inputs": [
        {
          "indexed": true,
          "internalType": "address",
          "name": "trader",
          "type": "address"
        },
        {
          "indexed": false,
          "internalType": "uint256",
          "name": "amount",
          "type": "uint256"
        }
      ],
      "name": "Withdrawn",
      "type": "event"
    },
    {
      "inputs": [
        {
          "internalType": "address",
          "name": "",
          "type": "address"
        }
      ],
      "name": "accountInfos",
      "outputs": [
        {
          "components": [
            {
              "internalType": "int256",
              "name": "collateralBalance",
              "type": "int256"
            }
          ],
          "internalType": "struct PerpdexStructs.VaultInfo",
          "name": "vaultInfo",
          "type": "tuple"
        }
      ],
      "stateMutability": "view",
      "type": "function"
    },
    {
      "inputs": [
        {
          "components": [
            {
              "internalType": "address",
              "name": "market",
              "type": "address"
            },
            {
              "internalType": "uint256",
              "name": "base",
              "type": "uint256"
            },
            {
              "internalType": "uint256",
              "name": "quote",
              "type": "uint256"
            },
            {
              "internalType": "uint256",
              "name": "minBase",
              "type": "uint256"
            },
            {
              "internalType": "uint256",
              "name": "minQuote",
              "type": "uint256"
            },
            {
              "internalType": "uint256",
              "name": "deadline",
              "type": "uint256"
            }
          ],
          "internalType": "struct IPerpdexExchange.AddLiquidityParams",
          "name": "params",
          "type": "tuple"
        }
      ],
      "name": "addLiquidity",
      "outputs": [
        {
          "internalType": "uint256",
          "name": "base",
          "type": "uint256"
        },
        {
          "internalType": "uint256",
          "name": "quote",
          "type": "uint256"
        },
        {
          "internalType": "uint256",
          "name": "liquidity",
          "type": "uint256"
        }
      ],
      "stateMutability": "nonpayable",
      "type": "function"
    },
    {
      "inputs": [
        {
          "internalType": "uint256",
          "name": "amount",
          "type": "uint256"
        }
      ],
      "name": "deposit",
      "outputs": [],
      "stateMutability": "payable",
      "type": "function"
    },
    {
      "inputs": [
        {
          "internalType": "address",
          "name": "trader",
          "type": "address"
        }
      ],
      "name": "getAccountMarkets",
      "outputs": [
        {
          "internalType": "address[]",
          "name": "",
          "type": "address[]"
        }
      ],
      "stateMutability": "view",
      "type": "function"
    },
    {
      "inputs": [
        {
          "internalType": "address",
          "name": "trader",
          "type": "address"
        },
        {
          "internalType": "address",
          "name": "market",
          "type": "address"
        }
      ],
      "name": "getMakerInfo",
      "outputs": [
        {
          "components": [
            {
              "internalType": "int256",
              "name": "baseDebtShare",
              "type": "int256"
            },
            {
              "internalType": "int256",
              "name": "quoteDebt",
              "type": "int256"
            },
            {
              "internalType": "uint256",
              "name": "liquidity",
              "type": "uint256"
            },
            {
              "internalType": "uint256",
              "name": "cumDeleveragedBaseSharePerLiquidityX96",
              "type": "uint256"
            },
            {
              "internalType": "uint256",
              "name": "cumDeleveragedQuotePerLiquidityX96",
              "type": "uint256"
            }
          ],
          "internalType": "struct PerpdexStructs.MakerInfo",
          "name": "",
          "type": "tuple"
        }
      ],
      "stateMutability": "view",
      "type": "function"
    },
    {
      "inputs": [
        {
          "internalType": "address",
          "name": "trader",
          "type": "address"
        },
        {
          "internalType": "address",
          "name": "market",
          "type": "address"
        }
      ],
      "name": "getOpenPositionNotional",
      "outputs": [
        {
          "internalType": "uint256",
          "name": "",
          "type": "uint256"
        }
      ],
      "stateMutability": "view",
      "type": "function"
    },
    {
      "inputs": [
        {
          "internalType": "address",
          "name": "trader",
          "type": "address"
        },
        {
          "internalType": "address",
          "name": "market",
          "type": "address"
        }
      ],
      "name": "getOpenPositionShare",
      "outputs": [
        {
          "internalType": "uint256",
          "name": "",
          "type": "uint256"
        }
      ],
      "stateMutability": "view",
      "type": "function"
    },
    {
      "inputs": [
        {
          "internalType": "address",
          "name": "trader",
          "type": "address"
        },
        {
          "internalType": "address",
          "name": "market",
          "type": "address"
        }
      ],
      "name": "getPositionNotional",
      "outputs": [
        {
          "internalType": "int256",
          "name": "",
          "type": "int256"
        }
      ],
      "stateMutability": "view",
      "type": "function"
    },
    {
      "inputs": [
        {
          "internalType": "address",
          "name": "trader",
          "type": "address"
        },
        {
          "internalType": "address",
          "name": "market",
          "type": "address"
        }
      ],
      "name": "getPositionShare",
      "outputs": [
        {
          "internalType": "int256",
          "name": "",
          "type": "int256"
        }
      ],
      "stateMutability": "view",
      "type": "function"
    },
    {
      "inputs": [
        {
          "internalType": "address",
          "name": "trader",
          "type": "address"
        },
        {
          "internalType": "address",
          "name": "market",
          "type": "address"
        }
      ],
      "name": "getTakerInfo",
      "outputs": [
        {
          "components": [
            {
              "internalType": "int256",
              "name": "baseBalanceShare",
              "type": "int256"
            },
            {
              "internalType": "int256",
              "name": "quoteBalance",
              "type": "int256"
            }
          ],
          "internalType": "struct PerpdexStructs.TakerInfo",
          "name": "",
          "type": "tuple"
        }
      ],
      "stateMutability": "view",
      "type": "function"
    },
    {
      "inputs": [
        {
          "internalType": "address",
          "name": "trader",
          "type": "address"
        }
      ],
      "name": "getTotalAccountValue",
      "outputs": [
        {
          "internalType": "int256",
          "name": "",
          "type": "int256"
        }
      ],
      "stateMutability": "view",
      "type": "function"
    },
    {
      "inputs": [
        {
          "internalType": "address",
          "name": "trader",
          "type": "address"
        }
      ],
      "name": "getTotalOpenPositionNotional",
      "outputs": [
        {
          "internalType": "uint256",
          "name": "",
          "type": "uint256"
        }
      ],
      "stateMutability": "view",
      "type": "function"
    },
    {
      "inputs": [
        {
          "internalType": "address",
          "name": "trader",
          "type": "address"
        }
      ],
      "name": "getTotalPositionNotional",
      "outputs": [
        {
          "internalType": "uint256",
          "name": "",
          "type": "uint256"
        }
      ],
      "stateMutability": "view",
      "type": "function"
    },
    {
      "inputs": [
        {
          "internalType": "address",
          "name": "trader",
          "type": "address"
        }
      ],
      "name": "hasEnoughInitialMargin",
      "outputs": [
        {
          "internalType": "bool",
          "name": "",
          "type": "bool"
        }
      ],
      "stateMutability": "view",
      "type": "function"
    },
    {
      "inputs": [
        {
          "internalType": "address",
          "name": "trader",
          "type": "address"
        }
      ],
      "name": "hasEnoughMaintenanceMargin",
      "outputs": [
        {
          "internalType": "bool",
          "name": "",
          "type": "bool"
        }
      ],
      "stateMutability": "view",
      "type": "function"
    },
    {
      "inputs": [],
      "name": "imRatio",
      "outputs": [
        {
          "internalType": "uint24",
          "name": "",
          "type": "uint24"
        }
      ],
      "stateMutability": "view",
      "type": "function"
    },
    {
      "inputs": [],
      "name": "insuranceFundInfo",
      "outputs": [
        {
          "internalType": "int256",
          "name": "balance",
          "type": "int256"
        }
      ],
      "stateMutability": "view",
      "type": "function"
    },
    {
      "inputs": [
        {
          "internalType": "address",
          "name": "",
          "type": "address"
        }
      ],
      "name": "isMarketAllowed",
      "outputs": [
        {
          "internalType": "bool",
          "name": "",
          "type": "bool"
        }
      ],
      "stateMutability": "view",
      "type": "function"
    },
    {
      "inputs": [],
      "name": "liquidationRewardRatio",
      "outputs": [
        {
          "internalType": "uint24",
          "name": "",
          "type": "uint24"
        }
      ],
      "stateMutability": "view",
      "type": "function"
    },
    {
      "inputs": [],
      "name": "maxMarketsPerAccount",
      "outputs": [
        {
          "internalType": "uint8",
          "name": "",
          "type": "uint8"
        }
      ],
      "stateMutability": "view",
      "type": "function"
    },
    {
      "inputs": [],
      "name": "mmRatio",
      "outputs": [
        {
          "internalType": "uint24",
          "name": "",
          "type": "uint24"
        }
      ],
      "stateMutability": "view",
      "type": "function"
    },
    {
      "inputs": [
        {
          "components": [
            {
              "internalType": "address",
              "name": "trader",
              "type": "address"
            },
            {
              "internalType": "address",
              "name": "market",
              "type": "address"
            },
            {
              "internalType": "bool",
              "name": "isBaseToQuote",
              "type": "bool"
            },
            {
              "internalType": "bool",
              "name": "isExactInput",
              "type": "bool"
            },
            {
              "internalType": "uint256",
              "name": "amount",
              "type": "uint256"
            },
            {
              "internalType": "uint256",
              "name": "oppositeAmountBound",
              "type": "uint256"
            },
            {
              "internalType": "uint256",
              "name": "deadline",
              "type": "uint256"
            }
          ],
          "internalType": "struct IPerpdexExchange.OpenPositionParams",
          "name": "params",
          "type": "tuple"
        }
      ],
      "name": "openPosition",
      "outputs": [
        {
          "internalType": "int256",
          "name": "base",
          "type": "int256"
        },
        {
          "internalType": "int256",
          "name": "quote",
          "type": "int256"
        }
      ],
      "stateMutability": "nonpayable",
      "type": "function"
    },
    {
      "inputs": [
        {
          "components": [
            {
              "internalType": "address",
              "name": "trader",
              "type": "address"
            },
            {
              "internalType": "address",
              "name": "market",
              "type": "address"
            },
            {
              "internalType": "address",
              "name": "caller",
              "type": "address"
            },
            {
              "internalType": "bool",
              "name": "isBaseToQuote",
              "type": "bool"
            },
            {
              "internalType": "bool",
              "name": "isExactInput",
              "type": "bool"
            },
            {
              "internalType": "uint256",
              "name": "amount",
              "type": "uint256"
            },
            {
              "internalType": "uint256",
              "name": "oppositeAmountBound",
              "type": "uint256"
            }
          ],
          "internalType": "struct IPerpdexExchange.OpenPositionDryParams",
          "name": "params",
          "type": "tuple"
        }
      ],
      "name": "openPositionDry",
      "outputs": [
        {
          "internalType": "int256",
          "name": "base",
          "type": "int256"
        },
        {
          "internalType": "int256",
          "name": "quote",
          "type": "int256"
        }
      ],
      "stateMutability": "view",
      "type": "function"
    },
    {
      "inputs": [],
      "name": "owner",
      "outputs": [
        {
          "internalType": "address",
          "name": "",
          "type": "address"
        }
      ],
      "stateMutability": "view",
      "type": "function"
    },
    {
      "inputs": [],
      "name": "priceLimitConfig",
      "outputs": [
        {
          "internalType": "uint24",
          "name": "normalOrderRatio",
          "type": "uint24"
        },
        {
          "internalType": "uint24",
          "name": "liquidationRatio",
          "type": "uint24"
        }
      ],
      "stateMutability": "view",
      "type": "function"
    },
    {
      "inputs": [
        {
          "internalType": "address",
          "name": "",
          "type": "address"
        }
      ],
      "name": "priceLimitInfos",
      "outputs": [
        {
          "internalType": "uint256",
          "name": "referencePrice",
          "type": "uint256"
        },
        {
          "internalType": "uint256",
          "name": "referenceBlockNumber",
          "type": "uint256"
        }
      ],
      "stateMutability": "view",
      "type": "function"
    },
    {
      "inputs": [],
      "name": "protocolFeeRatio",
      "outputs": [
        {
          "internalType": "uint24",
          "name": "",
          "type": "uint24"
        }
      ],
      "stateMutability": "view",
      "type": "function"
    },
    {
      "inputs": [],
      "name": "protocolInfo",
      "outputs": [
        {
          "internalType": "uint256",
          "name": "protocolFee",
          "type": "uint256"
        }
      ],
      "stateMutability": "view",
      "type": "function"
    },
    {
      "inputs": [
        {
          "components": [
            {
              "internalType": "address",
              "name": "trader",
              "type": "address"
            },
            {
              "internalType": "address",
              "name": "market",
              "type": "address"
            },
            {
              "internalType": "uint256",
              "name": "liquidity",
              "type": "uint256"
            },
            {
              "internalType": "uint256",
              "name": "minBase",
              "type": "uint256"
            },
            {
              "internalType": "uint256",
              "name": "minQuote",
              "type": "uint256"
            },
            {
              "internalType": "uint256",
              "name": "deadline",
              "type": "uint256"
            }
          ],
          "internalType": "struct IPerpdexExchange.RemoveLiquidityParams",
          "name": "params",
          "type": "tuple"
        }
      ],
      "name": "removeLiquidity",
      "outputs": [
        {
          "internalType": "uint256",
          "name": "base",
          "type": "uint256"
        },
        {
          "internalType": "uint256",
          "name": "quote",
          "type": "uint256"
        }
      ],
      "stateMutability": "nonpayable",
      "type": "function"
    },
    {
      "inputs": [],
      "name": "renounceOwnership",
      "outputs": [],
      "stateMutability": "nonpayable",
      "type": "function"
    },
    {
      "inputs": [
        {
          "internalType": "uint24",
          "name": "value",
          "type": "uint24"
        }
      ],
      "name": "setImRatio",
      "outputs": [],
      "stateMutability": "nonpayable",
      "type": "function"
    },
    {
      "inputs": [
        {
          "internalType": "address",
          "name": "market",
          "type": "address"
        },
        {
          "internalType": "bool",
          "name": "value",
          "type": "bool"
        }
      ],
      "name": "setIsMarketAllowed",
      "outputs": [],
      "stateMutability": "nonpayable",
      "type": "function"
    },
    {
      "inputs": [
        {
          "internalType": "uint24",
          "name": "value",
          "type": "uint24"
        }
      ],
      "name": "setLiquidationRewardRatio",
      "outputs": [],
      "stateMutability": "nonpayable",
      "type": "function"
    },
    {
      "inputs": [
        {
          "internalType": "uint8",
          "name": "value",
          "type": "uint8"
        }
      ],
      "name": "setMaxMarketsPerAccount",
      "outputs": [],
      "stateMutability": "nonpayable",
      "type": "function"
    },
    {
      "inputs": [
        {
          "internalType": "uint24",
          "name": "value",
          "type": "uint24"
        }
      ],
      "name": "setMmRatio",
      "outputs": [],
      "stateMutability": "nonpayable",
      "type": "function"
    },
    {
      "inputs": [
        {
          "components": [
            {
              "internalType": "uint24",
              "name": "normalOrderRatio",
              "type": "uint24"
            },
            {
              "internalType": "uint24",
              "name": "liquidationRatio",
              "type": "uint24"
            }
          ],
          "internalType": "struct PerpdexStructs.PriceLimitConfig",
          "name": "value",
          "type": "tuple"
        }
      ],
      "name": "setPriceLimitConfig",
      "outputs": [],
      "stateMutability": "nonpayable",
      "type": "function"
    },
    {
      "inputs": [
        {
          "internalType": "uint24",
          "name": "value",
          "type": "uint24"
        }
      ],
      "name": "setProtocolFeeRatio",
      "outputs": [],
      "stateMutability": "nonpayable",
      "type": "function"
    },
    {
      "inputs": [],
      "name": "settlementToken",
      "outputs": [
        {
          "internalType": "address",
          "name": "",
          "type": "address"
        }
      ],
      "stateMutability": "view",
      "type": "function"
    },
    {
      "inputs": [
        {
          "internalType": "uint256",
          "name": "amount",
          "type": "uint256"
        }
      ],
      "name": "transferInsuranceFund",
      "outputs": [],
      "stateMutability": "nonpayable",
      "type": "function"
    },
    {
      "inputs": [
        {
          "internalType": "address",
          "name": "newOwner",
          "type": "address"
        }
      ],
      "name": "transferOwnership",
      "outputs": [],
      "stateMutability": "nonpayable",
      "type": "function"
    },
    {
      "inputs": [
        {
          "internalType": "uint256",
          "name": "amount",
          "type": "uint256"
        }
      ],
      "name": "transferProtocolFee",
      "outputs": [],
      "stateMutability": "nonpayable",
      "type": "function"
    },
    {
      "inputs": [
        {
          "internalType": "uint256",
          "name": "amount",
          "type": "uint256"
        }
      ],
      "name": "withdraw",
      "outputs": [],
      "stateMutability": "nonpayable",
      "type": "function"
    }
  ],
  "transactionHash": "0x2179101ea239fdd560f27fabdf6c8bbe0c5e1a43b0d4d3412b34f235f6d54788",
  "args": [
    "0x0000000000000000000000000000000000000000"
  ],
  "numDeployments": 1,
  "solcInputHash": "31cf698bcbb2ad8bf502dd052515d9ed",
  "bytecode": "0x60e060405261c35060a0819052620186a060c0526006805462ffffff191690911765ffffff0000001916650186a000000017905560078054601060ff199091161763ffffff001916630186a0001762ffffff60201b191665c350000000001762ffffff60381b191669030d40000000000000001762ffffff60501b191690553480156200008b57600080fd5b5060405162005d0638038062005d06833981016040819052620000ae9162000186565b60016000908155620000bf6200017c565b600180546001600160a01b0319166001600160a01b038316908117909155604051919250906000907f8be0079c531659141344cd1fd0a4f28419497f9722a3daafe3b4186f6b6457e0908290a3506001600160a01b03811615806200013e57506200013e816001600160a01b03166200018060201b620024d81760201c565b620001665760405162461bcd60e51b81526004016200015d90620001b6565b60405180910390fd5b60601b6001600160601b031916608052620001ed565b3390565b3b151590565b60006020828403121562000198578081fd5b81516001600160a01b0381168114620001af578182fd5b9392505050565b6020808252601b908201527f50455f433a20746f6b656e206164647265737320696e76616c69640000000000604082015260600190565b60805160601c615aec6200021a600039806108795280610f31528061163c52806117415250615aec6000f3fe6080604052600436106102515760003560e01c806393420cf411610139578063ca5b721e116100b6578063dfe1cb921161007a578063dfe1cb92146106ea578063e72e436314610719578063ec6cca8414610739578063f2fde38b14610759578063f652b52714610779578063fa8f03681461079b57610251565b8063ca5b721e1461063d578063d11102c51461065d578063d1ce35e31461068a578063d1ead563146106aa578063d2525800146106ca57610251565b8063b53c5125116100fd578063b53c5125146105b3578063b6261643146105e0578063b6b55f25146105f5578063c66fa8e614610608578063c9ca7b181461061d57610251565b806393420cf41461051c578063996fbf94146105315780639dce9e19146105515780639f044f311461057e578063a616c66c1461059357610251565b80636346f32e116101d25780637b9e618d116101965780637b9e618d146104585780637c88490a1461047a57806387cad0bf1461049a5780638da5cb5b146104c75780638f30abf8146104dc5780639317b193146104fc57610251565b80636346f32e146103cb5780636e838bad146103ee578063715018a61461040e57806373f62501146104235780637a27d9f61461044357610251565b806333ff15771161021957806333ff15771461032b5780633a9210511461034b5780633d46396a1461036b5780634b4aa7351461038b5780634ef9951a146103ab57610251565b80630674fa411461025657806319be49751461028c5780632e1a7d4d146102ba5780632e784343146102dc5780632f60a15114610309575b600080fd5b34801561026257600080fd5b50610276610271366004614ea8565b6107bb565b6040516102839190615109565b60405180910390f35b34801561029857600080fd5b506102ac6102a7366004614ea8565b6107e4565b604051610283929190615112565b3480156102c657600080fd5b506102da6102d5366004614f9a565b6107fd565b005b3480156102e857600080fd5b506102fc6102f7366004614ec2565b610913565b60405161028391906158a5565b34801561031557600080fd5b5061031e61095f565b60405161028391906158c6565b34801561033757600080fd5b50610276610346366004614ec2565b61096f565b34801561035757600080fd5b50610276610366366004614ea8565b610998565b34801561037757600080fd5b506102da610386366004614f9a565b6109b9565b34801561039757600080fd5b506102766103a6366004614ea8565b610ad0565b3480156103b757600080fd5b506102da6103c6366004614f9a565b610af1565b3480156103d757600080fd5b506103e0610c08565b6040516102839291906158d6565b3480156103fa57600080fd5b506102da610409366004614f7e565b610c1e565b34801561041a57600080fd5b506102da610d85565b34801561042f57600080fd5b506102da61043e36600461501a565b610e31565b34801561044f57600080fd5b5061031e610f1d565b34801561046457600080fd5b5061046d610f2f565b604051610283919061503b565b34801561048657600080fd5b50610276610495366004614ec2565b610f53565b3480156104a657600080fd5b506104ba6104b5366004614ea8565b610f75565b60405161028391906158bc565b3480156104d357600080fd5b5061046d610f97565b3480156104e857600080fd5b506102ac6104f7366004614f52565b610fa6565b34801561050857600080fd5b506102da610517366004614ef4565b6110f1565b34801561052857600080fd5b50610276611220565b34801561053d57600080fd5b5061027661054c366004614ec2565b611226565b34801561055d57600080fd5b5061057161056c366004614ea8565b611248565b60405161028391906150e6565b34801561058a57600080fd5b5061031e611279565b34801561059f57600080fd5b506102ac6105ae366004614f37565b61128b565b3480156105bf57600080fd5b506105d36105ce366004614ec2565b611562565b604051610283919061586b565b3480156105ec57600080fd5b5061031e6115d1565b6102da610603366004614f9a565b6115e3565b34801561061457600080fd5b506102766117c8565b34801561062957600080fd5b506102da610638366004614f7e565b6117ce565b34801561064957600080fd5b50610276610658366004614ec2565b61191d565b34801561066957600080fd5b5061067d610678366004614ea8565b61193f565b6040516102839190615099565b34801561069657600080fd5b506102da6106a5366004614f7e565b6119b8565b3480156106b657600080fd5b506102da6106c5366004614f7e565b611ad8565b3480156106d657600080fd5b506102ac6106e5366004614f52565b611bf8565b3480156106f657600080fd5b5061070a610705366004614f37565b611f10565b604051610283939291906158ec565b34801561072557600080fd5b50610571610734366004614ea8565b612203565b34801561074557600080fd5b50610571610754366004614ea8565b612218565b34801561076557600080fd5b506102da610774366004614ea8565b612247565b34801561078557600080fd5b5061078e61234a565b6040516102839190615925565b3480156107a757600080fd5b506102da6107b6366004614f6d565b612353565b6001600160a01b03811660009081526002602052604081206107dc906124de565b90505b919050565b6003602052600090815260409020805460019091015482565b60026000541415610843576040805162461bcd60e51b815260206004820152601f6024820152600080516020615994833981519152604482015290519081900360640190fd5b60026000908155610852612799565b6001600160a01b0381811660008181526002602090815260409182902082516080810184527f0000000000000000000000000000000000000000000000000000000000000000909516855290840187905290830191909152600754610100900462ffffff1660608301529192506108c9919061279d565b806001600160a01b03167f7084f5476618d8e60b11ef0d7d3f06914655adb8793e28ff7f018d4c76d505d5836040516109029190615109565b60405180910390a250506001600055565b61091b614db0565b506001600160a01b03808316600090815260026020908152604080832093851683529281529082902082518084019093528054835260010154908201525b92915050565b600754610100900462ffffff1681565b6001600160a01b0382166000908152600260205260408120610991908361287e565b9392505050565b6001600160a01b03811660009081526002602052604081206107dc906129ee565b6109c1612799565b6001600160a01b03166109d2610f97565b6001600160a01b031614610a1b576040805162461bcd60e51b81526020600482018190526024820152600080516020615a21833981519152604482015290519081900360640190fd5b60026000541415610a61576040805162461bcd60e51b815260206004820152601f6024820152600080516020615994833981519152604482015290519081900360640190fd5b60026000908155610a70612799565b6001600160a01b0381166000908152600260205260409020909150610a9790600584612a4f565b806001600160a01b03167f0880b0e717a57f3b5cbd3fc19396ae3c8cdee5c624c9289477869c38014c8495836040516109029190615109565b6001600160a01b03811660009081526002602052604081206107dc90612a7e565b610af9612799565b6001600160a01b0316610b0a610f97565b6001600160a01b031614610b53576040805162461bcd60e51b81526020600482018190526024820152600080516020615a21833981519152604482015290519081900360640190fd5b60026000541415610b99576040805162461bcd60e51b815260206004820152601f6024820152600080516020615994833981519152604482015290519081900360640190fd5b60026000908155610ba8612799565b6001600160a01b0381166000908152600260205260409020909150610bcf90600484612ad7565b806001600160a01b03167fc5f8d0712530f513c8ff696f9d12d32b95faeef78155912e567eca0284adf94f836040516109029190615109565b60065462ffffff80821691630100000090041682565b610c26612799565b6001600160a01b0316610c37610f97565b6001600160a01b031614610c80576040805162461bcd60e51b81526020600482018190526024820152600080516020615a21833981519152604482015290519081900360640190fd5b60026000541415610cc6576040805162461bcd60e51b815260206004820152601f6024820152600080516020615994833981519152604482015290519081900360640190fd5b6002600055620f424062ffffff821610610cfb5760405162461bcd60e51b8152600401610cf2906157ab565b60405180910390fd5b60075462ffffff600160201b90910481169082161015610d2d5760405162461bcd60e51b8152600401610cf290615712565b6007805463ffffff00191661010062ffffff8416021790556040517f04f9c1a24c6543f4b91577d82af28fb7ef6d7b9fe46acd0e5c36ef17073b94e690610d759083906158c6565b60405180910390a1506001600055565b610d8d612799565b6001600160a01b0316610d9e610f97565b6001600160a01b031614610de7576040805162461bcd60e51b81526020600482018190526024820152600080516020615a21833981519152604482015290519081900360640190fd5b6001546040516000916001600160a01b0316907f8be0079c531659141344cd1fd0a4f28419497f9722a3daafe3b4186f6b6457e0908390a3600180546001600160a01b0319169055565b610e39612799565b6001600160a01b0316610e4a610f97565b6001600160a01b031614610e93576040805162461bcd60e51b81526020600482018190526024820152600080516020615a21833981519152604482015290519081900360640190fd5b60026000541415610ed9576040805162461bcd60e51b815260206004820152601f6024820152600080516020615994833981519152604482015290519081900360640190fd5b60026000556007805460ff191660ff83161790556040517fa7b4760b38e2a630f3073fcd5119972cbf81bd50e3761f86534a69661caf811090610d75908390615925565b600754600160501b900462ffffff1681565b7f000000000000000000000000000000000000000000000000000000000000000081565b6001600160a01b03821660009081526002602052604081206109919083612b24565b6002602081815260009283526040928390208351918201909352910154815281565b6001546001600160a01b031690565b600080610fb96040840160208501614ea8565b6001600160a01b03811660009081526008602052604090205460ff16610ff15760405162461bcd60e51b8152600401610cf2906153f7565b60006110006020860186614ea8565b905060006110146060870160408801614ea8565b90506110e560026000846001600160a01b03166001600160a01b0316815260200190815260200160002060405180610100016040528089602001602081019061105d9190614ea8565b6001600160a01b0316815260200161107b60808b0160608c01614f1d565b1515815260200161109260a08b0160808c01614f1d565b1515815260a0808b0135602083015260c08b0135604083015260075462ffffff600160201b820481166060850152600160501b9091041660808301526001600160a01b0387811690871614910152612bcc565b94509450505050915091565b6110f9612799565b6001600160a01b031661110a610f97565b6001600160a01b031614611153576040805162461bcd60e51b81526020600482018190526024820152600080516020615a21833981519152604482015290519081900360640190fd5b60026000541415611199576040805162461bcd60e51b815260206004820152601f6024820152600080516020615994833981519152604482015290519081900360640190fd5b60026000556111b06001600160a01b0383166124d8565b6111cc5760405162461bcd60e51b8152600401610cf290615490565b6001600160a01b03821660008181526008602052604090819020805460ff1916841515179055517fd5d4c2e150c76234e0f5d390162d34c5c1e1405df2194cfbd63b12d9521b1027906109029084906150e6565b60055481565b6001600160a01b03821660009081526002602052604081206109919083612c66565b6001600160a01b03811660009081526002602052604081206007546107dc9190600160201b900462ffffff16612cfc565b600754600160201b900462ffffff1681565b600080600260005414156112d4576040805162461bcd60e51b815260206004820152601f6024820152600080516020615994833981519152604482015290519081900360640190fd5b600260005560a0830135428110156112fe5760405162461bcd60e51b8152600401610cf290615584565b61130e6040850160208601614ea8565b6001600160a01b03811660009081526008602052604090205460ff166113465760405162461bcd60e51b8152600401610cf2906153f7565b600061141960028261135b60208a018a614ea8565b6001600160a01b03166001600160a01b031681526020019081526020016000206040518060e001604052808960200160208101906113999190614ea8565b6001600160a01b031681526040808b013560208301526060808c0135918301919091526080808c01359183019190915260075462ffffff600160201b8204169183019190915260ff1660a082015260c0016113f2612799565b6001600160a01b031661140860208c018c614ea8565b6001600160a01b0316149052612d30565b9050600061142d6040880160208901614ea8565b6001600160a01b0316639482de1a6040518163ffffffff1660e01b815260040160206040518083038186803b15801561146557600080fd5b505afa158015611479573d6000803e3d6000fd5b505050506040513d601f19601f8201168201806040525081019061149d9190614fb2565b90506114af6040880160208901614ea8565b6001600160a01b03166114c56020890189614ea8565b6001600160a01b03167f2935383596639a6916071dea84c6ed5d6c6315fa9628268974458798fea93ebc8460c001516114ff576000611507565b611507612799565b856000015186602001518c60400135886040015189606001518a608001518a8c60a001516040516115409998979695949392919061504f565b60405180910390a3508051602090910151600160005590969095509350505050565b61156a614dca565b506001600160a01b0391821660009081526002602081815260408084209490951683526001938401815291849020845160a0810186528154815293810154928401929092528101549282019290925260038201546060820152600490910154608082015290565b600754600160381b900462ffffff1681565b60026000541415611629576040805162461bcd60e51b815260206004820152601f6024820152600080516020615994833981519152604482015290519081900360640190fd5b60026000908155611638612799565b90507f00000000000000000000000000000000000000000000000000000000000000006001600160a01b03166116ee5781156116865760405162461bcd60e51b8152600401610cf2906151df565b6001600160a01b03811660009081526002602052604090206116a89034613069565b806001600160a01b03167f2da466a7b24304f47e87fa2e1e5a81b9831ce54fec19055ce277ca2f39ba42c4346040516116e19190615109565b60405180910390a26117bf565b341561170c5760405162461bcd60e51b8152600401610cf2906154c7565b61178660026000836001600160a01b03166001600160a01b0316815260200190815260200160002060405180606001604052807f00000000000000000000000000000000000000000000000000000000000000006001600160a01b03168152602001858152602001846001600160a01b03168152506130ac565b806001600160a01b03167f2da466a7b24304f47e87fa2e1e5a81b9831ce54fec19055ce277ca2f39ba42c4836040516109029190615109565b50506001600055565b60045481565b6117d6612799565b6001600160a01b03166117e7610f97565b6001600160a01b031614611830576040805162461bcd60e51b81526020600482018190526024820152600080516020615a21833981519152604482015290519081900360640190fd5b60026000541415611876576040805162461bcd60e51b815260206004820152601f6024820152600080516020615994833981519152604482015290519081900360640190fd5b600260005560075462ffffff610100909104811690821611156118ab5760405162461bcd60e51b8152600401610cf290615352565b60008162ffffff16116118d05760405162461bcd60e51b8152600401610cf290615689565b6007805466ffffff000000001916600160201b62ffffff8416021790556040517ffbd0bf17b9833a130f5baeccbfc586acefc75be8ad5bb114f448e412adc4c05b90610d759083906158c6565b6001600160a01b038216600090815260026020526040812061099190836130f7565b6001600160a01b0381166000908152600260209081526040918290206003018054835181840281018401909452808452606093928301828280156119ac57602002820191906000526020600020905b81546001600160a01b0316815260019091019060200180831161198e575b50505050509050919050565b6119c0612799565b6001600160a01b03166119d1610f97565b6001600160a01b031614611a1a576040805162461bcd60e51b81526020600482018190526024820152600080516020615a21833981519152604482015290519081900360640190fd5b60026000541415611a60576040805162461bcd60e51b815260206004820152601f6024820152600080516020615994833981519152604482015290519081900360640190fd5b600260005561271062ffffff82161115611a8c5760405162461bcd60e51b8152600401610cf290615326565b6007805462ffffff60501b1916600160501b62ffffff8416021790556040517f68c41b7a5c12c4d9cbb99ec284bf647922a75f379a90694e3ad65574f4ff944d90610d759083906158c6565b611ae0612799565b6001600160a01b0316611af1610f97565b6001600160a01b031614611b3a576040805162461bcd60e51b81526020600482018190526024820152600080516020615a21833981519152604482015290519081900360640190fd5b60026000541415611b80576040805162461bcd60e51b815260206004820152601f6024820152600080516020615994833981519152604482015290519081900360640190fd5b6002600055620f424062ffffff821610611bac5760405162461bcd60e51b8152600401610cf2906152fa565b6007805462ffffff60381b1916600160381b62ffffff8416021790556040517f10466073fda7769855d5b082331eb5d7b54af12b2c6628ebd1dfe089f947bb2690610d759083906158c6565b60008060026000541415611c41576040805162461bcd60e51b815260206004820152601f6024820152600080516020615994833981519152604482015290519081900360640190fd5b600260005560c083013542811015611c6b5760405162461bcd60e51b8152600401610cf290615584565b611c7b6040850160208601614ea8565b6001600160a01b03811660009081526008602052604090205460ff16611cb35760405162461bcd60e51b8152600401610cf2906153f7565b6000611cbe866131ad565b90506000611cd26040880160208901614ea8565b6001600160a01b0316639482de1a6040518163ffffffff1660e01b815260040160206040518083038186803b158015611d0a57600080fd5b505afa158015611d1e573d6000803e3d6000fd5b505050506040513d601f19601f82011682018060405250810190611d429190614fb2565b90506000611d566040890160208a01614ea8565b6001600160a01b0316638ee8fe5d6040518163ffffffff1660e01b815260040160206040518083038186803b158015611d8e57600080fd5b505afa158015611da2573d6000803e3d6000fd5b505050506040513d601f19601f82011682018060405250810190611dc69190614fb2565b90508260c0015115611e7457611dda612799565b6001600160a01b0316611df360408a0160208b01614ea8565b6001600160a01b0316611e0960208b018b614ea8565b6001600160a01b03167f500126d8372eddb0ce0f8141f6cd1aac109959eb86b0247bd5ebe8352de53dd7866000015187602001518860400151896060015189898c608001518d60a00151604051611e67989796959493929190615148565b60405180910390a4611ef5565b611e846040890160208a01614ea8565b6001600160a01b0316611e9a60208a018a614ea8565b6001600160a01b03167fe386a40c070a1424ae709b98c27e64993228f777c6294ef7149cf0ee42ef46e885600001518660200151876040015188606001518888604051611eec96959493929190615120565b60405180910390a35b50508051602090910151600160005590969095509350505050565b600080600060026000541415611f5b576040805162461bcd60e51b815260206004820152601f6024820152600080516020615994833981519152604482015290519081900360640190fd5b600260005560a084013542811015611f855760405162461bcd60e51b8152600401610cf290615584565b611f926020860186614ea8565b6001600160a01b03811660009081526008602052604090205460ff16611fca5760405162461bcd60e51b8152600401610cf2906153f7565b6000611fd4612799565b9050600061207160026000846001600160a01b03166001600160a01b031681526020019081526020016000206040518060e001604052808b600001602081019061201e9190614ea8565b6001600160a01b0316815260208c810135908201526040808d0135908201526060808d0135908201526080808d01359082015260075462ffffff61010082041660a083015260ff1660c09091015261336c565b9050600061208260208a018a614ea8565b6001600160a01b0316639482de1a6040518163ffffffff1660e01b815260040160206040518083038186803b1580156120ba57600080fd5b505afa1580156120ce573d6000803e3d6000fd5b505050506040513d601f19601f820116820180604052508101906120f29190614fb2565b9050600061210360208b018b614ea8565b6001600160a01b0316638ee8fe5d6040518163ffffffff1660e01b815260040160206040518083038186803b15801561213b57600080fd5b505afa15801561214f573d6000803e3d6000fd5b505050506040513d601f19601f820116820180604052508101906121739190614fb2565b905061218260208b018b614ea8565b6001600160a01b0316846001600160a01b03167fea3191ffbe2f62bfd724ee8d971b15ff9b7994e3a9169dc4c60443be3e4a43c485600001518660200151876040015187876040516121d8959493929190615902565b60405180910390a3505080516020820151604090920151600160005590999198509650945050505050565b60086020526000908152604090205460ff1681565b6001600160a01b03811660009081526002602052604081206007546107dc9190610100900462ffffff166135a9565b61224f612799565b6001600160a01b0316612260610f97565b6001600160a01b0316146122a9576040805162461bcd60e51b81526020600482018190526024820152600080516020615a21833981519152604482015290519081900360640190fd5b6001600160a01b0381166122ee5760405162461bcd60e51b81526004018080602001828103825260268152602001806159b46026913960400191505060405180910390fd5b6001546040516001600160a01b038084169216907f8be0079c531659141344cd1fd0a4f28419497f9722a3daafe3b4186f6b6457e090600090a3600180546001600160a01b0319166001600160a01b0392909216919091179055565b60075460ff1681565b61235b612799565b6001600160a01b031661236c610f97565b6001600160a01b0316146123b5576040805162461bcd60e51b81526020600482018190526024820152600080516020615a21833981519152604482015290519081900360640190fd5b600260005414156123fb576040805162461bcd60e51b815260206004820152601f6024820152600080516020615994833981519152604482015290519081900360640190fd5b60026000556207a1206124146040830160208401614f7e565b62ffffff1611156124375760405162461bcd60e51b8152600401610cf29061561b565b6124476040820160208301614f7e565b62ffffff166124596020830183614f7e565b62ffffff16111561247c5760405162461bcd60e51b8152600401610cf2906152d0565b8060066124898282615933565b507f6d0808b304b0ca02386b2dad7773c8195542192fb984edc226e698ab9d05002b90506124ba6020830183614f7e565b6124ca6040840160208501614f7e565b604051610d759291906158d6565b3b151590565b600281015460038201805460009290835b8181101561278f57600084828154811061250557fe5b60009182526020808320909101546001600160a01b031680835260018a01825260408084208054938c905290842054919450929161254391906135ec565b6001808401546001600160a01b038616600090815260208d905260408120909201549293509091612573916135ec565b905082600201546000146126df57600080856001600160a01b0316637640482f86600201546040518263ffffffff1660e01b815260040180828152602001915050604080518083038186803b1580156125cb57600080fd5b505afa1580156125df573d6000803e3d6000fd5b505050506040513d60408110156125f557600080fd5b508051602090910151600287015460038801546004808a01546040805163933c797960e01b81529283019490945260248201929092526044810191909152815193955091935060009283926001600160a01b038b169263933c797992606480840193829003018186803b15801561266b57600080fd5b505afa15801561267f573d6000803e3d6000fd5b505050506040513d604081101561269557600080fd5b50805160209091015190925090506126bf6126b86126b38685613651565b6136ab565b87906136f3565b95506126d86126d16126b38584613651565b86906136f3565b9450505050505b8115612774576000846001600160a01b0316638ee8fe5d6040518163ffffffff1660e01b815260040160206040518083038186803b15801561272057600080fd5b505afa158015612734573d6000803e3d6000fd5b505050506040513d602081101561274a57600080fd5b5051905061277061276961275d836136ab565b8590600160601b613758565b89906136f3565b9750505b61277e87826136f3565b9650505050508060010190506124ef565b5090949350505050565b3390565b60008160200151116127c15760405162461bcd60e51b8152600401610cf290615465565b6127dc6127d182602001516136ab565b6002840154906135ec565b600283015560608101516127f19083906135a9565b61280d5760405162461bcd60e51b8152600401610cf290615389565b80516001600160a01b03166128635780604001516001600160a01b03166108fc82602001519081150290604051600060405180830381858888f1935050505015801561285d573d6000803e3d6000fd5b5061287a565b61287a8160000151826040015183602001516137fc565b5050565b6001600160a01b038116600090815260018301602090815260408083208054928690529083205490916128b191906135ec565b915080600201546000146129e7576000836001600160a01b0316637640482f83600201546040518263ffffffff1660e01b815260040180828152602001915050604080518083038186803b15801561290857600080fd5b505afa15801561291c573d6000803e3d6000fd5b505050506040513d604081101561293257600080fd5b5051600283015460038401546004808601546040805163933c797960e01b8152928301949094526024820192909252604481019190915281519293506000926001600160a01b0388169263933c79799260648082019391829003018186803b15801561299d57600080fd5b505afa1580156129b1573d6000803e3d6000fd5b505050506040513d60408110156129c757600080fd5b505190506129e26129db6126b38484613651565b85906136f3565b935050505b5092915050565b600381018054600091908290815b8181101561278f576000612a38612a3388878581548110612a1957fe5b6000918252602090912001546001600160a01b0316612b24565b61384e565b9050612a448482613651565b9350506001016129fc565b612a66612a5b826136ab565b6002850154906136f3565b60028401558154612a779082613877565b9091555050565b600381018054600091908290815b8181101561278f576000612ac087868481548110612aa657fe5b6000918252602090912001546001600160a01b0316612c66565b9050612acc8482613651565b935050600101612a8c565b612ae3612a5b826136ab565b6002840155612afc612af4826136ab565b8354906135ec565b80835560001315612b1f5760405162461bcd60e51b8152600401610cf290615267565b505050565b600080612b31848461287e565b905080612b42576000915050610959565b6000836001600160a01b0316638ee8fe5d6040518163ffffffff1660e01b815260040160206040518083038186803b158015612b7d57600080fd5b505afa158015612b91573d6000803e3d6000fd5b505050506040513d6020811015612ba757600080fd5b50519050612bc3612bb7826136ab565b8390600160601b613758565b95945050505050565b6000806000612bdf858560a00151612cfc565b1590508360e00151612c085780612c085760405162461bcd60e51b8152600401610cf290615749565b6000612c2b85600001518660200151876040015188606001518960c001516138d4565b509050612c418560400151828760800151613b17565b612c5985602001518660400151876060015184613b62565b9097909650945050505050565b600080612c7384846130f7565b905080612c84576000915050610959565b6000836001600160a01b0316638ee8fe5d6040518163ffffffff1660e01b815260040160206040518083038186803b158015612cbf57600080fd5b505afa158015612cd3573d6000803e3d6000fd5b505050506040513d6020811015612ce957600080fd5b50519050612bc38282600160601b613bd1565b600080612d08846124de565b90506000612d15856129ee565b9050612d246126b38286613c80565b90911215949350505050565b612d38614df9565b612d46838360800151612cfc565b1560c080830191909152820151612d78578060c00151612d785760405162461bcd60e51b8152600401610cf29061517e565b81516001600160a01b0316600090815260018401602052604090208251612d9f9190613c95565b81516020830151604051639c8f9f2360e01b81526001600160a01b0390921691639c8f9f2391612dd191600401615109565b6040805180830381600087803b158015612dea57600080fd5b505af1158015612dfe573d6000803e3d6000fd5b505050506040513d601f19601f82011682018060405250810190612e229190614fca565b602083015280825260408301511115612e4d5760405162461bcd60e51b8152600401610cf290615774565b816060015181602001511015612e755760405162461bcd60e51b8152600401610cf290615774565b60008083600001516001600160a01b031663f22897526040518163ffffffff1660e01b8152600401604080518083038186803b158015612eb457600080fd5b505afa158015612ec8573d6000803e3d6000fd5b505050506040513d601f19601f82011682018060405250810190612eec9190614fca565b85516001600160a01b039081166000908152600189016020908152604080832060038101969096556004909501939093558751909116815291822090860151919350839250612f3a91613d62565b91509150612f518585600001518660a00151613ddf565b612f6882612f6285600001516136ab565b906135ec565b60408401526020830151612f81908290612f62906136ab565b836060018181525050505081600001516001600160a01b0316637452fadd6040518163ffffffff1660e01b815260040160206040518083038186803b158015612fc957600080fd5b505afa158015612fdd573d6000803e3d6000fd5b505050506040513d601f19601f820116820180604052508101906130019190614fb2565b60a0820181905260009061302890613018906136ab565b604084015190600160601b613758565b600003905061305d8484600001518460400151846130538688606001516135ec90919063ffffffff16565b8860a00151613fa9565b60808301525092915050565b600081116130895760405162461bcd60e51b8152600401610cf290615558565b6130a0613095826136ab565b6002840154906136f3565b60029092019190915550565b60008160200151116130d05760405162461bcd60e51b8152600401610cf29061520e565b6130e781600001518260400151836020015161416e565b6130a061309582602001516136ab565b6001600160a01b0381166000908152600183016020526040812061311e612a33858561287e565b915080600201546000146129e7576000836001600160a01b0316637640482f83600201546040518263ffffffff1660e01b815260040180828152602001915050604080518083038186803b15801561317557600080fd5b505afa158015613189573d6000803e3d6000fd5b505050506040513d604081101561319f57600080fd5b50519050612bc38382613651565b6131b5614df9565b6107dc600260006131c96020860186614ea8565b6001600160a01b03166001600160a01b03168152602001908152602001600020600260006131f5612799565b6001600160a01b03166001600160a01b031681526020019081526020016000206002016004600360008760200160208101906132319190614ea8565b6001600160a01b03166001600160a01b0316815260200190815260200160002060056040518061018001604052808960200160208101906132729190614ea8565b6001600160a01b0316815260200161329060608b0160408c01614f1d565b151581526020016132a760808b0160608c01614f1d565b151581526080808b013560208084019190915260a0808d0135604080860191909152805180820190915260065462ffffff808216835263010000009091048116938201939093526060850152600754600160201b810483169385019390935261010080840483169185019190915260ff831660c0850152600160501b8304821660e0850152600160381b909204169082015261012001613345612799565b6001600160a01b031661335b60208c018c614ea8565b6001600160a01b031614905261429f565b613374614e38565b81516001600160a01b031660009081526001840160205260409020825161339c908290613c95565b600080600085600001516001600160a01b0316639cd441da876020015188604001516040518363ffffffff1660e01b81526004016133db929190615112565b606060405180830381600087803b1580156133f557600080fd5b505af1158015613409573d6000803e3d6000fd5b505050506040513d601f19601f8201168201806040525081019061342d9190614fed565b92509250925085606001518310156134575760405162461bcd60e51b8152600401610cf29061542e565b856080015182101561347b5760405162461bcd60e51b8152600401610cf2906155ad565b60008087600001516001600160a01b031663f22897526040518163ffffffff1660e01b8152600401604080518083038186803b1580156134ba57600080fd5b505afa1580156134ce573d6000803e3d6000fd5b505050506040513d601f19601f820116820180604052508101906134f29190614fca565b9150915061350a613502866136ab565b8754906136f3565b8655613523613518856136ab565b6001880154906136f3565b600187015560028601546135379084613651565b60028701556003860182905560048601819055875160c089015161355c918b91613ddf565b61356a898960a001516135a9565b6135865760405162461bcd60e51b8152600401610cf29061583d565b505060408051606081018252938452602084019290925290820152949350505050565b6000806135b5846124de565b905060006135c285612a7e565b90506135d16126b38286613c80565b60028601546135e190849061455d565b121595945050505050565b60008183038183128015906136015750838113155b80613616575060008312801561361657508381135b6109915760405162461bcd60e51b8152600401808060200182810382526024815260200180615a696024913960400191505060405180910390fd5b600082820183811015610991576040805162461bcd60e51b815260206004820152601b60248201527f536166654d6174683a206164646974696f6e206f766572666c6f770000000000604482015290519081900360640190fd5b6000600160ff1b82106136ef5760405162461bcd60e51b8152600401808060200182810382526028815260200180615a416028913960400191505060405180910390fd5b5090565b60008282018183128015906137085750838112155b8061371d575060008312801561371d57508381125b6109915760405162461bcd60e51b81526004018080602001828103825260218152602001806159da6021913960400191505060405180910390fd5b600080600085126137695784613772565b61377285614573565b90506000808512613783578461378c565b61378c85614573565b90506000808712801561379f5750600086135b806137b557506000871380156137b55750600086125b6137c05760006137c3565b60015b905060006137d2848488613bd1565b9050816137e7576137e2816136ab565b6137f0565b6137f08161459f565b98975050505050505050565b604080516001600160a01b038416602482015260448082018490528251808303909101815260649091019091526020810180516001600160e01b031663a9059cbb60e01b179052612b1f9084906145b3565b60008082121561386e5761386961386483614573565b614664565b6107dc565b6107dc82614664565b6000828211156138ce576040805162461bcd60e51b815260206004820152601e60248201527f536166654d6174683a207375627472616374696f6e206f766572666c6f770000604482015290519081900360640190fd5b50900390565b6000808415613a1e57851561398157604051625f6ae560e21b81526001600160a01b0388169063017dab9490613912908990899089906004016150f1565b60206040518083038186803b15801561392a57600080fd5b505afa15801561393e573d6000803e3d6000fd5b505050506040513d601f19601f820116820180604052508101906139629190614fb2565b915061396e8284613c80565b905061397a8282613877565b9150613a19565b61398b8484613c80565b90506001600160a01b03871663017dab9487876139a88886613877565b6040518463ffffffff1660e01b81526004016139c6939291906150f1565b60206040518083038186803b1580156139de57600080fd5b505afa1580156139f2573d6000803e3d6000fd5b505050506040513d601f19601f82011682018060405250810190613a169190614fb2565b91505b613b0d565b8515613a6257613a4584613a3f613a38620f4240876146bb565b87906146e7565b90613877565b90506001600160a01b03871663017dab9487876139a88886613651565b604051625f6ae560e21b81526000906001600160a01b0389169063017dab9490613a94908a908a908a906004016150f1565b60206040518083038186803b158015613aac57600080fd5b505afa158015613ac0573d6000803e3d6000fd5b505050506040513d601f19601f82011682018060405250810190613ae49190614fb2565b9050613afd613af6620f4240866146bb565b82906146e7565b9250613b098382613877565b9150505b9550959350505050565b8215613b425780821015613b3d5760405162461bcd60e51b8152600401610cf2906154f9565b612b1f565b80821115612b1f5760405162461bcd60e51b8152600401610cf2906156af565b6000808415613b9e578515613b8c57613b7a8461459f565b613b83846136ab565b91509150613bc8565b613b95836136ab565b613b838561459f565b8515613bb657613bad8361459f565b613b83856136ab565b613bbf846136ab565b613b838461459f565b94509492505050565b6000808060001985870986860292508281109083900303905080613c075760008411613bfc57600080fd5b508290049050610991565b808411613c1357600080fd5b6000848688096000868103871696879004966002600389028118808a02820302808a02820302808a02820302808a02820302808a02820302808a02909103029181900381900460010186841190950394909402919094039290920491909117919091029150509392505050565b6000610991838362ffffff16620f4240613bd1565b6002820154600383015460048085015460405163933c797960e01b815260009485946001600160a01b0388169463933c797994613cd4949091016158ec565b604080518083038186803b158015613ceb57600080fd5b505afa158015613cff573d6000803e3d6000fd5b505050506040513d601f19601f82011682018060405250810190613d239190614fca565b91509150613d3b613d33836136ab565b8554906135ec565b8455613d54613d49826136ab565b6001860154906135ec565b846001018190555050505050565b600080613d7f613d71846136ab565b600286015486549190613758565b8454909250613d8e90836135ec565b8455613dad613d9c846136ab565b600286015460018701549190613758565b6001850154909150613dbf90826135ec565b60018501556002840154613dd39084613877565b60028501559250929050565b6001600160a01b038216600090815260208490526040812054151580613e2157506001600160a01b038316600090815260018501602052604090206002015415155b6003850180549192509060005b81811015613f1157856001600160a01b0316838281548110613e4c57fe5b6000918252602090912001546001600160a01b03161415613f095783613f0057826001830381548110613e7b57fe5b9060005260206000200160009054906101000a90046001600160a01b0316838281548110613ea557fe5b9060005260206000200160006101000a8154816001600160a01b0302191690836001600160a01b0316021790555082805480613edd57fe5b600082815260209020810160001990810180546001600160a01b03191690550190555b50505050612b1f565b600101613e2e565b5082613f1f57505050612b1f565b8360ff16816001011115613f74576040805162461bcd60e51b8152602060048201526017602482015276414c5f55503a20746f6f206d616e79206d61726b65747360481b604482015290519081900360640190fd5b508054600181018255600091825260209091200180546001600160a01b0385166001600160a01b031990911617905550505050565b6001600160a01b038516600090815260208790526040812085151580613fce57508415155b156140ab57613fdc856146fc565b613fe5876146fc565b02600019146140065760405162461bcd60e51b8152600401610cf29061580d565b61400f866146fc565b815461401a906146fc565b0260001914156140ab57670de0b6b3a7640000600061404e61403b8961384e565b83614049866000015461384e565b613bd1565b9050818111614085576000614071614065836136ab565b60018601549085613758565b905061407d88826136f3565b9450506140a8565b6000614092888484613758565b60018501549091506140a490826136f3565b9450505b50505b6140b582856136f3565b81549092506000906140c790886136f3565b905060006140f084612f62886140ea8b88600101546136f390919063ffffffff16565b906136f3565b9050811580156140fe575080155b8061411c575061410d816146fc565b614116836146fc565b02600019145b6141385760405162461bcd60e51b8152600401610cf290615239565b8183556001830181905560028a015461415190856136f3565b60028b01556141618a8a87613ddf565b5050509695505050505050565b6040516370a0823160e01b81526000906001600160a01b038516906370a082319061419d90309060040161503b565b60206040518083038186803b1580156141b557600080fd5b505afa1580156141c9573d6000803e3d6000fd5b505050506040513d601f19601f820116820180604052508101906141ed9190614fb2565b90506141fb84843085614724565b8161427c82866001600160a01b03166370a08231306040518263ffffffff1660e01b815260040161422c919061503b565b60206040518083038186803b15801561424457600080fd5b505afa158015614258573d6000803e3d6000fd5b505050506040513d601f19601f82011682018060405250810190613a3f9190614fb2565b146142995760405162461bcd60e51b8152600401610cf2906153c0565b50505050565b6142a7614df9565b6142b5878360c00151612cfc565b1560c08201526101608201516142e6578060c001516142e65760405162461bcd60e51b8152600401610cf29061552e565b600082600001516001600160a01b0316637452fadd6040518163ffffffff1660e01b815260040160206040518083038186803b15801561432557600080fd5b505afa158015614339573d6000803e3d6000fd5b505050506040513d601f19601f8201168201806040525081019061435d9190614fb2565b9050614369858261477e565b5081516001600160a01b03166000908152602088815260409182902054845191850151928501516060860151608087015161010088015161012089015194966143bc968f968c9691959294919390614795565b60608601526040850152602084015280835260009081906143dc906146fc565b84516143f2906143ed9086906136f3565b6146fc565b021390508260c001511561444f57801561441e5760405162461bcd60e51b8152600401610cf2906151a8565b6144448960020189898760c0015188610140015161443f896020015161384e565b614880565b60a085015260808401525b600084600001516001600160a01b0316637452fadd6040518163ffffffff1660e01b815260040160206040518083038186803b15801561448e57600080fd5b505afa1580156144a2573d6000803e3d6000fd5b505050506040513d601f19601f820116820180604052508101906144c69190614fb2565b90508360c0015115614502576144e1878660a00151836148f8565b6144fd5760405162461bcd60e51b8152600401610cf290615652565b61452d565b614511878660a0015183614915565b61452d5760405162461bcd60e51b8152600401610cf2906157d6565b8115614161576145418a8660e001516135a9565b6141615760405162461bcd60e51b8152600401610cf2906156e4565b600081831261456c5781610991565b5090919050565b6000600160ff1b82136145985760405162461bcd60e51b8152600401610cf2906155e4565b5060000390565b60006145aa826136ab565b60000392915050565b6000614608826040518060400160405280602081526020017f5361666545524332303a206c6f772d6c6576656c2063616c6c206661696c6564815250856001600160a01b03166149279092919063ffffffff16565b805190915015612b1f5780806020019051602081101561462757600080fd5b5051612b1f5760405162461bcd60e51b815260040180806020018281038252602a815260200180615a8d602a913960400191505060405180910390fd5b6000808212156136ef576040805162461bcd60e51b815260206004820181905260248201527f53616665436173743a2076616c7565206d75737420626520706f736974697665604482015290519081900360640190fd5b60008262ffffff168262ffffff1611156138ce5760405162461bcd60e51b8152600401610cf290615299565b600061099183620f42408462ffffff16613bd1565b600080821361471c5760008212614714576000613869565b6000196107dc565b506001919050565b604080516001600160a01b0380861660248301528416604482015260648082018490528251808303909101815260849091019091526020810180516001600160e01b03166323b872dd60e01b1790526142999085906145b3565b438260010154101561287a57815543600190910155565b60008080808062ffffff8616156147bd576147b48d8d8d8d8d8b614936565b92509050614842565b60405163630e375f60e01b81526001600160a01b038d169063630e375f906147ed908e908e908e906004016150f1565b602060405180830381600087803b15801561480757600080fd5b505af115801561481b573d6000803e3d6000fd5b505050506040513d601f19601f8201168201806040525081019061483f9190614fb2565b90505b61484d8a828a613b17565b6148598b8b8b84613b62565b909550935061486d8e8d878760008c613fa9565b9250509950995099509995505050505050565b6000808061488e8487613c80565b905061489a8186613c80565b92506148a68184613877565b91506148bc6148b4826136ab565b8a54906135ec565b89556148d26148ca846136ab565b8954906136f3565b88556148e86148e0836136ab565b8854906136f3565b9096559097909650945050505050565b600061490d8460000154838560200151614b7b565b949350505050565b8254825160009161490d918490614b7b565b606061490d8484600085614bc1565b6000808415614a855785156149e65760405163630e375f60e01b81526001600160a01b0388169063630e375f90614975908990899089906004016150f1565b602060405180830381600087803b15801561498f57600080fd5b505af11580156149a3573d6000803e3d6000fd5b505050506040513d601f19601f820116820180604052508101906149c79190614fb2565b91506149d38284613c80565b90506149df8282613877565b9150614a80565b6149f08484613c80565b90506001600160a01b03871663630e375f8787614a0d8886613877565b6040518463ffffffff1660e01b8152600401614a2b939291906150f1565b602060405180830381600087803b158015614a4557600080fd5b505af1158015614a59573d6000803e3d6000fd5b505050506040513d601f19601f82011682018060405250810190614a7d9190614fb2565b91505b614b63565b8515614abc57614a9f84613a3f613a38620f4240876146bb565b90506001600160a01b03871663630e375f8787614a0d8886613651565b60405163630e375f60e01b81526000906001600160a01b0389169063630e375f90614aef908a908a908a906004016150f1565b602060405180830381600087803b158015614b0957600080fd5b505af1158015614b1d573d6000803e3d6000fd5b505050506040513d601f19601f82011682018060405250810190614b419190614fb2565b9050614b53613af6620f4240866146bb565b9250614b5f8382613877565b9150505b8754614b6f9082613651565b90975596945050505050565b600080614b888584613c80565b90506000614b968683613651565b90506000614ba48784613877565b9050858111158015614bb65750818611155b979650505050505050565b606082471015614c025760405162461bcd60e51b81526004018080602001828103825260268152602001806159fb6026913960400191505060405180910390fd5b614c0b856124d8565b614c5c576040805162461bcd60e51b815260206004820152601d60248201527f416464726573733a2063616c6c20746f206e6f6e2d636f6e7472616374000000604482015290519081900360640190fd5b600080866001600160a01b031685876040518082805190602001908083835b60208310614c9a5780518252601f199092019160209182019101614c7b565b6001836020036101000a03801982511681845116808217855250505050505090500191505060006040518083038185875af1925050503d8060008114614cfc576040519150601f19603f3d011682016040523d82523d6000602084013e614d01565b606091505b5091509150614bb682828660608315614d1b575081610991565b825115614d2b5782518084602001fd5b8160405162461bcd60e51b81526004018080602001828103825283818151815260200191508051906020019080838360005b83811015614d75578181015183820152602001614d5d565b50505050905090810190601f168015614da25780820380516001836020036101000a031916815260200191505b509250505060405180910390fd5b604051806040016040528060008152602001600081525090565b6040518060a0016040528060008152602001600081526020016000815260200160008152602001600081525090565b6040518060e001604052806000815260200160008152602001600081526020016000815260200160008152602001600081526020016000151581525090565b60405180606001604052806000815260200160008152602001600081525090565b80356001600160a01b03811681146107df57600080fd5b803580151581146107df57600080fd5b600060c08284031215614e91578081fd5b50919050565b600060e08284031215614e91578081fd5b600060208284031215614eb9578081fd5b61099182614e59565b60008060408385031215614ed4578081fd5b614edd83614e59565b9150614eeb60208401614e59565b90509250929050565b60008060408385031215614f06578182fd5b614f0f83614e59565b9150614eeb60208401614e70565b600060208284031215614f2e578081fd5b61099182614e70565b600060c08284031215614f48578081fd5b6109918383614e80565b600060e08284031215614f63578081fd5b6109918383614e97565b600060408284031215614e91578081fd5b600060208284031215614f8f578081fd5b81356109918161597f565b600060208284031215614fab578081fd5b5035919050565b600060208284031215614fc3578081fd5b5051919050565b60008060408385031215614fdc578182fd5b505080516020909101519092909150565b600080600060608486031215615001578081fd5b8351925060208401519150604084015190509250925092565b60006020828403121561502b578081fd5b813560ff81168114610991578182fd5b6001600160a01b0391909116815260200190565b6001600160a01b03999099168952602089019790975260408801959095526060870193909352608086019190915260a085015260c084015260e08301526101008201526101200190565b6020808252825182820181905260009190848201906040850190845b818110156150da5783516001600160a01b0316835292840192918401916001016150b5565b50909695505050505050565b901515815260200190565b92151583529015156020830152604082015260600190565b90815260200190565b918252602082015260400190565b958652602086019490945260408501929092526060840152608083015260a082015260c00190565b978852602088019690965260408701949094526060860192909252608085015260a084015260c083015260e08201526101000190565b60208082526010908201526f4d4c5f524c3a20656e6f756768206d6d60801b604082015260600190565b6020808252601f908201527f544c5f4f503a206e6f206f70656e207768656e206c69717569646174696f6e00604082015260600190565b60208082526015908201527450455f443a20616d6f756e74206e6f74207a65726f60581b604082015260600190565b602080825260119082015270159317d10e881e995c9bc8185b5bdd5b9d607a1b604082015260600190565b6020808252601490820152732a262fa0aa2a211d103732bb32b91037b1b1bab960611b604082015260600190565b602080825260189082015277564c5f5449463a206e656761746976652062616c616e636560401b604082015260600190565b6020808252601e908201527f506572704d6174683a207375627472616374696f6e206f766572666c6f770000604082015260600190565b60208082526010908201526f141157d4d41310ce881a5b9d985b1a5960821b604082015260600190565b60208082526012908201527150455f534c52523a20746f6f206c6172676560701b604082015260600190565b60208082526012908201527150455f535046523a20746f6f206c6172676560701b604082015260600190565b6020808252601b908201527f50455f534d523a20626967676572207468616e20696d526174696f0000000000604082015260600190565b6020808252601f908201527f564c5f573a206e6f7420656e6f75676820696e697469616c206d617267696e00604082015260600190565b6020808252601c908201527f564c5f5454493a20696e636f6e73697374656e742062616c616e636500000000604082015260600190565b6020808252601a908201527f50455f434d413a206d61726b6574206e6f7420616c6c6f776564000000000000604082015260600190565b6020808252601c908201527f4d4c5f414c3a20746f6f20736d616c6c206f7574707574206261736500000000604082015260600190565b602080825260119082015270159317d5ce881e995c9bc8185b5bdd5b9d607a1b604082015260600190565b6020808252601f908201527f50455f53494d413a206d61726b6574206164647265737320696e76616c696400604082015260600190565b60208082526018908201527750455f443a206d73672e76616c7565206e6f74207a65726f60401b604082015260600190565b6020808252818101527f544c5f56533a20746f6f20736d616c6c206f70706f7369746520616d6f756e74604082015260600190565b60208082526010908201526f544c5f4f503a20656e6f756768206d6d60801b604082015260600190565b602080825260129082015271159317d1114e881e995c9bc8185b5bdd5b9d60721b604082015260600190565b6020808252600f908201526e50455f43443a20746f6f206c61746560881b604082015260600190565b6020808252601d908201527f4d4c5f414c3a20746f6f20736d616c6c206f75747075742071756f7465000000604082015260600190565b6020808252601c908201527f506572704d6174683a20696e76657273696f6e206f766572666c6f7700000000604082015260600190565b6020808252601e908201527f50455f53504c433a20746f6f206c61726765206c69717569646174696f6e0000604082015260600190565b6020808252601e908201527f544c5f4f503a206c69717569646174696f6e207072696365206c696d69740000604082015260600190565b6020808252600c908201526b50455f534d523a207a65726f60a01b604082015260600190565b6020808252818101527f544c5f56533a20746f6f206c61726765206f70706f7369746520616d6f756e74604082015260600190565b602080825260149082015273544c5f4f503a206e6f7420656e6f75676820696d60601b604082015260600190565b6020808252601c908201527f50455f5349523a20736d616c6c6572207468616e206d6d526174696f00000000604082015260600190565b602080825260119082015270544c5f4f50443a20656e6f756768206d6d60781b604082015260600190565b6020808252601c908201527f4d4c5f524c3a20746f6f20736d616c6c206f7574707574206261736500000000604082015260600190565b60208082526011908201527050455f5349523a20746f6f206c6172676560781b604082015260600190565b6020808252601f908201527f544c5f4f503a206e6f726d616c206f72646572207072696365206c696d697400604082015260600190565b602080825260169082015275151317d05515108e881a5b9d985b1a59081a5b9c1d5d60521b604082015260600190565b6020808252601490820152734d4c5f414c3a206e6f7420656e6f75676820696d60601b604082015260600190565b600060a082019050825182526020830151602083015260408301516040830152606083015160608301526080830151608083015292915050565b815181526020918201519181019190915260400190565b9051815260200190565b62ffffff91909116815260200190565b62ffffff92831681529116602082015260400190565b9283526020830191909152604082015260600190565b948552602085019390935260408401919091526060830152608082015260a00190565b60ff91909116815260200190565b813561593e8161597f565b815462ffffff191662ffffff919091161780825560208301356159608161597f565b65ffffff0000008160181b1665ffffff00000019831617835550505050565b62ffffff8116811461599057600080fd5b5056fe5265656e7472616e637947756172643a207265656e7472616e742063616c6c004f776e61626c653a206e6577206f776e657220697320746865207a65726f20616464726573735369676e6564536166654d6174683a206164646974696f6e206f766572666c6f77416464726573733a20696e73756666696369656e742062616c616e636520666f722063616c6c4f776e61626c653a2063616c6c6572206973206e6f7420746865206f776e657253616665436173743a2076616c756520646f65736e27742066697420696e20616e20696e743235365369676e6564536166654d6174683a207375627472616374696f6e206f766572666c6f775361666545524332303a204552433230206f7065726174696f6e20646964206e6f742073756363656564a2646970667358221220c8940559d10d374336141492c1943c5611f1f898e02380e371ce48a84087ad0764736f6c63430007060033",
  "devdoc": {
    "kind": "dev",
    "methods": {
      "owner()": {
        "details": "Returns the address of the current owner."
      },
      "renounceOwnership()": {
        "details": "Leaves the contract without owner. It will not be possible to call `onlyOwner` functions anymore. Can only be called by the current owner. NOTE: Renouncing ownership will leave the contract without an owner, thereby removing any functionality that is only available to the owner."
      },
      "transferOwnership(address)": {
        "details": "Transfers ownership of the contract to a new account (`newOwner`). Can only be called by the current owner."
      }
    },
    "version": 1
  },
  "userdoc": {
    "kind": "user",
    "methods": {},
    "version": 1
  },
  "storageLayout": {
    "storage": [
      {
        "astId": 2932,
        "contract": "contracts/PerpdexExchange.sol:PerpdexExchange",
        "label": "_status",
        "offset": 0,
        "slot": "0",
        "type": "t_uint256"
      },
      {
        "astId": 290,
        "contract": "contracts/PerpdexExchange.sol:PerpdexExchange",
        "label": "_owner",
        "offset": 0,
        "slot": "1",
        "type": "t_address"
      },
      {
        "astId": 3504,
        "contract": "contracts/PerpdexExchange.sol:PerpdexExchange",
        "label": "accountInfos",
        "offset": 0,
        "slot": "2",
        "type": "t_mapping(t_address,t_struct(AccountInfo)8028_storage)"
      },
      {
        "astId": 3509,
        "contract": "contracts/PerpdexExchange.sol:PerpdexExchange",
        "label": "priceLimitInfos",
        "offset": 0,
        "slot": "3",
        "type": "t_mapping(t_address,t_struct(PriceLimitInfo)8039_storage)"
      },
      {
        "astId": 3512,
        "contract": "contracts/PerpdexExchange.sol:PerpdexExchange",
        "label": "insuranceFundInfo",
        "offset": 0,
        "slot": "4",
        "type": "t_struct(InsuranceFundInfo)8031_storage"
      },
      {
        "astId": 3515,
        "contract": "contracts/PerpdexExchange.sol:PerpdexExchange",
        "label": "protocolInfo",
        "offset": 0,
        "slot": "5",
        "type": "t_struct(ProtocolInfo)8034_storage"
      },
      {
        "astId": 3526,
        "contract": "contracts/PerpdexExchange.sol:PerpdexExchange",
        "label": "priceLimitConfig",
        "offset": 0,
        "slot": "6",
        "type": "t_struct(PriceLimitConfig)8044_storage"
      },
      {
        "astId": 3530,
        "contract": "contracts/PerpdexExchange.sol:PerpdexExchange",
        "label": "maxMarketsPerAccount",
        "offset": 0,
        "slot": "7",
        "type": "t_uint8"
      },
      {
        "astId": 3534,
        "contract": "contracts/PerpdexExchange.sol:PerpdexExchange",
        "label": "imRatio",
        "offset": 1,
        "slot": "7",
        "type": "t_uint24"
      },
      {
        "astId": 3538,
        "contract": "contracts/PerpdexExchange.sol:PerpdexExchange",
        "label": "mmRatio",
        "offset": 4,
        "slot": "7",
        "type": "t_uint24"
      },
      {
        "astId": 3542,
        "contract": "contracts/PerpdexExchange.sol:PerpdexExchange",
        "label": "liquidationRewardRatio",
        "offset": 7,
        "slot": "7",
        "type": "t_uint24"
      },
      {
        "astId": 3546,
        "contract": "contracts/PerpdexExchange.sol:PerpdexExchange",
        "label": "protocolFeeRatio",
        "offset": 10,
        "slot": "7",
        "type": "t_uint24"
      },
      {
        "astId": 3551,
        "contract": "contracts/PerpdexExchange.sol:PerpdexExchange",
        "label": "isMarketAllowed",
        "offset": 0,
        "slot": "8",
        "type": "t_mapping(t_address,t_bool)"
      }
    ],
    "types": {
      "t_address": {
        "encoding": "inplace",
        "label": "address",
        "numberOfBytes": "20"
      },
      "t_array(t_address)dyn_storage": {
        "base": "t_address",
        "encoding": "dynamic_array",
        "label": "address[]",
        "numberOfBytes": "32"
      },
      "t_bool": {
        "encoding": "inplace",
        "label": "bool",
        "numberOfBytes": "1"
      },
      "t_int256": {
        "encoding": "inplace",
        "label": "int256",
        "numberOfBytes": "32"
      },
      "t_mapping(t_address,t_bool)": {
        "encoding": "mapping",
        "key": "t_address",
        "label": "mapping(address => bool)",
        "numberOfBytes": "32",
        "value": "t_bool"
      },
      "t_mapping(t_address,t_struct(AccountInfo)8028_storage)": {
        "encoding": "mapping",
        "key": "t_address",
        "label": "mapping(address => struct PerpdexStructs.AccountInfo)",
        "numberOfBytes": "32",
        "value": "t_struct(AccountInfo)8028_storage"
      },
      "t_mapping(t_address,t_struct(MakerInfo)8011_storage)": {
        "encoding": "mapping",
        "key": "t_address",
        "label": "mapping(address => struct PerpdexStructs.MakerInfo)",
        "numberOfBytes": "32",
        "value": "t_struct(MakerInfo)8011_storage"
      },
      "t_mapping(t_address,t_struct(PriceLimitInfo)8039_storage)": {
        "encoding": "mapping",
        "key": "t_address",
        "label": "mapping(address => struct PerpdexStructs.PriceLimitInfo)",
        "numberOfBytes": "32",
        "value": "t_struct(PriceLimitInfo)8039_storage"
      },
      "t_mapping(t_address,t_struct(TakerInfo)8000_storage)": {
        "encoding": "mapping",
        "key": "t_address",
        "label": "mapping(address => struct PerpdexStructs.TakerInfo)",
        "numberOfBytes": "32",
        "value": "t_struct(TakerInfo)8000_storage"
      },
      "t_struct(AccountInfo)8028_storage": {
        "encoding": "inplace",
        "label": "struct PerpdexStructs.AccountInfo",
        "members": [
          {
            "astId": 8018,
            "contract": "contracts/PerpdexExchange.sol:PerpdexExchange",
            "label": "takerInfos",
            "offset": 0,
            "slot": "0",
            "type": "t_mapping(t_address,t_struct(TakerInfo)8000_storage)"
          },
          {
            "astId": 8022,
            "contract": "contracts/PerpdexExchange.sol:PerpdexExchange",
            "label": "makerInfos",
            "offset": 0,
            "slot": "1",
            "type": "t_mapping(t_address,t_struct(MakerInfo)8011_storage)"
          },
          {
            "astId": 8024,
            "contract": "contracts/PerpdexExchange.sol:PerpdexExchange",
            "label": "vaultInfo",
            "offset": 0,
            "slot": "2",
            "type": "t_struct(VaultInfo)8014_storage"
          },
          {
            "astId": 8027,
            "contract": "contracts/PerpdexExchange.sol:PerpdexExchange",
            "label": "markets",
            "offset": 0,
            "slot": "3",
            "type": "t_array(t_address)dyn_storage"
          }
        ],
        "numberOfBytes": "128"
      },
      "t_struct(InsuranceFundInfo)8031_storage": {
        "encoding": "inplace",
        "label": "struct PerpdexStructs.InsuranceFundInfo",
        "members": [
          {
            "astId": 8030,
            "contract": "contracts/PerpdexExchange.sol:PerpdexExchange",
            "label": "balance",
            "offset": 0,
            "slot": "0",
            "type": "t_int256"
          }
        ],
        "numberOfBytes": "32"
      },
      "t_struct(MakerInfo)8011_storage": {
        "encoding": "inplace",
        "label": "struct PerpdexStructs.MakerInfo",
        "members": [
          {
            "astId": 8002,
            "contract": "contracts/PerpdexExchange.sol:PerpdexExchange",
            "label": "baseDebtShare",
            "offset": 0,
            "slot": "0",
            "type": "t_int256"
          },
          {
            "astId": 8004,
            "contract": "contracts/PerpdexExchange.sol:PerpdexExchange",
            "label": "quoteDebt",
            "offset": 0,
            "slot": "1",
            "type": "t_int256"
          },
          {
            "astId": 8006,
            "contract": "contracts/PerpdexExchange.sol:PerpdexExchange",
            "label": "liquidity",
            "offset": 0,
            "slot": "2",
            "type": "t_uint256"
          },
          {
            "astId": 8008,
            "contract": "contracts/PerpdexExchange.sol:PerpdexExchange",
            "label": "cumDeleveragedBaseSharePerLiquidityX96",
            "offset": 0,
            "slot": "3",
            "type": "t_uint256"
          },
          {
            "astId": 8010,
            "contract": "contracts/PerpdexExchange.sol:PerpdexExchange",
            "label": "cumDeleveragedQuotePerLiquidityX96",
            "offset": 0,
            "slot": "4",
            "type": "t_uint256"
          }
        ],
        "numberOfBytes": "160"
      },
      "t_struct(PriceLimitConfig)8044_storage": {
        "encoding": "inplace",
        "label": "struct PerpdexStructs.PriceLimitConfig",
        "members": [
          {
            "astId": 8041,
            "contract": "contracts/PerpdexExchange.sol:PerpdexExchange",
            "label": "normalOrderRatio",
            "offset": 0,
            "slot": "0",
            "type": "t_uint24"
          },
          {
            "astId": 8043,
            "contract": "contracts/PerpdexExchange.sol:PerpdexExchange",
            "label": "liquidationRatio",
            "offset": 3,
            "slot": "0",
            "type": "t_uint24"
          }
        ],
        "numberOfBytes": "32"
      },
      "t_struct(PriceLimitInfo)8039_storage": {
        "encoding": "inplace",
        "label": "struct PerpdexStructs.PriceLimitInfo",
        "members": [
          {
            "astId": 8036,
            "contract": "contracts/PerpdexExchange.sol:PerpdexExchange",
            "label": "referencePrice",
            "offset": 0,
            "slot": "0",
            "type": "t_uint256"
          },
          {
            "astId": 8038,
            "contract": "contracts/PerpdexExchange.sol:PerpdexExchange",
            "label": "referenceBlockNumber",
            "offset": 0,
            "slot": "1",
            "type": "t_uint256"
          }
        ],
        "numberOfBytes": "64"
      },
      "t_struct(ProtocolInfo)8034_storage": {
        "encoding": "inplace",
        "label": "struct PerpdexStructs.ProtocolInfo",
        "members": [
          {
            "astId": 8033,
            "contract": "contracts/PerpdexExchange.sol:PerpdexExchange",
            "label": "protocolFee",
            "offset": 0,
            "slot": "0",
            "type": "t_uint256"
          }
        ],
        "numberOfBytes": "32"
      },
      "t_struct(TakerInfo)8000_storage": {
        "encoding": "inplace",
        "label": "struct PerpdexStructs.TakerInfo",
        "members": [
          {
            "astId": 7997,
            "contract": "contracts/PerpdexExchange.sol:PerpdexExchange",
            "label": "baseBalanceShare",
            "offset": 0,
            "slot": "0",
            "type": "t_int256"
          },
          {
            "astId": 7999,
            "contract": "contracts/PerpdexExchange.sol:PerpdexExchange",
            "label": "quoteBalance",
            "offset": 0,
            "slot": "1",
            "type": "t_int256"
          }
        ],
        "numberOfBytes": "64"
      },
      "t_struct(VaultInfo)8014_storage": {
        "encoding": "inplace",
        "label": "struct PerpdexStructs.VaultInfo",
        "members": [
          {
            "astId": 8013,
            "contract": "contracts/PerpdexExchange.sol:PerpdexExchange",
            "label": "collateralBalance",
            "offset": 0,
            "slot": "0",
            "type": "t_int256"
          }
        ],
        "numberOfBytes": "32"
      },
      "t_uint24": {
        "encoding": "inplace",
        "label": "uint24",
        "numberOfBytes": "3"
      },
      "t_uint256": {
        "encoding": "inplace",
        "label": "uint256",
        "numberOfBytes": "32"
      },
      "t_uint8": {
        "encoding": "inplace",
        "label": "uint8",
        "numberOfBytes": "1"
      }
    }
  }
}