{
  "address": "0xD39D89D1b68D93133ed0C4D978Efc1e4655f2Fd1",
  "abi": [
    {
      "inputs": [
        {
          "internalType": "string",
          "name": "quoteTokenName",
          "type": "string"
        },
        {
          "internalType": "string",
          "name": "quoteTokenSymbol",
          "type": "string"
        },
        {
          "internalType": "address",
          "name": "uniV2FactoryArg",
          "type": "address"
        }
      ],
      "stateMutability": "nonpayable",
      "type": "constructor"
    },
    {
      "anonymous": false,
      "inputs": [
        {
          "indexed": true,
          "internalType": "address",
          "name": "maker",
          "type": "address"
        },
        {
          "indexed": true,
          "internalType": "address",
          "name": "baseToken",
          "type": "address"
        },
        {
          "indexed": true,
          "internalType": "address",
          "name": "quoteToken",
          "type": "address"
        },
        {
          "indexed": false,
          "internalType": "int256",
          "name": "base",
          "type": "int256"
        },
        {
          "indexed": false,
          "internalType": "int256",
          "name": "quote",
          "type": "int256"
        },
        {
          "indexed": false,
          "internalType": "int256",
          "name": "liquidity",
          "type": "int256"
        }
      ],
      "name": "LiquidityChanged",
      "type": "event"
    },
    {
      "anonymous": false,
      "inputs": [
        {
          "indexed": true,
          "internalType": "address",
          "name": "previousOwner",
          "type": "address"
        },
        {
          "indexed": true,
          "internalType": "address",
          "name": "newOwner",
          "type": "address"
        }
      ],
      "name": "OwnershipTransferred",
      "type": "event"
    },
    {
      "anonymous": false,
      "inputs": [
        {
          "indexed": true,
          "internalType": "address",
          "name": "trader",
          "type": "address"
        },
        {
          "indexed": true,
          "internalType": "address",
          "name": "baseToken",
          "type": "address"
        },
        {
          "indexed": false,
          "internalType": "int256",
          "name": "exchangedPositionSize",
          "type": "int256"
        },
        {
          "indexed": false,
          "internalType": "int256",
          "name": "exchangedPositionNotional",
          "type": "int256"
        },
        {
          "indexed": false,
          "internalType": "int256",
          "name": "openNotional",
          "type": "int256"
        },
        {
          "indexed": false,
          "internalType": "int256",
          "name": "realizedPnl",
          "type": "int256"
        },
        {
          "indexed": false,
          "internalType": "uint256",
          "name": "priceAfterX96",
          "type": "uint256"
        }
      ],
      "name": "PositionChanged",
      "type": "event"
    },
    {
      "anonymous": false,
      "inputs": [
        {
          "indexed": true,
          "internalType": "address",
          "name": "trader",
          "type": "address"
        },
        {
          "indexed": true,
          "internalType": "address",
          "name": "baseToken",
          "type": "address"
        },
        {
          "indexed": false,
          "internalType": "uint256",
          "name": "positionNotional",
          "type": "uint256"
        },
        {
          "indexed": false,
          "internalType": "uint256",
          "name": "positionSize",
          "type": "uint256"
        },
        {
          "indexed": false,
          "internalType": "uint256",
          "name": "liquidationFee",
          "type": "uint256"
        },
        {
          "indexed": false,
          "internalType": "address",
          "name": "liquidator",
          "type": "address"
        }
      ],
      "name": "PositionLiquidated",
      "type": "event"
    },
    {
      "inputs": [
        {
          "internalType": "address",
          "name": "",
          "type": "address"
        }
      ],
      "name": "accountInfos",
      "outputs": [
        {
          "components": [
            {
              "internalType": "int256",
              "name": "collateralBalance",
              "type": "int256"
            }
          ],
          "internalType": "struct PerpdexStructs.VaultInfo",
          "name": "vaultInfo",
          "type": "tuple"
        }
      ],
      "stateMutability": "view",
      "type": "function"
    },
    {
      "inputs": [
        {
          "components": [
            {
              "internalType": "address",
              "name": "baseToken",
              "type": "address"
            },
            {
              "internalType": "uint256",
              "name": "base",
              "type": "uint256"
            },
            {
              "internalType": "uint256",
              "name": "quote",
              "type": "uint256"
            },
            {
              "internalType": "uint256",
              "name": "minBase",
              "type": "uint256"
            },
            {
              "internalType": "uint256",
              "name": "minQuote",
              "type": "uint256"
            },
            {
              "internalType": "uint256",
              "name": "deadline",
              "type": "uint256"
            }
          ],
          "internalType": "struct IClearingHousePerpdexNew.AddLiquidityParams",
          "name": "params",
          "type": "tuple"
        }
      ],
      "name": "addLiquidity",
      "outputs": [
        {
          "components": [
            {
              "internalType": "uint256",
              "name": "base",
              "type": "uint256"
            },
            {
              "internalType": "uint256",
              "name": "quote",
              "type": "uint256"
            },
            {
              "internalType": "uint256",
              "name": "liquidity",
              "type": "uint256"
            }
          ],
          "internalType": "struct IClearingHousePerpdexNew.AddLiquidityResponse",
          "name": "",
          "type": "tuple"
        }
      ],
      "stateMutability": "nonpayable",
      "type": "function"
    },
    {
      "inputs": [
        {
          "internalType": "address",
          "name": "token",
          "type": "address"
        },
        {
          "internalType": "uint256",
          "name": "amount",
          "type": "uint256"
        }
      ],
      "name": "deposit",
      "outputs": [],
      "stateMutability": "nonpayable",
      "type": "function"
    },
    {
      "inputs": [
        {
          "internalType": "address",
          "name": "trader",
          "type": "address"
        },
        {
          "internalType": "address",
          "name": "baseToken",
          "type": "address"
        }
      ],
      "name": "getMakerInfo",
      "outputs": [
        {
          "components": [
            {
              "internalType": "uint256",
              "name": "baseDebtShare",
              "type": "uint256"
            },
            {
              "internalType": "uint256",
              "name": "quoteDebt",
              "type": "uint256"
            },
            {
              "internalType": "uint256",
              "name": "liquidity",
              "type": "uint256"
            }
          ],
          "internalType": "struct PerpdexStructs.MakerInfo",
          "name": "",
          "type": "tuple"
        }
      ],
      "stateMutability": "nonpayable",
      "type": "function"
    },
    {
      "inputs": [
        {
          "internalType": "address",
          "name": "trader",
          "type": "address"
        },
        {
          "internalType": "address",
          "name": "baseToken",
          "type": "address"
        }
      ],
      "name": "getOpenPositionNotional",
      "outputs": [
        {
          "internalType": "uint256",
          "name": "",
          "type": "uint256"
        }
      ],
      "stateMutability": "view",
      "type": "function"
    },
    {
      "inputs": [
        {
          "internalType": "address",
          "name": "trader",
          "type": "address"
        },
        {
          "internalType": "address",
          "name": "baseToken",
          "type": "address"
        }
      ],
      "name": "getOpenPositionSize",
      "outputs": [
        {
          "internalType": "uint256",
          "name": "",
          "type": "uint256"
        }
      ],
      "stateMutability": "view",
      "type": "function"
    },
    {
      "inputs": [
        {
          "internalType": "address",
          "name": "trader",
          "type": "address"
        },
        {
          "internalType": "address",
          "name": "baseToken",
          "type": "address"
        }
      ],
      "name": "getPositionNotional",
      "outputs": [
        {
          "internalType": "int256",
          "name": "",
          "type": "int256"
        }
      ],
      "stateMutability": "view",
      "type": "function"
    },
    {
      "inputs": [
        {
          "internalType": "address",
          "name": "trader",
          "type": "address"
        },
        {
          "internalType": "address",
          "name": "baseToken",
          "type": "address"
        }
      ],
      "name": "getPositionSize",
      "outputs": [
        {
          "internalType": "int256",
          "name": "",
          "type": "int256"
        }
      ],
      "stateMutability": "view",
      "type": "function"
    },
    {
      "inputs": [
        {
          "internalType": "address",
          "name": "trader",
          "type": "address"
        },
        {
          "internalType": "address",
          "name": "baseToken",
          "type": "address"
        }
      ],
      "name": "getTakerInfo",
      "outputs": [
        {
          "components": [
            {
              "internalType": "int256",
              "name": "baseBalanceShare",
              "type": "int256"
            },
            {
              "internalType": "int256",
              "name": "quoteBalance",
              "type": "int256"
            }
          ],
          "internalType": "struct PerpdexStructs.TakerInfo",
          "name": "",
          "type": "tuple"
        }
      ],
      "stateMutability": "nonpayable",
      "type": "function"
    },
    {
      "inputs": [
        {
          "internalType": "address",
          "name": "trader",
          "type": "address"
        }
      ],
      "name": "getTotalAccountValue",
      "outputs": [
        {
          "internalType": "int256",
          "name": "",
          "type": "int256"
        }
      ],
      "stateMutability": "view",
      "type": "function"
    },
    {
      "inputs": [
        {
          "internalType": "address",
          "name": "trader",
          "type": "address"
        }
      ],
      "name": "getTotalOpenPositionNotional",
      "outputs": [
        {
          "internalType": "uint256",
          "name": "",
          "type": "uint256"
        }
      ],
      "stateMutability": "view",
      "type": "function"
    },
    {
      "inputs": [
        {
          "internalType": "address",
          "name": "trader",
          "type": "address"
        }
      ],
      "name": "getTotalPositionNotional",
      "outputs": [
        {
          "internalType": "uint256",
          "name": "",
          "type": "uint256"
        }
      ],
      "stateMutability": "view",
      "type": "function"
    },
    {
      "inputs": [
        {
          "internalType": "address",
          "name": "trader",
          "type": "address"
        }
      ],
      "name": "hasEnoughInitialMargin",
      "outputs": [
        {
          "internalType": "bool",
          "name": "",
          "type": "bool"
        }
      ],
      "stateMutability": "view",
      "type": "function"
    },
    {
      "inputs": [
        {
          "internalType": "address",
          "name": "trader",
          "type": "address"
        }
      ],
      "name": "hasEnoughMaintenanceMargin",
      "outputs": [
        {
          "internalType": "bool",
          "name": "",
          "type": "bool"
        }
      ],
      "stateMutability": "view",
      "type": "function"
    },
    {
      "inputs": [],
      "name": "imRatio",
      "outputs": [
        {
          "internalType": "uint24",
          "name": "",
          "type": "uint24"
        }
      ],
      "stateMutability": "view",
      "type": "function"
    },
    {
      "inputs": [],
      "name": "insuranceFundInfo",
      "outputs": [
        {
          "internalType": "int256",
          "name": "balance",
          "type": "int256"
        }
      ],
      "stateMutability": "view",
      "type": "function"
    },
    {
      "inputs": [
        {
          "components": [
            {
              "internalType": "address",
              "name": "trader",
              "type": "address"
            },
            {
              "internalType": "address",
              "name": "baseToken",
              "type": "address"
            },
            {
              "internalType": "uint256",
              "name": "amount",
              "type": "uint256"
            },
            {
              "internalType": "uint256",
              "name": "oppositeAmountBound",
              "type": "uint256"
            },
            {
              "internalType": "uint256",
              "name": "deadline",
              "type": "uint256"
            }
          ],
          "internalType": "struct IClearingHousePerpdexNew.LiquidateParams",
          "name": "params",
          "type": "tuple"
        }
      ],
      "name": "liquidate",
      "outputs": [
        {
          "internalType": "int256",
          "name": "base",
          "type": "int256"
        },
        {
          "internalType": "int256",
          "name": "quote",
          "type": "int256"
        }
      ],
      "stateMutability": "nonpayable",
      "type": "function"
    },
    {
      "inputs": [],
      "name": "liquidationRewardRatio",
      "outputs": [
        {
          "internalType": "uint24",
          "name": "",
          "type": "uint24"
        }
      ],
      "stateMutability": "view",
      "type": "function"
    },
    {
      "inputs": [],
      "name": "maxFundingRateRatio",
      "outputs": [
        {
          "internalType": "uint24",
          "name": "",
          "type": "uint24"
        }
      ],
      "stateMutability": "view",
      "type": "function"
    },
    {
      "inputs": [],
      "name": "maxMarketsPerAccount",
      "outputs": [
        {
          "internalType": "uint8",
          "name": "",
          "type": "uint8"
        }
      ],
      "stateMutability": "view",
      "type": "function"
    },
    {
      "inputs": [],
      "name": "mmRatio",
      "outputs": [
        {
          "internalType": "uint24",
          "name": "",
          "type": "uint24"
        }
      ],
      "stateMutability": "view",
      "type": "function"
    },
    {
      "inputs": [
        {
          "components": [
            {
              "internalType": "address",
              "name": "baseToken",
              "type": "address"
            },
            {
              "internalType": "bool",
              "name": "isBaseToQuote",
              "type": "bool"
            },
            {
              "internalType": "bool",
              "name": "isExactInput",
              "type": "bool"
            },
            {
              "internalType": "uint256",
              "name": "amount",
              "type": "uint256"
            },
            {
              "internalType": "uint256",
              "name": "oppositeAmountBound",
              "type": "uint256"
            },
            {
              "internalType": "uint256",
              "name": "deadline",
              "type": "uint256"
            }
          ],
          "internalType": "struct IClearingHousePerpdexNew.OpenPositionParams",
          "name": "params",
          "type": "tuple"
        }
      ],
      "name": "openPosition",
      "outputs": [
        {
          "internalType": "int256",
          "name": "base",
          "type": "int256"
        },
        {
          "internalType": "int256",
          "name": "quote",
          "type": "int256"
        }
      ],
      "stateMutability": "nonpayable",
      "type": "function"
    },
    {
      "inputs": [],
      "name": "owner",
      "outputs": [
        {
          "internalType": "address",
          "name": "",
          "type": "address"
        }
      ],
      "stateMutability": "view",
      "type": "function"
    },
    {
      "inputs": [],
      "name": "priceLimitConfig",
      "outputs": [
        {
          "internalType": "uint24",
          "name": "priceLimitNormalOrderRatio",
          "type": "uint24"
        },
        {
          "internalType": "uint24",
          "name": "priceLimitLiquidationRatio",
          "type": "uint24"
        }
      ],
      "stateMutability": "view",
      "type": "function"
    },
    {
      "inputs": [
        {
          "internalType": "address",
          "name": "",
          "type": "address"
        }
      ],
      "name": "priceLimitInfos",
      "outputs": [
        {
          "internalType": "uint256",
          "name": "referencePrice",
          "type": "uint256"
        },
        {
          "internalType": "uint256",
          "name": "referenceTimestamp",
          "type": "uint256"
        }
      ],
      "stateMutability": "view",
      "type": "function"
    },
    {
      "inputs": [
        {
          "components": [
            {
              "internalType": "address",
              "name": "baseToken",
              "type": "address"
            },
            {
              "internalType": "uint256",
              "name": "liquidity",
              "type": "uint256"
            },
            {
              "internalType": "uint256",
              "name": "minBase",
              "type": "uint256"
            },
            {
              "internalType": "uint256",
              "name": "minQuote",
              "type": "uint256"
            },
            {
              "internalType": "uint256",
              "name": "deadline",
              "type": "uint256"
            }
          ],
          "internalType": "struct IClearingHousePerpdexNew.RemoveLiquidityParams",
          "name": "params",
          "type": "tuple"
        },
        {
          "internalType": "address",
          "name": "maker",
          "type": "address"
        }
      ],
      "name": "removeLiquidity",
      "outputs": [
        {
          "components": [
            {
              "internalType": "uint256",
              "name": "base",
              "type": "uint256"
            },
            {
              "internalType": "uint256",
              "name": "quote",
              "type": "uint256"
            }
          ],
          "internalType": "struct IClearingHousePerpdexNew.RemoveLiquidityResponse",
          "name": "",
          "type": "tuple"
        }
      ],
      "stateMutability": "nonpayable",
      "type": "function"
    },
    {
      "inputs": [
        {
          "components": [
            {
              "internalType": "address",
              "name": "baseToken",
              "type": "address"
            },
            {
              "internalType": "uint256",
              "name": "liquidity",
              "type": "uint256"
            },
            {
              "internalType": "uint256",
              "name": "minBase",
              "type": "uint256"
            },
            {
              "internalType": "uint256",
              "name": "minQuote",
              "type": "uint256"
            },
            {
              "internalType": "uint256",
              "name": "deadline",
              "type": "uint256"
            }
          ],
          "internalType": "struct IClearingHousePerpdexNew.RemoveLiquidityParams",
          "name": "params",
          "type": "tuple"
        }
      ],
      "name": "removeLiquidity",
      "outputs": [
        {
          "components": [
            {
              "internalType": "uint256",
              "name": "base",
              "type": "uint256"
            },
            {
              "internalType": "uint256",
              "name": "quote",
              "type": "uint256"
            }
          ],
          "internalType": "struct IClearingHousePerpdexNew.RemoveLiquidityResponse",
          "name": "",
          "type": "tuple"
        }
      ],
      "stateMutability": "nonpayable",
      "type": "function"
    },
    {
      "inputs": [],
      "name": "renounceOwnership",
      "outputs": [],
      "stateMutability": "nonpayable",
      "type": "function"
    },
    {
      "inputs": [
        {
          "internalType": "uint24",
          "name": "value",
          "type": "uint24"
        }
      ],
      "name": "setImRatio",
      "outputs": [],
      "stateMutability": "nonpayable",
      "type": "function"
    },
    {
      "inputs": [
        {
          "internalType": "address",
          "name": "baseToken",
          "type": "address"
        },
        {
          "internalType": "bool",
          "name": "value",
          "type": "bool"
        }
      ],
      "name": "setIsBaseTokenAllowed",
      "outputs": [],
      "stateMutability": "nonpayable",
      "type": "function"
    },
    {
      "inputs": [
        {
          "internalType": "uint24",
          "name": "value",
          "type": "uint24"
        }
      ],
      "name": "setLiquidationRewardRatio",
      "outputs": [],
      "stateMutability": "nonpayable",
      "type": "function"
    },
    {
      "inputs": [
        {
          "internalType": "uint24",
          "name": "value",
          "type": "uint24"
        }
      ],
      "name": "setMaxFundingRateRatio",
      "outputs": [],
      "stateMutability": "nonpayable",
      "type": "function"
    },
    {
      "inputs": [
        {
          "internalType": "uint8",
          "name": "value",
          "type": "uint8"
        }
      ],
      "name": "setMaxMarketsPerAccount",
      "outputs": [],
      "stateMutability": "nonpayable",
      "type": "function"
    },
    {
      "inputs": [
        {
          "internalType": "uint24",
          "name": "value",
          "type": "uint24"
        }
      ],
      "name": "setMmRatio",
      "outputs": [],
      "stateMutability": "nonpayable",
      "type": "function"
    },
    {
      "inputs": [
        {
          "components": [
            {
              "internalType": "uint24",
              "name": "priceLimitNormalOrderRatio",
              "type": "uint24"
            },
            {
              "internalType": "uint24",
              "name": "priceLimitLiquidationRatio",
              "type": "uint24"
            }
          ],
          "internalType": "struct PerpdexStructs.PriceLimitConfig",
          "name": "value",
          "type": "tuple"
        }
      ],
      "name": "setPriceLimitConfig",
      "outputs": [],
      "stateMutability": "nonpayable",
      "type": "function"
    },
    {
      "inputs": [
        {
          "internalType": "address",
          "name": "newOwner",
          "type": "address"
        }
      ],
      "name": "transferOwnership",
      "outputs": [],
      "stateMutability": "nonpayable",
      "type": "function"
    },
    {
      "inputs": [
        {
          "internalType": "address",
          "name": "token",
          "type": "address"
        },
        {
          "internalType": "uint256",
          "name": "amount",
          "type": "uint256"
        }
      ],
      "name": "withdraw",
      "outputs": [],
      "stateMutability": "nonpayable",
      "type": "function"
    }
  ],
  "transactionHash": "0xbbbf26c7153d9f2209d7447810988c6791563b818153997049c1fd59df1f7924",
  "args": [
    "QuoteEth",
    "QUOTEETH",
    "0x0d7c2c0c563d3d38F6BE467829431ea1EA0E8509"
  ],
  "numDeployments": 2,
  "solcInputHash": "977f5517db98087ef69dbaacf732ad99",
  "bytecode": "0x60c06040523480156200001157600080fd5b50604051620047883803806200478883398101604081905262000034916200024d565b6001600090815562000045620001bc565b600180546001600160a01b0319166001600160a01b038316908117909155604051919250906000907f8be0079c531659141344cd1fd0a4f28419497f9722a3daafe3b4186f6b6457e0908290a350620000b2816001600160a01b0316620001c060201b6200237e1760201c565b620000da5760405162461bcd60e51b8152600401620000d19062000346565b60405180910390fd5b6000801b838330604051620000ef90620001c6565b620000fd9392919062000304565b8190604051809103906000f59050801580156200011e573d6000803e3d6000fd5b50606090811b6001600160601b031990811660805291901b1660a05250506005805465ffffff00000019908116650186a0000000171664c35000000017905560068054601060ff199091161763ffffff001916630186a0001762ffffff60201b191665c350000000001762ffffff60381b191669030d40000000000000001762ffffff60501b19166bc350000000000000000000001790556200039a565b3390565b3b151590565b610e28806200396083390190565b600082601f830112620001e5578081fd5b81516001600160401b0380821115620001fa57fe5b604051601f8301601f1916810160200182811182821017156200021957fe5b60405282815284830160200186101562000231578384fd5b6200024483602083016020880162000367565b95945050505050565b60008060006060848603121562000262578283fd5b83516001600160401b038082111562000279578485fd5b6200028787838801620001d4565b945060208601519150808211156200029d578384fd5b50620002ac86828701620001d4565b604086015190935090506001600160a01b0381168114620002cb578182fd5b809150509250925092565b60008151808452620002f081602086016020860162000367565b601f01601f19169290920160200192915050565b600060608252620003196060830186620002d6565b82810360208401526200032d8186620002d6565b91505060018060a01b0383166040830152949350505050565b60208082526007908201526643485f55414e4360c81b604082015260600190565b60005b83811015620003845781810151838201526020016200036a565b8381111562000394576000848401525b50505050565b60805160601c60a05160601c61350b620004556000398061052f52806106db52806109df5280610b4c5280610cf752806112a3528061138e528061144452806114e7528061157f52806119125280611e5452806120705280612276525080610551528061068452806107b95280610a015280610ab55280610b6e5280610caa52806112c752806113b25280611468528061150b52806115a152806118945280611df35280611f5952806120925280612244525061350b6000f3fe608060405234801561001057600080fd5b50600436106101f75760003560e01c80638da5cb5b11610120578063c66fa8e6116100b8578063ec6cca841161007c578063ec6cca8414610486578063f2fde38b14610499578063f3fef3a3146104ac578063f652b527146104bf578063fa8f0368146104d4576101f7565b8063c66fa8e61461043d578063c9ca7b1814610445578063d16111c114610458578063d1ead56314610460578063dfe1cb9214610473576101f7565b80638da5cb5b1461038c578063996fbf94146103a15780639dce9e19146103b45780639f044f31146103d4578063a3b6c272146103dc578063b53c5125146103ef578063b62616431461040f578063c2fdd42f14610417578063c3afe1ce1461042a576101f7565b80635f0e078e116101935780635f0e078e146102dc5780636346f32e146102ef5780636e838bad14610305578063715018a61461031857806373f625011461032057806376c6008f146103335780637c88490a1461034657806387cad0bf146103595780638da25bbe14610379576101f7565b80630674fa41146101fc578063093eb8201461022557806319be4975146102455780632e784343146102665780632f60a151146102795780633a9210511461028e57806347e7ef24146102a15780634b4aa735146102b657806359af74f7146102c9575b600080fd5b61020f61020a366004612bb5565b6104e7565b60405161021c9190612eb3565b60405180910390f35b610238610233366004612d67565b6105d1565b60405161021c91906132cf565b610258610253366004612bb5565b610922565b60405161021c929190612ebc565b610238610274366004612bcf565b61093b565b610281610987565b60405161021c91906132f0565b61020f61029c366004612bb5565b610997565b6102b46102af366004612c37565b610a29565b005b61020f6102c4366004612bb5565b610b04565b6102586102d7366004612d20565b610b96565b6102b46102ea366004612c01565b610ef6565b6102f7610fd1565b60405161021c929190613300565b6102b4610313366004612e04565b610fe7565b6102b46110ec565b6102b461032e366004612e20565b611198565b61020f610341366004612bcf565b61125b565b61020f610354366004612bcf565b611346565b61036c610367366004612bb5565b6113da565b60405161021c91906132e6565b61020f610387366004612bcf565b6113fc565b610394611490565b60405161021c9190612e94565b61020f6103af366004612bcf565b61149f565b6103c76103c2366004612bb5565b611533565b60405161021c9190612ea8565b610281611626565b6102b46103ea366004612e04565b611638565b6104026103fd366004612bcf565b611722565b60405161021c91906132c1565b61028161177a565b610238610425366004612d20565b61178c565b610258610438366004612cb0565b6117a0565b61020f611b2a565b6102b4610453366004612e04565b611b30565b610281611c36565b6102b461046e366004612e04565b611c48565b610402610481366004612cb0565b611d32565b6103c7610494366004612bb5565b612024565b6102b46104a7366004612bb5565b6120c5565b6102b46104ba366004612c37565b6121c8565b6104c76122bb565b60405161021c9190613316565b6102b46104e2366004612d56565b6122c4565b6001600160a01b03811660009081526002602052604080822090516343b362bf60e01b8152731Ca8Aa3A8E12602f2b4c7AbD9ea6D0596ff51a2d916343b362bf9161057991907f0000000000000000000000000000000000000000000000000000000000000000907f000000000000000000000000000000000000000000000000000000000000000090600401612f4c565b60206040518083038186803b15801561059157600080fd5b505af41580156105a5573d6000803e3d6000fd5b505050506040513d601f19601f820116820180604052508101906105c99190612c98565b90505b919050565b6105d9612adc565b6002600054141561061f576040805162461bcd60e51b815260206004820152601f6024820152600080516020613393833981519152604482015290519081900360640190fd5b600260008181556001600160a01b0384168152602091825260408082208151610140810190925291927357F644ad108AA83f9959CA3612B07301D5Ce5DC092639b6bfbdf9290918190610674908a018a612bb5565b6001600160a01b031681526020017f00000000000000000000000000000000000000000000000000000000000000006001600160a01b03168152602001886020013581526020018860400135815260200188606001358152602001886080013581526020017f00000000000000000000000000000000000000000000000000000000000000006001600160a01b03168152602001610710612384565b6001600160a01b03898116911614815260065462ffffff600160201b820416602083015260ff16604091820152516001600160e01b031960e085901b16815261075d92919060040161321e565b60c06040518083038186803b15801561077557600080fd5b505af4158015610789573d6000803e3d6000fd5b505050506040513d601f19601f820116820180604052508101906107ad9190612d91565b90506001600160a01b037f0000000000000000000000000000000000000000000000000000000000000000166107e66020860186612bb5565b6001600160a01b0316846001600160a01b03167f3fafa413f72659615af87212409788d1f1d6fa7a3a3fc3c3798b269188a4dfc66108278560000151612388565b6108348660200151612388565b6108418a60200135612388565b60405161085093929190612eca565b60405180910390a46108656020850185612bb5565b60408083015160608401516001600160a01b0387811660008181526002602090815295812096909216959094600080516020613440833981519152949392906108b0908c018c612bb5565b6001600160a01b03166001600160a01b031681526020019081526020016000206001015486608001518760a001516040516108ef959493929190612ee0565b60405180910390a36040518060400160405280826000015181526020018260200151815250915050600160005592915050565b6003602052600090815260409020805460019091015482565b610943612adc565b506001600160a01b03808316600090815260026020908152604080832093851683529281529082902082518084019093528054835260010154908201525b92915050565b600654610100900462ffffff1681565b6001600160a01b038116600090815260026020526040808220905163569c9ff360e01b8152731Ca8Aa3A8E12602f2b4c7AbD9ea6D0596ff51a2d9163569c9ff39161057991907f0000000000000000000000000000000000000000000000000000000000000000907f000000000000000000000000000000000000000000000000000000000000000090600401612f4c565b60026000541415610a6f576040805162461bcd60e51b815260206004820152601f6024820152600080516020613393833981519152604482015290519081900360640190fd5b60026000908155610a7e612384565b9050610afa60026000836001600160a01b03166001600160a01b0316815260200190815260200160002060405180606001604052807f00000000000000000000000000000000000000000000000000000000000000006001600160a01b03168152602001858152602001846001600160a01b031681525061239c565b5050600160005550565b6001600160a01b0381166000908152600260205260408082209051632d4193a560e21b8152731Ca8Aa3A8E12602f2b4c7AbD9ea6D0596ff51a2d9163b5064e949161057991907f0000000000000000000000000000000000000000000000000000000000000000907f000000000000000000000000000000000000000000000000000000000000000090600401612f4c565b60008060026000541415610bdf576040805162461bcd60e51b815260206004820152601f6024820152600080516020613393833981519152604482015290519081900360640190fd5b60026000908155610bf36020850185612bb5565b90506000610bff612384565b6001600160a01b0380841660009081526002602090815260408083209385168352808320949550919373eA9Ff7312Be1045196f7faf645902BE59222cA1c9363937711449390926003918791610c59918e01908e01612bb5565b6001600160a01b03166001600160a01b0316815260200190815260200160002060046040518061014001604052808d6020016020810190610c9a9190612bb5565b6001600160a01b031681526020017f00000000000000000000000000000000000000000000000000000000000000006001600160a01b031681526020018d6040013581526020018d6060013581526020018d6080013581526020017f00000000000000000000000000000000000000000000000000000000000000006001600160a01b0316815260200160056040518060400160405290816000820160009054906101000a900462ffffff1662ffffff1662ffffff1681526020016000820160039054906101000a900462ffffff1662ffffff1662ffffff16815250508152602001600660049054906101000a900462ffffff1662ffffff168152602001600660079054906101000a900462ffffff1662ffffff168152602001600660009054906101000a900460ff1660ff168152506040518663ffffffff1660e01b8152600401610dea959493929190612f92565b60806040518083038186803b158015610e0257600080fd5b505af4158015610e16573d6000803e3d6000fd5b505050506040513d601f19601f82011682018060405250810190610e3a9190612d3b565b9050610e4c6040870160208801612bb5565b81516020808401516001600160a01b0387811660008181526002855260408082209790931696919560008051602061344083398151915295909493610e9691908f01908f01612bb5565b6001600160a01b03166001600160a01b031681526020019081526020016000206001015486604001518760600151604051610ed5959493929190612ee0565b60405180910390a38051602090910151600160005590969095509350505050565b610efe612384565b6001600160a01b0316610f0f611490565b6001600160a01b031614610f58576040805162461bcd60e51b81526020600482018190526024820152600080516020613420833981519152604482015290519081900360640190fd5b60026000541415610f9e576040805162461bcd60e51b815260206004820152601f6024820152600080516020613393833981519152604482015290519081900360640190fd5b600260009081556001600160a01b03929092168252600760205260408220805460ff191691151591909117905560019055565b60055462ffffff80821691630100000090041682565b610fef612384565b6001600160a01b0316611000611490565b6001600160a01b031614611049576040805162461bcd60e51b81526020600482018190526024820152600080516020613420833981519152604482015290519081900360640190fd5b6002600054141561108f576040805162461bcd60e51b815260206004820152601f6024820152600080516020613393833981519152604482015290519081900360640190fd5b6002600055620f424062ffffff8216106110a857600080fd5b60065462ffffff600160201b909104811690821610156110c757600080fd5b6006805462ffffff9092166101000263ffffff00199092169190911790556001600055565b6110f4612384565b6001600160a01b0316611105611490565b6001600160a01b03161461114e576040805162461bcd60e51b81526020600482018190526024820152600080516020613420833981519152604482015290519081900360640190fd5b6001546040516000916001600160a01b0316907f8be0079c531659141344cd1fd0a4f28419497f9722a3daafe3b4186f6b6457e0908390a3600180546001600160a01b0319169055565b6111a0612384565b6001600160a01b03166111b1611490565b6001600160a01b0316146111fa576040805162461bcd60e51b81526020600482018190526024820152600080516020613420833981519152604482015290519081900360640190fd5b60026000541415611240576040805162461bcd60e51b815260206004820152601f6024820152600080516020613393833981519152604482015290519081900360640190fd5b6006805460ff191660ff929092169190911790556001600055565b6001600160a01b038216600090815260026020526040808220905163d1fb2a6d60e01b8152731Ca8Aa3A8E12602f2b4c7AbD9ea6D0596ff51a2d9163d1fb2a6d916112ef91907f00000000000000000000000000000000000000000000000000000000000000009087907f000000000000000000000000000000000000000000000000000000000000000090600401612f6b565b60206040518083038186803b15801561130757600080fd5b505af415801561131b573d6000803e3d6000fd5b505050506040513d601f19601f8201168201806040525081019061133f9190612c98565b9392505050565b6001600160a01b03821660009081526002602052604080822090516301eccec560e21b8152731Ca8Aa3A8E12602f2b4c7AbD9ea6D0596ff51a2d916307b33b14916112ef91907f00000000000000000000000000000000000000000000000000000000000000009087907f000000000000000000000000000000000000000000000000000000000000000090600401612f6b565b6002602081815260009283526040928390208351918201909352910154815281565b6001600160a01b0382166000908152600260205260408082209051636cae053560e01b8152731Ca8Aa3A8E12602f2b4c7AbD9ea6D0596ff51a2d91636cae0535916112ef91907f00000000000000000000000000000000000000000000000000000000000000009087907f000000000000000000000000000000000000000000000000000000000000000090600401612f6b565b6001546001600160a01b031690565b6001600160a01b038216600090815260026020526040808220905163e894916f60e01b8152731Ca8Aa3A8E12602f2b4c7AbD9ea6D0596ff51a2d9163e894916f916112ef91907f00000000000000000000000000000000000000000000000000000000000000009087907f000000000000000000000000000000000000000000000000000000000000000090600401612f6b565b6001600160a01b0381166000908152600260205260408082206006549151630a67766f60e41b8152731Ca8Aa3A8E12602f2b4c7AbD9ea6D0596ff51a2d9263a67766f0926115d69290917f0000000000000000000000000000000000000000000000000000000000000000917f000000000000000000000000000000000000000000000000000000000000000091600160201b900462ffffff1690600401612f22565b60206040518083038186803b1580156115ee57600080fd5b505af4158015611602573d6000803e3d6000fd5b505050506040513d601f19601f820116820180604052508101906105c99190612c7c565b600654600160201b900462ffffff1681565b611640612384565b6001600160a01b0316611651611490565b6001600160a01b03161461169a576040805162461bcd60e51b81526020600482018190526024820152600080516020613420833981519152604482015290519081900360640190fd5b600260005414156116e0576040805162461bcd60e51b815260206004820152601f6024820152600080516020613393833981519152604482015290519081900360640190fd5b6002600055620f424062ffffff8216106116f957600080fd5b6006805462ffffff909216600160501b0262ffffff60501b199092169190911790556001600055565b61172a612af6565b506001600160a01b03808316600090815260026020818152604080842094861684526001948501825292839020835160608101855281548152948101549185019190915201549082015292915050565b600654600160381b900462ffffff1681565b611794612adc565b6105c982610233612384565b600080600260005414156117e9576040805162461bcd60e51b815260206004820152601f6024820152600080516020613393833981519152604482015290519081900360640190fd5b600260009081556117f8612384565b6001600160a01b03811660009081526002602090815260408220929350909173eA9Ff7312Be1045196f7faf645902BE59222cA1c9163967d86f091906003908590611845908b018b612bb5565b6001600160a01b03166001600160a01b03168152602001908152602001600020604051806101a001604052808a60000160208101906118849190612bb5565b6001600160a01b031681526020017f00000000000000000000000000000000000000000000000000000000000000006001600160a01b031681526020018a60200160208101906118d49190612c60565b151581526020016118eb60608c0160408d01612c60565b151581526020018a6060013581526020018a6080013581526020018a60a0013581526020017f00000000000000000000000000000000000000000000000000000000000000006001600160a01b0316815260200160056040518060400160405290816000820160009054906101000a900462ffffff1662ffffff1662ffffff1681526020016000820160039054906101000a900462ffffff1662ffffff1662ffffff16815250508152602001600760008c60000160208101906119ae9190612bb5565b6001600160a01b0316815260208082019290925260409081016000205460ff9081161515845260065462ffffff600160201b820481169486019490945261010081049093168483015291909116606090920191909152516001600160e01b031960e086901b168152611a259392919060040161311c565b60806040518083038186803b158015611a3d57600080fd5b505af4158015611a51573d6000803e3d6000fd5b505050506040513d601f19601f82011682018060405250810190611a759190612d3b565b9050611a846020860186612bb5565b81516020808401516001600160a01b0386811660008181526002855260408120969092169590946000805160206134408339815191529490939290611acb908d018d612bb5565b6001600160a01b03166001600160a01b031681526020019081526020016000206001015486604001518760600151604051611b0a959493929190612ee0565b60405180910390a380516020909101516001600055909590945092505050565b60045481565b611b38612384565b6001600160a01b0316611b49611490565b6001600160a01b031614611b92576040805162461bcd60e51b81526020600482018190526024820152600080516020613420833981519152604482015290519081900360640190fd5b60026000541415611bd8576040805162461bcd60e51b815260206004820152601f6024820152600080516020613393833981519152604482015290519081900360640190fd5b600260005560065462ffffff61010090910481169082161115611bfa57600080fd5b60008162ffffff1611611c0c57600080fd5b6006805462ffffff909216600160201b0266ffffff00000000199092169190911790556001600055565b600654600160501b900462ffffff1681565b611c50612384565b6001600160a01b0316611c61611490565b6001600160a01b031614611caa576040805162461bcd60e51b81526020600482018190526024820152600080516020613420833981519152604482015290519081900360640190fd5b60026000541415611cf0576040805162461bcd60e51b815260206004820152601f6024820152600080516020613393833981519152604482015290519081900360640190fd5b6002600055620f424062ffffff821610611d0957600080fd5b6006805462ffffff909216600160381b0262ffffff60381b199092169190911790556001600055565b611d3a612af6565b60026000541415611d80576040805162461bcd60e51b815260206004820152601f6024820152600080516020613393833981519152604482015290519081900360640190fd5b60026000908155611d8f612384565b6001600160a01b03811660009081526002602090815260408083208151610160810190925293945091927357F644ad108AA83f9959CA3612B07301D5Ce5DC0926360e361e0928190611de3908a018a612bb5565b6001600160a01b031681526020017f00000000000000000000000000000000000000000000000000000000000000006001600160a01b03168152602001886020013581526020018860400135815260200188606001358152602001886080013581526020018860a0013581526020017f00000000000000000000000000000000000000000000000000000000000000006001600160a01b03168152602001600760008a6000016020810190611e989190612bb5565b6001600160a01b0316815260208082019290925260409081016000205460ff9081161515845260065462ffffff610100820416938501939093529190911691810191909152516001600160e01b031960e085901b168152611efd929190600401613066565b60606040518083038186803b158015611f1557600080fd5b505af4158015611f29573d6000803e3d6000fd5b505050506040513d601f19601f82011682018060405250810190611f4d9190612ccb565b90506001600160a01b037f000000000000000000000000000000000000000000000000000000000000000016611f866020860186612bb5565b6001600160a01b0316836001600160a01b03167f3fafa413f72659615af87212409788d1f1d6fa7a3a3fc3c3798b269188a4dfc6611fc785600001516123da565b611fd486602001516123da565b611fe187604001516123da565b604051611ff093929190612eca565b60405180910390a4604080516060810182528251815260208084015190820152918101519082015260016000559392505050565b6001600160a01b0381166000908152600260205260408082206006549151635af8f64760e11b8152731Ca8Aa3A8E12602f2b4c7AbD9ea6D0596ff51a2d9263b5f1ec8e926115d69290917f0000000000000000000000000000000000000000000000000000000000000000917f000000000000000000000000000000000000000000000000000000000000000091610100900462ffffff1690600401612f22565b6120cd612384565b6001600160a01b03166120de611490565b6001600160a01b031614612127576040805162461bcd60e51b81526020600482018190526024820152600080516020613420833981519152604482015290519081900360640190fd5b6001600160a01b03811661216c5760405162461bcd60e51b81526004018080602001828103825260268152602001806133b36026913960400191505060405180910390fd5b6001546040516001600160a01b038084169216907f8be0079c531659141344cd1fd0a4f28419497f9722a3daafe3b4186f6b6457e090600090a3600180546001600160a01b0319166001600160a01b0392909216919091179055565b6002600054141561220e576040805162461bcd60e51b815260206004820152601f6024820152600080516020613393833981519152604482015290519081900360640190fd5b6002600090815561221d612384565b6001600160a01b03818116600081815260026020908152604091829020825160a0810184527f000000000000000000000000000000000000000000000000000000000000000086168152918201889052918101929092527f00000000000000000000000000000000000000000000000000000000000000009092166060820152600654610100900462ffffff166080820152919250610afa91612426565b60065460ff1681565b6122cc612384565b6001600160a01b03166122dd611490565b6001600160a01b031614612326576040805162461bcd60e51b81526020600482018190526024820152600080516020613420833981519152604482015290519081900360640190fd5b6002600054141561236c576040805162461bcd60e51b815260206004820152601f6024820152600080516020613393833981519152604482015290519081900360640190fd5b6002600055806005610afa8282613324565b3b151590565b3390565b6000612393826123da565b60000392915050565b6123b38160000151826040015183602001516124fd565b6123ce6123c382602001516123da565b60028401549061263d565b60029092019190915550565b60006001600160ff1b038211156124225760405162461bcd60e51b81526004018080602001828103825260288152602001806134606028913960400191505060405180910390fd5b5090565b61244161243682602001516123da565b6002840154906126a2565b6002830155606081015181516080830151604051635af8f64760e11b8152731Ca8Aa3A8E12602f2b4c7AbD9ea6D0596ff51a2d9363b5f1ec8e93612489938893600401612f22565b60206040518083038186803b1580156124a157600080fd5b505af41580156124b5573d6000803e3d6000fd5b505050506040513d601f19601f820116820180604052508101906124d99190612c7c565b6124e257600080fd5b6124f9816000015182604001518360200151612707565b5050565b6040516370a0823160e01b81526000906001600160a01b038516906370a082319061252c903090600401612e94565b60206040518083038186803b15801561254457600080fd5b505afa158015612558573d6000803e3d6000fd5b505050506040513d601f19601f8201168201806040525081019061257c9190612c98565b905061258a8484308561275e565b8161261182866001600160a01b03166370a08231306040518263ffffffff1660e01b81526004016125bb9190612e94565b60206040518083038186803b1580156125d357600080fd5b505afa1580156125e7573d6000803e3d6000fd5b505050506040513d601f19601f8201168201806040525081019061260b9190612c98565b906127b8565b146126375760405162461bcd60e51b815260040161262e90612f03565b60405180910390fd5b50505050565b60008282018183128015906126525750838112155b80612667575060008312801561266757508381125b61133f5760405162461bcd60e51b81526004018080602001828103825260218152602001806133d96021913960400191505060405180910390fd5b60008183038183128015906126b75750838113155b806126cc57506000831280156126cc57508381135b61133f5760405162461bcd60e51b81526004018080602001828103825260248152602001806134886024913960400191505060405180910390fd5b604080516001600160a01b038416602482015260448082018490528251808303909101815260649091019091526020810180516001600160e01b031663a9059cbb60e01b179052612759908490612815565b505050565b604080516001600160a01b0380861660248301528416604482015260648082018490528251808303909101815260849091019091526020810180516001600160e01b03166323b872dd60e01b179052612637908590612815565b60008282111561280f576040805162461bcd60e51b815260206004820152601e60248201527f536166654d6174683a207375627472616374696f6e206f766572666c6f770000604482015290519081900360640190fd5b50900390565b600061286a826040518060400160405280602081526020017f5361666545524332303a206c6f772d6c6576656c2063616c6c206661696c6564815250856001600160a01b03166128c69092919063ffffffff16565b8051909150156127595780806020019051602081101561288957600080fd5b50516127595760405162461bcd60e51b815260040180806020018281038252602a8152602001806134ac602a913960400191505060405180910390fd5b60606128d584846000856128dd565b949350505050565b60608247101561291e5760405162461bcd60e51b81526004018080602001828103825260268152602001806133fa6026913960400191505060405180910390fd5b6129278561237e565b612978576040805162461bcd60e51b815260206004820152601d60248201527f416464726573733a2063616c6c20746f206e6f6e2d636f6e7472616374000000604482015290519081900360640190fd5b600080866001600160a01b031685876040518082805190602001908083835b602083106129b65780518252601f199092019160209182019101612997565b6001836020036101000a03801982511681845116808217855250505050505090500191505060006040518083038185875af1925050503d8060008114612a18576040519150601f19603f3d011682016040523d82523d6000602084013e612a1d565b606091505b5091509150612a2d828286612a38565b979650505050505050565b60608315612a4757508161133f565b825115612a575782518084602001fd5b8160405162461bcd60e51b81526004018080602001828103825283818151815260200191508051906020019080838360005b83811015612aa1578181015183820152602001612a89565b50505050905090810190601f168015612ace5780820380516001836020036101000a031916815260200191505b509250505060405180910390fd5b604051806040016040528060008152602001600081525090565b60405180606001604052806000815260200160008152602001600081525090565b80356001600160a01b03811681146105cc57600080fd5b600060c08284031215612b3f578081fd5b50919050565b600060a08284031215612b3f578081fd5b600060808284031215612b67578081fd5b6040516080810181811067ffffffffffffffff82111715612b8457fe5b8060405250809150825181526020830151602082015260408301516040820152606083015160608201525092915050565b600060208284031215612bc6578081fd5b61133f82612b17565b60008060408385031215612be1578081fd5b612bea83612b17565b9150612bf860208401612b17565b90509250929050565b60008060408385031215612c13578182fd5b612c1c83612b17565b91506020830135612c2c81613370565b809150509250929050565b60008060408385031215612c49578182fd5b612c5283612b17565b946020939093013593505050565b600060208284031215612c71578081fd5b813561133f81613370565b600060208284031215612c8d578081fd5b815161133f81613370565b600060208284031215612ca9578081fd5b5051919050565b600060c08284031215612cc1578081fd5b61133f8383612b2e565b600060608284031215612cdc578081fd5b6040516060810181811067ffffffffffffffff82111715612cf957fe5b80604052508251815260208301516020820152604083015160408201528091505092915050565b600060a08284031215612d31578081fd5b61133f8383612b45565b600060808284031215612d4c578081fd5b61133f8383612b56565b600060408284031215612b3f578081fd5b60008060c08385031215612d79578182fd5b612d838484612b45565b9150612bf860a08401612b17565b600060c08284031215612da2578081fd5b60405160c0810181811067ffffffffffffffff82111715612dbf57fe5b8060405250825181526020830151602082015260408301516040820152606083015160608201526080830151608082015260a083015160a08201528091505092915050565b600060208284031215612e15578081fd5b813561133f81613381565b600060208284031215612e31578081fd5b813560ff8116811461133f578182fd5b6001600160a01b03169052565b15159052565b8051825260208082015190830152604090810151910152565b805162ffffff908116835260209182015116910152565b62ffffff169052565b60ff169052565b6001600160a01b0391909116815260200190565b901515815260200190565b90815260200190565b918252602082015260400190565b9283526020830191909152604082015260600190565b948552602085019390935260408401919091526060830152608082015260a00190565b602080825260059082015264565f49424160d81b604082015260600190565b9384526001600160a01b0392831660208501529116604083015262ffffff16606082015260800190565b9283526001600160a01b03918216602084015216604082015260600190565b9384526001600160a01b039283166020850152908216604084015216606082015260800190565b60006101e082019050868252856020830152846040830152836060830152612fbe608083018451612e41565b6020830151612fd060a0840182612e41565b50604083015160c0830152606083015160e08301526080830151610100818185015260a0850151915061012061300881860184612e41565b60c0860151925061301d610140860184612e6d565b60e08601519250613032610180860184612e84565b8186015192506130466101a0860184612e84565b850151915061305b90506101c0840182612e8d565b509695505050505050565b600061018082019050838252613080602083018451612e41565b60208301516130926040840182612e41565b506040830151606083015260608301516080830152608083015160a083015260a083015160c083015260c083015160e083015260e08301516101006130d981850183612e41565b84015190506101206130ed84820183612e4e565b840151905061014061310184820183612e84565b8401519050613114610160840182612e8d565b509392505050565b60006102008201905084825283602083015261313c604083018451612e41565b602083015161314e6060840182612e41565b5060408301516131616080840182612e4e565b50606083015161317460a0840182612e4e565b50608083015160c083015260a083015160e083015260c0830151610100818185015260e085015191506101206131ac81860184612e41565b908501519150610140906131c285830184612e6d565b85015191506101806131d685820184612e4e565b8186015192506131ea6101a0860184612e84565b61016086015192506132006101c0860184612e84565b850151915061321590506101e0840182612e8d565b50949350505050565b600061016082019050838252613238602083018451612e41565b602083015161324a6040840182612e41565b506040830151606083015260608301516080830152608083015160a083015260a083015160c083015260c083015161328560e0840182612e41565b5060e083015161010061329a81850183612e4e565b84015190506101206132ae84820183612e84565b8401519050613114610140840182612e8d565b606081016109818284612e54565b815181526020918201519181019190915260400190565b9051815260200190565b62ffffff91909116815260200190565b62ffffff92831681529116602082015260400190565b60ff91909116815260200190565b813561332f81613381565b815462ffffff191662ffffff9190911617808255602083013561335181613381565b65ffffff0000008160181b1665ffffff00000019831617835550505050565b801515811461337e57600080fd5b50565b62ffffff8116811461337e57600080fdfe5265656e7472616e637947756172643a207265656e7472616e742063616c6c004f776e61626c653a206e6577206f776e657220697320746865207a65726f20616464726573735369676e6564536166654d6174683a206164646974696f6e206f766572666c6f77416464726573733a20696e73756666696369656e742062616c616e636520666f722063616c6c4f776e61626c653a2063616c6c6572206973206e6f7420746865206f776e6572adf7293c36a87213f46d9ad13f46093b4c6becaecc1a3c4b6be2aad2f60676cf53616665436173743a2076616c756520646f65736e27742066697420696e20616e20696e743235365369676e6564536166654d6174683a207375627472616374696f6e206f766572666c6f775361666545524332303a204552433230206f7065726174696f6e20646964206e6f742073756363656564a26469706673582212208c8ae883ff7ecb1cfe355b786b8a985ad88bd2ad7453fb832931b525fc015e3564736f6c6343000706003360806040523480156200001157600080fd5b5060405162000e2838038062000e28833981810160405260608110156200003757600080fd5b81019080805160405193929190846401000000008211156200005857600080fd5b9083019060208201858111156200006e57600080fd5b82516401000000008111828201881017156200008957600080fd5b82525081516020918201929091019080838360005b83811015620000b85781810151838201526020016200009e565b50505050905090810190601f168015620000e65780820380516001836020036101000a031916815260200191505b50604052602001805160405193929190846401000000008211156200010a57600080fd5b9083019060208201858111156200012057600080fd5b82516401000000008111828201881017156200013b57600080fd5b82525081516020918201929091019080838360005b838110156200016a57818101518382015260200162000150565b50505050905090810190601f168015620001985780820380516001836020036101000a031916815260200191505b5060405260209081015185519093508592508491849184918491620001c491600391908501906200037a565b508051620001da9060049060208401906200037a565b50506005805460ff1916601217905550620001f88160001962000204565b50505050505062000426565b6001600160a01b03821662000260576040805162461bcd60e51b815260206004820152601f60248201527f45524332303a206d696e7420746f20746865207a65726f206164647265737300604482015290519081900360640190fd5b6200026e6000838362000313565b6200028a816002546200031860201b620005731790919060201c565b6002556001600160a01b03821660009081526020818152604090912054620002bd9183906200057362000318821b17901c565b6001600160a01b0383166000818152602081815260408083209490945583518581529351929391927fddf252ad1be2c89b69c2b068fc378daa952ba7f163c4a11628f55a4df523b3ef9281900390910190a35050565b505050565b60008282018381101562000373576040805162461bcd60e51b815260206004820152601b60248201527f536166654d6174683a206164646974696f6e206f766572666c6f770000000000604482015290519081900360640190fd5b9392505050565b828054600181600116156101000203166002900490600052602060002090601f016020900481019282620003b25760008555620003fd565b82601f10620003cd57805160ff1916838001178555620003fd565b82800160010185558215620003fd579182015b82811115620003fd578251825591602001919060010190620003e0565b506200040b9291506200040f565b5090565b5b808211156200040b576000815560010162000410565b6109f280620004366000396000f3fe608060405234801561001057600080fd5b50600436106100a95760003560e01c8063395093511161007157806339509351146101d957806370a082311461020557806395d89b411461022b578063a457c2d714610233578063a9059cbb1461025f578063dd62ed3e1461028b576100a9565b806306fdde03146100ae578063095ea7b31461012b57806318160ddd1461016b57806323b872dd14610185578063313ce567146101bb575b600080fd5b6100b66102b9565b6040805160208082528351818301528351919283929083019185019080838360005b838110156100f05781810151838201526020016100d8565b50505050905090810190601f16801561011d5780820380516001836020036101000a031916815260200191505b509250505060405180910390f35b6101576004803603604081101561014157600080fd5b506001600160a01b03813516906020013561034f565b604080519115158252519081900360200190f35b61017361036c565b60408051918252519081900360200190f35b6101576004803603606081101561019b57600080fd5b506001600160a01b03813581169160208101359091169060400135610372565b6101c36103f9565b6040805160ff9092168252519081900360200190f35b610157600480360360408110156101ef57600080fd5b506001600160a01b038135169060200135610402565b6101736004803603602081101561021b57600080fd5b50356001600160a01b0316610450565b6100b661046b565b6101576004803603604081101561024957600080fd5b506001600160a01b0381351690602001356104cc565b6101576004803603604081101561027557600080fd5b506001600160a01b038135169060200135610534565b610173600480360360408110156102a157600080fd5b506001600160a01b0381358116916020013516610548565b60038054604080516020601f60026000196101006001881615020190951694909404938401819004810282018101909252828152606093909290918301828280156103455780601f1061031a57610100808354040283529160200191610345565b820191906000526020600020905b81548152906001019060200180831161032857829003601f168201915b5050505050905090565b600061036361035c6105d4565b84846105d8565b50600192915050565b60025490565b600061037f8484846106c4565b6103ef8461038b6105d4565b6103ea85604051806060016040528060288152602001610927602891396001600160a01b038a166000908152600160205260408120906103c96105d4565b6001600160a01b03168152602081019190915260400160002054919061081f565b6105d8565b5060019392505050565b60055460ff1690565b600061036361040f6105d4565b846103ea85600160006104206105d4565b6001600160a01b03908116825260208083019390935260409182016000908120918c168152925290205490610573565b6001600160a01b031660009081526020819052604090205490565b60048054604080516020601f60026000196101006001881615020190951694909404938401819004810282018101909252828152606093909290918301828280156103455780601f1061031a57610100808354040283529160200191610345565b60006103636104d96105d4565b846103ea8560405180606001604052806025815260200161099860259139600160006105036105d4565b6001600160a01b03908116825260208083019390935260409182016000908120918d1681529252902054919061081f565b60006103636105416105d4565b84846106c4565b6001600160a01b03918216600090815260016020908152604080832093909416825291909152205490565b6000828201838110156105cd576040805162461bcd60e51b815260206004820152601b60248201527f536166654d6174683a206164646974696f6e206f766572666c6f770000000000604482015290519081900360640190fd5b9392505050565b3390565b6001600160a01b03831661061d5760405162461bcd60e51b81526004018080602001828103825260248152602001806109746024913960400191505060405180910390fd5b6001600160a01b0382166106625760405162461bcd60e51b81526004018080602001828103825260228152602001806108df6022913960400191505060405180910390fd5b6001600160a01b03808416600081815260016020908152604080832094871680845294825291829020859055815185815291517f8c5be1e5ebec7d5bd14f71427d1e84f3dd0314c0f7b2291e5b200ac8c7c3b9259281900390910190a3505050565b6001600160a01b0383166107095760405162461bcd60e51b815260040180806020018281038252602581526020018061094f6025913960400191505060405180910390fd5b6001600160a01b03821661074e5760405162461bcd60e51b81526004018080602001828103825260238152602001806108bc6023913960400191505060405180910390fd5b6107598383836108b6565b61079681604051806060016040528060268152602001610901602691396001600160a01b038616600090815260208190526040902054919061081f565b6001600160a01b0380851660009081526020819052604080822093909355908416815220546107c59082610573565b6001600160a01b038084166000818152602081815260409182902094909455805185815290519193928716927fddf252ad1be2c89b69c2b068fc378daa952ba7f163c4a11628f55a4df523b3ef92918290030190a3505050565b600081848411156108ae5760405162461bcd60e51b81526004018080602001828103825283818151815260200191508051906020019080838360005b8381101561087357818101518382015260200161085b565b50505050905090810190601f1680156108a05780820380516001836020036101000a031916815260200191505b509250505060405180910390fd5b505050900390565b50505056fe45524332303a207472616e7366657220746f20746865207a65726f206164647265737345524332303a20617070726f766520746f20746865207a65726f206164647265737345524332303a207472616e7366657220616d6f756e7420657863656564732062616c616e636545524332303a207472616e7366657220616d6f756e74206578636565647320616c6c6f77616e636545524332303a207472616e736665722066726f6d20746865207a65726f206164647265737345524332303a20617070726f76652066726f6d20746865207a65726f206164647265737345524332303a2064656372656173656420616c6c6f77616e63652062656c6f77207a65726fa2646970667358221220a9ebcc8c7bda71045d826ec22bef1fc4f621799d49b9b5736e91e92280a2529764736f6c63430007060033",
  "deployedBytecode": "0x608060405234801561001057600080fd5b50600436106101f75760003560e01c80638da5cb5b11610120578063c66fa8e6116100b8578063ec6cca841161007c578063ec6cca8414610486578063f2fde38b14610499578063f3fef3a3146104ac578063f652b527146104bf578063fa8f0368146104d4576101f7565b8063c66fa8e61461043d578063c9ca7b1814610445578063d16111c114610458578063d1ead56314610460578063dfe1cb9214610473576101f7565b80638da5cb5b1461038c578063996fbf94146103a15780639dce9e19146103b45780639f044f31146103d4578063a3b6c272146103dc578063b53c5125146103ef578063b62616431461040f578063c2fdd42f14610417578063c3afe1ce1461042a576101f7565b80635f0e078e116101935780635f0e078e146102dc5780636346f32e146102ef5780636e838bad14610305578063715018a61461031857806373f625011461032057806376c6008f146103335780637c88490a1461034657806387cad0bf146103595780638da25bbe14610379576101f7565b80630674fa41146101fc578063093eb8201461022557806319be4975146102455780632e784343146102665780632f60a151146102795780633a9210511461028e57806347e7ef24146102a15780634b4aa735146102b657806359af74f7146102c9575b600080fd5b61020f61020a366004612bb5565b6104e7565b60405161021c9190612eb3565b60405180910390f35b610238610233366004612d67565b6105d1565b60405161021c91906132cf565b610258610253366004612bb5565b610922565b60405161021c929190612ebc565b610238610274366004612bcf565b61093b565b610281610987565b60405161021c91906132f0565b61020f61029c366004612bb5565b610997565b6102b46102af366004612c37565b610a29565b005b61020f6102c4366004612bb5565b610b04565b6102586102d7366004612d20565b610b96565b6102b46102ea366004612c01565b610ef6565b6102f7610fd1565b60405161021c929190613300565b6102b4610313366004612e04565b610fe7565b6102b46110ec565b6102b461032e366004612e20565b611198565b61020f610341366004612bcf565b61125b565b61020f610354366004612bcf565b611346565b61036c610367366004612bb5565b6113da565b60405161021c91906132e6565b61020f610387366004612bcf565b6113fc565b610394611490565b60405161021c9190612e94565b61020f6103af366004612bcf565b61149f565b6103c76103c2366004612bb5565b611533565b60405161021c9190612ea8565b610281611626565b6102b46103ea366004612e04565b611638565b6104026103fd366004612bcf565b611722565b60405161021c91906132c1565b61028161177a565b610238610425366004612d20565b61178c565b610258610438366004612cb0565b6117a0565b61020f611b2a565b6102b4610453366004612e04565b611b30565b610281611c36565b6102b461046e366004612e04565b611c48565b610402610481366004612cb0565b611d32565b6103c7610494366004612bb5565b612024565b6102b46104a7366004612bb5565b6120c5565b6102b46104ba366004612c37565b6121c8565b6104c76122bb565b60405161021c9190613316565b6102b46104e2366004612d56565b6122c4565b6001600160a01b03811660009081526002602052604080822090516343b362bf60e01b815273__$d5b0dec45940a7a1291c9da6fe7c8bb2e1$__916343b362bf9161057991907f0000000000000000000000000000000000000000000000000000000000000000907f000000000000000000000000000000000000000000000000000000000000000090600401612f4c565b60206040518083038186803b15801561059157600080fd5b505af41580156105a5573d6000803e3d6000fd5b505050506040513d601f19601f820116820180604052508101906105c99190612c98565b90505b919050565b6105d9612adc565b6002600054141561061f576040805162461bcd60e51b815260206004820152601f6024820152600080516020613393833981519152604482015290519081900360640190fd5b600260008181556001600160a01b03841681526020918252604080822081516101408101909252919273__$0d082d4f68cd76e21bd5ff3b4c3f93bd83$__92639b6bfbdf9290918190610674908a018a612bb5565b6001600160a01b031681526020017f00000000000000000000000000000000000000000000000000000000000000006001600160a01b03168152602001886020013581526020018860400135815260200188606001358152602001886080013581526020017f00000000000000000000000000000000000000000000000000000000000000006001600160a01b03168152602001610710612384565b6001600160a01b03898116911614815260065462ffffff600160201b820416602083015260ff16604091820152516001600160e01b031960e085901b16815261075d92919060040161321e565b60c06040518083038186803b15801561077557600080fd5b505af4158015610789573d6000803e3d6000fd5b505050506040513d601f19601f820116820180604052508101906107ad9190612d91565b90506001600160a01b037f0000000000000000000000000000000000000000000000000000000000000000166107e66020860186612bb5565b6001600160a01b0316846001600160a01b03167f3fafa413f72659615af87212409788d1f1d6fa7a3a3fc3c3798b269188a4dfc66108278560000151612388565b6108348660200151612388565b6108418a60200135612388565b60405161085093929190612eca565b60405180910390a46108656020850185612bb5565b60408083015160608401516001600160a01b0387811660008181526002602090815295812096909216959094600080516020613440833981519152949392906108b0908c018c612bb5565b6001600160a01b03166001600160a01b031681526020019081526020016000206001015486608001518760a001516040516108ef959493929190612ee0565b60405180910390a36040518060400160405280826000015181526020018260200151815250915050600160005592915050565b6003602052600090815260409020805460019091015482565b610943612adc565b506001600160a01b03808316600090815260026020908152604080832093851683529281529082902082518084019093528054835260010154908201525b92915050565b600654610100900462ffffff1681565b6001600160a01b038116600090815260026020526040808220905163569c9ff360e01b815273__$d5b0dec45940a7a1291c9da6fe7c8bb2e1$__9163569c9ff39161057991907f0000000000000000000000000000000000000000000000000000000000000000907f000000000000000000000000000000000000000000000000000000000000000090600401612f4c565b60026000541415610a6f576040805162461bcd60e51b815260206004820152601f6024820152600080516020613393833981519152604482015290519081900360640190fd5b60026000908155610a7e612384565b9050610afa60026000836001600160a01b03166001600160a01b0316815260200190815260200160002060405180606001604052807f00000000000000000000000000000000000000000000000000000000000000006001600160a01b03168152602001858152602001846001600160a01b031681525061239c565b5050600160005550565b6001600160a01b0381166000908152600260205260408082209051632d4193a560e21b815273__$d5b0dec45940a7a1291c9da6fe7c8bb2e1$__9163b5064e949161057991907f0000000000000000000000000000000000000000000000000000000000000000907f000000000000000000000000000000000000000000000000000000000000000090600401612f4c565b60008060026000541415610bdf576040805162461bcd60e51b815260206004820152601f6024820152600080516020613393833981519152604482015290519081900360640190fd5b60026000908155610bf36020850185612bb5565b90506000610bff612384565b6001600160a01b0380841660009081526002602090815260408083209385168352808320949550919373__$c3b980fb673d428e6ac9af0eac18f520c2$__9363937711449390926003918791610c59918e01908e01612bb5565b6001600160a01b03166001600160a01b0316815260200190815260200160002060046040518061014001604052808d6020016020810190610c9a9190612bb5565b6001600160a01b031681526020017f00000000000000000000000000000000000000000000000000000000000000006001600160a01b031681526020018d6040013581526020018d6060013581526020018d6080013581526020017f00000000000000000000000000000000000000000000000000000000000000006001600160a01b0316815260200160056040518060400160405290816000820160009054906101000a900462ffffff1662ffffff1662ffffff1681526020016000820160039054906101000a900462ffffff1662ffffff1662ffffff16815250508152602001600660049054906101000a900462ffffff1662ffffff168152602001600660079054906101000a900462ffffff1662ffffff168152602001600660009054906101000a900460ff1660ff168152506040518663ffffffff1660e01b8152600401610dea959493929190612f92565b60806040518083038186803b158015610e0257600080fd5b505af4158015610e16573d6000803e3d6000fd5b505050506040513d601f19601f82011682018060405250810190610e3a9190612d3b565b9050610e4c6040870160208801612bb5565b81516020808401516001600160a01b0387811660008181526002855260408082209790931696919560008051602061344083398151915295909493610e9691908f01908f01612bb5565b6001600160a01b03166001600160a01b031681526020019081526020016000206001015486604001518760600151604051610ed5959493929190612ee0565b60405180910390a38051602090910151600160005590969095509350505050565b610efe612384565b6001600160a01b0316610f0f611490565b6001600160a01b031614610f58576040805162461bcd60e51b81526020600482018190526024820152600080516020613420833981519152604482015290519081900360640190fd5b60026000541415610f9e576040805162461bcd60e51b815260206004820152601f6024820152600080516020613393833981519152604482015290519081900360640190fd5b600260009081556001600160a01b03929092168252600760205260408220805460ff191691151591909117905560019055565b60055462ffffff80821691630100000090041682565b610fef612384565b6001600160a01b0316611000611490565b6001600160a01b031614611049576040805162461bcd60e51b81526020600482018190526024820152600080516020613420833981519152604482015290519081900360640190fd5b6002600054141561108f576040805162461bcd60e51b815260206004820152601f6024820152600080516020613393833981519152604482015290519081900360640190fd5b6002600055620f424062ffffff8216106110a857600080fd5b60065462ffffff600160201b909104811690821610156110c757600080fd5b6006805462ffffff9092166101000263ffffff00199092169190911790556001600055565b6110f4612384565b6001600160a01b0316611105611490565b6001600160a01b03161461114e576040805162461bcd60e51b81526020600482018190526024820152600080516020613420833981519152604482015290519081900360640190fd5b6001546040516000916001600160a01b0316907f8be0079c531659141344cd1fd0a4f28419497f9722a3daafe3b4186f6b6457e0908390a3600180546001600160a01b0319169055565b6111a0612384565b6001600160a01b03166111b1611490565b6001600160a01b0316146111fa576040805162461bcd60e51b81526020600482018190526024820152600080516020613420833981519152604482015290519081900360640190fd5b60026000541415611240576040805162461bcd60e51b815260206004820152601f6024820152600080516020613393833981519152604482015290519081900360640190fd5b6006805460ff191660ff929092169190911790556001600055565b6001600160a01b038216600090815260026020526040808220905163d1fb2a6d60e01b815273__$d5b0dec45940a7a1291c9da6fe7c8bb2e1$__9163d1fb2a6d916112ef91907f00000000000000000000000000000000000000000000000000000000000000009087907f000000000000000000000000000000000000000000000000000000000000000090600401612f6b565b60206040518083038186803b15801561130757600080fd5b505af415801561131b573d6000803e3d6000fd5b505050506040513d601f19601f8201168201806040525081019061133f9190612c98565b9392505050565b6001600160a01b03821660009081526002602052604080822090516301eccec560e21b815273__$d5b0dec45940a7a1291c9da6fe7c8bb2e1$__916307b33b14916112ef91907f00000000000000000000000000000000000000000000000000000000000000009087907f000000000000000000000000000000000000000000000000000000000000000090600401612f6b565b6002602081815260009283526040928390208351918201909352910154815281565b6001600160a01b0382166000908152600260205260408082209051636cae053560e01b815273__$d5b0dec45940a7a1291c9da6fe7c8bb2e1$__91636cae0535916112ef91907f00000000000000000000000000000000000000000000000000000000000000009087907f000000000000000000000000000000000000000000000000000000000000000090600401612f6b565b6001546001600160a01b031690565b6001600160a01b038216600090815260026020526040808220905163e894916f60e01b815273__$d5b0dec45940a7a1291c9da6fe7c8bb2e1$__9163e894916f916112ef91907f00000000000000000000000000000000000000000000000000000000000000009087907f000000000000000000000000000000000000000000000000000000000000000090600401612f6b565b6001600160a01b0381166000908152600260205260408082206006549151630a67766f60e41b815273__$d5b0dec45940a7a1291c9da6fe7c8bb2e1$__9263a67766f0926115d69290917f0000000000000000000000000000000000000000000000000000000000000000917f000000000000000000000000000000000000000000000000000000000000000091600160201b900462ffffff1690600401612f22565b60206040518083038186803b1580156115ee57600080fd5b505af4158015611602573d6000803e3d6000fd5b505050506040513d601f19601f820116820180604052508101906105c99190612c7c565b600654600160201b900462ffffff1681565b611640612384565b6001600160a01b0316611651611490565b6001600160a01b03161461169a576040805162461bcd60e51b81526020600482018190526024820152600080516020613420833981519152604482015290519081900360640190fd5b600260005414156116e0576040805162461bcd60e51b815260206004820152601f6024820152600080516020613393833981519152604482015290519081900360640190fd5b6002600055620f424062ffffff8216106116f957600080fd5b6006805462ffffff909216600160501b0262ffffff60501b199092169190911790556001600055565b61172a612af6565b506001600160a01b03808316600090815260026020818152604080842094861684526001948501825292839020835160608101855281548152948101549185019190915201549082015292915050565b600654600160381b900462ffffff1681565b611794612adc565b6105c982610233612384565b600080600260005414156117e9576040805162461bcd60e51b815260206004820152601f6024820152600080516020613393833981519152604482015290519081900360640190fd5b600260009081556117f8612384565b6001600160a01b03811660009081526002602090815260408220929350909173__$c3b980fb673d428e6ac9af0eac18f520c2$__9163967d86f091906003908590611845908b018b612bb5565b6001600160a01b03166001600160a01b03168152602001908152602001600020604051806101a001604052808a60000160208101906118849190612bb5565b6001600160a01b031681526020017f00000000000000000000000000000000000000000000000000000000000000006001600160a01b031681526020018a60200160208101906118d49190612c60565b151581526020016118eb60608c0160408d01612c60565b151581526020018a6060013581526020018a6080013581526020018a60a0013581526020017f00000000000000000000000000000000000000000000000000000000000000006001600160a01b0316815260200160056040518060400160405290816000820160009054906101000a900462ffffff1662ffffff1662ffffff1681526020016000820160039054906101000a900462ffffff1662ffffff1662ffffff16815250508152602001600760008c60000160208101906119ae9190612bb5565b6001600160a01b0316815260208082019290925260409081016000205460ff9081161515845260065462ffffff600160201b820481169486019490945261010081049093168483015291909116606090920191909152516001600160e01b031960e086901b168152611a259392919060040161311c565b60806040518083038186803b158015611a3d57600080fd5b505af4158015611a51573d6000803e3d6000fd5b505050506040513d601f19601f82011682018060405250810190611a759190612d3b565b9050611a846020860186612bb5565b81516020808401516001600160a01b0386811660008181526002855260408120969092169590946000805160206134408339815191529490939290611acb908d018d612bb5565b6001600160a01b03166001600160a01b031681526020019081526020016000206001015486604001518760600151604051611b0a959493929190612ee0565b60405180910390a380516020909101516001600055909590945092505050565b60045481565b611b38612384565b6001600160a01b0316611b49611490565b6001600160a01b031614611b92576040805162461bcd60e51b81526020600482018190526024820152600080516020613420833981519152604482015290519081900360640190fd5b60026000541415611bd8576040805162461bcd60e51b815260206004820152601f6024820152600080516020613393833981519152604482015290519081900360640190fd5b600260005560065462ffffff61010090910481169082161115611bfa57600080fd5b60008162ffffff1611611c0c57600080fd5b6006805462ffffff909216600160201b0266ffffff00000000199092169190911790556001600055565b600654600160501b900462ffffff1681565b611c50612384565b6001600160a01b0316611c61611490565b6001600160a01b031614611caa576040805162461bcd60e51b81526020600482018190526024820152600080516020613420833981519152604482015290519081900360640190fd5b60026000541415611cf0576040805162461bcd60e51b815260206004820152601f6024820152600080516020613393833981519152604482015290519081900360640190fd5b6002600055620f424062ffffff821610611d0957600080fd5b6006805462ffffff909216600160381b0262ffffff60381b199092169190911790556001600055565b611d3a612af6565b60026000541415611d80576040805162461bcd60e51b815260206004820152601f6024820152600080516020613393833981519152604482015290519081900360640190fd5b60026000908155611d8f612384565b6001600160a01b038116600090815260026020908152604080832081516101608101909252939450919273__$0d082d4f68cd76e21bd5ff3b4c3f93bd83$__926360e361e0928190611de3908a018a612bb5565b6001600160a01b031681526020017f00000000000000000000000000000000000000000000000000000000000000006001600160a01b03168152602001886020013581526020018860400135815260200188606001358152602001886080013581526020018860a0013581526020017f00000000000000000000000000000000000000000000000000000000000000006001600160a01b03168152602001600760008a6000016020810190611e989190612bb5565b6001600160a01b0316815260208082019290925260409081016000205460ff9081161515845260065462ffffff610100820416938501939093529190911691810191909152516001600160e01b031960e085901b168152611efd929190600401613066565b60606040518083038186803b158015611f1557600080fd5b505af4158015611f29573d6000803e3d6000fd5b505050506040513d601f19601f82011682018060405250810190611f4d9190612ccb565b90506001600160a01b037f000000000000000000000000000000000000000000000000000000000000000016611f866020860186612bb5565b6001600160a01b0316836001600160a01b03167f3fafa413f72659615af87212409788d1f1d6fa7a3a3fc3c3798b269188a4dfc6611fc785600001516123da565b611fd486602001516123da565b611fe187604001516123da565b604051611ff093929190612eca565b60405180910390a4604080516060810182528251815260208084015190820152918101519082015260016000559392505050565b6001600160a01b0381166000908152600260205260408082206006549151635af8f64760e11b815273__$d5b0dec45940a7a1291c9da6fe7c8bb2e1$__9263b5f1ec8e926115d69290917f0000000000000000000000000000000000000000000000000000000000000000917f000000000000000000000000000000000000000000000000000000000000000091610100900462ffffff1690600401612f22565b6120cd612384565b6001600160a01b03166120de611490565b6001600160a01b031614612127576040805162461bcd60e51b81526020600482018190526024820152600080516020613420833981519152604482015290519081900360640190fd5b6001600160a01b03811661216c5760405162461bcd60e51b81526004018080602001828103825260268152602001806133b36026913960400191505060405180910390fd5b6001546040516001600160a01b038084169216907f8be0079c531659141344cd1fd0a4f28419497f9722a3daafe3b4186f6b6457e090600090a3600180546001600160a01b0319166001600160a01b0392909216919091179055565b6002600054141561220e576040805162461bcd60e51b815260206004820152601f6024820152600080516020613393833981519152604482015290519081900360640190fd5b6002600090815561221d612384565b6001600160a01b03818116600081815260026020908152604091829020825160a0810184527f000000000000000000000000000000000000000000000000000000000000000086168152918201889052918101929092527f00000000000000000000000000000000000000000000000000000000000000009092166060820152600654610100900462ffffff166080820152919250610afa91612426565b60065460ff1681565b6122cc612384565b6001600160a01b03166122dd611490565b6001600160a01b031614612326576040805162461bcd60e51b81526020600482018190526024820152600080516020613420833981519152604482015290519081900360640190fd5b6002600054141561236c576040805162461bcd60e51b815260206004820152601f6024820152600080516020613393833981519152604482015290519081900360640190fd5b6002600055806005610afa8282613324565b3b151590565b3390565b6000612393826123da565b60000392915050565b6123b38160000151826040015183602001516124fd565b6123ce6123c382602001516123da565b60028401549061263d565b60029092019190915550565b60006001600160ff1b038211156124225760405162461bcd60e51b81526004018080602001828103825260288152602001806134606028913960400191505060405180910390fd5b5090565b61244161243682602001516123da565b6002840154906126a2565b6002830155606081015181516080830151604051635af8f64760e11b815273__$d5b0dec45940a7a1291c9da6fe7c8bb2e1$__9363b5f1ec8e93612489938893600401612f22565b60206040518083038186803b1580156124a157600080fd5b505af41580156124b5573d6000803e3d6000fd5b505050506040513d601f19601f820116820180604052508101906124d99190612c7c565b6124e257600080fd5b6124f9816000015182604001518360200151612707565b5050565b6040516370a0823160e01b81526000906001600160a01b038516906370a082319061252c903090600401612e94565b60206040518083038186803b15801561254457600080fd5b505afa158015612558573d6000803e3d6000fd5b505050506040513d601f19601f8201168201806040525081019061257c9190612c98565b905061258a8484308561275e565b8161261182866001600160a01b03166370a08231306040518263ffffffff1660e01b81526004016125bb9190612e94565b60206040518083038186803b1580156125d357600080fd5b505afa1580156125e7573d6000803e3d6000fd5b505050506040513d601f19601f8201168201806040525081019061260b9190612c98565b906127b8565b146126375760405162461bcd60e51b815260040161262e90612f03565b60405180910390fd5b50505050565b60008282018183128015906126525750838112155b80612667575060008312801561266757508381125b61133f5760405162461bcd60e51b81526004018080602001828103825260218152602001806133d96021913960400191505060405180910390fd5b60008183038183128015906126b75750838113155b806126cc57506000831280156126cc57508381135b61133f5760405162461bcd60e51b81526004018080602001828103825260248152602001806134886024913960400191505060405180910390fd5b604080516001600160a01b038416602482015260448082018490528251808303909101815260649091019091526020810180516001600160e01b031663a9059cbb60e01b179052612759908490612815565b505050565b604080516001600160a01b0380861660248301528416604482015260648082018490528251808303909101815260849091019091526020810180516001600160e01b03166323b872dd60e01b179052612637908590612815565b60008282111561280f576040805162461bcd60e51b815260206004820152601e60248201527f536166654d6174683a207375627472616374696f6e206f766572666c6f770000604482015290519081900360640190fd5b50900390565b600061286a826040518060400160405280602081526020017f5361666545524332303a206c6f772d6c6576656c2063616c6c206661696c6564815250856001600160a01b03166128c69092919063ffffffff16565b8051909150156127595780806020019051602081101561288957600080fd5b50516127595760405162461bcd60e51b815260040180806020018281038252602a8152602001806134ac602a913960400191505060405180910390fd5b60606128d584846000856128dd565b949350505050565b60608247101561291e5760405162461bcd60e51b81526004018080602001828103825260268152602001806133fa6026913960400191505060405180910390fd5b6129278561237e565b612978576040805162461bcd60e51b815260206004820152601d60248201527f416464726573733a2063616c6c20746f206e6f6e2d636f6e7472616374000000604482015290519081900360640190fd5b600080866001600160a01b031685876040518082805190602001908083835b602083106129b65780518252601f199092019160209182019101612997565b6001836020036101000a03801982511681845116808217855250505050505090500191505060006040518083038185875af1925050503d8060008114612a18576040519150601f19603f3d011682016040523d82523d6000602084013e612a1d565b606091505b5091509150612a2d828286612a38565b979650505050505050565b60608315612a4757508161133f565b825115612a575782518084602001fd5b8160405162461bcd60e51b81526004018080602001828103825283818151815260200191508051906020019080838360005b83811015612aa1578181015183820152602001612a89565b50505050905090810190601f168015612ace5780820380516001836020036101000a031916815260200191505b509250505060405180910390fd5b604051806040016040528060008152602001600081525090565b60405180606001604052806000815260200160008152602001600081525090565b80356001600160a01b03811681146105cc57600080fd5b600060c08284031215612b3f578081fd5b50919050565b600060a08284031215612b3f578081fd5b600060808284031215612b67578081fd5b6040516080810181811067ffffffffffffffff82111715612b8457fe5b8060405250809150825181526020830151602082015260408301516040820152606083015160608201525092915050565b600060208284031215612bc6578081fd5b61133f82612b17565b60008060408385031215612be1578081fd5b612bea83612b17565b9150612bf860208401612b17565b90509250929050565b60008060408385031215612c13578182fd5b612c1c83612b17565b91506020830135612c2c81613370565b809150509250929050565b60008060408385031215612c49578182fd5b612c5283612b17565b946020939093013593505050565b600060208284031215612c71578081fd5b813561133f81613370565b600060208284031215612c8d578081fd5b815161133f81613370565b600060208284031215612ca9578081fd5b5051919050565b600060c08284031215612cc1578081fd5b61133f8383612b2e565b600060608284031215612cdc578081fd5b6040516060810181811067ffffffffffffffff82111715612cf957fe5b80604052508251815260208301516020820152604083015160408201528091505092915050565b600060a08284031215612d31578081fd5b61133f8383612b45565b600060808284031215612d4c578081fd5b61133f8383612b56565b600060408284031215612b3f578081fd5b60008060c08385031215612d79578182fd5b612d838484612b45565b9150612bf860a08401612b17565b600060c08284031215612da2578081fd5b60405160c0810181811067ffffffffffffffff82111715612dbf57fe5b8060405250825181526020830151602082015260408301516040820152606083015160608201526080830151608082015260a083015160a08201528091505092915050565b600060208284031215612e15578081fd5b813561133f81613381565b600060208284031215612e31578081fd5b813560ff8116811461133f578182fd5b6001600160a01b03169052565b15159052565b8051825260208082015190830152604090810151910152565b805162ffffff908116835260209182015116910152565b62ffffff169052565b60ff169052565b6001600160a01b0391909116815260200190565b901515815260200190565b90815260200190565b918252602082015260400190565b9283526020830191909152604082015260600190565b948552602085019390935260408401919091526060830152608082015260a00190565b602080825260059082015264565f49424160d81b604082015260600190565b9384526001600160a01b0392831660208501529116604083015262ffffff16606082015260800190565b9283526001600160a01b03918216602084015216604082015260600190565b9384526001600160a01b039283166020850152908216604084015216606082015260800190565b60006101e082019050868252856020830152846040830152836060830152612fbe608083018451612e41565b6020830151612fd060a0840182612e41565b50604083015160c0830152606083015160e08301526080830151610100818185015260a0850151915061012061300881860184612e41565b60c0860151925061301d610140860184612e6d565b60e08601519250613032610180860184612e84565b8186015192506130466101a0860184612e84565b850151915061305b90506101c0840182612e8d565b509695505050505050565b600061018082019050838252613080602083018451612e41565b60208301516130926040840182612e41565b506040830151606083015260608301516080830152608083015160a083015260a083015160c083015260c083015160e083015260e08301516101006130d981850183612e41565b84015190506101206130ed84820183612e4e565b840151905061014061310184820183612e84565b8401519050613114610160840182612e8d565b509392505050565b60006102008201905084825283602083015261313c604083018451612e41565b602083015161314e6060840182612e41565b5060408301516131616080840182612e4e565b50606083015161317460a0840182612e4e565b50608083015160c083015260a083015160e083015260c0830151610100818185015260e085015191506101206131ac81860184612e41565b908501519150610140906131c285830184612e6d565b85015191506101806131d685820184612e4e565b8186015192506131ea6101a0860184612e84565b61016086015192506132006101c0860184612e84565b850151915061321590506101e0840182612e8d565b50949350505050565b600061016082019050838252613238602083018451612e41565b602083015161324a6040840182612e41565b506040830151606083015260608301516080830152608083015160a083015260a083015160c083015260c083015161328560e0840182612e41565b5060e083015161010061329a81850183612e4e565b84015190506101206132ae84820183612e84565b8401519050613114610140840182612e8d565b606081016109818284612e54565b815181526020918201519181019190915260400190565b9051815260200190565b62ffffff91909116815260200190565b62ffffff92831681529116602082015260400190565b60ff91909116815260200190565b813561332f81613381565b815462ffffff191662ffffff9190911617808255602083013561335181613381565b65ffffff0000008160181b1665ffffff00000019831617835550505050565b801515811461337e57600080fd5b50565b62ffffff8116811461337e57600080fdfe5265656e7472616e637947756172643a207265656e7472616e742063616c6c004f776e61626c653a206e6577206f776e657220697320746865207a65726f20616464726573735369676e6564536166654d6174683a206164646974696f6e206f766572666c6f77416464726573733a20696e73756666696369656e742062616c616e636520666f722063616c6c4f776e61626c653a2063616c6c6572206973206e6f7420746865206f776e6572adf7293c36a87213f46d9ad13f46093b4c6becaecc1a3c4b6be2aad2f60676cf53616665436173743a2076616c756520646f65736e27742066697420696e20616e20696e743235365369676e6564536166654d6174683a207375627472616374696f6e206f766572666c6f775361666545524332303a204552433230206f7065726174696f6e20646964206e6f742073756363656564a26469706673582212208c8ae883ff7ecb1cfe355b786b8a985ad88bd2ad7453fb832931b525fc015e3564736f6c63430007060033",
  "libraries": {
    "AccountLibrary": "0x1Ca8Aa3A8E12602f2b4c7AbD9ea6D0596ff51a2d",
    "TakerLibrary": "0xeA9Ff7312Be1045196f7faf645902BE59222cA1c",
    "MakerLibrary": "0x57F644ad108AA83f9959CA3612B07301D5Ce5DC0"
  },
  "devdoc": {
    "kind": "dev",
    "methods": {
      "addLiquidity((address,uint256,uint256,uint256,uint256,uint256))": {
        "details": "Tx will fail if adding `base == 0 && quote == 0` / `liquidity == 0`- `AddLiquidityParams.useTakerBalance` is only accept `false` now",
        "params": {
          "params": "AddLiquidityParams struct"
        },
        "returns": {
          "_0": "response AddLiquidityResponse struct"
        }
      },
      "liquidate((address,address,uint256,uint256,uint256))": {
        "details": "If trader has open orders, need to call `cancelAllExcessOrders` first",
        "returns": {
          "base": "The amount of baseToken the taker got or spent",
          "quote": "The amount of quoteToken the taker got or spent"
        }
      },
      "openPosition((address,bool,bool,uint256,uint256,uint256))": {
        "details": "- `OpenPositionParams.oppositeAmountBound`     - B2Q + exact input, want more output quote as possible, so we set a lower bound of output quote     - B2Q + exact output, want less input base as possible, so we set a upper bound of input base     - Q2B + exact input, want more output base as possible, so we set a lower bound of output base     - Q2B + exact output, want less input quote as possible, so we set a upper bound of input quote     > when it's set to 0, it will disable slippage protection entirely regardless of exact input or output     > when it's over or under the bound, it will be reverted- `OpenPositionParams.sqrtPriceLimitX96`     - B2Q: the price cannot be less than this value after the swap     - Q2B: the price cannot be greater than this value after the swap     > it will fill the trade until it reaches the price limit but WON'T REVERT     > when it's set to 0, it will disable price limit;     > when it's 0 and exact output, the output amount is required to be identical to the param amount",
        "params": {
          "params": "OpenPositionParams struct"
        },
        "returns": {
          "base": "The amount of baseToken the taker got or spent",
          "quote": "The amount of quoteToken the taker got or spent"
        }
      },
      "owner()": {
        "details": "Returns the address of the current owner."
      },
      "removeLiquidity((address,uint256,uint256,uint256,uint256))": {
        "details": "remove liquidity will transfer maker impermanent position to taker position, if `liquidity` of RemoveLiquidityParams struct is zero, the action will collect fee from pool to maker",
        "params": {
          "params": "RemoveLiquidityParams struct"
        },
        "returns": {
          "_0": "RemoveLiquidityResponse struct"
        }
      },
      "renounceOwnership()": {
        "details": "Leaves the contract without owner. It will not be possible to call `onlyOwner` functions anymore. Can only be called by the current owner. NOTE: Renouncing ownership will leave the contract without an owner, thereby removing any functionality that is only available to the owner."
      },
      "transferOwnership(address)": {
        "details": "Transfers ownership of the contract to a new account (`newOwner`). Can only be called by the current owner."
      }
    },
    "version": 1
  },
  "userdoc": {
    "events": {
      "LiquidityChanged(address,address,address,int256,int256,int256)": {
        "notice": "Emitted when maker's liquidity of a order changed"
      },
      "PositionChanged(address,address,int256,int256,int256,int256,uint256)": {
        "notice": "Emitted when taker's position is being changed"
      },
      "PositionLiquidated(address,address,uint256,uint256,uint256,address)": {
        "notice": "Emitted when taker position is being liquidated"
      }
    },
    "kind": "user",
    "methods": {
      "addLiquidity((address,uint256,uint256,uint256,uint256,uint256))": {
        "notice": "Maker can call `addLiquidity` to provide liquidity on Uniswap V3 pool"
      },
      "liquidate((address,address,uint256,uint256,uint256))": {
        "notice": "If trader is underwater, any one can call `liquidate` to liquidate this trader"
      },
      "openPosition((address,bool,bool,uint256,uint256,uint256))": {
        "notice": "Trader can call `openPosition` to long/short on baseToken market"
      },
      "removeLiquidity((address,uint256,uint256,uint256,uint256))": {
        "notice": "Maker can call `removeLiquidity` to remove liquidity"
      }
    },
    "version": 1
  },
  "storageLayout": {
    "storage": [
      {
        "astId": 4694,
        "contract": "contracts/ClearingHousePerpdexNew.sol:ClearingHousePerpdexNew",
        "label": "_status",
        "offset": 0,
        "slot": "0",
        "type": "t_uint256"
      },
      {
        "astId": 3147,
        "contract": "contracts/ClearingHousePerpdexNew.sol:ClearingHousePerpdexNew",
        "label": "_owner",
        "offset": 0,
        "slot": "1",
        "type": "t_address"
      },
      {
        "astId": 22867,
        "contract": "contracts/ClearingHousePerpdexNew.sol:ClearingHousePerpdexNew",
        "label": "accountInfos",
        "offset": 0,
        "slot": "2",
        "type": "t_mapping(t_address,t_struct(AccountInfo)48818_storage)"
      },
      {
        "astId": 22871,
        "contract": "contracts/ClearingHousePerpdexNew.sol:ClearingHousePerpdexNew",
        "label": "priceLimitInfos",
        "offset": 0,
        "slot": "3",
        "type": "t_mapping(t_address,t_struct(PriceLimitInfo)48826_storage)"
      },
      {
        "astId": 22873,
        "contract": "contracts/ClearingHousePerpdexNew.sol:ClearingHousePerpdexNew",
        "label": "insuranceFundInfo",
        "offset": 0,
        "slot": "4",
        "type": "t_struct(InsuranceFundInfo)48821_storage"
      },
      {
        "astId": 22879,
        "contract": "contracts/ClearingHousePerpdexNew.sol:ClearingHousePerpdexNew",
        "label": "priceLimitConfig",
        "offset": 0,
        "slot": "5",
        "type": "t_struct(PriceLimitConfig)48831_storage"
      },
      {
        "astId": 22881,
        "contract": "contracts/ClearingHousePerpdexNew.sol:ClearingHousePerpdexNew",
        "label": "maxMarketsPerAccount",
        "offset": 0,
        "slot": "6",
        "type": "t_uint8"
      },
      {
        "astId": 22883,
        "contract": "contracts/ClearingHousePerpdexNew.sol:ClearingHousePerpdexNew",
        "label": "imRatio",
        "offset": 1,
        "slot": "6",
        "type": "t_uint24"
      },
      {
        "astId": 22885,
        "contract": "contracts/ClearingHousePerpdexNew.sol:ClearingHousePerpdexNew",
        "label": "mmRatio",
        "offset": 4,
        "slot": "6",
        "type": "t_uint24"
      },
      {
        "astId": 22887,
        "contract": "contracts/ClearingHousePerpdexNew.sol:ClearingHousePerpdexNew",
        "label": "liquidationRewardRatio",
        "offset": 7,
        "slot": "6",
        "type": "t_uint24"
      },
      {
        "astId": 22889,
        "contract": "contracts/ClearingHousePerpdexNew.sol:ClearingHousePerpdexNew",
        "label": "maxFundingRateRatio",
        "offset": 10,
        "slot": "6",
        "type": "t_uint24"
      },
      {
        "astId": 22893,
        "contract": "contracts/ClearingHousePerpdexNew.sol:ClearingHousePerpdexNew",
        "label": "isBaseTokenAllowed",
        "offset": 0,
        "slot": "7",
        "type": "t_mapping(t_address,t_bool)"
      }
    ],
    "types": {
      "t_address": {
        "encoding": "inplace",
        "label": "address",
        "numberOfBytes": "20"
      },
      "t_array(t_address)dyn_storage": {
        "base": "t_address",
        "encoding": "dynamic_array",
        "label": "address[]",
        "numberOfBytes": "32"
      },
      "t_bool": {
        "encoding": "inplace",
        "label": "bool",
        "numberOfBytes": "1"
      },
      "t_int256": {
        "encoding": "inplace",
        "label": "int256",
        "numberOfBytes": "32"
      },
      "t_mapping(t_address,t_bool)": {
        "encoding": "mapping",
        "key": "t_address",
        "label": "mapping(address => bool)",
        "numberOfBytes": "32",
        "value": "t_bool"
      },
      "t_mapping(t_address,t_struct(AccountInfo)48818_storage)": {
        "encoding": "mapping",
        "key": "t_address",
        "label": "mapping(address => struct PerpdexStructs.AccountInfo)",
        "numberOfBytes": "32",
        "value": "t_struct(AccountInfo)48818_storage"
      },
      "t_mapping(t_address,t_struct(MakerInfo)48801_storage)": {
        "encoding": "mapping",
        "key": "t_address",
        "label": "mapping(address => struct PerpdexStructs.MakerInfo)",
        "numberOfBytes": "32",
        "value": "t_struct(MakerInfo)48801_storage"
      },
      "t_mapping(t_address,t_struct(PriceLimitInfo)48826_storage)": {
        "encoding": "mapping",
        "key": "t_address",
        "label": "mapping(address => struct PerpdexStructs.PriceLimitInfo)",
        "numberOfBytes": "32",
        "value": "t_struct(PriceLimitInfo)48826_storage"
      },
      "t_mapping(t_address,t_struct(TakerInfo)48794_storage)": {
        "encoding": "mapping",
        "key": "t_address",
        "label": "mapping(address => struct PerpdexStructs.TakerInfo)",
        "numberOfBytes": "32",
        "value": "t_struct(TakerInfo)48794_storage"
      },
      "t_struct(AccountInfo)48818_storage": {
        "encoding": "inplace",
        "label": "struct PerpdexStructs.AccountInfo",
        "members": [
          {
            "astId": 48808,
            "contract": "contracts/ClearingHousePerpdexNew.sol:ClearingHousePerpdexNew",
            "label": "takerInfo",
            "offset": 0,
            "slot": "0",
            "type": "t_mapping(t_address,t_struct(TakerInfo)48794_storage)"
          },
          {
            "astId": 48812,
            "contract": "contracts/ClearingHousePerpdexNew.sol:ClearingHousePerpdexNew",
            "label": "makerInfo",
            "offset": 0,
            "slot": "1",
            "type": "t_mapping(t_address,t_struct(MakerInfo)48801_storage)"
          },
          {
            "astId": 48814,
            "contract": "contracts/ClearingHousePerpdexNew.sol:ClearingHousePerpdexNew",
            "label": "vaultInfo",
            "offset": 0,
            "slot": "2",
            "type": "t_struct(VaultInfo)48804_storage"
          },
          {
            "astId": 48817,
            "contract": "contracts/ClearingHousePerpdexNew.sol:ClearingHousePerpdexNew",
            "label": "baseTokens",
            "offset": 0,
            "slot": "3",
            "type": "t_array(t_address)dyn_storage"
          }
        ],
        "numberOfBytes": "128"
      },
      "t_struct(InsuranceFundInfo)48821_storage": {
        "encoding": "inplace",
        "label": "struct PerpdexStructs.InsuranceFundInfo",
        "members": [
          {
            "astId": 48820,
            "contract": "contracts/ClearingHousePerpdexNew.sol:ClearingHousePerpdexNew",
            "label": "balance",
            "offset": 0,
            "slot": "0",
            "type": "t_int256"
          }
        ],
        "numberOfBytes": "32"
      },
      "t_struct(MakerInfo)48801_storage": {
        "encoding": "inplace",
        "label": "struct PerpdexStructs.MakerInfo",
        "members": [
          {
            "astId": 48796,
            "contract": "contracts/ClearingHousePerpdexNew.sol:ClearingHousePerpdexNew",
            "label": "baseDebtShare",
            "offset": 0,
            "slot": "0",
            "type": "t_uint256"
          },
          {
            "astId": 48798,
            "contract": "contracts/ClearingHousePerpdexNew.sol:ClearingHousePerpdexNew",
            "label": "quoteDebt",
            "offset": 0,
            "slot": "1",
            "type": "t_uint256"
          },
          {
            "astId": 48800,
            "contract": "contracts/ClearingHousePerpdexNew.sol:ClearingHousePerpdexNew",
            "label": "liquidity",
            "offset": 0,
            "slot": "2",
            "type": "t_uint256"
          }
        ],
        "numberOfBytes": "96"
      },
      "t_struct(PriceLimitConfig)48831_storage": {
        "encoding": "inplace",
        "label": "struct PerpdexStructs.PriceLimitConfig",
        "members": [
          {
            "astId": 48828,
            "contract": "contracts/ClearingHousePerpdexNew.sol:ClearingHousePerpdexNew",
            "label": "priceLimitNormalOrderRatio",
            "offset": 0,
            "slot": "0",
            "type": "t_uint24"
          },
          {
            "astId": 48830,
            "contract": "contracts/ClearingHousePerpdexNew.sol:ClearingHousePerpdexNew",
            "label": "priceLimitLiquidationRatio",
            "offset": 3,
            "slot": "0",
            "type": "t_uint24"
          }
        ],
        "numberOfBytes": "32"
      },
      "t_struct(PriceLimitInfo)48826_storage": {
        "encoding": "inplace",
        "label": "struct PerpdexStructs.PriceLimitInfo",
        "members": [
          {
            "astId": 48823,
            "contract": "contracts/ClearingHousePerpdexNew.sol:ClearingHousePerpdexNew",
            "label": "referencePrice",
            "offset": 0,
            "slot": "0",
            "type": "t_uint256"
          },
          {
            "astId": 48825,
            "contract": "contracts/ClearingHousePerpdexNew.sol:ClearingHousePerpdexNew",
            "label": "referenceTimestamp",
            "offset": 0,
            "slot": "1",
            "type": "t_uint256"
          }
        ],
        "numberOfBytes": "64"
      },
      "t_struct(TakerInfo)48794_storage": {
        "encoding": "inplace",
        "label": "struct PerpdexStructs.TakerInfo",
        "members": [
          {
            "astId": 48791,
            "contract": "contracts/ClearingHousePerpdexNew.sol:ClearingHousePerpdexNew",
            "label": "baseBalanceShare",
            "offset": 0,
            "slot": "0",
            "type": "t_int256"
          },
          {
            "astId": 48793,
            "contract": "contracts/ClearingHousePerpdexNew.sol:ClearingHousePerpdexNew",
            "label": "quoteBalance",
            "offset": 0,
            "slot": "1",
            "type": "t_int256"
          }
        ],
        "numberOfBytes": "64"
      },
      "t_struct(VaultInfo)48804_storage": {
        "encoding": "inplace",
        "label": "struct PerpdexStructs.VaultInfo",
        "members": [
          {
            "astId": 48803,
            "contract": "contracts/ClearingHousePerpdexNew.sol:ClearingHousePerpdexNew",
            "label": "collateralBalance",
            "offset": 0,
            "slot": "0",
            "type": "t_int256"
          }
        ],
        "numberOfBytes": "32"
      },
      "t_uint24": {
        "encoding": "inplace",
        "label": "uint24",
        "numberOfBytes": "3"
      },
      "t_uint256": {
        "encoding": "inplace",
        "label": "uint256",
        "numberOfBytes": "32"
      },
      "t_uint8": {
        "encoding": "inplace",
        "label": "uint8",
        "numberOfBytes": "1"
      }
    }
  }
}