{
  "address": "0x9F6eaf07D2175807a0086735D2704c68C0b3e056",
  "abi": [
    {
      "inputs": [
        {
          "internalType": "address",
          "name": "settlementTokenArg",
          "type": "address"
        },
        {
          "internalType": "string",
          "name": "quoteTokenName",
          "type": "string"
        },
        {
          "internalType": "string",
          "name": "quoteTokenSymbol",
          "type": "string"
        },
        {
          "internalType": "address",
          "name": "uniV2FactoryArg",
          "type": "address"
        }
      ],
      "stateMutability": "nonpayable",
      "type": "constructor"
    },
    {
      "anonymous": false,
      "inputs": [
        {
          "indexed": true,
          "internalType": "address",
          "name": "maker",
          "type": "address"
        },
        {
          "indexed": true,
          "internalType": "address",
          "name": "baseToken",
          "type": "address"
        },
        {
          "indexed": true,
          "internalType": "address",
          "name": "quoteToken",
          "type": "address"
        },
        {
          "indexed": false,
          "internalType": "int256",
          "name": "base",
          "type": "int256"
        },
        {
          "indexed": false,
          "internalType": "int256",
          "name": "quote",
          "type": "int256"
        },
        {
          "indexed": false,
          "internalType": "int256",
          "name": "liquidity",
          "type": "int256"
        }
      ],
      "name": "LiquidityChanged",
      "type": "event"
    },
    {
      "anonymous": false,
      "inputs": [
        {
          "indexed": true,
          "internalType": "address",
          "name": "previousOwner",
          "type": "address"
        },
        {
          "indexed": true,
          "internalType": "address",
          "name": "newOwner",
          "type": "address"
        }
      ],
      "name": "OwnershipTransferred",
      "type": "event"
    },
    {
      "anonymous": false,
      "inputs": [
        {
          "indexed": true,
          "internalType": "address",
          "name": "trader",
          "type": "address"
        },
        {
          "indexed": true,
          "internalType": "address",
          "name": "baseToken",
          "type": "address"
        },
        {
          "indexed": false,
          "internalType": "int256",
          "name": "exchangedPositionSize",
          "type": "int256"
        },
        {
          "indexed": false,
          "internalType": "int256",
          "name": "exchangedPositionNotional",
          "type": "int256"
        },
        {
          "indexed": false,
          "internalType": "int256",
          "name": "openNotional",
          "type": "int256"
        },
        {
          "indexed": false,
          "internalType": "int256",
          "name": "realizedPnl",
          "type": "int256"
        },
        {
          "indexed": false,
          "internalType": "uint256",
          "name": "priceAfterX96",
          "type": "uint256"
        }
      ],
      "name": "PositionChanged",
      "type": "event"
    },
    {
      "anonymous": false,
      "inputs": [
        {
          "indexed": true,
          "internalType": "address",
          "name": "trader",
          "type": "address"
        },
        {
          "indexed": true,
          "internalType": "address",
          "name": "baseToken",
          "type": "address"
        },
        {
          "indexed": false,
          "internalType": "uint256",
          "name": "positionNotional",
          "type": "uint256"
        },
        {
          "indexed": false,
          "internalType": "uint256",
          "name": "positionSize",
          "type": "uint256"
        },
        {
          "indexed": false,
          "internalType": "uint256",
          "name": "liquidationFee",
          "type": "uint256"
        },
        {
          "indexed": false,
          "internalType": "address",
          "name": "liquidator",
          "type": "address"
        }
      ],
      "name": "PositionLiquidated",
      "type": "event"
    },
    {
      "inputs": [
        {
          "internalType": "address",
          "name": "",
          "type": "address"
        }
      ],
      "name": "accountInfos",
      "outputs": [
        {
          "components": [
            {
              "internalType": "int256",
              "name": "collateralBalance",
              "type": "int256"
            }
          ],
          "internalType": "struct PerpdexStructs.VaultInfo",
          "name": "vaultInfo",
          "type": "tuple"
        }
      ],
      "stateMutability": "view",
      "type": "function"
    },
    {
      "inputs": [
        {
          "components": [
            {
              "internalType": "address",
              "name": "baseToken",
              "type": "address"
            },
            {
              "internalType": "uint256",
              "name": "base",
              "type": "uint256"
            },
            {
              "internalType": "uint256",
              "name": "quote",
              "type": "uint256"
            },
            {
              "internalType": "uint256",
              "name": "minBase",
              "type": "uint256"
            },
            {
              "internalType": "uint256",
              "name": "minQuote",
              "type": "uint256"
            },
            {
              "internalType": "uint256",
              "name": "deadline",
              "type": "uint256"
            }
          ],
          "internalType": "struct IClearingHousePerpdexNew.AddLiquidityParams",
          "name": "params",
          "type": "tuple"
        }
      ],
      "name": "addLiquidity",
      "outputs": [
        {
          "components": [
            {
              "internalType": "uint256",
              "name": "base",
              "type": "uint256"
            },
            {
              "internalType": "uint256",
              "name": "quote",
              "type": "uint256"
            },
            {
              "internalType": "uint256",
              "name": "liquidity",
              "type": "uint256"
            }
          ],
          "internalType": "struct IClearingHousePerpdexNew.AddLiquidityResponse",
          "name": "",
          "type": "tuple"
        }
      ],
      "stateMutability": "nonpayable",
      "type": "function"
    },
    {
      "inputs": [
        {
          "internalType": "uint256",
          "name": "amount",
          "type": "uint256"
        }
      ],
      "name": "deposit",
      "outputs": [],
      "stateMutability": "nonpayable",
      "type": "function"
    },
    {
      "inputs": [
        {
          "internalType": "address",
          "name": "trader",
          "type": "address"
        }
      ],
      "name": "getAccountBaseTokens",
      "outputs": [
        {
          "internalType": "address[]",
          "name": "",
          "type": "address[]"
        }
      ],
      "stateMutability": "nonpayable",
      "type": "function"
    },
    {
      "inputs": [
        {
          "internalType": "address",
          "name": "trader",
          "type": "address"
        },
        {
          "internalType": "address",
          "name": "baseToken",
          "type": "address"
        }
      ],
      "name": "getMakerInfo",
      "outputs": [
        {
          "components": [
            {
              "internalType": "uint256",
              "name": "baseDebtShare",
              "type": "uint256"
            },
            {
              "internalType": "uint256",
              "name": "quoteDebt",
              "type": "uint256"
            },
            {
              "internalType": "uint256",
              "name": "liquidity",
              "type": "uint256"
            }
          ],
          "internalType": "struct PerpdexStructs.MakerInfo",
          "name": "",
          "type": "tuple"
        }
      ],
      "stateMutability": "nonpayable",
      "type": "function"
    },
    {
      "inputs": [
        {
          "internalType": "address",
          "name": "trader",
          "type": "address"
        },
        {
          "internalType": "address",
          "name": "baseToken",
          "type": "address"
        }
      ],
      "name": "getOpenPositionNotional",
      "outputs": [
        {
          "internalType": "uint256",
          "name": "",
          "type": "uint256"
        }
      ],
      "stateMutability": "view",
      "type": "function"
    },
    {
      "inputs": [
        {
          "internalType": "address",
          "name": "trader",
          "type": "address"
        },
        {
          "internalType": "address",
          "name": "baseToken",
          "type": "address"
        }
      ],
      "name": "getOpenPositionSize",
      "outputs": [
        {
          "internalType": "uint256",
          "name": "",
          "type": "uint256"
        }
      ],
      "stateMutability": "view",
      "type": "function"
    },
    {
      "inputs": [
        {
          "internalType": "address",
          "name": "trader",
          "type": "address"
        },
        {
          "internalType": "address",
          "name": "baseToken",
          "type": "address"
        }
      ],
      "name": "getPositionNotional",
      "outputs": [
        {
          "internalType": "int256",
          "name": "",
          "type": "int256"
        }
      ],
      "stateMutability": "view",
      "type": "function"
    },
    {
      "inputs": [
        {
          "internalType": "address",
          "name": "trader",
          "type": "address"
        },
        {
          "internalType": "address",
          "name": "baseToken",
          "type": "address"
        }
      ],
      "name": "getPositionSize",
      "outputs": [
        {
          "internalType": "int256",
          "name": "",
          "type": "int256"
        }
      ],
      "stateMutability": "view",
      "type": "function"
    },
    {
      "inputs": [
        {
          "internalType": "address",
          "name": "trader",
          "type": "address"
        },
        {
          "internalType": "address",
          "name": "baseToken",
          "type": "address"
        }
      ],
      "name": "getTakerInfo",
      "outputs": [
        {
          "components": [
            {
              "internalType": "int256",
              "name": "baseBalanceShare",
              "type": "int256"
            },
            {
              "internalType": "int256",
              "name": "quoteBalance",
              "type": "int256"
            }
          ],
          "internalType": "struct PerpdexStructs.TakerInfo",
          "name": "",
          "type": "tuple"
        }
      ],
      "stateMutability": "nonpayable",
      "type": "function"
    },
    {
      "inputs": [
        {
          "internalType": "address",
          "name": "trader",
          "type": "address"
        }
      ],
      "name": "getTotalAccountValue",
      "outputs": [
        {
          "internalType": "int256",
          "name": "",
          "type": "int256"
        }
      ],
      "stateMutability": "view",
      "type": "function"
    },
    {
      "inputs": [
        {
          "internalType": "address",
          "name": "trader",
          "type": "address"
        }
      ],
      "name": "getTotalOpenPositionNotional",
      "outputs": [
        {
          "internalType": "uint256",
          "name": "",
          "type": "uint256"
        }
      ],
      "stateMutability": "view",
      "type": "function"
    },
    {
      "inputs": [
        {
          "internalType": "address",
          "name": "trader",
          "type": "address"
        }
      ],
      "name": "getTotalPositionNotional",
      "outputs": [
        {
          "internalType": "uint256",
          "name": "",
          "type": "uint256"
        }
      ],
      "stateMutability": "view",
      "type": "function"
    },
    {
      "inputs": [
        {
          "internalType": "address",
          "name": "trader",
          "type": "address"
        }
      ],
      "name": "hasEnoughInitialMargin",
      "outputs": [
        {
          "internalType": "bool",
          "name": "",
          "type": "bool"
        }
      ],
      "stateMutability": "view",
      "type": "function"
    },
    {
      "inputs": [
        {
          "internalType": "address",
          "name": "trader",
          "type": "address"
        }
      ],
      "name": "hasEnoughMaintenanceMargin",
      "outputs": [
        {
          "internalType": "bool",
          "name": "",
          "type": "bool"
        }
      ],
      "stateMutability": "view",
      "type": "function"
    },
    {
      "inputs": [],
      "name": "imRatio",
      "outputs": [
        {
          "internalType": "uint24",
          "name": "",
          "type": "uint24"
        }
      ],
      "stateMutability": "view",
      "type": "function"
    },
    {
      "inputs": [],
      "name": "insuranceFundInfo",
      "outputs": [
        {
          "internalType": "int256",
          "name": "balance",
          "type": "int256"
        }
      ],
      "stateMutability": "view",
      "type": "function"
    },
    {
      "inputs": [
        {
          "internalType": "address",
          "name": "",
          "type": "address"
        }
      ],
      "name": "isBaseTokenAllowed",
      "outputs": [
        {
          "internalType": "bool",
          "name": "",
          "type": "bool"
        }
      ],
      "stateMutability": "view",
      "type": "function"
    },
    {
      "inputs": [
        {
          "components": [
            {
              "internalType": "address",
              "name": "trader",
              "type": "address"
            },
            {
              "internalType": "address",
              "name": "baseToken",
              "type": "address"
            },
            {
              "internalType": "uint256",
              "name": "amount",
              "type": "uint256"
            },
            {
              "internalType": "uint256",
              "name": "oppositeAmountBound",
              "type": "uint256"
            },
            {
              "internalType": "uint256",
              "name": "deadline",
              "type": "uint256"
            }
          ],
          "internalType": "struct IClearingHousePerpdexNew.LiquidateParams",
          "name": "params",
          "type": "tuple"
        }
      ],
      "name": "liquidate",
      "outputs": [
        {
          "internalType": "int256",
          "name": "base",
          "type": "int256"
        },
        {
          "internalType": "int256",
          "name": "quote",
          "type": "int256"
        }
      ],
      "stateMutability": "nonpayable",
      "type": "function"
    },
    {
      "inputs": [],
      "name": "liquidationRewardRatio",
      "outputs": [
        {
          "internalType": "uint24",
          "name": "",
          "type": "uint24"
        }
      ],
      "stateMutability": "view",
      "type": "function"
    },
    {
      "inputs": [],
      "name": "maxFundingRateRatio",
      "outputs": [
        {
          "internalType": "uint24",
          "name": "",
          "type": "uint24"
        }
      ],
      "stateMutability": "view",
      "type": "function"
    },
    {
      "inputs": [],
      "name": "maxMarketsPerAccount",
      "outputs": [
        {
          "internalType": "uint8",
          "name": "",
          "type": "uint8"
        }
      ],
      "stateMutability": "view",
      "type": "function"
    },
    {
      "inputs": [],
      "name": "mmRatio",
      "outputs": [
        {
          "internalType": "uint24",
          "name": "",
          "type": "uint24"
        }
      ],
      "stateMutability": "view",
      "type": "function"
    },
    {
      "inputs": [
        {
          "components": [
            {
              "internalType": "address",
              "name": "baseToken",
              "type": "address"
            },
            {
              "internalType": "bool",
              "name": "isBaseToQuote",
              "type": "bool"
            },
            {
              "internalType": "bool",
              "name": "isExactInput",
              "type": "bool"
            },
            {
              "internalType": "uint256",
              "name": "amount",
              "type": "uint256"
            },
            {
              "internalType": "uint256",
              "name": "oppositeAmountBound",
              "type": "uint256"
            },
            {
              "internalType": "uint256",
              "name": "deadline",
              "type": "uint256"
            }
          ],
          "internalType": "struct IClearingHousePerpdexNew.OpenPositionParams",
          "name": "params",
          "type": "tuple"
        }
      ],
      "name": "openPosition",
      "outputs": [
        {
          "internalType": "int256",
          "name": "base",
          "type": "int256"
        },
        {
          "internalType": "int256",
          "name": "quote",
          "type": "int256"
        }
      ],
      "stateMutability": "nonpayable",
      "type": "function"
    },
    {
      "inputs": [],
      "name": "owner",
      "outputs": [
        {
          "internalType": "address",
          "name": "",
          "type": "address"
        }
      ],
      "stateMutability": "view",
      "type": "function"
    },
    {
      "inputs": [],
      "name": "priceLimitConfig",
      "outputs": [
        {
          "internalType": "uint24",
          "name": "priceLimitNormalOrderRatio",
          "type": "uint24"
        },
        {
          "internalType": "uint24",
          "name": "priceLimitLiquidationRatio",
          "type": "uint24"
        }
      ],
      "stateMutability": "view",
      "type": "function"
    },
    {
      "inputs": [
        {
          "internalType": "address",
          "name": "",
          "type": "address"
        }
      ],
      "name": "priceLimitInfos",
      "outputs": [
        {
          "internalType": "uint256",
          "name": "referencePrice",
          "type": "uint256"
        },
        {
          "internalType": "uint256",
          "name": "referenceTimestamp",
          "type": "uint256"
        }
      ],
      "stateMutability": "view",
      "type": "function"
    },
    {
      "inputs": [],
      "name": "quoteToken",
      "outputs": [
        {
          "internalType": "address",
          "name": "",
          "type": "address"
        }
      ],
      "stateMutability": "view",
      "type": "function"
    },
    {
      "inputs": [
        {
          "components": [
            {
              "internalType": "address",
              "name": "baseToken",
              "type": "address"
            },
            {
              "internalType": "uint256",
              "name": "liquidity",
              "type": "uint256"
            },
            {
              "internalType": "uint256",
              "name": "minBase",
              "type": "uint256"
            },
            {
              "internalType": "uint256",
              "name": "minQuote",
              "type": "uint256"
            },
            {
              "internalType": "uint256",
              "name": "deadline",
              "type": "uint256"
            }
          ],
          "internalType": "struct IClearingHousePerpdexNew.RemoveLiquidityParams",
          "name": "params",
          "type": "tuple"
        },
        {
          "internalType": "address",
          "name": "maker",
          "type": "address"
        }
      ],
      "name": "removeLiquidity",
      "outputs": [
        {
          "components": [
            {
              "internalType": "uint256",
              "name": "base",
              "type": "uint256"
            },
            {
              "internalType": "uint256",
              "name": "quote",
              "type": "uint256"
            }
          ],
          "internalType": "struct IClearingHousePerpdexNew.RemoveLiquidityResponse",
          "name": "",
          "type": "tuple"
        }
      ],
      "stateMutability": "nonpayable",
      "type": "function"
    },
    {
      "inputs": [
        {
          "components": [
            {
              "internalType": "address",
              "name": "baseToken",
              "type": "address"
            },
            {
              "internalType": "uint256",
              "name": "liquidity",
              "type": "uint256"
            },
            {
              "internalType": "uint256",
              "name": "minBase",
              "type": "uint256"
            },
            {
              "internalType": "uint256",
              "name": "minQuote",
              "type": "uint256"
            },
            {
              "internalType": "uint256",
              "name": "deadline",
              "type": "uint256"
            }
          ],
          "internalType": "struct IClearingHousePerpdexNew.RemoveLiquidityParams",
          "name": "params",
          "type": "tuple"
        }
      ],
      "name": "removeLiquidity",
      "outputs": [
        {
          "components": [
            {
              "internalType": "uint256",
              "name": "base",
              "type": "uint256"
            },
            {
              "internalType": "uint256",
              "name": "quote",
              "type": "uint256"
            }
          ],
          "internalType": "struct IClearingHousePerpdexNew.RemoveLiquidityResponse",
          "name": "",
          "type": "tuple"
        }
      ],
      "stateMutability": "nonpayable",
      "type": "function"
    },
    {
      "inputs": [],
      "name": "renounceOwnership",
      "outputs": [],
      "stateMutability": "nonpayable",
      "type": "function"
    },
    {
      "inputs": [
        {
          "internalType": "uint24",
          "name": "value",
          "type": "uint24"
        }
      ],
      "name": "setImRatio",
      "outputs": [],
      "stateMutability": "nonpayable",
      "type": "function"
    },
    {
      "inputs": [
        {
          "internalType": "address",
          "name": "baseToken",
          "type": "address"
        },
        {
          "internalType": "bool",
          "name": "value",
          "type": "bool"
        }
      ],
      "name": "setIsBaseTokenAllowed",
      "outputs": [],
      "stateMutability": "nonpayable",
      "type": "function"
    },
    {
      "inputs": [
        {
          "internalType": "uint24",
          "name": "value",
          "type": "uint24"
        }
      ],
      "name": "setLiquidationRewardRatio",
      "outputs": [],
      "stateMutability": "nonpayable",
      "type": "function"
    },
    {
      "inputs": [
        {
          "internalType": "uint24",
          "name": "value",
          "type": "uint24"
        }
      ],
      "name": "setMaxFundingRateRatio",
      "outputs": [],
      "stateMutability": "nonpayable",
      "type": "function"
    },
    {
      "inputs": [
        {
          "internalType": "uint8",
          "name": "value",
          "type": "uint8"
        }
      ],
      "name": "setMaxMarketsPerAccount",
      "outputs": [],
      "stateMutability": "nonpayable",
      "type": "function"
    },
    {
      "inputs": [
        {
          "internalType": "uint24",
          "name": "value",
          "type": "uint24"
        }
      ],
      "name": "setMmRatio",
      "outputs": [],
      "stateMutability": "nonpayable",
      "type": "function"
    },
    {
      "inputs": [
        {
          "components": [
            {
              "internalType": "uint24",
              "name": "priceLimitNormalOrderRatio",
              "type": "uint24"
            },
            {
              "internalType": "uint24",
              "name": "priceLimitLiquidationRatio",
              "type": "uint24"
            }
          ],
          "internalType": "struct PerpdexStructs.PriceLimitConfig",
          "name": "value",
          "type": "tuple"
        }
      ],
      "name": "setPriceLimitConfig",
      "outputs": [],
      "stateMutability": "nonpayable",
      "type": "function"
    },
    {
      "inputs": [],
      "name": "settlementToken",
      "outputs": [
        {
          "internalType": "address",
          "name": "",
          "type": "address"
        }
      ],
      "stateMutability": "view",
      "type": "function"
    },
    {
      "inputs": [
        {
          "internalType": "address",
          "name": "newOwner",
          "type": "address"
        }
      ],
      "name": "transferOwnership",
      "outputs": [],
      "stateMutability": "nonpayable",
      "type": "function"
    },
    {
      "inputs": [],
      "name": "uniV2Factory",
      "outputs": [
        {
          "internalType": "address",
          "name": "",
          "type": "address"
        }
      ],
      "stateMutability": "view",
      "type": "function"
    },
    {
      "inputs": [
        {
          "internalType": "uint256",
          "name": "amount",
          "type": "uint256"
        }
      ],
      "name": "withdraw",
      "outputs": [],
      "stateMutability": "nonpayable",
      "type": "function"
    }
  ],
  "transactionHash": "0x5b1c46d2977605b1f291e37814c5691610fce47d67d4586256d5a68ae26bd444",
  "args": [
    "0xd00ae08403B9bbb9124bB305C09058E32C39A48c",
    "QuoteEth",
    "QUOTEETH",
    "0x0d7c2c0c563d3d38F6BE467829431ea1EA0E8509"
  ],
  "numDeployments": 3,
  "solcInputHash": "e9b0e3319049599b7eb436998dc9588c",
  "bytecode": "0x60e06040523480156200001157600080fd5b5060405162006f9a38038062006f9a8339810160408190526200003491620002bc565b60016000908155620000456200020f565b600180546001600160a01b0319166001600160a01b038316908117909155604051919250906000907f8be0079c531659141344cd1fd0a4f28419497f9722a3daafe3b4186f6b6457e0908290a350620000b2846001600160a01b03166200021360201b620020ca1760201c565b620000da5760405162461bcd60e51b8152600401620000d190620003da565b60405180910390fd5b620000f9816001600160a01b03166200021360201b620020ca1760201c565b620001185760405162461bcd60e51b8152600401620000d190620003b9565b6001600160601b0319606085901b1660805260405160009084908490309062000141906200021d565b6200014f9392919062000377565b8190604051809103906000f590508015801562000170573d6000803e3d6000fd5b50606090811b6001600160601b031990811660a05291901b1660c05250506005805465ffffff00000019908116650186a0000000171664c3500000001790555060068054601060ff199091161763ffffff001916630186a0001762ffffff60201b191665c350000000001762ffffff60381b191669030d40000000000000001762ffffff60501b19166bc350000000000000000000001790556200042e565b3390565b803b15155b919050565b610e28806200617283390190565b80516001600160a01b03811681146200021857600080fd5b600082601f83011262000254578081fd5b81516001600160401b03808211156200026957fe5b604051601f8301601f1916810160200182811182821017156200028857fe5b604052828152848301602001861015620002a0578384fd5b620002b3836020830160208801620003fb565b95945050505050565b60008060008060808587031215620002d2578384fd5b620002dd856200022b565b60208601519094506001600160401b0380821115620002fa578485fd5b620003088883890162000243565b945060408701519150808211156200031e578384fd5b506200032d8782880162000243565b9250506200033e606086016200022b565b905092959194509250565b6000815180845262000363816020860160208601620003fb565b601f01601f19169290920160200192915050565b6000606082526200038c606083018662000349565b8281036020840152620003a0818662000349565b91505060018060a01b0383166040830152949350505050565b60208082526007908201526643485f55414e4360c81b604082015260600190565b60208082526007908201526643485f53414e4360c81b604082015260600190565b60005b8381101562000418578181015183820152602001620003fe565b8381111562000428576000848401525b50505050565b60805160601c60a05160601c60c05160601c615c6e62000504600039806105b752806106f65280610a0e5280610add5280610b245280610bdd5280610d6c5280611283528061131252806113ad5280611420528061148852806118915280611d265280611ea95250806105d8528061069f528061076952806108ed52806109ca5280610afe5280610bfe5280610d1f52806112a5528061133452806113cf528061144252806114aa52806118015280611cc55280611dbc5280611ecb52508061099b52806112d252806116cd5250615c6e6000f3fe608060405234801561001057600080fd5b506004361061025e5760003560e01c806387cad0bf11610146578063c2fdd42f116100c3578063d1ead56311610087578063d1ead56314610525578063dfe1cb9214610538578063ec6cca841461054b578063f2fde38b1461055e578063f652b52714610571578063fa8f0368146105865761025e565b8063c2fdd42f146104dc578063c3afe1ce146104ef578063c66fa8e614610502578063c9ca7b181461050a578063d16111c11461051d5761025e565b80639f044f311161010a5780639f044f3114610486578063a3b6c2721461048e578063b53c5125146104a1578063b6261643146104c1578063b6b55f25146104c95761025e565b806387cad0bf146104255780638da25bbe146104455780638da5cb5b14610458578063996fbf94146104605780639dce9e19146104735761025e565b80634b4aa735116101df578063715018a6116101a3578063715018a6146103bc57806373f62501146103c457806376c6008f146103d75780637b9e618d146103ea5780637c88490a146103f257806383072134146104055761025e565b80634b4aa7351461035a57806359af74f71461036d5780635f0e078e146103805780636346f32e146103935780636e838bad146103a95761025e565b80632e784343116102265780632e784343146102f75780632f60a1511461030a5780633a9210511461031f5780633da04b871461033257806340097be51461033a5761025e565b80630674fa4114610263578063093eb8201461028c57806319be4975146102ac578063217a4b70146102cd5780632e1a7d4d146102e2575b600080fd5b610276610271366004615400565b610599565b604051610283919061568f565b60405180910390f35b61029f61029a36600461551c565b610604565b60405161028391906158b2565b6102bf6102ba366004615400565b6108d2565b604051610283929190615698565b6102d56108eb565b60405161028391906155f1565b6102f56102f0366004615564565b61090f565b005b61029f610305366004615438565b610a63565b610312610aaf565b60405161028391906158d3565b61027661032d366004615400565b610abf565b6102d5610b22565b61034d610348366004615400565b610b46565b6040516102839190615643565b610276610368366004615400565b610bbf565b6102bf61037b3660046154f0565b610c22565b6102f561038e366004615470565b610f00565b61039b610fdb565b6040516102839291906158e3565b6102f56103b7366004615548565b610ff1565b6102f56110f6565b6102f56103d23660046155b7565b6111a2565b6102766103e5366004615438565b611265565b6102d56112d0565b610276610400366004615438565b6112f4565b610418610413366004615400565b611358565b6040516102839190615684565b610438610433366004615400565b61136d565b60405161028391906158c9565b610276610453366004615438565b61138f565b6102d56113f3565b61027661046e366004615438565b611402565b610418610481366004615400565b611466565b6103126114db565b6102f561049c366004615548565b6114ed565b6104b46104af366004615438565b6115d7565b60405161028391906158a4565b61031261162f565b6102f56104d7366004615564565b611641565b61029f6104ea3660046154f0565b611712565b6102bf6104fd3660046154d5565b611726565b610276611a05565b6102f5610518366004615548565b611a0b565b610312611b11565b6102f5610533366004615548565b611b23565b6104b46105463660046154d5565b611c0d565b610418610559366004615400565b611e87565b6102f561056c366004615400565b611efa565b610579611ffd565b604051610283919061596a565b6102f561059436600461550b565b612006565b6001600160a01b03811660009081526002602052604081206105fc907f00000000000000000000000000000000000000000000000000000000000000007f00000000000000000000000000000000000000000000000000000000000000006120d0565b90505b919050565b61060c61533f565b60026000541415610652576040805162461bcd60e51b815260206004820152601f60248201526000805160206159fc833981519152604482015290519081900360640190fd5b600260008181556001600160a01b03841681526020918252604080822081516101408101909252919261075d929190819061068f90890189615400565b6001600160a01b031681526020017f00000000000000000000000000000000000000000000000000000000000000006001600160a01b03168152602001876020013581526020018760400135815260200187606001358152602001876080013581526020017f00000000000000000000000000000000000000000000000000000000000000006001600160a01b0316815260200161072b612135565b6001600160a01b03888116911614815260065462ffffff600160201b820416602083015260ff16604090910152612139565b90506001600160a01b037f0000000000000000000000000000000000000000000000000000000000000000166107966020860186615400565b6001600160a01b0316846001600160a01b03167f3fafa413f72659615af87212409788d1f1d6fa7a3a3fc3c3798b269188a4dfc66107d7856000015161239c565b6107e4866020015161239c565b6107f18a6020013561239c565b604051610800939291906156a6565b60405180910390a46108156020850185615400565b60408083015160608401516001600160a01b0387811660008181526002602090815295812096909216959094600080516020615b5383398151915294939290610860908c018c615400565b6001600160a01b03166001600160a01b031681526020019081526020016000206001015486608001518760a0015160405161089f9594939291906156bc565b60405180910390a36040518060400160405280826000015181526020018260200151815250915050600160005592915050565b6003602052600090815260409020805460019091015482565b7f000000000000000000000000000000000000000000000000000000000000000081565b60026000541415610955576040805162461bcd60e51b815260206004820152601f60248201526000805160206159fc833981519152604482015290519081900360640190fd5b60026000908155610964612135565b9050610a5a60026000836001600160a01b03166001600160a01b031681526020019081526020016000206040518060c001604052807f00000000000000000000000000000000000000000000000000000000000000006001600160a01b031681526020017f00000000000000000000000000000000000000000000000000000000000000006001600160a01b03168152602001858152602001846001600160a01b031681526020017f00000000000000000000000000000000000000000000000000000000000000006001600160a01b03168152602001600660019054906101000a900462ffffff1662ffffff168152506123b0565b50506001600055565b610a6b61533f565b506001600160a01b03808316600090815260026020908152604080832093851683529281529082902082518084019093528054835260010154908201525b92915050565b600654610100900462ffffff1681565b6001600160a01b03811660009081526002602052604081206105fc907f00000000000000000000000000000000000000000000000000000000000000007f0000000000000000000000000000000000000000000000000000000000000000612410565b7f000000000000000000000000000000000000000000000000000000000000000081565b6001600160a01b038116600090815260026020908152604091829020600301805483518184028101840190945280845260609392830182828015610bb357602002820191906000526020600020905b81546001600160a01b03168152600190910190602001808311610b95575b50505050509050919050565b6001600160a01b03811660009081526002602052604081206105fc907f00000000000000000000000000000000000000000000000000000000000000007f0000000000000000000000000000000000000000000000000000000000000000612473565b60008060026000541415610c6b576040805162461bcd60e51b815260206004820152601f60248201526000805160206159fc833981519152604482015290519081900360640190fd5b60026000908155610c7f6020850185615400565b90506000610c8b612135565b6001600160a01b03808416600090815260026020908152604080832093851683528083209495509193610e44939290916003918691610cce918d01908d01615400565b6001600160a01b03166001600160a01b0316815260200190815260200160002060046040518061014001604052808c6020016020810190610d0f9190615400565b6001600160a01b031681526020017f00000000000000000000000000000000000000000000000000000000000000006001600160a01b031681526020018c6040013581526020018c6060013581526020018c6080013581526020017f00000000000000000000000000000000000000000000000000000000000000006001600160a01b0316815260200160056040518060400160405290816000820160009054906101000a900462ffffff1662ffffff1662ffffff1681526020016000820160039054906101000a900462ffffff1662ffffff1662ffffff16815250508152602001600660049054906101000a900462ffffff1662ffffff168152602001600660079054906101000a900462ffffff1662ffffff168152602001600660009054906101000a900460ff1660ff168152506124ce565b9050610e566040870160208801615400565b81516020808401516001600160a01b03878116600081815260028552604080822097909316969195600080516020615b5383398151915295909493610ea091908f01908f01615400565b6001600160a01b03166001600160a01b031681526020019081526020016000206001015486604001518760600151604051610edf9594939291906156bc565b60405180910390a38051602090910151600160005590969095509350505050565b610f08612135565b6001600160a01b0316610f196113f3565b6001600160a01b031614610f62576040805162461bcd60e51b81526020600482018190526024820152600080516020615b33833981519152604482015290519081900360640190fd5b60026000541415610fa8576040805162461bcd60e51b815260206004820152601f60248201526000805160206159fc833981519152604482015290519081900360640190fd5b600260009081556001600160a01b03929092168252600760205260408220805460ff191691151591909117905560019055565b60055462ffffff80821691630100000090041682565b610ff9612135565b6001600160a01b031661100a6113f3565b6001600160a01b031614611053576040805162461bcd60e51b81526020600482018190526024820152600080516020615b33833981519152604482015290519081900360640190fd5b60026000541415611099576040805162461bcd60e51b815260206004820152601f60248201526000805160206159fc833981519152604482015290519081900360640190fd5b6002600055620f424062ffffff8216106110b257600080fd5b60065462ffffff600160201b909104811690821610156110d157600080fd5b6006805462ffffff9092166101000263ffffff00199092169190911790556001600055565b6110fe612135565b6001600160a01b031661110f6113f3565b6001600160a01b031614611158576040805162461bcd60e51b81526020600482018190526024820152600080516020615b33833981519152604482015290519081900360640190fd5b6001546040516000916001600160a01b0316907f8be0079c531659141344cd1fd0a4f28419497f9722a3daafe3b4186f6b6457e0908390a3600180546001600160a01b0319169055565b6111aa612135565b6001600160a01b03166111bb6113f3565b6001600160a01b031614611204576040805162461bcd60e51b81526020600482018190526024820152600080516020615b33833981519152604482015290519081900360640190fd5b6002600054141561124a576040805162461bcd60e51b815260206004820152601f60248201526000805160206159fc833981519152604482015290519081900360640190fd5b6006805460ff191660ff929092169190911790556001600055565b6001600160a01b03821660009081526002602052604081206112c9907f0000000000000000000000000000000000000000000000000000000000000000847f000000000000000000000000000000000000000000000000000000000000000061269b565b9392505050565b7f000000000000000000000000000000000000000000000000000000000000000081565b6001600160a01b03821660009081526002602052604081206112c9907f0000000000000000000000000000000000000000000000000000000000000000847f00000000000000000000000000000000000000000000000000000000000000006126f6565b60076020526000908152604090205460ff1681565b6002602081815260009283526040928390208351918201909352910154815281565b6001600160a01b03821660009081526002602052604081206112c9907f0000000000000000000000000000000000000000000000000000000000000000847f0000000000000000000000000000000000000000000000000000000000000000612739565b6001546001600160a01b031690565b6001600160a01b03821660009081526002602052604081206112c9907f0000000000000000000000000000000000000000000000000000000000000000847f00000000000000000000000000000000000000000000000000000000000000006127c5565b6001600160a01b03811660009081526002602052604081206006546105fc91907f0000000000000000000000000000000000000000000000000000000000000000907f000000000000000000000000000000000000000000000000000000000000000090600160201b900462ffffff166127f4565b600654600160201b900462ffffff1681565b6114f5612135565b6001600160a01b03166115066113f3565b6001600160a01b03161461154f576040805162461bcd60e51b81526020600482018190526024820152600080516020615b33833981519152604482015290519081900360640190fd5b60026000541415611595576040805162461bcd60e51b815260206004820152601f60248201526000805160206159fc833981519152604482015290519081900360640190fd5b6002600055620f424062ffffff8216106115ae57600080fd5b6006805462ffffff909216600160501b0262ffffff60501b199092169190911790556001600055565b6115df615359565b506001600160a01b03808316600090815260026020818152604080842094861684526001948501825292839020835160608101855281548152948101549185019190915201549082015292915050565b600654600160381b900462ffffff1681565b60026000541415611687576040805162461bcd60e51b815260206004820152601f60248201526000805160206159fc833981519152604482015290519081900360640190fd5b60026000908155611696612135565b9050610a5a60026000836001600160a01b03166001600160a01b0316815260200190815260200160002060405180606001604052807f00000000000000000000000000000000000000000000000000000000000000006001600160a01b03168152602001858152602001846001600160a01b031681525061282e565b61171a61533f565b6105fc8261029a612135565b6000806002600054141561176f576040805162461bcd60e51b815260206004820152601f60248201526000805160206159fc833981519152604482015290519081900360640190fd5b6002600090815561177e612135565b6001600160a01b0381166000908152600260209081526040822092935090916119509160039084906117b2908a018a615400565b6001600160a01b03166001600160a01b03168152602001908152602001600020604051806101a001604052808960000160208101906117f19190615400565b6001600160a01b031681526020017f00000000000000000000000000000000000000000000000000000000000000006001600160a01b03168152602001896020016020810190611841919061549d565b1515815260200161185860608b0160408c0161549d565b151581526060808b01356020808401919091526080808d013560408086019190915260a0808f0135948601949094526001600160a01b037f00000000000000000000000000000000000000000000000000000000000000001691850191909152805180820190915260055462ffffff8082168352630100000090910416818301529183019190915260c0909101906007906000906118f8908d018d615400565b6001600160a01b0316815260208082019290925260409081016000205460ff9081161515845260065462ffffff600160201b82048116948601949094526101008104909316918401919091521660609091015261286c565b905061195f6020860186615400565b81516020808401516001600160a01b038681166000818152600285526040812096909216959094600080516020615b5383398151915294909392906119a6908d018d615400565b6001600160a01b03166001600160a01b0316815260200190815260200160002060010154866040015187606001516040516119e59594939291906156bc565b60405180910390a380516020909101516001600055909590945092505050565b60045481565b611a13612135565b6001600160a01b0316611a246113f3565b6001600160a01b031614611a6d576040805162461bcd60e51b81526020600482018190526024820152600080516020615b33833981519152604482015290519081900360640190fd5b60026000541415611ab3576040805162461bcd60e51b815260206004820152601f60248201526000805160206159fc833981519152604482015290519081900360640190fd5b600260005560065462ffffff61010090910481169082161115611ad557600080fd5b60008162ffffff1611611ae757600080fd5b6006805462ffffff909216600160201b0266ffffff00000000199092169190911790556001600055565b600654600160501b900462ffffff1681565b611b2b612135565b6001600160a01b0316611b3c6113f3565b6001600160a01b031614611b85576040805162461bcd60e51b81526020600482018190526024820152600080516020615b33833981519152604482015290519081900360640190fd5b60026000541415611bcb576040805162461bcd60e51b815260206004820152601f60248201526000805160206159fc833981519152604482015290519081900360640190fd5b6002600055620f424062ffffff821610611be457600080fd5b6006805462ffffff909216600160381b0262ffffff60381b199092169190911790556001600055565b611c15615359565b60026000541415611c5b576040805162461bcd60e51b815260206004820152601f60248201526000805160206159fc833981519152604482015290519081900360640190fd5b60026000908155611c6a612135565b90506000611db060026000846001600160a01b03166001600160a01b03168152602001908152602001600020604051806101600160405280876000016020810190611cb59190615400565b6001600160a01b031681526020017f00000000000000000000000000000000000000000000000000000000000000006001600160a01b03168152602001876020013581526020018760400135815260200187606001358152602001876080013581526020018760a0013581526020017f00000000000000000000000000000000000000000000000000000000000000006001600160a01b0316815260200160076000896000016020810190611d6a9190615400565b6001600160a01b0316815260208082019290925260409081016000205460ff9081161515845260065462ffffff61010082041693850193909352919091169101526129b8565b90506001600160a01b037f000000000000000000000000000000000000000000000000000000000000000016611de96020860186615400565b6001600160a01b0316836001600160a01b03167f3fafa413f72659615af87212409788d1f1d6fa7a3a3fc3c3798b269188a4dfc6611e2a8560000151612b9b565b611e378660200151612b9b565b611e448760400151612b9b565b604051611e53939291906156a6565b60405180910390a4604080516060810182528251815260208084015190820152918101519082015260016000559392505050565b6001600160a01b03811660009081526002602052604081206006546105fc91907f0000000000000000000000000000000000000000000000000000000000000000907f000000000000000000000000000000000000000000000000000000000000000090610100900462ffffff16612be7565b611f02612135565b6001600160a01b0316611f136113f3565b6001600160a01b031614611f5c576040805162461bcd60e51b81526020600482018190526024820152600080516020615b33833981519152604482015290519081900360640190fd5b6001600160a01b038116611fa15760405162461bcd60e51b8152600401808060200182810382526026815260200180615a1c6026913960400191505060405180910390fd5b6001546040516001600160a01b038084169216907f8be0079c531659141344cd1fd0a4f28419497f9722a3daafe3b4186f6b6457e090600090a3600180546001600160a01b0319166001600160a01b0392909216919091179055565b60065460ff1681565b61200e612135565b6001600160a01b031661201f6113f3565b6001600160a01b031614612068576040805162461bcd60e51b81526020600482018190526024820152600080516020615b33833981519152604482015290519081900360640190fd5b600260005414156120ae576040805162461bcd60e51b815260206004820152601f60248201526000805160206159fc833981519152604482015290519081900360640190fd5b60026000558060056120c08282615978565b5050600160005550565b3b151590565b600283015460038401805460009290835b818110156121295761211f61211889898785815481106120fd57fe5b6000918252602090912001546001600160a01b03168a6126f6565b8490612c30565b92506001016120e1565b50909695505050505050565b3390565b61214161537a565b8160a001518042111561216f5760405162461bcd60e51b8152600401612166906157ad565b60405180910390fd5b8260e0015161219b57612191848460c0015185602001518661010001516127f4565b1561219b57600080fd5b60006122006040518060a001604052808660c001516001600160a01b0316815260200186600001516001600160a01b0316815260200186602001516001600160a01b03168152602001306001600160a01b031681526020018660400151815250612c95565b805184526020908101518185015284516001600160a01b0316600090815260018701909152604080822090860151919250829161223d9190612cdf565b91509150612255868660000151876101200151612d65565b61226c8560c0015186600001518760200151612ef0565b60a08501528451604051638195510560e01b815261230e916122fd916001600160a01b03909116906381955105906122a890879060040161568f565b60206040518083038186803b1580156122c057600080fd5b505afa1580156122d4573d6000803e3d6000fd5b505050506040513d601f19601f820116820180604052508101906122f8919061557c565b612b9b565b855161230890612b9b565b90612f1d565b604085015261232c61231f82612b9b565b6123088660200151612b9b565b6060850152505060a08201516000906123589061234890612b9b565b604085015190600160601b612f82565b600003905061238e858560000151856040015184612383868960600151612f1d90919063ffffffff16565b89610120015161301a565b608084015250909392505050565b60006123a782612b9b565b60000392915050565b6123cb6123c08260400151612b9b565b600284015490612f1d565b60028301556080810151602082015160a08301516123ec9285929091612be7565b6123f557600080fd5b61240c81600001518260600151836040015161316b565b5050565b600383018054600091908290815b8181101561212957600061245c6124578a8a88868154811061243c57fe5b6000918252602090912001546001600160a01b03168b6126f6565b6131bd565b905061246884826131e6565b93505060010161241e565b600383018054600091908290815b818110156121295760006124b7898987858154811061249c57fe5b6000918252602090912001546001600160a01b03168a6127c5565b90506124c384826131e6565b935050600101612481565b6124d66153b0565b8160800151804211156124fb5760405162461bcd60e51b8152600401612166906157ad565b612513878460a0015185602001518660e001516127f4565b1561251d57600080fd5b82516001600160a01b0316600090815260208890526040812080548212612545576000612548565b60015b915084600001516001600160a01b0316638195510561256a83600001546131bd565b6040518263ffffffff1660e01b8152600401612586919061568f565b60206040518083038186803b15801561259e57600080fd5b505afa1580156125b2573d6000803e3d6000fd5b505050506040513d601f19601f820116820180604052508101906125d6919061557c565b856040015111156125e657600080fd5b5060008060006126128b8a8960a001518a600001518b60200151898a8e604001518f6101200151613240565b92509250925060006126318860a0015189600001518a60200151613334565b90506126428a8960c0015183613349565b61264b57600080fd5b6126708c6002018c6002018b8b60e001518c610100015161266b896131bd565b61335e565b5060408051608081018252948552602085019390935291830152606082015298975050505050505050565b6001600160a01b038216600090815260018501602052604081206002810154829081906126cd908890889088906133d8565b915091506126ea826126e46124578b8b8b8b612739565b906131e6565b98975050505050505050565b60008061270586868686612739565b90506000612714868686612ef0565b905061272e61272282612b9b565b8390600160601b612f82565b979650505050505050565b6001600160a01b03821660009081526001850160205260408120805482906127839061276490612b9b565b6001600160a01b038716600090815260208a9052604090205490612f1d565b905060008061279888888887600201546133d8565b915091506127b86127a883612b9b565b6127b289866135be565b90612c30565b9998505050505050505050565b6000806127d48686868661269b565b905060006127e3868686612ef0565b905061272e8282600160601b61365a565b6000806128028686866120d0565b90506000612811878787612410565b90506128206122f88286613708565b909112159695505050505050565b61284581600001518260400151836020015161371d565b6128606128558260200151612b9b565b600284015490612c30565b60029092019190915550565b6128746153b0565b8160c00151804211156128995760405162461bcd60e51b8152600401612166906157ad565b6128b2858460e0015185602001518661014001516127f4565b156128bc57600080fd5b60008060006128ef88888860e0015189600001518a602001518b604001518c606001518d608001518e6101800151613240565b92509250925085610120015161293957600061290a84613854565b87516001600160a01b0316600090815260208b9052604090205461292d90613854565b02131561293957600080fd5b60006129528760e0015188600001518960200151613334565b9050612964888861010001518361387c565b61296d57600080fd5b612986898860e0015189602001518a6101600151612be7565b61298f57600080fd5b60408051608081018252948552602085019390935291830152606082015291505b509392505050565b6129c0615359565b8160c00151804211156129e55760405162461bcd60e51b8152600401612166906157ad565b8261010001516129f457600080fd5b6000612a636040518060c001604052808660e001516001600160a01b0316815260200186600001516001600160a01b0316815260200186602001516001600160a01b031681526020018660400151815260200186606001518152602001306001600160a01b031681525061388e565b84516001600160a01b03908116600090815260018801602052604090819020875184519251631363bdd360e01b81529495509093612b0b939190911691631363bdd391612ab3919060040161568f565b60206040518083038186803b158015612acb57600080fd5b505afa158015612adf573d6000803e3d6000fd5b505050506040513d601f19601f82011682018060405250810190612b03919061557c565b8254906131e6565b815560208201516001820154612b20916131e6565b600182015560408201516002820154612b38916131e6565b60028201558451610140860151612b50918891612d65565b612b69868660e001518760200151886101200151612be7565b612b7257600080fd5b506040805160608101825282518152602080840151908201529181015190820152949350505050565b60006001600160ff1b03821115612be35760405162461bcd60e51b8152600401808060200182810382526028815260200180615b986028913960400191505060405180910390fd5b5090565b600080612bf58686866120d0565b90506000612c04878787612473565b9050612c136122f88286613708565b6002880154612c239084906138e7565b1215979650505050505050565b6000828201818312801590612c455750838112155b80612c5a5750600083128015612c5a57508381125b6112c95760405162461bcd60e51b8152600401808060200182810382526021815260200180615a9f6021913960400191505060405180910390fd5b612c9d61533f565b600080612cc584600001518560200151866040015187608001516001808a60600151426138fd565b604080518082019091529182526020820152949350505050565b6000808215612d5e57835415612d1457612d02846000015484866002015461365a565b8454909250612d119083613ac1565b84555b600184015415612d4957612d31846001015484866002015461365a565b6001850154909150612d439082613ac1565b60018501555b6002840154612d589084613ac1565b60028501555b9250929050565b6001600160a01b038216612d7857600080fd5b6001600160a01b038216600090815260208490526040812054151580612dba57506001600160a01b038316600090815260018501602052604090206002015415155b6003850180549192509060005b81811015612eaa57856001600160a01b0316838281548110612de557fe5b6000918252602090912001546001600160a01b03161415612ea25783612e9957826001830381548110612e1457fe5b9060005260206000200160009054906101000a90046001600160a01b0316838281548110612e3e57fe5b9060005260206000200160006101000a8154816001600160a01b0302191690836001600160a01b0316021790555082805480612e7657fe5b600082815260209020810160001990810180546001600160a01b03191690550190555b50505050612eeb565b600101612dc7565b5081546001810183556000838152602090200180546001600160a01b0319166001600160a01b038716179055815460ff85161015612ee757600080fd5b5050505b505050565b6000806000612f00868686613b1e565b91509150612f1381600160601b84613be5565b9695505050505050565b6000818303818312801590612f325750838113155b80612f475750600083128015612f4757508381135b6112c95760405162461bcd60e51b8152600401808060200182810382526024815260200180615bc06024913960400191505060405180910390fd5b60008060008512612f935784612f9c565b612f9c85613c94565b90506000808512612fad5784612fb6565b612fb685613c94565b905060008087128015612fc95750600086135b80612fdf5750600087138015612fdf5750600086125b612fea576000612fed565b60015b90506000612ffc848488613be5565b9050816130115761300c81612b9b565b6126ea565b6126ea8161239c565b600061302584613854565b61302e86613854565b026000191461303c57600080fd5b60006130488787613cc0565b6001600160a01b038816600090815260208a90526040812091925061306c83613854565b825461307790613854565b02600019141561311b57670de0b6b3a764000060006130ab613098866131bd565b836130a687600001546131bd565b61365a565b90508181116130e65760006130ce6130c283612b9b565b60018701549085612f82565b90506130de896127b28c84612c30565b935050613114565b60006130f38a8484612f82565b9050613110896127b2838860010154612c3090919063ffffffff16565b9350505b505061311e565b50845b815461312a9084612c30565b825560018201546131479082906123089089906127b2908c612c30565b600183015560028a015461315b9082612c30565b60028b01556127b88a8a87612d65565b604080516001600160a01b038416602482015260448082018490528251808303909101815260649091019091526020810180516001600160e01b031663a9059cbb60e01b179052612eeb908490613cdb565b6000808212156131dd576131d86131d383613c94565b613d8c565b6105fc565b6105fc82613d8c565b6000828201838110156112c9576040805162461bcd60e51b815260206004820152601b60248201527f536166654d6174683a206164646974696f6e206f766572666c6f770000000000604482015290519081900360640190fd5b6000806000806132518b8b8b613334565b905061325d8c82613de3565b5060008060006132c66040518060e001604052808f6001600160a01b031681526020018e6001600160a01b031681526020018d6001600160a01b03168152602001306001600160a01b031681526020018c151581526020018b151581526020018a815250613dfa565b905089156132ef5780516132d99061239c565b92506132e88160200151612b9b565b915061330c565b80516132fa90612b9b565b9250613309816020015161239c565b91505b50600061331e8f8d858560008c61301a565b929f919e50919c509a5050505050505050505050565b6000613341848484612ef0565b949350505050565b60006133418460000154838560200151613fcf565b60008061336b8386613708565b905060006133798286613708565b905060006133878383613ac1565b905061339d61339584612b9b565b8b5490612f1d565b8a556133b36133ab83612b9b565b8a5490612c30565b89556133c96133c182612b9b565b895490612c30565b90975550979650505050505050565b6000806000806133e9888888613b1e565b9150915081600014806133fa575080155b1561340d576000809350935050506135b5565b600061341a898989614012565b90506000806001600160a01b03168a6001600160a01b031663017e7e586040518163ffffffff1660e01b815260040160206040518083038186803b15801561346157600080fd5b505afa158015613475573d6000803e3d6000fd5b505050506040513d601f19601f82011682018060405250810190613499919061541c565b6001600160a01b0316141590506000816134b4576000613525565b826001600160a01b0316637464fc3d6040518163ffffffff1660e01b815260040160206040518083038186803b1580156134ed57600080fd5b505afa158015613501573d6000803e3d6000fd5b505050506040513d601f19601f82011682018060405250810190613525919061557c565b90506000836001600160a01b03166318160ddd6040518163ffffffff1660e01b815260040160206040518083038186803b15801561356257600080fd5b505afa158015613576573d6000803e3d6000fd5b505050506040513d601f19601f8201168201806040525081019061359a919061557c565b90506135aa8686838c87876140d2565b975097505050505050505b94509492505050565b600080836001600160a01b031663819551056135d9856131bd565b6040518263ffffffff1660e01b81526004018082815260200191505060206040518083038186803b15801561360d57600080fd5b505afa158015613621573d6000803e3d6000fd5b505050506040513d602081101561363757600080fd5b50519050600083126136515761364c81612b9b565b613341565b6133418161239c565b60008060006136698686614192565b915091506000848061367757fe5b86880990508281111561368b576001820391505b9182900391816136a95784838161369e57fe5b0493505050506112c9565b8482106136fd576040805162461bcd60e51b815260206004820152601a60248201527f46756c6c4d6174683a2046554c4c4449565f4f564552464c4f57000000000000604482015290519081900360640190fd5b61272e8383876141bf565b60006112c9838362ffffff16620f4240613be5565b6040516370a0823160e01b81526000906001600160a01b038516906370a082319061374c9030906004016155f1565b60206040518083038186803b15801561376457600080fd5b505afa158015613778573d6000803e3d6000fd5b505050506040513d601f19601f8201168201806040525081019061379c919061557c565b90506137aa8484308561422f565b8161383182866001600160a01b03166370a08231306040518263ffffffff1660e01b81526004016137db91906155f1565b60206040518083038186803b1580156137f357600080fd5b505afa158015613807573d6000803e3d6000fd5b505050506040513d601f19601f8201168201806040525081019061382b919061557c565b90613ac1565b1461384e5760405162461bcd60e51b8152600401612166906156df565b50505050565b6000808213613874576000821261386c5760006131d8565b6000196105fc565b506001919050565b82548251600091613341918490613fcf565b613896615359565b60008060006138c5856000015186602001518760400151886060015189608001516001808c60a0015142614289565b6040805160608101825293845260208401929092529082015295945050505050565b60008183126138f657816112c9565b5090919050565b60008082428110156139215760405162461bcd60e51b8152600401612166906156fe565b600061392e8c8c8c614012565b6040516323b872dd60e01b81529091506001600160a01b038216906323b872dd9061396190899085908e9060040161561f565b602060405180830381600087803b15801561397b57600080fd5b505af115801561398f573d6000803e3d6000fd5b505050506040513d601f19601f820116820180604052508101906139b391906154b9565b50600080826001600160a01b03166389afcb44896040518263ffffffff1660e01b81526004016139e391906155f1565b6040805180830381600087803b1580156139fc57600080fd5b505af1158015613a10573d6000803e3d6000fd5b505050506040513d601f19601f82011682018060405250810190613a349190615594565b915091506000613a448e8e61437b565b509050806001600160a01b03168e6001600160a01b031614613a67578183613a6a565b82825b90975095508a871015613a8f5760405162461bcd60e51b815260040161216690615813565b89861015613aaf5760405162461bcd60e51b815260040161216690615730565b50505050509850989650505050505050565b600082821115613b18576040805162461bcd60e51b815260206004820152601e60248201527f536166654d6174683a207375627472616374696f6e206f766572666c6f770000604482015290519081900360640190fd5b50900390565b6000806000613b2d858561437b565b509050600080613b3e888888614012565b6001600160a01b0316630902f1ac6040518163ffffffff1660e01b815260040160606040518083038186803b158015613b7657600080fd5b505afa158015613b8a573d6000803e3d6000fd5b505050506040513d6060811015613ba057600080fd5b5080516020909101516001600160701b0391821693501690506001600160a01b0387811690841614613bd3578082613bd6565b81815b90999098509650505050505050565b6000808060001985870986860292508281109083900303905080613c1b5760008411613c1057600080fd5b5082900490506112c9565b808411613c2757600080fd5b6000848688096000868103871696879004966002600389028118808a02820302808a02820302808a02820302808a02820302808a02820302808a02909103029181900381900460010186841190950394909402919094039290920491909117919091029150509392505050565b6000600160ff1b8213613cb95760405162461bcd60e51b815260040161216690615776565b5060000390565b600080836001600160a01b0316631363bdd36135d9856131bd565b6000613d30826040518060400160405280602081526020017f5361666545524332303a206c6f772d6c6576656c2063616c6c206661696c6564815250856001600160a01b03166144529092919063ffffffff16565b805190915015612eeb57808060200190516020811015613d4f57600080fd5b5051612eeb5760405162461bcd60e51b815260040180806020018281038252602a815260200180615be4602a913960400191505060405180910390fd5b600080821215612be3576040805162461bcd60e51b815260206004820181905260248201527f53616665436173743a2076616c7565206d75737420626520706f736974697665604482015290519081900360640190fd5b428260010154101561240c57815542600190910155565b613e0261533f565b604080516002808252606082018352600092839291906020830190803683370190505090506060846080015115613e9c57846020015182600081518110613e4557fe5b60200260200101906001600160a01b031690816001600160a01b031681525050846040015182600181518110613e7757fe5b60200260200101906001600160a01b031690816001600160a01b031681525050613f01565b846040015182600081518110613eae57fe5b60200260200101906001600160a01b031690816001600160a01b031681525050846020015182600181518110613ee057fe5b60200260200101906001600160a01b031690816001600160a01b0316815250505b8460a0015115613f2d57613f2685600001518660c00151600185896060015142614461565b9050613f4c565b613f4985600001518660c0015160001985896060015142614545565b90505b846080015115613f9d57604051806040016040528082600081518110613f6e57fe5b6020026020010151815260200182600181518110613f8857fe5b602002602001015181525093505050506105ff565b604051806040016040528082600181518110613fb557fe5b6020026020010151815260200182600081518110613f8857fe5b600080613fdc8584613708565b90506000613fea86836131e6565b90506000613ff88784613ac1565b905085811115801561272e57505090931115949350505050565b6000806000614021858561437b565b604080516bffffffffffffffffffffffff19606094851b811660208084019190915293851b81166034830152825160288184030181526048830184528051908501206001600160f81b031960688401529a90941b9093166069840152607d8301989098527f2e0018e0e4c091ec924c34a4bd44e84e31e4382cb803fe09673ed92d9bb530ea609d808401919091528851808403909101815260bd909201909752805196019590952095945050505050565b6000808380156140e25750600083115b1561415d5760006140fb6140f68a8a6145a9565b61460c565b905060006141088561460c565b90508082111561415a5787600061411f848461474c565b90506000614138846141328760056145a9565b9061479c565b9050600061414784848461365a565b90506141538c8261479c565b9b50505050505b50505b8561416889876145a9565b8161416f57fe5b048661417b89886145a9565b8161418257fe5b0491509150965096945050505050565b60008080600019848609905083850292508281039150828110156141b7576001820391505b509250929050565b600081810382168083816141cf57fe5b0492508085816141db57fe5b0494508081600003816141ea57fe5b60028581038087028203028087028203028087028203028087028203028087028203028087028203029586029003909402930460010193909302939093010292915050565b604080516001600160a01b0380861660248301528416604482015260648082018490528251808303909101815260849091019091526020810180516001600160e01b03166323b872dd60e01b17905261384e908590613cdb565b600080600083428110156142af5760405162461bcd60e51b8152600401612166906156fe565b6142be8d8d8d8d8d8d8d6147eb565b909450925060006142d08e8e8e614012565b90506142de8d8883886149c1565b6142ea8c8883876149c1565b6040516335313c2160e11b81526001600160a01b03821690636a62784290614316908a906004016155f1565b602060405180830381600087803b15801561433057600080fd5b505af1158015614344573d6000803e3d6000fd5b505050506040513d601f19601f82011682018060405250810190614368919061557c565b9250505099509950999650505050505050565b600080826001600160a01b0316846001600160a01b031614156143cf5760405162461bcd60e51b8152600401808060200182810382526025815260200180615ac06025913960400191505060405180910390fd5b826001600160a01b0316846001600160a01b0316106143ef5782846143f2565b83835b90925090506001600160a01b038216612d5e576040805162461bcd60e51b815260206004820152601e60248201527f556e697377617056324c6962726172793a205a45524f5f414444524553530000604482015290519081900360640190fd5b60606133418484600085614b15565b606081428110156144845760405162461bcd60e51b8152600401612166906156fe565b61448f888887614c65565b915085826001845103815181106144a257fe5b602002602001015110156144c85760405162461bcd60e51b815260040161216690615859565b61452e856000815181106144d857fe5b6020026020010151856145148b896000815181106144f257fe5b60200260200101518a60018151811061450757fe5b6020026020010151614012565b8560008151811061452157fe5b60200260200101516149c1565b61453a88838787614da9565b509695505050505050565b606081428110156145685760405162461bcd60e51b8152600401612166906156fe565b614573888887614f1d565b9150858260008151811061458357fe5b602002602001015111156144c85760405162461bcd60e51b8152600401612166906157cc565b60008115806145c4575050808202828282816145c157fe5b04145b610aa9576040805162461bcd60e51b815260206004820152601460248201527364732d6d6174682d6d756c2d6f766572666c6f7760601b604482015290519081900360640190fd5b60008161461b575060006105ff565b816001600160801b82106146345760809190911c9060401b5b600160401b821061464a5760409190911c9060201b5b600160201b82106146605760209190911c9060101b5b6201000082106146755760109190911c9060081b5b61010082106146895760089190911c9060041b5b6010821061469c5760049190911c9060021b5b600882106146a85760011b5b60018185816146b357fe5b048201901c905060018185816146c557fe5b048201901c905060018185816146d757fe5b048201901c905060018185816146e957fe5b048201901c905060018185816146fb57fe5b048201901c9050600181858161470d57fe5b048201901c9050600181858161471f57fe5b048201901c9050600081858161473157fe5b0490508082106147415780614743565b815b95945050505050565b80820382811115610aa9576040805162461bcd60e51b815260206004820152601560248201527464732d6d6174682d7375622d756e646572666c6f7760581b604482015290519081900360640190fd5b80820182811015610aa9576040805162461bcd60e51b815260206004820152601460248201527364732d6d6174682d6164642d6f766572666c6f7760601b604482015290519081900360640190fd5b60405163e6a4390560e01b8152600090819081906001600160a01b038b169063e6a4390590614820908c908c90600401615605565b60206040518083038186803b15801561483857600080fd5b505afa15801561484c573d6000803e3d6000fd5b505050506040513d601f19601f82011682018060405250810190614870919061541c565b6001600160a01b03161415614901576040516364e329cb60e11b81526001600160a01b038a169063c9c65396906148ad908b908b90600401615605565b602060405180830381600087803b1580156148c757600080fd5b505af11580156148db573d6000803e3d6000fd5b505050506040513d601f19601f820116820180604052508101906148ff919061541c565b505b60008061490f8b8b8b613b1e565b91509150816000148015614921575080155b15614931578793508692506149b3565b600061493e898484615055565b905087811161497257858110156149675760405162461bcd60e51b815260040161216690615730565b8894509250826149b1565b600061497f898486615055565b90508981111561498b57fe5b878110156149ab5760405162461bcd60e51b815260040161216690615813565b94508793505b505b505097509795505050505050565b604080516001600160a01b0385811660248301528481166044830152606480830185905283518084039091018152608490920183526020820180516001600160e01b03166323b872dd60e01b178152925182516000948594938a169392918291908083835b60208310614a455780518252601f199092019160209182019101614a26565b6001836020036101000a0380198251168184511680821785525050505050509050019150506000604051808303816000865af19150503d8060008114614aa7576040519150601f19603f3d011682016040523d82523d6000602084013e614aac565b606091505b5091509150818015614ada575080511580614ada5750808060200190516020811015614ad757600080fd5b50515b612ee75760405162461bcd60e51b8152600401808060200182810382526031815260200180615a6e6031913960400191505060405180910390fd5b606082471015614b565760405162461bcd60e51b8152600401808060200182810382526026815260200180615ae56026913960400191505060405180910390fd5b614b5f856120ca565b614bb0576040805162461bcd60e51b815260206004820152601d60248201527f416464726573733a2063616c6c20746f206e6f6e2d636f6e7472616374000000604482015290519081900360640190fd5b600080866001600160a01b031685876040518082805190602001908083835b60208310614bee5780518252601f199092019160209182019101614bcf565b6001836020036101000a03801982511681845116808217855250505050505090500191505060006040518083038185875af1925050503d8060008114614c50576040519150601f19603f3d011682016040523d82523d6000602084013e614c55565b606091505b509150915061272e8282866150fb565b6060600282511015614cbe576040805162461bcd60e51b815260206004820152601e60248201527f556e697377617056324c6962726172793a20494e56414c49445f504154480000604482015290519081900360640190fd5b815167ffffffffffffffff81118015614cd657600080fd5b50604051908082528060200260200182016040528015614d00578160200160208202803683370190505b5090508281600081518110614d1157fe5b60200260200101818152505060005b60018351038110156129b057600080614d6387868581518110614d3f57fe5b6020026020010151878660010181518110614d5657fe5b6020026020010151613b1e565b91509150614d85848481518110614d7657fe5b6020026020010151838361519f565b848460010181518110614d9457fe5b60209081029190910101525050600101614d20565b60005b6001835103811015614f1657600080848381518110614dc757fe5b6020026020010151858460010181518110614dde57fe5b6020026020010151915091506000614df6838361437b565b5090506000878560010181518110614e0a57fe5b60200260200101519050600080836001600160a01b0316866001600160a01b031614614e3857826000614e3c565b6000835b91509150600060028a51038810614e535788614e67565b614e678c878c8b6002018151811061450757fe5b9050614e748c8888614012565b6001600160a01b031663022c0d9f84848460006040519080825280601f01601f191660200182016040528015614eb1576020820181803683370190505b506040518563ffffffff1660e01b8152600401614ed194939291906158f9565b600060405180830381600087803b158015614eeb57600080fd5b505af1158015614eff573d6000803e3d6000fd5b505060019099019850614dac975050505050505050565b5050505050565b6060600282511015614f76576040805162461bcd60e51b815260206004820152601e60248201527f556e697377617056324c6962726172793a20494e56414c49445f504154480000604482015290519081900360640190fd5b815167ffffffffffffffff81118015614f8e57600080fd5b50604051908082528060200260200182016040528015614fb8578160200160208202803683370190505b5090508281600183510381518110614fcc57fe5b60209081029190910101528151600019015b80156129b05760008061500e87866001860381518110614ffa57fe5b6020026020010151878681518110614d5657fe5b9150915061503084848151811061502157fe5b60200260200101518383615271565b84600185038151811061503f57fe5b6020908102919091010152505060001901614fde565b60008084116150955760405162461bcd60e51b8152600401808060200182810382526025815260200180615b736025913960400191505060405180910390fd5b6000831180156150a55750600082115b6150e05760405162461bcd60e51b8152600401808060200182810382526028815260200180615b0b6028913960400191505060405180910390fd5b826150eb85846145a9565b816150f257fe5b04949350505050565b6060831561510a5750816112c9565b82511561511a5782518084602001fd5b8160405162461bcd60e51b81526004018080602001828103825283818151815260200191508051906020019080838360005b8381101561516457818101518382015260200161514c565b50505050905090810190601f1680156151915780820380516001836020036101000a031916815260200191505b509250505060405180910390fd5b60008084116151df5760405162461bcd60e51b815260040180806020018281038252602b815260200180615c0e602b913960400191505060405180910390fd5b6000831180156151ef5750600082115b61522a5760405162461bcd60e51b8152600401808060200182810382526028815260200180615b0b6028913960400191505060405180910390fd5b6000615238856103e56145a9565b9050600061524682856145a9565b9050600061525a83614132886103e86145a9565b905080828161526557fe5b04979650505050505050565b60008084116152b15760405162461bcd60e51b815260040180806020018281038252602c815260200180615a42602c913960400191505060405180910390fd5b6000831180156152c15750600082115b6152fc5760405162461bcd60e51b8152600401808060200182810382526028815260200180615b0b6028913960400191505060405180910390fd5b60006153146103e861530e86886145a9565b906145a9565b905060006153286103e561530e868961474c565b9050612f13600182848161533857fe5b049061479c565b604051806040016040528060008152602001600081525090565b60405180606001604052806000815260200160008152602001600081525090565b6040518060c001604052806000815260200160008152602001600081526020016000815260200160008152602001600081525090565b6040518060800160405280600081526020016000815260200160008152602001600081525090565b600060c082840312156153e9578081fd5b50919050565b600060a082840312156153e9578081fd5b600060208284031215615411578081fd5b81356112c9816159c4565b60006020828403121561542d578081fd5b81516112c9816159c4565b6000806040838503121561544a578081fd5b8235615455816159c4565b91506020830135615465816159c4565b809150509250929050565b60008060408385031215615482578182fd5b823561548d816159c4565b91506020830135615465816159dc565b6000602082840312156154ae578081fd5b81356112c9816159dc565b6000602082840312156154ca578081fd5b81516112c9816159dc565b600060c082840312156154e6578081fd5b6112c983836153d8565b600060a08284031215615501578081fd5b6112c983836153ef565b6000604082840312156153e9578081fd5b60008060c0838503121561552e578182fd5b61553884846153ef565b915060a0830135615465816159c4565b600060208284031215615559578081fd5b81356112c9816159ea565b600060208284031215615575578081fd5b5035919050565b60006020828403121561558d578081fd5b5051919050565b600080604083850312156155a6578182fd5b505080516020909101519092909150565b6000602082840312156155c8578081fd5b813560ff811681146112c9578182fd5b8051825260208082015190830152604090810151910152565b6001600160a01b0391909116815260200190565b6001600160a01b0392831681529116602082015260400190565b6001600160a01b039384168152919092166020820152604081019190915260600190565b6020808252825182820181905260009190848201906040850190845b818110156121295783516001600160a01b03168352928401929184019160010161565f565b901515815260200190565b90815260200190565b918252602082015260400190565b9283526020830191909152604082015260600190565b948552602085019390935260408401919091526060830152608082015260a00190565b602080825260059082015264565f49424160d81b604082015260600190565b602080825260189082015277155b9a5cddd85c158c949bdd5d195c8e881156141254915160421b604082015260600190565b60208082526026908201527f556e69737761705632526f757465723a20494e53554646494349454e545f425f604082015265105353d5539560d21b606082015260800190565b6020808252601c908201527f506572704d6174683a20696e76657273696f6e206f766572666c6f7700000000604082015260600190565b60208082526005908201526443485f544560d81b604082015260600190565b60208082526027908201527f556e69737761705632526f757465723a204558434553534956455f494e50555460408201526617d05353d5539560ca1b606082015260800190565b60208082526026908201527f556e69737761705632526f757465723a20494e53554646494349454e545f415f604082015265105353d5539560d21b606082015260800190565b6020808252602b908201527f556e69737761705632526f757465723a20494e53554646494349454e545f4f5560408201526a1514155517d05353d5539560aa1b606082015260800190565b60608101610aa982846155d8565b815181526020918201519181019190915260400190565b9051815260200190565b62ffffff91909116815260200190565b62ffffff92831681529116602082015260400190565b60008582526020858184015260018060a01b0385166040840152608060608401528351806080850152825b818110156159405785810183015185820160a001528201615924565b81811115615951578360a083870101525b50601f01601f19169290920160a0019695505050505050565b60ff91909116815260200190565b8135615983816159ea565b815462ffffff191662ffffff919091161780825560208301356159a5816159ea565b65ffffff0000008160181b1665ffffff00000019831617835550505050565b6001600160a01b03811681146159d957600080fd5b50565b80151581146159d957600080fd5b62ffffff811681146159d957600080fdfe5265656e7472616e637947756172643a207265656e7472616e742063616c6c004f776e61626c653a206e6577206f776e657220697320746865207a65726f2061646472657373556e697377617056324c6962726172793a20494e53554646494349454e545f4f55545055545f414d4f554e545472616e7366657248656c7065723a3a7472616e7366657246726f6d3a207472616e7366657246726f6d206661696c65645369676e6564536166654d6174683a206164646974696f6e206f766572666c6f77556e697377617056324c6962726172793a204944454e544943414c5f414444524553534553416464726573733a20696e73756666696369656e742062616c616e636520666f722063616c6c556e697377617056324c6962726172793a20494e53554646494349454e545f4c49515549444954594f776e61626c653a2063616c6c6572206973206e6f7420746865206f776e6572adf7293c36a87213f46d9ad13f46093b4c6becaecc1a3c4b6be2aad2f60676cf556e697377617056324c6962726172793a20494e53554646494349454e545f414d4f554e5453616665436173743a2076616c756520646f65736e27742066697420696e20616e20696e743235365369676e6564536166654d6174683a207375627472616374696f6e206f766572666c6f775361666545524332303a204552433230206f7065726174696f6e20646964206e6f742073756363656564556e697377617056324c6962726172793a20494e53554646494349454e545f494e5055545f414d4f554e54a26469706673582212202e767a171a588b759d941521c3bdd2ab374a205109df9d2ee25f346a84ed866864736f6c6343000706003360806040523480156200001157600080fd5b5060405162000e2838038062000e28833981810160405260608110156200003757600080fd5b81019080805160405193929190846401000000008211156200005857600080fd5b9083019060208201858111156200006e57600080fd5b82516401000000008111828201881017156200008957600080fd5b82525081516020918201929091019080838360005b83811015620000b85781810151838201526020016200009e565b50505050905090810190601f168015620000e65780820380516001836020036101000a031916815260200191505b50604052602001805160405193929190846401000000008211156200010a57600080fd5b9083019060208201858111156200012057600080fd5b82516401000000008111828201881017156200013b57600080fd5b82525081516020918201929091019080838360005b838110156200016a57818101518382015260200162000150565b50505050905090810190601f168015620001985780820380516001836020036101000a031916815260200191505b5060405260209081015185519093508592508491849184918491620001c491600391908501906200037a565b508051620001da9060049060208401906200037a565b50506005805460ff1916601217905550620001f88160001962000204565b50505050505062000426565b6001600160a01b03821662000260576040805162461bcd60e51b815260206004820152601f60248201527f45524332303a206d696e7420746f20746865207a65726f206164647265737300604482015290519081900360640190fd5b6200026e6000838362000313565b6200028a816002546200031860201b620005731790919060201c565b6002556001600160a01b03821660009081526020818152604090912054620002bd9183906200057362000318821b17901c565b6001600160a01b0383166000818152602081815260408083209490945583518581529351929391927fddf252ad1be2c89b69c2b068fc378daa952ba7f163c4a11628f55a4df523b3ef9281900390910190a35050565b505050565b60008282018381101562000373576040805162461bcd60e51b815260206004820152601b60248201527f536166654d6174683a206164646974696f6e206f766572666c6f770000000000604482015290519081900360640190fd5b9392505050565b828054600181600116156101000203166002900490600052602060002090601f016020900481019282620003b25760008555620003fd565b82601f10620003cd57805160ff1916838001178555620003fd565b82800160010185558215620003fd579182015b82811115620003fd578251825591602001919060010190620003e0565b506200040b9291506200040f565b5090565b5b808211156200040b576000815560010162000410565b6109f280620004366000396000f3fe608060405234801561001057600080fd5b50600436106100a95760003560e01c8063395093511161007157806339509351146101d957806370a082311461020557806395d89b411461022b578063a457c2d714610233578063a9059cbb1461025f578063dd62ed3e1461028b576100a9565b806306fdde03146100ae578063095ea7b31461012b57806318160ddd1461016b57806323b872dd14610185578063313ce567146101bb575b600080fd5b6100b66102b9565b6040805160208082528351818301528351919283929083019185019080838360005b838110156100f05781810151838201526020016100d8565b50505050905090810190601f16801561011d5780820380516001836020036101000a031916815260200191505b509250505060405180910390f35b6101576004803603604081101561014157600080fd5b506001600160a01b03813516906020013561034f565b604080519115158252519081900360200190f35b61017361036c565b60408051918252519081900360200190f35b6101576004803603606081101561019b57600080fd5b506001600160a01b03813581169160208101359091169060400135610372565b6101c36103f9565b6040805160ff9092168252519081900360200190f35b610157600480360360408110156101ef57600080fd5b506001600160a01b038135169060200135610402565b6101736004803603602081101561021b57600080fd5b50356001600160a01b0316610450565b6100b661046b565b6101576004803603604081101561024957600080fd5b506001600160a01b0381351690602001356104cc565b6101576004803603604081101561027557600080fd5b506001600160a01b038135169060200135610534565b610173600480360360408110156102a157600080fd5b506001600160a01b0381358116916020013516610548565b60038054604080516020601f60026000196101006001881615020190951694909404938401819004810282018101909252828152606093909290918301828280156103455780601f1061031a57610100808354040283529160200191610345565b820191906000526020600020905b81548152906001019060200180831161032857829003601f168201915b5050505050905090565b600061036361035c6105d4565b84846105d8565b50600192915050565b60025490565b600061037f8484846106c4565b6103ef8461038b6105d4565b6103ea85604051806060016040528060288152602001610927602891396001600160a01b038a166000908152600160205260408120906103c96105d4565b6001600160a01b03168152602081019190915260400160002054919061081f565b6105d8565b5060019392505050565b60055460ff1690565b600061036361040f6105d4565b846103ea85600160006104206105d4565b6001600160a01b03908116825260208083019390935260409182016000908120918c168152925290205490610573565b6001600160a01b031660009081526020819052604090205490565b60048054604080516020601f60026000196101006001881615020190951694909404938401819004810282018101909252828152606093909290918301828280156103455780601f1061031a57610100808354040283529160200191610345565b60006103636104d96105d4565b846103ea8560405180606001604052806025815260200161099860259139600160006105036105d4565b6001600160a01b03908116825260208083019390935260409182016000908120918d1681529252902054919061081f565b60006103636105416105d4565b84846106c4565b6001600160a01b03918216600090815260016020908152604080832093909416825291909152205490565b6000828201838110156105cd576040805162461bcd60e51b815260206004820152601b60248201527f536166654d6174683a206164646974696f6e206f766572666c6f770000000000604482015290519081900360640190fd5b9392505050565b3390565b6001600160a01b03831661061d5760405162461bcd60e51b81526004018080602001828103825260248152602001806109746024913960400191505060405180910390fd5b6001600160a01b0382166106625760405162461bcd60e51b81526004018080602001828103825260228152602001806108df6022913960400191505060405180910390fd5b6001600160a01b03808416600081815260016020908152604080832094871680845294825291829020859055815185815291517f8c5be1e5ebec7d5bd14f71427d1e84f3dd0314c0f7b2291e5b200ac8c7c3b9259281900390910190a3505050565b6001600160a01b0383166107095760405162461bcd60e51b815260040180806020018281038252602581526020018061094f6025913960400191505060405180910390fd5b6001600160a01b03821661074e5760405162461bcd60e51b81526004018080602001828103825260238152602001806108bc6023913960400191505060405180910390fd5b6107598383836108b6565b61079681604051806060016040528060268152602001610901602691396001600160a01b038616600090815260208190526040902054919061081f565b6001600160a01b0380851660009081526020819052604080822093909355908416815220546107c59082610573565b6001600160a01b038084166000818152602081815260409182902094909455805185815290519193928716927fddf252ad1be2c89b69c2b068fc378daa952ba7f163c4a11628f55a4df523b3ef92918290030190a3505050565b600081848411156108ae5760405162461bcd60e51b81526004018080602001828103825283818151815260200191508051906020019080838360005b8381101561087357818101518382015260200161085b565b50505050905090810190601f1680156108a05780820380516001836020036101000a031916815260200191505b509250505060405180910390fd5b505050900390565b50505056fe45524332303a207472616e7366657220746f20746865207a65726f206164647265737345524332303a20617070726f766520746f20746865207a65726f206164647265737345524332303a207472616e7366657220616d6f756e7420657863656564732062616c616e636545524332303a207472616e7366657220616d6f756e74206578636565647320616c6c6f77616e636545524332303a207472616e736665722066726f6d20746865207a65726f206164647265737345524332303a20617070726f76652066726f6d20746865207a65726f206164647265737345524332303a2064656372656173656420616c6c6f77616e63652062656c6f77207a65726fa2646970667358221220a9ebcc8c7bda71045d826ec22bef1fc4f621799d49b9b5736e91e92280a2529764736f6c63430007060033",
  "devdoc": {
    "kind": "dev",
    "methods": {
      "addLiquidity((address,uint256,uint256,uint256,uint256,uint256))": {
        "details": "Tx will fail if adding `base == 0 && quote == 0` / `liquidity == 0`- `AddLiquidityParams.useTakerBalance` is only accept `false` now",
        "params": {
          "params": "AddLiquidityParams struct"
        },
        "returns": {
          "_0": "response AddLiquidityResponse struct"
        }
      },
      "liquidate((address,address,uint256,uint256,uint256))": {
        "details": "If trader has open orders, need to call `cancelAllExcessOrders` first",
        "returns": {
          "base": "The amount of baseToken the taker got or spent",
          "quote": "The amount of quoteToken the taker got or spent"
        }
      },
      "openPosition((address,bool,bool,uint256,uint256,uint256))": {
        "details": "- `OpenPositionParams.oppositeAmountBound`     - B2Q + exact input, want more output quote as possible, so we set a lower bound of output quote     - B2Q + exact output, want less input base as possible, so we set a upper bound of input base     - Q2B + exact input, want more output base as possible, so we set a lower bound of output base     - Q2B + exact output, want less input quote as possible, so we set a upper bound of input quote     > when it's set to 0, it will disable slippage protection entirely regardless of exact input or output     > when it's over or under the bound, it will be reverted- `OpenPositionParams.sqrtPriceLimitX96`     - B2Q: the price cannot be less than this value after the swap     - Q2B: the price cannot be greater than this value after the swap     > it will fill the trade until it reaches the price limit but WON'T REVERT     > when it's set to 0, it will disable price limit;     > when it's 0 and exact output, the output amount is required to be identical to the param amount",
        "params": {
          "params": "OpenPositionParams struct"
        },
        "returns": {
          "base": "The amount of baseToken the taker got or spent",
          "quote": "The amount of quoteToken the taker got or spent"
        }
      },
      "owner()": {
        "details": "Returns the address of the current owner."
      },
      "removeLiquidity((address,uint256,uint256,uint256,uint256))": {
        "details": "remove liquidity will transfer maker impermanent position to taker position, if `liquidity` of RemoveLiquidityParams struct is zero, the action will collect fee from pool to maker",
        "params": {
          "params": "RemoveLiquidityParams struct"
        },
        "returns": {
          "_0": "RemoveLiquidityResponse struct"
        }
      },
      "renounceOwnership()": {
        "details": "Leaves the contract without owner. It will not be possible to call `onlyOwner` functions anymore. Can only be called by the current owner. NOTE: Renouncing ownership will leave the contract without an owner, thereby removing any functionality that is only available to the owner."
      },
      "transferOwnership(address)": {
        "details": "Transfers ownership of the contract to a new account (`newOwner`). Can only be called by the current owner."
      }
    },
    "version": 1
  },
  "userdoc": {
    "events": {
      "LiquidityChanged(address,address,address,int256,int256,int256)": {
        "notice": "Emitted when maker's liquidity of a order changed"
      },
      "PositionChanged(address,address,int256,int256,int256,int256,uint256)": {
        "notice": "Emitted when taker's position is being changed"
      },
      "PositionLiquidated(address,address,uint256,uint256,uint256,address)": {
        "notice": "Emitted when taker position is being liquidated"
      }
    },
    "kind": "user",
    "methods": {
      "addLiquidity((address,uint256,uint256,uint256,uint256,uint256))": {
        "notice": "Maker can call `addLiquidity` to provide liquidity on Uniswap V3 pool"
      },
      "liquidate((address,address,uint256,uint256,uint256))": {
        "notice": "If trader is underwater, any one can call `liquidate` to liquidate this trader"
      },
      "openPosition((address,bool,bool,uint256,uint256,uint256))": {
        "notice": "Trader can call `openPosition` to long/short on baseToken market"
      },
      "removeLiquidity((address,uint256,uint256,uint256,uint256))": {
        "notice": "Maker can call `removeLiquidity` to remove liquidity"
      }
    },
    "version": 1
  },
  "storageLayout": {
    "storage": [
      {
        "astId": 4694,
        "contract": "contracts/ClearingHousePerpdexNew.sol:ClearingHousePerpdexNew",
        "label": "_status",
        "offset": 0,
        "slot": "0",
        "type": "t_uint256"
      },
      {
        "astId": 3147,
        "contract": "contracts/ClearingHousePerpdexNew.sol:ClearingHousePerpdexNew",
        "label": "_owner",
        "offset": 0,
        "slot": "1",
        "type": "t_address"
      },
      {
        "astId": 22867,
        "contract": "contracts/ClearingHousePerpdexNew.sol:ClearingHousePerpdexNew",
        "label": "accountInfos",
        "offset": 0,
        "slot": "2",
        "type": "t_mapping(t_address,t_struct(AccountInfo)48849_storage)"
      },
      {
        "astId": 22871,
        "contract": "contracts/ClearingHousePerpdexNew.sol:ClearingHousePerpdexNew",
        "label": "priceLimitInfos",
        "offset": 0,
        "slot": "3",
        "type": "t_mapping(t_address,t_struct(PriceLimitInfo)48857_storage)"
      },
      {
        "astId": 22873,
        "contract": "contracts/ClearingHousePerpdexNew.sol:ClearingHousePerpdexNew",
        "label": "insuranceFundInfo",
        "offset": 0,
        "slot": "4",
        "type": "t_struct(InsuranceFundInfo)48852_storage"
      },
      {
        "astId": 22881,
        "contract": "contracts/ClearingHousePerpdexNew.sol:ClearingHousePerpdexNew",
        "label": "priceLimitConfig",
        "offset": 0,
        "slot": "5",
        "type": "t_struct(PriceLimitConfig)48862_storage"
      },
      {
        "astId": 22883,
        "contract": "contracts/ClearingHousePerpdexNew.sol:ClearingHousePerpdexNew",
        "label": "maxMarketsPerAccount",
        "offset": 0,
        "slot": "6",
        "type": "t_uint8"
      },
      {
        "astId": 22885,
        "contract": "contracts/ClearingHousePerpdexNew.sol:ClearingHousePerpdexNew",
        "label": "imRatio",
        "offset": 1,
        "slot": "6",
        "type": "t_uint24"
      },
      {
        "astId": 22887,
        "contract": "contracts/ClearingHousePerpdexNew.sol:ClearingHousePerpdexNew",
        "label": "mmRatio",
        "offset": 4,
        "slot": "6",
        "type": "t_uint24"
      },
      {
        "astId": 22889,
        "contract": "contracts/ClearingHousePerpdexNew.sol:ClearingHousePerpdexNew",
        "label": "liquidationRewardRatio",
        "offset": 7,
        "slot": "6",
        "type": "t_uint24"
      },
      {
        "astId": 22891,
        "contract": "contracts/ClearingHousePerpdexNew.sol:ClearingHousePerpdexNew",
        "label": "maxFundingRateRatio",
        "offset": 10,
        "slot": "6",
        "type": "t_uint24"
      },
      {
        "astId": 22895,
        "contract": "contracts/ClearingHousePerpdexNew.sol:ClearingHousePerpdexNew",
        "label": "isBaseTokenAllowed",
        "offset": 0,
        "slot": "7",
        "type": "t_mapping(t_address,t_bool)"
      }
    ],
    "types": {
      "t_address": {
        "encoding": "inplace",
        "label": "address",
        "numberOfBytes": "20"
      },
      "t_array(t_address)dyn_storage": {
        "base": "t_address",
        "encoding": "dynamic_array",
        "label": "address[]",
        "numberOfBytes": "32"
      },
      "t_bool": {
        "encoding": "inplace",
        "label": "bool",
        "numberOfBytes": "1"
      },
      "t_int256": {
        "encoding": "inplace",
        "label": "int256",
        "numberOfBytes": "32"
      },
      "t_mapping(t_address,t_bool)": {
        "encoding": "mapping",
        "key": "t_address",
        "label": "mapping(address => bool)",
        "numberOfBytes": "32",
        "value": "t_bool"
      },
      "t_mapping(t_address,t_struct(AccountInfo)48849_storage)": {
        "encoding": "mapping",
        "key": "t_address",
        "label": "mapping(address => struct PerpdexStructs.AccountInfo)",
        "numberOfBytes": "32",
        "value": "t_struct(AccountInfo)48849_storage"
      },
      "t_mapping(t_address,t_struct(MakerInfo)48832_storage)": {
        "encoding": "mapping",
        "key": "t_address",
        "label": "mapping(address => struct PerpdexStructs.MakerInfo)",
        "numberOfBytes": "32",
        "value": "t_struct(MakerInfo)48832_storage"
      },
      "t_mapping(t_address,t_struct(PriceLimitInfo)48857_storage)": {
        "encoding": "mapping",
        "key": "t_address",
        "label": "mapping(address => struct PerpdexStructs.PriceLimitInfo)",
        "numberOfBytes": "32",
        "value": "t_struct(PriceLimitInfo)48857_storage"
      },
      "t_mapping(t_address,t_struct(TakerInfo)48825_storage)": {
        "encoding": "mapping",
        "key": "t_address",
        "label": "mapping(address => struct PerpdexStructs.TakerInfo)",
        "numberOfBytes": "32",
        "value": "t_struct(TakerInfo)48825_storage"
      },
      "t_struct(AccountInfo)48849_storage": {
        "encoding": "inplace",
        "label": "struct PerpdexStructs.AccountInfo",
        "members": [
          {
            "astId": 48839,
            "contract": "contracts/ClearingHousePerpdexNew.sol:ClearingHousePerpdexNew",
            "label": "takerInfo",
            "offset": 0,
            "slot": "0",
            "type": "t_mapping(t_address,t_struct(TakerInfo)48825_storage)"
          },
          {
            "astId": 48843,
            "contract": "contracts/ClearingHousePerpdexNew.sol:ClearingHousePerpdexNew",
            "label": "makerInfo",
            "offset": 0,
            "slot": "1",
            "type": "t_mapping(t_address,t_struct(MakerInfo)48832_storage)"
          },
          {
            "astId": 48845,
            "contract": "contracts/ClearingHousePerpdexNew.sol:ClearingHousePerpdexNew",
            "label": "vaultInfo",
            "offset": 0,
            "slot": "2",
            "type": "t_struct(VaultInfo)48835_storage"
          },
          {
            "astId": 48848,
            "contract": "contracts/ClearingHousePerpdexNew.sol:ClearingHousePerpdexNew",
            "label": "baseTokens",
            "offset": 0,
            "slot": "3",
            "type": "t_array(t_address)dyn_storage"
          }
        ],
        "numberOfBytes": "128"
      },
      "t_struct(InsuranceFundInfo)48852_storage": {
        "encoding": "inplace",
        "label": "struct PerpdexStructs.InsuranceFundInfo",
        "members": [
          {
            "astId": 48851,
            "contract": "contracts/ClearingHousePerpdexNew.sol:ClearingHousePerpdexNew",
            "label": "balance",
            "offset": 0,
            "slot": "0",
            "type": "t_int256"
          }
        ],
        "numberOfBytes": "32"
      },
      "t_struct(MakerInfo)48832_storage": {
        "encoding": "inplace",
        "label": "struct PerpdexStructs.MakerInfo",
        "members": [
          {
            "astId": 48827,
            "contract": "contracts/ClearingHousePerpdexNew.sol:ClearingHousePerpdexNew",
            "label": "baseDebtShare",
            "offset": 0,
            "slot": "0",
            "type": "t_uint256"
          },
          {
            "astId": 48829,
            "contract": "contracts/ClearingHousePerpdexNew.sol:ClearingHousePerpdexNew",
            "label": "quoteDebt",
            "offset": 0,
            "slot": "1",
            "type": "t_uint256"
          },
          {
            "astId": 48831,
            "contract": "contracts/ClearingHousePerpdexNew.sol:ClearingHousePerpdexNew",
            "label": "liquidity",
            "offset": 0,
            "slot": "2",
            "type": "t_uint256"
          }
        ],
        "numberOfBytes": "96"
      },
      "t_struct(PriceLimitConfig)48862_storage": {
        "encoding": "inplace",
        "label": "struct PerpdexStructs.PriceLimitConfig",
        "members": [
          {
            "astId": 48859,
            "contract": "contracts/ClearingHousePerpdexNew.sol:ClearingHousePerpdexNew",
            "label": "priceLimitNormalOrderRatio",
            "offset": 0,
            "slot": "0",
            "type": "t_uint24"
          },
          {
            "astId": 48861,
            "contract": "contracts/ClearingHousePerpdexNew.sol:ClearingHousePerpdexNew",
            "label": "priceLimitLiquidationRatio",
            "offset": 3,
            "slot": "0",
            "type": "t_uint24"
          }
        ],
        "numberOfBytes": "32"
      },
      "t_struct(PriceLimitInfo)48857_storage": {
        "encoding": "inplace",
        "label": "struct PerpdexStructs.PriceLimitInfo",
        "members": [
          {
            "astId": 48854,
            "contract": "contracts/ClearingHousePerpdexNew.sol:ClearingHousePerpdexNew",
            "label": "referencePrice",
            "offset": 0,
            "slot": "0",
            "type": "t_uint256"
          },
          {
            "astId": 48856,
            "contract": "contracts/ClearingHousePerpdexNew.sol:ClearingHousePerpdexNew",
            "label": "referenceTimestamp",
            "offset": 0,
            "slot": "1",
            "type": "t_uint256"
          }
        ],
        "numberOfBytes": "64"
      },
      "t_struct(TakerInfo)48825_storage": {
        "encoding": "inplace",
        "label": "struct PerpdexStructs.TakerInfo",
        "members": [
          {
            "astId": 48822,
            "contract": "contracts/ClearingHousePerpdexNew.sol:ClearingHousePerpdexNew",
            "label": "baseBalanceShare",
            "offset": 0,
            "slot": "0",
            "type": "t_int256"
          },
          {
            "astId": 48824,
            "contract": "contracts/ClearingHousePerpdexNew.sol:ClearingHousePerpdexNew",
            "label": "quoteBalance",
            "offset": 0,
            "slot": "1",
            "type": "t_int256"
          }
        ],
        "numberOfBytes": "64"
      },
      "t_struct(VaultInfo)48835_storage": {
        "encoding": "inplace",
        "label": "struct PerpdexStructs.VaultInfo",
        "members": [
          {
            "astId": 48834,
            "contract": "contracts/ClearingHousePerpdexNew.sol:ClearingHousePerpdexNew",
            "label": "collateralBalance",
            "offset": 0,
            "slot": "0",
            "type": "t_int256"
          }
        ],
        "numberOfBytes": "32"
      },
      "t_uint24": {
        "encoding": "inplace",
        "label": "uint24",
        "numberOfBytes": "3"
      },
      "t_uint256": {
        "encoding": "inplace",
        "label": "uint256",
        "numberOfBytes": "32"
      },
      "t_uint8": {
        "encoding": "inplace",
        "label": "uint8",
        "numberOfBytes": "1"
      }
    }
  }
}