{
  "address": "0x8Df4aC26b8174F531578474A3999194650e42D84",
  "abi": [
    {
      "inputs": [
        {
          "internalType": "string",
          "name": "symbolArg",
          "type": "string"
        },
        {
          "internalType": "address",
          "name": "exchangeArg",
          "type": "address"
        },
        {
          "internalType": "address",
          "name": "priceFeedBaseArg",
          "type": "address"
        },
        {
          "internalType": "address",
          "name": "priceFeedQuoteArg",
          "type": "address"
        }
      ],
      "stateMutability": "nonpayable",
      "type": "constructor"
    },
    {
      "anonymous": false,
      "inputs": [
        {
          "indexed": false,
          "internalType": "uint32",
          "name": "value",
          "type": "uint32"
        }
      ],
      "name": "FundingMaxElapsedSecChanged",
      "type": "event"
    },
    {
      "anonymous": false,
      "inputs": [
        {
          "indexed": false,
          "internalType": "uint24",
          "name": "value",
          "type": "uint24"
        }
      ],
      "name": "FundingMaxPremiumRatioChanged",
      "type": "event"
    },
    {
      "anonymous": false,
      "inputs": [
        {
          "indexed": false,
          "internalType": "int256",
          "name": "fundingRateX96",
          "type": "int256"
        },
        {
          "indexed": false,
          "internalType": "uint32",
          "name": "elapsedSec",
          "type": "uint32"
        },
        {
          "indexed": false,
          "internalType": "int256",
          "name": "premiumX96",
          "type": "int256"
        },
        {
          "indexed": false,
          "internalType": "uint256",
          "name": "markPriceX96",
          "type": "uint256"
        },
        {
          "indexed": false,
          "internalType": "uint256",
          "name": "cumBasePerLiquidityX96",
          "type": "uint256"
        },
        {
          "indexed": false,
          "internalType": "uint256",
          "name": "cumQuotePerLiquidityX96",
          "type": "uint256"
        }
      ],
      "name": "FundingPaid",
      "type": "event"
    },
    {
      "anonymous": false,
      "inputs": [
        {
          "indexed": false,
          "internalType": "uint32",
          "name": "value",
          "type": "uint32"
        }
      ],
      "name": "FundingRolloverSecChanged",
      "type": "event"
    },
    {
      "anonymous": false,
      "inputs": [
        {
          "indexed": false,
          "internalType": "uint256",
          "name": "base",
          "type": "uint256"
        },
        {
          "indexed": false,
          "internalType": "uint256",
          "name": "quote",
          "type": "uint256"
        },
        {
          "indexed": false,
          "internalType": "uint256",
          "name": "liquidity",
          "type": "uint256"
        }
      ],
      "name": "LiquidityAdded",
      "type": "event"
    },
    {
      "anonymous": false,
      "inputs": [
        {
          "indexed": false,
          "internalType": "uint256",
          "name": "base",
          "type": "uint256"
        },
        {
          "indexed": false,
          "internalType": "uint256",
          "name": "quote",
          "type": "uint256"
        },
        {
          "indexed": false,
          "internalType": "uint256",
          "name": "liquidity",
          "type": "uint256"
        }
      ],
      "name": "LiquidityRemoved",
      "type": "event"
    },
    {
      "anonymous": false,
      "inputs": [
        {
          "indexed": true,
          "internalType": "address",
          "name": "previousOwner",
          "type": "address"
        },
        {
          "indexed": true,
          "internalType": "address",
          "name": "newOwner",
          "type": "address"
        }
      ],
      "name": "OwnershipTransferred",
      "type": "event"
    },
    {
      "anonymous": false,
      "inputs": [
        {
          "indexed": false,
          "internalType": "uint24",
          "name": "value",
          "type": "uint24"
        }
      ],
      "name": "PoolFeeRatioChanged",
      "type": "event"
    },
    {
      "anonymous": false,
      "inputs": [
        {
          "indexed": false,
          "internalType": "uint24",
          "name": "normalOrderRatio",
          "type": "uint24"
        },
        {
          "indexed": false,
          "internalType": "uint24",
          "name": "liquidationRatio",
          "type": "uint24"
        },
        {
          "indexed": false,
          "internalType": "uint24",
          "name": "emaNormalOrderRatio",
          "type": "uint24"
        },
        {
          "indexed": false,
          "internalType": "uint24",
          "name": "emaLiquidationRatio",
          "type": "uint24"
        },
        {
          "indexed": false,
          "internalType": "uint32",
          "name": "emaSec",
          "type": "uint32"
        }
      ],
      "name": "PriceLimitConfigChanged",
      "type": "event"
    },
    {
      "anonymous": false,
      "inputs": [
        {
          "indexed": false,
          "internalType": "bool",
          "name": "isBaseToQuote",
          "type": "bool"
        },
        {
          "indexed": false,
          "internalType": "bool",
          "name": "isExactInput",
          "type": "bool"
        },
        {
          "indexed": false,
          "internalType": "uint256",
          "name": "amount",
          "type": "uint256"
        },
        {
          "indexed": false,
          "internalType": "uint256",
          "name": "oppositeAmount",
          "type": "uint256"
        }
      ],
      "name": "Swapped",
      "type": "event"
    },
    {
      "inputs": [
        {
          "internalType": "uint256",
          "name": "baseShare",
          "type": "uint256"
        },
        {
          "internalType": "uint256",
          "name": "quoteBalance",
          "type": "uint256"
        }
      ],
      "name": "addLiquidity",
      "outputs": [
        {
          "internalType": "uint256",
          "name": "base",
          "type": "uint256"
        },
        {
          "internalType": "uint256",
          "name": "quote",
          "type": "uint256"
        },
        {
          "internalType": "uint256",
          "name": "liquidity",
          "type": "uint256"
        }
      ],
      "stateMutability": "nonpayable",
      "type": "function"
    },
    {
      "inputs": [],
      "name": "baseBalancePerShareX96",
      "outputs": [
        {
          "internalType": "uint256",
          "name": "",
          "type": "uint256"
        }
      ],
      "stateMutability": "view",
      "type": "function"
    },
    {
      "inputs": [],
      "name": "exchange",
      "outputs": [
        {
          "internalType": "address",
          "name": "",
          "type": "address"
        }
      ],
      "stateMutability": "view",
      "type": "function"
    },
    {
      "inputs": [],
      "name": "fundingInfo",
      "outputs": [
        {
          "internalType": "uint256",
          "name": "prevIndexPriceBase",
          "type": "uint256"
        },
        {
          "internalType": "uint256",
          "name": "prevIndexPriceQuote",
          "type": "uint256"
        },
        {
          "internalType": "uint256",
          "name": "prevIndexPriceTimestamp",
          "type": "uint256"
        }
      ],
      "stateMutability": "view",
      "type": "function"
    },
    {
      "inputs": [],
      "name": "fundingMaxElapsedSec",
      "outputs": [
        {
          "internalType": "uint32",
          "name": "",
          "type": "uint32"
        }
      ],
      "stateMutability": "view",
      "type": "function"
    },
    {
      "inputs": [],
      "name": "fundingMaxPremiumRatio",
      "outputs": [
        {
          "internalType": "uint24",
          "name": "",
          "type": "uint24"
        }
      ],
      "stateMutability": "view",
      "type": "function"
    },
    {
      "inputs": [],
      "name": "fundingRolloverSec",
      "outputs": [
        {
          "internalType": "uint32",
          "name": "",
          "type": "uint32"
        }
      ],
      "stateMutability": "view",
      "type": "function"
    },
    {
      "inputs": [],
      "name": "getCumDeleveragedPerLiquidityX96",
      "outputs": [
        {
          "internalType": "uint256",
          "name": "",
          "type": "uint256"
        },
        {
          "internalType": "uint256",
          "name": "",
          "type": "uint256"
        }
      ],
      "stateMutability": "view",
      "type": "function"
    },
    {
      "inputs": [
        {
          "internalType": "uint256",
          "name": "liquidity",
          "type": "uint256"
        },
        {
          "internalType": "uint256",
          "name": "cumBasePerLiquidityX96",
          "type": "uint256"
        },
        {
          "internalType": "uint256",
          "name": "cumQuotePerLiquidityX96",
          "type": "uint256"
        }
      ],
      "name": "getLiquidityDeleveraged",
      "outputs": [
        {
          "internalType": "int256",
          "name": "",
          "type": "int256"
        },
        {
          "internalType": "int256",
          "name": "",
          "type": "int256"
        }
      ],
      "stateMutability": "view",
      "type": "function"
    },
    {
      "inputs": [
        {
          "internalType": "uint256",
          "name": "liquidity",
          "type": "uint256"
        }
      ],
      "name": "getLiquidityValue",
      "outputs": [
        {
          "internalType": "uint256",
          "name": "",
          "type": "uint256"
        },
        {
          "internalType": "uint256",
          "name": "",
          "type": "uint256"
        }
      ],
      "stateMutability": "view",
      "type": "function"
    },
    {
      "inputs": [],
      "name": "getMarkPriceX96",
      "outputs": [
        {
          "internalType": "uint256",
          "name": "",
          "type": "uint256"
        }
      ],
      "stateMutability": "view",
      "type": "function"
    },
    {
      "inputs": [],
      "name": "getShareMarkPriceX96",
      "outputs": [
        {
          "internalType": "uint256",
          "name": "",
          "type": "uint256"
        }
      ],
      "stateMutability": "view",
      "type": "function"
    },
    {
      "inputs": [
        {
          "internalType": "bool",
          "name": "isBaseToQuote",
          "type": "bool"
        },
        {
          "internalType": "bool",
          "name": "isExactInput",
          "type": "bool"
        },
        {
          "internalType": "bool",
          "name": "isLiquidation",
          "type": "bool"
        }
      ],
      "name": "maxSwap",
      "outputs": [
        {
          "internalType": "uint256",
          "name": "amount",
          "type": "uint256"
        }
      ],
      "stateMutability": "view",
      "type": "function"
    },
    {
      "inputs": [],
      "name": "owner",
      "outputs": [
        {
          "internalType": "address",
          "name": "",
          "type": "address"
        }
      ],
      "stateMutability": "view",
      "type": "function"
    },
    {
      "inputs": [],
      "name": "poolFeeRatio",
      "outputs": [
        {
          "internalType": "uint24",
          "name": "",
          "type": "uint24"
        }
      ],
      "stateMutability": "view",
      "type": "function"
    },
    {
      "inputs": [],
      "name": "poolInfo",
      "outputs": [
        {
          "internalType": "uint256",
          "name": "base",
          "type": "uint256"
        },
        {
          "internalType": "uint256",
          "name": "quote",
          "type": "uint256"
        },
        {
          "internalType": "uint256",
          "name": "totalLiquidity",
          "type": "uint256"
        },
        {
          "internalType": "uint256",
          "name": "cumBasePerLiquidityX96",
          "type": "uint256"
        },
        {
          "internalType": "uint256",
          "name": "cumQuotePerLiquidityX96",
          "type": "uint256"
        },
        {
          "internalType": "uint256",
          "name": "baseBalancePerShareX96",
          "type": "uint256"
        }
      ],
      "stateMutability": "view",
      "type": "function"
    },
    {
      "inputs": [
        {
          "internalType": "bool",
          "name": "isBaseToQuote",
          "type": "bool"
        },
        {
          "internalType": "bool",
          "name": "isExactInput",
          "type": "bool"
        },
        {
          "internalType": "uint256",
          "name": "amount",
          "type": "uint256"
        },
        {
          "internalType": "bool",
          "name": "isLiquidation",
          "type": "bool"
        }
      ],
      "name": "previewSwap",
      "outputs": [
        {
          "internalType": "uint256",
          "name": "oppositeAmount",
          "type": "uint256"
        }
      ],
      "stateMutability": "view",
      "type": "function"
    },
    {
      "inputs": [],
      "name": "priceFeedBase",
      "outputs": [
        {
          "internalType": "address",
          "name": "",
          "type": "address"
        }
      ],
      "stateMutability": "view",
      "type": "function"
    },
    {
      "inputs": [],
      "name": "priceFeedQuote",
      "outputs": [
        {
          "internalType": "address",
          "name": "",
          "type": "address"
        }
      ],
      "stateMutability": "view",
      "type": "function"
    },
    {
      "inputs": [],
      "name": "priceLimitConfig",
      "outputs": [
        {
          "internalType": "uint24",
          "name": "normalOrderRatio",
          "type": "uint24"
        },
        {
          "internalType": "uint24",
          "name": "liquidationRatio",
          "type": "uint24"
        },
        {
          "internalType": "uint24",
          "name": "emaNormalOrderRatio",
          "type": "uint24"
        },
        {
          "internalType": "uint24",
          "name": "emaLiquidationRatio",
          "type": "uint24"
        },
        {
          "internalType": "uint32",
          "name": "emaSec",
          "type": "uint32"
        }
      ],
      "stateMutability": "view",
      "type": "function"
    },
    {
      "inputs": [],
      "name": "priceLimitInfo",
      "outputs": [
        {
          "internalType": "uint256",
          "name": "referencePrice",
          "type": "uint256"
        },
        {
          "internalType": "uint256",
          "name": "referenceTimestamp",
          "type": "uint256"
        },
        {
          "internalType": "uint256",
          "name": "emaPrice",
          "type": "uint256"
        }
      ],
      "stateMutability": "view",
      "type": "function"
    },
    {
      "inputs": [
        {
          "internalType": "uint256",
          "name": "liquidity",
          "type": "uint256"
        }
      ],
      "name": "removeLiquidity",
      "outputs": [
        {
          "internalType": "uint256",
          "name": "base",
          "type": "uint256"
        },
        {
          "internalType": "uint256",
          "name": "quote",
          "type": "uint256"
        }
      ],
      "stateMutability": "nonpayable",
      "type": "function"
    },
    {
      "inputs": [],
      "name": "renounceOwnership",
      "outputs": [],
      "stateMutability": "nonpayable",
      "type": "function"
    },
    {
      "inputs": [
        {
          "internalType": "uint32",
          "name": "value",
          "type": "uint32"
        }
      ],
      "name": "setFundingMaxElapsedSec",
      "outputs": [],
      "stateMutability": "nonpayable",
      "type": "function"
    },
    {
      "inputs": [
        {
          "internalType": "uint24",
          "name": "value",
          "type": "uint24"
        }
      ],
      "name": "setFundingMaxPremiumRatio",
      "outputs": [],
      "stateMutability": "nonpayable",
      "type": "function"
    },
    {
      "inputs": [
        {
          "internalType": "uint32",
          "name": "value",
          "type": "uint32"
        }
      ],
      "name": "setFundingRolloverSec",
      "outputs": [],
      "stateMutability": "nonpayable",
      "type": "function"
    },
    {
      "inputs": [
        {
          "internalType": "uint24",
          "name": "value",
          "type": "uint24"
        }
      ],
      "name": "setPoolFeeRatio",
      "outputs": [],
      "stateMutability": "nonpayable",
      "type": "function"
    },
    {
      "inputs": [
        {
          "components": [
            {
              "internalType": "uint24",
              "name": "normalOrderRatio",
              "type": "uint24"
            },
            {
              "internalType": "uint24",
              "name": "liquidationRatio",
              "type": "uint24"
            },
            {
              "internalType": "uint24",
              "name": "emaNormalOrderRatio",
              "type": "uint24"
            },
            {
              "internalType": "uint24",
              "name": "emaLiquidationRatio",
              "type": "uint24"
            },
            {
              "internalType": "uint32",
              "name": "emaSec",
              "type": "uint32"
            }
          ],
          "internalType": "struct MarketStructs.PriceLimitConfig",
          "name": "value",
          "type": "tuple"
        }
      ],
      "name": "setPriceLimitConfig",
      "outputs": [],
      "stateMutability": "nonpayable",
      "type": "function"
    },
    {
      "inputs": [
        {
          "internalType": "bool",
          "name": "isBaseToQuote",
          "type": "bool"
        },
        {
          "internalType": "bool",
          "name": "isExactInput",
          "type": "bool"
        },
        {
          "internalType": "uint256",
          "name": "amount",
          "type": "uint256"
        },
        {
          "internalType": "bool",
          "name": "isLiquidation",
          "type": "bool"
        }
      ],
      "name": "swap",
      "outputs": [
        {
          "internalType": "uint256",
          "name": "oppositeAmount",
          "type": "uint256"
        }
      ],
      "stateMutability": "nonpayable",
      "type": "function"
    },
    {
      "inputs": [],
      "name": "symbol",
      "outputs": [
        {
          "internalType": "string",
          "name": "",
          "type": "string"
        }
      ],
      "stateMutability": "view",
      "type": "function"
    },
    {
      "inputs": [
        {
          "internalType": "address",
          "name": "newOwner",
          "type": "address"
        }
      ],
      "name": "transferOwnership",
      "outputs": [],
      "stateMutability": "nonpayable",
      "type": "function"
    }
  ],
  "transactionHash": "0xa7dacb540c58eced3a72d8fcbcce51fc4a79b879b300d6797a892e9d0a1e15c7",
  "args": [
    "USD",
    "0x335E2DF76eA6d5d4A82E45d2b917F84a747f0E82",
    "0x0000000000000000000000000000000000000000",
    "0xBB82625d4b46ae1b4dbF519A56d4A19e2F70d63b"
  ],
  "numDeployments": 9,
  "solcInputHash": "095953b35fb9ffc64048adf5b35f21df",
  "bytecode": "0x600f8054610bb862ffffff199182161765ffffff000000199081166427100000001763ffffffff60301b1916680151800000000000001763ffffffff60501b19166102a360571b1790925561018060405261c35060e0819052620186a06101005262030d40610120526203d0906101405261012c610160526010805490921617909116650186a00000001762ffffff60301b191668030d400000000000001762ffffff60481b19166b03d0900000000000000000001763ffffffff60601b1916604b60621b179055348015620000d457600080fd5b506040516200378e3803806200378e833981016040819052620000f79162000363565b600160009081556200010862000272565b600180546001600160a01b0319166001600160a01b038316908117909155604051919250906000907f8be0079c531659141344cd1fd0a4f28419497f9722a3daafe3b4186f6b6457e0908290a3506001600160a01b038216158062000187575062000187826001600160a01b03166200027660201b6200130c1760201c565b620001af5760405162461bcd60e51b8152600401620001a69062000493565b60405180910390fd5b6001600160a01b0381161580620001e05750620001e0816001600160a01b03166200027660201b6200130c1760201c565b620001ff5760405162461bcd60e51b8152600401620001a6906200045c565b8351620002149060029060208701906200029f565b50606083811b6001600160601b031990811660805283821b811660a0529082901b1660c05262000251600962000280602090811b6200131617901c565b6200026860036200028960201b6200131f1760201c565b50505050620004ca565b3390565b803b15155b919050565b42600290910155565b6c01000000000000000000000000600590910155565b828054600181600116156101000203166002900490600052602060002090601f016020900481019282620002d7576000855562000322565b82601f10620002f257805160ff191683800117855562000322565b8280016001018555821562000322579182015b828111156200032257825182559160200191906001019062000305565b506200033092915062000334565b5090565b5b8082111562000330576000815560010162000335565b80516001600160a01b03811681146200027b57600080fd5b6000806000806080858703121562000379578384fd5b84516001600160401b038082111562000390578586fd5b818701915087601f830112620003a4578586fd5b815181811115620003b157fe5b6040516020601f8301601f1916820181018481118382101715620003d157fe5b60405282825284830181018b1015620003e8578889fd5b8893505b828410156200040b5784840181015182850182015292830192620003ec565b828411156200041c57888184840101525b8198506200042c818b016200034b565b9750505050505062000441604086016200034b565b915062000451606086016200034b565b905092959194509250565b6020808252601e908201527f504d5f433a2071756f7465207072696365206665656420696e76616c69640000604082015260600190565b6020808252601d908201527f504d5f433a2062617365207072696365206665656420696e76616c6964000000604082015260600190565b60805160601c60a05160601c60c05160601c61326b620005236000398061056a5280610dbc5280611593525080610ad25280610d9b528061156e5250806109735280610bf85280610cfe5280610f85525061326b6000f3fe608060405234801561001057600080fd5b50600436106101a55760003560e01c806385aaa397116100ef5780639cd441da116100925780639cd441da146103465780639d67bf0314610359578063d2f7265a1461036c578063dba4915314610374578063e7a499311461037c578063e8fa204f1461038f578063f2289752146103a2578063f2fde38b146103aa576101a5565b806385aaa397146102d457806388e27dfb146102eb5780638da5cb5b146102f35780638ee8fe5d146102fb578063933c7979146103035780639482de1a1461031657806395d89b411461031e5780639c8f9f2314610333576101a5565b8063715018a611610157578063715018a61461025a5780637452fadd1461026257806374f256891461026a5780637640482f1461027d5780637661ce131461029e578063796c20b7146102a657806380796d55146102b9578063823f2b04146102cc576101a5565b806301e0df12146101aa57806306f429b8146101bf5780630e06e4d0146101e8578063186f181e146101fd5780633aa3e650146102125780635a2f3d09146102275780636346f32e14610241575b600080fd5b6101bd6101b836600461292a565b6103bd565b005b6101d26101cd3660046128c7565b6104ed565b6040516101df9190612fae565b60405180910390f35b6101f0610568565b6040516101df9190612a1b565b61020561058c565b6040516101df9190612ff5565b61021a61059f565b6040516101df9190612f6a565b61022f6105b1565b6040516101df96959493929190612fcd565b6102496105c6565b6040516101df959493929190612f7a565b6101bd610600565b6101d26106ac565b6101bd61027836600461292a565b6106d8565b61029061028b366004612946565b6107f9565b6040516101df929190612a4c565b610205610810565b6101bd6102b43660046129c2565b610823565b6101d26102c73660046128c7565b61096f565b6101f0610ad0565b6102dc610af4565b6040516101df93929190612fb7565b61021a610b00565b6101f0610b0b565b6101d2610b1a565b610290610311366004612997565b610b3c565b6101d2610b62565b610326610b68565b6040516101df9190612a88565b610290610341366004612946565b610bf3565b6102dc610354366004612976565b610cf8565b6101bd6103673660046129c2565b610e5c565b6101f0610f83565b6102dc610fa7565b6101bd61038a366004612913565b610fb3565b6101d261039d366004612885565b6111e9565b6102906111ff565b6101bd6103b836600461285e565b611209565b6103c561132c565b6001600160a01b03166103d6610b0b565b6001600160a01b03161461041f576040805162461bcd60e51b815260206004820181905260248201526000805160206131a4833981519152604482015290519081900360640190fd5b60026000541415610465576040805162461bcd60e51b815260206004820152601f602482015260008051602061313d833981519152604482015290519081900360640190fd5b600260005561c35062ffffff8216111561049a5760405162461bcd60e51b815260040161049190612b29565b60405180910390fd5b600f805462ffffff191662ffffff83161790556040517ff02c81debd01d238f7814ac27bec8a7970b5271dc47842a419737b1ae313ca0f906104dd908390612f6a565b60405180910390a1506001600055565b6000806104fb868685611330565b5090508084111561051e5760405162461bcd60e51b815260040161049190612cf1565b6003546004546040805160808101825289151581528815156020820152600f5462ffffff16918101919091526060810187905261055e92919060006113a9565b9695505050505050565b7f000000000000000000000000000000000000000000000000000000000000000081565b600f54600160501b900463ffffffff1681565b600f546301000000900462ffffff1681565b60035460045460055460065460075460085486565b60105462ffffff8082169163010000008104821691600160301b8204811691600160481b810490911690600160601b900463ffffffff1685565b61060861132c565b6001600160a01b0316610619610b0b565b6001600160a01b031614610662576040805162461bcd60e51b815260206004820181905260248201526000805160206131a4833981519152604482015290519081900360640190fd5b6001546040516000916001600160a01b0316907f8be0079c531659141344cd1fd0a4f28419497f9722a3daafe3b4186f6b6457e0908390a3600180546001600160a01b0319169055565b6003546000906106be575060006106d5565b6003546004546008546106d292919061148a565b90505b90565b6106e061132c565b6001600160a01b03166106f1610b0b565b6001600160a01b03161461073a576040805162461bcd60e51b815260206004820181905260248201526000805160206131a4833981519152604482015290519081900360640190fd5b60026000541415610780576040805162461bcd60e51b815260206004820152601f602482015260008051602061313d833981519152604482015290519081900360640190fd5b6002600055620186a062ffffff821611156107ad5760405162461bcd60e51b815260040161049190612f3d565b600f805465ffffff0000001916630100000062ffffff8416021790556040517f55647f4dd43ac173f04e53a506df46454012316d82fb04a9c1dbd8e0f21f8f76906104dd908390612f6a565b6000806108076003846114ae565b91509150915091565b600f54600160301b900463ffffffff1681565b61082b61132c565b6001600160a01b031661083c610b0b565b6001600160a01b031614610885576040805162461bcd60e51b815260206004820181905260248201526000805160206131a4833981519152604482015290519081900360640190fd5b600260005414156108cb576040805162461bcd60e51b815260206004820152601f602482015260008051602061313d833981519152604482015290519081900360640190fd5b600260005562093a8063ffffffff821611156108f95760405162461bcd60e51b815260040161049190612e46565b610e108163ffffffff1610156109215760405162461bcd60e51b815260040161049190612de3565b600f805463ffffffff60501b1916600160501b63ffffffff8416021790556040517fa703b265f29064a106acd6473c258e009bff9ac0bfd63b6f5ca4b712a25c8516906104dd908390612ff5565b60007f00000000000000000000000000000000000000000000000000000000000000006001600160a01b031633146109b95760405162461bcd60e51b815260040161049190612ea1565b600260005414156109ff576040805162461bcd60e51b815260206004820152601f602482015260008051602061313d833981519152604482015290519081900360640190fd5b6002600090815580610a12878786611330565b9150915081851115610a365760405162461bcd60e51b815260040161049190612b55565b6040805160808101825288151581528715156020820152600f5462ffffff169181019190915260608101869052610a6f906003906114e2565b9250610a7c600c82611525565b7fdedf81f778c63a97f5a04bfeae9e0e04f18d283b04d930ea7b6af78b6eb50b7687878786604051610ab19493929190612a2f565b60405180910390a1610ac1611550565b50506001600055949350505050565b7f000000000000000000000000000000000000000000000000000000000000000081565b600c54600d54600e5483565b600f5462ffffff1681565b6001546001600160a01b031690565b600354600090610b2c575060006106d5565b6003546004546106d29190611677565b600080610b556003800154600360040154878787611691565b915091505b935093915050565b60085490565b6002805460408051602060018416156101000260001901909316849004601f81018490048402820184019092528181529291830182828015610beb5780601f10610bc057610100808354040283529160200191610beb565b820191906000526020600020905b815481529060010190602001808311610bce57829003601f168201915b505050505081565b6000807f00000000000000000000000000000000000000000000000000000000000000006001600160a01b03163314610c3e5760405162461bcd60e51b815260040161049190612ea1565b60026000541415610c84576040805162461bcd60e51b815260206004820152601f602482015260008051602061313d833981519152604482015290519081900360640190fd5b60026000556040805160208101909152838152610ca3906003906116fe565b60405191935091507f0bb89aa54ed6940a7e7167bd262b2400d63945045ceff1a52a05f2601ed215f190610cdc90849084908790612fb7565b60405180910390a1610cec611550565b60016000559092909150565b600080807f00000000000000000000000000000000000000000000000000000000000000006001600160a01b03163314610d445760405162461bcd60e51b815260040161049190612ea1565b60026000541415610d8a576040805162461bcd60e51b815260206004820152601f602482015260008051602061313d833981519152604482015290519081900360640190fd5b6002600055600554610de257610de27f00000000000000000000000000000000000000000000000000000000000000007f000000000000000000000000000000000000000000000000000000000000000087876117c6565b610e0160036040518060400160405280888152602001878152506118ea565b60405192955090935091507fd7f28048575eead8851d024ead087913957dfb4fd1a02b4d1573f5352a5a2be390610e3d90859085908590612fb7565b60405180910390a1610e4d611550565b60016000819055509250925092565b610e6461132c565b6001600160a01b0316610e75610b0b565b6001600160a01b031614610ebe576040805162461bcd60e51b815260206004820181905260248201526000805160206131a4833981519152604482015290519081900360640190fd5b60026000541415610f04576040805162461bcd60e51b815260206004820152601f602482015260008051602061313d833981519152604482015290519081900360640190fd5b600260005562093a8063ffffffff82161115610f325760405162461bcd60e51b815260040161049190612d22565b600f805469ffffffff0000000000001916600160301b63ffffffff8416021790556040517f5b18da8898c1e492e6bc631eec59d143ebba7f31ca794b668f0bfa9b0d989293906104dd908390612ff5565b7f000000000000000000000000000000000000000000000000000000000000000081565b600954600a54600b5483565b610fbb61132c565b6001600160a01b0316610fcc610b0b565b6001600160a01b031614611015576040805162461bcd60e51b815260206004820181905260248201526000805160206131a4833981519152604482015290519081900360640190fd5b6002600054141561105b576040805162461bcd60e51b815260206004820152601f602482015260008051602061313d833981519152604482015290519081900360640190fd5b60026000556207a120611074604083016020840161292a565b62ffffff1611156110975760405162461bcd60e51b815260040161049190612e0f565b6110a7604082016020830161292a565b62ffffff166110b9602083018361292a565b62ffffff1611156110dc5760405162461bcd60e51b815260040161049190612c2a565b620f42406110f0608083016060840161292a565b62ffffff16106111125760405162461bcd60e51b815260040161049190612b85565b611122608082016060830161292a565b62ffffff16611137606083016040840161292a565b62ffffff16111561115a5760405162461bcd60e51b815260040161049190612f0f565b8060106111678282613043565b507fbe7eee05a638b28e8473a6f87ae310d3123f8a2a7561ce96e140f76125f746129050611198602083018361292a565b6111a8604084016020850161292a565b6111b8606085016040860161292a565b6111c8608086016060870161292a565b6111d860a08701608088016129c2565b6040516104dd959493929190612f7a565b60006111f6848484611330565b50949350505050565b6006546007549091565b61121161132c565b6001600160a01b0316611222610b0b565b6001600160a01b03161461126b576040805162461bcd60e51b815260206004820181905260248201526000805160206131a4833981519152604482015290519081900360640190fd5b6001600160a01b0381166112b05760405162461bcd60e51b815260040180806020018281038252602681526020018061315d6026913960400191505060405180910390fd5b6001546040516001600160a01b038084169216907f8be0079c531659141344cd1fd0a4f28419497f9722a3daafe3b4186f6b6457e090600090a3600180546001600160a01b0319166001600160a01b0392909216919091179055565b803b15155b919050565b42600290910155565b600160601b600590910155565b3390565b600061133a61282d565b60055461134a5760009150610b5a565b6000611354610b1a565b9050611363600c601083611a5d565b9150600061137e836000015184604001516010888b15611b10565b600354600454600f5492935061139d928a908a9062ffffff1686611bbe565b93505050935093915050565b6000806113bd620f42408560400151611d20565b90508360200151156114185760608401516000906113db9083611d52565b855190915015611400576113f986826113f48a82611d67565b611dc1565b9250611412565b61140f87826113f48982611d67565b92505b50611465565b8351156114405760608401516114399087906114348882611e70565b611ec7565b9150611458565b60608401516114559086906114348982611e70565b91505b6114628282611f01565b91505b826111f657600082116111f65760405162461bcd60e51b815260040161049190612cc2565b60006114a46114998585611677565b600160601b84611dc1565b90505b9392505050565b6000806114c48385600001548660020154611dc1565b6114d78486600101548760020154611dc1565b915091509250929050565b60006114f9836000015484600101548460006113a9565b825160208401518554600187015460608701519495506115199486611f16565b60018501559092555090565b60208101516115335761154c565b8051825560208101516001830155604081015160028301555b5050565b600061155a6106ac565b6040805160c0810182526001600160a01b037f0000000000000000000000000000000000000000000000000000000000000000811682527f0000000000000000000000000000000000000000000000000000000000000000166020820152908101829052600f5462ffffff6301000000820416606083015263ffffffff600160301b820481166080840152600160501b9091041660a08201529091506000908190819061160990600990611fa0565b92509250925082600014156116215750505050611675565b61162c600384612135565b6006546007546040517f318daee0b48d1f6a0542d8cdd35e2593d88c4fb01708f4781609494206d0705192611668928792879287928b92612a5a565b60405180910390a1505050505b565b600061168882600160601b85611dc1565b90505b92915050565b60008060006116b16116a286612234565b6116ab8a612234565b9061227c565b905060006116c16116a286612234565b90506116dc82600160601b6116d58a612234565b91906122e1565b6116ee82600160601b6116d58b612234565b9350935050509550959350505050565b81546001830154600284015483516000938493909290918490611722908584611dc1565b9050600061173588600001518585611dc1565b90506000821180156117475750600081115b6117635760405162461bcd60e51b815260040161049190612db4565b61176d8583611e70565b89556117798482611e70565b60018a0155875160009061178e908590611e70565b90506103e88110156117b25760405162461bcd60e51b815260040161049190612d4f565b60028a015590955093505050509250929050565b60006117d185612385565b905060006117de85612385565b9050600082116118005760405162461bcd60e51b815260040161049190612ed8565b600081116118205760405162461bcd60e51b815260040161049190612bf3565b600061182b8761244c565b905060006118388761244c565b9050604d60ff8316111561185e5760405162461bcd60e51b815260040161049190612af2565b604d60ff821611156118825760405162461bcd60e51b815260040161049190612c8b565b600061189386600160601b89611dc1565b905060006118a48484888886612513565b90506118b7600160601b620186a0611d52565b6118c082612590565b11156118de5760405162461bcd60e51b815260040161049190612c54565b50505050505050505050565b600282015460009081908190818161198b576020860151865160009161191891611913916125b4565b61260d565b9050611926816103e8611e70565b87519092501580159061193d575060008760200151115b80156119495750600082115b6119655760405162461bcd60e51b815260040161049190612abb565b8651808955602088015160018a0181905560028a0192909255955093509150611a569050565b86546001880154875160208901516000916119b0916119ab908686611dc1565b61265e565b905060006119cb8a602001516119ab8c600001518688611dc1565b90506119e66119db838887611dc1565b6119ab838987611dc1565b94506000821180156119f85750600081115b8015611a045750600085115b611a205760405162461bcd60e51b815260040161049190612e72565b611a2a8483611d67565b8b55611a368382611d67565b60018c0155611a458686611d67565b60028c015590975095509193505050505b9250925092565b611a6561282d565b60018401544290808211611a8857505083548152600284015460408201526114a7565b6000611a948383611e70565b8754909150611aa95760408401859052611aff565b855463ffffffff600160601b909104811690600090611acc9084908490611d6716565b9050611af7611adc888584611dc1565b611af18b600201548563ffffffff1685611dc1565b90611d67565b604087015250505b505082825260208201529392505050565b600080611b3d84611b2757855462ffffff16611b36565b85546301000000900462ffffff165b8890611d52565b90506000611b7185611b5c578654600160301b900462ffffff16611b36565b86548890600160481b900462ffffff16611d52565b90508315611b9957611b90611b868984611d67565b6119ab8984611d67565b92505050611bb5565b611b90611ba68984611e70565b611bb08984611e70565b612674565b95945050505050565b600080611bce620f424085611d20565b90506000611bdc89896125b4565b90508615611c66576000611bf582600160601b87611dc1565b90506000611c038b806125b4565b9050808211611c1957600094505050505061055e565b6000611c258383611e70565b90506000611c3d611c368e88611d52565b8e90611d67565b9050611c5b611c4c8288612684565b611c568489612684565b612699565b965050505050611cd5565b6000611c778286600160601b611dc1565b90506000611c858a806125b4565b9050808211611c9b57600094505050505061055e565b6000611ca78383611e70565b90506000611cbf611cb88d88611d52565b8d90611d67565b9050611cce611c4c8288612684565b9650505050505b85611d1457611d11898960405180608001604052808b151581526020016001151581526020018962ffffff1681526020018781525060016113a9565b92505b50509695505050505050565b60008262ffffff168262ffffff161115611d4c5760405162461bcd60e51b815260040161049190612bbc565b50900390565b6000611688838362ffffff16620f4240611dc1565b600082820183811015611688576040805162461bcd60e51b815260206004820152601b60248201527f536166654d6174683a206164646974696f6e206f766572666c6f770000000000604482015290519081900360640190fd5b6000808060001985870986860292508281109083900303905080611df75760008411611dec57600080fd5b5082900490506114a7565b808411611e0357600080fd5b6000848688096000868103871696879004966002600389028118808a02820302808a02820302808a02820302808a02820302808a02820302808a02909103029181900381900460010186841190950394909402919094039290920491909117919091029150509392505050565b600082821115611d4c576040805162461bcd60e51b815260206004820152601e60248201527f536166654d6174683a207375627472616374696f6e206f766572666c6f770000604482015290519081900360640190fd5b6000611ed4848484611dc1565b905060008280611ee057fe5b84860911156114a7576000198110611ef757600080fd5b6001019392505050565b600061168883620f42408462ffffff16611ec7565b6000808615611f60578715611f4257611f2f8685611d67565b9150611f3b8584611e70565b9050611f5b565b611f4c8684611e70565b9150611f588585611d67565b90505b611f95565b8715611f7c57611f708684611d67565b9150611f588585611e70565b611f868685611e70565b9150611f928584611d67565b90505b965096945050505050565b6000806000804290506000611fc2876002015483611e7090919063ffffffff16565b905080611fdb5760008060009450945094505050611a56565b6000611fea8760000151612385565b90506000611ffb8860200151612385565b9050600061200c896000015161244c565b9050600061201d8a6020015161244c565b8b54909150841480156120335750828b60010154145b8061203c575083155b80612045575082155b806120535750604d60ff8316115b806120615750604d60ff8216115b1561207c576000806000985098509850505050505050611a56565b612090858b6080015163ffffffff1661265e565b945061209b856126cb565b97506120ae828286868e60400151612513565b965060006120d56120d08c60600151600160601b611d5290919063ffffffff16565b612234565b90506120ef6120e4828a612710565b60008390039061271f565b97506121186120fd87612234565b8c60a0015163ffffffff168a6122e19092919063ffffffff16565b948c55505050600189015560028801929092555092509250925092565b8061213f5761154c565b600061214a82612590565b905060008213156121ad576001830154600061216b8284600160601b611dc1565b90506121778282611e70565b85600101819055506121a061219582600160601b8860020154611dc1565b600487015490611d67565b6004860155506121ff9050565b825460006121c482846113f4600160601b82611d67565b90506121d08282611e70565b855560028501546121f7906121ec908390600160601b90611dc1565b600387015490611d67565b600386015550505b61222a836005015461222061221b856116ab600160601b612234565b61272f565b600160601b611dc1565b6005840155505050565b6000600160ff1b82106122785760405162461bcd60e51b81526004018080602001828103825260288152602001806131ea6028913960400191505060405180910390fd5b5090565b60008183038183128015906122915750838113155b806122a657506000831280156122a657508381135b6116885760405162461bcd60e51b81526004018080602001828103825260248152602001806132126024913960400191505060405180910390fd5b600080600085126122f257846122fb565b6122fb85612786565b9050600080851261230c5784612315565b61231585612786565b9050600080871280156123285750600086135b8061233e575060008713801561233e5750600086125b61234957600061234c565b60015b9050600061235b848488611dc1565b9050816123705761236b81612234565b612379565b612379816127b2565b98975050505050505050565b60006001600160a01b03821661239d57506001611311565b60408051600481526024810182526020810180516001600160e01b0316634c6afee560e11b179052905160009081906001600160a01b038616906123e29085906129ff565b600060405180830381855afa9150503d806000811461241d576040519150601f19603f3d011682016040523d82523d6000602084013e612422565b606091505b5091509150816124385760009350505050611311565b80806020019051810190611bb5919061295e565b60006001600160a01b03821661246457506000611311565b60408051600481526024810182526020810180516001600160e01b031663313ce56760e01b179052905160009081906001600160a01b038616906124a99085906129ff565b600060405180830381855afa9150503d80600081146124e4576040519150601f19603f3d011682016040523d82523d6000602084013e6124e9565b606091505b5091509150816124ff5760ff9350505050611311565b80806020019051810190611bb591906129de565b60008160ff8716151580612528575084600114155b156125415761253e818860ff16600a0a87611dc1565b90505b60ff8616151580612553575083600114155b1561256c5761256981858860ff16600a0a611dc1565b90505b61258561257c600160601b612234565b6116ab83612234565b979650505050505050565b6000808212156125ab576125a661221b83612786565b61168b565b61168b8261272f565b6000826125c35750600061168b565b828202828482816125d057fe5b04146116885760405162461bcd60e51b81526004018080602001828103825260218152602001806131836021913960400191505060405180910390fd5b60006003821115612650575080600160028204015b8181101561264a5780915060028182858161263957fe5b04018161264257fe5b049050612622565b50611311565b811561131157506001919050565b600081831061266d5781611688565b5090919050565b60008183101561266d5781611688565b600061168883620f42408462ffffff16611dc1565b600061168860026126c5856126bf6119136126b58860046125b4565b611af18a806125b4565b90611e70565b906127c6565b600064010000000082106122785760405162461bcd60e51b81526004018080602001828103825260268152602001806131c46026913960400191505060405180910390fd5b600081831261266d5781611688565b60008183121561266d5781611688565b600080821215612278576040805162461bcd60e51b815260206004820181905260248201527f53616665436173743a2076616c7565206d75737420626520706f736974697665604482015290519081900360640190fd5b6000600160ff1b82136127ab5760405162461bcd60e51b815260040161049190612d7d565b5060000390565b60006127bd82612234565b60000392915050565b600080821161281c576040805162461bcd60e51b815260206004820152601a60248201527f536166654d6174683a206469766973696f6e206279207a65726f000000000000604482015290519081900360640190fd5b81838161282557fe5b049392505050565b60405180606001604052806000815260200160008152602001600081525090565b8035801515811461131157600080fd5b60006020828403121561286f578081fd5b81356001600160a01b0381168114611688578182fd5b600080600060608486031215612899578182fd5b6128a28461284e565b92506128b06020850161284e565b91506128be6040850161284e565b90509250925092565b600080600080608085870312156128dc578081fd5b6128e58561284e565b93506128f36020860161284e565b9250604085013591506129086060860161284e565b905092959194509250565b600060a08284031215612924578081fd5b50919050565b60006020828403121561293b578081fd5b813561168881613116565b600060208284031215612957578081fd5b5035919050565b60006020828403121561296f578081fd5b5051919050565b60008060408385031215612988578182fd5b50508035926020909101359150565b6000806000606084860312156129ab578283fd5b505081359360208301359350604090920135919050565b6000602082840312156129d3578081fd5b81356116888161312a565b6000602082840312156129ef578081fd5b815160ff81168114611688578182fd5b60008251612a11818460208701613006565b9190910192915050565b6001600160a01b0391909116815260200190565b931515845291151560208401526040830152606082015260800190565b918252602082015260400190565b95865263ffffffff94909416602086015260408501929092526060840152608083015260a082015260c00190565b6000602082528251806020840152612aa7816040850160208701613006565b601f01601f19169190910160400192915050565b6020808252601d908201527f504c5f414c3a20696e697469616c206c6971756964697479207a65726f000000604082015260600190565b6020808252601e908201527f464c5f56494c503a20696e76616c6964206261736520646563696d616c730000604082015260600190565b602080825260129082015271504d5f535046523a20746f6f206c6172676560701b604082015260600190565b602080825260169082015275141357d4ce881d1bdbc81b185c99d948185b5bdd5b9d60521b604082015260600190565b6020808252601a908201527f50455f53504c433a20656d6120746f6f206c61726765206c6971000000000000604082015260600190565b6020808252601e908201527f506572704d6174683a207375627472616374696f6e206f766572666c6f770000604082015260600190565b6020808252601c908201527f464c5f56494c503a20696e76616c69642071756f746520707269636500000000604082015260600190565b60208082526010908201526f141157d4d41310ce881a5b9d985b1a5960821b604082015260600190565b6020808252601b908201527f464c5f56494c503a20746f6f206661722066726f6d20696e6465780000000000604082015260600190565b6020808252601f908201527f464c5f56494c503a20696e76616c69642071756f746520646563696d616c7300604082015260600190565b602080825260159082015274504c5f53443a206f7574707574206973207a65726f60581b604082015260600190565b602080825260179082015276141357d414ce881d1bdbc81b185c99d948185b5bdd5b9d604a1b604082015260600190565b602080825260139082015272504d5f53464d45533a20746f6f206c6172676560681b604082015260600190565b602080825260149082015273504c5f524c3a206d696e206c697175696469747960601b604082015260600190565b6020808252601c908201527f506572704d6174683a20696e76657273696f6e206f766572666c6f7700000000604082015260600190565b602080825260159082015274504c5f524c3a206f7574707574206973207a65726f60581b604082015260600190565b602080825260129082015271141357d4d19494ce881d1bdbc81cdb585b1b60721b604082015260600190565b6020808252601e908201527f50455f53504c433a20746f6f206c61726765206c69717569646174696f6e0000604082015260600190565b602080825260129082015271504d5f534652533a20746f6f206c6172676560701b604082015260600190565b602080825260159082015274504c5f414c3a206c6971756964697479207a65726f60581b604082015260600190565b6020808252601d908201527f504d5f4f453a2063616c6c6572206973206e6f742065786368616e6765000000604082015260600190565b6020808252601b908201527f464c5f56494c503a20696e76616c696420626173652070726963650000000000604082015260600190565b602080825260149082015273141157d4d41310ce88195b58481a5b9d985b1a5960621b604082015260600190565b602080825260139082015272504d5f53464d50523a20746f6f206c6172676560681b604082015260600190565b62ffffff91909116815260200190565b62ffffff958616815293851660208501529184166040840152909216606082015263ffffffff909116608082015260a00190565b90815260200190565b9283526020830191909152604082015260600190565b958652602086019490945260408501929092526060840152608083015260a082015260c00190565b63ffffffff91909116815260200190565b60005b83811015613021578181015183820152602001613009565b83811115613030576000848401525b50505050565b6000813561168b8161312a565b813561304e81613116565b815462ffffff191662ffffff9190911617808255602083013561307081613116565b65ffffff0000008160181b1665ffffff00000019831617915050808255604083013561309b81613116565b62ffffff60301b8160301b1662ffffff60301b1983161791505080825560608301356130c681613116565b62ffffff60481b199190911660489190911b62ffffff60481b1617815561154c6130f260808401613036565b82805463ffffffff60601b191660609290921b63ffffffff60601b16919091179055565b62ffffff8116811461312757600080fd5b50565b63ffffffff8116811461312757600080fdfe5265656e7472616e637947756172643a207265656e7472616e742063616c6c004f776e61626c653a206e6577206f776e657220697320746865207a65726f2061646472657373536166654d6174683a206d756c7469706c69636174696f6e206f766572666c6f774f776e61626c653a2063616c6c6572206973206e6f7420746865206f776e657253616665436173743a2076616c756520646f65736e27742066697420696e203332206269747353616665436173743a2076616c756520646f65736e27742066697420696e20616e20696e743235365369676e6564536166654d6174683a207375627472616374696f6e206f766572666c6f77a2646970667358221220ca1d40f4267a9067edd8aa5ec1aaed1306ba190a88da575c4ddb1247fbab0ba664736f6c63430007060033",
  "devdoc": {
    "kind": "dev",
    "methods": {
      "owner()": {
        "details": "Returns the address of the current owner."
      },
      "renounceOwnership()": {
        "details": "Leaves the contract without owner. It will not be possible to call `onlyOwner` functions anymore. Can only be called by the current owner. NOTE: Renouncing ownership will leave the contract without an owner, thereby removing any functionality that is only available to the owner."
      },
      "transferOwnership(address)": {
        "details": "Transfers ownership of the contract to a new account (`newOwner`). Can only be called by the current owner."
      }
    },
    "version": 1
  },
  "userdoc": {
    "kind": "user",
    "methods": {},
    "version": 1
  },
  "storageLayout": {
    "storage": [
      {
        "astId": 3005,
        "contract": "contracts/PerpdexMarket.sol:PerpdexMarket",
        "label": "_status",
        "offset": 0,
        "slot": "0",
        "type": "t_uint256"
      },
      {
        "astId": 290,
        "contract": "contracts/PerpdexMarket.sol:PerpdexMarket",
        "label": "_owner",
        "offset": 0,
        "slot": "1",
        "type": "t_address"
      },
      {
        "astId": 4759,
        "contract": "contracts/PerpdexMarket.sol:PerpdexMarket",
        "label": "symbol",
        "offset": 0,
        "slot": "2",
        "type": "t_string_storage"
      },
      {
        "astId": 4768,
        "contract": "contracts/PerpdexMarket.sol:PerpdexMarket",
        "label": "poolInfo",
        "offset": 0,
        "slot": "3",
        "type": "t_struct(PoolInfo)8064_storage"
      },
      {
        "astId": 4770,
        "contract": "contracts/PerpdexMarket.sol:PerpdexMarket",
        "label": "fundingInfo",
        "offset": 0,
        "slot": "9",
        "type": "t_struct(FundingInfo)8051_storage"
      },
      {
        "astId": 4772,
        "contract": "contracts/PerpdexMarket.sol:PerpdexMarket",
        "label": "priceLimitInfo",
        "offset": 0,
        "slot": "12",
        "type": "t_struct(PriceLimitInfo)8071_storage"
      },
      {
        "astId": 4775,
        "contract": "contracts/PerpdexMarket.sol:PerpdexMarket",
        "label": "poolFeeRatio",
        "offset": 0,
        "slot": "15",
        "type": "t_uint24"
      },
      {
        "astId": 4778,
        "contract": "contracts/PerpdexMarket.sol:PerpdexMarket",
        "label": "fundingMaxPremiumRatio",
        "offset": 3,
        "slot": "15",
        "type": "t_uint24"
      },
      {
        "astId": 4781,
        "contract": "contracts/PerpdexMarket.sol:PerpdexMarket",
        "label": "fundingMaxElapsedSec",
        "offset": 6,
        "slot": "15",
        "type": "t_uint32"
      },
      {
        "astId": 4784,
        "contract": "contracts/PerpdexMarket.sol:PerpdexMarket",
        "label": "fundingRolloverSec",
        "offset": 10,
        "slot": "15",
        "type": "t_uint32"
      },
      {
        "astId": 4794,
        "contract": "contracts/PerpdexMarket.sol:PerpdexMarket",
        "label": "priceLimitConfig",
        "offset": 0,
        "slot": "16",
        "type": "t_struct(PriceLimitConfig)8082_storage"
      }
    ],
    "types": {
      "t_address": {
        "encoding": "inplace",
        "label": "address",
        "numberOfBytes": "20"
      },
      "t_string_storage": {
        "encoding": "bytes",
        "label": "string",
        "numberOfBytes": "32"
      },
      "t_struct(FundingInfo)8051_storage": {
        "encoding": "inplace",
        "label": "struct MarketStructs.FundingInfo",
        "members": [
          {
            "astId": 8046,
            "contract": "contracts/PerpdexMarket.sol:PerpdexMarket",
            "label": "prevIndexPriceBase",
            "offset": 0,
            "slot": "0",
            "type": "t_uint256"
          },
          {
            "astId": 8048,
            "contract": "contracts/PerpdexMarket.sol:PerpdexMarket",
            "label": "prevIndexPriceQuote",
            "offset": 0,
            "slot": "1",
            "type": "t_uint256"
          },
          {
            "astId": 8050,
            "contract": "contracts/PerpdexMarket.sol:PerpdexMarket",
            "label": "prevIndexPriceTimestamp",
            "offset": 0,
            "slot": "2",
            "type": "t_uint256"
          }
        ],
        "numberOfBytes": "96"
      },
      "t_struct(PoolInfo)8064_storage": {
        "encoding": "inplace",
        "label": "struct MarketStructs.PoolInfo",
        "members": [
          {
            "astId": 8053,
            "contract": "contracts/PerpdexMarket.sol:PerpdexMarket",
            "label": "base",
            "offset": 0,
            "slot": "0",
            "type": "t_uint256"
          },
          {
            "astId": 8055,
            "contract": "contracts/PerpdexMarket.sol:PerpdexMarket",
            "label": "quote",
            "offset": 0,
            "slot": "1",
            "type": "t_uint256"
          },
          {
            "astId": 8057,
            "contract": "contracts/PerpdexMarket.sol:PerpdexMarket",
            "label": "totalLiquidity",
            "offset": 0,
            "slot": "2",
            "type": "t_uint256"
          },
          {
            "astId": 8059,
            "contract": "contracts/PerpdexMarket.sol:PerpdexMarket",
            "label": "cumBasePerLiquidityX96",
            "offset": 0,
            "slot": "3",
            "type": "t_uint256"
          },
          {
            "astId": 8061,
            "contract": "contracts/PerpdexMarket.sol:PerpdexMarket",
            "label": "cumQuotePerLiquidityX96",
            "offset": 0,
            "slot": "4",
            "type": "t_uint256"
          },
          {
            "astId": 8063,
            "contract": "contracts/PerpdexMarket.sol:PerpdexMarket",
            "label": "baseBalancePerShareX96",
            "offset": 0,
            "slot": "5",
            "type": "t_uint256"
          }
        ],
        "numberOfBytes": "192"
      },
      "t_struct(PriceLimitConfig)8082_storage": {
        "encoding": "inplace",
        "label": "struct MarketStructs.PriceLimitConfig",
        "members": [
          {
            "astId": 8073,
            "contract": "contracts/PerpdexMarket.sol:PerpdexMarket",
            "label": "normalOrderRatio",
            "offset": 0,
            "slot": "0",
            "type": "t_uint24"
          },
          {
            "astId": 8075,
            "contract": "contracts/PerpdexMarket.sol:PerpdexMarket",
            "label": "liquidationRatio",
            "offset": 3,
            "slot": "0",
            "type": "t_uint24"
          },
          {
            "astId": 8077,
            "contract": "contracts/PerpdexMarket.sol:PerpdexMarket",
            "label": "emaNormalOrderRatio",
            "offset": 6,
            "slot": "0",
            "type": "t_uint24"
          },
          {
            "astId": 8079,
            "contract": "contracts/PerpdexMarket.sol:PerpdexMarket",
            "label": "emaLiquidationRatio",
            "offset": 9,
            "slot": "0",
            "type": "t_uint24"
          },
          {
            "astId": 8081,
            "contract": "contracts/PerpdexMarket.sol:PerpdexMarket",
            "label": "emaSec",
            "offset": 12,
            "slot": "0",
            "type": "t_uint32"
          }
        ],
        "numberOfBytes": "32"
      },
      "t_struct(PriceLimitInfo)8071_storage": {
        "encoding": "inplace",
        "label": "struct MarketStructs.PriceLimitInfo",
        "members": [
          {
            "astId": 8066,
            "contract": "contracts/PerpdexMarket.sol:PerpdexMarket",
            "label": "referencePrice",
            "offset": 0,
            "slot": "0",
            "type": "t_uint256"
          },
          {
            "astId": 8068,
            "contract": "contracts/PerpdexMarket.sol:PerpdexMarket",
            "label": "referenceTimestamp",
            "offset": 0,
            "slot": "1",
            "type": "t_uint256"
          },
          {
            "astId": 8070,
            "contract": "contracts/PerpdexMarket.sol:PerpdexMarket",
            "label": "emaPrice",
            "offset": 0,
            "slot": "2",
            "type": "t_uint256"
          }
        ],
        "numberOfBytes": "96"
      },
      "t_uint24": {
        "encoding": "inplace",
        "label": "uint24",
        "numberOfBytes": "3"
      },
      "t_uint256": {
        "encoding": "inplace",
        "label": "uint256",
        "numberOfBytes": "32"
      },
      "t_uint32": {
        "encoding": "inplace",
        "label": "uint32",
        "numberOfBytes": "4"
      }
    }
  }
}