{
  "address": "0xCA541aF2cC2a999d61f2F79D8A61f22eAfB97CBA",
  "abi": [
    {
      "inputs": [
        {
          "internalType": "string",
          "name": "symbolArg",
          "type": "string"
        },
        {
          "internalType": "address",
          "name": "exchangeArg",
          "type": "address"
        },
        {
          "internalType": "address",
          "name": "priceFeedArg",
          "type": "address"
        }
      ],
      "stateMutability": "nonpayable",
      "type": "constructor"
    },
    {
      "inputs": [
        {
          "internalType": "uint256",
          "name": "baseShare",
          "type": "uint256"
        },
        {
          "internalType": "uint256",
          "name": "quoteBalance",
          "type": "uint256"
        }
      ],
      "name": "addLiquidity",
      "outputs": [
        {
          "internalType": "uint256",
          "name": "",
          "type": "uint256"
        },
        {
          "internalType": "uint256",
          "name": "",
          "type": "uint256"
        },
        {
          "internalType": "uint256",
          "name": "",
          "type": "uint256"
        }
      ],
      "stateMutability": "nonpayable",
      "type": "function"
    },
    {
      "inputs": [
        {
          "internalType": "uint256",
          "name": "balance",
          "type": "uint256"
        }
      ],
      "name": "balanceToShare",
      "outputs": [
        {
          "internalType": "uint256",
          "name": "",
          "type": "uint256"
        }
      ],
      "stateMutability": "view",
      "type": "function"
    },
    {
      "inputs": [],
      "name": "exchange",
      "outputs": [
        {
          "internalType": "address",
          "name": "",
          "type": "address"
        }
      ],
      "stateMutability": "view",
      "type": "function"
    },
    {
      "inputs": [],
      "name": "fundingInfo",
      "outputs": [
        {
          "internalType": "uint256",
          "name": "balancePerShare",
          "type": "uint256"
        },
        {
          "internalType": "uint256",
          "name": "prevIndexPrice",
          "type": "uint256"
        },
        {
          "internalType": "uint256",
          "name": "prevIndexPriceTimestamp",
          "type": "uint256"
        }
      ],
      "stateMutability": "view",
      "type": "function"
    },
    {
      "inputs": [],
      "name": "fundingMaxElapsedSec",
      "outputs": [
        {
          "internalType": "uint32",
          "name": "",
          "type": "uint32"
        }
      ],
      "stateMutability": "view",
      "type": "function"
    },
    {
      "inputs": [],
      "name": "fundingMaxPremiumRatio",
      "outputs": [
        {
          "internalType": "uint24",
          "name": "",
          "type": "uint24"
        }
      ],
      "stateMutability": "view",
      "type": "function"
    },
    {
      "inputs": [],
      "name": "fundingRolloverSec",
      "outputs": [
        {
          "internalType": "uint32",
          "name": "",
          "type": "uint32"
        }
      ],
      "stateMutability": "view",
      "type": "function"
    },
    {
      "inputs": [
        {
          "internalType": "uint256",
          "name": "liquidity",
          "type": "uint256"
        }
      ],
      "name": "getLiquidityValue",
      "outputs": [
        {
          "internalType": "uint256",
          "name": "",
          "type": "uint256"
        },
        {
          "internalType": "uint256",
          "name": "",
          "type": "uint256"
        }
      ],
      "stateMutability": "view",
      "type": "function"
    },
    {
      "inputs": [],
      "name": "getMarkPriceX96",
      "outputs": [
        {
          "internalType": "uint256",
          "name": "",
          "type": "uint256"
        }
      ],
      "stateMutability": "view",
      "type": "function"
    },
    {
      "inputs": [],
      "name": "poolFeeRatio",
      "outputs": [
        {
          "internalType": "uint24",
          "name": "",
          "type": "uint24"
        }
      ],
      "stateMutability": "view",
      "type": "function"
    },
    {
      "inputs": [],
      "name": "poolInfo",
      "outputs": [
        {
          "internalType": "uint256",
          "name": "base",
          "type": "uint256"
        },
        {
          "internalType": "uint256",
          "name": "quote",
          "type": "uint256"
        },
        {
          "internalType": "uint256",
          "name": "totalLiquidity",
          "type": "uint256"
        }
      ],
      "stateMutability": "view",
      "type": "function"
    },
    {
      "inputs": [],
      "name": "priceFeed",
      "outputs": [
        {
          "internalType": "address",
          "name": "",
          "type": "address"
        }
      ],
      "stateMutability": "view",
      "type": "function"
    },
    {
      "inputs": [
        {
          "internalType": "uint256",
          "name": "liquidity",
          "type": "uint256"
        }
      ],
      "name": "removeLiquidity",
      "outputs": [
        {
          "internalType": "uint256",
          "name": "",
          "type": "uint256"
        },
        {
          "internalType": "uint256",
          "name": "",
          "type": "uint256"
        }
      ],
      "stateMutability": "nonpayable",
      "type": "function"
    },
    {
      "inputs": [
        {
          "internalType": "uint32",
          "name": "value",
          "type": "uint32"
        }
      ],
      "name": "setFundingMaxElapsedSec",
      "outputs": [],
      "stateMutability": "nonpayable",
      "type": "function"
    },
    {
      "inputs": [
        {
          "internalType": "uint24",
          "name": "value",
          "type": "uint24"
        }
      ],
      "name": "setFundingMaxPremiumRatio",
      "outputs": [],
      "stateMutability": "nonpayable",
      "type": "function"
    },
    {
      "inputs": [
        {
          "internalType": "uint32",
          "name": "value",
          "type": "uint32"
        }
      ],
      "name": "setFundingRolloverSec",
      "outputs": [],
      "stateMutability": "nonpayable",
      "type": "function"
    },
    {
      "inputs": [
        {
          "internalType": "uint24",
          "name": "value",
          "type": "uint24"
        }
      ],
      "name": "setPoolFeeRatio",
      "outputs": [],
      "stateMutability": "nonpayable",
      "type": "function"
    },
    {
      "inputs": [
        {
          "internalType": "uint256",
          "name": "share",
          "type": "uint256"
        }
      ],
      "name": "shareToBalance",
      "outputs": [
        {
          "internalType": "uint256",
          "name": "",
          "type": "uint256"
        }
      ],
      "stateMutability": "view",
      "type": "function"
    },
    {
      "inputs": [
        {
          "internalType": "bool",
          "name": "isBaseToQuote",
          "type": "bool"
        },
        {
          "internalType": "bool",
          "name": "isExactInput",
          "type": "bool"
        },
        {
          "internalType": "uint256",
          "name": "amount",
          "type": "uint256"
        }
      ],
      "name": "swap",
      "outputs": [
        {
          "internalType": "uint256",
          "name": "",
          "type": "uint256"
        }
      ],
      "stateMutability": "nonpayable",
      "type": "function"
    },
    {
      "inputs": [],
      "name": "symbol",
      "outputs": [
        {
          "internalType": "string",
          "name": "",
          "type": "string"
        }
      ],
      "stateMutability": "view",
      "type": "function"
    }
  ],
  "transactionHash": "0xfde2c9939561215d692095b95e64c705b6412a6e227d01b475c838a3d201e320",
  "args": [
    "USD",
    "0xE17a0424AD921ef4c3F1FbD445Eb3903Ec2EAC40",
    "0x8F9aC0A22e5aC2A6dda0C1d4Ce17B5c079D094F0"
  ],
  "numDeployments": 2,
  "solcInputHash": "6da403cefb707c9867f8d2226be5c288",
  "bytecode": "0x60c06040523480156200001157600080fd5b50604051620017fb380380620017fb833981810160405260608110156200003757600080fd5b81019080805160405193929190846401000000008211156200005857600080fd5b9083019060208201858111156200006e57600080fd5b82516401000000008111828201881017156200008957600080fd5b82525081516020918201929091019080838360005b83811015620000b85781810151838201526020016200009e565b50505050905090810190601f168015620000e65780820380516001836020036101000a031916815260200191505b50604090815260208281015192909101519193509091506200011c906001600160a01b03841690620008286200024e821b17901c565b62000158576040805162461bcd60e51b815260206004820152600760248201526642545f45414e4360c81b604482015290519081900360640190fd5b62000177816001600160a01b03166200024e60201b620008281760201c565b620001b3576040805162461bcd60e51b815260206004820152600760248201526642545f50414e4360c81b604482015290519081900360640190fd5b8251620001c890600090602086019062000269565b50606082811b6001600160601b03199081166080529082901b1660a052620001fd600462000254602090811b6200082e17901c565b505060078054610bb862ffffff199091161765ffffff00000019166427100000001763ffffffff60301b1916680151800000000000001763ffffffff60501b19166102a360571b1790555062000315565b3b151590565b68010000000000000000815542600290910155565b828054600181600116156101000203166002900490600052602060002090601f016020900481019282620002a15760008555620002ec565b82601f10620002bc57805160ff1916838001178555620002ec565b82800160010185558215620002ec579182015b82811115620002ec578251825591602001919060010190620002cf565b50620002fa929150620002fe565b5090565b5b80821115620002fa5760008155600101620002ff565b60805160601c60a05160601c6114a8620003536000398061050652806108c55250806104585280610695528061072052806107fa52506114a86000f3fe608060405234801561001057600080fd5b506004361061012c5760003560e01c80637661ce13116100ad5780639c8f9f23116100715780639c8f9f23146103695780639cd441da146103865780639d67bf03146103a9578063d2f7265a146103cc578063dba49153146103d45761012c565b80637661ce131461029c578063796c20b7146102a457806381955105146102c757806388e27dfb146102e457806395d89b41146102ec5761012c565b8063630e375f116100f4578063630e375f146101eb578063741bef1a146102185780637452fadd1461023c57806374f25689146102445780637640482f146102665761012c565b806301e0df12146101315780631363bdd314610155578063186f181e146101845780633aa3e650146101a55780635a2f3d09146101c5575b600080fd5b6101536004803603602081101561014757600080fd5b503562ffffff166103dc565b005b6101726004803603602081101561016b57600080fd5b503561040a565b60408051918252519081900360200190f35b61018c610423565b6040805163ffffffff9092168252519081900360200190f35b6101ad610436565b6040805162ffffff9092168252519081900360200190f35b6101cd610448565b60408051938452602084019290925282820152519081900360600190f35b6101726004803603606081101561020157600080fd5b508035151590602081013515159060400135610454565b610220610504565b604080516001600160a01b039092168252519081900360200190f35b610172610528565b6101536004803603602081101561025a57600080fd5b503562ffffff16610548565b6102836004803603602081101561027c57600080fd5b5035610580565b6040805192835260208301919091528051918290030190f35b61018c610597565b610153600480360360208110156102ba57600080fd5b503563ffffffff166105aa565b610172600480360360208110156102dd57600080fd5b50356105e6565b6101ad6105f7565b6102f4610602565b6040805160208082528351818301528351919283929083019185019080838360005b8381101561032e578181015183820152602001610316565b50505050905090810190601f16801561035b5780820380516001836020036101000a031916815260200191505b509250505060405180910390f35b6102836004803603602081101561037f57600080fd5b5035610690565b6101cd6004803603604081101561039c57600080fd5b508035906020013561071a565b610153600480360360208110156103bf57600080fd5b503563ffffffff166107b9565b6102206107f8565b6101cd61081c565b620f42408162ffffff16106103f057600080fd5b6007805462ffffff191662ffffff92909216919091179055565b60045460009061041b90839061083e565b90505b919050565b600754600160501b900463ffffffff1681565b6007546301000000900462ffffff1681565b60015460025460035483565b60007f00000000000000000000000000000000000000000000000000000000000000006001600160a01b031633146104bc576040805162461bcd60e51b815260206004820152600660248201526542545f434e4560d01b604482015290519081900360640190fd5b6104c46108a7565b604080516080810182528515158152841515602082015290810183905260075462ffffff1660608201526104fa90600190610939565b90505b9392505050565b7f000000000000000000000000000000000000000000000000000000000000000081565b600061054360046000015461053d6001610a4f565b9061083e565b905090565b620f42408162ffffff161061055c57600080fd5b6007805462ffffff90921663010000000265ffffff00000019909216919091179055565b60008061058e600184610a63565b91509150915091565b600754600160301b900463ffffffff1681565b62093a808163ffffffff1611156105c057600080fd5b6007805463ffffffff909216600160501b0263ffffffff60501b19909216919091179055565b60045460009061041b908390610a97565b60075462ffffff1681565b6000805460408051602060026001851615610100026000190190941693909304601f810184900484028201840190925281815292918301828280156106885780601f1061065d57610100808354040283529160200191610688565b820191906000526020600020905b81548152906001019060200180831161066b57829003601f168201915b505050505081565b6000807f00000000000000000000000000000000000000000000000000000000000000006001600160a01b031633146106f9576040805162461bcd60e51b815260206004820152600660248201526542545f434e4560d01b604482015290519081900360640190fd5b6107016108a7565b61058e6001604051806020016040528086815250610af0565b600080807f00000000000000000000000000000000000000000000000000000000000000006001600160a01b03163314610784576040805162461bcd60e51b815260206004820152600660248201526542545f434e4560d01b604482015290519081900360640190fd5b61078c6108a7565b6107ab6001604051806040016040528088815260200187815250610b7e565b9250925092505b9250925092565b62093a808163ffffffff1611156107cf57600080fd5b6007805463ffffffff909216600160301b0269ffffffff00000000000019909216919091179055565b7f000000000000000000000000000000000000000000000000000000000000000081565b60045460055460065483565b3b151590565b600160401b815542600290910155565b6000808211610894576040805162461bcd60e51b815260206004820152601a60248201527f536166654d6174683a206469766973696f6e206279207a65726f000000000000604482015290519081900360640190fd5b81838161089d57fe5b0490505b92915050565b60006108b1610528565b6040805160a0810182526001600160a01b037f00000000000000000000000000000000000000000000000000000000000000001681526020810183905260075462ffffff63010000008204169282019290925263ffffffff600160301b830481166060830152600160501b909204909116608082015290915061093690600490610cac565b50565b815460018301546000918291826109508383610a97565b60608701516020880151919250620f42400190156109d8578651156109a35761099c61099561098c838a60400151610e5590919063ffffffff16565b8490870161083e565b8490610e6a565b94506109d3565b6109d06109c96109c0838a60400151610e5590919063ffffffff16565b8490860161083e565b8590610e6a565b94505b610a36565b865115610a0957610a02846109fc896040015186038561083e90919063ffffffff16565b90610e6a565b9450610a29565b610a26836109fc896040015187038561083e90919063ffffffff16565b94505b610a338582610ec7565b94505b60008511610a4357600080fd5b50929695505050505050565b8054600182015460009161041b919061083e565b600080610a798385600001548660020154610edc565b610a8c8486600101548760020154610edc565b915091509250929050565b600082610aa6575060006108a1565b82820282848281610ab357fe5b04146104fd5760405162461bcd60e51b81526004018080602001828103825260218152602001806114066021913960400191505060405180910390fd5b81546001830154600284015483516000938493909290918490610b14908584610edc565b90506000610b2788600001518585610edc565b9050600082118015610b395750600081115b610b4257600080fd5b610b4c8583610e6a565b8955610b588482610e6a565b60018a01558751610b6a908490610e6a565b60028a015590955093505050509250929050565b60028201546000908190819080610bed578451808755602086015160018801819055600091610bb691610bb19190610a97565b610f95565b90506103e88111610bc657600080fd5b6002870181905585516020870151610be0836103e8610e6a565b94509450945050506107b2565b8554600187015486516020880151600091610c1291610c0d908686610edc565b610fe6565b90506000610c2d8960200151610c0d8b600001518688610edc565b90506000610c4a610c3f848888610edc565b610c0d848988610edc565b9050600083118015610c5c5750600082115b8015610c685750600081115b610c7157600080fd5b610c7b8584610ffc565b8b55610c878483610ffc565b60018c0155610c968682610ffc565b60028c0155919750955093505050509250925092565b60028201544290600090610cc1908390610e6a565b905080610ccf575050610e51565b600083600001516001600160a01b03166398d5fdca6040518163ffffffff1660e01b815260040160206040518083038186803b158015610d0e57600080fd5b505afa158015610d22573d6000803e3d6000fd5b505050506040513d601f19601f82011682018060405250810190610d4691906113b6565b90508085600101541480610d58575080155b15610d6557505050610e51565b610d7982856060015163ffffffff16610fe6565b91506000610d8a600160601b611056565b610da5610da08760200151600160601b86610edc565b611056565b0390506000610dc8610da08760400151600160601b610ec790919063ffffffff16565b9050610de2610dd782846110a2565b6000839003906110b1565b91506000610e0d610df286611056565b886080015163ffffffff16856110c19092919063ffffffff16565b9050610e408860000154600160601b610e3b610e3685610e30600160601b611056565b90611165565b6111ca565b610edc565b885550505060018501555060028301555b5050565b60006104fd83620f42408462ffffff16611221565b600082821115610ec1576040805162461bcd60e51b815260206004820152601e60248201527f536166654d6174683a207375627472616374696f6e206f766572666c6f770000604482015290519081900360640190fd5b50900390565b60006104fd838362ffffff16620f4240611221565b6000806000610eeb86866112d0565b9150915060008480610ef957fe5b868809905082811115610f0d576001820391505b918290039181610f2b57848381610f2057fe5b0493505050506104fd565b848210610f7f576040805162461bcd60e51b815260206004820152601a60248201527f46756c6c4d6174683a2046554c4c4449565f4f564552464c4f57000000000000604482015290519081900360640190fd5b610f8a8383876112fd565b979650505050505050565b60006003821115610fd8575080600160028204015b81811015610fd257809150600281828581610fc157fe5b040181610fca57fe5b049050610faa565b5061041e565b811561041e57506001919050565b6000818310610ff557816104fd565b5090919050565b6000828201838110156104fd576040805162461bcd60e51b815260206004820152601b60248201527f536166654d6174683a206164646974696f6e206f766572666c6f770000000000604482015290519081900360640190fd5b60006001600160ff1b0382111561109e5760405162461bcd60e51b81526004018080602001828103825260288152602001806114276028913960400191505060405180910390fd5b5090565b6000818312610ff557816104fd565b600081831215610ff557816104fd565b600080600085126110d257846110db565b6110db8561136d565b905060008085126110ec57846110f5565b6110f58561136d565b9050600080871280156111085750600086135b8061111e575060008713801561111e5750600086125b61112957600061112c565b60015b9050600061113b848488611221565b9050816111505761114b81611056565b611159565b611159816113a2565b98975050505050505050565b600081830381831280159061117a5750838113155b8061118f575060008312801561118f57508381135b6104fd5760405162461bcd60e51b815260040180806020018281038252602481526020018061144f6024913960400191505060405180910390fd5b60008082121561109e576040805162461bcd60e51b815260206004820181905260248201527f53616665436173743a2076616c7565206d75737420626520706f736974697665604482015290519081900360640190fd5b6000808060001985870986860292508281109083900303905080611257576000841161124c57600080fd5b5082900490506104fd565b80841161126357600080fd5b6000848688096000868103871696879004966002600389028118808a02820302808a02820302808a02820302808a02820302808a02820302808a02909103029181900381900460010186841190950394909402919094039290920491909117919091029150509392505050565b60008080600019848609905083850292508281039150828110156112f5576001820391505b509250929050565b6000818103821680838161130d57fe5b04925080858161131957fe5b04945080816000038161132857fe5b60028581038087028203028087028203028087028203028087028203028087028203028087028203029586029003909402930460010193909302939093010292915050565b6000600160ff1b821361139b5760405162461bcd60e51b8152600401611392906113ce565b60405180910390fd5b5060000390565b60006113ad82611056565b60000392915050565b6000602082840312156113c7578081fd5b5051919050565b6020808252601c908201527f506572704d6174683a20696e76657273696f6e206f766572666c6f770000000060408201526060019056fe536166654d6174683a206d756c7469706c69636174696f6e206f766572666c6f7753616665436173743a2076616c756520646f65736e27742066697420696e20616e20696e743235365369676e6564536166654d6174683a207375627472616374696f6e206f766572666c6f77a26469706673582212209e86d1f6a839349a1dc0c45204261bfe6e6f0d6f8175b8ed0b1c965423c4380864736f6c63430007060033",
  "devdoc": {
    "kind": "dev",
    "methods": {},
    "version": 1
  },
  "userdoc": {
    "kind": "user",
    "methods": {},
    "version": 1
  },
  "storageLayout": {
    "storage": [
      {
        "astId": 31685,
        "contract": "contracts/PerpdexMarket.sol:PerpdexMarket",
        "label": "symbol",
        "offset": 0,
        "slot": "0",
        "type": "t_string_storage"
      },
      {
        "astId": 31692,
        "contract": "contracts/PerpdexMarket.sol:PerpdexMarket",
        "label": "poolInfo",
        "offset": 0,
        "slot": "1",
        "type": "t_struct(PoolInfo)48857_storage"
      },
      {
        "astId": 31694,
        "contract": "contracts/PerpdexMarket.sol:PerpdexMarket",
        "label": "fundingInfo",
        "offset": 0,
        "slot": "4",
        "type": "t_struct(FundingInfo)48850_storage"
      },
      {
        "astId": 31696,
        "contract": "contracts/PerpdexMarket.sol:PerpdexMarket",
        "label": "poolFeeRatio",
        "offset": 0,
        "slot": "7",
        "type": "t_uint24"
      },
      {
        "astId": 31698,
        "contract": "contracts/PerpdexMarket.sol:PerpdexMarket",
        "label": "fundingMaxPremiumRatio",
        "offset": 3,
        "slot": "7",
        "type": "t_uint24"
      },
      {
        "astId": 31700,
        "contract": "contracts/PerpdexMarket.sol:PerpdexMarket",
        "label": "fundingMaxElapsedSec",
        "offset": 6,
        "slot": "7",
        "type": "t_uint32"
      },
      {
        "astId": 31702,
        "contract": "contracts/PerpdexMarket.sol:PerpdexMarket",
        "label": "fundingRolloverSec",
        "offset": 10,
        "slot": "7",
        "type": "t_uint32"
      }
    ],
    "types": {
      "t_string_storage": {
        "encoding": "bytes",
        "label": "string",
        "numberOfBytes": "32"
      },
      "t_struct(FundingInfo)48850_storage": {
        "encoding": "inplace",
        "label": "struct MarketStructs.FundingInfo",
        "members": [
          {
            "astId": 48845,
            "contract": "contracts/PerpdexMarket.sol:PerpdexMarket",
            "label": "balancePerShare",
            "offset": 0,
            "slot": "0",
            "type": "t_uint256"
          },
          {
            "astId": 48847,
            "contract": "contracts/PerpdexMarket.sol:PerpdexMarket",
            "label": "prevIndexPrice",
            "offset": 0,
            "slot": "1",
            "type": "t_uint256"
          },
          {
            "astId": 48849,
            "contract": "contracts/PerpdexMarket.sol:PerpdexMarket",
            "label": "prevIndexPriceTimestamp",
            "offset": 0,
            "slot": "2",
            "type": "t_uint256"
          }
        ],
        "numberOfBytes": "96"
      },
      "t_struct(PoolInfo)48857_storage": {
        "encoding": "inplace",
        "label": "struct MarketStructs.PoolInfo",
        "members": [
          {
            "astId": 48852,
            "contract": "contracts/PerpdexMarket.sol:PerpdexMarket",
            "label": "base",
            "offset": 0,
            "slot": "0",
            "type": "t_uint256"
          },
          {
            "astId": 48854,
            "contract": "contracts/PerpdexMarket.sol:PerpdexMarket",
            "label": "quote",
            "offset": 0,
            "slot": "1",
            "type": "t_uint256"
          },
          {
            "astId": 48856,
            "contract": "contracts/PerpdexMarket.sol:PerpdexMarket",
            "label": "totalLiquidity",
            "offset": 0,
            "slot": "2",
            "type": "t_uint256"
          }
        ],
        "numberOfBytes": "96"
      },
      "t_uint24": {
        "encoding": "inplace",
        "label": "uint24",
        "numberOfBytes": "3"
      },
      "t_uint256": {
        "encoding": "inplace",
        "label": "uint256",
        "numberOfBytes": "32"
      },
      "t_uint32": {
        "encoding": "inplace",
        "label": "uint32",
        "numberOfBytes": "4"
      }
    }
  }
}