{
  "address": "0x8b6D4Cf44D2E3a0e4B574dC99958473f7431470b",
  "abi": [
    {
      "inputs": [
        {
          "internalType": "address",
          "name": "settlementTokenArg",
          "type": "address"
        }
      ],
      "stateMutability": "nonpayable",
      "type": "constructor"
    },
    {
      "anonymous": false,
      "inputs": [
        {
          "indexed": true,
          "internalType": "address",
          "name": "trader",
          "type": "address"
        },
        {
          "indexed": false,
          "internalType": "uint256",
          "name": "amount",
          "type": "uint256"
        }
      ],
      "name": "Deposited",
      "type": "event"
    },
    {
      "anonymous": false,
      "inputs": [
        {
          "indexed": true,
          "internalType": "address",
          "name": "trader",
          "type": "address"
        },
        {
          "indexed": false,
          "internalType": "uint256",
          "name": "amount",
          "type": "uint256"
        }
      ],
      "name": "InsuranceFundTransferred",
      "type": "event"
    },
    {
      "anonymous": false,
      "inputs": [
        {
          "indexed": true,
          "internalType": "address",
          "name": "market",
          "type": "address"
        },
        {
          "indexed": false,
          "internalType": "bool",
          "name": "isMarketAllowed",
          "type": "bool"
        }
      ],
      "name": "IsMarketAllowedChanged",
      "type": "event"
    },
    {
      "anonymous": false,
      "inputs": [
        {
          "indexed": true,
          "internalType": "address",
          "name": "maker",
          "type": "address"
        },
        {
          "indexed": true,
          "internalType": "address",
          "name": "market",
          "type": "address"
        },
        {
          "indexed": false,
          "internalType": "int256",
          "name": "base",
          "type": "int256"
        },
        {
          "indexed": false,
          "internalType": "int256",
          "name": "quote",
          "type": "int256"
        },
        {
          "indexed": false,
          "internalType": "int256",
          "name": "liquidity",
          "type": "int256"
        }
      ],
      "name": "LiquidityChanged",
      "type": "event"
    },
    {
      "anonymous": false,
      "inputs": [
        {
          "indexed": true,
          "internalType": "address",
          "name": "previousOwner",
          "type": "address"
        },
        {
          "indexed": true,
          "internalType": "address",
          "name": "newOwner",
          "type": "address"
        }
      ],
      "name": "OwnershipTransferred",
      "type": "event"
    },
    {
      "anonymous": false,
      "inputs": [
        {
          "indexed": true,
          "internalType": "address",
          "name": "trader",
          "type": "address"
        },
        {
          "indexed": true,
          "internalType": "address",
          "name": "market",
          "type": "address"
        },
        {
          "indexed": false,
          "internalType": "int256",
          "name": "exchangedPositionSize",
          "type": "int256"
        },
        {
          "indexed": false,
          "internalType": "int256",
          "name": "exchangedPositionNotional",
          "type": "int256"
        },
        {
          "indexed": false,
          "internalType": "int256",
          "name": "openNotional",
          "type": "int256"
        },
        {
          "indexed": false,
          "internalType": "int256",
          "name": "realizedPnl",
          "type": "int256"
        },
        {
          "indexed": false,
          "internalType": "uint256",
          "name": "priceAfterX96",
          "type": "uint256"
        }
      ],
      "name": "PositionChanged",
      "type": "event"
    },
    {
      "anonymous": false,
      "inputs": [
        {
          "indexed": true,
          "internalType": "address",
          "name": "trader",
          "type": "address"
        },
        {
          "indexed": true,
          "internalType": "address",
          "name": "market",
          "type": "address"
        },
        {
          "indexed": false,
          "internalType": "uint256",
          "name": "positionNotional",
          "type": "uint256"
        },
        {
          "indexed": false,
          "internalType": "uint256",
          "name": "positionSize",
          "type": "uint256"
        },
        {
          "indexed": false,
          "internalType": "uint256",
          "name": "liquidationFee",
          "type": "uint256"
        },
        {
          "indexed": false,
          "internalType": "address",
          "name": "liquidator",
          "type": "address"
        }
      ],
      "name": "PositionLiquidated",
      "type": "event"
    },
    {
      "anonymous": false,
      "inputs": [
        {
          "indexed": true,
          "internalType": "address",
          "name": "trader",
          "type": "address"
        },
        {
          "indexed": false,
          "internalType": "uint256",
          "name": "amount",
          "type": "uint256"
        }
      ],
      "name": "ProtocolFeeTransferred",
      "type": "event"
    },
    {
      "anonymous": false,
      "inputs": [
        {
          "indexed": true,
          "internalType": "address",
          "name": "trader",
          "type": "address"
        },
        {
          "indexed": false,
          "internalType": "uint256",
          "name": "amount",
          "type": "uint256"
        }
      ],
      "name": "Withdrawn",
      "type": "event"
    },
    {
      "inputs": [
        {
          "internalType": "address",
          "name": "",
          "type": "address"
        }
      ],
      "name": "accountInfos",
      "outputs": [
        {
          "components": [
            {
              "internalType": "int256",
              "name": "collateralBalance",
              "type": "int256"
            }
          ],
          "internalType": "struct PerpdexStructs.VaultInfo",
          "name": "vaultInfo",
          "type": "tuple"
        }
      ],
      "stateMutability": "view",
      "type": "function"
    },
    {
      "inputs": [
        {
          "components": [
            {
              "internalType": "address",
              "name": "market",
              "type": "address"
            },
            {
              "internalType": "uint256",
              "name": "base",
              "type": "uint256"
            },
            {
              "internalType": "uint256",
              "name": "quote",
              "type": "uint256"
            },
            {
              "internalType": "uint256",
              "name": "minBase",
              "type": "uint256"
            },
            {
              "internalType": "uint256",
              "name": "minQuote",
              "type": "uint256"
            },
            {
              "internalType": "uint256",
              "name": "deadline",
              "type": "uint256"
            }
          ],
          "internalType": "struct IPerpdexExchange.AddLiquidityParams",
          "name": "params",
          "type": "tuple"
        }
      ],
      "name": "addLiquidity",
      "outputs": [
        {
          "components": [
            {
              "internalType": "uint256",
              "name": "base",
              "type": "uint256"
            },
            {
              "internalType": "uint256",
              "name": "quote",
              "type": "uint256"
            },
            {
              "internalType": "uint256",
              "name": "liquidity",
              "type": "uint256"
            }
          ],
          "internalType": "struct IPerpdexExchange.AddLiquidityResponse",
          "name": "",
          "type": "tuple"
        }
      ],
      "stateMutability": "nonpayable",
      "type": "function"
    },
    {
      "inputs": [
        {
          "internalType": "uint256",
          "name": "amount",
          "type": "uint256"
        }
      ],
      "name": "deposit",
      "outputs": [],
      "stateMutability": "payable",
      "type": "function"
    },
    {
      "inputs": [
        {
          "internalType": "address",
          "name": "trader",
          "type": "address"
        }
      ],
      "name": "getAccountMarkets",
      "outputs": [
        {
          "internalType": "address[]",
          "name": "",
          "type": "address[]"
        }
      ],
      "stateMutability": "view",
      "type": "function"
    },
    {
      "inputs": [
        {
          "internalType": "address",
          "name": "trader",
          "type": "address"
        },
        {
          "internalType": "address",
          "name": "market",
          "type": "address"
        }
      ],
      "name": "getMakerInfo",
      "outputs": [
        {
          "components": [
            {
              "internalType": "uint256",
              "name": "baseDebtShare",
              "type": "uint256"
            },
            {
              "internalType": "uint256",
              "name": "quoteDebt",
              "type": "uint256"
            },
            {
              "internalType": "uint256",
              "name": "liquidity",
              "type": "uint256"
            },
            {
              "internalType": "uint256",
              "name": "cumDeleveragedBaseSharePerLiquidityX96",
              "type": "uint256"
            },
            {
              "internalType": "uint256",
              "name": "cumDeleveragedQuotePerLiquidityX96",
              "type": "uint256"
            }
          ],
          "internalType": "struct PerpdexStructs.MakerInfo",
          "name": "",
          "type": "tuple"
        }
      ],
      "stateMutability": "view",
      "type": "function"
    },
    {
      "inputs": [
        {
          "internalType": "address",
          "name": "trader",
          "type": "address"
        },
        {
          "internalType": "address",
          "name": "market",
          "type": "address"
        }
      ],
      "name": "getOpenPositionNotional",
      "outputs": [
        {
          "internalType": "uint256",
          "name": "",
          "type": "uint256"
        }
      ],
      "stateMutability": "view",
      "type": "function"
    },
    {
      "inputs": [
        {
          "internalType": "address",
          "name": "trader",
          "type": "address"
        },
        {
          "internalType": "address",
          "name": "market",
          "type": "address"
        }
      ],
      "name": "getOpenPositionShare",
      "outputs": [
        {
          "internalType": "uint256",
          "name": "",
          "type": "uint256"
        }
      ],
      "stateMutability": "view",
      "type": "function"
    },
    {
      "inputs": [
        {
          "internalType": "address",
          "name": "trader",
          "type": "address"
        },
        {
          "internalType": "address",
          "name": "market",
          "type": "address"
        }
      ],
      "name": "getPositionNotional",
      "outputs": [
        {
          "internalType": "int256",
          "name": "",
          "type": "int256"
        }
      ],
      "stateMutability": "view",
      "type": "function"
    },
    {
      "inputs": [
        {
          "internalType": "address",
          "name": "trader",
          "type": "address"
        },
        {
          "internalType": "address",
          "name": "market",
          "type": "address"
        }
      ],
      "name": "getPositionShare",
      "outputs": [
        {
          "internalType": "int256",
          "name": "",
          "type": "int256"
        }
      ],
      "stateMutability": "view",
      "type": "function"
    },
    {
      "inputs": [
        {
          "internalType": "address",
          "name": "trader",
          "type": "address"
        },
        {
          "internalType": "address",
          "name": "market",
          "type": "address"
        }
      ],
      "name": "getTakerInfo",
      "outputs": [
        {
          "components": [
            {
              "internalType": "int256",
              "name": "baseBalanceShare",
              "type": "int256"
            },
            {
              "internalType": "int256",
              "name": "quoteBalance",
              "type": "int256"
            }
          ],
          "internalType": "struct PerpdexStructs.TakerInfo",
          "name": "",
          "type": "tuple"
        }
      ],
      "stateMutability": "view",
      "type": "function"
    },
    {
      "inputs": [
        {
          "internalType": "address",
          "name": "trader",
          "type": "address"
        }
      ],
      "name": "getTotalAccountValue",
      "outputs": [
        {
          "internalType": "int256",
          "name": "",
          "type": "int256"
        }
      ],
      "stateMutability": "view",
      "type": "function"
    },
    {
      "inputs": [
        {
          "internalType": "address",
          "name": "trader",
          "type": "address"
        }
      ],
      "name": "getTotalOpenPositionNotional",
      "outputs": [
        {
          "internalType": "uint256",
          "name": "",
          "type": "uint256"
        }
      ],
      "stateMutability": "view",
      "type": "function"
    },
    {
      "inputs": [
        {
          "internalType": "address",
          "name": "trader",
          "type": "address"
        }
      ],
      "name": "getTotalPositionNotional",
      "outputs": [
        {
          "internalType": "uint256",
          "name": "",
          "type": "uint256"
        }
      ],
      "stateMutability": "view",
      "type": "function"
    },
    {
      "inputs": [
        {
          "internalType": "address",
          "name": "trader",
          "type": "address"
        }
      ],
      "name": "hasEnoughInitialMargin",
      "outputs": [
        {
          "internalType": "bool",
          "name": "",
          "type": "bool"
        }
      ],
      "stateMutability": "view",
      "type": "function"
    },
    {
      "inputs": [
        {
          "internalType": "address",
          "name": "trader",
          "type": "address"
        }
      ],
      "name": "hasEnoughMaintenanceMargin",
      "outputs": [
        {
          "internalType": "bool",
          "name": "",
          "type": "bool"
        }
      ],
      "stateMutability": "view",
      "type": "function"
    },
    {
      "inputs": [],
      "name": "imRatio",
      "outputs": [
        {
          "internalType": "uint24",
          "name": "",
          "type": "uint24"
        }
      ],
      "stateMutability": "view",
      "type": "function"
    },
    {
      "inputs": [],
      "name": "insuranceFundInfo",
      "outputs": [
        {
          "internalType": "int256",
          "name": "balance",
          "type": "int256"
        }
      ],
      "stateMutability": "view",
      "type": "function"
    },
    {
      "inputs": [
        {
          "internalType": "address",
          "name": "",
          "type": "address"
        }
      ],
      "name": "isMarketAllowed",
      "outputs": [
        {
          "internalType": "bool",
          "name": "",
          "type": "bool"
        }
      ],
      "stateMutability": "view",
      "type": "function"
    },
    {
      "inputs": [
        {
          "components": [
            {
              "internalType": "address",
              "name": "trader",
              "type": "address"
            },
            {
              "internalType": "address",
              "name": "market",
              "type": "address"
            },
            {
              "internalType": "uint256",
              "name": "amount",
              "type": "uint256"
            },
            {
              "internalType": "uint256",
              "name": "oppositeAmountBound",
              "type": "uint256"
            },
            {
              "internalType": "uint256",
              "name": "deadline",
              "type": "uint256"
            }
          ],
          "internalType": "struct IPerpdexExchange.LiquidateParams",
          "name": "params",
          "type": "tuple"
        }
      ],
      "name": "liquidate",
      "outputs": [
        {
          "internalType": "int256",
          "name": "base",
          "type": "int256"
        },
        {
          "internalType": "int256",
          "name": "quote",
          "type": "int256"
        }
      ],
      "stateMutability": "nonpayable",
      "type": "function"
    },
    {
      "inputs": [],
      "name": "liquidationRewardRatio",
      "outputs": [
        {
          "internalType": "uint24",
          "name": "",
          "type": "uint24"
        }
      ],
      "stateMutability": "view",
      "type": "function"
    },
    {
      "inputs": [],
      "name": "maxMarketsPerAccount",
      "outputs": [
        {
          "internalType": "uint8",
          "name": "",
          "type": "uint8"
        }
      ],
      "stateMutability": "view",
      "type": "function"
    },
    {
      "inputs": [],
      "name": "mmRatio",
      "outputs": [
        {
          "internalType": "uint24",
          "name": "",
          "type": "uint24"
        }
      ],
      "stateMutability": "view",
      "type": "function"
    },
    {
      "inputs": [
        {
          "components": [
            {
              "internalType": "address",
              "name": "market",
              "type": "address"
            },
            {
              "internalType": "bool",
              "name": "isBaseToQuote",
              "type": "bool"
            },
            {
              "internalType": "bool",
              "name": "isExactInput",
              "type": "bool"
            },
            {
              "internalType": "uint256",
              "name": "amount",
              "type": "uint256"
            },
            {
              "internalType": "uint256",
              "name": "oppositeAmountBound",
              "type": "uint256"
            },
            {
              "internalType": "uint256",
              "name": "deadline",
              "type": "uint256"
            }
          ],
          "internalType": "struct IPerpdexExchange.OpenPositionParams",
          "name": "params",
          "type": "tuple"
        }
      ],
      "name": "openPosition",
      "outputs": [
        {
          "internalType": "int256",
          "name": "base",
          "type": "int256"
        },
        {
          "internalType": "int256",
          "name": "quote",
          "type": "int256"
        }
      ],
      "stateMutability": "nonpayable",
      "type": "function"
    },
    {
      "inputs": [
        {
          "components": [
            {
              "internalType": "address",
              "name": "market",
              "type": "address"
            },
            {
              "internalType": "bool",
              "name": "isBaseToQuote",
              "type": "bool"
            },
            {
              "internalType": "bool",
              "name": "isExactInput",
              "type": "bool"
            },
            {
              "internalType": "uint256",
              "name": "amount",
              "type": "uint256"
            },
            {
              "internalType": "uint256",
              "name": "oppositeAmountBound",
              "type": "uint256"
            },
            {
              "internalType": "uint256",
              "name": "deadline",
              "type": "uint256"
            }
          ],
          "internalType": "struct IPerpdexExchange.OpenPositionParams",
          "name": "params",
          "type": "tuple"
        },
        {
          "internalType": "address",
          "name": "trader",
          "type": "address"
        }
      ],
      "name": "openPositionDry",
      "outputs": [
        {
          "internalType": "int256",
          "name": "base",
          "type": "int256"
        },
        {
          "internalType": "int256",
          "name": "quote",
          "type": "int256"
        }
      ],
      "stateMutability": "view",
      "type": "function"
    },
    {
      "inputs": [],
      "name": "owner",
      "outputs": [
        {
          "internalType": "address",
          "name": "",
          "type": "address"
        }
      ],
      "stateMutability": "view",
      "type": "function"
    },
    {
      "inputs": [],
      "name": "priceLimitConfig",
      "outputs": [
        {
          "internalType": "uint24",
          "name": "priceLimitNormalOrderRatio",
          "type": "uint24"
        },
        {
          "internalType": "uint24",
          "name": "priceLimitLiquidationRatio",
          "type": "uint24"
        }
      ],
      "stateMutability": "view",
      "type": "function"
    },
    {
      "inputs": [
        {
          "internalType": "address",
          "name": "",
          "type": "address"
        }
      ],
      "name": "priceLimitInfos",
      "outputs": [
        {
          "internalType": "uint256",
          "name": "referencePrice",
          "type": "uint256"
        },
        {
          "internalType": "uint256",
          "name": "referenceTimestamp",
          "type": "uint256"
        }
      ],
      "stateMutability": "view",
      "type": "function"
    },
    {
      "inputs": [],
      "name": "protocolFeeRatio",
      "outputs": [
        {
          "internalType": "uint24",
          "name": "",
          "type": "uint24"
        }
      ],
      "stateMutability": "view",
      "type": "function"
    },
    {
      "inputs": [],
      "name": "protocolInfo",
      "outputs": [
        {
          "internalType": "uint256",
          "name": "protocolFee",
          "type": "uint256"
        }
      ],
      "stateMutability": "view",
      "type": "function"
    },
    {
      "inputs": [
        {
          "components": [
            {
              "internalType": "address",
              "name": "market",
              "type": "address"
            },
            {
              "internalType": "uint256",
              "name": "liquidity",
              "type": "uint256"
            },
            {
              "internalType": "uint256",
              "name": "minBase",
              "type": "uint256"
            },
            {
              "internalType": "uint256",
              "name": "minQuote",
              "type": "uint256"
            },
            {
              "internalType": "uint256",
              "name": "deadline",
              "type": "uint256"
            }
          ],
          "internalType": "struct IPerpdexExchange.RemoveLiquidityParams",
          "name": "params",
          "type": "tuple"
        },
        {
          "internalType": "address",
          "name": "maker",
          "type": "address"
        }
      ],
      "name": "removeLiquidity",
      "outputs": [
        {
          "components": [
            {
              "internalType": "uint256",
              "name": "base",
              "type": "uint256"
            },
            {
              "internalType": "uint256",
              "name": "quote",
              "type": "uint256"
            }
          ],
          "internalType": "struct IPerpdexExchange.RemoveLiquidityResponse",
          "name": "",
          "type": "tuple"
        }
      ],
      "stateMutability": "nonpayable",
      "type": "function"
    },
    {
      "inputs": [
        {
          "components": [
            {
              "internalType": "address",
              "name": "market",
              "type": "address"
            },
            {
              "internalType": "uint256",
              "name": "liquidity",
              "type": "uint256"
            },
            {
              "internalType": "uint256",
              "name": "minBase",
              "type": "uint256"
            },
            {
              "internalType": "uint256",
              "name": "minQuote",
              "type": "uint256"
            },
            {
              "internalType": "uint256",
              "name": "deadline",
              "type": "uint256"
            }
          ],
          "internalType": "struct IPerpdexExchange.RemoveLiquidityParams",
          "name": "params",
          "type": "tuple"
        }
      ],
      "name": "removeLiquidity",
      "outputs": [
        {
          "components": [
            {
              "internalType": "uint256",
              "name": "base",
              "type": "uint256"
            },
            {
              "internalType": "uint256",
              "name": "quote",
              "type": "uint256"
            }
          ],
          "internalType": "struct IPerpdexExchange.RemoveLiquidityResponse",
          "name": "",
          "type": "tuple"
        }
      ],
      "stateMutability": "nonpayable",
      "type": "function"
    },
    {
      "inputs": [],
      "name": "renounceOwnership",
      "outputs": [],
      "stateMutability": "nonpayable",
      "type": "function"
    },
    {
      "inputs": [
        {
          "internalType": "uint24",
          "name": "value",
          "type": "uint24"
        }
      ],
      "name": "setImRatio",
      "outputs": [],
      "stateMutability": "nonpayable",
      "type": "function"
    },
    {
      "inputs": [
        {
          "internalType": "address",
          "name": "market",
          "type": "address"
        },
        {
          "internalType": "bool",
          "name": "value",
          "type": "bool"
        }
      ],
      "name": "setIsMarketAllowed",
      "outputs": [],
      "stateMutability": "nonpayable",
      "type": "function"
    },
    {
      "inputs": [
        {
          "internalType": "uint24",
          "name": "value",
          "type": "uint24"
        }
      ],
      "name": "setLiquidationRewardRatio",
      "outputs": [],
      "stateMutability": "nonpayable",
      "type": "function"
    },
    {
      "inputs": [
        {
          "internalType": "uint8",
          "name": "value",
          "type": "uint8"
        }
      ],
      "name": "setMaxMarketsPerAccount",
      "outputs": [],
      "stateMutability": "nonpayable",
      "type": "function"
    },
    {
      "inputs": [
        {
          "internalType": "uint24",
          "name": "value",
          "type": "uint24"
        }
      ],
      "name": "setMmRatio",
      "outputs": [],
      "stateMutability": "nonpayable",
      "type": "function"
    },
    {
      "inputs": [
        {
          "components": [
            {
              "internalType": "uint24",
              "name": "priceLimitNormalOrderRatio",
              "type": "uint24"
            },
            {
              "internalType": "uint24",
              "name": "priceLimitLiquidationRatio",
              "type": "uint24"
            }
          ],
          "internalType": "struct PerpdexStructs.PriceLimitConfig",
          "name": "value",
          "type": "tuple"
        }
      ],
      "name": "setPriceLimitConfig",
      "outputs": [],
      "stateMutability": "nonpayable",
      "type": "function"
    },
    {
      "inputs": [
        {
          "internalType": "uint24",
          "name": "value",
          "type": "uint24"
        }
      ],
      "name": "setProtocolFeeRatio",
      "outputs": [],
      "stateMutability": "nonpayable",
      "type": "function"
    },
    {
      "inputs": [],
      "name": "settlementToken",
      "outputs": [
        {
          "internalType": "address",
          "name": "",
          "type": "address"
        }
      ],
      "stateMutability": "view",
      "type": "function"
    },
    {
      "inputs": [
        {
          "internalType": "uint256",
          "name": "amount",
          "type": "uint256"
        }
      ],
      "name": "transferInsuranceFund",
      "outputs": [],
      "stateMutability": "nonpayable",
      "type": "function"
    },
    {
      "inputs": [
        {
          "internalType": "address",
          "name": "newOwner",
          "type": "address"
        }
      ],
      "name": "transferOwnership",
      "outputs": [],
      "stateMutability": "nonpayable",
      "type": "function"
    },
    {
      "inputs": [
        {
          "internalType": "uint256",
          "name": "amount",
          "type": "uint256"
        }
      ],
      "name": "transferProtocolFee",
      "outputs": [],
      "stateMutability": "nonpayable",
      "type": "function"
    },
    {
      "inputs": [
        {
          "internalType": "uint256",
          "name": "amount",
          "type": "uint256"
        }
      ],
      "name": "withdraw",
      "outputs": [],
      "stateMutability": "nonpayable",
      "type": "function"
    }
  ],
  "transactionHash": "0x01d1a52305b236675419f4ec4adcef707ad4989a757b974ebca761d0325de537",
  "args": [
    "0x0000000000000000000000000000000000000000"
  ],
  "numDeployments": 3,
  "solcInputHash": "9b56ab0fb28c45ad273ac89b57dced95",
  "bytecode": "0x60e060405261c35060a0819052620186a060c0526006805462ffffff191690911765ffffff0000001916650186a000000017905560078054601060ff199091161763ffffff001916630186a0001762ffffff60201b191665c350000000001762ffffff60381b191669030d40000000000000001762ffffff60501b191690553480156200008b57600080fd5b506040516200512738038062005127833981016040819052620000ae9162000186565b60016000908155620000bf6200017c565b600180546001600160a01b0319166001600160a01b038316908117909155604051919250906000907f8be0079c531659141344cd1fd0a4f28419497f9722a3daafe3b4186f6b6457e0908290a3506001600160a01b03811615806200013e57506200013e816001600160a01b03166200018060201b620023e11760201c565b620001665760405162461bcd60e51b81526004016200015d90620001b6565b60405180910390fd5b60601b6001600160601b031916608052620001ed565b3390565b3b151590565b60006020828403121562000198578081fd5b81516001600160a01b0381168114620001af578182fd5b9392505050565b6020808252601b908201527f50455f433a20746f6b656e206164647265737320696e76616c69640000000000604082015260600190565b60805160601c614f0d6200021a60003980610b135280611566528061184f528061191c5250614f0d6000f3fe6080604052600436106102675760003560e01c80639317b19311610144578063c9ca7b18116100b6578063dfe1cb921161007a578063dfe1cb9214610740578063e72e43631461076d578063ec6cca841461078d578063f2fde38b146107ad578063f652b527146107cd578063fa8f0368146107ef57610267565b8063c9ca7b1814610693578063ca5b721e146106b3578063d11102c5146106d3578063d1ce35e314610700578063d1ead5631461072057610267565b8063b53c512511610108578063b53c5125146105e9578063b626164314610616578063b6b55f251461062b578063c2fdd42f1461063e578063c3afe1ce1461065e578063c66fa8e61461067e57610267565b80639317b1931461055257806393420cf414610572578063996fbf94146105875780639dce9e19146105a75780639f044f31146105d457610267565b806359af74f7116101dd57806373f62501116101a157806373f62501146104995780637a27d9f6146104b95780637b9e618d146104ce5780637c88490a146104f057806387cad0bf146105105780638da5cb5b1461053d57610267565b806359af74f7146104015780636346f32e146104215780636e838bad146104445780636fa2f6d914610464578063715018a61461048457610267565b80632f60a1511161022f5780632f60a1511461033f57806333ff1577146103615780633a921051146103815780633d46396a146103a15780634b4aa735146103c15780634ef9951a146103e157610267565b80630674fa411461026c578063093eb820146102a257806319be4975146102cf5780632e1a7d4d146102fd5780632e7843431461031f575b600080fd5b34801561027857600080fd5b5061028c610287366004614852565b61080f565b6040516102999190614aa5565b60405180910390f35b3480156102ae57600080fd5b506102c26102bd366004614952565b610838565b6040516102999190614cdf565b3480156102db57600080fd5b506102ef6102ea366004614852565b610a7e565b604051610299929190614aae565b34801561030957600080fd5b5061031d610318366004614998565b610a97565b005b34801561032b57600080fd5b506102c261033a36600461486c565b610bad565b34801561034b57600080fd5b50610354610bf5565b6040516102999190614d00565b34801561036d57600080fd5b5061028c61037c36600461486c565b610c05565b34801561038d57600080fd5b5061028c61039c366004614852565b610c2e565b3480156103ad57600080fd5b5061031d6103bc366004614998565b610c4f565b3480156103cd57600080fd5b5061028c6103dc366004614852565b610d66565b3480156103ed57600080fd5b5061031d6103fc366004614998565b610d87565b34801561040d57600080fd5b506102ef61041c3660046148fc565b610e9e565b34801561042d57600080fd5b5061043661113a565b604051610299929190614d10565b34801561045057600080fd5b5061031d61045f36600461497c565b611150565b34801561047057600080fd5b506102ef61047f366004614917565b611255565b34801561049057600080fd5b5061031d6113e3565b3480156104a557600080fd5b5061031d6104b4366004614a18565b61148f565b3480156104c557600080fd5b50610354611552565b3480156104da57600080fd5b506104e3611564565b6040516102999190614a39565b3480156104fc57600080fd5b5061028c61050b36600461486c565b611588565b34801561051c57600080fd5b5061053061052b366004614852565b6115aa565b6040516102999190614cf6565b34801561054957600080fd5b506104e36115cc565b34801561055e57600080fd5b5061031d61056d36600461489e565b6115db565b34801561057e57600080fd5b5061028c61170a565b34801561059357600080fd5b5061028c6105a236600461486c565b611710565b3480156105b357600080fd5b506105c76105c2366004614852565b611732565b6040516102999190614a9a565b3480156105e057600080fd5b50610354611763565b3480156105f557600080fd5b5061060961060436600461486c565b611775565b6040516102999190614ca5565b34801561062257600080fd5b506103546117e4565b61031d610639366004614998565b6117f6565b34801561064a57600080fd5b506102c26106593660046148fc565b61199a565b34801561066a57600080fd5b506102ef6106793660046148e1565b6119ae565b34801561068a57600080fd5b5061028c611c61565b34801561069f57600080fd5b5061031d6106ae36600461497c565b611c67565b3480156106bf57600080fd5b5061028c6106ce36600461486c565b611d6d565b3480156106df57600080fd5b506106f36106ee366004614852565b611d8f565b6040516102999190614a4d565b34801561070c57600080fd5b5061031d61071b36600461497c565b611e08565b34801561072c57600080fd5b5061031d61073b36600461497c565b611ef1565b34801561074c57600080fd5b5061076061075b3660046148e1565b611fdb565b6040516102999190614c84565b34801561077957600080fd5b506105c7610788366004614852565b6121cd565b34801561079957600080fd5b506105c76107a8366004614852565b6121e2565b3480156107b957600080fd5b5061031d6107c8366004614852565b612211565b3480156107d957600080fd5b506107e2612314565b6040516102999190614d26565b3480156107fb57600080fd5b5061031d61080a366004614941565b61231d565b6001600160a01b0381166000908152600260205260408120610830906123e7565b90505b919050565b61084061473b565b60026000541415610886576040805162461bcd60e51b815260206004820152601f6024820152600080516020614d95833981519152604482015290519081900360640190fd5b600260008181556001600160a01b03841681526020918252604080822081516101008101909252919261093392919081906108c390890189614852565b6001600160a01b03168152602001876020013581526020018760400135815260200187606001358152602001876080013581526020016109016126a8565b6001600160a01b03888116911614815260075462ffffff600160201b820416602083015260ff166040909101526126ac565b90506109426020850185614852565b6001600160a01b0316836001600160a01b03167fc7a00e3ec61b8c6f80d9561dbdeddc6fe70a2a76339c92541b2bc31b4b65978161098384600001516129dc565b61099085602001516129dc565b61099d89602001356129dc565b6040516109ac93929190614abc565b60405180910390a36109c16020850185614852565b60408083015160608401516001600160a01b0387811660008181526002602090815295812096909216959094600080516020614e4283398151915294939290610a0c908c018c614852565b6001600160a01b03166001600160a01b031681526020019081526020016000206001015486608001518760a00151604051610a4b959493929190614ad2565b60405180910390a36040518060400160405280826000015181526020018260200151815250915050600160005592915050565b6003602052600090815260409020805460019091015482565b60026000541415610add576040805162461bcd60e51b815260206004820152601f6024820152600080516020614d95833981519152604482015290519081900360640190fd5b60026000908155610aec6126a8565b6001600160a01b0381811660008181526002602090815260409182902082516080810184527f0000000000000000000000000000000000000000000000000000000000000000909516855290840187905290830191909152600754610100900462ffffff166060830152919250610b6391906129f0565b806001600160a01b03167f7084f5476618d8e60b11ef0d7d3f06914655adb8793e28ff7f018d4c76d505d583604051610b9c9190614aa5565b60405180910390a250506001600055565b610bb561473b565b506001600160a01b039182166000908152600260209081526040808320939094168252918252829020825180840190935280548352600101549082015290565b600754610100900462ffffff1681565b6001600160a01b0382166000908152600260205260408120610c279083612ad1565b9392505050565b6001600160a01b038116600090815260026020526040812061083090612c4b565b610c576126a8565b6001600160a01b0316610c686115cc565b6001600160a01b031614610cb1576040805162461bcd60e51b81526020600482018190526024820152600080516020614e22833981519152604482015290519081900360640190fd5b60026000541415610cf7576040805162461bcd60e51b815260206004820152601f6024820152600080516020614d95833981519152604482015290519081900360640190fd5b60026000908155610d066126a8565b6001600160a01b0381166000908152600260205260409020909150610d2d90600584612cac565b806001600160a01b03167f0880b0e717a57f3b5cbd3fc19396ae3c8cdee5c624c9289477869c38014c849583604051610b9c9190614aa5565b6001600160a01b038116600090815260026020526040812061083090612cdb565b610d8f6126a8565b6001600160a01b0316610da06115cc565b6001600160a01b031614610de9576040805162461bcd60e51b81526020600482018190526024820152600080516020614e22833981519152604482015290519081900360640190fd5b60026000541415610e2f576040805162461bcd60e51b815260206004820152601f6024820152600080516020614d95833981519152604482015290519081900360640190fd5b60026000908155610e3e6126a8565b6001600160a01b0381166000908152600260205260409020909150610e6590600484612d34565b806001600160a01b03167fc5f8d0712530f513c8ff696f9d12d32b95faeef78155912e567eca0284adf94f83604051610b9c9190614aa5565b60008060026000541415610ee7576040805162461bcd60e51b815260206004820152601f6024820152600080516020614d95833981519152604482015290519081900360640190fd5b60026000908155610efb6020850185614852565b90506000610f076126a8565b6001600160a01b0380841660009081526002602090815260408083209385168352808320949550919361107e939290916003918691610f4a918d01908d01614852565b6001600160a01b03166001600160a01b03168152602001908152602001600020600560046040518061012001604052808d6020016020810190610f8d9190614852565b6001600160a01b031681526020018d6040013581526020018d6060013581526020018d60800135815260200160066040518060400160405290816000820160009054906101000a900462ffffff1662ffffff1662ffffff1681526020016000820160039054906101000a900462ffffff1662ffffff1662ffffff16815250508152602001600760049054906101000a900462ffffff1662ffffff16815260200160078054906101000a900462ffffff1662ffffff168152602001600760009054906101000a900460ff1660ff1681526020016007600a9054906101000a900462ffffff1662ffffff16815250612d6e565b90506110906040870160208801614852565b81516020808401516001600160a01b03878116600081815260028552604080822097909316969195600080516020614e42833981519152959094936110da91908f01908f01614852565b6001600160a01b03166001600160a01b031681526020019081526020016000206001015486604001518760600151604051611119959493929190614ad2565b60405180910390a38051602090910151600160005590969095509350505050565b60065462ffffff80821691630100000090041682565b6111586126a8565b6001600160a01b03166111696115cc565b6001600160a01b0316146111b2576040805162461bcd60e51b81526020600482018190526024820152600080516020614e22833981519152604482015290519081900360640190fd5b600260005414156111f8576040805162461bcd60e51b815260206004820152601f6024820152600080516020614d95833981519152604482015290519081900360640190fd5b6002600055620f424062ffffff82161061121157600080fd5b60075462ffffff600160201b9091048116908216101561123057600080fd5b6007805462ffffff9092166101000263ffffff00199092169190911790556001600055565b6001600160a01b03811660009081526002602090815260408220829182916113cd916003908490611288908a018a614852565b6001600160a01b03166001600160a01b031681526020019081526020016000206040518061018001604052808960000160208101906112c79190614852565b6001600160a01b031681526020018960200160208101906112e891906148c7565b151581526020016112ff60608b0160408c016148c7565b151581526060808b01356020808401919091526080808d013560408086019190915260a0808f013594860194909452805180820190915260065462ffffff80821683526301000000909104168184015290840152910190600890600090611368908d018d614852565b6001600160a01b0316815260208082019290925260409081016000205460ff9081161515845260075462ffffff600160201b8204811694860194909452610100810484169285019290925281166060840152600160501b900416608090910152612e92565b80516020909101519093509150505b9250929050565b6113eb6126a8565b6001600160a01b03166113fc6115cc565b6001600160a01b031614611445576040805162461bcd60e51b81526020600482018190526024820152600080516020614e22833981519152604482015290519081900360640190fd5b6001546040516000916001600160a01b0316907f8be0079c531659141344cd1fd0a4f28419497f9722a3daafe3b4186f6b6457e0908390a3600180546001600160a01b0319169055565b6114976126a8565b6001600160a01b03166114a86115cc565b6001600160a01b0316146114f1576040805162461bcd60e51b81526020600482018190526024820152600080516020614e22833981519152604482015290519081900360640190fd5b60026000541415611537576040805162461bcd60e51b815260206004820152601f6024820152600080516020614d95833981519152604482015290519081900360640190fd5b6007805460ff191660ff929092169190911790556001600055565b600754600160501b900462ffffff1681565b7f000000000000000000000000000000000000000000000000000000000000000081565b6001600160a01b0382166000908152600260205260408120610c279083612f8d565b6002602081815260009283526040928390208351918201909352910154815281565b6001546001600160a01b031690565b6115e36126a8565b6001600160a01b03166115f46115cc565b6001600160a01b03161461163d576040805162461bcd60e51b81526020600482018190526024820152600080516020614e22833981519152604482015290519081900360640190fd5b60026000541415611683576040805162461bcd60e51b815260206004820152601f6024820152600080516020614d95833981519152604482015290519081900360640190fd5b600260009081556001600160a01b03831681526008602052604090205460ff16151581151514611701576001600160a01b03821660008181526008602052604090819020805460ff1916841515179055517fd5d4c2e150c76234e0f5d390162d34c5c1e1405df2194cfbd63b12d9521b102790610b9c908490614a9a565b50506001600055565b60055481565b6001600160a01b0382166000908152600260205260408120610c279083613026565b6001600160a01b03811660009081526002602052604081206007546108309190600160201b900462ffffff166130ad565b600754600160201b900462ffffff1681565b61177d614755565b506001600160a01b0391821660009081526002602081815260408084209490951683526001938401815291849020845160a0810186528154815293810154928401929092528101549282019290925260038201546060820152600490910154608082015290565b600754600160381b900462ffffff1681565b6002600054141561183c576040805162461bcd60e51b815260206004820152601f6024820152600080516020614d95833981519152604482015290519081900360640190fd5b6002600090815561184b6126a8565b90507f00000000000000000000000000000000000000000000000000000000000000006001600160a01b03166118c95781156118a25760405162461bcd60e51b815260040161189990614af5565b60405180910390fd5b6001600160a01b03811660009081526002602052604090206118c490346130e1565b611961565b34156118e75760405162461bcd60e51b815260040161189990614bd0565b61196160026000836001600160a01b03166001600160a01b0316815260200190815260200160002060405180606001604052807f00000000000000000000000000000000000000000000000000000000000000006001600160a01b03168152602001858152602001846001600160a01b0316815250613124565b806001600160a01b03167f2da466a7b24304f47e87fa2e1e5a81b9831ce54fec19055ce277ca2f39ba42c483604051610b9c9190614aa5565b6119a261473b565b610830826102bd6126a8565b600080600260005414156119f7576040805162461bcd60e51b815260206004820152601f6024820152600080516020614d95833981519152604482015290519081900360640190fd5b60026000908155611a066126a8565b6001600160a01b038116600090815260026020908152604082209293509091611bac916003908490611a3a908a018a614852565b6001600160a01b03166001600160a01b0316815260200190815260200160002060056040518061018001604052808a6000016020810190611a7b9190614852565b6001600160a01b031681526020018a6020016020810190611a9c91906148c7565b15158152602001611ab360608c0160408d016148c7565b151581526020018a6060013581526020018a6080013581526020018a60a00135815260200160066040518060400160405290816000820160009054906101000a900462ffffff1662ffffff1662ffffff1681526020016000820160039054906101000a900462ffffff1662ffffff1662ffffff16815250508152602001600860008c6000016020810190611b479190614852565b6001600160a01b0316815260208082019290925260409081016000205460ff9081161515845260075462ffffff600160201b8204811694860194909452610100810484169285019290925281166060840152600160501b90041660809091015261316f565b9050611bbb6020860186614852565b81516020808401516001600160a01b038681166000818152600285526040812096909216959094600080516020614e428339815191529490939290611c02908d018d614852565b6001600160a01b03166001600160a01b031681526020019081526020016000206001015486604001518760600151604051611c41959493929190614ad2565b60405180910390a380516020909101516001600055909590945092505050565b60045481565b611c6f6126a8565b6001600160a01b0316611c806115cc565b6001600160a01b031614611cc9576040805162461bcd60e51b81526020600482018190526024820152600080516020614e22833981519152604482015290519081900360640190fd5b60026000541415611d0f576040805162461bcd60e51b815260206004820152601f6024820152600080516020614d95833981519152604482015290519081900360640190fd5b600260005560075462ffffff61010090910481169082161115611d3157600080fd5b60008162ffffff1611611d4357600080fd5b6007805462ffffff909216600160201b0266ffffff00000000199092169190911790556001600055565b6001600160a01b0382166000908152600260205260408120610c27908361329b565b6001600160a01b038116600090815260026020908152604091829020600301805483518184028101840190945280845260609392830182828015611dfc57602002820191906000526020600020905b81546001600160a01b03168152600190910190602001808311611dde575b50505050509050919050565b611e106126a8565b6001600160a01b0316611e216115cc565b6001600160a01b031614611e6a576040805162461bcd60e51b81526020600482018190526024820152600080516020614e22833981519152604482015290519081900360640190fd5b60026000541415611eb0576040805162461bcd60e51b815260206004820152601f6024820152600080516020614d95833981519152604482015290519081900360640190fd5b600260005561271062ffffff821610611ec857600080fd5b6007805462ffffff909216600160501b0262ffffff60501b199092169190911790556001600055565b611ef96126a8565b6001600160a01b0316611f0a6115cc565b6001600160a01b031614611f53576040805162461bcd60e51b81526020600482018190526024820152600080516020614e22833981519152604482015290519081900360640190fd5b60026000541415611f99576040805162461bcd60e51b815260206004820152601f6024820152600080516020614d95833981519152604482015290519081900360640190fd5b6002600055620f424062ffffff821610611fb257600080fd5b6007805462ffffff909216600160381b0262ffffff60381b199092169190911790556001600055565b611fe3614784565b60026000541415612029576040805162461bcd60e51b815260206004820152601f6024820152600080516020614d95833981519152604482015290519081900360640190fd5b600260009081556120386126a8565b9050600061212060026000846001600160a01b03166001600160a01b031681526020019081526020016000206040518061012001604052808760000160208101906120839190614852565b6001600160a01b03168152602001876020013581526020018760400135815260200187606001358152602001876080013581526020018760a001358152602001600860008960000160208101906120da9190614852565b6001600160a01b0316815260208082019290925260409081016000205460ff9081161515845260075462ffffff610100820416938501939093529190911691015261333d565b905061212f6020850185614852565b6001600160a01b0316826001600160a01b03167fc7a00e3ec61b8c6f80d9561dbdeddc6fe70a2a76339c92541b2bc31b4b6597816121708460000151613567565b61217d8560200151613567565b61218a8660400151613567565b60405161219993929190614abc565b60405180910390a3604080516060810182528251815260208084015190820152918101519082015260016000559392505050565b60086020526000908152604090205460ff1681565b6001600160a01b03811660009081526002602052604081206007546108309190610100900462ffffff166135af565b6122196126a8565b6001600160a01b031661222a6115cc565b6001600160a01b031614612273576040805162461bcd60e51b81526020600482018190526024820152600080516020614e22833981519152604482015290519081900360640190fd5b6001600160a01b0381166122b85760405162461bcd60e51b8152600401808060200182810382526026815260200180614db56026913960400191505060405180910390fd5b6001546040516001600160a01b038084169216907f8be0079c531659141344cd1fd0a4f28419497f9722a3daafe3b4186f6b6457e090600090a3600180546001600160a01b0319166001600160a01b0392909216919091179055565b60075460ff1681565b6123256126a8565b6001600160a01b03166123366115cc565b6001600160a01b03161461237f576040805162461bcd60e51b81526020600482018190526024820152600080516020614e22833981519152604482015290519081900360640190fd5b600260005414156123c5576040805162461bcd60e51b815260206004820152601f6024820152600080516020614d95833981519152604482015290519081900360640190fd5b60026000558060066123d78282614d34565b5050600160005550565b3b151590565b600281015460038201805460009290835b8181101561269e57600084828154811061240e57fe5b60009182526020808320909101546001600160a01b031680835260018a0190915260408220805491935091906124669061244790613567565b6001600160a01b038516600090815260208c90526040902054906135f2565b9050600061249c61247a8460010154613567565b6001600160a01b038616600090815260208d90526040902060010154906135f2565b9050600080856001600160a01b0316637640482f86600201546040518263ffffffff1660e01b815260040180828152602001915050604080518083038186803b1580156124e857600080fd5b505afa1580156124fc573d6000803e3d6000fd5b505050506040513d604081101561251257600080fd5b508051602090910151600287015460038801546004808a01546040805163933c797960e01b81529283019490945260248201929092526044810191909152815193955091935060009283926001600160a01b038b169263933c797992606480840193829003018186803b15801561258857600080fd5b505afa15801561259c573d6000803e3d6000fd5b505050506040513d60408110156125b257600080fd5b508051602090910151909250905060006125de6125d76125d28786613657565b613567565b88906136b1565b90506000896001600160a01b0316638ee8fe5d6040518163ffffffff1660e01b815260040160206040518083038186803b15801561261b57600080fd5b505afa15801561262f573d6000803e3d6000fd5b505050506040513d602081101561264557600080fd5b5051905061266b61266461265883613567565b8490600160601b613716565b8e906136b1565b9c506126876126646126806125d28887613657565b89906136b1565b9c50505050505050505050508060010190506123f8565b5090949350505050565b3390565b6126b46147a5565b8160800151804211156126d95760405162461bcd60e51b815260040161189990614c65565b8260a001516126fa576126f0848460c001516130ad565b156126fa57600080fd5b82516001600160a01b031660009081526001850160205260409020835161272191906137ba565b82516020840151604051639c8f9f2360e01b815260009283926001600160a01b0390911691639c8f9f239161275891600401614aa5565b6040805180830381600087803b15801561277157600080fd5b505af1158015612785573d6000803e3d6000fd5b505050506040513d601f19601f820116820180604052508101906127a991906149c8565b9150915084604001518210156127be57600080fd5b84606001518110156127cf57600080fd5b90835260208301528251604080516379144ba960e11b8152815160009384936001600160a01b039091169263f22897529260048083019392829003018186803b15801561281b57600080fd5b505afa15801561282f573d6000803e3d6000fd5b505050506040513d601f19601f8201168201806040525081019061285391906149c8565b86516001600160a01b03908116600090815260018a0160209081526040808320600381019690965560049095019390935588519091168152918220908701519193508392506128a191613878565b915091506128b88686600001518760e001516138fd565b84600001516001600160a01b0316637452fadd6040518163ffffffff1660e01b815260040160206040518083038186803b1580156128f557600080fd5b505afa158015612909573d6000803e3d6000fd5b505050506040513d601f19601f8201168201806040525081019061292d91906149b0565b60a085015261294f61293e83613567565b855161294990613567565b906135f2565b604085015261296d61296082613567565b6129498660200151613567565b6060850152505060a08201516000906129999061298990613567565b604085015190600160601b613716565b60000390506129ce8585600001518560400151846129c48689606001516135f290919063ffffffff16565b8960e00151613a87565b608084015250909392505050565b60006129e782613567565b60000392915050565b6000816020015111612a145760405162461bcd60e51b815260040161189990614ba5565b612a2f612a248260200151613567565b6002840154906135f2565b60028301556060810151612a449083906135af565b612a605760405162461bcd60e51b815260040161189990614b6e565b80516001600160a01b0316612ab65780604001516001600160a01b03166108fc82602001519081150290604051600060405180830381858888f19350505050158015612ab0573d6000803e3d6000fd5b50612acd565b612acd816000015182604001518360200151613bd0565b5050565b6001600160a01b0381166000908152600183016020526040812080548290612b1b90612afc90613567565b6001600160a01b038616600090815260208890526040902054906135f2565b90506000846001600160a01b0316637640482f84600201546040518263ffffffff1660e01b815260040180828152602001915050604080518083038186803b158015612b6657600080fd5b505afa158015612b7a573d6000803e3d6000fd5b505050506040513d6040811015612b9057600080fd5b5051600284015460038501546004808701546040805163933c797960e01b8152928301949094526024820192909252604481019190915281519293506000926001600160a01b0389169263933c79799260648082019391829003018186803b158015612bfb57600080fd5b505afa158015612c0f573d6000803e3d6000fd5b505050506040513d6040811015612c2557600080fd5b50519050612c40612c396125d28484613657565b84906136b1565b979650505050505050565b600381018054600091908290815b8181101561269e576000612c95612c9088878581548110612c7657fe5b6000918252602090912001546001600160a01b0316612f8d565b613c22565b9050612ca18482613657565b935050600101612c59565b612cc3612cb882613567565b6002850154906136b1565b60028401558154612cd49082613c4b565b9091555050565b600381018054600091908290815b8181101561269e576000612d1d87868481548110612d0357fe5b6000918252602090912001546001600160a01b0316613026565b9050612d298482613657565b935050600101612ce9565b612d40612cb882613567565b6002840155612d59612d5182613567565b8354906135f2565b80835560001315612d6957600080fd5b505050565b612d766147db565b816060015180421115612d9b5760405162461bcd60e51b815260040161189990614c65565b612da9888460a001516130ad565b15612db357600080fd5b82516001600160a01b0316600090815260208990526040812080548212612ddb576000612dde565b60015b9150612ded8160000154613c22565b85602001511115612dfd57600080fd5b50612e25898888876000015185868a602001518b604001518c60e001518d6101000151613ca8565b6040860152602085015283528351612e3c90613d27565b606084018190526080850151612e5491899190613d9a565b612e5d57600080fd5b612e858960020189600201878760a001518860c00151612e808960200151613c22565b613db7565b5050509695505050505050565b612e9a6147db565b8160a0015180421115612ebf5760405162461bcd60e51b815260040161189990614c65565b612ece858461010001516130ad565b612ed757600080fd5b600080612f0387878760000151886020015189604001518a606001518b608001518c6101400151613e31565b915091508460e00151612f4a576000612f1b83613e5f565b86516001600160a01b0316600090815260208a90526040902054612f3e90613e5f565b021315612f4a57600080fd5b612f59878661012001516135af565b612f6257600080fd5b6040805160808101825292835260208301919091526000908201819052606082015295945050505050565b600080612f9a8484612ad1565b90506000836001600160a01b0316638ee8fe5d6040518163ffffffff1660e01b815260040160206040518083038186803b158015612fd757600080fd5b505afa158015612feb573d6000803e3d6000fd5b505050506040513d602081101561300157600080fd5b5051905061301d61301182613567565b8390600160601b613716565b95945050505050565b600080613033848461329b565b90506000836001600160a01b0316638ee8fe5d6040518163ffffffff1660e01b815260040160206040518083038186803b15801561307057600080fd5b505afa158015613084573d6000803e3d6000fd5b505050506040513d602081101561309a57600080fd5b5051905061301d8282600160601b613e87565b6000806130b9846123e7565b905060006130c685612c4b565b90506130d56125d28286613f36565b90911215949350505050565b600081116131015760405162461bcd60e51b815260040161189990614c02565b61311861310d82613567565b6002840154906136b1565b60029092019190915550565b60008160200151116131485760405162461bcd60e51b815260040161189990614b24565b61315f816000015182604001518360200151613f4b565b61311861310d8260200151613567565b6131776147db565b8160a001518042111561319c5760405162461bcd60e51b815260040161189990614c65565b6131ab868461010001516130ad565b6131b457600080fd5b60008060006131e989898989600001518a602001518b604001518c606001518d608001518e61014001518f6101600151613ca8565b9250925092508560e0015161323257600061320384613e5f565b87516001600160a01b0316600090815260208c9052604090205461322690613e5f565b02131561323257600080fd5b60006132418760000151613d27565b9050613252898860c0015183614082565b61325b57600080fd5b61326a8a8861012001516135af565b61327357600080fd5b6040805160808101825294855260208501939093529183015260608201529695505050505050565b6001600160a01b038116600081815260018401602052604080822060028101548251637640482f60e01b815260048101919091528251939491938593637640482f9260248082019391829003018186803b1580156132f857600080fd5b505afa15801561330c573d6000803e3d6000fd5b505050506040513d604081101561332257600080fd5b5051905061301d81613337612c908888612ad1565b90613657565b613345614784565b8160a001518042111561336a5760405162461bcd60e51b815260040161189990614c65565b8260c0015161337857600080fd5b82516001600160a01b03166000908152600185016020526040902083516133a09082906137ba565b600080600086600001516001600160a01b0316639cd441da886020015189604001516040518363ffffffff1660e01b81526004016133df929190614aae565b606060405180830381600087803b1580156133f957600080fd5b505af115801561340d573d6000803e3d6000fd5b505050506040513d601f19601f8201168201806040525081019061343191906149eb565b92509250925060008088600001516001600160a01b031663f22897526040518163ffffffff1660e01b8152600401604080518083038186803b15801561347657600080fd5b505afa15801561348a573d6000803e3d6000fd5b505050506040513d601f19601f820116820180604052508101906134ae91906149c8565b875491935091506134bf9086613657565b865560018601546134d09085613657565b600187015560028601546134e49084613657565b6002870155600386018290556004860181905588516101008a015161350a918c916138fd565b6135188a8a60e001516135af565b61352157600080fd5b886060015185101561353257600080fd5b886080015184101561354357600080fd5b50506040805160608101825293845260208401929092529082015295945050505050565b6000600160ff1b82106135ab5760405162461bcd60e51b8152600401808060200182810382526028815260200180614e626028913960400191505060405180910390fd5b5090565b6000806135bb846123e7565b905060006135c885612cdb565b90506135d76125d28286613f36565b60028601546135e7908490614094565b121595945050505050565b60008183038183128015906136075750838113155b8061361c575060008312801561361c57508381135b610c275760405162461bcd60e51b8152600401808060200182810382526024815260200180614e8a6024913960400191505060405180910390fd5b600082820183811015610c27576040805162461bcd60e51b815260206004820152601b60248201527f536166654d6174683a206164646974696f6e206f766572666c6f770000000000604482015290519081900360640190fd5b60008282018183128015906136c65750838112155b806136db57506000831280156136db57508381125b610c275760405162461bcd60e51b8152600401808060200182810382526021815260200180614ddb6021913960400191505060405180910390fd5b600080600085126137275784613730565b613730856140aa565b90506000808512613741578461374a565b61374a856140aa565b90506000808712801561375d5750600086135b8061377357506000871380156137735750600086125b61377e576000613781565b60015b90506000613790848488613e87565b9050816137a5576137a081613567565b6137ae565b6137ae816129dc565b98975050505050505050565b6002820154600383015460048085015460405163933c797960e01b815260009485946001600160a01b0388169463933c7979946137f994909101614abc565b604080518083038186803b15801561381057600080fd5b505afa158015613824573d6000803e3d6000fd5b505050506040513d601f19601f8201168201806040525081019061384891906149c8565b855491935091506138599083613c4b565b8455600184015461386a9082613c4b565b846001018190555050505050565b60008082156113dc578354156138ad5761389b8460000154848660020154613e87565b84549092506138aa9083613c4b565b84555b6001840154156138e2576138ca8460010154848660020154613e87565b60018501549091506138dc9082613c4b565b60018501555b60028401546138f19084613c4b565b60028501559250929050565b6001600160a01b03821661391057600080fd5b6001600160a01b03821660009081526020849052604081205415158061395257506001600160a01b038316600090815260018501602052604090206002015415155b6003850180549192509060005b81811015613a4257856001600160a01b031683828154811061397d57fe5b6000918252602090912001546001600160a01b03161415613a3a5783613a31578260018303815481106139ac57fe5b9060005260206000200160009054906101000a90046001600160a01b03168382815481106139d657fe5b9060005260206000200160006101000a8154816001600160a01b0302191690836001600160a01b0316021790555082805480613a0e57fe5b600082815260209020810160001990810180546001600160a01b03191690550190555b50505050612d69565b60010161395f565b5081546001810183556000838152602090200180546001600160a01b0319166001600160a01b038716179055815460ff85161015613a7f57600080fd5b505050505050565b6000613a9284613e5f565b613a9b86613e5f565b0260001914613aa957600080fd5b6001600160a01b038616600090815260208890526040812090613acb87613e5f565b8254613ad690613e5f565b026000191415613b8057670de0b6b3a76400006000613b0a613af78a613c22565b83613b058760000154613c22565b613e87565b9050818111613b4b576000613b2d613b2183613567565b60018701549085613716565b9050613b4388613b3d8b846136b1565b906136b1565b935050613b79565b6000613b58898484613716565b9050613b7588613b3d8388600101546136b190919063ffffffff16565b9350505b5050613b83565b50835b8154613b8f90886136b1565b82556001820154613bac908290612949908890613b3d908b6136b1565b60018301556002890154613bc090826136b1565b60028a01556137ae8989866138fd565b604080516001600160a01b038416602482015260448082018490528251808303909101815260649091019091526020810180516001600160e01b031663a9059cbb60e01b179052612d699084906140d6565b600080821215613c4257613c3d613c38836140aa565b614187565b610830565b61083082614187565b600082821115613ca2576040805162461bcd60e51b815260206004820152601e60248201527f536166654d6174683a207375627472616374696f6e206f766572666c6f770000604482015290519081900360640190fd5b50900390565b600080600080613cb78b613d27565b9050613cc38d826141de565b5062ffffff841615613ce757613cdd8b8b8b8b8b896141f5565b9093509150613cf9565b613cf38a8a8a8a6142c1565b90935091505b613d06898985858a614369565b613d158d8b858560008a613a87565b90509a509a509a975050505050505050565b6000816001600160a01b0316637452fadd6040518163ffffffff1660e01b815260040160206040518083038186803b158015613d6257600080fd5b505afa158015613d76573d6000803e3d6000fd5b505050506040513d601f19601f8201168201806040525081019061083091906149b0565b6000613daf84600001548385602001516143b4565b949350505050565b600080613dc48386613f36565b90506000613dd28286613f36565b90506000613de08383613c4b565b9050613df6613dee84613567565b8b54906135f2565b8a55613e0c613e0483613567565b8a54906136b1565b8955613e22613e1a82613567565b8954906136b1565b90975550979650505050505050565b600080613e40888888886143f7565b9092509050613e528787848488614369565b9850989650505050505050565b6000808213613e7f5760008212613e77576000613c3d565b600019610830565b506001919050565b6000808060001985870986860292508281109083900303905080613ebd5760008411613eb257600080fd5b508290049050610c27565b808411613ec957600080fd5b6000848688096000868103871696879004966002600389028118808a02820302808a02820302808a02820302808a02820302808a02820302808a02909103029181900381900460010186841190950394909402919094039290920491909117919091029150509392505050565b6000610c27838362ffffff16620f4240613e87565b6040516370a0823160e01b81526000906001600160a01b038516906370a0823190613f7a903090600401614a39565b60206040518083038186803b158015613f9257600080fd5b505afa158015613fa6573d6000803e3d6000fd5b505050506040513d601f19601f82011682018060405250810190613fca91906149b0565b9050613fd884843085614468565b8161405f82866001600160a01b03166370a08231306040518263ffffffff1660e01b81526004016140099190614a39565b60206040518083038186803b15801561402157600080fd5b505afa158015614035573d6000803e3d6000fd5b505050506040513d601f19601f8201168201806040525081019061405991906149b0565b90613c4b565b1461407c5760405162461bcd60e51b815260040161189990614b4f565b50505050565b82548251600091613daf9184906143b4565b60008183126140a35781610c27565b5090919050565b6000600160ff1b82136140cf5760405162461bcd60e51b815260040161189990614c2e565b5060000390565b600061412b826040518060400160405280602081526020017f5361666545524332303a206c6f772d6c6576656c2063616c6c206661696c6564815250856001600160a01b03166144c29092919063ffffffff16565b805190915015612d695780806020019051602081101561414a57600080fd5b5051612d695760405162461bcd60e51b815260040180806020018281038252602a815260200180614eae602a913960400191505060405180910390fd5b6000808212156135ab576040805162461bcd60e51b815260206004820181905260248201527f53616665436173743a2076616c7565206d75737420626520706f736974697665604482015290519081900360640190fd5b4282600101541015612acd57815542600190910155565b6000806000851515871515141561424657614212888888886142c1565b909350915061422a8461422484613c22565b90613f36565b905061423f61423882613567565b83906135f2565b91506142a5565b61425f61425886620f424087016144d1565b8690613c4b565b905061428388888861427e8d600001548a613c4b90919063ffffffff16565b6142c1565b5092508661429957614294856129dc565b6142a2565b6142a285613567565b91505b88546142b19082613657565b9098559097909650945050505050565b6000806000866001600160a01b031663630e375f8787876040518463ffffffff1660e01b815260040180841515815260200183151581526020018281526020019350505050602060405180830381600087803b15801561432057600080fd5b505af1158015614334573d6000803e3d6000fd5b505050506040513d602081101561434a57600080fd5b5051905061435a868686846144e6565b92509250505b94509492505050565b6000841515861515146143845761437f84613c22565b61438d565b61438d83613c22565b905084156143a757818110156143a257600080fd5b613a7f565b81811115613a7f57600080fd5b6000806143c18584613f36565b905060006143cf8683613657565b905060006143dd8784613c4b565b9050858111158015612c4057505090931115949350505050565b6000806000866001600160a01b031663017dab948787876040518463ffffffff1660e01b81526004018084151581526020018315158152602001828152602001935050505060206040518083038186803b15801561445457600080fd5b505afa158015614334573d6000803e3d6000fd5b604080516001600160a01b0380861660248301528416604482015260648082018490528251808303909101815260849091019091526020810180516001600160e01b03166323b872dd60e01b17905261407c9085906140d6565b6060613daf848460008561454c565b6000610c2783620f42408462ffffff16613e87565b6000808415614522578515614510576144fe846129dc565b61450784613567565b91509150614360565b61451983613567565b614507856129dc565b851561453a57614531836129dc565b61450785613567565b61454384613567565b614507846129dc565b60608247101561458d5760405162461bcd60e51b8152600401808060200182810382526026815260200180614dfc6026913960400191505060405180910390fd5b614596856123e1565b6145e7576040805162461bcd60e51b815260206004820152601d60248201527f416464726573733a2063616c6c20746f206e6f6e2d636f6e7472616374000000604482015290519081900360640190fd5b600080866001600160a01b031685876040518082805190602001908083835b602083106146255780518252601f199092019160209182019101614606565b6001836020036101000a03801982511681845116808217855250505050505090500191505060006040518083038185875af1925050503d8060008114614687576040519150601f19603f3d011682016040523d82523d6000602084013e61468c565b606091505b5091509150612c40828286606083156146a6575081610c27565b8251156146b65782518084602001fd5b8160405162461bcd60e51b81526004018080602001828103825283818151815260200191508051906020019080838360005b838110156147005781810151838201526020016146e8565b50505050905090810190601f16801561472d5780820380516001836020036101000a031916815260200191505b509250505060405180910390fd5b604051806040016040528060008152602001600081525090565b6040518060a0016040528060008152602001600081526020016000815260200160008152602001600081525090565b60405180606001604052806000815260200160008152602001600081525090565b6040518060c001604052806000815260200160008152602001600081526020016000815260200160008152602001600081525090565b6040518060800160405280600081526020016000815260200160008152602001600081525090565b80356001600160a01b038116811461083357600080fd5b8035801515811461083357600080fd5b600060c0828403121561483b578081fd5b50919050565b600060a0828403121561483b578081fd5b600060208284031215614863578081fd5b610c2782614803565b6000806040838503121561487e578081fd5b61488783614803565b915061489560208401614803565b90509250929050565b600080604083850312156148b0578182fd5b6148b983614803565b91506148956020840161481a565b6000602082840312156148d8578081fd5b610c278261481a565b600060c082840312156148f2578081fd5b610c27838361482a565b600060a0828403121561490d578081fd5b610c278383614841565b60008060e08385031215614929578182fd5b614933848461482a565b915061489560c08401614803565b60006040828403121561483b578081fd5b60008060c08385031215614964578182fd5b61496e8484614841565b915061489560a08401614803565b60006020828403121561498d578081fd5b8135610c2781614d80565b6000602082840312156149a9578081fd5b5035919050565b6000602082840312156149c1578081fd5b5051919050565b600080604083850312156149da578182fd5b505080516020909101519092909150565b6000806000606084860312156149ff578081fd5b8351925060208401519150604084015190509250925092565b600060208284031215614a29578081fd5b813560ff81168114610c27578182fd5b6001600160a01b0391909116815260200190565b6020808252825182820181905260009190848201906040850190845b81811015614a8e5783516001600160a01b031683529284019291840191600101614a69565b50909695505050505050565b901515815260200190565b90815260200190565b918252602082015260400190565b9283526020830191909152604082015260600190565b948552602085019390935260408401919091526060830152608082015260a00190565b60208082526015908201527450455f443a20616d6f756e74206e6f74207a65726f60581b604082015260600190565b602080825260119082015270159317d10e881e995c9bc8185b5bdd5b9d607a1b604082015260600190565b602080825260059082015264565f49424160d81b604082015260600190565b6020808252601f908201527f564c5f573a206e6f7420656e6f75676820696e697469616c206d617267696e00604082015260600190565b602080825260119082015270159317d5ce881e995c9bc8185b5bdd5b9d607a1b604082015260600190565b60208082526018908201527750455f443a206d73672e76616c7565206e6f74207a65726f60401b604082015260600190565b602080825260129082015271159317d1114e881e995c9bc8185b5bdd5b9d60721b604082015260600190565b6020808252601c908201527f506572704d6174683a20696e76657273696f6e206f766572666c6f7700000000604082015260600190565b60208082526005908201526443485f544560d81b604082015260600190565b81518152602080830151908201526040918201519181019190915260600190565b600060a082019050825182526020830151602083015260408301516040830152606083015160608301526080830151608083015292915050565b815181526020918201519181019190915260400190565b9051815260200190565b62ffffff91909116815260200190565b62ffffff92831681529116602082015260400190565b60ff91909116815260200190565b8135614d3f81614d80565b815462ffffff191662ffffff91909116178082556020830135614d6181614d80565b65ffffff0000008160181b1665ffffff00000019831617835550505050565b62ffffff81168114614d9157600080fd5b5056fe5265656e7472616e637947756172643a207265656e7472616e742063616c6c004f776e61626c653a206e6577206f776e657220697320746865207a65726f20616464726573735369676e6564536166654d6174683a206164646974696f6e206f766572666c6f77416464726573733a20696e73756666696369656e742062616c616e636520666f722063616c6c4f776e61626c653a2063616c6c6572206973206e6f7420746865206f776e6572adf7293c36a87213f46d9ad13f46093b4c6becaecc1a3c4b6be2aad2f60676cf53616665436173743a2076616c756520646f65736e27742066697420696e20616e20696e743235365369676e6564536166654d6174683a207375627472616374696f6e206f766572666c6f775361666545524332303a204552433230206f7065726174696f6e20646964206e6f742073756363656564a2646970667358221220fb3abc567b77c1a6f184efe63b3d4572ff331c978ebaced7ab94ae73caaef20e64736f6c63430007060033",
  "devdoc": {
    "kind": "dev",
    "methods": {
      "owner()": {
        "details": "Returns the address of the current owner."
      },
      "renounceOwnership()": {
        "details": "Leaves the contract without owner. It will not be possible to call `onlyOwner` functions anymore. Can only be called by the current owner. NOTE: Renouncing ownership will leave the contract without an owner, thereby removing any functionality that is only available to the owner."
      },
      "transferOwnership(address)": {
        "details": "Transfers ownership of the contract to a new account (`newOwner`). Can only be called by the current owner."
      }
    },
    "version": 1
  },
  "userdoc": {
    "kind": "user",
    "methods": {},
    "version": 1
  },
  "storageLayout": {
    "storage": [
      {
        "astId": 2932,
        "contract": "contracts/PerpdexExchange.sol:PerpdexExchange",
        "label": "_status",
        "offset": 0,
        "slot": "0",
        "type": "t_uint256"
      },
      {
        "astId": 290,
        "contract": "contracts/PerpdexExchange.sol:PerpdexExchange",
        "label": "_owner",
        "offset": 0,
        "slot": "1",
        "type": "t_address"
      },
      {
        "astId": 3502,
        "contract": "contracts/PerpdexExchange.sol:PerpdexExchange",
        "label": "accountInfos",
        "offset": 0,
        "slot": "2",
        "type": "t_mapping(t_address,t_struct(AccountInfo)7935_storage)"
      },
      {
        "astId": 3507,
        "contract": "contracts/PerpdexExchange.sol:PerpdexExchange",
        "label": "priceLimitInfos",
        "offset": 0,
        "slot": "3",
        "type": "t_mapping(t_address,t_struct(PriceLimitInfo)7946_storage)"
      },
      {
        "astId": 3510,
        "contract": "contracts/PerpdexExchange.sol:PerpdexExchange",
        "label": "insuranceFundInfo",
        "offset": 0,
        "slot": "4",
        "type": "t_struct(InsuranceFundInfo)7938_storage"
      },
      {
        "astId": 3513,
        "contract": "contracts/PerpdexExchange.sol:PerpdexExchange",
        "label": "protocolInfo",
        "offset": 0,
        "slot": "5",
        "type": "t_struct(ProtocolInfo)7941_storage"
      },
      {
        "astId": 3524,
        "contract": "contracts/PerpdexExchange.sol:PerpdexExchange",
        "label": "priceLimitConfig",
        "offset": 0,
        "slot": "6",
        "type": "t_struct(PriceLimitConfig)7951_storage"
      },
      {
        "astId": 3528,
        "contract": "contracts/PerpdexExchange.sol:PerpdexExchange",
        "label": "maxMarketsPerAccount",
        "offset": 0,
        "slot": "7",
        "type": "t_uint8"
      },
      {
        "astId": 3532,
        "contract": "contracts/PerpdexExchange.sol:PerpdexExchange",
        "label": "imRatio",
        "offset": 1,
        "slot": "7",
        "type": "t_uint24"
      },
      {
        "astId": 3536,
        "contract": "contracts/PerpdexExchange.sol:PerpdexExchange",
        "label": "mmRatio",
        "offset": 4,
        "slot": "7",
        "type": "t_uint24"
      },
      {
        "astId": 3540,
        "contract": "contracts/PerpdexExchange.sol:PerpdexExchange",
        "label": "liquidationRewardRatio",
        "offset": 7,
        "slot": "7",
        "type": "t_uint24"
      },
      {
        "astId": 3544,
        "contract": "contracts/PerpdexExchange.sol:PerpdexExchange",
        "label": "protocolFeeRatio",
        "offset": 10,
        "slot": "7",
        "type": "t_uint24"
      },
      {
        "astId": 3549,
        "contract": "contracts/PerpdexExchange.sol:PerpdexExchange",
        "label": "isMarketAllowed",
        "offset": 0,
        "slot": "8",
        "type": "t_mapping(t_address,t_bool)"
      }
    ],
    "types": {
      "t_address": {
        "encoding": "inplace",
        "label": "address",
        "numberOfBytes": "20"
      },
      "t_array(t_address)dyn_storage": {
        "base": "t_address",
        "encoding": "dynamic_array",
        "label": "address[]",
        "numberOfBytes": "32"
      },
      "t_bool": {
        "encoding": "inplace",
        "label": "bool",
        "numberOfBytes": "1"
      },
      "t_int256": {
        "encoding": "inplace",
        "label": "int256",
        "numberOfBytes": "32"
      },
      "t_mapping(t_address,t_bool)": {
        "encoding": "mapping",
        "key": "t_address",
        "label": "mapping(address => bool)",
        "numberOfBytes": "32",
        "value": "t_bool"
      },
      "t_mapping(t_address,t_struct(AccountInfo)7935_storage)": {
        "encoding": "mapping",
        "key": "t_address",
        "label": "mapping(address => struct PerpdexStructs.AccountInfo)",
        "numberOfBytes": "32",
        "value": "t_struct(AccountInfo)7935_storage"
      },
      "t_mapping(t_address,t_struct(MakerInfo)7918_storage)": {
        "encoding": "mapping",
        "key": "t_address",
        "label": "mapping(address => struct PerpdexStructs.MakerInfo)",
        "numberOfBytes": "32",
        "value": "t_struct(MakerInfo)7918_storage"
      },
      "t_mapping(t_address,t_struct(PriceLimitInfo)7946_storage)": {
        "encoding": "mapping",
        "key": "t_address",
        "label": "mapping(address => struct PerpdexStructs.PriceLimitInfo)",
        "numberOfBytes": "32",
        "value": "t_struct(PriceLimitInfo)7946_storage"
      },
      "t_mapping(t_address,t_struct(TakerInfo)7907_storage)": {
        "encoding": "mapping",
        "key": "t_address",
        "label": "mapping(address => struct PerpdexStructs.TakerInfo)",
        "numberOfBytes": "32",
        "value": "t_struct(TakerInfo)7907_storage"
      },
      "t_struct(AccountInfo)7935_storage": {
        "encoding": "inplace",
        "label": "struct PerpdexStructs.AccountInfo",
        "members": [
          {
            "astId": 7925,
            "contract": "contracts/PerpdexExchange.sol:PerpdexExchange",
            "label": "takerInfos",
            "offset": 0,
            "slot": "0",
            "type": "t_mapping(t_address,t_struct(TakerInfo)7907_storage)"
          },
          {
            "astId": 7929,
            "contract": "contracts/PerpdexExchange.sol:PerpdexExchange",
            "label": "makerInfos",
            "offset": 0,
            "slot": "1",
            "type": "t_mapping(t_address,t_struct(MakerInfo)7918_storage)"
          },
          {
            "astId": 7931,
            "contract": "contracts/PerpdexExchange.sol:PerpdexExchange",
            "label": "vaultInfo",
            "offset": 0,
            "slot": "2",
            "type": "t_struct(VaultInfo)7921_storage"
          },
          {
            "astId": 7934,
            "contract": "contracts/PerpdexExchange.sol:PerpdexExchange",
            "label": "markets",
            "offset": 0,
            "slot": "3",
            "type": "t_array(t_address)dyn_storage"
          }
        ],
        "numberOfBytes": "128"
      },
      "t_struct(InsuranceFundInfo)7938_storage": {
        "encoding": "inplace",
        "label": "struct PerpdexStructs.InsuranceFundInfo",
        "members": [
          {
            "astId": 7937,
            "contract": "contracts/PerpdexExchange.sol:PerpdexExchange",
            "label": "balance",
            "offset": 0,
            "slot": "0",
            "type": "t_int256"
          }
        ],
        "numberOfBytes": "32"
      },
      "t_struct(MakerInfo)7918_storage": {
        "encoding": "inplace",
        "label": "struct PerpdexStructs.MakerInfo",
        "members": [
          {
            "astId": 7909,
            "contract": "contracts/PerpdexExchange.sol:PerpdexExchange",
            "label": "baseDebtShare",
            "offset": 0,
            "slot": "0",
            "type": "t_uint256"
          },
          {
            "astId": 7911,
            "contract": "contracts/PerpdexExchange.sol:PerpdexExchange",
            "label": "quoteDebt",
            "offset": 0,
            "slot": "1",
            "type": "t_uint256"
          },
          {
            "astId": 7913,
            "contract": "contracts/PerpdexExchange.sol:PerpdexExchange",
            "label": "liquidity",
            "offset": 0,
            "slot": "2",
            "type": "t_uint256"
          },
          {
            "astId": 7915,
            "contract": "contracts/PerpdexExchange.sol:PerpdexExchange",
            "label": "cumDeleveragedBaseSharePerLiquidityX96",
            "offset": 0,
            "slot": "3",
            "type": "t_uint256"
          },
          {
            "astId": 7917,
            "contract": "contracts/PerpdexExchange.sol:PerpdexExchange",
            "label": "cumDeleveragedQuotePerLiquidityX96",
            "offset": 0,
            "slot": "4",
            "type": "t_uint256"
          }
        ],
        "numberOfBytes": "160"
      },
      "t_struct(PriceLimitConfig)7951_storage": {
        "encoding": "inplace",
        "label": "struct PerpdexStructs.PriceLimitConfig",
        "members": [
          {
            "astId": 7948,
            "contract": "contracts/PerpdexExchange.sol:PerpdexExchange",
            "label": "priceLimitNormalOrderRatio",
            "offset": 0,
            "slot": "0",
            "type": "t_uint24"
          },
          {
            "astId": 7950,
            "contract": "contracts/PerpdexExchange.sol:PerpdexExchange",
            "label": "priceLimitLiquidationRatio",
            "offset": 3,
            "slot": "0",
            "type": "t_uint24"
          }
        ],
        "numberOfBytes": "32"
      },
      "t_struct(PriceLimitInfo)7946_storage": {
        "encoding": "inplace",
        "label": "struct PerpdexStructs.PriceLimitInfo",
        "members": [
          {
            "astId": 7943,
            "contract": "contracts/PerpdexExchange.sol:PerpdexExchange",
            "label": "referencePrice",
            "offset": 0,
            "slot": "0",
            "type": "t_uint256"
          },
          {
            "astId": 7945,
            "contract": "contracts/PerpdexExchange.sol:PerpdexExchange",
            "label": "referenceTimestamp",
            "offset": 0,
            "slot": "1",
            "type": "t_uint256"
          }
        ],
        "numberOfBytes": "64"
      },
      "t_struct(ProtocolInfo)7941_storage": {
        "encoding": "inplace",
        "label": "struct PerpdexStructs.ProtocolInfo",
        "members": [
          {
            "astId": 7940,
            "contract": "contracts/PerpdexExchange.sol:PerpdexExchange",
            "label": "protocolFee",
            "offset": 0,
            "slot": "0",
            "type": "t_uint256"
          }
        ],
        "numberOfBytes": "32"
      },
      "t_struct(TakerInfo)7907_storage": {
        "encoding": "inplace",
        "label": "struct PerpdexStructs.TakerInfo",
        "members": [
          {
            "astId": 7904,
            "contract": "contracts/PerpdexExchange.sol:PerpdexExchange",
            "label": "baseBalanceShare",
            "offset": 0,
            "slot": "0",
            "type": "t_int256"
          },
          {
            "astId": 7906,
            "contract": "contracts/PerpdexExchange.sol:PerpdexExchange",
            "label": "quoteBalance",
            "offset": 0,
            "slot": "1",
            "type": "t_int256"
          }
        ],
        "numberOfBytes": "64"
      },
      "t_struct(VaultInfo)7921_storage": {
        "encoding": "inplace",
        "label": "struct PerpdexStructs.VaultInfo",
        "members": [
          {
            "astId": 7920,
            "contract": "contracts/PerpdexExchange.sol:PerpdexExchange",
            "label": "collateralBalance",
            "offset": 0,
            "slot": "0",
            "type": "t_int256"
          }
        ],
        "numberOfBytes": "32"
      },
      "t_uint24": {
        "encoding": "inplace",
        "label": "uint24",
        "numberOfBytes": "3"
      },
      "t_uint256": {
        "encoding": "inplace",
        "label": "uint256",
        "numberOfBytes": "32"
      },
      "t_uint8": {
        "encoding": "inplace",
        "label": "uint8",
        "numberOfBytes": "1"
      }
    }
  }
}