{
  "address": "0xE17a0424AD921ef4c3F1FbD445Eb3903Ec2EAC40",
  "abi": [
    {
      "inputs": [
        {
          "internalType": "address",
          "name": "settlementTokenArg",
          "type": "address"
        }
      ],
      "stateMutability": "nonpayable",
      "type": "constructor"
    },
    {
      "anonymous": false,
      "inputs": [
        {
          "indexed": true,
          "internalType": "address",
          "name": "trader",
          "type": "address"
        },
        {
          "indexed": false,
          "internalType": "uint256",
          "name": "amount",
          "type": "uint256"
        }
      ],
      "name": "Deposited",
      "type": "event"
    },
    {
      "anonymous": false,
      "inputs": [
        {
          "indexed": true,
          "internalType": "address",
          "name": "maker",
          "type": "address"
        },
        {
          "indexed": true,
          "internalType": "address",
          "name": "market",
          "type": "address"
        },
        {
          "indexed": false,
          "internalType": "int256",
          "name": "base",
          "type": "int256"
        },
        {
          "indexed": false,
          "internalType": "int256",
          "name": "quote",
          "type": "int256"
        },
        {
          "indexed": false,
          "internalType": "int256",
          "name": "liquidity",
          "type": "int256"
        }
      ],
      "name": "LiquidityChanged",
      "type": "event"
    },
    {
      "anonymous": false,
      "inputs": [
        {
          "indexed": true,
          "internalType": "address",
          "name": "previousOwner",
          "type": "address"
        },
        {
          "indexed": true,
          "internalType": "address",
          "name": "newOwner",
          "type": "address"
        }
      ],
      "name": "OwnershipTransferred",
      "type": "event"
    },
    {
      "anonymous": false,
      "inputs": [
        {
          "indexed": true,
          "internalType": "address",
          "name": "trader",
          "type": "address"
        },
        {
          "indexed": true,
          "internalType": "address",
          "name": "market",
          "type": "address"
        },
        {
          "indexed": false,
          "internalType": "int256",
          "name": "exchangedPositionSize",
          "type": "int256"
        },
        {
          "indexed": false,
          "internalType": "int256",
          "name": "exchangedPositionNotional",
          "type": "int256"
        },
        {
          "indexed": false,
          "internalType": "int256",
          "name": "openNotional",
          "type": "int256"
        },
        {
          "indexed": false,
          "internalType": "int256",
          "name": "realizedPnl",
          "type": "int256"
        },
        {
          "indexed": false,
          "internalType": "uint256",
          "name": "priceAfterX96",
          "type": "uint256"
        }
      ],
      "name": "PositionChanged",
      "type": "event"
    },
    {
      "anonymous": false,
      "inputs": [
        {
          "indexed": true,
          "internalType": "address",
          "name": "trader",
          "type": "address"
        },
        {
          "indexed": true,
          "internalType": "address",
          "name": "market",
          "type": "address"
        },
        {
          "indexed": false,
          "internalType": "uint256",
          "name": "positionNotional",
          "type": "uint256"
        },
        {
          "indexed": false,
          "internalType": "uint256",
          "name": "positionSize",
          "type": "uint256"
        },
        {
          "indexed": false,
          "internalType": "uint256",
          "name": "liquidationFee",
          "type": "uint256"
        },
        {
          "indexed": false,
          "internalType": "address",
          "name": "liquidator",
          "type": "address"
        }
      ],
      "name": "PositionLiquidated",
      "type": "event"
    },
    {
      "anonymous": false,
      "inputs": [
        {
          "indexed": true,
          "internalType": "address",
          "name": "trader",
          "type": "address"
        },
        {
          "indexed": false,
          "internalType": "uint256",
          "name": "amount",
          "type": "uint256"
        }
      ],
      "name": "Withdrawn",
      "type": "event"
    },
    {
      "inputs": [
        {
          "internalType": "address",
          "name": "",
          "type": "address"
        }
      ],
      "name": "accountInfos",
      "outputs": [
        {
          "components": [
            {
              "internalType": "int256",
              "name": "collateralBalance",
              "type": "int256"
            }
          ],
          "internalType": "struct PerpdexStructs.VaultInfo",
          "name": "vaultInfo",
          "type": "tuple"
        }
      ],
      "stateMutability": "view",
      "type": "function"
    },
    {
      "inputs": [
        {
          "components": [
            {
              "internalType": "address",
              "name": "market",
              "type": "address"
            },
            {
              "internalType": "uint256",
              "name": "base",
              "type": "uint256"
            },
            {
              "internalType": "uint256",
              "name": "quote",
              "type": "uint256"
            },
            {
              "internalType": "uint256",
              "name": "minBase",
              "type": "uint256"
            },
            {
              "internalType": "uint256",
              "name": "minQuote",
              "type": "uint256"
            },
            {
              "internalType": "uint256",
              "name": "deadline",
              "type": "uint256"
            }
          ],
          "internalType": "struct IPerpdexExchange.AddLiquidityParams",
          "name": "params",
          "type": "tuple"
        }
      ],
      "name": "addLiquidity",
      "outputs": [
        {
          "components": [
            {
              "internalType": "uint256",
              "name": "base",
              "type": "uint256"
            },
            {
              "internalType": "uint256",
              "name": "quote",
              "type": "uint256"
            },
            {
              "internalType": "uint256",
              "name": "liquidity",
              "type": "uint256"
            }
          ],
          "internalType": "struct IPerpdexExchange.AddLiquidityResponse",
          "name": "",
          "type": "tuple"
        }
      ],
      "stateMutability": "nonpayable",
      "type": "function"
    },
    {
      "inputs": [
        {
          "internalType": "uint256",
          "name": "amount",
          "type": "uint256"
        }
      ],
      "name": "deposit",
      "outputs": [],
      "stateMutability": "nonpayable",
      "type": "function"
    },
    {
      "inputs": [
        {
          "internalType": "address",
          "name": "trader",
          "type": "address"
        }
      ],
      "name": "getAccountMarkets",
      "outputs": [
        {
          "internalType": "address[]",
          "name": "",
          "type": "address[]"
        }
      ],
      "stateMutability": "nonpayable",
      "type": "function"
    },
    {
      "inputs": [
        {
          "internalType": "address",
          "name": "trader",
          "type": "address"
        },
        {
          "internalType": "address",
          "name": "market",
          "type": "address"
        }
      ],
      "name": "getMakerInfo",
      "outputs": [
        {
          "components": [
            {
              "internalType": "uint256",
              "name": "baseDebtShare",
              "type": "uint256"
            },
            {
              "internalType": "uint256",
              "name": "quoteDebt",
              "type": "uint256"
            },
            {
              "internalType": "uint256",
              "name": "liquidity",
              "type": "uint256"
            }
          ],
          "internalType": "struct PerpdexStructs.MakerInfo",
          "name": "",
          "type": "tuple"
        }
      ],
      "stateMutability": "nonpayable",
      "type": "function"
    },
    {
      "inputs": [
        {
          "internalType": "address",
          "name": "trader",
          "type": "address"
        },
        {
          "internalType": "address",
          "name": "market",
          "type": "address"
        }
      ],
      "name": "getOpenPositionNotional",
      "outputs": [
        {
          "internalType": "uint256",
          "name": "",
          "type": "uint256"
        }
      ],
      "stateMutability": "view",
      "type": "function"
    },
    {
      "inputs": [
        {
          "internalType": "address",
          "name": "trader",
          "type": "address"
        },
        {
          "internalType": "address",
          "name": "market",
          "type": "address"
        }
      ],
      "name": "getOpenPositionSize",
      "outputs": [
        {
          "internalType": "uint256",
          "name": "",
          "type": "uint256"
        }
      ],
      "stateMutability": "view",
      "type": "function"
    },
    {
      "inputs": [
        {
          "internalType": "address",
          "name": "trader",
          "type": "address"
        },
        {
          "internalType": "address",
          "name": "market",
          "type": "address"
        }
      ],
      "name": "getPositionNotional",
      "outputs": [
        {
          "internalType": "int256",
          "name": "",
          "type": "int256"
        }
      ],
      "stateMutability": "view",
      "type": "function"
    },
    {
      "inputs": [
        {
          "internalType": "address",
          "name": "trader",
          "type": "address"
        },
        {
          "internalType": "address",
          "name": "market",
          "type": "address"
        }
      ],
      "name": "getPositionSize",
      "outputs": [
        {
          "internalType": "int256",
          "name": "",
          "type": "int256"
        }
      ],
      "stateMutability": "view",
      "type": "function"
    },
    {
      "inputs": [
        {
          "internalType": "address",
          "name": "trader",
          "type": "address"
        },
        {
          "internalType": "address",
          "name": "market",
          "type": "address"
        }
      ],
      "name": "getTakerInfo",
      "outputs": [
        {
          "components": [
            {
              "internalType": "int256",
              "name": "baseBalanceShare",
              "type": "int256"
            },
            {
              "internalType": "int256",
              "name": "quoteBalance",
              "type": "int256"
            }
          ],
          "internalType": "struct PerpdexStructs.TakerInfo",
          "name": "",
          "type": "tuple"
        }
      ],
      "stateMutability": "nonpayable",
      "type": "function"
    },
    {
      "inputs": [
        {
          "internalType": "address",
          "name": "trader",
          "type": "address"
        }
      ],
      "name": "getTotalAccountValue",
      "outputs": [
        {
          "internalType": "int256",
          "name": "",
          "type": "int256"
        }
      ],
      "stateMutability": "view",
      "type": "function"
    },
    {
      "inputs": [
        {
          "internalType": "address",
          "name": "trader",
          "type": "address"
        }
      ],
      "name": "getTotalOpenPositionNotional",
      "outputs": [
        {
          "internalType": "uint256",
          "name": "",
          "type": "uint256"
        }
      ],
      "stateMutability": "view",
      "type": "function"
    },
    {
      "inputs": [
        {
          "internalType": "address",
          "name": "trader",
          "type": "address"
        }
      ],
      "name": "getTotalPositionNotional",
      "outputs": [
        {
          "internalType": "uint256",
          "name": "",
          "type": "uint256"
        }
      ],
      "stateMutability": "view",
      "type": "function"
    },
    {
      "inputs": [
        {
          "internalType": "address",
          "name": "trader",
          "type": "address"
        }
      ],
      "name": "hasEnoughInitialMargin",
      "outputs": [
        {
          "internalType": "bool",
          "name": "",
          "type": "bool"
        }
      ],
      "stateMutability": "view",
      "type": "function"
    },
    {
      "inputs": [
        {
          "internalType": "address",
          "name": "trader",
          "type": "address"
        }
      ],
      "name": "hasEnoughMaintenanceMargin",
      "outputs": [
        {
          "internalType": "bool",
          "name": "",
          "type": "bool"
        }
      ],
      "stateMutability": "view",
      "type": "function"
    },
    {
      "inputs": [],
      "name": "imRatio",
      "outputs": [
        {
          "internalType": "uint24",
          "name": "",
          "type": "uint24"
        }
      ],
      "stateMutability": "view",
      "type": "function"
    },
    {
      "inputs": [],
      "name": "insuranceFundInfo",
      "outputs": [
        {
          "internalType": "int256",
          "name": "balance",
          "type": "int256"
        }
      ],
      "stateMutability": "view",
      "type": "function"
    },
    {
      "inputs": [
        {
          "internalType": "address",
          "name": "",
          "type": "address"
        }
      ],
      "name": "isMarketAllowed",
      "outputs": [
        {
          "internalType": "bool",
          "name": "",
          "type": "bool"
        }
      ],
      "stateMutability": "view",
      "type": "function"
    },
    {
      "inputs": [
        {
          "components": [
            {
              "internalType": "address",
              "name": "trader",
              "type": "address"
            },
            {
              "internalType": "address",
              "name": "market",
              "type": "address"
            },
            {
              "internalType": "uint256",
              "name": "amount",
              "type": "uint256"
            },
            {
              "internalType": "uint256",
              "name": "oppositeAmountBound",
              "type": "uint256"
            },
            {
              "internalType": "uint256",
              "name": "deadline",
              "type": "uint256"
            }
          ],
          "internalType": "struct IPerpdexExchange.LiquidateParams",
          "name": "params",
          "type": "tuple"
        }
      ],
      "name": "liquidate",
      "outputs": [
        {
          "internalType": "int256",
          "name": "base",
          "type": "int256"
        },
        {
          "internalType": "int256",
          "name": "quote",
          "type": "int256"
        }
      ],
      "stateMutability": "nonpayable",
      "type": "function"
    },
    {
      "inputs": [],
      "name": "liquidationRewardRatio",
      "outputs": [
        {
          "internalType": "uint24",
          "name": "",
          "type": "uint24"
        }
      ],
      "stateMutability": "view",
      "type": "function"
    },
    {
      "inputs": [],
      "name": "maxMarketsPerAccount",
      "outputs": [
        {
          "internalType": "uint8",
          "name": "",
          "type": "uint8"
        }
      ],
      "stateMutability": "view",
      "type": "function"
    },
    {
      "inputs": [],
      "name": "mmRatio",
      "outputs": [
        {
          "internalType": "uint24",
          "name": "",
          "type": "uint24"
        }
      ],
      "stateMutability": "view",
      "type": "function"
    },
    {
      "inputs": [
        {
          "components": [
            {
              "internalType": "address",
              "name": "market",
              "type": "address"
            },
            {
              "internalType": "bool",
              "name": "isBaseToQuote",
              "type": "bool"
            },
            {
              "internalType": "bool",
              "name": "isExactInput",
              "type": "bool"
            },
            {
              "internalType": "uint256",
              "name": "amount",
              "type": "uint256"
            },
            {
              "internalType": "uint256",
              "name": "oppositeAmountBound",
              "type": "uint256"
            },
            {
              "internalType": "uint256",
              "name": "deadline",
              "type": "uint256"
            }
          ],
          "internalType": "struct IPerpdexExchange.OpenPositionParams",
          "name": "params",
          "type": "tuple"
        }
      ],
      "name": "openPosition",
      "outputs": [
        {
          "internalType": "int256",
          "name": "base",
          "type": "int256"
        },
        {
          "internalType": "int256",
          "name": "quote",
          "type": "int256"
        }
      ],
      "stateMutability": "nonpayable",
      "type": "function"
    },
    {
      "inputs": [],
      "name": "owner",
      "outputs": [
        {
          "internalType": "address",
          "name": "",
          "type": "address"
        }
      ],
      "stateMutability": "view",
      "type": "function"
    },
    {
      "inputs": [],
      "name": "priceLimitConfig",
      "outputs": [
        {
          "internalType": "uint24",
          "name": "priceLimitNormalOrderRatio",
          "type": "uint24"
        },
        {
          "internalType": "uint24",
          "name": "priceLimitLiquidationRatio",
          "type": "uint24"
        }
      ],
      "stateMutability": "view",
      "type": "function"
    },
    {
      "inputs": [
        {
          "internalType": "address",
          "name": "",
          "type": "address"
        }
      ],
      "name": "priceLimitInfos",
      "outputs": [
        {
          "internalType": "uint256",
          "name": "referencePrice",
          "type": "uint256"
        },
        {
          "internalType": "uint256",
          "name": "referenceTimestamp",
          "type": "uint256"
        }
      ],
      "stateMutability": "view",
      "type": "function"
    },
    {
      "inputs": [
        {
          "components": [
            {
              "internalType": "address",
              "name": "market",
              "type": "address"
            },
            {
              "internalType": "uint256",
              "name": "liquidity",
              "type": "uint256"
            },
            {
              "internalType": "uint256",
              "name": "minBase",
              "type": "uint256"
            },
            {
              "internalType": "uint256",
              "name": "minQuote",
              "type": "uint256"
            },
            {
              "internalType": "uint256",
              "name": "deadline",
              "type": "uint256"
            }
          ],
          "internalType": "struct IPerpdexExchange.RemoveLiquidityParams",
          "name": "params",
          "type": "tuple"
        },
        {
          "internalType": "address",
          "name": "maker",
          "type": "address"
        }
      ],
      "name": "removeLiquidity",
      "outputs": [
        {
          "components": [
            {
              "internalType": "uint256",
              "name": "base",
              "type": "uint256"
            },
            {
              "internalType": "uint256",
              "name": "quote",
              "type": "uint256"
            }
          ],
          "internalType": "struct IPerpdexExchange.RemoveLiquidityResponse",
          "name": "",
          "type": "tuple"
        }
      ],
      "stateMutability": "nonpayable",
      "type": "function"
    },
    {
      "inputs": [
        {
          "components": [
            {
              "internalType": "address",
              "name": "market",
              "type": "address"
            },
            {
              "internalType": "uint256",
              "name": "liquidity",
              "type": "uint256"
            },
            {
              "internalType": "uint256",
              "name": "minBase",
              "type": "uint256"
            },
            {
              "internalType": "uint256",
              "name": "minQuote",
              "type": "uint256"
            },
            {
              "internalType": "uint256",
              "name": "deadline",
              "type": "uint256"
            }
          ],
          "internalType": "struct IPerpdexExchange.RemoveLiquidityParams",
          "name": "params",
          "type": "tuple"
        }
      ],
      "name": "removeLiquidity",
      "outputs": [
        {
          "components": [
            {
              "internalType": "uint256",
              "name": "base",
              "type": "uint256"
            },
            {
              "internalType": "uint256",
              "name": "quote",
              "type": "uint256"
            }
          ],
          "internalType": "struct IPerpdexExchange.RemoveLiquidityResponse",
          "name": "",
          "type": "tuple"
        }
      ],
      "stateMutability": "nonpayable",
      "type": "function"
    },
    {
      "inputs": [],
      "name": "renounceOwnership",
      "outputs": [],
      "stateMutability": "nonpayable",
      "type": "function"
    },
    {
      "inputs": [
        {
          "internalType": "uint24",
          "name": "value",
          "type": "uint24"
        }
      ],
      "name": "setImRatio",
      "outputs": [],
      "stateMutability": "nonpayable",
      "type": "function"
    },
    {
      "inputs": [
        {
          "internalType": "address",
          "name": "market",
          "type": "address"
        },
        {
          "internalType": "bool",
          "name": "value",
          "type": "bool"
        }
      ],
      "name": "setIsMarketAllowed",
      "outputs": [],
      "stateMutability": "nonpayable",
      "type": "function"
    },
    {
      "inputs": [
        {
          "internalType": "uint24",
          "name": "value",
          "type": "uint24"
        }
      ],
      "name": "setLiquidationRewardRatio",
      "outputs": [],
      "stateMutability": "nonpayable",
      "type": "function"
    },
    {
      "inputs": [
        {
          "internalType": "uint8",
          "name": "value",
          "type": "uint8"
        }
      ],
      "name": "setMaxMarketsPerAccount",
      "outputs": [],
      "stateMutability": "nonpayable",
      "type": "function"
    },
    {
      "inputs": [
        {
          "internalType": "uint24",
          "name": "value",
          "type": "uint24"
        }
      ],
      "name": "setMmRatio",
      "outputs": [],
      "stateMutability": "nonpayable",
      "type": "function"
    },
    {
      "inputs": [
        {
          "components": [
            {
              "internalType": "uint24",
              "name": "priceLimitNormalOrderRatio",
              "type": "uint24"
            },
            {
              "internalType": "uint24",
              "name": "priceLimitLiquidationRatio",
              "type": "uint24"
            }
          ],
          "internalType": "struct PerpdexStructs.PriceLimitConfig",
          "name": "value",
          "type": "tuple"
        }
      ],
      "name": "setPriceLimitConfig",
      "outputs": [],
      "stateMutability": "nonpayable",
      "type": "function"
    },
    {
      "inputs": [],
      "name": "settlementToken",
      "outputs": [
        {
          "internalType": "address",
          "name": "",
          "type": "address"
        }
      ],
      "stateMutability": "view",
      "type": "function"
    },
    {
      "inputs": [
        {
          "internalType": "address",
          "name": "newOwner",
          "type": "address"
        }
      ],
      "name": "transferOwnership",
      "outputs": [],
      "stateMutability": "nonpayable",
      "type": "function"
    },
    {
      "inputs": [
        {
          "internalType": "uint256",
          "name": "amount",
          "type": "uint256"
        }
      ],
      "name": "withdraw",
      "outputs": [],
      "stateMutability": "nonpayable",
      "type": "function"
    }
  ],
  "transactionHash": "0xa000381e1ce4e7d0eb4ca907a07febedbf476c6f88f8b53994c908368e15274e",
  "args": [
    "0xc778417E063141139Fce010982780140Aa0cD5Ab"
  ],
  "numDeployments": 1,
  "solcInputHash": "450e65f1140574bc8035fce2ec09b9c0",
  "bytecode": "0x60a06040523480156200001157600080fd5b50604051620041d3380380620041d383398101604081905262000034916200015d565b600160009081556200004562000153565b600180546001600160a01b0319166001600160a01b038316908117909155604051919250906000907f8be0079c531659141344cd1fd0a4f28419497f9722a3daafe3b4186f6b6457e0908290a350620000b2816001600160a01b03166200015760201b62001ae01760201c565b620000da5760405162461bcd60e51b8152600401620000d1906200018d565b60405180910390fd5b60601b6001600160601b0319166080526005805465ffffff00000019908116650186a0000000171664c35000000017905560068054601060ff199091161763ffffff001916630186a0001762ffffff60201b191665c350000000001762ffffff60381b191669030d4000000000000000179055620001ae565b3390565b3b151590565b6000602082840312156200016f578081fd5b81516001600160a01b038116811462000186578182fd5b9392505050565b60208082526007908201526643485f53414e4360c81b604082015260600190565b60805160601c613ffd620001d6600039806108265280610e9352806111605250613ffd6000f3fe608060405234801561001057600080fd5b50600436106102125760003560e01c80639317b19311610120578063c66fa8e6116100b8578063e72e43631161007c578063e72e4363146104c1578063ec6cca84146104d4578063f2fde38b146104e7578063f652b527146104fa578063fa8f03681461050f57610212565b8063c66fa8e614610460578063c9ca7b1814610468578063d11102c51461047b578063d1ead5631461049b578063dfe1cb92146104ae57610212565b80639317b193146103b1578063996fbf94146103c45780639dce9e19146103d75780639f044f31146103f7578063b53c5125146103ff578063b62616431461041f578063b6b55f2514610427578063c2fdd42f1461043a578063c3afe1ce1461044d57610212565b80636346f32e116101ae5780637b9e618d116101725780637b9e618d1461034e5780637c88490a1461036357806387cad0bf146103765780638da25bbe146103965780638da5cb5b146103a957610212565b80636346f32e146102f75780636e838bad1461030d578063715018a61461032057806373f625011461032857806376c6008f1461033b57610212565b80630674fa4114610217578063093eb8201461024057806319be4975146102605780632e1a7d4d146102815780632e784343146102965780632f60a151146102a95780633a921051146102be5780634b4aa735146102d157806359af74f7146102e4575b600080fd5b61022a610225366004613ac2565b610522565b6040516102379190613d04565b60405180910390f35b61025361024e366004613b98565b61054b565b6040516102379190613df5565b61027361026e366004613ac2565b610791565b604051610237929190613d0d565b61029461028f366004613bde565b6107aa565b005b6102536102a4366004613adc565b6108c0565b6102b161090c565b6040516102379190613e16565b61022a6102cc366004613ac2565b61091c565b61022a6102df366004613ac2565b61093d565b6102736102f2366004613b6c565b61095e565b6102ff610bde565b604051610237929190613e26565b61029461031b366004613bc2565b610bf4565b610294610cf9565b610294610336366004613c5e565b610da5565b61022a610349366004613adc565b610e68565b610356610e91565b6040516102379190613c98565b61022a610371366004613adc565b610eb5565b610389610384366004613ac2565b610ed7565b6040516102379190613e0c565b61022a6103a4366004613adc565b610ef9565b610356610f1b565b6102946103bf366004613b0e565b610f2a565b61022a6103d2366004613adc565b611005565b6103ea6103e5366004613ac2565b611027565b6040516102379190613cf9565b6102b1611058565b61041261040d366004613adc565b61106a565b6040516102379190613de7565b6102b16110c2565b610294610435366004613bde565b6110d4565b610253610448366004613b6c565b6111de565b61027361045b366004613b51565b6111f2565b61022a61146b565b610294610476366004613bc2565b611471565b61048e610489366004613ac2565b611577565b6040516102379190613cac565b6102946104a9366004613bc2565b6115f0565b6104126104bc366004613b51565b6116da565b6103ea6104cf366004613ac2565b6118cc565b6103ea6104e2366004613ac2565b6118e1565b6102946104f5366004613ac2565b611910565b610502611a13565b6040516102379190613e3c565b61029461051d366004613b87565b611a1c565b6001600160a01b038116600090815260026020526040812061054390611ae6565b90505b919050565b6105536139da565b60026000541415610599576040805162461bcd60e51b815260206004820152601f6024820152600080516020613eab833981519152604482015290519081900360640190fd5b600260008181556001600160a01b03841681526020918252604080822081516101008101909252919261064692919081906105d690890189613ac2565b6001600160a01b0316815260200187602001358152602001876040013581526020018760600135815260200187608001358152602001610614611d01565b6001600160a01b03888116911614815260065462ffffff600160201b820416602083015260ff16604090910152611d05565b90506106556020850185613ac2565b6001600160a01b0316836001600160a01b03167fc7a00e3ec61b8c6f80d9561dbdeddc6fe70a2a76339c92541b2bc31b4b6597816106968460000151611ffd565b6106a38560200151611ffd565b6106b08960200135611ffd565b6040516106bf93929190613d1b565b60405180910390a36106d46020850185613ac2565b60408083015160608401516001600160a01b0387811660008181526002602090815295812096909216959094600080516020613f328339815191529493929061071f908c018c613ac2565b6001600160a01b03166001600160a01b031681526020019081526020016000206001015486608001518760a0015160405161075e959493929190613d31565b60405180910390a36040518060400160405280826000015181526020018260200151815250915050600160005592915050565b6003602052600090815260409020805460019091015482565b600260005414156107f0576040805162461bcd60e51b815260206004820152601f6024820152600080516020613eab833981519152604482015290519081900360640190fd5b600260009081556107ff611d01565b6001600160a01b0381811660008181526002602090815260409182902082516080810184527f0000000000000000000000000000000000000000000000000000000000000000909516855290840187905290830191909152600654610100900462ffffff1660608301529192506108769190612011565b806001600160a01b03167f7084f5476618d8e60b11ef0d7d3f06914655adb8793e28ff7f018d4c76d505d5836040516108af9190613d04565b60405180910390a250506001600055565b6108c86139da565b506001600160a01b03808316600090815260026020908152604080832093851683529281529082902082518084019093528054835260010154908201525b92915050565b600654610100900462ffffff1681565b6001600160a01b038116600090815260026020526040812061054390612089565b6001600160a01b0381166000908152600260205260408120610543906120ea565b600080600260005414156109a7576040805162461bcd60e51b815260206004820152601f6024820152600080516020613eab833981519152604482015290519081900360640190fd5b600260009081556109bb6020850185613ac2565b905060006109c7611d01565b6001600160a01b03808416600090815260026020908152604080832093851683528083209495509193610b22939290916003918691610a0a918d01908d01613ac2565b6001600160a01b03166001600160a01b0316815260200190815260200160002060046040518061010001604052808c6020016020810190610a4b9190613ac2565b6001600160a01b031681526020018c6040013581526020018c6060013581526020018c60800135815260200160056040518060400160405290816000820160009054906101000a900462ffffff1662ffffff1662ffffff1681526020016000820160039054906101000a900462ffffff1662ffffff1662ffffff16815250508152602001600660049054906101000a900462ffffff1662ffffff168152602001600660079054906101000a900462ffffff1662ffffff168152602001600660009054906101000a900460ff1660ff16815250612143565b9050610b346040870160208801613ac2565b81516020808401516001600160a01b03878116600081815260028552604080822097909316969195600080516020613f3283398151915295909493610b7e91908f01908f01613ac2565b6001600160a01b03166001600160a01b031681526020019081526020016000206001015486604001518760600151604051610bbd959493929190613d31565b60405180910390a38051602090910151600160005590969095509350505050565b60055462ffffff80821691630100000090041682565b610bfc611d01565b6001600160a01b0316610c0d610f1b565b6001600160a01b031614610c56576040805162461bcd60e51b81526020600482018190526024820152600080516020613f12833981519152604482015290519081900360640190fd5b60026000541415610c9c576040805162461bcd60e51b815260206004820152601f6024820152600080516020613eab833981519152604482015290519081900360640190fd5b6002600055620f424062ffffff821610610cb557600080fd5b60065462ffffff600160201b90910481169082161015610cd457600080fd5b6006805462ffffff9092166101000263ffffff00199092169190911790556001600055565b610d01611d01565b6001600160a01b0316610d12610f1b565b6001600160a01b031614610d5b576040805162461bcd60e51b81526020600482018190526024820152600080516020613f12833981519152604482015290519081900360640190fd5b6001546040516000916001600160a01b0316907f8be0079c531659141344cd1fd0a4f28419497f9722a3daafe3b4186f6b6457e0908390a3600180546001600160a01b0319169055565b610dad611d01565b6001600160a01b0316610dbe610f1b565b6001600160a01b031614610e07576040805162461bcd60e51b81526020600482018190526024820152600080516020613f12833981519152604482015290519081900360640190fd5b60026000541415610e4d576040805162461bcd60e51b815260206004820152601f6024820152600080516020613eab833981519152604482015290519081900360640190fd5b6006805460ff191660ff929092169190911790556001600055565b6001600160a01b0382166000908152600260205260408120610e8a90836122f5565b9392505050565b7f000000000000000000000000000000000000000000000000000000000000000081565b6001600160a01b0382166000908152600260205260408120610e8a90836123a0565b6002602081815260009283526040928390208351918201909352910154815281565b6001600160a01b0382166000908152600260205260408120610e8a9083612430565b6001546001600160a01b031690565b610f32611d01565b6001600160a01b0316610f43610f1b565b6001600160a01b031614610f8c576040805162461bcd60e51b81526020600482018190526024820152600080516020613f12833981519152604482015290519081900360640190fd5b60026000541415610fd2576040805162461bcd60e51b815260206004820152601f6024820152600080516020613eab833981519152604482015290519081900360640190fd5b600260009081556001600160a01b03929092168252600760205260408220805460ff191691151591909117905560019055565b6001600160a01b0382166000908152600260205260408120610e8a9083612514565b6001600160a01b03811660009081526002602052604081206006546105439190600160201b900462ffffff1661259b565b600654600160201b900462ffffff1681565b6110726139f4565b506001600160a01b03808316600090815260026020818152604080842094861684526001948501825292839020835160608101855281548152948101549185019190915201549082015292915050565b600654600160381b900462ffffff1681565b6002600054141561111a576040805162461bcd60e51b815260206004820152601f6024820152600080516020613eab833981519152604482015290519081900360640190fd5b60026000908155611129611d01565b90506111a560026000836001600160a01b03166001600160a01b0316815260200190815260200160002060405180606001604052807f00000000000000000000000000000000000000000000000000000000000000006001600160a01b03168152602001858152602001846001600160a01b03168152506125cf565b806001600160a01b03167f2da466a7b24304f47e87fa2e1e5a81b9831ce54fec19055ce277ca2f39ba42c4836040516108af9190613d04565b6111e66139da565b6105438261024e611d01565b6000806002600054141561123b576040805162461bcd60e51b815260206004820152601f6024820152600080516020613eab833981519152604482015290519081900360640190fd5b6002600090815561124a611d01565b6001600160a01b0381166000908152600260209081526040822092935090916113b691600390849061127e908a018a613ac2565b6001600160a01b03166001600160a01b031681526020019081526020016000206040518061016001604052808960000160208101906112bd9190613ac2565b6001600160a01b031681526020018960200160208101906112de9190613b37565b151581526020016112f560608b0160408c01613b37565b151581526060808b01356020808401919091526080808d013560408086019190915260a0808f013594860194909452805180820190915260055462ffffff8082168352630100000090910416818401529084015291019060079060009061135e908d018d613ac2565b6001600160a01b0316815260208082019290925260409081016000205460ff9081161515845260065462ffffff600160201b820481169486019490945261010081049093169184019190915216606090910152612631565b90506113c56020860186613ac2565b81516020808401516001600160a01b038681166000818152600285526040812096909216959094600080516020613f32833981519152949093929061140c908d018d613ac2565b6001600160a01b03166001600160a01b03168152602001908152602001600020600101548660400151876060015160405161144b959493929190613d31565b60405180910390a380516020909101516001600055909590945092505050565b60045481565b611479611d01565b6001600160a01b031661148a610f1b565b6001600160a01b0316146114d3576040805162461bcd60e51b81526020600482018190526024820152600080516020613f12833981519152604482015290519081900360640190fd5b60026000541415611519576040805162461bcd60e51b815260206004820152601f6024820152600080516020613eab833981519152604482015290519081900360640190fd5b600260005560065462ffffff6101009091048116908216111561153b57600080fd5b60008162ffffff161161154d57600080fd5b6006805462ffffff909216600160201b0266ffffff00000000199092169190911790556001600055565b6001600160a01b0381166000908152600260209081526040918290206003018054835181840281018401909452808452606093928301828280156115e457602002820191906000526020600020905b81546001600160a01b031681526001909101906020018083116115c6575b50505050509050919050565b6115f8611d01565b6001600160a01b0316611609610f1b565b6001600160a01b031614611652576040805162461bcd60e51b81526020600482018190526024820152600080516020613f12833981519152604482015290519081900360640190fd5b60026000541415611698576040805162461bcd60e51b815260206004820152601f6024820152600080516020613eab833981519152604482015290519081900360640190fd5b6002600055620f424062ffffff8216106116b157600080fd5b6006805462ffffff909216600160381b0262ffffff60381b199092169190911790556001600055565b6116e26139f4565b60026000541415611728576040805162461bcd60e51b815260206004820152601f6024820152600080516020613eab833981519152604482015290519081900360640190fd5b60026000908155611737611d01565b9050600061181f60026000846001600160a01b03166001600160a01b031681526020019081526020016000206040518061012001604052808760000160208101906117829190613ac2565b6001600160a01b03168152602001876020013581526020018760400135815260200187606001358152602001876080013581526020018760a001358152602001600760008960000160208101906117d99190613ac2565b6001600160a01b0316815260208082019290925260409081016000205460ff9081161515845260065462ffffff6101008204169385019390935291909116910152612756565b905061182e6020850185613ac2565b6001600160a01b0316826001600160a01b03167fc7a00e3ec61b8c6f80d9561dbdeddc6fe70a2a76339c92541b2bc31b4b65978161186f84600001516128c8565b61187c85602001516128c8565b61188986604001516128c8565b60405161189893929190613d1b565b60405180910390a3604080516060810182528251815260208084015190820152918101519082015260016000559392505050565b60076020526000908152604090205460ff1681565b6001600160a01b03811660009081526002602052604081206006546105439190610100900462ffffff16612914565b611918611d01565b6001600160a01b0316611929610f1b565b6001600160a01b031614611972576040805162461bcd60e51b81526020600482018190526024820152600080516020613f12833981519152604482015290519081900360640190fd5b6001600160a01b0381166119b75760405162461bcd60e51b8152600401808060200182810382526026815260200180613ecb6026913960400191505060405180910390fd5b6001546040516001600160a01b038084169216907f8be0079c531659141344cd1fd0a4f28419497f9722a3daafe3b4186f6b6457e090600090a3600180546001600160a01b0319166001600160a01b0392909216919091179055565b60065460ff1681565b611a24611d01565b6001600160a01b0316611a35610f1b565b6001600160a01b031614611a7e576040805162461bcd60e51b81526020600482018190526024820152600080516020613f12833981519152604482015290519081900360640190fd5b60026000541415611ac4576040805162461bcd60e51b815260206004820152601f6024820152600080516020613eab833981519152604482015290519081900360640190fd5b6002600055806005611ad68282613e4a565b5050600160005550565b3b151590565b600281015460038201805460009290835b81811015611cf7576000848281548110611b0d57fe5b60009182526020808320909101546001600160a01b031680835260018a019091526040822080549193509190611b6590611b46906128c8565b6001600160a01b038516600090815260208c9052604090205490612957565b90506000611b9b611b7984600101546128c8565b6001600160a01b038616600090815260208d9052604090206001015490612957565b9050600080856001600160a01b0316637640482f86600201546040518263ffffffff1660e01b815260040180828152602001915050604080518083038186803b158015611be757600080fd5b505afa158015611bfb573d6000803e3d6000fd5b505050506040513d6040811015611c1157600080fd5b50805160209091015190925090506000611c3d87611c38611c31866128c8565b88906129bc565b612a21565b90506000876001600160a01b0316637452fadd6040518163ffffffff1660e01b815260040160206040518083038186803b158015611c7a57600080fd5b505afa158015611c8e573d6000803e3d6000fd5b505050506040513d6020811015611ca457600080fd5b50519050611cca611cc3611cb7836128c8565b8490600160601b612ac5565b8c906129bc565b9a50611ce2611cc3611cdb856128c8565b87906129bc565b9a505050505050505050806001019050611af7565b5090949350505050565b3390565b611d0d613a15565b816080015180421115611d3b5760405162461bcd60e51b8152600401611d3290613dc8565b60405180910390fd5b8260a00151611d5c57611d52848460c0015161259b565b15611d5c57600080fd5b82516020840151604051639c8f9f2360e01b815260009283926001600160a01b0390911691639c8f9f2391611d9391600401613d04565b6040805180830381600087803b158015611dac57600080fd5b505af1158015611dc0573d6000803e3d6000fd5b505050506040513d601f19601f82011682018060405250810190611de49190613c0e565b915091508460400151821015611df957600080fd5b8460600151811015611e0a57600080fd5b90835260208084019190915283516001600160a01b03166000908152600186018252604081209185015190918291611e429190612b69565b91509150611e598686600001518760e00151612bef565b84600001516001600160a01b0316637452fadd6040518163ffffffff1660e01b815260040160206040518083038186803b158015611e9657600080fd5b505afa158015611eaa573d6000803e3d6000fd5b505050506040513d601f19601f82011682018060405250810190611ece9190613bf6565b60a08501528451604051638195510560e01b8152611f7091611f5f916001600160a01b0390911690638195510590611f0a908790600401613d04565b60206040518083038186803b158015611f2257600080fd5b505afa158015611f36573d6000803e3d6000fd5b505050506040513d601f19601f82011682018060405250810190611f5a9190613bf6565b6128c8565b8551611f6a906128c8565b90612957565b6040850152611f8e611f81826128c8565b611f6a86602001516128c8565b6060850152505060a0820151600090611fba90611faa906128c8565b604085015190600160601b612ac5565b6000039050611fef858560000151856040015184611fe586896060015161295790919063ffffffff16565b8960e00151612d7a565b608084015250909392505050565b6000612008826128c8565b60000392915050565b60008160200151116120355760405162461bcd60e51b8152600401611d3290613d73565b61205061204582602001516128c8565b600284015490612957565b60028301556060810151612065908390612914565b61206e57600080fd5b612085816000015182604001518360200151612ede565b5050565b600381018054600091908290815b81811015611cf75760006120d36120ce888785815481106120b457fe5b6000918252602090912001546001600160a01b03166123a0565b612f30565b90506120df8482612f59565b935050600101612097565b600381018054600091908290815b81811015611cf757600061212c8786848154811061211257fe5b6000918252602090912001546001600160a01b0316612514565b90506121388482612f59565b9350506001016120f8565b61214b613a4b565b8160600151804211156121705760405162461bcd60e51b8152600401611d3290613dc8565b61217e878460a0015161259b565b1561218857600080fd5b82516001600160a01b03166000908152602088905260408120805482126121b05760006121b3565b60015b915084600001516001600160a01b031663819551056121d58360000154612f30565b6040518263ffffffff1660e01b81526004016121f19190613d04565b60206040518083038186803b15801561220957600080fd5b505afa15801561221d573d6000803e3d6000fd5b505050506040513d601f19601f820116820180604052508101906122419190613bf6565b8560200151111561225157600080fd5b5060008060006122778b8a896000015187888c602001518d604001518e60e00151612fb3565b925092509250600061228c8860000151613009565b905061229d8a89608001518361307c565b6122a657600080fd5b6122ca8c6002018c6002018b8b60a001518c60c001516122c589612f30565b613091565b5060408051608081018252948552602085019390935291830152606082015298975050505050505050565b6001600160a01b038116600081815260018401602052604080822060028101548251637640482f60e01b815260048101919091528251939491938593637640482f9260248082019391829003018186803b15801561235257600080fd5b505afa158015612366573d6000803e3d6000fd5b505050506040513d604081101561237c57600080fd5b50519050612397816123916120ce8888612430565b90612f59565b95945050505050565b6000806123ad8484612430565b90506000836001600160a01b0316637452fadd6040518163ffffffff1660e01b815260040160206040518083038186803b1580156123ea57600080fd5b505afa1580156123fe573d6000803e3d6000fd5b505050506040513d602081101561241457600080fd5b50519050612397612424826128c8565b8390600160601b612ac5565b6001600160a01b038116600090815260018301602052604081208054829061247a9061245b906128c8565b6001600160a01b03861660009081526020889052604090205490612957565b90506000846001600160a01b0316637640482f84600201546040518263ffffffff1660e01b815260040180828152602001915050604080518083038186803b1580156124c557600080fd5b505afa1580156124d9573d6000803e3d6000fd5b505050506040513d60408110156124ef57600080fd5b5051905061250a85611c38612503846128c8565b85906129bc565b9695505050505050565b60008061252184846122f5565b90506000836001600160a01b0316637452fadd6040518163ffffffff1660e01b815260040160206040518083038186803b15801561255e57600080fd5b505afa158015612572573d6000803e3d6000fd5b505050506040513d602081101561258857600080fd5b505190506123978282600160601b61310b565b6000806125a784611ae6565b905060006125b485612089565b90506125c3611f5a82866131c4565b90911215949350505050565b60008160200151116125f35760405162461bcd60e51b8152600401611d3290613d73565b61260a8160000151826040015183602001516131d9565b61262561261a82602001516128c8565b6002840154906129bc565b60029092019190915550565b612639613a4b565b8160a001518042111561265e5760405162461bcd60e51b8152600401611d3290613dc8565b61266d8584610100015161259b565b1561267757600080fd5b60008060006126a58888886000015189602001518a604001518b606001518c608001518d6101400151612fb3565b9250925092508560e001516126ee5760006126bf84613310565b87516001600160a01b0316600090815260208b905260409020546126e290613310565b0213156126ee57600080fd5b60006126fd8760000151613009565b905061270e888860c0015183613338565b61271757600080fd5b61272689886101200151612914565b61272f57600080fd5b60408051608081018252948552602085019390935291830152606082015295945050505050565b61275e6139f4565b8160a00151804211156127835760405162461bcd60e51b8152600401611d3290613dc8565b8260c0015161279157600080fd5b600080600085600001516001600160a01b0316639cd441da876020015188604001516040518363ffffffff1660e01b81526004016127d0929190613d0d565b606060405180830381600087803b1580156127ea57600080fd5b505af11580156127fe573d6000803e3d6000fd5b505050506040513d601f19601f820116820180604052508101906128229190613c31565b88516001600160a01b0316600090815260018b016020526040902080549396509194509250906128529085612f59565b815560018101546128639084612f59565b600182015560028101546128779083612f59565b6002820155865161010088015161288f918a91612bef565b61289d888860e00151612914565b6128a657600080fd5b5060408051606081018252938452602084019290925290820152949350505050565b60006001600160ff1b038211156129105760405162461bcd60e51b8152600401808060200182810382526028815260200180613f526028913960400191505060405180910390fd5b5090565b60008061292084611ae6565b9050600061292d856120ea565b905061293c611f5a82866131c4565b600286015461294c90849061334a565b121595945050505050565b600081830381831280159061296c5750838113155b80612981575060008312801561298157508381135b610e8a5760405162461bcd60e51b8152600401808060200182810382526024815260200180613f7a6024913960400191505060405180910390fd5b60008282018183128015906129d15750838112155b806129e657506000831280156129e657508381125b610e8a5760405162461bcd60e51b8152600401808060200182810382526021815260200180613ef16021913960400191505060405180910390fd5b600080836001600160a01b03166381955105612a3c85612f30565b6040518263ffffffff1660e01b81526004018082815260200191505060206040518083038186803b158015612a7057600080fd5b505afa158015612a84573d6000803e3d6000fd5b505050506040513d6020811015612a9a57600080fd5b5051905060008312612ab457612aaf816128c8565b612abd565b612abd81611ffd565b949350505050565b60008060008512612ad65784612adf565b612adf85613360565b90506000808512612af05784612af9565b612af985613360565b905060008087128015612b0c5750600086135b80612b225750600087138015612b225750600086125b612b2d576000612b30565b60015b90506000612b3f84848861338c565b905081612b5457612b4f816128c8565b612b5d565b612b5d81611ffd565b98975050505050505050565b6000808215612be857835415612b9e57612b8c846000015484866002015461310b565b8454909250612b9b908361343b565b84555b600184015415612bd357612bbb846001015484866002015461310b565b6001850154909150612bcd908261343b565b60018501555b6002840154612be2908461343b565b60028501555b9250929050565b6001600160a01b038216612c0257600080fd5b6001600160a01b038216600090815260208490526040812054151580612c4457506001600160a01b038316600090815260018501602052604090206002015415155b6003850180549192509060005b81811015612d3457856001600160a01b0316838281548110612c6f57fe5b6000918252602090912001546001600160a01b03161415612d2c5783612d2357826001830381548110612c9e57fe5b9060005260206000200160009054906101000a90046001600160a01b0316838281548110612cc857fe5b9060005260206000200160006101000a8154816001600160a01b0302191690836001600160a01b0316021790555082805480612d0057fe5b600082815260209020810160001990810180546001600160a01b03191690550190555b50505050612d75565b600101612c51565b5081546001810183556000838152602090200180546001600160a01b0319166001600160a01b038716179055815460ff85161015612d7157600080fd5b5050505b505050565b6000612d8584613310565b612d8e86613310565b0260001914612d9c57600080fd5b6000612da88787613498565b6001600160a01b038816600090815260208a905260408120919250612dcc83613310565b8254612dd790613310565b026000191415612e8157670de0b6b3a76400006000612e0b612df886612f30565b83612e068760000154612f30565b61310b565b9050818111612e4c576000612e2e612e22836128c8565b60018701549085612ac5565b9050612e4489612e3e8c846129bc565b906129bc565b935050612e7a565b6000612e598a8484612ac5565b9050612e7689612e3e8388600101546129bc90919063ffffffff16565b9350505b5050612e84565b50845b8154612e9090846129bc565b82556001820154612ead908290611f6a908990612e3e908c6129bc565b600183015560028a0154612ec190826129bc565b60028b0155612ed18a8a87612bef565b9998505050505050505050565b604080516001600160a01b038416602482015260448082018490528251808303909101815260649091019091526020810180516001600160e01b031663a9059cbb60e01b179052612d759084906134b3565b600080821215612f5057612f4b612f4683613360565b613564565b610543565b61054382613564565b600082820183811015610e8a576040805162461bcd60e51b815260206004820152601b60248201527f536166654d6174683a206164646974696f6e206f766572666c6f770000000000604482015290519081900360640190fd5b600080600080612fc28a613009565b9050612fce8b826135bb565b50600080612fdf8b8b8b8b8b6135d2565b915091506000612ff48e8d858560008c612d7a565b929e919d50919b509950505050505050505050565b6000816001600160a01b0316637452fadd6040518163ffffffff1660e01b815260040160206040518083038186803b15801561304457600080fd5b505afa158015613058573d6000803e3d6000fd5b505050506040513d601f19601f820116820180604052508101906105439190613bf6565b6000612abd84600001548385602001516136e7565b60008061309e83866131c4565b905060006130ac82866131c4565b905060006130ba838361343b565b90506130d06130c8846128c8565b8b5490612957565b8a556130e66130de836128c8565b8a54906129bc565b89556130fc6130f4826128c8565b8954906129bc565b90975550979650505050505050565b600080600061311a868661372a565b915091506000848061312857fe5b86880990508281111561313c576001820391505b91829003918161315a5784838161314f57fe5b049350505050610e8a565b8482106131ae576040805162461bcd60e51b815260206004820152601a60248201527f46756c6c4d6174683a2046554c4c4449565f4f564552464c4f57000000000000604482015290519081900360640190fd5b6131b9838387613757565b979650505050505050565b6000610e8a838362ffffff16620f424061338c565b6040516370a0823160e01b81526000906001600160a01b038516906370a0823190613208903090600401613c98565b60206040518083038186803b15801561322057600080fd5b505afa158015613234573d6000803e3d6000fd5b505050506040513d601f19601f820116820180604052508101906132589190613bf6565b9050613266848430856137c7565b816132ed82866001600160a01b03166370a08231306040518263ffffffff1660e01b81526004016132979190613c98565b60206040518083038186803b1580156132af57600080fd5b505afa1580156132c3573d6000803e3d6000fd5b505050506040513d601f19601f820116820180604052508101906132e79190613bf6565b9061343b565b1461330a5760405162461bcd60e51b8152600401611d3290613d54565b50505050565b60008082136133305760008212613328576000612f4b565b600019610543565b506001919050565b82548251600091612abd9184906136e7565b60008183126133595781610e8a565b5090919050565b6000600160ff1b82136133855760405162461bcd60e51b8152600401611d3290613d91565b5060000390565b60008080600019858709868602925082811090839003039050806133c257600084116133b757600080fd5b508290049050610e8a565b8084116133ce57600080fd5b6000848688096000868103871696879004966002600389028118808a02820302808a02820302808a02820302808a02820302808a02820302808a02909103029181900381900460010186841190950394909402919094039290920491909117919091029150509392505050565b600082821115613492576040805162461bcd60e51b815260206004820152601e60248201527f536166654d6174683a207375627472616374696f6e206f766572666c6f770000604482015290519081900360640190fd5b50900390565b600080836001600160a01b0316631363bdd3612a3c85612f30565b6000613508826040518060400160405280602081526020017f5361666545524332303a206c6f772d6c6576656c2063616c6c206661696c6564815250856001600160a01b03166138219092919063ffffffff16565b805190915015612d755780806020019051602081101561352757600080fd5b5051612d755760405162461bcd60e51b815260040180806020018281038252602a815260200180613f9e602a913960400191505060405180910390fd5b600080821215612910576040805162461bcd60e51b815260206004820181905260248201527f53616665436173743a2076616c7565206d75737420626520706f736974697665604482015290519081900360640190fd5b428260010154101561208557815542600190910155565b6000806000876001600160a01b031663630e375f8888886040518463ffffffff1660e01b815260040180841515815260200183151581526020018281526020019350505050602060405180830381600087803b15801561363157600080fd5b505af1158015613645573d6000803e3d6000fd5b505050506040513d602081101561365b57600080fd5b5051905085156136a6578381101561367257600080fd5b86156136945761368185611ffd565b61368a826128c8565b92509250506136dd565b61369d816128c8565b61368a86611ffd565b838111156136b357600080fd5b86156136cb576136c281611ffd565b61368a866128c8565b6136d4856128c8565b61368a82611ffd565b9550959350505050565b6000806136f485846131c4565b905060006137028683612f59565b90506000613710878461343b565b90508581111580156131b957505090931115949350505050565b600080806000198486099050838502925082810391508281101561374f576001820391505b509250929050565b6000818103821680838161376757fe5b04925080858161377357fe5b04945080816000038161378257fe5b60028581038087028203028087028203028087028203028087028203028087028203028087028203029586029003909402930460010193909302939093010292915050565b604080516001600160a01b0380861660248301528416604482015260648082018490528251808303909101815260849091019091526020810180516001600160e01b03166323b872dd60e01b17905261330a9085906134b3565b6060612abd84846000858561383585611ae0565b613886576040805162461bcd60e51b815260206004820152601d60248201527f416464726573733a2063616c6c20746f206e6f6e2d636f6e7472616374000000604482015290519081900360640190fd5b600080866001600160a01b031685876040518082805190602001908083835b602083106138c45780518252601f1990920191602091820191016138a5565b6001836020036101000a03801982511681845116808217855250505050505090500191505060006040518083038185875af1925050503d8060008114613926576040519150601f19603f3d011682016040523d82523d6000602084013e61392b565b606091505b50915091506131b982828660608315613945575081610e8a565b8251156139555782518084602001fd5b8160405162461bcd60e51b81526004018080602001828103825283818151815260200191508051906020019080838360005b8381101561399f578181015183820152602001613987565b50505050905090810190601f1680156139cc5780820380516001836020036101000a031916815260200191505b509250505060405180910390fd5b604051806040016040528060008152602001600081525090565b60405180606001604052806000815260200160008152602001600081525090565b6040518060c001604052806000815260200160008152602001600081526020016000815260200160008152602001600081525090565b6040518060800160405280600081526020016000815260200160008152602001600081525090565b80356001600160a01b038116811461054657600080fd5b8035801515811461054657600080fd5b600060c08284031215613aab578081fd5b50919050565b600060a08284031215613aab578081fd5b600060208284031215613ad3578081fd5b610e8a82613a73565b60008060408385031215613aee578081fd5b613af783613a73565b9150613b0560208401613a73565b90509250929050565b60008060408385031215613b20578182fd5b613b2983613a73565b9150613b0560208401613a8a565b600060208284031215613b48578081fd5b610e8a82613a8a565b600060c08284031215613b62578081fd5b610e8a8383613a9a565b600060a08284031215613b7d578081fd5b610e8a8383613ab1565b600060408284031215613aab578081fd5b60008060c08385031215613baa578182fd5b613bb48484613ab1565b9150613b0560a08401613a73565b600060208284031215613bd3578081fd5b8135610e8a81613e96565b600060208284031215613bef578081fd5b5035919050565b600060208284031215613c07578081fd5b5051919050565b60008060408385031215613c20578182fd5b505080516020909101519092909150565b600080600060608486031215613c45578081fd5b8351925060208401519150604084015190509250925092565b600060208284031215613c6f578081fd5b813560ff81168114610e8a578182fd5b8051825260208082015190830152604090810151910152565b6001600160a01b0391909116815260200190565b6020808252825182820181905260009190848201906040850190845b81811015613ced5783516001600160a01b031683529284019291840191600101613cc8565b50909695505050505050565b901515815260200190565b90815260200190565b918252602082015260400190565b9283526020830191909152604082015260600190565b948552602085019390935260408401919091526060830152608082015260a00190565b602080825260059082015264565f49424160d81b604082015260600190565b602080825260049082015263565f5a4160e01b604082015260600190565b6020808252601c908201527f506572704d6174683a20696e76657273696f6e206f766572666c6f7700000000604082015260600190565b60208082526005908201526443485f544560d81b604082015260600190565b606081016109068284613c7f565b815181526020918201519181019190915260400190565b9051815260200190565b62ffffff91909116815260200190565b62ffffff92831681529116602082015260400190565b60ff91909116815260200190565b8135613e5581613e96565b815462ffffff191662ffffff91909116178082556020830135613e7781613e96565b65ffffff0000008160181b1665ffffff00000019831617835550505050565b62ffffff81168114613ea757600080fd5b5056fe5265656e7472616e637947756172643a207265656e7472616e742063616c6c004f776e61626c653a206e6577206f776e657220697320746865207a65726f20616464726573735369676e6564536166654d6174683a206164646974696f6e206f766572666c6f774f776e61626c653a2063616c6c6572206973206e6f7420746865206f776e6572adf7293c36a87213f46d9ad13f46093b4c6becaecc1a3c4b6be2aad2f60676cf53616665436173743a2076616c756520646f65736e27742066697420696e20616e20696e743235365369676e6564536166654d6174683a207375627472616374696f6e206f766572666c6f775361666545524332303a204552433230206f7065726174696f6e20646964206e6f742073756363656564a2646970667358221220f505535a879a27fc63c91b317ac9a567bdff2f3181c8999e1dc29145fbe2271764736f6c63430007060033",
  "devdoc": {
    "kind": "dev",
    "methods": {
      "owner()": {
        "details": "Returns the address of the current owner."
      },
      "renounceOwnership()": {
        "details": "Leaves the contract without owner. It will not be possible to call `onlyOwner` functions anymore. Can only be called by the current owner. NOTE: Renouncing ownership will leave the contract without an owner, thereby removing any functionality that is only available to the owner."
      },
      "transferOwnership(address)": {
        "details": "Transfers ownership of the contract to a new account (`newOwner`). Can only be called by the current owner."
      }
    },
    "version": 1
  },
  "userdoc": {
    "kind": "user",
    "methods": {},
    "version": 1
  },
  "storageLayout": {
    "storage": [
      {
        "astId": 4694,
        "contract": "contracts/PerpdexExchange.sol:PerpdexExchange",
        "label": "_status",
        "offset": 0,
        "slot": "0",
        "type": "t_uint256"
      },
      {
        "astId": 3147,
        "contract": "contracts/PerpdexExchange.sol:PerpdexExchange",
        "label": "_owner",
        "offset": 0,
        "slot": "1",
        "type": "t_address"
      },
      {
        "astId": 30837,
        "contract": "contracts/PerpdexExchange.sol:PerpdexExchange",
        "label": "accountInfos",
        "offset": 0,
        "slot": "2",
        "type": "t_mapping(t_address,t_struct(AccountInfo)49623_storage)"
      },
      {
        "astId": 30842,
        "contract": "contracts/PerpdexExchange.sol:PerpdexExchange",
        "label": "priceLimitInfos",
        "offset": 0,
        "slot": "3",
        "type": "t_mapping(t_address,t_struct(PriceLimitInfo)49631_storage)"
      },
      {
        "astId": 30845,
        "contract": "contracts/PerpdexExchange.sol:PerpdexExchange",
        "label": "insuranceFundInfo",
        "offset": 0,
        "slot": "4",
        "type": "t_struct(InsuranceFundInfo)49626_storage"
      },
      {
        "astId": 30851,
        "contract": "contracts/PerpdexExchange.sol:PerpdexExchange",
        "label": "priceLimitConfig",
        "offset": 0,
        "slot": "5",
        "type": "t_struct(PriceLimitConfig)49636_storage"
      },
      {
        "astId": 30854,
        "contract": "contracts/PerpdexExchange.sol:PerpdexExchange",
        "label": "maxMarketsPerAccount",
        "offset": 0,
        "slot": "6",
        "type": "t_uint8"
      },
      {
        "astId": 30857,
        "contract": "contracts/PerpdexExchange.sol:PerpdexExchange",
        "label": "imRatio",
        "offset": 1,
        "slot": "6",
        "type": "t_uint24"
      },
      {
        "astId": 30860,
        "contract": "contracts/PerpdexExchange.sol:PerpdexExchange",
        "label": "mmRatio",
        "offset": 4,
        "slot": "6",
        "type": "t_uint24"
      },
      {
        "astId": 30863,
        "contract": "contracts/PerpdexExchange.sol:PerpdexExchange",
        "label": "liquidationRewardRatio",
        "offset": 7,
        "slot": "6",
        "type": "t_uint24"
      },
      {
        "astId": 30868,
        "contract": "contracts/PerpdexExchange.sol:PerpdexExchange",
        "label": "isMarketAllowed",
        "offset": 0,
        "slot": "7",
        "type": "t_mapping(t_address,t_bool)"
      }
    ],
    "types": {
      "t_address": {
        "encoding": "inplace",
        "label": "address",
        "numberOfBytes": "20"
      },
      "t_array(t_address)dyn_storage": {
        "base": "t_address",
        "encoding": "dynamic_array",
        "label": "address[]",
        "numberOfBytes": "32"
      },
      "t_bool": {
        "encoding": "inplace",
        "label": "bool",
        "numberOfBytes": "1"
      },
      "t_int256": {
        "encoding": "inplace",
        "label": "int256",
        "numberOfBytes": "32"
      },
      "t_mapping(t_address,t_bool)": {
        "encoding": "mapping",
        "key": "t_address",
        "label": "mapping(address => bool)",
        "numberOfBytes": "32",
        "value": "t_bool"
      },
      "t_mapping(t_address,t_struct(AccountInfo)49623_storage)": {
        "encoding": "mapping",
        "key": "t_address",
        "label": "mapping(address => struct PerpdexStructs.AccountInfo)",
        "numberOfBytes": "32",
        "value": "t_struct(AccountInfo)49623_storage"
      },
      "t_mapping(t_address,t_struct(MakerInfo)49606_storage)": {
        "encoding": "mapping",
        "key": "t_address",
        "label": "mapping(address => struct PerpdexStructs.MakerInfo)",
        "numberOfBytes": "32",
        "value": "t_struct(MakerInfo)49606_storage"
      },
      "t_mapping(t_address,t_struct(PriceLimitInfo)49631_storage)": {
        "encoding": "mapping",
        "key": "t_address",
        "label": "mapping(address => struct PerpdexStructs.PriceLimitInfo)",
        "numberOfBytes": "32",
        "value": "t_struct(PriceLimitInfo)49631_storage"
      },
      "t_mapping(t_address,t_struct(TakerInfo)49599_storage)": {
        "encoding": "mapping",
        "key": "t_address",
        "label": "mapping(address => struct PerpdexStructs.TakerInfo)",
        "numberOfBytes": "32",
        "value": "t_struct(TakerInfo)49599_storage"
      },
      "t_struct(AccountInfo)49623_storage": {
        "encoding": "inplace",
        "label": "struct PerpdexStructs.AccountInfo",
        "members": [
          {
            "astId": 49613,
            "contract": "contracts/PerpdexExchange.sol:PerpdexExchange",
            "label": "takerInfos",
            "offset": 0,
            "slot": "0",
            "type": "t_mapping(t_address,t_struct(TakerInfo)49599_storage)"
          },
          {
            "astId": 49617,
            "contract": "contracts/PerpdexExchange.sol:PerpdexExchange",
            "label": "makerInfos",
            "offset": 0,
            "slot": "1",
            "type": "t_mapping(t_address,t_struct(MakerInfo)49606_storage)"
          },
          {
            "astId": 49619,
            "contract": "contracts/PerpdexExchange.sol:PerpdexExchange",
            "label": "vaultInfo",
            "offset": 0,
            "slot": "2",
            "type": "t_struct(VaultInfo)49609_storage"
          },
          {
            "astId": 49622,
            "contract": "contracts/PerpdexExchange.sol:PerpdexExchange",
            "label": "markets",
            "offset": 0,
            "slot": "3",
            "type": "t_array(t_address)dyn_storage"
          }
        ],
        "numberOfBytes": "128"
      },
      "t_struct(InsuranceFundInfo)49626_storage": {
        "encoding": "inplace",
        "label": "struct PerpdexStructs.InsuranceFundInfo",
        "members": [
          {
            "astId": 49625,
            "contract": "contracts/PerpdexExchange.sol:PerpdexExchange",
            "label": "balance",
            "offset": 0,
            "slot": "0",
            "type": "t_int256"
          }
        ],
        "numberOfBytes": "32"
      },
      "t_struct(MakerInfo)49606_storage": {
        "encoding": "inplace",
        "label": "struct PerpdexStructs.MakerInfo",
        "members": [
          {
            "astId": 49601,
            "contract": "contracts/PerpdexExchange.sol:PerpdexExchange",
            "label": "baseDebtShare",
            "offset": 0,
            "slot": "0",
            "type": "t_uint256"
          },
          {
            "astId": 49603,
            "contract": "contracts/PerpdexExchange.sol:PerpdexExchange",
            "label": "quoteDebt",
            "offset": 0,
            "slot": "1",
            "type": "t_uint256"
          },
          {
            "astId": 49605,
            "contract": "contracts/PerpdexExchange.sol:PerpdexExchange",
            "label": "liquidity",
            "offset": 0,
            "slot": "2",
            "type": "t_uint256"
          }
        ],
        "numberOfBytes": "96"
      },
      "t_struct(PriceLimitConfig)49636_storage": {
        "encoding": "inplace",
        "label": "struct PerpdexStructs.PriceLimitConfig",
        "members": [
          {
            "astId": 49633,
            "contract": "contracts/PerpdexExchange.sol:PerpdexExchange",
            "label": "priceLimitNormalOrderRatio",
            "offset": 0,
            "slot": "0",
            "type": "t_uint24"
          },
          {
            "astId": 49635,
            "contract": "contracts/PerpdexExchange.sol:PerpdexExchange",
            "label": "priceLimitLiquidationRatio",
            "offset": 3,
            "slot": "0",
            "type": "t_uint24"
          }
        ],
        "numberOfBytes": "32"
      },
      "t_struct(PriceLimitInfo)49631_storage": {
        "encoding": "inplace",
        "label": "struct PerpdexStructs.PriceLimitInfo",
        "members": [
          {
            "astId": 49628,
            "contract": "contracts/PerpdexExchange.sol:PerpdexExchange",
            "label": "referencePrice",
            "offset": 0,
            "slot": "0",
            "type": "t_uint256"
          },
          {
            "astId": 49630,
            "contract": "contracts/PerpdexExchange.sol:PerpdexExchange",
            "label": "referenceTimestamp",
            "offset": 0,
            "slot": "1",
            "type": "t_uint256"
          }
        ],
        "numberOfBytes": "64"
      },
      "t_struct(TakerInfo)49599_storage": {
        "encoding": "inplace",
        "label": "struct PerpdexStructs.TakerInfo",
        "members": [
          {
            "astId": 49596,
            "contract": "contracts/PerpdexExchange.sol:PerpdexExchange",
            "label": "baseBalanceShare",
            "offset": 0,
            "slot": "0",
            "type": "t_int256"
          },
          {
            "astId": 49598,
            "contract": "contracts/PerpdexExchange.sol:PerpdexExchange",
            "label": "quoteBalance",
            "offset": 0,
            "slot": "1",
            "type": "t_int256"
          }
        ],
        "numberOfBytes": "64"
      },
      "t_struct(VaultInfo)49609_storage": {
        "encoding": "inplace",
        "label": "struct PerpdexStructs.VaultInfo",
        "members": [
          {
            "astId": 49608,
            "contract": "contracts/PerpdexExchange.sol:PerpdexExchange",
            "label": "collateralBalance",
            "offset": 0,
            "slot": "0",
            "type": "t_int256"
          }
        ],
        "numberOfBytes": "32"
      },
      "t_uint24": {
        "encoding": "inplace",
        "label": "uint24",
        "numberOfBytes": "3"
      },
      "t_uint256": {
        "encoding": "inplace",
        "label": "uint256",
        "numberOfBytes": "32"
      },
      "t_uint8": {
        "encoding": "inplace",
        "label": "uint8",
        "numberOfBytes": "1"
      }
    }
  }
}