{
  "address": "0xD51a13554c501b8E657c63871040554aE94e492e",
  "abi": [
    {
      "inputs": [
        {
          "internalType": "string",
          "name": "symbolArg",
          "type": "string"
        },
        {
          "internalType": "address",
          "name": "exchangeArg",
          "type": "address"
        },
        {
          "internalType": "address",
          "name": "priceFeedBaseArg",
          "type": "address"
        },
        {
          "internalType": "address",
          "name": "priceFeedQuoteArg",
          "type": "address"
        }
      ],
      "stateMutability": "nonpayable",
      "type": "constructor"
    },
    {
      "anonymous": false,
      "inputs": [
        {
          "indexed": false,
          "internalType": "int256",
          "name": "fundingRateX96",
          "type": "int256"
        }
      ],
      "name": "FundingPaid",
      "type": "event"
    },
    {
      "anonymous": false,
      "inputs": [
        {
          "indexed": false,
          "internalType": "uint256",
          "name": "base",
          "type": "uint256"
        },
        {
          "indexed": false,
          "internalType": "uint256",
          "name": "quote",
          "type": "uint256"
        },
        {
          "indexed": false,
          "internalType": "uint256",
          "name": "liquidity",
          "type": "uint256"
        }
      ],
      "name": "LiquidityAdded",
      "type": "event"
    },
    {
      "anonymous": false,
      "inputs": [
        {
          "indexed": false,
          "internalType": "uint256",
          "name": "base",
          "type": "uint256"
        },
        {
          "indexed": false,
          "internalType": "uint256",
          "name": "quote",
          "type": "uint256"
        },
        {
          "indexed": false,
          "internalType": "uint256",
          "name": "liquidity",
          "type": "uint256"
        }
      ],
      "name": "LiquidityRemoved",
      "type": "event"
    },
    {
      "anonymous": false,
      "inputs": [
        {
          "indexed": true,
          "internalType": "address",
          "name": "previousOwner",
          "type": "address"
        },
        {
          "indexed": true,
          "internalType": "address",
          "name": "newOwner",
          "type": "address"
        }
      ],
      "name": "OwnershipTransferred",
      "type": "event"
    },
    {
      "anonymous": false,
      "inputs": [
        {
          "indexed": false,
          "internalType": "bool",
          "name": "isBaseToQuote",
          "type": "bool"
        },
        {
          "indexed": false,
          "internalType": "bool",
          "name": "isExactInput",
          "type": "bool"
        },
        {
          "indexed": false,
          "internalType": "uint256",
          "name": "amount",
          "type": "uint256"
        },
        {
          "indexed": false,
          "internalType": "uint256",
          "name": "oppositeAmount",
          "type": "uint256"
        }
      ],
      "name": "Swapped",
      "type": "event"
    },
    {
      "inputs": [
        {
          "internalType": "uint256",
          "name": "baseShare",
          "type": "uint256"
        },
        {
          "internalType": "uint256",
          "name": "quoteBalance",
          "type": "uint256"
        }
      ],
      "name": "addLiquidity",
      "outputs": [
        {
          "internalType": "uint256",
          "name": "base",
          "type": "uint256"
        },
        {
          "internalType": "uint256",
          "name": "quote",
          "type": "uint256"
        },
        {
          "internalType": "uint256",
          "name": "liquidity",
          "type": "uint256"
        }
      ],
      "stateMutability": "nonpayable",
      "type": "function"
    },
    {
      "inputs": [],
      "name": "baseBalancePerShareX96",
      "outputs": [
        {
          "internalType": "uint256",
          "name": "",
          "type": "uint256"
        }
      ],
      "stateMutability": "view",
      "type": "function"
    },
    {
      "inputs": [],
      "name": "exchange",
      "outputs": [
        {
          "internalType": "address",
          "name": "",
          "type": "address"
        }
      ],
      "stateMutability": "view",
      "type": "function"
    },
    {
      "inputs": [],
      "name": "fundingInfo",
      "outputs": [
        {
          "internalType": "uint256",
          "name": "prevIndexPriceBase",
          "type": "uint256"
        },
        {
          "internalType": "uint256",
          "name": "prevIndexPriceQuote",
          "type": "uint256"
        },
        {
          "internalType": "uint256",
          "name": "prevIndexPriceTimestamp",
          "type": "uint256"
        }
      ],
      "stateMutability": "view",
      "type": "function"
    },
    {
      "inputs": [],
      "name": "fundingMaxElapsedSec",
      "outputs": [
        {
          "internalType": "uint32",
          "name": "",
          "type": "uint32"
        }
      ],
      "stateMutability": "view",
      "type": "function"
    },
    {
      "inputs": [],
      "name": "fundingMaxPremiumRatio",
      "outputs": [
        {
          "internalType": "uint24",
          "name": "",
          "type": "uint24"
        }
      ],
      "stateMutability": "view",
      "type": "function"
    },
    {
      "inputs": [],
      "name": "fundingRolloverSec",
      "outputs": [
        {
          "internalType": "uint32",
          "name": "",
          "type": "uint32"
        }
      ],
      "stateMutability": "view",
      "type": "function"
    },
    {
      "inputs": [],
      "name": "getCumDeleveragedPerLiquidityX96",
      "outputs": [
        {
          "internalType": "uint256",
          "name": "",
          "type": "uint256"
        },
        {
          "internalType": "uint256",
          "name": "",
          "type": "uint256"
        }
      ],
      "stateMutability": "view",
      "type": "function"
    },
    {
      "inputs": [
        {
          "internalType": "uint256",
          "name": "liquidity",
          "type": "uint256"
        },
        {
          "internalType": "uint256",
          "name": "cumDeleveragedBasePerLiquidityX96",
          "type": "uint256"
        },
        {
          "internalType": "uint256",
          "name": "cumDeleveragedQuotePerLiquidityX96",
          "type": "uint256"
        }
      ],
      "name": "getLiquidityDeleveraged",
      "outputs": [
        {
          "internalType": "uint256",
          "name": "",
          "type": "uint256"
        },
        {
          "internalType": "uint256",
          "name": "",
          "type": "uint256"
        }
      ],
      "stateMutability": "view",
      "type": "function"
    },
    {
      "inputs": [
        {
          "internalType": "uint256",
          "name": "liquidity",
          "type": "uint256"
        }
      ],
      "name": "getLiquidityValue",
      "outputs": [
        {
          "internalType": "uint256",
          "name": "",
          "type": "uint256"
        },
        {
          "internalType": "uint256",
          "name": "",
          "type": "uint256"
        }
      ],
      "stateMutability": "view",
      "type": "function"
    },
    {
      "inputs": [],
      "name": "getMarkPriceX96",
      "outputs": [
        {
          "internalType": "uint256",
          "name": "",
          "type": "uint256"
        }
      ],
      "stateMutability": "view",
      "type": "function"
    },
    {
      "inputs": [],
      "name": "getShareMarkPriceX96",
      "outputs": [
        {
          "internalType": "uint256",
          "name": "",
          "type": "uint256"
        }
      ],
      "stateMutability": "view",
      "type": "function"
    },
    {
      "inputs": [],
      "name": "owner",
      "outputs": [
        {
          "internalType": "address",
          "name": "",
          "type": "address"
        }
      ],
      "stateMutability": "view",
      "type": "function"
    },
    {
      "inputs": [],
      "name": "poolFeeRatio",
      "outputs": [
        {
          "internalType": "uint24",
          "name": "",
          "type": "uint24"
        }
      ],
      "stateMutability": "view",
      "type": "function"
    },
    {
      "inputs": [],
      "name": "poolInfo",
      "outputs": [
        {
          "internalType": "uint256",
          "name": "base",
          "type": "uint256"
        },
        {
          "internalType": "uint256",
          "name": "quote",
          "type": "uint256"
        },
        {
          "internalType": "uint256",
          "name": "totalLiquidity",
          "type": "uint256"
        },
        {
          "internalType": "uint256",
          "name": "cumDeleveragedBasePerLiquidityX96",
          "type": "uint256"
        },
        {
          "internalType": "uint256",
          "name": "cumDeleveragedQuotePerLiquidityX96",
          "type": "uint256"
        },
        {
          "internalType": "uint256",
          "name": "baseBalancePerShareX96",
          "type": "uint256"
        }
      ],
      "stateMutability": "view",
      "type": "function"
    },
    {
      "inputs": [],
      "name": "priceFeedBase",
      "outputs": [
        {
          "internalType": "address",
          "name": "",
          "type": "address"
        }
      ],
      "stateMutability": "view",
      "type": "function"
    },
    {
      "inputs": [],
      "name": "priceFeedQuote",
      "outputs": [
        {
          "internalType": "address",
          "name": "",
          "type": "address"
        }
      ],
      "stateMutability": "view",
      "type": "function"
    },
    {
      "inputs": [
        {
          "internalType": "uint256",
          "name": "liquidity",
          "type": "uint256"
        }
      ],
      "name": "removeLiquidity",
      "outputs": [
        {
          "internalType": "uint256",
          "name": "base",
          "type": "uint256"
        },
        {
          "internalType": "uint256",
          "name": "quote",
          "type": "uint256"
        }
      ],
      "stateMutability": "nonpayable",
      "type": "function"
    },
    {
      "inputs": [],
      "name": "renounceOwnership",
      "outputs": [],
      "stateMutability": "nonpayable",
      "type": "function"
    },
    {
      "inputs": [
        {
          "internalType": "uint32",
          "name": "value",
          "type": "uint32"
        }
      ],
      "name": "setFundingMaxElapsedSec",
      "outputs": [],
      "stateMutability": "nonpayable",
      "type": "function"
    },
    {
      "inputs": [
        {
          "internalType": "uint24",
          "name": "value",
          "type": "uint24"
        }
      ],
      "name": "setFundingMaxPremiumRatio",
      "outputs": [],
      "stateMutability": "nonpayable",
      "type": "function"
    },
    {
      "inputs": [
        {
          "internalType": "uint32",
          "name": "value",
          "type": "uint32"
        }
      ],
      "name": "setFundingRolloverSec",
      "outputs": [],
      "stateMutability": "nonpayable",
      "type": "function"
    },
    {
      "inputs": [
        {
          "internalType": "uint24",
          "name": "value",
          "type": "uint24"
        }
      ],
      "name": "setPoolFeeRatio",
      "outputs": [],
      "stateMutability": "nonpayable",
      "type": "function"
    },
    {
      "inputs": [
        {
          "internalType": "bool",
          "name": "isBaseToQuote",
          "type": "bool"
        },
        {
          "internalType": "bool",
          "name": "isExactInput",
          "type": "bool"
        },
        {
          "internalType": "uint256",
          "name": "amount",
          "type": "uint256"
        }
      ],
      "name": "swap",
      "outputs": [
        {
          "internalType": "uint256",
          "name": "oppositeAmount",
          "type": "uint256"
        }
      ],
      "stateMutability": "nonpayable",
      "type": "function"
    },
    {
      "inputs": [
        {
          "internalType": "bool",
          "name": "isBaseToQuote",
          "type": "bool"
        },
        {
          "internalType": "bool",
          "name": "isExactInput",
          "type": "bool"
        },
        {
          "internalType": "uint256",
          "name": "amount",
          "type": "uint256"
        }
      ],
      "name": "swapDry",
      "outputs": [
        {
          "internalType": "uint256",
          "name": "oppositeAmount",
          "type": "uint256"
        }
      ],
      "stateMutability": "view",
      "type": "function"
    },
    {
      "inputs": [],
      "name": "symbol",
      "outputs": [
        {
          "internalType": "string",
          "name": "",
          "type": "string"
        }
      ],
      "stateMutability": "view",
      "type": "function"
    },
    {
      "inputs": [
        {
          "internalType": "address",
          "name": "newOwner",
          "type": "address"
        }
      ],
      "name": "transferOwnership",
      "outputs": [],
      "stateMutability": "nonpayable",
      "type": "function"
    }
  ],
  "transactionHash": "0x3ed898d2d96d239ef5c0e2943a7e2a2a245b662ddf49a2e6fccacbb3b204fe2e",
  "args": [
    "LINK",
    "0x2aaFC6979b8D18D0d936C86895e84915B50F3569",
    "0x0ae9dD9d67E303FaD1028160DE202DE6e149dcFC",
    "0xBB82625d4b46ae1b4dbF519A56d4A19e2F70d63b"
  ],
  "numDeployments": 4,
  "solcInputHash": "490412bb694cd6dc2ffc2729271c7140",
  "bytecode": "0x60e0604052600c8054610bb862ffffff199091161765ffffff00000019166427100000001763ffffffff60301b1916680151800000000000001763ffffffff60501b19166102a360571b1790553480156200005957600080fd5b50604051620028b4380380620028b4833981810160405260808110156200007f57600080fd5b8101908080516040519392919084640100000000821115620000a057600080fd5b908301906020820185811115620000b657600080fd5b8251640100000000811182820188101715620000d157600080fd5b82525081516020918201929091019080838360005b8381101562000100578181015183820152602001620000e6565b50505050905090810190601f1680156200012e5780820380516001836020036101000a031916815260200191505b506040908152602082015190820151606090920151600160009081559194509192506200015a62000321565b600180546001600160a01b0319166001600160a01b038316908117909155604051919250906000907f8be0079c531659141344cd1fd0a4f28419497f9722a3daafe3b4186f6b6457e0908290a3506001600160a01b0382161580620001d95750620001d9826001600160a01b03166200032560201b620011a31760201c565b6200022b576040805162461bcd60e51b815260206004820152601d60248201527f504d5f433a2062617365207072696365206665656420696e76616c6964000000604482015290519081900360640190fd5b6001600160a01b03811615806200025c57506200025c816001600160a01b03166200032560201b620011a31760201c565b620002ae576040805162461bcd60e51b815260206004820152601e60248201527f504d5f433a2071756f7465207072696365206665656420696e76616c69640000604482015290519081900360640190fd5b8351620002c39060029060208701906200034a565b50606083811b6001600160601b031990811660805283821b811660a0529082901b1660c0526200030060096200032b602090811b620011ad17901c565b6200031760036200033460201b620011b61760201c565b50505050620003f6565b3390565b3b151590565b42600290910155565b6c01000000000000000000000000600590910155565b828054600181600116156101000203166002900490600052602060002090601f016020900481019282620003825760008555620003cd565b82601f106200039d57805160ff1916838001178555620003cd565b82800160010185558215620003cd579182015b82811115620003cd578251825591602001919060010190620003b0565b50620003db929150620003df565b5090565b5b80821115620003db5760008155600101620003e0565b60805160601c60a05160601c60c05160601c6124656200044f600039806106335280610e9252806113f2525080610b795280610e7152806113c35250806106935280610c825280610db1528061106852506124656000f3fe608060405234801561001057600080fd5b50600436106101795760003560e01c8063823f2b04116100d95780639c8f9f23116100875780639c8f9f231461040f5780639cd441da1461042c5780639d67bf031461046d578063d2f7265a14610490578063dba4915314610498578063f2289752146104a0578063f2fde38b146104a857610179565b8063823f2b041461034157806388e27dfb146103495780638da5cb5b146103515780638ee8fe5d14610359578063933c7979146103615780639482de1a1461038a57806395d89b411461039257610179565b8063630e375f11610136578063630e375f14610281578063715018a6146102ae5780637452fadd146102b657806374f25689146102be5780637640482f146102e05780637661ce1314610316578063796c20b71461031e57610179565b8063017dab941461017e57806301e0df12146101bd5780630e06e4d0146101e1578063186f181e146102055780633aa3e650146102265780635a2f3d0914610246575b600080fd5b6101ab6004803603606081101561019457600080fd5b5080351515906020810135151590604001356104ce565b60408051918252519081900360200190f35b6101df600480360360208110156101d357600080fd5b503562ffffff16610514565b005b6101e9610631565b604080516001600160a01b039092168252519081900360200190f35b61020d610655565b6040805163ffffffff9092168252519081900360200190f35b61022e610668565b6040805162ffffff9092168252519081900360200190f35b61024e61067a565b604080519687526020870195909552858501939093526060850191909152608084015260a0830152519081900360c00190f35b6101ab6004803603606081101561029757600080fd5b50803515159060208101351515906040013561068f565b6101df6107df565b6101ab61088b565b6101df600480360360208110156102d457600080fd5b503562ffffff166108a7565b6102fd600480360360208110156102f657600080fd5b50356109d0565b6040805192835260208301919091528051918290030190f35b61020d6109e7565b6101df6004803603602081101561033457600080fd5b503563ffffffff166109fa565b6101e9610b77565b61022e610b9b565b6101e9610ba6565b6101ab610bb5565b6102fd6004803603606081101561037757600080fd5b5080359060208101359060400135610bc7565b6101ab610bec565b61039a610bf2565b6040805160208082528351818301528351919283929083019185019080838360005b838110156103d45781810151838201526020016103bc565b50505050905090810190601f1680156104015780820380516001836020036101000a031916815260200191505b509250505060405180910390f35b6102fd6004803603602081101561042557600080fd5b5035610c7d565b61044f6004803603604081101561044257600080fd5b5080359060200135610dab565b60408051938452602084019290925282820152519081900360600190f35b6101df6004803603602081101561048357600080fd5b503563ffffffff16610f37565b6101e9611066565b61044f61108a565b6102fd611096565b6101df600480360360208110156104be57600080fd5b50356001600160a01b03166110a0565b6003546004546040805160808101825286151581528515156020820152908101849052600c5462ffffff16606082015260009261050c9290916111c3565b949350505050565b61051c6112d3565b6001600160a01b031661052d610ba6565b6001600160a01b031614610576576040805162461bcd60e51b815260206004820181905260248201526000805160206123c4833981519152604482015290519081900360640190fd5b600260005414156105bc576040805162461bcd60e51b815260206004820152601f602482015260008051602061233d833981519152604482015290519081900360640190fd5b600260005561c35062ffffff82161115610612576040805162461bcd60e51b8152602060048201526012602482015271504d5f535046523a20746f6f206c6172676560701b604482015290519081900360640190fd5b600c805462ffffff191662ffffff929092169190911790556001600055565b7f000000000000000000000000000000000000000000000000000000000000000081565b600c54600160501b900463ffffffff1681565b600c546301000000900462ffffff1681565b60035460045460055460065460075460085486565b60007f00000000000000000000000000000000000000000000000000000000000000006001600160a01b031633146106fc576040805162461bcd60e51b815260206004820152601d6024820152600080516020612383833981519152604482015290519081900360640190fd5b60026000541415610742576040805162461bcd60e51b815260206004820152601f602482015260008051602061233d833981519152604482015290519081900360640190fd5b60026000556040805160808101825285151581528415156020820152908101839052600c5462ffffff16606082015261077d906003906112d7565b60408051861515815285151560208201528082018590526060810183905290519192507fdedf81f778c63a97f5a04bfeae9e0e04f18d283b04d930ea7b6af78b6eb50b76919081900360800190a16107d36113af565b60016000559392505050565b6107e76112d3565b6001600160a01b03166107f8610ba6565b6001600160a01b031614610841576040805162461bcd60e51b815260206004820181905260248201526000805160206123c4833981519152604482015290519081900360640190fd5b6001546040516000916001600160a01b0316907f8be0079c531659141344cd1fd0a4f28419497f9722a3daafe3b4186f6b6457e0908390a3600180546001600160a01b0319169055565b6003546004546008546000926108a29290916114b3565b905090565b6108af6112d3565b6001600160a01b03166108c0610ba6565b6001600160a01b031614610909576040805162461bcd60e51b815260206004820181905260248201526000805160206123c4833981519152604482015290519081900360640190fd5b6002600054141561094f576040805162461bcd60e51b815260206004820152601f602482015260008051602061233d833981519152604482015290519081900360640190fd5b6002600055620186a062ffffff821611156109a7576040805162461bcd60e51b8152602060048201526013602482015272504d5f53464d50523a20746f6f206c6172676560681b604482015290519081900360640190fd5b600c805462ffffff90921663010000000265ffffff000000199092169190911790556001600055565b6000806109de6003846114d4565b91509150915091565b600c54600160301b900463ffffffff1681565b610a026112d3565b6001600160a01b0316610a13610ba6565b6001600160a01b031614610a5c576040805162461bcd60e51b815260206004820181905260248201526000805160206123c4833981519152604482015290519081900360640190fd5b60026000541415610aa2576040805162461bcd60e51b815260206004820152601f602482015260008051602061233d833981519152604482015290519081900360640190fd5b600260005562093a8063ffffffff82161115610afa576040805162461bcd60e51b8152602060048201526012602482015271504d5f534652533a20746f6f206c6172676560701b604482015290519081900360640190fd5b610e108163ffffffff161015610b4c576040805162461bcd60e51b8152602060048201526012602482015271141357d4d19494ce881d1bdbc81cdb585b1b60721b604482015290519081900360640190fd5b600c805463ffffffff909216600160501b0263ffffffff60501b199092169190911790556001600055565b7f000000000000000000000000000000000000000000000000000000000000000081565b600c5462ffffff1681565b6001546001600160a01b031690565b6003546004546000916108a291611508565b600080610be06003800154600360040154878787611519565b91509150935093915050565b60085490565b6002805460408051602060018416156101000260001901909316849004601f81018490048402820184019092528181529291830182828015610c755780601f10610c4a57610100808354040283529160200191610c75565b820191906000526020600020905b815481529060010190602001808311610c5857829003601f168201915b505050505081565b6000807f00000000000000000000000000000000000000000000000000000000000000006001600160a01b03163314610ceb576040805162461bcd60e51b815260206004820152601d6024820152600080516020612383833981519152604482015290519081900360640190fd5b60026000541415610d31576040805162461bcd60e51b815260206004820152601f602482015260008051602061233d833981519152604482015290519081900360640190fd5b60026000556040805160208101909152838152610d5090600390611565565b604080518381526020810183905280820187905290519294509092507f0bb89aa54ed6940a7e7167bd262b2400d63945045ceff1a52a05f2601ed215f1919081900360600190a1610d9f6113af565b60016000559092909150565b600080807f00000000000000000000000000000000000000000000000000000000000000006001600160a01b03163314610e1a576040805162461bcd60e51b815260206004820152601d6024820152600080516020612383833981519152604482015290519081900360640190fd5b60026000541415610e60576040805162461bcd60e51b815260206004820152601f602482015260008051602061233d833981519152604482015290519081900360640190fd5b6002600055600554610eb857610eb87f00000000000000000000000000000000000000000000000000000000000000007f0000000000000000000000000000000000000000000000000000000000000000878761162d565b610ed760036040518060400160405280888152602001878152506116ed565b6040805184815260208101849052808201839052905193965091945092507fd7f28048575eead8851d024ead087913957dfb4fd1a02b4d1573f5352a5a2be3919081900360600190a1610f286113af565b60016000819055509250925092565b610f3f6112d3565b6001600160a01b0316610f50610ba6565b6001600160a01b031614610f99576040805162461bcd60e51b815260206004820181905260248201526000805160206123c4833981519152604482015290519081900360640190fd5b60026000541415610fdf576040805162461bcd60e51b815260206004820152601f602482015260008051602061233d833981519152604482015290519081900360640190fd5b600260005562093a8063ffffffff82161115611038576040805162461bcd60e51b8152602060048201526013602482015272504d5f53464d45533a20746f6f206c6172676560681b604482015290519081900360640190fd5b600c805463ffffffff909216600160301b0269ffffffff000000000000199092169190911790556001600055565b7f000000000000000000000000000000000000000000000000000000000000000081565b600954600a54600b5483565b6006546007549091565b6110a86112d3565b6001600160a01b03166110b9610ba6565b6001600160a01b031614611102576040805162461bcd60e51b815260206004820181905260248201526000805160206123c4833981519152604482015290519081900360640190fd5b6001600160a01b0381166111475760405162461bcd60e51b815260040180806020018281038252602681526020018061235d6026913960400191505060405180910390fd5b6001546040516001600160a01b038084169216907f8be0079c531659141344cd1fd0a4f28419497f9722a3daafe3b4186f6b6457e090600090a3600180546001600160a01b0319166001600160a01b0392909216919091179055565b803b15155b919050565b42600290910155565b600160601b600590910155565b60608101516020820151600091620f424001901561123e5760408301516000906111ed9083611860565b84519091501561121c5761121561120e87876112098286611875565b6118cf565b8690611909565b9250611238565b61123561122e87876112098186611875565b8790611909565b92505b506112a2565b8251156112725761126b85611265878761120988604001518a61190990919063ffffffff16565b90611909565b9150611295565b61129284611265878761120988604001518b61190990919063ffffffff16565b91505b61129f8282611966565b91505b600082116112cb5760405162461bcd60e51b81526004016112c290612213565b60405180910390fd5b509392505050565b3390565b6000806112ed84600001548560010154856111c3565b90508260200151156113575782511561132b576040830151845461131091611875565b845560018401546113219082611909565b6001850155611352565b83546113379082611909565b84556040830151600185015461134c91611875565b60018501555b6113a6565b82511561137f57835461136a9082611875565b84556040830151600185015461134c91611909565b6040830151845461138f91611909565b845560018401546113a09082611875565b60018501555b90505b92915050565b600061146460096040518060c001604052807f00000000000000000000000000000000000000000000000000000000000000006001600160a01b031681526020017f00000000000000000000000000000000000000000000000000000000000000006001600160a01b0316815260200161142761088b565b8152600c5462ffffff6301000000820416602083015263ffffffff600160301b820481166040840152600160501b9091041660609091015261197b565b90508061147157506114b1565b61147c600382611ab4565b6040805182815290517f17fe63f809d31aafb4dd2ddd369caefb907bcce929adc2847faa6e06f729ac519181900360200190a1505b565b600061050c6114c28585611508565b600160601b84611bc6565b9392505050565b6000806114ea8385600001548660020154611bc6565b6114fd8486600101548760020154611bc6565b915091509250929050565b60006113a682600160601b85611bc6565b600080806115278886611909565b905060006115358886611909565b90506115468783600160601b611bc6565b6115558883600160601b611bc6565b9350935050509550959350505050565b81546001830154600284015483516000938493909290918490611589908584611bc6565b9050600061159c88600001518585611bc6565b90506000821180156115ae5750600081115b6115ca5760405162461bcd60e51b81526004016112c2906122a7565b6115d48583611909565b89556115e08482611909565b60018a015587516000906115f5908590611909565b90506103e88110156116195760405162461bcd60e51b81526004016112c290612242565b60028a015590955093505050509250929050565b600061163885611c75565b9050600061164585611c75565b9050600082116116675760405162461bcd60e51b81526004016112c290612305565b600081116116875760405162461bcd60e51b81526004016112c2906121a5565b600061169884600160601b87611bc6565b905060006116a98888868686611cfd565b90506116bc600160601b620186a0611966565b6116c582611e4a565b11156116e35760405162461bcd60e51b81526004016112c2906121dc565b5050505050505050565b600282015460009081908190818161178e576020860151865160009161171b9161171691611e6e565b611ec7565b9050611729816103e8611909565b875190925015801590611740575060008760200151115b801561174c5750600082115b6117685760405162461bcd60e51b81526004016112c29061216e565b8651808955602088015160018a0181905560028a01929092559550935091506118599050565b86546001880154875160208901516000916117b3916117ae908686611bc6565b611f18565b905060006117ce8a602001516117ae8c600001518688611bc6565b90506117e96117de838887611bc6565b6117ae838987611bc6565b94506000821180156117fb5750600081115b80156118075750600085115b6118235760405162461bcd60e51b81526004016112c2906122d6565b61182d8483611875565b8b556118398382611875565b60018c01556118488686611875565b60028c015590975095509193505050505b9250925092565b60006113a683620f42408462ffffff16611bc6565b6000828201838110156113a6576040805162461bcd60e51b815260206004820152601b60248201527f536166654d6174683a206164646974696f6e206f766572666c6f770000000000604482015290519081900360640190fd5b60006118dc848484611bc6565b9050600082806118e857fe5b84860911156114cd5760001981106118ff57600080fd5b6001019392505050565b600082821115611960576040805162461bcd60e51b815260206004820152601e60248201527f536166654d6174683a207375627472616374696f6e206f766572666c6f770000604482015290519081900360640190fd5b50900390565b60006113a6838362ffffff16620f4240611bc6565b600282015460009042908290611992908390611909565b9050806119a4576000925050506113a9565b60006119b38560000151611c75565b905060006119c48660200151611c75565b8754909150821480156119da5750808760010154145b806119e3575081155b806119ec575080155b156119fe5760009450505050506113a9565b611a1283876080015163ffffffff16611f18565b92506000611a2f8760000151886020015185858b60400151611cfd565b90506000611a56611a518960600151600160601b61196690919063ffffffff16565b611f2e565b9050611a70611a658284611f76565b600083900390611f85565b9150611a99611a7e86611f2e565b8960a0015163ffffffff1684611f959092919063ffffffff16565b93895550506001870155600286019290925550905092915050565b80611abe57611bc2565b6000811315611b275760018201546000611ae582611adb85611e4a565b600160601b611bc6565b9050611af18282611909565b8460010181905550611b1a611b0f82600160601b8760020154611bc6565b600486015490611875565b600485015550611b959050565b81546000611b5a611b5383600160601b611b4e611b4388611e4a565b600160601b90611875565b611bc6565b8390611909565b9050611b668282611909565b84556002840154611b8d90611b82908390600160601b90611bc6565b600386015490611875565b600385015550505b611bbc8260050154611adb611bb784611bb1600160601b611f2e565b90612039565b61209e565b60058301555b5050565b6000808060001985870986860292508281109083900303905080611bfc5760008411611bf157600080fd5b5082900490506114cd565b808411611c0857600080fd5b6000848688096000868103871696879004966002600389028118808a02820302808a02820302808a02820302808a02820302808a02820302808a02909103029181900381900460010186841190950394909402919094039290920491909117919091029150509392505050565b60006001600160a01b038216611c8c5760016113a9565b816001600160a01b03166398d5fdca6040518163ffffffff1660e01b815260040160206040518083038186803b158015611cc557600080fd5b505afa158015611cd9573d6000803e3d6000fd5b505050506040513d601f19601f820116820180604052508101906113a99190612135565b6000816001600160a01b03871615611d9357611d9081886001600160a01b031663313ce5676040518163ffffffff1660e01b815260040160206040518083038186803b158015611d4c57600080fd5b505afa158015611d60573d6000803e3d6000fd5b505050506040513d601f19601f82011682018060405250810190611d84919061214d565b60ff16600a0a87611bc6565b90505b6001600160a01b03861615611e2657611e238185886001600160a01b031663313ce5676040518163ffffffff1660e01b815260040160206040518083038186803b158015611de057600080fd5b505afa158015611df4573d6000803e3d6000fd5b505050506040513d601f19601f82011682018060405250810190611e18919061214d565b60ff16600a0a611bc6565b90505b611e3f611e36600160601b611f2e565b611bb183611f2e565b979650505050505050565b600080821215611e6557611e60611bb7836120f5565b6113a9565b6113a98261209e565b600082611e7d575060006113a9565b82820282848281611e8a57fe5b04146113a65760405162461bcd60e51b81526004018080602001828103825260218152602001806123a36021913960400191505060405180910390fd5b60006003821115611f0a575080600160028204015b81811015611f0457809150600281828581611ef357fe5b040181611efc57fe5b049050611edc565b506111a8565b81156111a857506001919050565b6000818310611f2757816113a6565b5090919050565b6000600160ff1b8210611f725760405162461bcd60e51b81526004018080602001828103825260288152602001806123e46028913960400191505060405180910390fd5b5090565b6000818312611f2757816113a6565b600081831215611f2757816113a6565b60008060008512611fa65784611faf565b611faf856120f5565b90506000808512611fc05784611fc9565b611fc9856120f5565b905060008087128015611fdc5750600086135b80611ff25750600087138015611ff25750600086125b611ffd576000612000565b60015b9050600061200f848488611bc6565b9050816120245761201f81611f2e565b61202d565b61202d81612121565b98975050505050505050565b600081830381831280159061204e5750838113155b80612063575060008312801561206357508381135b6113a65760405162461bcd60e51b815260040180806020018281038252602481526020018061240c6024913960400191505060405180910390fd5b600080821215611f72576040805162461bcd60e51b815260206004820181905260248201527f53616665436173743a2076616c7565206d75737420626520706f736974697665604482015290519081900360640190fd5b6000600160ff1b821361211a5760405162461bcd60e51b81526004016112c290612270565b5060000390565b600061212c82611f2e565b60000392915050565b600060208284031215612146578081fd5b5051919050565b60006020828403121561215e578081fd5b815160ff811681146113a6578182fd5b6020808252601d908201527f504c5f414c3a20696e697469616c206c6971756964697479207a65726f000000604082015260600190565b6020808252601c908201527f464c5f56494c503a20696e76616c69642071756f746520707269636500000000604082015260600190565b6020808252601b908201527f464c5f56494c503a20746f6f206661722066726f6d20696e6465780000000000604082015260600190565b602080825260159082015274504c5f53443a206f7574707574206973207a65726f60581b604082015260600190565b602080825260149082015273504c5f524c3a206d696e206c697175696469747960601b604082015260600190565b6020808252601c908201527f506572704d6174683a20696e76657273696f6e206f766572666c6f7700000000604082015260600190565b602080825260159082015274504c5f524c3a206f7574707574206973207a65726f60581b604082015260600190565b602080825260159082015274504c5f414c3a206c6971756964697479207a65726f60581b604082015260600190565b6020808252601b908201527f464c5f56494c503a20696e76616c69642062617365207072696365000000000060408201526060019056fe5265656e7472616e637947756172643a207265656e7472616e742063616c6c004f776e61626c653a206e6577206f776e657220697320746865207a65726f2061646472657373504d5f4f453a2063616c6c6572206973206e6f742065786368616e6765000000536166654d6174683a206d756c7469706c69636174696f6e206f766572666c6f774f776e61626c653a2063616c6c6572206973206e6f7420746865206f776e657253616665436173743a2076616c756520646f65736e27742066697420696e20616e20696e743235365369676e6564536166654d6174683a207375627472616374696f6e206f766572666c6f77a264697066735822122011fdcf5dbbadf2a5c11d4a63f8c21ce762b6b900f229b9648bfc97f6fc4a261d64736f6c63430007060033",
  "devdoc": {
    "kind": "dev",
    "methods": {
      "owner()": {
        "details": "Returns the address of the current owner."
      },
      "renounceOwnership()": {
        "details": "Leaves the contract without owner. It will not be possible to call `onlyOwner` functions anymore. Can only be called by the current owner. NOTE: Renouncing ownership will leave the contract without an owner, thereby removing any functionality that is only available to the owner."
      },
      "transferOwnership(address)": {
        "details": "Transfers ownership of the contract to a new account (`newOwner`). Can only be called by the current owner."
      }
    },
    "version": 1
  },
  "userdoc": {
    "kind": "user",
    "methods": {},
    "version": 1
  },
  "storageLayout": {
    "storage": [
      {
        "astId": 2932,
        "contract": "contracts/PerpdexMarket.sol:PerpdexMarket",
        "label": "_status",
        "offset": 0,
        "slot": "0",
        "type": "t_uint256"
      },
      {
        "astId": 290,
        "contract": "contracts/PerpdexMarket.sol:PerpdexMarket",
        "label": "_owner",
        "offset": 0,
        "slot": "1",
        "type": "t_address"
      },
      {
        "astId": 4544,
        "contract": "contracts/PerpdexMarket.sol:PerpdexMarket",
        "label": "symbol",
        "offset": 0,
        "slot": "2",
        "type": "t_string_storage"
      },
      {
        "astId": 4553,
        "contract": "contracts/PerpdexMarket.sol:PerpdexMarket",
        "label": "poolInfo",
        "offset": 0,
        "slot": "3",
        "type": "t_struct(PoolInfo)7386_storage"
      },
      {
        "astId": 4555,
        "contract": "contracts/PerpdexMarket.sol:PerpdexMarket",
        "label": "fundingInfo",
        "offset": 0,
        "slot": "9",
        "type": "t_struct(FundingInfo)7373_storage"
      },
      {
        "astId": 4558,
        "contract": "contracts/PerpdexMarket.sol:PerpdexMarket",
        "label": "poolFeeRatio",
        "offset": 0,
        "slot": "12",
        "type": "t_uint24"
      },
      {
        "astId": 4561,
        "contract": "contracts/PerpdexMarket.sol:PerpdexMarket",
        "label": "fundingMaxPremiumRatio",
        "offset": 3,
        "slot": "12",
        "type": "t_uint24"
      },
      {
        "astId": 4564,
        "contract": "contracts/PerpdexMarket.sol:PerpdexMarket",
        "label": "fundingMaxElapsedSec",
        "offset": 6,
        "slot": "12",
        "type": "t_uint32"
      },
      {
        "astId": 4567,
        "contract": "contracts/PerpdexMarket.sol:PerpdexMarket",
        "label": "fundingRolloverSec",
        "offset": 10,
        "slot": "12",
        "type": "t_uint32"
      }
    ],
    "types": {
      "t_address": {
        "encoding": "inplace",
        "label": "address",
        "numberOfBytes": "20"
      },
      "t_string_storage": {
        "encoding": "bytes",
        "label": "string",
        "numberOfBytes": "32"
      },
      "t_struct(FundingInfo)7373_storage": {
        "encoding": "inplace",
        "label": "struct MarketStructs.FundingInfo",
        "members": [
          {
            "astId": 7368,
            "contract": "contracts/PerpdexMarket.sol:PerpdexMarket",
            "label": "prevIndexPriceBase",
            "offset": 0,
            "slot": "0",
            "type": "t_uint256"
          },
          {
            "astId": 7370,
            "contract": "contracts/PerpdexMarket.sol:PerpdexMarket",
            "label": "prevIndexPriceQuote",
            "offset": 0,
            "slot": "1",
            "type": "t_uint256"
          },
          {
            "astId": 7372,
            "contract": "contracts/PerpdexMarket.sol:PerpdexMarket",
            "label": "prevIndexPriceTimestamp",
            "offset": 0,
            "slot": "2",
            "type": "t_uint256"
          }
        ],
        "numberOfBytes": "96"
      },
      "t_struct(PoolInfo)7386_storage": {
        "encoding": "inplace",
        "label": "struct MarketStructs.PoolInfo",
        "members": [
          {
            "astId": 7375,
            "contract": "contracts/PerpdexMarket.sol:PerpdexMarket",
            "label": "base",
            "offset": 0,
            "slot": "0",
            "type": "t_uint256"
          },
          {
            "astId": 7377,
            "contract": "contracts/PerpdexMarket.sol:PerpdexMarket",
            "label": "quote",
            "offset": 0,
            "slot": "1",
            "type": "t_uint256"
          },
          {
            "astId": 7379,
            "contract": "contracts/PerpdexMarket.sol:PerpdexMarket",
            "label": "totalLiquidity",
            "offset": 0,
            "slot": "2",
            "type": "t_uint256"
          },
          {
            "astId": 7381,
            "contract": "contracts/PerpdexMarket.sol:PerpdexMarket",
            "label": "cumDeleveragedBasePerLiquidityX96",
            "offset": 0,
            "slot": "3",
            "type": "t_uint256"
          },
          {
            "astId": 7383,
            "contract": "contracts/PerpdexMarket.sol:PerpdexMarket",
            "label": "cumDeleveragedQuotePerLiquidityX96",
            "offset": 0,
            "slot": "4",
            "type": "t_uint256"
          },
          {
            "astId": 7385,
            "contract": "contracts/PerpdexMarket.sol:PerpdexMarket",
            "label": "baseBalancePerShareX96",
            "offset": 0,
            "slot": "5",
            "type": "t_uint256"
          }
        ],
        "numberOfBytes": "192"
      },
      "t_uint24": {
        "encoding": "inplace",
        "label": "uint24",
        "numberOfBytes": "3"
      },
      "t_uint256": {
        "encoding": "inplace",
        "label": "uint256",
        "numberOfBytes": "32"
      },
      "t_uint32": {
        "encoding": "inplace",
        "label": "uint32",
        "numberOfBytes": "4"
      }
    }
  }
}