{
  "address": "0x2aaFC6979b8D18D0d936C86895e84915B50F3569",
  "abi": [
    {
      "inputs": [
        {
          "internalType": "address",
          "name": "settlementTokenArg",
          "type": "address"
        }
      ],
      "stateMutability": "nonpayable",
      "type": "constructor"
    },
    {
      "anonymous": false,
      "inputs": [
        {
          "indexed": true,
          "internalType": "address",
          "name": "trader",
          "type": "address"
        },
        {
          "indexed": false,
          "internalType": "uint256",
          "name": "amount",
          "type": "uint256"
        }
      ],
      "name": "Deposited",
      "type": "event"
    },
    {
      "anonymous": false,
      "inputs": [
        {
          "indexed": true,
          "internalType": "address",
          "name": "trader",
          "type": "address"
        },
        {
          "indexed": false,
          "internalType": "uint256",
          "name": "amount",
          "type": "uint256"
        }
      ],
      "name": "InsuranceFundTransferred",
      "type": "event"
    },
    {
      "anonymous": false,
      "inputs": [
        {
          "indexed": true,
          "internalType": "address",
          "name": "market",
          "type": "address"
        },
        {
          "indexed": false,
          "internalType": "bool",
          "name": "isMarketAllowed",
          "type": "bool"
        }
      ],
      "name": "IsMarketAllowedChanged",
      "type": "event"
    },
    {
      "anonymous": false,
      "inputs": [
        {
          "indexed": true,
          "internalType": "address",
          "name": "trader",
          "type": "address"
        },
        {
          "indexed": true,
          "internalType": "address",
          "name": "market",
          "type": "address"
        },
        {
          "indexed": false,
          "internalType": "uint256",
          "name": "base",
          "type": "uint256"
        },
        {
          "indexed": false,
          "internalType": "uint256",
          "name": "quote",
          "type": "uint256"
        },
        {
          "indexed": false,
          "internalType": "uint256",
          "name": "liquidity",
          "type": "uint256"
        },
        {
          "indexed": false,
          "internalType": "uint256",
          "name": "baseBalancePerShare",
          "type": "uint256"
        },
        {
          "indexed": false,
          "internalType": "uint256",
          "name": "priceAfterX96",
          "type": "uint256"
        }
      ],
      "name": "LiquidityAdded",
      "type": "event"
    },
    {
      "anonymous": false,
      "inputs": [
        {
          "indexed": true,
          "internalType": "address",
          "name": "trader",
          "type": "address"
        },
        {
          "indexed": true,
          "internalType": "address",
          "name": "market",
          "type": "address"
        },
        {
          "indexed": false,
          "internalType": "address",
          "name": "liquidator",
          "type": "address"
        },
        {
          "indexed": false,
          "internalType": "uint256",
          "name": "base",
          "type": "uint256"
        },
        {
          "indexed": false,
          "internalType": "uint256",
          "name": "quote",
          "type": "uint256"
        },
        {
          "indexed": false,
          "internalType": "uint256",
          "name": "liquidity",
          "type": "uint256"
        },
        {
          "indexed": false,
          "internalType": "int256",
          "name": "takerBase",
          "type": "int256"
        },
        {
          "indexed": false,
          "internalType": "int256",
          "name": "takerQuote",
          "type": "int256"
        },
        {
          "indexed": false,
          "internalType": "int256",
          "name": "realizedPnl",
          "type": "int256"
        },
        {
          "indexed": false,
          "internalType": "uint256",
          "name": "baseBalancePerShare",
          "type": "uint256"
        },
        {
          "indexed": false,
          "internalType": "uint256",
          "name": "priceAfterX96",
          "type": "uint256"
        }
      ],
      "name": "LiquidityRemoved",
      "type": "event"
    },
    {
      "anonymous": false,
      "inputs": [
        {
          "indexed": true,
          "internalType": "address",
          "name": "previousOwner",
          "type": "address"
        },
        {
          "indexed": true,
          "internalType": "address",
          "name": "newOwner",
          "type": "address"
        }
      ],
      "name": "OwnershipTransferred",
      "type": "event"
    },
    {
      "anonymous": false,
      "inputs": [
        {
          "indexed": true,
          "internalType": "address",
          "name": "trader",
          "type": "address"
        },
        {
          "indexed": true,
          "internalType": "address",
          "name": "market",
          "type": "address"
        },
        {
          "indexed": false,
          "internalType": "int256",
          "name": "base",
          "type": "int256"
        },
        {
          "indexed": false,
          "internalType": "int256",
          "name": "quote",
          "type": "int256"
        },
        {
          "indexed": false,
          "internalType": "int256",
          "name": "realizedPnl",
          "type": "int256"
        },
        {
          "indexed": false,
          "internalType": "uint256",
          "name": "protocolFee",
          "type": "uint256"
        },
        {
          "indexed": false,
          "internalType": "uint256",
          "name": "baseBalancePerShare",
          "type": "uint256"
        },
        {
          "indexed": false,
          "internalType": "uint256",
          "name": "priceAfterX96",
          "type": "uint256"
        }
      ],
      "name": "PositionChanged",
      "type": "event"
    },
    {
      "anonymous": false,
      "inputs": [
        {
          "indexed": true,
          "internalType": "address",
          "name": "trader",
          "type": "address"
        },
        {
          "indexed": true,
          "internalType": "address",
          "name": "market",
          "type": "address"
        },
        {
          "indexed": true,
          "internalType": "address",
          "name": "liquidator",
          "type": "address"
        },
        {
          "indexed": false,
          "internalType": "int256",
          "name": "base",
          "type": "int256"
        },
        {
          "indexed": false,
          "internalType": "int256",
          "name": "quote",
          "type": "int256"
        },
        {
          "indexed": false,
          "internalType": "int256",
          "name": "realizedPnl",
          "type": "int256"
        },
        {
          "indexed": false,
          "internalType": "uint256",
          "name": "protocolFee",
          "type": "uint256"
        },
        {
          "indexed": false,
          "internalType": "uint256",
          "name": "baseBalancePerShare",
          "type": "uint256"
        },
        {
          "indexed": false,
          "internalType": "uint256",
          "name": "priceAfterX96",
          "type": "uint256"
        },
        {
          "indexed": false,
          "internalType": "uint256",
          "name": "liquidationReward",
          "type": "uint256"
        },
        {
          "indexed": false,
          "internalType": "uint256",
          "name": "insuranceFundReward",
          "type": "uint256"
        }
      ],
      "name": "PositionLiquidated",
      "type": "event"
    },
    {
      "anonymous": false,
      "inputs": [
        {
          "indexed": true,
          "internalType": "address",
          "name": "trader",
          "type": "address"
        },
        {
          "indexed": false,
          "internalType": "uint256",
          "name": "amount",
          "type": "uint256"
        }
      ],
      "name": "ProtocolFeeTransferred",
      "type": "event"
    },
    {
      "anonymous": false,
      "inputs": [
        {
          "indexed": true,
          "internalType": "address",
          "name": "trader",
          "type": "address"
        },
        {
          "indexed": false,
          "internalType": "uint256",
          "name": "amount",
          "type": "uint256"
        }
      ],
      "name": "Withdrawn",
      "type": "event"
    },
    {
      "inputs": [
        {
          "internalType": "address",
          "name": "",
          "type": "address"
        }
      ],
      "name": "accountInfos",
      "outputs": [
        {
          "components": [
            {
              "internalType": "int256",
              "name": "collateralBalance",
              "type": "int256"
            }
          ],
          "internalType": "struct PerpdexStructs.VaultInfo",
          "name": "vaultInfo",
          "type": "tuple"
        }
      ],
      "stateMutability": "view",
      "type": "function"
    },
    {
      "inputs": [
        {
          "components": [
            {
              "internalType": "address",
              "name": "market",
              "type": "address"
            },
            {
              "internalType": "uint256",
              "name": "base",
              "type": "uint256"
            },
            {
              "internalType": "uint256",
              "name": "quote",
              "type": "uint256"
            },
            {
              "internalType": "uint256",
              "name": "minBase",
              "type": "uint256"
            },
            {
              "internalType": "uint256",
              "name": "minQuote",
              "type": "uint256"
            },
            {
              "internalType": "uint256",
              "name": "deadline",
              "type": "uint256"
            }
          ],
          "internalType": "struct IPerpdexExchange.AddLiquidityParams",
          "name": "params",
          "type": "tuple"
        }
      ],
      "name": "addLiquidity",
      "outputs": [
        {
          "internalType": "uint256",
          "name": "base",
          "type": "uint256"
        },
        {
          "internalType": "uint256",
          "name": "quote",
          "type": "uint256"
        },
        {
          "internalType": "uint256",
          "name": "liquidity",
          "type": "uint256"
        }
      ],
      "stateMutability": "nonpayable",
      "type": "function"
    },
    {
      "inputs": [
        {
          "internalType": "uint256",
          "name": "amount",
          "type": "uint256"
        }
      ],
      "name": "deposit",
      "outputs": [],
      "stateMutability": "payable",
      "type": "function"
    },
    {
      "inputs": [
        {
          "internalType": "address",
          "name": "trader",
          "type": "address"
        }
      ],
      "name": "getAccountMarkets",
      "outputs": [
        {
          "internalType": "address[]",
          "name": "",
          "type": "address[]"
        }
      ],
      "stateMutability": "view",
      "type": "function"
    },
    {
      "inputs": [
        {
          "internalType": "address",
          "name": "trader",
          "type": "address"
        },
        {
          "internalType": "address",
          "name": "market",
          "type": "address"
        }
      ],
      "name": "getMakerInfo",
      "outputs": [
        {
          "components": [
            {
              "internalType": "int256",
              "name": "baseDebtShare",
              "type": "int256"
            },
            {
              "internalType": "int256",
              "name": "quoteDebt",
              "type": "int256"
            },
            {
              "internalType": "uint256",
              "name": "liquidity",
              "type": "uint256"
            },
            {
              "internalType": "uint256",
              "name": "cumDeleveragedBaseSharePerLiquidityX96",
              "type": "uint256"
            },
            {
              "internalType": "uint256",
              "name": "cumDeleveragedQuotePerLiquidityX96",
              "type": "uint256"
            }
          ],
          "internalType": "struct PerpdexStructs.MakerInfo",
          "name": "",
          "type": "tuple"
        }
      ],
      "stateMutability": "view",
      "type": "function"
    },
    {
      "inputs": [
        {
          "internalType": "address",
          "name": "trader",
          "type": "address"
        },
        {
          "internalType": "address",
          "name": "market",
          "type": "address"
        }
      ],
      "name": "getOpenPositionNotional",
      "outputs": [
        {
          "internalType": "uint256",
          "name": "",
          "type": "uint256"
        }
      ],
      "stateMutability": "view",
      "type": "function"
    },
    {
      "inputs": [
        {
          "internalType": "address",
          "name": "trader",
          "type": "address"
        },
        {
          "internalType": "address",
          "name": "market",
          "type": "address"
        }
      ],
      "name": "getOpenPositionShare",
      "outputs": [
        {
          "internalType": "uint256",
          "name": "",
          "type": "uint256"
        }
      ],
      "stateMutability": "view",
      "type": "function"
    },
    {
      "inputs": [
        {
          "internalType": "address",
          "name": "trader",
          "type": "address"
        },
        {
          "internalType": "address",
          "name": "market",
          "type": "address"
        }
      ],
      "name": "getPositionNotional",
      "outputs": [
        {
          "internalType": "int256",
          "name": "",
          "type": "int256"
        }
      ],
      "stateMutability": "view",
      "type": "function"
    },
    {
      "inputs": [
        {
          "internalType": "address",
          "name": "trader",
          "type": "address"
        },
        {
          "internalType": "address",
          "name": "market",
          "type": "address"
        }
      ],
      "name": "getPositionShare",
      "outputs": [
        {
          "internalType": "int256",
          "name": "",
          "type": "int256"
        }
      ],
      "stateMutability": "view",
      "type": "function"
    },
    {
      "inputs": [
        {
          "internalType": "address",
          "name": "trader",
          "type": "address"
        },
        {
          "internalType": "address",
          "name": "market",
          "type": "address"
        }
      ],
      "name": "getTakerInfo",
      "outputs": [
        {
          "components": [
            {
              "internalType": "int256",
              "name": "baseBalanceShare",
              "type": "int256"
            },
            {
              "internalType": "int256",
              "name": "quoteBalance",
              "type": "int256"
            }
          ],
          "internalType": "struct PerpdexStructs.TakerInfo",
          "name": "",
          "type": "tuple"
        }
      ],
      "stateMutability": "view",
      "type": "function"
    },
    {
      "inputs": [
        {
          "internalType": "address",
          "name": "trader",
          "type": "address"
        }
      ],
      "name": "getTotalAccountValue",
      "outputs": [
        {
          "internalType": "int256",
          "name": "",
          "type": "int256"
        }
      ],
      "stateMutability": "view",
      "type": "function"
    },
    {
      "inputs": [
        {
          "internalType": "address",
          "name": "trader",
          "type": "address"
        }
      ],
      "name": "getTotalOpenPositionNotional",
      "outputs": [
        {
          "internalType": "uint256",
          "name": "",
          "type": "uint256"
        }
      ],
      "stateMutability": "view",
      "type": "function"
    },
    {
      "inputs": [
        {
          "internalType": "address",
          "name": "trader",
          "type": "address"
        }
      ],
      "name": "getTotalPositionNotional",
      "outputs": [
        {
          "internalType": "uint256",
          "name": "",
          "type": "uint256"
        }
      ],
      "stateMutability": "view",
      "type": "function"
    },
    {
      "inputs": [
        {
          "internalType": "address",
          "name": "trader",
          "type": "address"
        }
      ],
      "name": "hasEnoughInitialMargin",
      "outputs": [
        {
          "internalType": "bool",
          "name": "",
          "type": "bool"
        }
      ],
      "stateMutability": "view",
      "type": "function"
    },
    {
      "inputs": [
        {
          "internalType": "address",
          "name": "trader",
          "type": "address"
        }
      ],
      "name": "hasEnoughMaintenanceMargin",
      "outputs": [
        {
          "internalType": "bool",
          "name": "",
          "type": "bool"
        }
      ],
      "stateMutability": "view",
      "type": "function"
    },
    {
      "inputs": [],
      "name": "imRatio",
      "outputs": [
        {
          "internalType": "uint24",
          "name": "",
          "type": "uint24"
        }
      ],
      "stateMutability": "view",
      "type": "function"
    },
    {
      "inputs": [],
      "name": "insuranceFundInfo",
      "outputs": [
        {
          "internalType": "int256",
          "name": "balance",
          "type": "int256"
        }
      ],
      "stateMutability": "view",
      "type": "function"
    },
    {
      "inputs": [
        {
          "internalType": "address",
          "name": "",
          "type": "address"
        }
      ],
      "name": "isMarketAllowed",
      "outputs": [
        {
          "internalType": "bool",
          "name": "",
          "type": "bool"
        }
      ],
      "stateMutability": "view",
      "type": "function"
    },
    {
      "inputs": [],
      "name": "liquidationRewardRatio",
      "outputs": [
        {
          "internalType": "uint24",
          "name": "",
          "type": "uint24"
        }
      ],
      "stateMutability": "view",
      "type": "function"
    },
    {
      "inputs": [],
      "name": "maxMarketsPerAccount",
      "outputs": [
        {
          "internalType": "uint8",
          "name": "",
          "type": "uint8"
        }
      ],
      "stateMutability": "view",
      "type": "function"
    },
    {
      "inputs": [],
      "name": "mmRatio",
      "outputs": [
        {
          "internalType": "uint24",
          "name": "",
          "type": "uint24"
        }
      ],
      "stateMutability": "view",
      "type": "function"
    },
    {
      "inputs": [
        {
          "components": [
            {
              "internalType": "address",
              "name": "trader",
              "type": "address"
            },
            {
              "internalType": "address",
              "name": "market",
              "type": "address"
            },
            {
              "internalType": "bool",
              "name": "isBaseToQuote",
              "type": "bool"
            },
            {
              "internalType": "bool",
              "name": "isExactInput",
              "type": "bool"
            },
            {
              "internalType": "uint256",
              "name": "amount",
              "type": "uint256"
            },
            {
              "internalType": "uint256",
              "name": "oppositeAmountBound",
              "type": "uint256"
            },
            {
              "internalType": "uint256",
              "name": "deadline",
              "type": "uint256"
            }
          ],
          "internalType": "struct IPerpdexExchange.OpenPositionParams",
          "name": "params",
          "type": "tuple"
        }
      ],
      "name": "openPosition",
      "outputs": [
        {
          "internalType": "int256",
          "name": "base",
          "type": "int256"
        },
        {
          "internalType": "int256",
          "name": "quote",
          "type": "int256"
        }
      ],
      "stateMutability": "nonpayable",
      "type": "function"
    },
    {
      "inputs": [
        {
          "components": [
            {
              "internalType": "address",
              "name": "trader",
              "type": "address"
            },
            {
              "internalType": "address",
              "name": "market",
              "type": "address"
            },
            {
              "internalType": "address",
              "name": "caller",
              "type": "address"
            },
            {
              "internalType": "bool",
              "name": "isBaseToQuote",
              "type": "bool"
            },
            {
              "internalType": "bool",
              "name": "isExactInput",
              "type": "bool"
            },
            {
              "internalType": "uint256",
              "name": "amount",
              "type": "uint256"
            },
            {
              "internalType": "uint256",
              "name": "oppositeAmountBound",
              "type": "uint256"
            }
          ],
          "internalType": "struct IPerpdexExchange.OpenPositionDryParams",
          "name": "params",
          "type": "tuple"
        }
      ],
      "name": "openPositionDry",
      "outputs": [
        {
          "internalType": "int256",
          "name": "base",
          "type": "int256"
        },
        {
          "internalType": "int256",
          "name": "quote",
          "type": "int256"
        }
      ],
      "stateMutability": "view",
      "type": "function"
    },
    {
      "inputs": [],
      "name": "owner",
      "outputs": [
        {
          "internalType": "address",
          "name": "",
          "type": "address"
        }
      ],
      "stateMutability": "view",
      "type": "function"
    },
    {
      "inputs": [],
      "name": "priceLimitConfig",
      "outputs": [
        {
          "internalType": "uint24",
          "name": "priceLimitNormalOrderRatio",
          "type": "uint24"
        },
        {
          "internalType": "uint24",
          "name": "priceLimitLiquidationRatio",
          "type": "uint24"
        }
      ],
      "stateMutability": "view",
      "type": "function"
    },
    {
      "inputs": [
        {
          "internalType": "address",
          "name": "",
          "type": "address"
        }
      ],
      "name": "priceLimitInfos",
      "outputs": [
        {
          "internalType": "uint256",
          "name": "referencePrice",
          "type": "uint256"
        },
        {
          "internalType": "uint256",
          "name": "referenceBlockNumber",
          "type": "uint256"
        }
      ],
      "stateMutability": "view",
      "type": "function"
    },
    {
      "inputs": [],
      "name": "protocolFeeRatio",
      "outputs": [
        {
          "internalType": "uint24",
          "name": "",
          "type": "uint24"
        }
      ],
      "stateMutability": "view",
      "type": "function"
    },
    {
      "inputs": [],
      "name": "protocolInfo",
      "outputs": [
        {
          "internalType": "uint256",
          "name": "protocolFee",
          "type": "uint256"
        }
      ],
      "stateMutability": "view",
      "type": "function"
    },
    {
      "inputs": [
        {
          "components": [
            {
              "internalType": "address",
              "name": "trader",
              "type": "address"
            },
            {
              "internalType": "address",
              "name": "market",
              "type": "address"
            },
            {
              "internalType": "uint256",
              "name": "liquidity",
              "type": "uint256"
            },
            {
              "internalType": "uint256",
              "name": "minBase",
              "type": "uint256"
            },
            {
              "internalType": "uint256",
              "name": "minQuote",
              "type": "uint256"
            },
            {
              "internalType": "uint256",
              "name": "deadline",
              "type": "uint256"
            }
          ],
          "internalType": "struct IPerpdexExchange.RemoveLiquidityParams",
          "name": "params",
          "type": "tuple"
        }
      ],
      "name": "removeLiquidity",
      "outputs": [
        {
          "internalType": "uint256",
          "name": "base",
          "type": "uint256"
        },
        {
          "internalType": "uint256",
          "name": "quote",
          "type": "uint256"
        }
      ],
      "stateMutability": "nonpayable",
      "type": "function"
    },
    {
      "inputs": [],
      "name": "renounceOwnership",
      "outputs": [],
      "stateMutability": "nonpayable",
      "type": "function"
    },
    {
      "inputs": [
        {
          "internalType": "uint24",
          "name": "value",
          "type": "uint24"
        }
      ],
      "name": "setImRatio",
      "outputs": [],
      "stateMutability": "nonpayable",
      "type": "function"
    },
    {
      "inputs": [
        {
          "internalType": "address",
          "name": "market",
          "type": "address"
        },
        {
          "internalType": "bool",
          "name": "value",
          "type": "bool"
        }
      ],
      "name": "setIsMarketAllowed",
      "outputs": [],
      "stateMutability": "nonpayable",
      "type": "function"
    },
    {
      "inputs": [
        {
          "internalType": "uint24",
          "name": "value",
          "type": "uint24"
        }
      ],
      "name": "setLiquidationRewardRatio",
      "outputs": [],
      "stateMutability": "nonpayable",
      "type": "function"
    },
    {
      "inputs": [
        {
          "internalType": "uint8",
          "name": "value",
          "type": "uint8"
        }
      ],
      "name": "setMaxMarketsPerAccount",
      "outputs": [],
      "stateMutability": "nonpayable",
      "type": "function"
    },
    {
      "inputs": [
        {
          "internalType": "uint24",
          "name": "value",
          "type": "uint24"
        }
      ],
      "name": "setMmRatio",
      "outputs": [],
      "stateMutability": "nonpayable",
      "type": "function"
    },
    {
      "inputs": [
        {
          "components": [
            {
              "internalType": "uint24",
              "name": "priceLimitNormalOrderRatio",
              "type": "uint24"
            },
            {
              "internalType": "uint24",
              "name": "priceLimitLiquidationRatio",
              "type": "uint24"
            }
          ],
          "internalType": "struct PerpdexStructs.PriceLimitConfig",
          "name": "value",
          "type": "tuple"
        }
      ],
      "name": "setPriceLimitConfig",
      "outputs": [],
      "stateMutability": "nonpayable",
      "type": "function"
    },
    {
      "inputs": [
        {
          "internalType": "uint24",
          "name": "value",
          "type": "uint24"
        }
      ],
      "name": "setProtocolFeeRatio",
      "outputs": [],
      "stateMutability": "nonpayable",
      "type": "function"
    },
    {
      "inputs": [],
      "name": "settlementToken",
      "outputs": [
        {
          "internalType": "address",
          "name": "",
          "type": "address"
        }
      ],
      "stateMutability": "view",
      "type": "function"
    },
    {
      "inputs": [
        {
          "internalType": "uint256",
          "name": "amount",
          "type": "uint256"
        }
      ],
      "name": "transferInsuranceFund",
      "outputs": [],
      "stateMutability": "nonpayable",
      "type": "function"
    },
    {
      "inputs": [
        {
          "internalType": "address",
          "name": "newOwner",
          "type": "address"
        }
      ],
      "name": "transferOwnership",
      "outputs": [],
      "stateMutability": "nonpayable",
      "type": "function"
    },
    {
      "inputs": [
        {
          "internalType": "uint256",
          "name": "amount",
          "type": "uint256"
        }
      ],
      "name": "transferProtocolFee",
      "outputs": [],
      "stateMutability": "nonpayable",
      "type": "function"
    },
    {
      "inputs": [
        {
          "internalType": "uint256",
          "name": "amount",
          "type": "uint256"
        }
      ],
      "name": "withdraw",
      "outputs": [],
      "stateMutability": "nonpayable",
      "type": "function"
    }
  ],
  "transactionHash": "0x78a8f4c7773107278fcdb9d10e68231cc59467a1ece9984ac85c527c7c17012c",
  "args": [
    "0x0000000000000000000000000000000000000000"
  ],
  "numDeployments": 5,
  "solcInputHash": "490412bb694cd6dc2ffc2729271c7140",
  "bytecode": "0x60e060405261c35060a0819052620186a060c0526006805462ffffff191690911765ffffff0000001916650186a000000017905560078054601060ff199091161763ffffff001916630186a0001762ffffff60201b191665c350000000001762ffffff60381b191669030d40000000000000001762ffffff60501b191690553480156200008b57600080fd5b5060405162005c5e38038062005c5e833981016040819052620000ae9162000186565b60016000908155620000bf6200017c565b600180546001600160a01b0319166001600160a01b038316908117909155604051919250906000907f8be0079c531659141344cd1fd0a4f28419497f9722a3daafe3b4186f6b6457e0908290a3506001600160a01b03811615806200013e57506200013e816001600160a01b03166200018060201b620025921760201c565b620001665760405162461bcd60e51b81526004016200015d90620001b6565b60405180910390fd5b60601b6001600160601b031916608052620001ed565b3390565b3b151590565b60006020828403121562000198578081fd5b81516001600160a01b0381168114620001af578182fd5b9392505050565b6020808252601b908201527f50455f433a20746f6b656e206164647265737320696e76616c69640000000000604082015260600190565b60805160601c615a446200021a600039806108795280610ed552806115f752806116fc5250615a446000f3fe6080604052600436106102515760003560e01c806393420cf411610139578063ca5b721e116100b6578063dfe1cb921161007a578063dfe1cb92146106ea578063e72e436314610719578063ec6cca8414610739578063f2fde38b14610759578063f652b52714610779578063fa8f03681461079b57610251565b8063ca5b721e1461063d578063d11102c51461065d578063d1ce35e31461068a578063d1ead563146106aa578063d2525800146106ca57610251565b8063b53c5125116100fd578063b53c5125146105b3578063b6261643146105e0578063b6b55f25146105f5578063c66fa8e614610608578063c9ca7b181461061d57610251565b806393420cf41461051c578063996fbf94146105315780639dce9e19146105515780639f044f311461057e578063a616c66c1461059357610251565b80636346f32e116101d25780637b9e618d116101965780637b9e618d146104585780637c88490a1461047a57806387cad0bf1461049a5780638da5cb5b146104c75780638f30abf8146104dc5780639317b193146104fc57610251565b80636346f32e146103cb5780636e838bad146103ee578063715018a61461040e57806373f62501146104235780637a27d9f61461044357610251565b806333ff15771161021957806333ff15771461032b5780633a9210511461034b5780633d46396a1461036b5780634b4aa7351461038b5780634ef9951a146103ab57610251565b80630674fa411461025657806319be49751461028c5780632e1a7d4d146102ba5780632e784343146102dc5780632f60a15114610309575b600080fd5b34801561026257600080fd5b50610276610271366004614def565b6107bb565b6040516102839190615050565b60405180910390f35b34801561029857600080fd5b506102ac6102a7366004614def565b6107e4565b604051610283929190615059565b3480156102c657600080fd5b506102da6102d5366004614ee1565b6107fd565b005b3480156102e857600080fd5b506102fc6102f7366004614e09565b610913565b6040516102839190615823565b34801561031557600080fd5b5061031e61095f565b6040516102839190615844565b34801561033757600080fd5b50610276610346366004614e09565b61096f565b34801561035757600080fd5b50610276610366366004614def565b610998565b34801561037757600080fd5b506102da610386366004614ee1565b6109b9565b34801561039757600080fd5b506102766103a6366004614def565b610ad0565b3480156103b757600080fd5b506102da6103c6366004614ee1565b610af1565b3480156103d757600080fd5b506103e0610c08565b604051610283929190615854565b3480156103fa57600080fd5b506102da610409366004614ec5565b610c1e565b34801561041a57600080fd5b506102da610d52565b34801561042f57600080fd5b506102da61043e366004614f61565b610dfe565b34801561044f57600080fd5b5061031e610ec1565b34801561046457600080fd5b5061046d610ed3565b6040516102839190614f82565b34801561048657600080fd5b50610276610495366004614e09565b610ef7565b3480156104a657600080fd5b506104ba6104b5366004614def565b610f19565b604051610283919061583a565b3480156104d357600080fd5b5061046d610f3b565b3480156104e857600080fd5b506102ac6104f7366004614e99565b610f4a565b34801561050857600080fd5b506102da610517366004614e3b565b61104b565b34801561052857600080fd5b506102766111a9565b34801561053d57600080fd5b5061027661054c366004614e09565b6111af565b34801561055d57600080fd5b5061057161056c366004614def565b6111d1565b604051610283919061502d565b34801561058a57600080fd5b5061031e611202565b34801561059f57600080fd5b506102ac6105ae366004614e7e565b611214565b3480156105bf57600080fd5b506105d36105ce366004614e09565b61151d565b60405161028391906157e9565b3480156105ec57600080fd5b5061031e61158c565b6102da610603366004614ee1565b61159e565b34801561061457600080fd5b5061027661177a565b34801561062957600080fd5b506102da610638366004614ec5565b611780565b34801561064957600080fd5b50610276610658366004614e09565b6118ac565b34801561066957600080fd5b5061067d610678366004614def565b6118ce565b6040516102839190614fe0565b34801561069657600080fd5b506102da6106a5366004614ec5565b611947565b3480156106b657600080fd5b506102da6106c5366004614ec5565b611a44565b3480156106d657600080fd5b506102ac6106e5366004614e99565b611b41565b3480156106f657600080fd5b5061070a610705366004614e7e565b61201a565b6040516102839392919061586a565b34801561072557600080fd5b50610571610734366004614def565b612302565b34801561074557600080fd5b50610571610754366004614def565b612317565b34801561076557600080fd5b506102da610774366004614def565b612346565b34801561078557600080fd5b5061078e612449565b60405161028391906158a3565b3480156107a757600080fd5b506102da6107b6366004614eb4565b612452565b6001600160a01b03811660009081526002602052604081206107dc90612598565b90505b919050565b6003602052600090815260409020805460019091015482565b60026000541415610843576040805162461bcd60e51b815260206004820152601f6024820152600080516020615912833981519152604482015290519081900360640190fd5b60026000908155610852612853565b6001600160a01b0381811660008181526002602090815260409182902082516080810184527f0000000000000000000000000000000000000000000000000000000000000000909516855290840187905290830191909152600754610100900462ffffff1660608301529192506108c99190612857565b806001600160a01b03167f7084f5476618d8e60b11ef0d7d3f06914655adb8793e28ff7f018d4c76d505d5836040516109029190615050565b60405180910390a250506001600055565b61091b614cb7565b506001600160a01b03808316600090815260026020908152604080832093851683529281529082902082518084019093528054835260010154908201525b92915050565b600754610100900462ffffff1681565b6001600160a01b03821660009081526002602052604081206109919083612938565b9392505050565b6001600160a01b03811660009081526002602052604081206107dc90612aa8565b6109c1612853565b6001600160a01b03166109d2610f3b565b6001600160a01b031614610a1b576040805162461bcd60e51b81526020600482018190526024820152600080516020615979833981519152604482015290519081900360640190fd5b60026000541415610a61576040805162461bcd60e51b815260206004820152601f6024820152600080516020615912833981519152604482015290519081900360640190fd5b60026000908155610a70612853565b6001600160a01b0381166000908152600260205260409020909150610a9790600584612b09565b806001600160a01b03167f0880b0e717a57f3b5cbd3fc19396ae3c8cdee5c624c9289477869c38014c8495836040516109029190615050565b6001600160a01b03811660009081526002602052604081206107dc90612b38565b610af9612853565b6001600160a01b0316610b0a610f3b565b6001600160a01b031614610b53576040805162461bcd60e51b81526020600482018190526024820152600080516020615979833981519152604482015290519081900360640190fd5b60026000541415610b99576040805162461bcd60e51b815260206004820152601f6024820152600080516020615912833981519152604482015290519081900360640190fd5b60026000908155610ba8612853565b6001600160a01b0381166000908152600260205260409020909150610bcf90600484612b91565b806001600160a01b03167fc5f8d0712530f513c8ff696f9d12d32b95faeef78155912e567eca0284adf94f836040516109029190615050565b60065462ffffff80821691630100000090041682565b610c26612853565b6001600160a01b0316610c37610f3b565b6001600160a01b031614610c80576040805162461bcd60e51b81526020600482018190526024820152600080516020615979833981519152604482015290519081900360640190fd5b60026000541415610cc6576040805162461bcd60e51b815260206004820152601f6024820152600080516020615912833981519152604482015290519081900360640190fd5b6002600055620f424062ffffff821610610cfb5760405162461bcd60e51b8152600401610cf2906156f2565b60405180910390fd5b60075462ffffff600160201b90910481169082161015610d2d5760405162461bcd60e51b8152600401610cf290615659565b6007805462ffffff9092166101000263ffffff00199092169190911790556001600055565b610d5a612853565b6001600160a01b0316610d6b610f3b565b6001600160a01b031614610db4576040805162461bcd60e51b81526020600482018190526024820152600080516020615979833981519152604482015290519081900360640190fd5b6001546040516000916001600160a01b0316907f8be0079c531659141344cd1fd0a4f28419497f9722a3daafe3b4186f6b6457e0908390a3600180546001600160a01b0319169055565b610e06612853565b6001600160a01b0316610e17610f3b565b6001600160a01b031614610e60576040805162461bcd60e51b81526020600482018190526024820152600080516020615979833981519152604482015290519081900360640190fd5b60026000541415610ea6576040805162461bcd60e51b815260206004820152601f6024820152600080516020615912833981519152604482015290519081900360640190fd5b6007805460ff191660ff929092169190911790556001600055565b600754600160501b900462ffffff1681565b7f000000000000000000000000000000000000000000000000000000000000000081565b6001600160a01b03821660009081526002602052604081206109919083612bde565b6002602081815260009283526040928390208351918201909352910154815281565b6001546001600160a01b031690565b60008080610f5b6020850185614def565b90506000610f6f6060860160408701614def565b905061104060026000846001600160a01b03166001600160a01b03168152602001908152602001600020604051806101000160405280886020016020810190610fb89190614def565b6001600160a01b03168152602001610fd660808a0160608b01614e64565b15158152602001610fed60a08a0160808b01614e64565b1515815260a0808a0135602083015260c08a0135604083015260075462ffffff600160201b820481166060850152600160501b9091041660808301526001600160a01b0387811690871614910152612c86565b935093505050915091565b611053612853565b6001600160a01b0316611064610f3b565b6001600160a01b0316146110ad576040805162461bcd60e51b81526020600482018190526024820152600080516020615979833981519152604482015290519081900360640190fd5b600260005414156110f3576040805162461bcd60e51b815260206004820152601f6024820152600080516020615912833981519152604482015290519081900360640190fd5b600260005561110a6001600160a01b038316612592565b6111265760405162461bcd60e51b8152600401610cf2906153a0565b6001600160a01b03821660009081526008602052604090205460ff161515811515146111a0576001600160a01b03821660008181526008602052604090819020805460ff1916841515179055517fd5d4c2e150c76234e0f5d390162d34c5c1e1405df2194cfbd63b12d9521b10279061090290849061502d565b50506001600055565b60055481565b6001600160a01b03821660009081526002602052604081206109919083612d20565b6001600160a01b03811660009081526002602052604081206007546107dc9190600160201b900462ffffff16612db6565b600754600160201b900462ffffff1681565b6000806002600054141561125d576040805162461bcd60e51b815260206004820152601f6024820152600080516020615912833981519152604482015290519081900360640190fd5b600260005560a0830135428110156112875760405162461bcd60e51b8152600401610cf2906154cb565b600061135a60028261129c6020890189614def565b6001600160a01b03166001600160a01b031681526020019081526020016000206040518060e001604052808860200160208101906112da9190614def565b6001600160a01b031681526040808a013560208301526060808b0135918301919091526080808b01359183019190915260075462ffffff600160201b8204169183019190915260ff1660a082015260c001611333612853565b6001600160a01b031661134960208b018b614def565b6001600160a01b0316149052612dea565b905061136c6040860160208701614def565b6001600160a01b03166113826020870187614def565b6001600160a01b03167f2935383596639a6916071dea84c6ed5d6c6315fa9628268974458798fea93ebc8360a001516113bc5760006113c4565b6113c4612853565b846000015185602001518a604001358760400151886060015189608001518e60200160208101906113f59190614def565b6001600160a01b0316639482de1a6040518163ffffffff1660e01b815260040160206040518083038186803b15801561142d57600080fd5b505afa158015611441573d6000803e3d6000fd5b505050506040513d601f19601f820116820180604052508101906114659190614ef9565b8f60200160208101906114789190614def565b6001600160a01b0316637452fadd6040518163ffffffff1660e01b815260040160206040518083038186803b1580156114b057600080fd5b505afa1580156114c4573d6000803e3d6000fd5b505050506040513d601f19601f820116820180604052508101906114e89190614ef9565b6040516114fd99989796959493929190614f96565b60405180910390a380516020909101516001600055909590945092505050565b611525614cd1565b506001600160a01b0391821660009081526002602081815260408084209490951683526001938401815291849020845160a0810186528154815293810154928401929092528101549282019290925260038201546060820152600490910154608082015290565b600754600160381b900462ffffff1681565b600260005414156115e4576040805162461bcd60e51b815260206004820152601f6024820152600080516020615912833981519152604482015290519081900360640190fd5b600260009081556115f3612853565b90507f00000000000000000000000000000000000000000000000000000000000000006001600160a01b03166116a95781156116415760405162461bcd60e51b8152600401610cf290615126565b6001600160a01b0381166000908152600260205260409020611663903461311e565b806001600160a01b03167f2da466a7b24304f47e87fa2e1e5a81b9831ce54fec19055ce277ca2f39ba42c43460405161169c9190615050565b60405180910390a26111a0565b34156116c75760405162461bcd60e51b8152600401610cf2906153d7565b61174160026000836001600160a01b03166001600160a01b0316815260200190815260200160002060405180606001604052807f00000000000000000000000000000000000000000000000000000000000000006001600160a01b03168152602001858152602001846001600160a01b0316815250613161565b806001600160a01b03167f2da466a7b24304f47e87fa2e1e5a81b9831ce54fec19055ce277ca2f39ba42c4836040516109029190615050565b60045481565b611788612853565b6001600160a01b0316611799610f3b565b6001600160a01b0316146117e2576040805162461bcd60e51b81526020600482018190526024820152600080516020615979833981519152604482015290519081900360640190fd5b60026000541415611828576040805162461bcd60e51b815260206004820152601f6024820152600080516020615912833981519152604482015290519081900360640190fd5b600260005560075462ffffff6101009091048116908216111561185d5760405162461bcd60e51b8152600401610cf290615299565b60008162ffffff16116118825760405162461bcd60e51b8152600401610cf2906155d0565b6007805462ffffff909216600160201b0266ffffff00000000199092169190911790556001600055565b6001600160a01b038216600090815260026020526040812061099190836131ac565b6001600160a01b03811660009081526002602090815260409182902060030180548351818402810184019094528084526060939283018282801561193b57602002820191906000526020600020905b81546001600160a01b0316815260019091019060200180831161191d575b50505050509050919050565b61194f612853565b6001600160a01b0316611960610f3b565b6001600160a01b0316146119a9576040805162461bcd60e51b81526020600482018190526024820152600080516020615979833981519152604482015290519081900360640190fd5b600260005414156119ef576040805162461bcd60e51b815260206004820152601f6024820152600080516020615912833981519152604482015290519081900360640190fd5b600260005561271062ffffff82161115611a1b5760405162461bcd60e51b8152600401610cf29061526d565b6007805462ffffff909216600160501b0262ffffff60501b199092169190911790556001600055565b611a4c612853565b6001600160a01b0316611a5d610f3b565b6001600160a01b031614611aa6576040805162461bcd60e51b81526020600482018190526024820152600080516020615979833981519152604482015290519081900360640190fd5b60026000541415611aec576040805162461bcd60e51b815260206004820152601f6024820152600080516020615912833981519152604482015290519081900360640190fd5b6002600055620f424062ffffff821610611b185760405162461bcd60e51b8152600401610cf290615241565b6007805462ffffff909216600160381b0262ffffff60381b199092169190911790556001600055565b60008060026000541415611b8a576040805162461bcd60e51b815260206004820152601f6024820152600080516020615912833981519152604482015290519081900360640190fd5b600260005560c083013542811015611bb45760405162461bcd60e51b8152600401610cf2906154cb565b6000611dd0600282611bc96020890189614def565b6001600160a01b03166001600160a01b0316815260200190815260200160002060026000611bf5612853565b6001600160a01b03166001600160a01b031681526020019081526020016000206002016004600360008a6020016020810190611c319190614def565b6001600160a01b03166001600160a01b031681526020019081526020016000206005604051806101a001604052808c6020016020810190611c729190614def565b6001600160a01b03168152602001611c9060608e0160408f01614e64565b15158152602001611ca760808e0160608f01614e64565b151581526020018c6080013581526020018c60a00135815260200160066040518060400160405290816000820160009054906101000a900462ffffff1662ffffff1662ffffff1681526020016000820160039054906101000a900462ffffff1662ffffff1662ffffff16815250508152602001600860008e6020016020810190611d319190614def565b6001600160a01b0316815260208082019290925260409081016000205460ff9081161515845260075462ffffff600160201b8204811694860194909452610100810484169285019290925281166060840152600160501b810482166080840152600160381b90041660a082015260c001611da9612853565b6001600160a01b0316611dbf60208f018f614def565b6001600160a01b0316149052613262565b90508060e0015115611f0457611de4612853565b6001600160a01b0316611dfd6040870160208801614def565b6001600160a01b0316611e136020880188614def565b6001600160a01b03167f500126d8372eddb0ce0f8141f6cd1aac109959eb86b0247bd5ebe8352de53dd784600001518560200151866040015187606001518c6020016020810190611e649190614def565b6001600160a01b0316639482de1a6040518163ffffffff1660e01b815260040160206040518083038186803b158015611e9c57600080fd5b505afa158015611eb0573d6000803e3d6000fd5b505050506040513d601f19601f82011682018060405250810190611ed49190614ef9565b89608001518a60a001518b60c00151604051611ef798979695949392919061508f565b60405180910390a4612002565b611f146040860160208701614def565b6001600160a01b0316611f2a6020870187614def565b6001600160a01b03167fe386a40c070a1424ae709b98c27e64993228f777c6294ef7149cf0ee42ef46e883600001518460200151856040015186606001518b6020016020810190611f7b9190614def565b6001600160a01b0316639482de1a6040518163ffffffff1660e01b815260040160206040518083038186803b158015611fb357600080fd5b505afa158015611fc7573d6000803e3d6000fd5b505050506040513d601f19601f82011682018060405250810190611feb9190614ef9565b88608001516040516114fd96959493929190615067565b80516020909101516001600055909590945092505050565b600080600060026000541415612065576040805162461bcd60e51b815260206004820152601f6024820152600080516020615912833981519152604482015290519081900360640190fd5b600260005560a08401354281101561208f5760405162461bcd60e51b8152600401610cf2906154cb565b6000612099612853565b9050600061217760026000846001600160a01b03166001600160a01b031681526020019081526020016000206040518061010001604052808a60000160208101906120e49190614def565b6001600160a01b031681526020018a6020013581526020018a6040013581526020018a6060013581526020018a608001358152602001600860008c60000160208101906121319190614def565b6001600160a01b0316815260208082019290925260409081016000205460ff9081161515845260075462ffffff6101008204169385019390935291909116910152613555565b90506121866020880188614def565b6001600160a01b0316826001600160a01b03167fea3191ffbe2f62bfd724ee8d971b15ff9b7994e3a9169dc4c60443be3e4a43c48360000151846020015185604001518c60000160208101906121dc9190614def565b6001600160a01b0316639482de1a6040518163ffffffff1660e01b815260040160206040518083038186803b15801561221457600080fd5b505afa158015612228573d6000803e3d6000fd5b505050506040513d601f19601f8201168201806040525081019061224c9190614ef9565b61225960208f018f614def565b6001600160a01b0316637452fadd6040518163ffffffff1660e01b815260040160206040518083038186803b15801561229157600080fd5b505afa1580156122a5573d6000803e3d6000fd5b505050506040513d601f19601f820116820180604052508101906122c99190614ef9565b6040516122da959493929190615880565b60405180910390a3805160208201516040909201516001600055909891975095509350505050565b60086020526000908152604090205460ff1681565b6001600160a01b03811660009081526002602052604081206007546107dc9190610100900462ffffff166137b3565b61234e612853565b6001600160a01b031661235f610f3b565b6001600160a01b0316146123a8576040805162461bcd60e51b81526020600482018190526024820152600080516020615979833981519152604482015290519081900360640190fd5b6001600160a01b0381166123ed5760405162461bcd60e51b81526004018080602001828103825260268152602001806159326026913960400191505060405180910390fd5b6001546040516001600160a01b038084169216907f8be0079c531659141344cd1fd0a4f28419497f9722a3daafe3b4186f6b6457e090600090a3600180546001600160a01b0319166001600160a01b0392909216919091179055565b60075460ff1681565b61245a612853565b6001600160a01b031661246b610f3b565b6001600160a01b0316146124b4576040805162461bcd60e51b81526020600482018190526024820152600080516020615979833981519152604482015290519081900360640190fd5b600260005414156124fa576040805162461bcd60e51b815260206004820152601f6024820152600080516020615912833981519152604482015290519081900360640190fd5b60026000556207a1206125136040830160208401614ec5565b62ffffff1611156125365760405162461bcd60e51b8152600401610cf290615562565b6125466040820160208301614ec5565b62ffffff166125586020830183614ec5565b62ffffff16111561257b5760405162461bcd60e51b8152600401610cf290615217565b80600661258882826158b1565b5050600160005550565b3b151590565b600281015460038201805460009290835b818110156128495760008482815481106125bf57fe5b60009182526020808320909101546001600160a01b031680835260018a01825260408084208054938c90529084205491945092916125fd91906137f6565b6001808401546001600160a01b038616600090815260208d90526040812090920154929350909161262d916137f6565b9050826002015460001461279957600080856001600160a01b0316637640482f86600201546040518263ffffffff1660e01b815260040180828152602001915050604080518083038186803b15801561268557600080fd5b505afa158015612699573d6000803e3d6000fd5b505050506040513d60408110156126af57600080fd5b508051602090910151600287015460038801546004808a01546040805163933c797960e01b81529283019490945260248201929092526044810191909152815193955091935060009283926001600160a01b038b169263933c797992606480840193829003018186803b15801561272557600080fd5b505afa158015612739573d6000803e3d6000fd5b505050506040513d604081101561274f57600080fd5b508051602090910151909250905061277961277261276d868561385b565b6138b5565b87906138fd565b955061279261278b61276d858461385b565b86906138fd565b9450505050505b811561282e576000846001600160a01b0316638ee8fe5d6040518163ffffffff1660e01b815260040160206040518083038186803b1580156127da57600080fd5b505afa1580156127ee573d6000803e3d6000fd5b505050506040513d602081101561280457600080fd5b5051905061282a612823612817836138b5565b8590600160601b613962565b89906138fd565b9750505b61283887826138fd565b9650505050508060010190506125a9565b5090949350505050565b3390565b600081602001511161287b5760405162461bcd60e51b8152600401610cf290615375565b61289661288b82602001516138b5565b6002840154906137f6565b600283015560608101516128ab9083906137b3565b6128c75760405162461bcd60e51b8152600401610cf2906152d0565b80516001600160a01b031661291d5780604001516001600160a01b03166108fc82602001519081150290604051600060405180830381858888f19350505050158015612917573d6000803e3d6000fd5b50612934565b612934816000015182604001518360200151613a06565b5050565b6001600160a01b0381166000908152600183016020908152604080832080549286905290832054909161296b91906137f6565b91508060020154600014612aa1576000836001600160a01b0316637640482f83600201546040518263ffffffff1660e01b815260040180828152602001915050604080518083038186803b1580156129c257600080fd5b505afa1580156129d6573d6000803e3d6000fd5b505050506040513d60408110156129ec57600080fd5b5051600283015460038401546004808601546040805163933c797960e01b8152928301949094526024820192909252604481019190915281519293506000926001600160a01b0388169263933c79799260648082019391829003018186803b158015612a5757600080fd5b505afa158015612a6b573d6000803e3d6000fd5b505050506040513d6040811015612a8157600080fd5b50519050612a9c612a9561276d848461385b565b85906138fd565b935050505b5092915050565b600381018054600091908290815b81811015612849576000612af2612aed88878581548110612ad357fe5b6000918252602090912001546001600160a01b0316612bde565b613a58565b9050612afe848261385b565b935050600101612ab6565b612b20612b15826138b5565b6002850154906138fd565b60028401558154612b319082613a81565b9091555050565b600381018054600091908290815b81811015612849576000612b7a87868481548110612b6057fe5b6000918252602090912001546001600160a01b0316612d20565b9050612b86848261385b565b935050600101612b46565b612b9d612b15826138b5565b6002840155612bb6612bae826138b5565b8354906137f6565b80835560001315612bd95760405162461bcd60e51b8152600401610cf2906151ae565b505050565b600080612beb8484612938565b905080612bfc576000915050610959565b6000836001600160a01b0316638ee8fe5d6040518163ffffffff1660e01b815260040160206040518083038186803b158015612c3757600080fd5b505afa158015612c4b573d6000803e3d6000fd5b505050506040513d6020811015612c6157600080fd5b50519050612c7d612c71826138b5565b8390600160601b613962565b95945050505050565b6000806000612c99858560a00151612db6565b1590508360e00151612cc25780612cc25760405162461bcd60e51b8152600401610cf290615690565b6000612ce585600001518660200151876040015188606001518960c00151613ade565b509050612cfb8560400151828760800151613d21565b612d1385602001518660400151876060015184613d6c565b9097909650945050505050565b600080612d2d84846131ac565b905080612d3e576000915050610959565b6000836001600160a01b0316638ee8fe5d6040518163ffffffff1660e01b815260040160206040518083038186803b158015612d7957600080fd5b505afa158015612d8d573d6000803e3d6000fd5b505050506040513d6020811015612da357600080fd5b50519050612c7d8282600160601b613ddb565b600080612dc284612598565b90506000612dcf85612aa8565b9050612dde61276d8286613e8a565b90911215949350505050565b612df2614d00565b612e00838360800151612db6565b1560a082015260c0820151612e30578060a00151612e305760405162461bcd60e51b8152600401610cf2906150c5565b81516001600160a01b0316600090815260018401602052604090208251612e579190613e9f565b81516020830151604051639c8f9f2360e01b81526001600160a01b0390921691639c8f9f2391612e8991600401615050565b6040805180830381600087803b158015612ea257600080fd5b505af1158015612eb6573d6000803e3d6000fd5b505050506040513d601f19601f82011682018060405250810190612eda9190614f11565b602083015280825260408301511115612f055760405162461bcd60e51b8152600401610cf2906156bb565b816060015181602001511015612f2d5760405162461bcd60e51b8152600401610cf2906156bb565b60008083600001516001600160a01b031663f22897526040518163ffffffff1660e01b8152600401604080518083038186803b158015612f6c57600080fd5b505afa158015612f80573d6000803e3d6000fd5b505050506040513d601f19601f82011682018060405250810190612fa49190614f11565b85516001600160a01b039081166000908152600189016020908152604080832060038101969096556004909501939093558751909116815291822090860151919350839250612ff291613f6c565b915091506130098585600001518660a00151613fe9565b6130208261301a85600001516138b5565b906137f6565b6040840152602083015161303990829061301a906138b5565b8360600181815250505050600082600001516001600160a01b0316637452fadd6040518163ffffffff1660e01b815260040160206040518083038186803b15801561308357600080fd5b505afa158015613097573d6000803e3d6000fd5b505050506040513d601f19601f820116820180604052508101906130bb9190614ef9565b905060006130db6130cb836138b5565b604085015190600160601b613962565b60000390506131108585600001518560400151846131068689606001516137f690919063ffffffff16565b8960a001516141b3565b608084015250909392505050565b6000811161313e5760405162461bcd60e51b8152600401610cf290615468565b61315561314a826138b5565b6002840154906138fd565b60029092019190915550565b60008160200151116131855760405162461bcd60e51b8152600401610cf290615155565b61319c816000015182604001518360200151614378565b61315561314a82602001516138b5565b6001600160a01b038116600090815260018301602052604081206131d3612aed8585612938565b91508060020154600014612aa1576000836001600160a01b0316637640482f83600201546040518263ffffffff1660e01b815260040180828152602001915050604080518083038186803b15801561322a57600080fd5b505afa15801561323e573d6000803e3d6000fd5b505050506040513d604081101561325457600080fd5b50519050612c7d838261385b565b61326a614d38565b613278878360e00151612db6565b1560e08201526101808201516132a9578060e001516132a95760405162461bcd60e51b8152600401610cf29061543e565b600082600001516001600160a01b0316637452fadd6040518163ffffffff1660e01b815260040160206040518083038186803b1580156132e857600080fd5b505afa1580156132fc573d6000803e3d6000fd5b505050506040513d601f19601f820116820180604052508101906133209190614ef9565b905061332c85826144a9565b5081516001600160a01b031660009081526020888152604091829020548451918501519285015160608601516080870151610120880151610140890151949661337f968f968c96919592949193906144c0565b606086015260408501526020840152808352600090819061339f906145ab565b84516133b5906133b09086906138fd565b6145ab565b021390508360c001516133e05780156133e05760405162461bcd60e51b8152600401610cf2906157b2565b8260e00151156134315780156134085760405162461bcd60e51b8152600401610cf2906150ef565b61342e8960020189898760e001518861016001516134298960200151613a58565b6145d3565b50505b83600001516001600160a01b0316637452fadd6040518163ffffffff1660e01b815260040160206040518083038186803b15801561346e57600080fd5b505afa158015613482573d6000803e3d6000fd5b505050506040513d601f19601f820116820180604052508101906134a69190614ef9565b608084015260e0830151156134e9576134c8868560a00151856080015161464b565b6134e45760405162461bcd60e51b8152600401610cf290615599565b613518565b6134fc868560a001518560800151614668565b6135185760405162461bcd60e51b8152600401610cf29061571d565b80156135495761352d898561010001516137b3565b6135495760405162461bcd60e51b8152600401610cf29061562b565b50509695505050505050565b61355d614d7f565b8160a0015161357e5760405162461bcd60e51b8152600401610cf290615494565b81516001600160a01b03166000908152600184016020526040902082516135a6908290613e9f565b600080600085600001516001600160a01b0316639cd441da876020015188604001516040518363ffffffff1660e01b81526004016135e5929190615059565b606060405180830381600087803b1580156135ff57600080fd5b505af1158015613613573d6000803e3d6000fd5b505050506040513d601f19601f820116820180604052508101906136379190614f34565b92509250925085606001518310156136615760405162461bcd60e51b8152600401610cf29061533e565b85608001518210156136855760405162461bcd60e51b8152600401610cf2906154f4565b60008087600001516001600160a01b031663f22897526040518163ffffffff1660e01b8152600401604080518083038186803b1580156136c457600080fd5b505afa1580156136d8573d6000803e3d6000fd5b505050506040513d601f19601f820116820180604052508101906136fc9190614f11565b9150915061371461370c866138b5565b8754906138fd565b865561372d613722856138b5565b6001880154906138fd565b60018701556002860154613741908461385b565b60028701556003860182905560048601819055875160e0890151613766918b91613fe9565b613774898960c001516137b3565b6137905760405162461bcd60e51b8152600401610cf290615784565b505060408051606081018252938452602084019290925290820152949350505050565b6000806137bf84612598565b905060006137cc85612b38565b90506137db61276d8286613e8a565b60028601546137eb90849061467a565b121595945050505050565b600081830381831280159061380b5750838113155b80613820575060008312801561382057508381135b6109915760405162461bcd60e51b81526004018080602001828103825260248152602001806159c16024913960400191505060405180910390fd5b600082820183811015610991576040805162461bcd60e51b815260206004820152601b60248201527f536166654d6174683a206164646974696f6e206f766572666c6f770000000000604482015290519081900360640190fd5b6000600160ff1b82106138f95760405162461bcd60e51b81526004018080602001828103825260288152602001806159996028913960400191505060405180910390fd5b5090565b60008282018183128015906139125750838112155b80613927575060008312801561392757508381125b6109915760405162461bcd60e51b81526004018080602001828103825260218152602001806159586021913960400191505060405180910390fd5b60008060008512613973578461397c565b61397c85614690565b9050600080851261398d5784613996565b61399685614690565b9050600080871280156139a95750600086135b806139bf57506000871380156139bf5750600086125b6139ca5760006139cd565b60015b905060006139dc848488613ddb565b9050816139f1576139ec816138b5565b6139fa565b6139fa816146bc565b98975050505050505050565b604080516001600160a01b038416602482015260448082018490528251808303909101815260649091019091526020810180516001600160e01b031663a9059cbb60e01b179052612bd99084906146d0565b600080821215613a7857613a73613a6e83614690565b614781565b6107dc565b6107dc82614781565b600082821115613ad8576040805162461bcd60e51b815260206004820152601e60248201527f536166654d6174683a207375627472616374696f6e206f766572666c6f770000604482015290519081900360640190fd5b50900390565b6000808415613c28578515613b8b57604051625f6ae560e21b81526001600160a01b0388169063017dab9490613b1c90899089908990600401615038565b60206040518083038186803b158015613b3457600080fd5b505afa158015613b48573d6000803e3d6000fd5b505050506040513d601f19601f82011682018060405250810190613b6c9190614ef9565b9150613b788284613e8a565b9050613b848282613a81565b9150613c23565b613b958484613e8a565b90506001600160a01b03871663017dab948787613bb28886613a81565b6040518463ffffffff1660e01b8152600401613bd093929190615038565b60206040518083038186803b158015613be857600080fd5b505afa158015613bfc573d6000803e3d6000fd5b505050506040513d601f19601f82011682018060405250810190613c209190614ef9565b91505b613d17565b8515613c6c57613c4f84613c49613c42620f4240876147d8565b8790614804565b90613a81565b90506001600160a01b03871663017dab948787613bb2888661385b565b604051625f6ae560e21b81526000906001600160a01b0389169063017dab9490613c9e908a908a908a90600401615038565b60206040518083038186803b158015613cb657600080fd5b505afa158015613cca573d6000803e3d6000fd5b505050506040513d601f19601f82011682018060405250810190613cee9190614ef9565b9050613d07613d00620f4240866147d8565b8290614804565b9250613d138382613a81565b9150505b9550959350505050565b8215613d4c5780821015613d475760405162461bcd60e51b8152600401610cf290615409565b612bd9565b80821115612bd95760405162461bcd60e51b8152600401610cf2906155f6565b6000808415613da8578515613d9657613d84846146bc565b613d8d846138b5565b91509150613dd2565b613d9f836138b5565b613d8d856146bc565b8515613dc057613db7836146bc565b613d8d856138b5565b613dc9846138b5565b613d8d846146bc565b94509492505050565b6000808060001985870986860292508281109083900303905080613e115760008411613e0657600080fd5b508290049050610991565b808411613e1d57600080fd5b6000848688096000868103871696879004966002600389028118808a02820302808a02820302808a02820302808a02820302808a02820302808a02909103029181900381900460010186841190950394909402919094039290920491909117919091029150509392505050565b6000610991838362ffffff16620f4240613ddb565b6002820154600383015460048085015460405163933c797960e01b815260009485946001600160a01b0388169463933c797994613ede9490910161586a565b604080518083038186803b158015613ef557600080fd5b505afa158015613f09573d6000803e3d6000fd5b505050506040513d601f19601f82011682018060405250810190613f2d9190614f11565b91509150613f45613f3d836138b5565b8554906137f6565b8455613f5e613f53826138b5565b6001860154906137f6565b846001018190555050505050565b600080613f89613f7b846138b5565b600286015486549190613962565b8454909250613f9890836137f6565b8455613fb7613fa6846138b5565b600286015460018701549190613962565b6001850154909150613fc990826137f6565b60018501556002840154613fdd9084613a81565b60028501559250929050565b6001600160a01b03821660009081526020849052604081205415158061402b57506001600160a01b038316600090815260018501602052604090206002015415155b6003850180549192509060005b8181101561411b57856001600160a01b031683828154811061405657fe5b6000918252602090912001546001600160a01b03161415614113578361410a5782600183038154811061408557fe5b9060005260206000200160009054906101000a90046001600160a01b03168382815481106140af57fe5b9060005260206000200160006101000a8154816001600160a01b0302191690836001600160a01b03160217905550828054806140e757fe5b600082815260209020810160001990810180546001600160a01b03191690550190555b50505050612bd9565b600101614038565b508261412957505050612bd9565b8360ff1681600101111561417e576040805162461bcd60e51b8152602060048201526017602482015276414c5f55503a20746f6f206d616e79206d61726b65747360481b604482015290519081900360640190fd5b508054600181018255600091825260209091200180546001600160a01b0385166001600160a01b031990911617905550505050565b6001600160a01b0385166000908152602087905260408120851515806141d857508415155b156142b5576141e6856145ab565b6141ef876145ab565b02600019146142105760405162461bcd60e51b8152600401610cf290615754565b614219866145ab565b8154614224906145ab565b0260001914156142b557670de0b6b3a7640000600061425861424589613a58565b836142538660000154613a58565b613ddb565b905081811161428f57600061427b61426f836138b5565b60018601549085613962565b905061428788826138fd565b9450506142b2565b600061429c888484613962565b60018501549091506142ae90826138fd565b9450505b50505b6142bf82856138fd565b81549092506000906142d190886138fd565b905060006142fa8461301a886142f48b88600101546138fd90919063ffffffff16565b906138fd565b905081158015614308575080155b806143265750614317816145ab565b614320836145ab565b02600019145b6143425760405162461bcd60e51b8152600401610cf290615180565b8183556001830181905560028a015461435b90856138fd565b60028b015561436b8a8a87613fe9565b5050509695505050505050565b6040516370a0823160e01b81526000906001600160a01b038516906370a08231906143a7903090600401614f82565b60206040518083038186803b1580156143bf57600080fd5b505afa1580156143d3573d6000803e3d6000fd5b505050506040513d601f19601f820116820180604052508101906143f79190614ef9565b905061440584843085614819565b8161448682866001600160a01b03166370a08231306040518263ffffffff1660e01b81526004016144369190614f82565b60206040518083038186803b15801561444e57600080fd5b505afa158015614462573d6000803e3d6000fd5b505050506040513d601f19601f82011682018060405250810190613c499190614ef9565b146144a35760405162461bcd60e51b8152600401610cf290615307565b50505050565b438260010154101561293457815543600190910155565b60008080808062ffffff8616156144e8576144df8d8d8d8d8d8b614873565b9250905061456d565b60405163630e375f60e01b81526001600160a01b038d169063630e375f90614518908e908e908e90600401615038565b602060405180830381600087803b15801561453257600080fd5b505af1158015614546573d6000803e3d6000fd5b505050506040513d601f19601f8201168201806040525081019061456a9190614ef9565b90505b6145788a828a613d21565b6145848b8b8b84613d6c565b90955093506145988e8d878760008c6141b3565b9250509950995099509995505050505050565b60008082136145cb57600082126145c3576000613a73565b6000196107dc565b506001919050565b600080806145e18487613e8a565b90506145ed8186613e8a565b92506145f98184613a81565b915061460f614607826138b5565b8a54906137f6565b895561462561461d846138b5565b8954906138fd565b885561463b614633836138b5565b8854906138fd565b9096559097909650945050505050565b60006146608460000154838560200151614ab8565b949350505050565b82548251600091614660918490614ab8565b60008183126146895781610991565b5090919050565b6000600160ff1b82136146b55760405162461bcd60e51b8152600401610cf29061552b565b5060000390565b60006146c7826138b5565b60000392915050565b6000614725826040518060400160405280602081526020017f5361666545524332303a206c6f772d6c6576656c2063616c6c206661696c6564815250856001600160a01b0316614afe9092919063ffffffff16565b805190915015612bd95780806020019051602081101561474457600080fd5b5051612bd95760405162461bcd60e51b815260040180806020018281038252602a8152602001806159e5602a913960400191505060405180910390fd5b6000808212156138f9576040805162461bcd60e51b815260206004820181905260248201527f53616665436173743a2076616c7565206d75737420626520706f736974697665604482015290519081900360640190fd5b60008262ffffff168262ffffff161115613ad85760405162461bcd60e51b8152600401610cf2906151e0565b600061099183620f42408462ffffff16613ddb565b604080516001600160a01b0380861660248301528416604482015260648082018490528251808303909101815260849091019091526020810180516001600160e01b03166323b872dd60e01b1790526144a39085906146d0565b60008084156149c25785156149235760405163630e375f60e01b81526001600160a01b0388169063630e375f906148b290899089908990600401615038565b602060405180830381600087803b1580156148cc57600080fd5b505af11580156148e0573d6000803e3d6000fd5b505050506040513d601f19601f820116820180604052508101906149049190614ef9565b91506149108284613e8a565b905061491c8282613a81565b91506149bd565b61492d8484613e8a565b90506001600160a01b03871663630e375f878761494a8886613a81565b6040518463ffffffff1660e01b815260040161496893929190615038565b602060405180830381600087803b15801561498257600080fd5b505af1158015614996573d6000803e3d6000fd5b505050506040513d601f19601f820116820180604052508101906149ba9190614ef9565b91505b614aa0565b85156149f9576149dc84613c49613c42620f4240876147d8565b90506001600160a01b03871663630e375f878761494a888661385b565b60405163630e375f60e01b81526000906001600160a01b0389169063630e375f90614a2c908a908a908a90600401615038565b602060405180830381600087803b158015614a4657600080fd5b505af1158015614a5a573d6000803e3d6000fd5b505050506040513d601f19601f82011682018060405250810190614a7e9190614ef9565b9050614a90613d00620f4240866147d8565b9250614a9c8382613a81565b9150505b8754614aac908261385b565b90975596945050505050565b600080614ac58584613e8a565b90506000614ad3868361385b565b90506000614ae18784613a81565b9050858111158015614af35750818611155b979650505050505050565b6060614660848460008585614b1285612592565b614b63576040805162461bcd60e51b815260206004820152601d60248201527f416464726573733a2063616c6c20746f206e6f6e2d636f6e7472616374000000604482015290519081900360640190fd5b600080866001600160a01b031685876040518082805190602001908083835b60208310614ba15780518252601f199092019160209182019101614b82565b6001836020036101000a03801982511681845116808217855250505050505090500191505060006040518083038185875af1925050503d8060008114614c03576040519150601f19603f3d011682016040523d82523d6000602084013e614c08565b606091505b5091509150614af382828660608315614c22575081610991565b825115614c325782518084602001fd5b8160405162461bcd60e51b81526004018080602001828103825283818151815260200191508051906020019080838360005b83811015614c7c578181015183820152602001614c64565b50505050905090810190601f168015614ca95780820380516001836020036101000a031916815260200191505b509250505060405180910390fd5b604051806040016040528060008152602001600081525090565b6040518060a0016040528060008152602001600081526020016000815260200160008152602001600081525090565b6040518060c0016040528060008152602001600081526020016000815260200160008152602001600081526020016000151581525090565b604051806101000160405280600081526020016000815260200160008152602001600081526020016000815260200160008152602001600081526020016000151581525090565b60405180606001604052806000815260200160008152602001600081525090565b80356001600160a01b03811681146107df57600080fd5b803580151581146107df57600080fd5b600060c08284031215614dd8578081fd5b50919050565b600060e08284031215614dd8578081fd5b600060208284031215614e00578081fd5b61099182614da0565b60008060408385031215614e1b578081fd5b614e2483614da0565b9150614e3260208401614da0565b90509250929050565b60008060408385031215614e4d578182fd5b614e5683614da0565b9150614e3260208401614db7565b600060208284031215614e75578081fd5b61099182614db7565b600060c08284031215614e8f578081fd5b6109918383614dc7565b600060e08284031215614eaa578081fd5b6109918383614dde565b600060408284031215614dd8578081fd5b600060208284031215614ed6578081fd5b8135610991816158fd565b600060208284031215614ef2578081fd5b5035919050565b600060208284031215614f0a578081fd5b5051919050565b60008060408385031215614f23578182fd5b505080516020909101519092909150565b600080600060608486031215614f48578081fd5b8351925060208401519150604084015190509250925092565b600060208284031215614f72578081fd5b813560ff81168114610991578182fd5b6001600160a01b0391909116815260200190565b6001600160a01b03999099168952602089019790975260408801959095526060870193909352608086019190915260a085015260c084015260e08301526101008201526101200190565b6020808252825182820181905260009190848201906040850190845b818110156150215783516001600160a01b031683529284019291840191600101614ffc565b50909695505050505050565b901515815260200190565b92151583529015156020830152604082015260600190565b90815260200190565b918252602082015260400190565b958652602086019490945260408501929092526060840152608083015260a082015260c00190565b978852602088019690965260408701949094526060860192909252608085015260a084015260c083015260e08201526101000190565b60208082526010908201526f4d4c5f524c3a20656e6f756768206d6d60801b604082015260600190565b6020808252601f908201527f544c5f4f503a206e6f206f70656e207768656e206c69717569646174696f6e00604082015260600190565b60208082526015908201527450455f443a20616d6f756e74206e6f74207a65726f60581b604082015260600190565b602080825260119082015270159317d10e881e995c9bc8185b5bdd5b9d607a1b604082015260600190565b6020808252601490820152732a262fa0aa2a211d103732bb32b91037b1b1bab960611b604082015260600190565b602080825260189082015277564c5f5449463a206e656761746976652062616c616e636560401b604082015260600190565b6020808252601e908201527f506572704d6174683a207375627472616374696f6e206f766572666c6f770000604082015260600190565b60208082526010908201526f141157d4d41310ce881a5b9d985b1a5960821b604082015260600190565b60208082526012908201527150455f534c52523a20746f6f206c6172676560701b604082015260600190565b60208082526012908201527150455f535046523a20746f6f206c6172676560701b604082015260600190565b6020808252601b908201527f50455f534d523a20626967676572207468616e20696d526174696f0000000000604082015260600190565b6020808252601f908201527f564c5f573a206e6f7420656e6f75676820696e697469616c206d617267696e00604082015260600190565b6020808252601c908201527f564c5f5454493a20696e636f6e73697374656e742062616c616e636500000000604082015260600190565b6020808252601c908201527f4d4c5f414c3a20746f6f20736d616c6c206f7574707574206261736500000000604082015260600190565b602080825260119082015270159317d5ce881e995c9bc8185b5bdd5b9d607a1b604082015260600190565b6020808252601f908201527f50455f53494d413a206d61726b6574206164647265737320696e76616c696400604082015260600190565b60208082526018908201527750455f443a206d73672e76616c7565206e6f74207a65726f60401b604082015260600190565b6020808252818101527f544c5f56533a20746f6f20736d616c6c206f70706f7369746520616d6f756e74604082015260600190565b60208082526010908201526f544c5f4f503a20656e6f756768206d6d60801b604082015260600190565b602080825260129082015271159317d1114e881e995c9bc8185b5bdd5b9d60721b604082015260600190565b6020808252601e908201527f4d4c5f414c3a20616464206c697175696469747920666f7262696464656e0000604082015260600190565b6020808252600f908201526e50455f43443a20746f6f206c61746560881b604082015260600190565b6020808252601d908201527f4d4c5f414c3a20746f6f20736d616c6c206f75747075742071756f7465000000604082015260600190565b6020808252601c908201527f506572704d6174683a20696e76657273696f6e206f766572666c6f7700000000604082015260600190565b6020808252601e908201527f50455f53504c433a20746f6f206c61726765206c69717569646174696f6e0000604082015260600190565b6020808252601e908201527f544c5f4f503a206c69717569646174696f6e207072696365206c696d69740000604082015260600190565b6020808252600c908201526b50455f534d523a207a65726f60a01b604082015260600190565b6020808252818101527f544c5f56533a20746f6f206c61726765206f70706f7369746520616d6f756e74604082015260600190565b602080825260149082015273544c5f4f503a206e6f7420656e6f75676820696d60601b604082015260600190565b6020808252601c908201527f50455f5349523a20736d616c6c6572207468616e206d6d526174696f00000000604082015260600190565b602080825260119082015270544c5f4f50443a20656e6f756768206d6d60781b604082015260600190565b6020808252601c908201527f4d4c5f524c3a20746f6f20736d616c6c206f7574707574206261736500000000604082015260600190565b60208082526011908201527050455f5349523a20746f6f206c6172676560781b604082015260600190565b6020808252601f908201527f544c5f4f503a206e6f726d616c206f72646572207072696365206c696d697400604082015260600190565b602080825260169082015275151317d05515108e881a5b9d985b1a59081a5b9c1d5d60521b604082015260600190565b6020808252601490820152734d4c5f414c3a206e6f7420656e6f75676820696d60601b604082015260600190565b6020808252601a908201527f544c5f4f503a206e6f206f70656e207768656e20636c6f736564000000000000604082015260600190565b600060a082019050825182526020830151602083015260408301516040830152606083015160608301526080830151608083015292915050565b815181526020918201519181019190915260400190565b9051815260200190565b62ffffff91909116815260200190565b62ffffff92831681529116602082015260400190565b9283526020830191909152604082015260600190565b948552602085019390935260408401919091526060830152608082015260a00190565b60ff91909116815260200190565b81356158bc816158fd565b815462ffffff191662ffffff919091161780825560208301356158de816158fd565b65ffffff0000008160181b1665ffffff00000019831617835550505050565b62ffffff8116811461590e57600080fd5b5056fe5265656e7472616e637947756172643a207265656e7472616e742063616c6c004f776e61626c653a206e6577206f776e657220697320746865207a65726f20616464726573735369676e6564536166654d6174683a206164646974696f6e206f766572666c6f774f776e61626c653a2063616c6c6572206973206e6f7420746865206f776e657253616665436173743a2076616c756520646f65736e27742066697420696e20616e20696e743235365369676e6564536166654d6174683a207375627472616374696f6e206f766572666c6f775361666545524332303a204552433230206f7065726174696f6e20646964206e6f742073756363656564a2646970667358221220bae27195c9bfe663856e0988a5eccd1c7269c1d023c0197099fb0f62a538b15e64736f6c63430007060033",
  "devdoc": {
    "kind": "dev",
    "methods": {
      "owner()": {
        "details": "Returns the address of the current owner."
      },
      "renounceOwnership()": {
        "details": "Leaves the contract without owner. It will not be possible to call `onlyOwner` functions anymore. Can only be called by the current owner. NOTE: Renouncing ownership will leave the contract without an owner, thereby removing any functionality that is only available to the owner."
      },
      "transferOwnership(address)": {
        "details": "Transfers ownership of the contract to a new account (`newOwner`). Can only be called by the current owner."
      }
    },
    "version": 1
  },
  "userdoc": {
    "kind": "user",
    "methods": {},
    "version": 1
  },
  "storageLayout": {
    "storage": [
      {
        "astId": 2932,
        "contract": "contracts/PerpdexExchange.sol:PerpdexExchange",
        "label": "_status",
        "offset": 0,
        "slot": "0",
        "type": "t_uint256"
      },
      {
        "astId": 290,
        "contract": "contracts/PerpdexExchange.sol:PerpdexExchange",
        "label": "_owner",
        "offset": 0,
        "slot": "1",
        "type": "t_address"
      },
      {
        "astId": 3504,
        "contract": "contracts/PerpdexExchange.sol:PerpdexExchange",
        "label": "accountInfos",
        "offset": 0,
        "slot": "2",
        "type": "t_mapping(t_address,t_struct(AccountInfo)7783_storage)"
      },
      {
        "astId": 3509,
        "contract": "contracts/PerpdexExchange.sol:PerpdexExchange",
        "label": "priceLimitInfos",
        "offset": 0,
        "slot": "3",
        "type": "t_mapping(t_address,t_struct(PriceLimitInfo)7794_storage)"
      },
      {
        "astId": 3512,
        "contract": "contracts/PerpdexExchange.sol:PerpdexExchange",
        "label": "insuranceFundInfo",
        "offset": 0,
        "slot": "4",
        "type": "t_struct(InsuranceFundInfo)7786_storage"
      },
      {
        "astId": 3515,
        "contract": "contracts/PerpdexExchange.sol:PerpdexExchange",
        "label": "protocolInfo",
        "offset": 0,
        "slot": "5",
        "type": "t_struct(ProtocolInfo)7789_storage"
      },
      {
        "astId": 3526,
        "contract": "contracts/PerpdexExchange.sol:PerpdexExchange",
        "label": "priceLimitConfig",
        "offset": 0,
        "slot": "6",
        "type": "t_struct(PriceLimitConfig)7799_storage"
      },
      {
        "astId": 3530,
        "contract": "contracts/PerpdexExchange.sol:PerpdexExchange",
        "label": "maxMarketsPerAccount",
        "offset": 0,
        "slot": "7",
        "type": "t_uint8"
      },
      {
        "astId": 3534,
        "contract": "contracts/PerpdexExchange.sol:PerpdexExchange",
        "label": "imRatio",
        "offset": 1,
        "slot": "7",
        "type": "t_uint24"
      },
      {
        "astId": 3538,
        "contract": "contracts/PerpdexExchange.sol:PerpdexExchange",
        "label": "mmRatio",
        "offset": 4,
        "slot": "7",
        "type": "t_uint24"
      },
      {
        "astId": 3542,
        "contract": "contracts/PerpdexExchange.sol:PerpdexExchange",
        "label": "liquidationRewardRatio",
        "offset": 7,
        "slot": "7",
        "type": "t_uint24"
      },
      {
        "astId": 3546,
        "contract": "contracts/PerpdexExchange.sol:PerpdexExchange",
        "label": "protocolFeeRatio",
        "offset": 10,
        "slot": "7",
        "type": "t_uint24"
      },
      {
        "astId": 3551,
        "contract": "contracts/PerpdexExchange.sol:PerpdexExchange",
        "label": "isMarketAllowed",
        "offset": 0,
        "slot": "8",
        "type": "t_mapping(t_address,t_bool)"
      }
    ],
    "types": {
      "t_address": {
        "encoding": "inplace",
        "label": "address",
        "numberOfBytes": "20"
      },
      "t_array(t_address)dyn_storage": {
        "base": "t_address",
        "encoding": "dynamic_array",
        "label": "address[]",
        "numberOfBytes": "32"
      },
      "t_bool": {
        "encoding": "inplace",
        "label": "bool",
        "numberOfBytes": "1"
      },
      "t_int256": {
        "encoding": "inplace",
        "label": "int256",
        "numberOfBytes": "32"
      },
      "t_mapping(t_address,t_bool)": {
        "encoding": "mapping",
        "key": "t_address",
        "label": "mapping(address => bool)",
        "numberOfBytes": "32",
        "value": "t_bool"
      },
      "t_mapping(t_address,t_struct(AccountInfo)7783_storage)": {
        "encoding": "mapping",
        "key": "t_address",
        "label": "mapping(address => struct PerpdexStructs.AccountInfo)",
        "numberOfBytes": "32",
        "value": "t_struct(AccountInfo)7783_storage"
      },
      "t_mapping(t_address,t_struct(MakerInfo)7766_storage)": {
        "encoding": "mapping",
        "key": "t_address",
        "label": "mapping(address => struct PerpdexStructs.MakerInfo)",
        "numberOfBytes": "32",
        "value": "t_struct(MakerInfo)7766_storage"
      },
      "t_mapping(t_address,t_struct(PriceLimitInfo)7794_storage)": {
        "encoding": "mapping",
        "key": "t_address",
        "label": "mapping(address => struct PerpdexStructs.PriceLimitInfo)",
        "numberOfBytes": "32",
        "value": "t_struct(PriceLimitInfo)7794_storage"
      },
      "t_mapping(t_address,t_struct(TakerInfo)7755_storage)": {
        "encoding": "mapping",
        "key": "t_address",
        "label": "mapping(address => struct PerpdexStructs.TakerInfo)",
        "numberOfBytes": "32",
        "value": "t_struct(TakerInfo)7755_storage"
      },
      "t_struct(AccountInfo)7783_storage": {
        "encoding": "inplace",
        "label": "struct PerpdexStructs.AccountInfo",
        "members": [
          {
            "astId": 7773,
            "contract": "contracts/PerpdexExchange.sol:PerpdexExchange",
            "label": "takerInfos",
            "offset": 0,
            "slot": "0",
            "type": "t_mapping(t_address,t_struct(TakerInfo)7755_storage)"
          },
          {
            "astId": 7777,
            "contract": "contracts/PerpdexExchange.sol:PerpdexExchange",
            "label": "makerInfos",
            "offset": 0,
            "slot": "1",
            "type": "t_mapping(t_address,t_struct(MakerInfo)7766_storage)"
          },
          {
            "astId": 7779,
            "contract": "contracts/PerpdexExchange.sol:PerpdexExchange",
            "label": "vaultInfo",
            "offset": 0,
            "slot": "2",
            "type": "t_struct(VaultInfo)7769_storage"
          },
          {
            "astId": 7782,
            "contract": "contracts/PerpdexExchange.sol:PerpdexExchange",
            "label": "markets",
            "offset": 0,
            "slot": "3",
            "type": "t_array(t_address)dyn_storage"
          }
        ],
        "numberOfBytes": "128"
      },
      "t_struct(InsuranceFundInfo)7786_storage": {
        "encoding": "inplace",
        "label": "struct PerpdexStructs.InsuranceFundInfo",
        "members": [
          {
            "astId": 7785,
            "contract": "contracts/PerpdexExchange.sol:PerpdexExchange",
            "label": "balance",
            "offset": 0,
            "slot": "0",
            "type": "t_int256"
          }
        ],
        "numberOfBytes": "32"
      },
      "t_struct(MakerInfo)7766_storage": {
        "encoding": "inplace",
        "label": "struct PerpdexStructs.MakerInfo",
        "members": [
          {
            "astId": 7757,
            "contract": "contracts/PerpdexExchange.sol:PerpdexExchange",
            "label": "baseDebtShare",
            "offset": 0,
            "slot": "0",
            "type": "t_int256"
          },
          {
            "astId": 7759,
            "contract": "contracts/PerpdexExchange.sol:PerpdexExchange",
            "label": "quoteDebt",
            "offset": 0,
            "slot": "1",
            "type": "t_int256"
          },
          {
            "astId": 7761,
            "contract": "contracts/PerpdexExchange.sol:PerpdexExchange",
            "label": "liquidity",
            "offset": 0,
            "slot": "2",
            "type": "t_uint256"
          },
          {
            "astId": 7763,
            "contract": "contracts/PerpdexExchange.sol:PerpdexExchange",
            "label": "cumDeleveragedBaseSharePerLiquidityX96",
            "offset": 0,
            "slot": "3",
            "type": "t_uint256"
          },
          {
            "astId": 7765,
            "contract": "contracts/PerpdexExchange.sol:PerpdexExchange",
            "label": "cumDeleveragedQuotePerLiquidityX96",
            "offset": 0,
            "slot": "4",
            "type": "t_uint256"
          }
        ],
        "numberOfBytes": "160"
      },
      "t_struct(PriceLimitConfig)7799_storage": {
        "encoding": "inplace",
        "label": "struct PerpdexStructs.PriceLimitConfig",
        "members": [
          {
            "astId": 7796,
            "contract": "contracts/PerpdexExchange.sol:PerpdexExchange",
            "label": "priceLimitNormalOrderRatio",
            "offset": 0,
            "slot": "0",
            "type": "t_uint24"
          },
          {
            "astId": 7798,
            "contract": "contracts/PerpdexExchange.sol:PerpdexExchange",
            "label": "priceLimitLiquidationRatio",
            "offset": 3,
            "slot": "0",
            "type": "t_uint24"
          }
        ],
        "numberOfBytes": "32"
      },
      "t_struct(PriceLimitInfo)7794_storage": {
        "encoding": "inplace",
        "label": "struct PerpdexStructs.PriceLimitInfo",
        "members": [
          {
            "astId": 7791,
            "contract": "contracts/PerpdexExchange.sol:PerpdexExchange",
            "label": "referencePrice",
            "offset": 0,
            "slot": "0",
            "type": "t_uint256"
          },
          {
            "astId": 7793,
            "contract": "contracts/PerpdexExchange.sol:PerpdexExchange",
            "label": "referenceBlockNumber",
            "offset": 0,
            "slot": "1",
            "type": "t_uint256"
          }
        ],
        "numberOfBytes": "64"
      },
      "t_struct(ProtocolInfo)7789_storage": {
        "encoding": "inplace",
        "label": "struct PerpdexStructs.ProtocolInfo",
        "members": [
          {
            "astId": 7788,
            "contract": "contracts/PerpdexExchange.sol:PerpdexExchange",
            "label": "protocolFee",
            "offset": 0,
            "slot": "0",
            "type": "t_uint256"
          }
        ],
        "numberOfBytes": "32"
      },
      "t_struct(TakerInfo)7755_storage": {
        "encoding": "inplace",
        "label": "struct PerpdexStructs.TakerInfo",
        "members": [
          {
            "astId": 7752,
            "contract": "contracts/PerpdexExchange.sol:PerpdexExchange",
            "label": "baseBalanceShare",
            "offset": 0,
            "slot": "0",
            "type": "t_int256"
          },
          {
            "astId": 7754,
            "contract": "contracts/PerpdexExchange.sol:PerpdexExchange",
            "label": "quoteBalance",
            "offset": 0,
            "slot": "1",
            "type": "t_int256"
          }
        ],
        "numberOfBytes": "64"
      },
      "t_struct(VaultInfo)7769_storage": {
        "encoding": "inplace",
        "label": "struct PerpdexStructs.VaultInfo",
        "members": [
          {
            "astId": 7768,
            "contract": "contracts/PerpdexExchange.sol:PerpdexExchange",
            "label": "collateralBalance",
            "offset": 0,
            "slot": "0",
            "type": "t_int256"
          }
        ],
        "numberOfBytes": "32"
      },
      "t_uint24": {
        "encoding": "inplace",
        "label": "uint24",
        "numberOfBytes": "3"
      },
      "t_uint256": {
        "encoding": "inplace",
        "label": "uint256",
        "numberOfBytes": "32"
      },
      "t_uint8": {
        "encoding": "inplace",
        "label": "uint8",
        "numberOfBytes": "1"
      }
    }
  }
}