{
  "address": "0xd7c4b130A9db8EB94D66296F5d719Dde85fF41f4",
  "abi": [
    {
      "inputs": [
        {
          "internalType": "address",
          "name": "_feeToSetter",
          "type": "address"
        }
      ],
      "stateMutability": "nonpayable",
      "type": "constructor"
    },
    {
      "anonymous": false,
      "inputs": [
        {
          "indexed": true,
          "internalType": "address",
          "name": "token0",
          "type": "address"
        },
        {
          "indexed": true,
          "internalType": "address",
          "name": "token1",
          "type": "address"
        },
        {
          "indexed": false,
          "internalType": "address",
          "name": "pair",
          "type": "address"
        },
        {
          "indexed": false,
          "internalType": "uint256",
          "name": "",
          "type": "uint256"
        }
      ],
      "name": "PairCreated",
      "type": "event"
    },
    {
      "inputs": [
        {
          "internalType": "uint256",
          "name": "",
          "type": "uint256"
        }
      ],
      "name": "allPairs",
      "outputs": [
        {
          "internalType": "address",
          "name": "",
          "type": "address"
        }
      ],
      "stateMutability": "view",
      "type": "function"
    },
    {
      "inputs": [],
      "name": "allPairsLength",
      "outputs": [
        {
          "internalType": "uint256",
          "name": "",
          "type": "uint256"
        }
      ],
      "stateMutability": "view",
      "type": "function"
    },
    {
      "inputs": [
        {
          "internalType": "address",
          "name": "tokenA",
          "type": "address"
        },
        {
          "internalType": "address",
          "name": "tokenB",
          "type": "address"
        }
      ],
      "name": "createPair",
      "outputs": [
        {
          "internalType": "address",
          "name": "pair",
          "type": "address"
        }
      ],
      "stateMutability": "nonpayable",
      "type": "function"
    },
    {
      "inputs": [],
      "name": "feeTo",
      "outputs": [
        {
          "internalType": "address",
          "name": "",
          "type": "address"
        }
      ],
      "stateMutability": "view",
      "type": "function"
    },
    {
      "inputs": [],
      "name": "feeToSetter",
      "outputs": [
        {
          "internalType": "address",
          "name": "",
          "type": "address"
        }
      ],
      "stateMutability": "view",
      "type": "function"
    },
    {
      "inputs": [
        {
          "internalType": "address",
          "name": "",
          "type": "address"
        },
        {
          "internalType": "address",
          "name": "",
          "type": "address"
        }
      ],
      "name": "getPair",
      "outputs": [
        {
          "internalType": "address",
          "name": "",
          "type": "address"
        }
      ],
      "stateMutability": "view",
      "type": "function"
    },
    {
      "inputs": [],
      "name": "pairCodeHash",
      "outputs": [
        {
          "internalType": "bytes32",
          "name": "",
          "type": "bytes32"
        }
      ],
      "stateMutability": "pure",
      "type": "function"
    },
    {
      "inputs": [
        {
          "internalType": "address",
          "name": "_feeTo",
          "type": "address"
        }
      ],
      "name": "setFeeTo",
      "outputs": [],
      "stateMutability": "nonpayable",
      "type": "function"
    },
    {
      "inputs": [
        {
          "internalType": "address",
          "name": "_feeToSetter",
          "type": "address"
        }
      ],
      "name": "setFeeToSetter",
      "outputs": [],
      "stateMutability": "nonpayable",
      "type": "function"
    }
  ],
  "transactionHash": "0xdc1c4a58161c7dcb70e52734ec21607b432388f830cae2e1bda52855ec9b51f4",
  "args": [
    "0x0000000000000000000000000000000000000000"
  ],
  "numDeployments": 1,
  "solcInputHash": "d511a2ee0fa73b061bf17f6c8e75c4f7",
  "bytecode": "0x608060405234801561001057600080fd5b5060405161297f38038061297f8339818101604052602081101561003357600080fd5b5051600180546001600160a01b0319166001600160a01b0390921691909117905561291c806100636000396000f3fe608060405234801561001057600080fd5b50600436106100835760003560e01c8063017e7e5814610088578063094b7415146100ac5780631e3dd18b146100b4578063574f2ba3146100d15780639aab9248146100eb578063a2e74af6146100f3578063c9c653961461011b578063e6a4390514610149578063f46901ed14610177575b600080fd5b61009061019d565b604080516001600160a01b039092168252519081900360200190f35b6100906101ac565b610090600480360360208110156100ca57600080fd5b50356101bb565b6100d96101e5565b60408051918252519081900360200190f35b6100d96101eb565b6101196004803603602081101561010957600080fd5b50356001600160a01b031661021d565b005b6100906004803603604081101561013157600080fd5b506001600160a01b0381358116916020013516610295565b6100906004803603604081101561015f57600080fd5b506001600160a01b03813581169160200135166105ba565b6101196004803603602081101561018d57600080fd5b50356001600160a01b03166105e0565b6000546001600160a01b031681565b6001546001600160a01b031681565b600381815481106101cb57600080fd5b6000918252602090912001546001600160a01b0316905081565b60035490565b6000604051806020016101fd90610658565b6020820181038252601f19601f8201166040525080519060200120905090565b6001546001600160a01b03163314610273576040805162461bcd60e51b81526020600482015260146024820152732ab734b9bbb0b82b191d102327a92124a22222a760611b604482015290519081900360640190fd5b600180546001600160a01b0319166001600160a01b0392909216919091179055565b6000816001600160a01b0316836001600160a01b031614156102fe576040805162461bcd60e51b815260206004820152601e60248201527f556e697377617056323a204944454e544943414c5f4144445245535345530000604482015290519081900360640190fd5b600080836001600160a01b0316856001600160a01b031610610321578385610324565b84845b90925090506001600160a01b03821661037e576040805162461bcd60e51b8152602060048201526017602482015276556e697377617056323a205a45524f5f4144445245535360481b604482015290519081900360640190fd5b6001600160a01b038281166000908152600260209081526040808320858516845290915290205416156103f1576040805162461bcd60e51b8152602060048201526016602482015275556e697377617056323a20504149525f45584953545360501b604482015290519081900360640190fd5b60006040518060200161040390610658565b6020820181038252601f19601f8201166040525090506000838360405160200180836001600160a01b031660601b8152601401826001600160a01b031660601b815260140192505050604051602081830303815290604052805190602001209050808251602084016000f59450846001600160a01b031663485cc95585856040518363ffffffff1660e01b815260040180836001600160a01b03168152602001826001600160a01b0316815260200192505050600060405180830381600087803b1580156104d057600080fd5b505af11580156104e4573d6000803e3d6000fd5b505050506001600160a01b0384811660008181526002602081815260408084208987168086529083528185208054978d166001600160a01b031998891681179091559383528185208686528352818520805488168517905560038054600181018255958190527fc2575a0e9e593c00f959f8c92f12db2869c3395a3b0502d05e2516446f71f85b90950180549097168417909655925483519283529082015281517f0d3648bd0f6ba80134a33ba9275ac585d9d315f0ad8355cddefde31afa28d0e9929181900390910190a35050505092915050565b60026020908152600092835260408084209091529082529020546001600160a01b031681565b6001546001600160a01b03163314610636576040805162461bcd60e51b81526020600482015260146024820152732ab734b9bbb0b82b191d102327a92124a22222a760611b604482015290519081900360640190fd5b600080546001600160a01b0319166001600160a01b0392909216919091179055565b612281806106668339019056fe60806040526001600c5534801561001557600080fd5b50604080518082018252600a8152692ab734b9bbb0b8102b1960b11b6020918201528151808301835260018152603160f81b9082015281517f8b73c3c69bb8fe3d512ecc4cf759cc79239f7b179b0ffacaa9a75d522b39400f818301527fbfcc8ef98ffbf7b6c3fec7bf5185b566b9863e35a9d83acd49ad6824b5969738818401527fc89efdaa54c0f20c7adf612882df0950f5a951637e0307cdcb4c672f298b8bc660608201524660808201523060a0808301919091528351808303909101815260c09091019092528151910120600355600580546001600160a01b03191633179055612179806101086000396000f3fe608060405234801561001057600080fd5b50600436106101795760003560e01c80636a627842116100d9578063ba9a7a5611610087578063ba9a7a56146104ce578063bc25cf77146104d6578063c45a0155146104fc578063d21220a714610504578063d505accf1461050c578063dd62ed3e1461055d578063fff6cae91461058b57610179565b80636a627842146103e157806370a08231146104075780637464fc3d1461042d5780637ecebe001461043557806389afcb441461045b57806395d89b411461049a578063a9059cbb146104a257610179565b806323b872dd1161013657806323b872dd1461033f57806330adf81f14610375578063313ce5671461037d5780633644e5151461039b578063485cc955146103a35780635909c0d5146103d15780635a3d5493146103d957610179565b8063022c0d9f1461017e57806306fdde031461020c5780630902f1ac14610289578063095ea7b3146102c15780630dfe16811461030157806318160ddd14610325575b600080fd5b61020a6004803603608081101561019457600080fd5b8135916020810135916001600160a01b0360408301351691908101906080810160608201356401000000008111156101cb57600080fd5b8201836020820111156101dd57600080fd5b803590602001918460018302840111640100000000831117156101ff57600080fd5b509092509050610593565b005b610214610a9b565b6040805160208082528351818301528351919283929083019185019080838360005b8381101561024e578181015183820152602001610236565b50505050905090810190601f16801561027b5780820380516001836020036101000a031916815260200191505b509250505060405180910390f35b610291610ac1565b604080516001600160701b03948516815292909316602083015263ffffffff168183015290519081900360600190f35b6102ed600480360360408110156102d757600080fd5b506001600160a01b038135169060200135610aeb565b604080519115158252519081900360200190f35b610309610b02565b604080516001600160a01b039092168252519081900360200190f35b61032d610b11565b60408051918252519081900360200190f35b6102ed6004803603606081101561035557600080fd5b506001600160a01b03813581169160208101359091169060400135610b17565b61032d610bab565b610385610bcf565b6040805160ff9092168252519081900360200190f35b61032d610bd4565b61020a600480360360408110156103b957600080fd5b506001600160a01b0381358116916020013516610bda565b61032d610c5e565b61032d610c64565b61032d600480360360208110156103f757600080fd5b50356001600160a01b0316610c6a565b61032d6004803603602081101561041d57600080fd5b50356001600160a01b0316610f46565b61032d610f58565b61032d6004803603602081101561044b57600080fd5b50356001600160a01b0316610f5e565b6104816004803603602081101561047157600080fd5b50356001600160a01b0316610f70565b6040805192835260208301919091528051918290030190f35b610214611304565b6102ed600480360360408110156104b857600080fd5b506001600160a01b038135169060200135611326565b61032d611333565b61020a600480360360208110156104ec57600080fd5b50356001600160a01b0316611339565b6103096114ab565b6103096114ba565b61020a600480360360e081101561052257600080fd5b506001600160a01b03813581169160208101359091169060408101359060608101359060ff6080820135169060a08101359060c001356114c9565b61032d6004803603604081101561057357600080fd5b506001600160a01b03813581169160200135166116cb565b61020a6116e8565b600c546001146105de576040805162461bcd60e51b8152602060048201526011602482015270155b9a5cddd85c158c8e881313d0d2d151607a1b604482015290519081900360640190fd5b6000600c55841515806105f15750600084115b61062c5760405162461bcd60e51b815260040180806020018281038252602581526020018061206a6025913960400191505060405180910390fd5b600080610637610ac1565b5091509150816001600160701b03168710801561065c5750806001600160701b031686105b6106975760405162461bcd60e51b81526004018080602001828103825260218152602001806120b36021913960400191505060405180910390fd5b60065460075460009182916001600160a01b039182169190811690891682148015906106d55750806001600160a01b0316896001600160a01b031614155b61071e576040805162461bcd60e51b8152602060048201526015602482015274556e697377617056323a20494e56414c49445f544f60581b604482015290519081900360640190fd5b8a1561072f5761072f828a8d61184a565b891561074057610740818a8c61184a565b86156107f257886001600160a01b03166310d1e85c338d8d8c8c6040518663ffffffff1660e01b815260040180866001600160a01b03168152602001858152602001848152602001806020018281038252848482818152602001925080828437600081840152601f19601f8201169050808301925050509650505050505050600060405180830381600087803b1580156107d957600080fd5b505af11580156107ed573d6000803e3d6000fd5b505050505b604080516370a0823160e01b815230600482015290516001600160a01b038416916370a08231916024808301926020929190829003018186803b15801561083857600080fd5b505afa15801561084c573d6000803e3d6000fd5b505050506040513d602081101561086257600080fd5b5051604080516370a0823160e01b815230600482015290519195506001600160a01b038316916370a0823191602480820192602092909190829003018186803b1580156108ae57600080fd5b505afa1580156108c2573d6000803e3d6000fd5b505050506040513d60208110156108d857600080fd5b5051925060009150506001600160701b0385168a900383116108fb57600061090a565b89856001600160701b03160383035b9050600089856001600160701b0316038311610927576000610936565b89856001600160701b03160383035b905060008211806109475750600081115b6109825760405162461bcd60e51b815260040180806020018281038252602481526020018061208f6024913960400191505060405180910390fd5b60006109a46109928460036119df565b61099e876103e86119df565b90611a42565b905060006109b66109928460036119df565b90506109db620f42406109d56001600160701b038b8116908b166119df565b906119df565b6109e583836119df565b1015610a27576040805162461bcd60e51b815260206004820152600c60248201526b556e697377617056323a204b60a01b604482015290519081900360640190fd5b5050610a3584848888611a92565b60408051838152602081018390528082018d9052606081018c905290516001600160a01b038b169133917fd78ad95fa46c994b6551d0da85fc275fe613ce37657fb8d5e3d130840159d8229181900360800190a350506001600c55505050505050505050565b6040518060400160405280600a8152602001692ab734b9bbb0b8102b1960b11b81525081565b6008546001600160701b0380821692600160701b830490911691600160e01b900463ffffffff1690565b6000610af8338484611c43565b5060015b92915050565b6006546001600160a01b031681565b60005481565b6001600160a01b038316600090815260026020908152604080832033845290915281205460001914610b96576001600160a01b0384166000908152600260209081526040808320338452909152902054610b719083611a42565b6001600160a01b03851660009081526002602090815260408083203384529091529020555b610ba1848484611ca5565b5060019392505050565b7f6e71edae12b1b97f4d1f60370fef10105fa2faae0126114a169c64845d6126c981565b601281565b60035481565b6005546001600160a01b03163314610c30576040805162461bcd60e51b81526020600482015260146024820152732ab734b9bbb0b82b191d102327a92124a22222a760611b604482015290519081900360640190fd5b600680546001600160a01b039384166001600160a01b03199182161790915560078054929093169116179055565b60095481565b600a5481565b6000600c54600114610cb7576040805162461bcd60e51b8152602060048201526011602482015270155b9a5cddd85c158c8e881313d0d2d151607a1b604482015290519081900360640190fd5b6000600c81905580610cc7610ac1565b50600654604080516370a0823160e01b815230600482015290519395509193506000926001600160a01b03909116916370a08231916024808301926020929190829003018186803b158015610d1b57600080fd5b505afa158015610d2f573d6000803e3d6000fd5b505050506040513d6020811015610d4557600080fd5b5051600754604080516370a0823160e01b815230600482015290519293506000926001600160a01b03909216916370a0823191602480820192602092909190829003018186803b158015610d9857600080fd5b505afa158015610dac573d6000803e3d6000fd5b505050506040513d6020811015610dc257600080fd5b505190506000610ddb836001600160701b038716611a42565b90506000610df2836001600160701b038716611a42565b90506000610e008787611d41565b60005490915080610e3757610e236103e861099e610e1e87876119df565b611e81565b9850610e3260006103e8611ed3565b610e7a565b610e776001600160701b038916610e4e86846119df565b81610e5557fe5b046001600160701b038916610e6a86856119df565b81610e7157fe5b04611f4b565b98505b60008911610eb95760405162461bcd60e51b81526004018080602001828103825260288152602001806120fc6028913960400191505060405180910390fd5b610ec38a8a611ed3565b610ecf86868a8a611a92565b8115610ef957600854610ef5906001600160701b0380821691600160701b9004166119df565b600b555b6040805185815260208101859052815133927f4c209b5fc8ad50758f13e2e1088ba56a560dff690a1c6fef26394f4c03821c4f928290030190a250506001600c5550949695505050505050565b60016020526000908152604090205481565b600b5481565b60046020526000908152604090205481565b600080600c54600114610fbe576040805162461bcd60e51b8152602060048201526011602482015270155b9a5cddd85c158c8e881313d0d2d151607a1b604482015290519081900360640190fd5b6000600c81905580610fce610ac1565b50600654600754604080516370a0823160e01b815230600482015290519496509294506001600160a01b039182169391169160009184916370a08231916024808301926020929190829003018186803b15801561102a57600080fd5b505afa15801561103e573d6000803e3d6000fd5b505050506040513d602081101561105457600080fd5b5051604080516370a0823160e01b815230600482015290519192506000916001600160a01b038516916370a08231916024808301926020929190829003018186803b1580156110a257600080fd5b505afa1580156110b6573d6000803e3d6000fd5b505050506040513d60208110156110cc57600080fd5b5051306000908152600160205260408120549192506110eb8888611d41565b600054909150806110fc84876119df565b8161110357fe5b049a508061111184866119df565b8161111857fe5b04995060008b11801561112b575060008a115b6111665760405162461bcd60e51b81526004018080602001828103825260288152602001806120d46028913960400191505060405180910390fd5b6111703084611f63565b61117b878d8d61184a565b611186868d8c61184a565b604080516370a0823160e01b815230600482015290516001600160a01b038916916370a08231916024808301926020929190829003018186803b1580156111cc57600080fd5b505afa1580156111e0573d6000803e3d6000fd5b505050506040513d60208110156111f657600080fd5b5051604080516370a0823160e01b815230600482015290519196506001600160a01b038816916370a0823191602480820192602092909190829003018186803b15801561124257600080fd5b505afa158015611256573d6000803e3d6000fd5b505050506040513d602081101561126c57600080fd5b5051935061127c85858b8b611a92565b81156112a6576008546112a2906001600160701b0380821691600160701b9004166119df565b600b555b604080518c8152602081018c905281516001600160a01b038f169233927fdccd412f0b1252819cb1fd330b93224ca42612892bb3f4f789976e6d81936496929081900390910190a35050505050505050506001600c81905550915091565b604051806040016040528060068152602001652aa72496ab1960d11b81525081565b6000610af8338484611ca5565b6103e881565b600c54600114611384576040805162461bcd60e51b8152602060048201526011602482015270155b9a5cddd85c158c8e881313d0d2d151607a1b604482015290519081900360640190fd5b6000600c55600654600754600854604080516370a0823160e01b815230600482015290516001600160a01b03948516949093169261142d9285928792611428926001600160701b03169185916370a0823191602480820192602092909190829003018186803b1580156113f657600080fd5b505afa15801561140a573d6000803e3d6000fd5b505050506040513d602081101561142057600080fd5b505190611a42565b61184a565b6114a181846114286008600e9054906101000a90046001600160701b03166001600160701b0316856001600160a01b03166370a08231306040518263ffffffff1660e01b815260040180826001600160a01b0316815260200191505060206040518083038186803b1580156113f657600080fd5b50506001600c5550565b6005546001600160a01b031681565b6007546001600160a01b031681565b42841015611513576040805162461bcd60e51b8152602060048201526012602482015271155b9a5cddd85c158c8e881156141254915160721b604482015290519081900360640190fd5b6003546001600160a01b0380891660008181526004602090815260408083208054600180820190925582517f6e71edae12b1b97f4d1f60370fef10105fa2faae0126114a169c64845d6126c98186015280840196909652958d166060860152608085018c905260a085019590955260c08085018b90528151808603909101815260e08501825280519083012061190160f01b6101008601526101028501969096526101228085019690965280518085039096018652610142840180825286519683019690962095839052610162840180825286905260ff89166101828501526101a284018890526101c28401879052519193926101e280820193601f1981019281900390910190855afa15801561162e573d6000803e3d6000fd5b5050604051601f1901519150506001600160a01b038116158015906116645750886001600160a01b0316816001600160a01b0316145b6116b5576040805162461bcd60e51b815260206004820152601c60248201527f556e697377617056323a20494e56414c49445f5349474e415455524500000000604482015290519081900360640190fd5b6116c0898989611c43565b505050505050505050565b600260209081526000928352604080842090915290825290205481565b600c54600114611733576040805162461bcd60e51b8152602060048201526011602482015270155b9a5cddd85c158c8e881313d0d2d151607a1b604482015290519081900360640190fd5b6000600c55600654604080516370a0823160e01b81523060048201529051611843926001600160a01b0316916370a08231916024808301926020929190829003018186803b15801561178457600080fd5b505afa158015611798573d6000803e3d6000fd5b505050506040513d60208110156117ae57600080fd5b5051600754604080516370a0823160e01b815230600482015290516001600160a01b03909216916370a0823191602480820192602092909190829003018186803b1580156117fb57600080fd5b505afa15801561180f573d6000803e3d6000fd5b505050506040513d602081101561182557600080fd5b50516008546001600160701b0380821691600160701b900416611a92565b6001600c55565b60408051808201825260198152787472616e7366657228616464726573732c75696e743235362960381b60209182015281516001600160a01b0385811660248301526044808301869052845180840390910181526064909201845291810180516001600160e01b031663a9059cbb60e01b17815292518151600094859489169392918291908083835b602083106118f25780518252601f1990920191602091820191016118d3565b6001836020036101000a0380198251168184511680821785525050505050509050019150506000604051808303816000865af19150503d8060008114611954576040519150601f19603f3d011682016040523d82523d6000602084013e611959565b606091505b5091509150818015611987575080511580611987575080806020019051602081101561198457600080fd5b50515b6119d8576040805162461bcd60e51b815260206004820152601a60248201527f556e697377617056323a205452414e534645525f4641494c4544000000000000604482015290519081900360640190fd5b5050505050565b60008115806119fa575050808202828282816119f757fe5b04145b610afc576040805162461bcd60e51b815260206004820152601460248201527364732d6d6174682d6d756c2d6f766572666c6f7760601b604482015290519081900360640190fd5b80820382811115610afc576040805162461bcd60e51b815260206004820152601560248201527464732d6d6174682d7375622d756e646572666c6f7760581b604482015290519081900360640190fd5b6001600160701b038411801590611ab057506001600160701b038311155b611af7576040805162461bcd60e51b8152602060048201526013602482015272556e697377617056323a204f564552464c4f5760681b604482015290519081900360640190fd5b60085463ffffffff42811691600160e01b90048116820390811615801590611b2757506001600160701b03841615155b8015611b3b57506001600160701b03831615155b15611ba6578063ffffffff16611b6385611b5486611fe3565b6001600160e01b031690611ff5565b600980546001600160e01b03929092169290920201905563ffffffff8116611b8e84611b5487611fe3565b600a80546001600160e01b0392909216929092020190555b600880546001600160701b0319166001600160701b0388811691909117600160701b600160e01b031916600160701b8883168102919091176001600160e01b0316600160e01b63ffffffff871602179283905560408051848416815291909304909116602082015281517f1c411e9a96e071241c2f21f7726b17ae89e3cab4c78be50e062b03a9fffbbad1929181900390910190a1505050505050565b6001600160a01b03808416600081815260026020908152604080832094871680845294825291829020859055815185815291517f8c5be1e5ebec7d5bd14f71427d1e84f3dd0314c0f7b2291e5b200ac8c7c3b9259281900390910190a3505050565b6001600160a01b038316600090815260016020526040902054611cc89082611a42565b6001600160a01b038085166000908152600160205260408082209390935590841681522054611cf7908261201a565b6001600160a01b03808416600081815260016020908152604091829020949094558051858152905191939287169260008051602061212483398151915292918290030190a3505050565b600080600560009054906101000a90046001600160a01b03166001600160a01b031663017e7e586040518163ffffffff1660e01b815260040160206040518083038186803b158015611d9257600080fd5b505afa158015611da6573d6000803e3d6000fd5b505050506040513d6020811015611dbc57600080fd5b5051600b546001600160a01b038216158015945091925090611e6d578015611e68576000611df9610e1e6001600160701b038881169088166119df565b90506000611e0683611e81565b905080821115611e65576000611e28611e1f8484611a42565b600054906119df565b90506000611e4183611e3b8660056119df565b9061201a565b90506000818381611e4e57fe5b0490508015611e6157611e618782611ed3565b5050505b50505b611e79565b8015611e79576000600b555b505092915050565b60006003821115611ec4575080600160028204015b81811015611ebe57809150600281828581611ead57fe5b040181611eb657fe5b049050611e96565b50611ece565b8115611ece575060015b919050565b600054611ee0908261201a565b60009081556001600160a01b038316815260016020526040902054611f05908261201a565b6001600160a01b03831660008181526001602090815260408083209490945583518581529351929391926000805160206121248339815191529281900390910190a35050565b6000818310611f5a5781611f5c565b825b9392505050565b6001600160a01b038216600090815260016020526040902054611f869082611a42565b6001600160a01b03831660009081526001602052604081209190915554611fad9082611a42565b60009081556040805183815290516001600160a01b03851691600080516020612124833981519152919081900360200190a35050565b6001600160701b0316600160701b0290565b60006001600160701b0382166001600160e01b0384168161201257fe5b049392505050565b80820182811015610afc576040805162461bcd60e51b815260206004820152601460248201527364732d6d6174682d6164642d6f766572666c6f7760601b604482015290519081900360640190fdfe556e697377617056323a20494e53554646494349454e545f4f55545055545f414d4f554e54556e697377617056323a20494e53554646494349454e545f494e5055545f414d4f554e54556e697377617056323a20494e53554646494349454e545f4c4951554944495459556e697377617056323a20494e53554646494349454e545f4c49515549444954595f4255524e4544556e697377617056323a20494e53554646494349454e545f4c49515549444954595f4d494e544544ddf252ad1be2c89b69c2b068fc378daa952ba7f163c4a11628f55a4df523b3efa26469706673582212203f597583a5f44ff651c26db3a8352480c858998f6a7545e52528550be3873a2264736f6c63430007060033a26469706673582212205f5e9600c279338c503d1ce4422af5d19825cad27ac5cbc9cc5a6cbf4a30aba264736f6c63430007060033",
  "devdoc": {
    "kind": "dev",
    "methods": {},
    "version": 1
  },
  "userdoc": {
    "kind": "user",
    "methods": {},
    "version": 1
  },
  "storageLayout": {
    "storage": [
      {
        "astId": 34930,
        "contract": "contracts/amm/uniswap_v2/UniswapV2Factory.sol:UniswapV2Factory",
        "label": "feeTo",
        "offset": 0,
        "slot": "0",
        "type": "t_address"
      },
      {
        "astId": 34933,
        "contract": "contracts/amm/uniswap_v2/UniswapV2Factory.sol:UniswapV2Factory",
        "label": "feeToSetter",
        "offset": 0,
        "slot": "1",
        "type": "t_address"
      },
      {
        "astId": 34940,
        "contract": "contracts/amm/uniswap_v2/UniswapV2Factory.sol:UniswapV2Factory",
        "label": "getPair",
        "offset": 0,
        "slot": "2",
        "type": "t_mapping(t_address,t_mapping(t_address,t_address))"
      },
      {
        "astId": 34944,
        "contract": "contracts/amm/uniswap_v2/UniswapV2Factory.sol:UniswapV2Factory",
        "label": "allPairs",
        "offset": 0,
        "slot": "3",
        "type": "t_array(t_address)dyn_storage"
      }
    ],
    "types": {
      "t_address": {
        "encoding": "inplace",
        "label": "address",
        "numberOfBytes": "20"
      },
      "t_array(t_address)dyn_storage": {
        "base": "t_address",
        "encoding": "dynamic_array",
        "label": "address[]",
        "numberOfBytes": "32"
      },
      "t_mapping(t_address,t_address)": {
        "encoding": "mapping",
        "key": "t_address",
        "label": "mapping(address => address)",
        "numberOfBytes": "32",
        "value": "t_address"
      },
      "t_mapping(t_address,t_mapping(t_address,t_address))": {
        "encoding": "mapping",
        "key": "t_address",
        "label": "mapping(address => mapping(address => address))",
        "numberOfBytes": "32",
        "value": "t_mapping(t_address,t_address)"
      }
    }
  }
}